:04000000A7EF36F040
:0800080057EF00F000000000BA
:100010000000000000000000046ED8CF05F0E0CF23
:1000200006F00001E9CF0CF0EACF07F0E1CF08F0CD
:10003000E2CF09F0D9CF0AF0DACF0BF0F3CF12F00C
:10004000F4CF13F0FACF14F0FBCF15F000C00EF090
:1000500001C00FF002C010F003C011F09DA034EFFA
:1000600000F09EB017EF09F00EC000F00FC001F0D5
:1000700010C002F011C003F00CC0E9FF07C0EAFF96
:10008000078E08C0E1FF09C0E2FF0AC0D9FF0BC01C
:10009000DAFF12C0F3FF13C0F4FF14C0FAFF15C05B
:1000A000FBFF045006C0E0FF05C0D8FF1000176E2C
:1000B000D8CF18F0E0CF19F00001E9CF1FF0EACF58
:1000C0001AF0E1CF1BF0E2CF1CF0D9CF1DF0DACF50
:1000D0001EF0F3CF25F0F4CF26F0FACF27F0FBCFB8
:1000E00028F000C021F001C022F002C023F003C0BC
:1000F00024F0F2AA7FEF00F0F2B400EF09F0F2A8CA
:1001000085EF00F0F2B2AAEF08F021C000F022C0A3
:1001100001F023C002F024C003F01FC0E9FF1AC0A1
:10012000EAFF1A8E1BC0E1FF1CC0E2FF1DC0D9FF11
:100130001EC0DAFF25C0F3FF26C0F4FF27C0FAFF78
:1001400028C0FBFF175019C0E0FF18C0D8FF1000EF
:10015000F2CF0DF0F29CF29EF76A740FF66E010E6C
:10016000F722000EF86E0900F5500DBCF28C0DBEA2
:10017000F28E1200000000000000005F000000038B
:10018000000300143E143E14242A7F2A124333082D
:10019000666136495522500005030000001C2241CB
:1001A000000041221C0014083E081408083E0808FC
:1001B00000503000000808080808006060000020B7
:1001C000100804023E5149453E0004027F0042618E
:1001D00051494622414949361814127F1027454596
:1001E00045393E49494932010171090736494949B2
:1001F00036264949493E0036360000005636000092
:10020000081422410014141414140041221408028A
:10021000015109063E4159555E7E0909097E7F4913
:100220004949363E414141227F4141413E7F494952
:1002300049417F090909013E4141493A7F080808BF
:100240007F00417F4100304040403F7F0814224101
:100250007F404040407F020C027F7F0204087F3EC7
:100260004141413E7F090909061E2121215E7F0986
:1002700009097600F2CF0DF0F29CF29EF76A980F12
:10028000F66E020EF722000EF86E0900F5500DBC56
:10029000F28C0DBEF28E1200264949493201017FCF
:1002A00001013F4040403F1F2040201F7F20102081
:1002B0007F41221C224107087008076151494543CC
:1002C000007F41000002040810200000417F00046C
:1002D000020102044040404040000102040020545A
:1002E0005454787F44444438384444444438444463
:1002F000447F385454541804047E0505085454545B
:100300003C7F0804047800447D40002040443D00C8
:100310007F1028440000417F40007C047804787CF2
:100320000804047838444444387C1414140808142D
:1003300014147C007C080404485454542004043FE2
:1003400044443C4040207C1C2040201C3C40304029
:100350003C44281028440C5050503C4464544C44B5
:10036000000836414100007F00004141360800028C
:1003700001020402F2CF0DF0F29CF29E960FF66E8F
:10038000030EF722000EF86E0900F5500DBCF28C3A
:100390000DBEF28E12000000000000000000000000
:1003A000001FFFFFFFFE0000000000000000000033
:1003B000001FFFFFFFFE01C0000000000000000062
:1003C000001C0000000E07F000000000000000000C
:1003D000001C0000000E1C9C00000000000000003B
:1003E000001C7F00000E180C000000000000000040
:1003F000001C4100000E30860000000000000000DC
:10040000001C4100000E20820000000000000000DF
:10041000001C4102000E608300000000000000008C
:10042000001C7F05000E7087000000000000000027
:10043000001C0002000E60C300000000000000006D
:10044000001C0000000E2062000000000000000000
:10045000001C0000000E302600000000000000001C
:10046000001FFFFFFFFE180C00000000000000004E
:10047000001C0000000E1C9C00000000000000009A
:10048000001C0000000E07F000000000000000004B
:10049000001C0000000E01C0000000000000000071
:1004A000001C0000000E0000000000000000000022
:1004B000001C0000000E0000000000000000000012
:1004C000001C0000000E0000000000000000000002
:1004D000001C0000000E00000000000000000000F2
:1004E000001C0000000E00000000000000000000E2
:1004F000001C001E000E00000000000000000000B4
:10050000001C00E1C00E0000000000000000000020
:10051000001C0180600E00000000000000000000D0
:10052000001C0278100E0000000000000000000017
:10053000001C067C180E00000000000000000000F7
:10054000001C047C080E00000000000000000000F9
:10055000001C083C040E0000000000000000000029
:10056000001C0810040E01800000000000000000C4
:10057000001C080CE40E0240000000000000000017
:10058000001C082DF40E02700000000000000000A6
:10059000001C0863F40E0240000000000000000090
:1005A000001C08F1E40E03C0000000000000000081
:1005B000001C04F0080E03F0000000000000000022
:1005C000001C04F0080E03C0000000000000000042
:1005D000001C0270100E03C00000000000000000AC
:1005E000001C0300300E07E00000000000000000C7
:1005F000001C00C0C00E0FF0000000000000000052
:10060000001C007F800E0BF00000000000000000C6
:10061000001C0000000E0BF00000000000000000B5
:10062000001C0000000E0FF00000000000000000A1
:10063000001C0000000E0FF0000000000000000091
:10064000001C0000000E07E0000000000000000099
:10065000001C0000000E03C00000000000000000AD
:10066000001C0000000E0000000000000000000060
:10067000001C0000000E0000000000000000000050
:10068000001C0000000E0000000000000000000040
:10069000001C0000000E0000000000000000000030
:1006A000001C0000000E0000000000000000000020
:1006B000001C0000000E0000000000000000000010
:1006C000001C0000000E0000000000000000000000
:1006D000001C0000000E00000000000000000000F0
:1006E000001FFFFFFFFE00000000000000000000F0
:1006F000001FFFFFFFFE00000000000000000000E0
:10070000001FFFFFFFFE00000000000000000000CF
:1007100000000000000000000000000000000000D9
:1007200000000000000000000000000000000000C9
:1007300000000000000000000000000000000000B9
:1007400000000000000000000000000000000000A9
:100750000000000000000000000000000000000099
:100760000000000000000000000000000000000089
:100770000000000000000000000000000000000079
:100780000000000000000000000000000000000069
:10079000000000000000F2CF0DF0F29CF29EF76A1C
:1007A000BA0FF66E070EF722000EF86E0900F5502C
:1007B0000DBCF28C0DBEF28E12004300F2CF0DF094
:1007C000F29CF29EF76AE00FF66E070EF722000E1B
:1007D000F86E0900F5500DBCF28C0DBEF28E1200C1
:1007E00056616C6F7200F2CF0DF0F29CF29EF76AC8
:1007F0000A0FF66E080EF722000EF86E0900F5508B
:100800000DBCF28C0DBEF28E120020416C6D616346
:10081000656E61646F00F2CF0DF0F29CF29EF76A94
:100820003A0FF66E080EF722000EF86E0900F5502A
:100830000DBCF28C0DBEF28E12004A5020496E673C
:100840006C6F62616C00F2CF0DF0F29CF29EF76A61
:100850006A0FF66E080EF722000EF86E0900F550CA
:100860000DBCF28C0DBEF28E1200202020496E636A
:10087000756261646F726100F2CF0DF0F29CF29EBE
:10088000F76A9C0FF66E080EF722000EF86E09004C
:10089000F5500DBCF28C0DBEF28E120020202020EF
:1008A000204469676974616C20200000F2CF0DF06C
:1008B000F29CF29EF76AD00FF66E080EF722000E39
:1008C000F86E0900F5500DBCF28C0DBEF28E1200D0
:1008D000202020313135204C74730000F2CF0DF010
:1008E000F29CF29EF76A000FF66E090EF722000ED8
:1008F000F86E0900F5500DBCF28C0DBEF28E1200A0
:10090000436C61766500F2CF0DF0F29CF29EF76ABF
:100910002A0FF66E090EF722000EF86E0900F55048
:100920000DBCF28C0DBEF28E1200436C6176652018
:100930004E7565766100F2CF0DF0F29CF29EF76A7B
:100940005A0FF66E090EF722000EF86E0900F550E8
:100950000DBCF28C0DBEF28E1200436F7272656395
:1009600074610000F2CF0DF0F29CF29EF76A880FDE
:10097000F66E090EF722000EF86E0900F5500DBC58
:10098000F28C0DBEF28E1200496E636F7272656357
:1009900074610000F2CF0DF0F29CF29EF76AB80F7E
:1009A000F66E090EF722000EF86E0900F5500DBC28
:1009B000F28C0DBEF28E120043617267616E646F3D
:1009C0002E2E0000F2CF0DF0F29CF29EF76AE80F97
:1009D000F66E090EF722000EF86E0900F5500DBCF8
:1009E000F28C0DBEF28E12004D656E750000F2CFD6
:1009F0000DF0F29CF29EF76A120FF66E0A0EF722C5
:100A0000000EF86E0900F5500DBCF28C0DBEF28E92
:100A10001200496E69636961722050726F63657379
:100A20006F00F2CF0DF0F29CF29EF76A460FF66E61
:100A30000A0EF722000EF86E0900F5500DBCF28C7C
:100A40000DBEF28E120053656C656363696F6E2094
:100A500054656D706572617475726100F2CF0DF04E
:100A6000F29CF29EF76A800FF66E0A0EF722000ED5
:100A7000F86E0900F5500DBCF28C0DBEF28E12001E
:100A800054656D706F72697A61646F720000F2CFA5
:100A90000DF0F29CF29EF76AB20FF66E0A0EF72284
:100AA000000EF86E0900F5500DBCF28C0DBEF28EF2
:100AB000120043616D62696F20436C6176650000CE
:100AC000F2CF0DF0F29CF29EF76AE40FF66E0A0E7A
:100AD000F722000EF86E0900F5500DBCF28C0DBE29
:100AE000F28E120056656C6F636964616420202089
:100AF0000000F2CF0DF0F29CF29EF76A160FF66E30
:100B00000B0EF722000EF86E0900F5500DBCF28CAA
:100B10000DBEF28E12002020202020202020202038
:100B2000202020200000F2CF0DF0F29CF29EF76A08
:100B30004A0FF66E0B0EF722000EF86E0900F55004
:100B40000DBCF28C0DBEF28E120053656C656363B2
:100B5000696F6E650000F2CF0DF0F29CF29EF76AAD
:100B60007A0FF66E0B0EF722000EF86E0900F550A4
:100B70000DBCF28C0DBEF28E120054656D70657264
:100B8000617475726100F2CF0DF0F29CF29EF76A0B
:100B9000AA0FF66E0B0EF722000EF86E0900F55044
:100BA0000DBCF28C0DBEF28E120054656D70657234
:100BB000617475726120313A0000F2CF0DF0F29C41
:100BC000F29EF76ADE0FF66E0B0EF722000EF86E3D
:100BD0000900F5500DBCF28C0DBEF28E120054656A
:100BE0006D706572617475726120323A0000F2CFE7
:100BF0000DF0F29CF29EF76A120FF66E0C0EF722C1
:100C0000000EF86E0900F5500DBCF28C0DBEF28E90
:100C1000120054656D706572617475726120333AAB
:100C20000000F2CF0DF0F29CF29EF76A460FF66ECE
:100C30000C0EF722000EF86E0900F5500DBCF28C78
:100C40000DBEF28E12005469656D706F0000F2CF18
:100C50000DF0F29CF29EF76A720FF66E0C0EF72200
:100C6000000EF86E0900F5500DBCF28C0DBEF28E30
:100C700012003A00F2CF0DF0F29CF29EF76A980F44
:100C8000F66E0C0EF722000EF86E0900F5500DBC42
:100C9000F28C0DBEF28E120056656C6F6369646152
:100CA0006400F2CF0DF0F29CF29EF76AC60FF66E6A
:100CB0000C0EF722000EF86E0900F5500DBCF28CF8
:100CC0000DBEF28E12002500F2CF0DF0F29CF29EC6
:100CD000F76AEC0FF66E0C0EF722000EF86E0900A4
:100CE000F5500DBCF28C0DBEF28E1200537461747F
:100CF00075733A436F6E74726F6C616E646F20002F
:100D0000F2CF0DF0F29CF29EF76A240FF66E0D0EF4
:100D1000F722000EF86E0900F5500DBCF28C0DBEE6
:100D2000F28E12005374617475733A43616C656E90
:100D300074616E646F200000F2CF0DF0F29CF29EA1
:100D4000F76A5C0FF66E0D0EF722000EF86E0900C2
:100D5000F5500DBCF28C0DBEF28E1200537461740E
:100D600075733A5075657274612041626965727479
:100D70006100F2CF0DF0F29CF29EF76A960FF66ECC
:100D80000D0EF722000EF86E0900F5500DBCF28C26
:100D90000DBEF28E12005374617475733A416C612A
:100DA000726D612030310000F2CF0DF0F29CF29EA6
:100DB000F76ACC0FF66E0D0EF722000EF86E0900E2
:100DC000F5500DBCF28C0DBEF28E12002D2D2D2D86
:100DD0002D00F2CF0DF0F29CF29EF76AF60FF66E40
:100DE0000D0EF722000EF86E0900F5500DBCF28CC6
:100DF0000DBEF28E120054656D703A00F2CF0DF008
:100E0000F29CF29EF76A200FF66E0E0EF722000E8D
:100E1000F86E0900F5500DBCF28C0DBEF28E12007A
:100E200054696D653A00F2CF0DF0F29CF29EF76ABC
:100E30004A0FF66E0E0EF722000EF86E0900F550FE
:100E40000DBCF28C0DBEF28E120028483A4D2900DE
:100E5000F2CF0DF0F29CF29EF76A740FF66E0E0E52
:100E6000F722000EF86E0900F5500DBCF28C0DBE95
:100E7000F28E12005374617475733A46696E616C38
:100E8000697A61646F00F2CF0DF0F29CF29EF76A0E
:100E9000AA0FF66E0E0EF722000EF86E0900F5503E
:100EA0000DBCF28C0DBEF28E120050726F706F721C
:100EB00063696F6E616C0000F2CF0DF0F29CF29EE0
:100EC000F76ADC0FF66E0E0EF722000EF86E0900C0
:100ED000F5500DBCF28C0DBEF28E1200496E746599
:100EE0006772616C0000F2CF0DF0F29CF29EF76A1F
:100EF0000A0FF66E0F0EF722000EF86E0900F5507D
:100F00000DBCF28C0DBEF28E1200446572697661E2
:100F10007469766F0000F2CF0DF0F29CF29EF76AD2
:100F20003A0FF66E0F0EF722000EF86E0900F5501C
:100F30000DBCF28C0DBEF28E1200546369636C6FAF
:100F40000000F2CF0DF0F29CF29EF76A660FF66E8B
:100F50000F0EF722000EF86E0900F5500DBCF28C52
:100F60000DBEF28E1200416A75737465202B00006D
:100F7000F2CF0DF0F29CF29EF76A940FF66E0F0E10
:100F8000F722000EF86E0900F5500DBCF28C0DBE74
:100F9000F28E1200416A75737465202D0000F2CF45
:100FA0000DF0F29CF29EF76AC20FF66E0F0EF7225A
:100FB000000EF86E0900F5500DBCF28C0DBEF28EDD
:100FC00012004D65646961204D6F76696C00F2CF47
:100FD0000DF0F29CF29EF76AF20FF66E0F0EF722FA
:100FE000000EF86E0900F5500DBCF28C0DBEF28EAD
:100FF000120047616E616E6369612020202000004D
:10100000F2CF0DF0F29CF29EF76A240FF66E100EEE
:10101000F722000EF86E0900F5500DBCF28C0DBEE3
:10102000F28E1200202020202020202020202020AE
:101030000000F2CF0DF0F29CF29EF76A560FF66EAA
:10104000100EF722000EF86E0900F5500DBCF28C60
:101050000DBEF28E12005000F2CF0DF0F29CF29E07
:10106000F76A7C0FF66E100EF722000EF86E09007C
:10107000F5500DBCF28C0DBEF28E12004900F2CF7D
:101080000DF0F29CF29EF76AA20FF66E100EF72298
:10109000000EF86E0900F5500DBCF28C0DBEF28EFC
:1010A00012004400F2CF0DF0F29CF29EF76AC80FD6
:1010B000F66E100EF722000EF86E0900F5500DBC0A
:1010C000F28C0DBEF28E1200416A757374650000D9
:1010D000F2CF0DF0F29CF29EF76AF40FF66E100E4E
:1010E000F722000EF86E0900F5500DBCF28C0DBE13
:1010F000F28E1200416A757374656E00F2CF0DF0C6
:10110000F29CF29EF76A200FF66E110EF722000E87
:10111000F86E0900F5500DBCF28C0DBEF28E120077
:101120004D6564696100F2CF0DF0F29CF29EF76AA2
:101130004A0FF66E110EF722000EF86E0900F550F8
:101140000DBCF28C0DBEF28E120047616E616E63B3
:10115000696100000501A08BB151090806E1D76A59
:10116000BE0ED66E8B90949046D0B151080806E121
:10117000D76AB40ED66E8B9094903DD0B1510708CB
:1011800006E1D76AAF0ED66E8B90949034D0B151F1
:10119000060806E1D76AAC0ED66E8B9094902BD0E1
:1011A000B151050806E1D76AA90ED66E8B909490CE
:1011B00022D0B151040806E1D76AA60ED66E8B90F4
:1011C000949019D0B151030806E1D76AA30ED66EE8
:1011D0008B90949010D0B151020806E1D76AA00E0E
:1011E000D66E8B90949007D0B12D05D0D76A9E0E05
:1011F000D66E8B909490B92BF292000185EF00F09F
:101200000501B15310E0B15109080DE3A0AB07D0BF
:101210008B809490D76AFD0ED66EA09B04D08B90E5
:101220009490D76AD66AF294000185EF00F09E0E82
:10123000CF6E580ECE6E0501C02BD8B4C12BC22B79
:10124000D8B4C32BC42BD8B4C52BB1510A0804E1C0
:101250008B809490D76AD66AB15304E18B909490B6
:10126000D76AD66AC35303E1C251C70804E2010E2C
:10127000A86FC36BC26BA92D21D0C551CD5D11E301
:1012800003E1CC51C45D0DE2B151050805E28B8448
:1012900094948B92949204D08B9294928B84949495
:1012A00004D08B9494948B929492CF51C55D06E3B5
:1012B00003E1CE51C45D02E3C56BC46BC15303E1CE
:1012C000C051C70827E2C16BC06BAC87AF2BD02BD6
:1012D000D8B4D12BA62BA0A501D0B72BA0A701D0A5
:1012E000B82BADA103D0D22BD8B4D32BADAB03D048
:1012F000CA2BD8B4CB2BBB2D03D0C62BD8B4C72B4D
:10130000ADA703D0C82BD8B4C92BADAF03D0D42B15
:10131000D8B4D52B9E90000134EF00F0060EEA6E93
:101320009C0EE96EEF500DE0060E016E006A002E75
:10133000FED7012EFBD77B0E006E002EFED7EF2EC0
:10134000F3D7000C040E0601936FFA0E9C6F000198
:10135000E5DF0601932FF9D7F288F18CC70ED56E21
:10136000F28A850ECD6E9D80C150C00B0E09C16EF4
:10137000C050C00B0609C06EC08EC280D76AD66A44
:10138000C00EF212000134EF39F08E0E006EA0C6CE
:1013900001F09FC602F0036A015209E102C001F0A8
:1013A000026A080E005E015202E1006A08D0D8907D
:1013B00001BE04D0023601360006F9D7019E000CAA
:1013C00006019451D8B4A5D0A06F9851D8B4A1D03B
:1013D000A05F05E37F0EA027D8B09BD006D0810E7A
:1013E000A05FD8A096D0D8B494D0A0C600F0016A6F
:1013F000026A036A9F6B95C69EF69E8F96C69DF6FF
:1014000097C69CF6190EA06F9B519C5F0DE2010ED2
:101410009D5F0AE29E5F08E29F5F06E29F2B9E2B84
:101420009D2B9B519C2728D09A519D5F12E2010E63
:101430009E5F0FE29F5F0DE29F2B9E2B9A519D278F
:101440009B519C2719E39D2B17E19E2B15E19F2BA8
:1014500013D0995180099E5F0EE2010E9F5F0BE24F
:101460009F2B995180099E279A519D27E9E39E2B36
:10147000E7E19F2BE5D70380A02F01D00BD0D890B8
:101480009C379D379E379F37D890033602360136FA
:10149000A137BAD7A1A106D0D890013202320332C7
:1014A000A13302D0000635E0A1BF1ED0D8909C37F2
:1014B0009D379E379F379B519C5F07E2010E9D5FD2
:1014C00004E29E5F02E29F5F1AE39A519D5F05E28C
:1014D000010E9E5F02E29F5F12E3995180099E5FB9
:1014E00003E2010E9F5F0BE3032A09E1022A07E1F1
:1014F000012A05E1002A0DE001320232033295C6CD
:10150000A0F69951A01BA0AF02D0018E06D0019E7B
:1015100004D0006A016A026A036A0001000C800EAE
:10152000D8A202D00601A41B0601A96BAA6BA0C613
:10153000A8F6A451A81B9F51D8B4DFD0A76F006EA6
:10154000A351D8B4E3D0A75FD8B483D03EE3A4C6F8
:10155000ADF6AD8FA5C6ACF6A6C6ABF6AA6BD89015
:10156000AD33AC33AB33AA33A72FF8D7A8AF03D032
:10157000A981E0D0A991A791A989060EEA6EA20ED1
:10158000E96EEBD0A999A8BF0AD0A7A113D0AD33BB
:10159000AC33AB33AA33002AD8B4C7D00BD0ADBF1D
:1015A0000CD0D890AA37AB37AC37AD370006D8B4DB
:1015B000BCD0F5D7A98D6DD0A99DA0C6A8F6A0AFC7
:1015C00002D0AD8FABD0AD9FA9D0A3C6A7F6A3C65E
:1015D00000F09F51A75FA0C6ADF6AD8FA1C6ACF6D7
:1015E000A2C6ABF6AA6BD890AD33AC33AB33AA33FB
:1015F000A72FF8D7A8AF03D0A9839CD0A993A79110
:10160000A98B060EEA6EA60EE96EA7D0A99BA8BF0D
:101610000AD0A7A113D0AD33AC33AB33AA33002A21
:10162000D8B483D00BD0ADBF0CD0D890AA37AB378D
:10163000AC37AD370006D8B478D0F5D7A98F29D00C
:10164000A99FA4C6A8F6A4AF02D0AD8F67D0AD9F66
:1016500065D0A4C6ADF6AD8FA5C6ACF6A6C6ABF6F2
:10166000A8AF04D0AD9FA98565D0A995AA6BA79115
:10167000060EEA6EA20EE96E70D0A8BF1CD0A0C6FE
:10168000A8F6A7A106D0AD33AC33AB33AA33002AFA
:101690004CE0AAAF0BD0AB2B09E1AC2B07E1AD2B93
:1016A00005E1AD33AC33AB33002A3FE0A9BD84D7AD
:1016B000A9BFC6D71CD0800EAD1BADAF04D03AD0A9
:1016C000A4C6A8F60AD0A0C6A8F6AD5306E1AC534E
:1016D00004E1AB5302E1006A21D0ADBF08D0D8903D
:1016E000AA37AB37AC37AD37002EF7D71ED0A8AF2F
:1016F00002D0AD8F13D0AD9F11D0A3C600F0A4C609
:10170000ADF6A5C6ACF6A6C6ABF608D09FC600F0EF
:10171000A0C6ADF6A1C6ACF6A2C6ABF6ADC601F04A
:10172000ACC602F0ABC603F034D0006A016A026AAC
:10173000036A2FD0AA6BAB1FAC1FAD1FAA1FAA2B29
:1017400005E1AB2B03E1AC2B01E1AD2BA9B112D725
:10175000A9B354D7A9B589D7B3D7EF50AB2705E3C1
:10176000AC2B03E1AD2BD8B4A781ED52EF50AC27E1
:1017700003E3AD2BD8B4A781ED52EF50EFBE01D0FB
:10178000800AAD27D8B0A781A9B9FCD6A9BB3ED79E
:1017900074D70001000CF2CF93F6F29CF29EAA6A75
:1017A000A96AA69CA69EA680A850060193BDF28CAD
:1017B00093BFF28E0501FC6F140E06019C6F0001B1
:1017C000ADDDF2CF93F6F29CF29EAA6A010EA96EED
:1017D000A69CA69EA680A850060193BDF28C93BF3E
:1017E000F28E0501FD6F140E06019C6F000196DD5F
:1017F000F2CF93F6F29CF29EAA6A020EA96EA69C04
:10180000A69EA680A850060193BDF28C93BFF28ECF
:101810000501FE6F140E06019C6F00017FDDF2CF03
:1018200093F6F29CF29EAA6A030EA96EA69CA69E4F
:10183000A680A850060193BDF28C93BFF28E0501DD
:10184000FF6F140E06019C6F000168DDF2CF93F666
:10185000F29CF29EAA6A040EA96EA69CA69EA68081
:10186000A850060193BDF28C93BFF28E046F140E44
:101870009C6F000153DDF2CF93F6F29CF29EAA6AB0
:10188000050EA96EA69CA69EA680A850060193BD33
:10189000F28C93BFF28E056F140E9C6F00013EDD3B
:1018A000F2CF93F6F29CF29EAA6A060EA96EA69C4F
:1018B000A69EA680A850060193BDF28C93BFF28E1F
:1018C000066F140E9C6F000129DDF2CF93F6F29C97
:1018D000F29EAA6A070EA96EA69CA69EA680A85094
:1018E000060193BDF28C93BFF28E076F140E9C6FAE
:1018F000000114DDF2CF93F6F29CF29EAA6A080E64
:10190000A96EA69CA69EA680A850060193BDF28C47
:1019100093BFF28E0501BE6F140E06019C6F00018D
:10192000FDDCF2CF93F6F29CF29EAA6A090EA96E34
:10193000A69CA69EA680A850060193BDF28C93BFDC
:10194000F28EA06B9F6F000120DD03C05BF602C02A
:101950005AF601C059F600C058F65BC697F65AC64B
:1019600096F659C695F658C694F606019B6B9A6B87
:10197000200E996F820E986F000122DD03C05BF686
:1019800002C05AF601C059F600C058F60601A06B15
:10199000BEC59FF60001F9DCD89203C0A2F602C0D2
:1019A000A1F601C0A0F600C09FF65BC6A6F65AC617
:1019B000A5F659C6A4F658C6A3F6B1DD03C04FF686
:1019C00002C04EF601C04DF600C04CF6140E0601E2
:1019D0009C6F0001A3DCF2CF93F6F29CF29EAA6A00
:1019E0000A0EA96EA69CA69EA680A850060193BDCD
:1019F000F28C93BFF28E0501BE6F140E06019C6F30
:101A000000018CDCF2CF93F6F29CF29EAA6A0B0ED8
:101A1000A96EA69CA69EA680A850060193BDF28C36
:101A200093BFF28EA06B9F6F0001AFDC03C05BF62B
:101A300002C05AF601C059F600C058F65BC697F6C8
:101A40005AC696F659C695F658C694F606019B6B8B
:101A50009A6B200E996F820E986F0001B1DC03C063
:101A60005BF602C05AF601C059F600C058F60601EE
:101A7000A06BBEC59FF6000188DCD89203C0A2F619
:101A800002C0A1F601C0A0F600C09FF65BC6A6F694
:101A90005AC6A5F659C6A4F658C6A3F640DD03C03B
:101AA00053F602C052F601C051F600C050F6140EB3
:101AB00006019C6F000132DCF2CF93F6F29CF29E9D
:101AC000AA6A0C0EA96EA69CA69EA680A850060126
:101AD00093BDF28C93BFF28E0501BE6F140E06010A
:101AE0009C6F00011BDCF2CF93F6F29CF29EAA6A77
:101AF0000D0EA96EA69CA69EA680A850060193BDB9
:101B0000F28C93BFF28EA06B9F6F00013EDC03C08E
:101B10005BF602C05AF601C059F600C058F65BC623
:101B200097F65AC696F659C695F658C694F6060123
:101B30009B6B9A6B200E996F820E986F000140DCB0
:101B400003C05BF602C05AF601C059F600C058F651
:101B50000601A06BBEC59FF6000117DCD89203C03A
:101B6000A2F602C0A1F601C0A0F600C09FF65BC6B7
:101B7000A6F65AC6A5F659C6A4F658C6A3F6CFDCF3
:101B800003C057F602C056F601C055F600C054F621
:101B9000140E06019C6F00018EEC09F0F2CF93F653
:101BA000F29CF29EAA6A0E0EA96EA69CA69EA68024
:101BB000A850060193BDF28C93BFF28EA06B9F6F6D
:101BC0000001C5EC09F003C02FF602C02EF601C0DB
:101BD0002DF600C02CF60A0E06019C6F00018EEC5B
:101BE00009F0F2CF93F6F29CF29EAA6A0F0EA96E4C
:101BF000A69CA69EA680A850060193BDF28C93BF1A
:101C0000F28EA06B9F6F0001C5EC09F003C0EFF5E9
:101C100002C0EEF501C0EDF500C0ECF50A0E0601BC
:101C20009C6F00018EEC09F0F2CF93F6F29CF29ECD
:101C3000AA6A100EA96EA69CA69EA680A8500601B0
:101C400093BDF28C93BFF28EA06B9F6F0001C5EC29
:101C500009F003C0F3F502C0F2F501C0F1F500C0D0
:101C6000F0F50A0E06019C6F00018EEC09F0F2CF30
:101C700093F6F29CF29EAA6A110EA96EA69CA69EED
:101C8000A680A850060193BDF28C93BFF28EA06B84
:101C90009F6F0001C5EC09F003C017F602C016F6ED
:101CA00001C015F600C014F60A0E06019C6F000173
:101CB0008EEC09F0F2CF93F6F29CF29EAA6A120E15
:101CC000A96EA69CA69EA680A850060193BDF28C84
:101CD00093BFF28E0501A36F0A0E06019C6F0001EF
:101CE0008EEC09F0F2CF93F6F29CF29EAA6A130EE4
:101CF000A96EA69CA69EA680A850060193BDF28C54
:101D000093BFF28E0501A46F0A0E06019C6F0001BD
:101D10008EEC09F0F2CF93F6F29CF29EAA6A140EB2
:101D2000A96EA69CA69EA680A850060193BDF28C23
:101D300093BFF28E0501A56F0A0E06019C6F00018C
:101D40008EEC09F0F2CF93F6F29CF29EAA6A160E80
:101D5000A96EA69CA69EA680A850060193BDF28CF3
:101D600093BFF28EA06B9F6F0001C5EC09F003C01A
:101D70005BF602C05AF601C059F600C058F65BC6C1
:101D800097F65AC696F659C695F658C694F60601C1
:101D90009B6B9A6B200E996F820E986F0001E0EC9E
:101DA00009F003C05BF602C05AF601C059F600C044
:101DB00058F60A0E06019C6F00018EEC09F0F2CF76
:101DC00093F6F29CF29EAA6A150EA96EA69CA69E98
:101DD000A680A850060193BDF28C93BFF28EA06B33
:101DE0009F6F0001C5EC09F0D89203C0A2F602C0B3
:101DF000A1F601C0A0F600C09FF65BC6A6F65AC6C3
:101E0000A5F659C6A4F658C6A3F68FEC0AF003C08F
:101E1000E7F502C0E6F501C0E5F500C0E4F50A0EFD
:101E200006019C6F00018EEC09F0F2CF93F6F29C54
:101E3000F29EAA6A180EA96EA69CA69EA680A8501D
:101E4000060193BDF28C93BFF28E946FF2CF95F69C
:101E5000F29CF29EAA6A170EA96EA69CA69EA68068
:101E6000A85095BDF28C95BFF28E966F94C603F084
:101E700096519F6F03C0A0F60001C5EC09F003C0A6
:101E80000FF602C00EF601C00DF600C00CF60A0EE9
:101E900006019C6F00018EEC09F0F2CF93F6F29CE4
:101EA000F29EAA6A1A0EA96EA69CA69EA680A850AB
:101EB000060193BDF28C93BFF28EA06B9F6F000161
:101EC000C5EC09F003C05BF602C05AF601C059F632
:101ED00000C058F65BC697F65AC696F659C695F6F0
:101EE00058C694F606019B6B9A6B200E996F820E72
:101EF000986F0001E0EC09F003C05BF602C05AF6EF
:101F000001C059F600C058F60A0E06019C6F000188
:101F10008EEC09F0F2CF93F6F29CF29EAA6A190EAB
:101F2000A96EA69CA69EA680A850060193BDF28C21
:101F300093BFF28EA06B9F6F0001C5EC09F0D892A1
:101F400003C0A2F602C0A1F601C0A0F600C09FF631
:101F50005BC6A6F65AC6A5F659C6A4F658C6A3F699
:101F60008FEC0AF003C0EBF502C0EAF501C0E9F519
:101F700000C0E8F50A0E06019C6F00018EEC09F026
:101F8000F2CF93F6F29CF29EAA6A1B0EA96EA69C53
:101F9000A69EA680A850060193BDF28C93BFF28E38
:101FA0000501B06F0A0E06019C6F00018EEC09F06E
:101FB000F2CF93F6F29CF29EAA6A1C0EA96EA69C22
:101FC000A69EA680A850060193BDF28C93BFF28E08
:101FD0000501B26F0A0E06019C6F00018EEC09F03C
:101FE00036EF39F094C69BF6060198519B1B9BAFC8
:101FF00005D0D894D89094BFD8802FD094C69BF6A3
:1020000097C69CF693519C5F06E09BAF26D0D850B4
:10201000010AD86E22D098C69CF694519C5F06E0C7
:102020009BAF1BD0D850010AD86E17D099C69CF62A
:1020300095519C5F06E09BAF10D0D850010AD86E36
:102040000CD09AC69CF696519C5F06E09BAF05D0DB
:10205000D850010AD86E01D0D8900001000C0501BB
:10206000FCBF03D0FC51090803E3FCBF01D01DD025
:10207000FC6BAA6AA96AA86AA69CA69EA684F250CE
:10208000006EF29CF29E0F01550EA76EAA0EA76E6F
:10209000A682A6B2FED7A6940050F212140E060134
:1020A0009C6F00018EEC09F00501FDBF03D0FD51CE
:1020B000090803E3FDBF01D01ED0FD6BAA6A010E23
:1020C000A96EA86AA69CA69EA684F250006EF29CF9
:1020D000F29E0F01550EA76EAA0EA76EA682A6B29B
:1020E000FED7A6940050F212140E06019C6F000158
:1020F0008EEC09F00501FEBF03D0FE51090803E391
:10210000FEBF01D01ED0FE6BAA6A020EA96EA86A9D
:10211000A69CA69EA684F250006EF29CF29E0F0131
:10212000550EA76EAA0EA76EA682A6B2FED7A694DB
:102130000050F212140E06019C6F00018EEC09F0A3
:102140000501FFBF03D0FF51090803E3FFBF01D022
:102150001DD0FF6BAA6A030EA96EA86AA69CA69E54
:10216000A684F250006EF29CF29E0F01550EA76EEF
:10217000AA0EA76EA682A6B2FED7A6940050F212AF
:10218000140E06019C6F00018EEC09F0060104BFDD
:1021900003D00451090803E304BF01D01ED0046B2F
:1021A000AA6A040EA96EA86AA69CA69EA684F250EE
:1021B000006EF29CF29E0F01550EA76EAA0EA76E3E
:1021C000A682A6B2FED7A6940050F212140E060103
:1021D0009C6F00018EEC09F0060105BF03D005518C
:1021E000090803E305BF01D01ED0056BAA6A050EDE
:1021F000A96EA86AA69CA69EA684F250006EF29CC8
:10220000F29E0F01550EA76EAA0EA76EA682A6B269
:10221000FED7A6940050F212140E06019C6F000126
:102220008EEC09F0060106BF03D00651090803E34E
:1022300006BF01D01ED0066BAA6A060EA96EA86A58
:10224000A69CA69EA684F250006EF29CF29E0F0100
:10225000550EA76EAA0EA76EA682A6B2FED7A694AA
:102260000050F212140E06019C6F00018EEC09F072
:10227000060107BF03D00751090803E307BF01D0D8
:102280001ED0076BAA6A070EA96EA86AA69CA69E16
:10229000A684F250006EF29CF29E0F01550EA76EBE
:1022A000AA0EA76EA682A6B2FED7A6940050F2127E
:1022B000140E06019C6F00018EEC09F00601966B6E
:1022C000956B700E946F840E936F4FC69AF64EC640
:1022D00099F64DC698F64CC697F6000183DE40E3AA
:1022E00006014F6B4E6B700E4D6F830E4C6FAA6ADA
:1022F000080EA96E1E0EA86EA69CA69EA684F2507D
:10230000006EF29CF29E0F01550EA76EAA0EA76EEC
:10231000A682A6B2FED7A6940050F212140E0601B1
:102320009C6F00018EEC09F0AA6A090EA96EA86ADA
:10233000A69CA69EA684F250006EF29CF29E0F010F
:10234000550EA76EAA0EA76EA682A6B2FED7A694B9
:102350000050F212140E06019C6F00018EEC09F081
:102360000601966B956B700E946F840E936F53C637
:102370009AF652C699F651C698F650C697F60001DD
:1023800031DE40E30601536B526B700E516F830ECA
:10239000506FAA6A0A0EA96E1E0EA86EA69CA69E73
:1023A000A684F250006EF29CF29E0F01550EA76EAD
:1023B000AA0EA76EA682A6B2FED7A6940050F2126D
:1023C000140E06019C6F00018EEC09F0AA6A0B0E38
:1023D000A96EA86AA69CA69EA684F250006EF29CE6
:1023E000F29E0F01550EA76EAA0EA76EA682A6B288
:1023F000FED7A6940050F212140E06019C6F000145
:102400008EEC09F00601966B956B700E946F840E3E
:10241000936F57C69AF656C699F655C698F654C69F
:1024200097F60001DFDD40E30601576B566B700E37
:10243000556F830E546FAA6A0C0EA96E1E0EA86EFD
:10244000A69CA69EA684F250006EF29CF29E0F01FE
:10245000550EA76EAA0EA76EA682A6B2FED7A694A8
:102460000050F212140E06019C6F00018EEC09F070
:10247000AA6A0D0EA96EA86AA69CA69EA684F25012
:10248000006EF29CF29E0F01550EA76EAA0EA76E6B
:10249000A682A6B2FED7A6940050F212140E060130
:1024A0009C6F00018EEC09F00601966B956B946BA6
:1024B000810E936F2FC69AF62EC699F62DC698F602
:1024C0002CC697F600018EDD11E22FC696F62EC6B9
:1024D00095F62DC694F62CC693F606019A6B996B69
:1024E000986B7F0E976F00017DDD23E306012F6B54
:1024F0002E6B2D6B800E2C6FAA6A0E0EA96E020E2B
:10250000A86EA69CA69EA684F250006EF29CF29E37
:102510000F01550EA76EAA0EA76EA682A6B2FED711
:10252000A6940050F212140E06019C6F00018EEC6E
:1025300009F00601966B956B946B810E936FEFC556
:102540009AF6EEC599F6EDC598F6ECC597F600013A
:1025500049DD11E2EFC596F6EEC595F6EDC594F6A8
:10256000ECC593F606019A6B996B986B7F0E976F8B
:10257000000138DD23E30501EF6BEE6BED6B7F0EA1
:10258000EC6FAA6A0F0EA96E010EA86EA69CA69EFD
:10259000A684F250006EF29CF29E0F01550EA76EBB
:1025A000AA0EA76EA682A6B2FED7A6940050F2127B
:1025B000140E06019C6F00018EEC09F00601966B6B
:1025C000956B200E946F850E936FF3C59AF6F2C546
:1025D00099F6F1C598F6F0C597F6000103DD12E211
:1025E000F3C596F6F2C595F6F1C594F6F0C593F6E7
:1025F00006019A6B996B200E986F820E976F0001FF
:10260000F1DC24E30501F36BF26B200EF16F850E14
:10261000F06FAA6A100EA96E500EA86EA69CA69E18
:10262000A684F250006EF29CF29E0F01550EA76E2A
:10263000AA0EA76EA682A6B2FED7A6940050F212EA
:10264000140E06019C6F00018EEC09F00601966BDA
:10265000956B200E946F820E936F17C69AF616C66E
:1026600099F615C698F614C697F60001BBDC12E27F
:1026700017C696F616C695F615C694F614C693F6C2
:1026800006019A6B996B200E986F810E976F00016F
:10269000A9DC24E30601176B166B200E156F810E63
:1026A000146FAA6A110EA96E050EA86EA69CA69EAE
:1026B000A684F250006EF29CF29E0F01550EA76E9A
:1026C000AA0EA76EA682A6B2FED7A6940050F2125A
:1026D000140E06019C6F00018EEC09F00501A35158
:1026E00064081EE2A36BAA6A120EA96EA86AA69CD1
:1026F000A69EA684F250006EF29CF29E0F01550E2B
:10270000A76EAA0EA76EA682A6B2FED7A694005008
:10271000F212140E06019C6F00018EEC09F0050107
:10272000A45164081EE2A46BAA6A130EA96EA86ADB
:10273000A69CA69EA684F250006EF29CF29E0F010B
:10274000550EA76EAA0EA76EA682A6B2FED7A694B5
:102750000050F212140E06019C6F00018EEC09F07D
:102760000501A551500803E3A55109081FE3500EC8
:10277000A56FAA6A140EA96E500EA86EA69CA69EFE
:10278000A684F250006EF29CF29E0F01550EA76EC9
:10279000AA0EA76EA682A6B2FED7A6940050F21289
:1027A000140E06019C6F00018EEC09F00601966B79
:1027B000956B5C0E946F850E936FE7C59AF6E6C530
:1027C00099F6E5C598F6E4C597F600010BDC13E22F
:1027D000E7C596F6E6C595F6E5C594F6E4C593F625
:1027E00006019A6B996B480E986F850E976F0001E2
:1027F000F2EC0FF043E3CD0E0501E76FCC0EE66F70
:10280000530EE56F850EE46FAA6A150EA96E690E68
:10281000A86EA69CA69EA684F250006EF29CF29E24
:102820000F01550EA76EAA0EA76EA682A6B2FED7FE
:10283000A6940050F212140E06019C6F00018EEC5B
:1028400009F0AA6A160EA96E090EA86EA69CA69E8D
:10285000A684F250006EF29CF29E0F01550EA76EF8
:10286000AA0EA76EA682A6B2FED7A6940050F212B8
:10287000140E06019C6F00018EEC09F00601966BA8
:10288000956B480E946F8B0E936F0FC69AF60EC61B
:1028900099F60DC698F60CC697F60001F2EC0FF00B
:1028A00042E306010F6BC00E0E6F410E0D6F8B0ED3
:1028B0000C6FAA6A170EA96E180EA86EA69CA69E8B
:1028C000A684F250006EF29CF29E0F01550EA76E88
:1028D000AA0EA76EA682A6B2FED7A6940050F21248
:1028E000140E06019C6F00018EEC09F0AA6A180E06
:1028F000A96E380EA86EA69CA69EA684F250006E05
:10290000F29CF29E0F01550EA76EAA0EA76EA6822C
:10291000A6B2FED7A6940050F212140E06019C6FC8
:1029200000018EEC09F00601966B956B946B800E9E
:10293000936FEBC59AF6EAC599F6E9C598F6E8C52E
:1029400097F60001F2EC0FF03FE30501EB6BEA6B49
:10295000E96B7E0EE86FAA6A190EA96EA86AA69C9A
:10296000A69EA684F250006EF29CF29E0F01550EB8
:10297000A76EAA0EA76EA682A6B2FED7A694005096
:10298000F212140E06019C6F00018EEC09F0AA6A87
:102990001A0EA96E050EA86EA69CA69EA684F250DD
:1029A000006EF29CF29E0F01550EA76EAA0EA76E46
:1029B000A682A6B2FED7A6940050F212140E06010B
:1029C0009C6F00018EEC09F00501B051010820E276
:1029D000010EB06FAA6A1B0EA96E010EA86EA69C0E
:1029E000A69EA684F250006EF29CF29E0F01550E38
:1029F000A76EAA0EA76EA682A6B2FED7A694005016
:102A0000F212140E06019C6F00018EEC09F0050114
:102A1000B2510A0820E20A0EB26FAA6A1C0EA96E11
:102A20000A0EA86EA69CA69EA684F250006EF29C8A
:102A3000F29E0F01550EA76EAA0EA76EA682A6B231
:102A4000FED7A6940050F212140E06019C6F0001EE
:102A50008EEC09F005012FC63BF62EC63AF62DC6C0
:102A600039F62CC638F6000138EF39F00601AD53BF
:102A700003E093968A8602D093948A84939C8A9CDE
:102A8000956AAEC68CFF0000939E8A8E00D000D05F
:102A90000000939E8A9E93948A9493968A9600014E
:102AA000000C06019E6B2A0E9D6F020EA06F2A0E6F
:102AB0009F6F9B51FF0DF3CF9CF6A26BA16BA251B0
:102AC00001081AE39EC603F09D519D2BD8B49E2B9E
:102AD000E96E03C0EAFF9CC6EFFFA0C603F09F515A
:102AE0009F2BD8B4A02BE96E03C0EAFF9CC6EFFF72
:102AF000A12BD8B4A22BE3D70001000C0601A96BCF
:102B00002A0EA86F020EAB6F2A0EAA6FA66BA651F3
:102B100007084EE3939A8A9AAD6B400EAE6F0001A0
:102B2000A5DF010E0601AD6F400EAE6F00019EDF06
:102B30000601A651B809AC6FAD6BAE6F000196DF10
:102B40000601A651B809AC6F010EAD6FACC6AEF66A
:102B500000018CDF939A8A8A0601A76BA7513F0870
:102B600025E3A9C603F0A851A82BD8B4A92BE96E78
:102B700003C0EAFFEFCFACF6AD6BACC6AEF600011A
:102B800075DF0601ABC603F0AA51AA2BD8B4AB2B54
:102B9000E96E03C0EAFFEFCFACF6010EAD6FACC635
:102BA000AEF6000163DF0601A72BD8D7A62BAFD75F
:102BB0000001000C93988A88939E8A9E93948A942D
:102BC00093968A96939A8A9A0601AD6BC00EAE6F61
:102BD00000014CDF010E0601AD6FC00EAE6F0001AB
:102BE00045DF0601AD6B400EAE6F00013FDF010E09
:102BF0000601AD6F400EAE6F000138DF0601AD6B10
:102C0000B80EAE6F000132DF010E0601AD6FB80ED7
:102C1000AE6F00012BDF0601932D0ED0AD6B3F0E82
:102C2000AE6F000123DF010E0601AD6F3F0EAE6FE8
:102C300000011CDF0DD00601AD6B3E0EAE6F000132
:102C400015DF010E0601AD6F3E0EAE6F00010EDF07
:102C500006019B6B000125DF51DF000C0601CD6BE7
:102C6000C831CC6FCC33CC331F0ECC17CC37CD371B
:102C7000CC37CD37CC37CD37CC37CD37CC37CD3738
:102C8000CC37CD37C00ECC17C751CC27000ECD2383
:102C9000C7513F080DE22A0ECC25CE6F020ECD2182
:102CA000CF6F400ECE5DCA6F000ECF59CB6F06D0EE
:102CB0002A0ECC25CA6F000ECD21CB6FC95315E06B
:102CC000CBC603F0CAC6E9FFCBC6EAFFC851070B63
:102CD000CE6F010E006ECE51016E04E0D89000362A
:102CE000012EFCD70050EF1215D0CBC603F0CAC698
:102CF000E9FFCBC6EAFFC851070BCE6F010E006E8D
:102D0000CE51016E04E0D8900036012EFCD7005061
:102D1000FF0AEF160001000CAFC603F00601AEC6B5
:102D2000E9FFAFC6EAFFEF52D8B4D6D0AFC603F082
:102D3000AEC6E9FFAFC6EAFFEF5052082AE3AFC6BE
:102D400003F0AEC6E9FFAFC6EAFF200EEF5C050D4B
:102D5000F350036ABB6F060EEA6EB60EE96EBF6BE8
:102D6000BBC6BEF6F2CFBCF6F29CF29E050E016E1B
:102D7000F76ABB510001A8EC00F00A000900F5CF8A
:102D8000EEFF012EFBD70601BCBDF28CBCBFF28E5C
:102D900038D0AFC603F0AEC6E9FFAFC6EAFFEF50CA
:102DA0007E082AE3AFC603F0AEC6E9FFAFC6EAFF6E
:102DB000530EEF5C050DF350036ABB6F060EEA6E0F
:102DC000B60EE96EBF6BBBC6BEF6F2CFBCF6F29C88
:102DD000F29E050E016EF76ABB5100013AEC01F05C
:102DE0000A000900F5CFEEFF012EFBD70601BCBD9E
:102DF000F28CBCBFF28E05D0B66BB76BB86BB96BFB
:102E0000BA6BAFC603F0AE51E96E03C0EAFFEF50F4
:102E10000A0A000103E0070A09E00BD00601B051DD
:102E2000070DF350010FAD2750D000010601AC6B28
:102E30004CD00601B051050DF350AC257F0806E2D9
:102E4000AC6BB051070DF350010FAD27B26BB2510F
:102E500004083BE3B36BB351060833E3036AB25192
:102E6000B60FE96E060E0320EA6EEFCFBBF6BBC6C7
:102E700000F0B351016E04E0D8900032012EFCD76F
:102E800000A01DD0B46BB051B45D19E2B56BB05168
:102E9000B55D13E2B551AC25BB6FB351B003F35030
:102EA000AD25B425BC6FBBC6C7F6C86FB1C6C9F6A1
:102EB0000001D4DE0601B52BEAD7B42BE4D7B32B3F
:102EC000CAD7B22BB051AC27C2D7AE2BD8B4AF2BD8
:102ED000AC2B000121D706010001000C010E0601F8
:102EE000C06FC16FC66BB751B95DC76FC751C7AF70
:102EF00003D0000ED880C755036ABE6F03C0BFF66B
:102F0000B851BA5DC76FC751C7AF03D0000ED880A4
:102F1000C755036ABC6F03C0BDF6B751B95D02E285
:102F2000FF0EC06FB851BA5D02E2FF0EC16FBD5116
:102F3000BF5D3BE303E1BC51BE5D37E3D890BC37D6
:102F4000BD37BE51BC5D006EBF51BD5900C0C2F659
:102F5000C36FBE51C25DC46FBF51C359C56FBF536C
:102F600003E1C651BE5D20E3B7C6C7F6B8C6C8F6D2
:102F7000BBC6C9F6000172DE0601C3BF01D008D08E
:102F8000BC51C227BD51C323C051B725B76F0AD06A
:102F9000C451C227C551C323C051B725B76FC15112
:102FA000B825B86FC62BDBD736D0D890BE37BF3721
:102FB000BC51BE5D006EBD51BF5900C0C2F6C36FAB
:102FC000BC51C25DC46FBD51C359C56FBD5303E150
:102FD000C651BC5D20E3B7C6C7F6B8C6C8F6BBC6C7
:102FE000C9F600013BDE0601C3BF01D008D0BE51C7
:102FF000C227BF51C323C151B825B86F0AD0C451ED
:10300000C227C551C323C051B725B76FC151B825D9
:10301000B86FC62BDBD70001000C0601B0532EE0C1
:10302000AE51AC5D05E2ACC6B3F6AEC6B4F604D0A4
:10303000AEC6B3F6ACC6B4F6AF51AD5D05E2ADC6F3
:10304000B5F6AFC6B6F604D0AFC6B5F6ADC6B6F6A1
:10305000B351B45D12E3B5C6B2F6B251B65D0BE33F
:10306000B3C6C7F6B2C6C8F6B1C6C9F60001F6DDEA
:103070000601B22BF2D7B32BEBD72ED0ACC6B7F6E6
:10308000ADC6B8F6AEC6B9F6ADC6BAF6B1C6BBF6B1
:10309000000124DFACC6B7F6AFC6B8F6AEC6B9F6C7
:1030A000AFC6BAF6B1C6BBF619DFACC6B7F6ADC649
:1030B000B8F6ACC6B9F6AFC6BAF6B1C6BBF60EDF07
:1030C000AEC6B7F6ADC6B8F6AEC6B9F6AFC6BAF676
:1030D000B1C6BBF603DF06010001000C06019BC66A
:1030E00001F09CC603F09BC6A1F69CC6A2F6060E94
:1030F000EA6E730EE96E9CC6E2FF9BC6E1FFE752E3
:10310000E6CFEEFFFCE19F51020814E1010E9D2580
:10311000A16F010E9E25A26FA1C6ACF6AD6F060E83
:10312000AF6F730EAE6FA0C6B0F6010EB16F0001A7
:10313000F3DD06019F2D25D0A051080DF3509E25EB
:10314000A16FAC6B9EC6ADF67F0EAE6FA1C6AFF69B
:10315000010EB06FB16F000160DF010E06019D2509
:10316000A16F010E9E25A26FA1C6ACF6AD6F060E33
:10317000AF6F730EAE6FA0C6B0F6B16B0001CCDDC1
:1031800006019F5325E1A051080DF3509E25A16F24
:10319000AC6B9EC6ADF67F0EAE6FA1C6AFF6010E4C
:1031A000B06FB16B000139DF010E06019D25A16FE3
:1031B000010E9E25A26FA1C6ACF6AD6F060EAF6FD5
:1031C000730EAE6FA0C6B0F6010EB16F0001A4DDA4
:1031D000000194DC000C06019435006E0036FC0EF4
:1031E000001600C001F0C250C30B0010C26E010EE9
:1031F0009C6F00018EEC09F0C282C2B2FED7C4CF30
:10320000A0F6C3CF9FF60001C5EC09F003C098F605
:1032100002C097F601C096F600C095F695C600F07C
:1032200096C601F097C602F098C603F0ACEF19F00D
:10323000060197519903F3CF01F0F4CF00F09A0300
:10324000F350002698519903F3500020026E0001BC
:10325000000C0601B351D8B471D0006EB751D8B488
:103260006DD0002604E3810E002668E204D07F0EB4
:10327000005E64E363E0B4C6BBF6B851BB1BB48F19
:10328000B88FB651BA03F4CFBDF6B551B903F4CF38
:1032900003F0F3CFBCF6BA03F350BD27F450BC23C0
:1032A000000E0322B651B903F350BD27F450BC23DE
:1032B000000E026A03220222B451BA03F350BC2763
:1032C000F4500322000E0222B451B903F350032636
:1032D000F4500222000E016A0122B651B803F350E5
:1032E000BC27F4500322000E02220122B551B8037C
:1032F000F3500326F4500222000E0122B451B80309
:10330000F3500226F4500122002A01BE05D0BC373A
:103310000336023601360006000EBCAF0AD0032A7F
:1033200002220122015005E1025003E1035001E1B4
:10333000002ABBBF018EBBAF019E04D0006A016AA8
:10334000026A036A0001000C0601236B226B216BE9
:10335000206B946B00013FD703C00BF602C00AF646
:1033600001C009F600C008F60BC697F60AC696F625
:1033700009C695F608C694F6E7C59BF6E6C59AF623
:10338000E5C599F6E4C598F6E0EC09F003C00BF644
:1033900002C00AF601C009F600C008F6D8920BC6B2
:1033A000A2F60AC6A1F609C6A0F608C69FF69A0EAE
:1033B0000601A66F990EA56F6D0EA46F820EA36F06
:1033C00000018FEC0AF003C00BF602C00AF601C040
:1033D00009F600C008F60601976BC00E966F7F0EC7
:1033E000956F880E946F0BC69BF60AC69AF609C6AF
:1033F00099F608C698F60001E0EC09F000C094F6D2
:1034000001C095F602C096F603C097F6D88203C0B5
:10341000A2F602C0A1F601C0A0F600C09FF6060108
:10342000A66BA56BA46B7F0EA36F00018FEC0AF057
:103430000601976BB80E966F530E956F8B0E946FB7
:1034400003C09BF602C09AF601C099F600C098F638
:103450000001E0EC09F003C013F602C012F601C04F
:1034600011F600C010F6010E0601935D0501A25D84
:1034700002E001E3A26B0601986BA2C597F69A6B76
:10348000040E996F0001D4DE0150300FE96E040E76
:103490000220EA6E10C6EFFF11C6ECFF12C6ECFF69
:1034A00013C6ECFF0501A22BA16B06019351050188
:1034B000A15D3FE20601986BA1C597F69A6B040ED9
:1034C000996F0001B5DE02C003F00150300FE96EC4
:1034D000040E0220EA6EEFCF00F0ECCF01F0ECCF4B
:1034E00002F0ECCF03F0EACF95F6E9CF94F6D8924C
:1034F00023C6A2F622C6A1F621C6A0F620C69FF6D4
:1035000003C0A6F602C0A5F601C0A4F600C0A3F64B
:103510008FEC0AF095C6EAFF94C6E9FF03C023F6D4
:1035200002C022F601C021F600C020F60501A12B41
:10353000BCD70601A06B93C69FF60001C5EC09F04D
:1035400023C697F622C696F621C695F620C694F6AF
:1035500003C09BF602C09AF601C099F600C098F627
:10356000E0EC09F003C023F602C022F601C021F608
:1035700000C020F623C6B6F622C6B5F621C6B4F6BC
:1035800020C6B3F623C6BAF622C6B9F621C6B8F6E7
:1035900020C6B7F65EDE00C094F601C095F602C004
:1035A00096F603C097F603C0B6F602C0B5F601C0A2
:1035B000B4F600C0B3F667C6BAF666C6B9F665C615
:1035C000B8F664C6B7F645DE00C094F601C095F6BD
:1035D00002C096F603C097F623C6B6F622C6B5F625
:1035E00021C6B4F620C6B3F66BC6BAF66AC6B9F6FB
:1035F00069C6B8F668C6B7F62CDED89297C6A2F6AA
:1036000096C6A1F695C6A0F694C69FF603C0A6F688
:1036100002C0A5F601C0A4F600C0A3F68FEC0AF024
:1036200000C094F601C095F602C096F603C097F666
:10363000D89203C0A2F602C0A1F601C0A0F600C055
:103640009FF66FC6A6F66EC6A5F66DC6A4F66CC646
:10365000A3F68FEC0AF003C027F602C026F601C0DD
:1036600025F600C024F60601A06BA3C59FF6000155
:10367000C5EC09F003C05FF602C05EF601C05DF65E
:1036800000C05CF60601A06BA4C59FF60001C5EC66
:1036900009F003C063F602C062F601C061F600C023
:1036A00060F65FC697F65EC696F65DC695F65CC692
:1036B00094F606019B6B9A6B200E996F820E986FA1
:1036C0000001E0EC09F003C05FF602C05EF601C045
:1036D0005DF600C05CF663C697F662C696F661C6F4
:1036E00095F660C694F606019B6B9A6B200E996F57
:1036F000820E986F0001E0EC09F003C063F602C08F
:1037000062F601C061F600C060F6D8825FC6A2F61C
:103710005EC6A1F65DC6A0F65CC69FF663C6A6F6B9
:1037200062C6A5F661C6A4F660C6A3F68FEC0AF0E1
:10373000D89227C6A2F626C6A1F625C6A0F624C6AC
:103740009FF603C0A6F602C0A5F601C0A4F600C00D
:10375000A3F68FEC0AF003C027F602C026F601C0DC
:1037600025F600C024F624C600F025C601F026C6C2
:1037700002F027C603F0000C010E0601936F000152
:10378000DAEC15F006019B6B000151EC15F0060E0A
:10379000EA6E730EE96EF2CF93F6F29CF29E000E83
:1037A0000BEC04F00A000900F550EE6E0009FBE195
:1037B000060193BDF28C93BFF28E060E9C6F730EC2
:1037C0009B6F9D6B9E6B9F6B020EA06F000186DC52
:1037D000060EEA6E730EE96EF2CF93F6F29CF29E3D
:1037E000000E23EC04F00A000900F550EE6E00090B
:1037F000FBE1060193BDF28C93BFF28E060E9C6F27
:10380000730E9B6F9D6B140E9E6F9F6B010EA06FCE
:10381000000164DC060EEA6E730EE96EF2CF93F6D9
:10382000F29CF29E000E3CEC04F00A000900F550F8
:10383000EE6E0009FBE1060193BDF28C93BFF28EA0
:10384000060E9C6F730E9B6F9D6B1E0E9E6F9F6B83
:10385000010EA06F000142DC060EEA6E730EE96EE7
:10386000F2CF93F6F29CF29E000E56EC04F00A00A2
:103870000900F550EE6E0009FBE1060193BDF28CE4
:1038800093BFF28E060E9C6F730E9B6F9D6B2D0E79
:103890009E6F9F6B020EA06F000120DC040E0601DC
:1038A000936FFA0E9C6F00018EEC09F00601932FC6
:1038B000F8D79B6B000151EC15F00501B56BB551C4
:1038C0004F080FE3A5C593F600013EDD03C043F6A4
:1038D00002C042F601C041F600C040F60501B52B1A
:1038E000EED700013AEF39F08E0E006E06019F51BF
:1038F000005EA0C602F0A1C601F0028E005209E0EF
:10390000D890025202E1015204E002320132002E4C
:10391000F7D7A0AF05D0011E021E012AD8B4022A93
:103920000001000C080E016E050E006E002EFED781
:103930008B969496060E006E002EFED706019737E2
:103940008B98D8B09488D8A09498948682A6FED7F5
:10395000012E01D002D00001E7D7050E006E002E27
:10396000FED78B96949600009488060E006E002E6B
:10397000FED7060E006E002EFED7948682A6FED7D6
:10398000016A060E006E002EFED782B801808B966B
:1039900094968B9894980001000C9488050E006E04
:1039A000002EFED79486060E006E002EFED78B9852
:1039B0009498050E006E002EFED78B96949694C6B2
:1039C00097F6B0DF95C697F6ADDF96C697F6AADFF5
:1039D00094980000948682A6FED7050E006E002EF5
:1039E000FED700D000009488050E006E002EFED792
:1039F000000C06019A6B996B986B976B9E6B9D6B95
:103A00009C6B9B6B96C6A2F695C6A1F694C6A0F6D3
:103A100093C69FF6000168DF0601A06B01C09FF608
:103A20000001C5EC09F003C09AF602C099F601C086
:103A300098F600C097F6D88296C6A2F695C6A1F66B
:103A400094C6A0F693C69FF69AC6A6F699C6A5F6A2
:103A500098C6A4F697C6A3F68FEC0AF000C09FF6AE
:103A600001C0A0F602C0A1F603C0A2F603C0B6F6DC
:103A700002C0B5F601C0B4F600C0B3F60601BA6BD9
:103A8000B96B200EB86F820EB76F000129EC19F0E8
:103A900003C09EF602C09DF601C09CF600C09BF6D6
:103AA0009EC6A2F69DC6A1F69CC6A0F69BC69FF632
:103AB0001BDF015078EF1DF043C6A2F642C6A1F607
:103AC00041C6A0F640C69FF60FDF01C093F6A00ED8
:103AD0000601946F956B01C096F600015EDF43C648
:103AE00096F642C695F641C694F640C693F681D73F
:103AF00001C093F6A00E0601946F010E956F01C0F0
:103B000096F600014ADFA00E0601946F020E956F33
:103B1000FF0E966F000141DFA00E0601946F030EA9
:103B2000956FFF0E966F000138DFA00E0601946FAF
:103B3000040E956F800E966F00012FDF97EF39F01E
:103B40000601B151016AB05D03E2B0C600F00CD0CD
:103B5000006A080EB26FB0370036B151005CD8B0C1
:103B6000006E0136B22FF7D70001000C92C6EAFFB3
:103B700091C6E9FF0601B3C6EFFFE92AD8B4EA2AE5
:103B8000EF6A912BD8B4922B0001000C200E060195
:103B9000ABA9300EAC6FAAC600F0AAAF07D0001ECA
:103BA000002A00C0AAF62D0EAC6FAB8F0150AAC63A
:103BB000B0F6640EB16F0001C3DF00C0AAF6300E8C
:103BC00001240601AD6FAAC6B0F60A0EB16F00015E
:103BD000B7DF300E00240601AF6F300E0124AE6F48
:103BE000ACC600F0ABA702D0ABAFAB95ABB90BD076
:103BF000ABAF22D0ABB520D000C0ADF6ABB31CD07C
:103C000000C0AEF619D0300EAD5D16E100C0ADF6C5
:103C1000200EAC6FABA704D0AB95AB83ABAFAB932F
:103C2000300EAE5D09E100C0AEF6200EAD6FABA761
:103C3000F7D7AB93ABAFAB91ABA505D0ACC6B3F6A2
:103C4000000194DF0601ABA305D0ADC6B3F60001B9
:103C50008DDF0601ABA104D0AEC6B3F6000186DF4E
:103C6000AFC6B3F6000182DF41EF1EF0060E06017B
:103C7000926FA10E916F9DC6AAF61F0EAB6F000149
:103C800085D70601A02D29D0120E9E25AA6F180EE9
:103C90009F25AB6F9EC6ACF69FC6ADF6AAC6AEF624
:103CA000AF6F010EB06FB16F00010DEC18F0020E96
:103CB00006019E25AA6F010E9F25AB6FAAC6ACF622
:103CC000AD6F060EAF6FA10EAE6F020EB06FB16B8F
:103CD00000018CEC16F028D00601120E9E25AA6F6A
:103CE000180E9F25AB6F9EC6ACF69FC6ADF6AAC652
:103CF000AEF6AF6FB06BB16B00010DEC18F0020EB9
:103D000006019E25AA6F010E9F25AB6FAAC6ACF6D1
:103D1000AD6F060EAF6FA10EAE6F020EB06F010E4B
:103D2000B16F00018CEC16F0000C020E06019C6FC6
:103D300000018EEC09F0000C06019B6B000151ECB8
:103D400015F0060EEA6E730EE96EF2CF9BF6F29C4A
:103D5000F29E000EDEEC03F00A000900F550EE6E54
:103D60000009FBE106019BBDF28C9BBFF28E060EA3
:103D70009C6F730E9B6F1E0E9D6F9E6B9F6B020E52
:103D8000A06F00016EEC18F0060EEA6E730EE96E7D
:103D9000F2CF9BF6F29CF29E000EF3EC03F00A00C9
:103DA0000900F550EE6E0009FBE106019BBDF28CA7
:103DB0009BBFF28E060E9C6F730E9B6F9D6B1E0E4B
:103DC0009E6F9F6B020EA06F00016EEC18F07EECF0
:103DD00015F0080E06019B6FFA0E9C6F00018EEC29
:103DE00009F006019B2FF8D79B6B000151EC15F0F1
:103DF000000C0501AB53D8A47AD000C69DF6140E72
:103E000006019E6F1E0E9F6F010EA06F00012EDF38
:103E100001C69DF6280E06019E6F1E0E9F6FA06BB9
:103E2000000124DF02C69DF63C0E06019E6F1E0EA9
:103E30009F6FA06B00011ADF00C69DF6500E0601B1
:103E40009E6F1E0E9F6FA06B000110DF06019A533C
:103E500027E1060EEA6E730EE96EF2CF9BF6F29C36
:103E6000F29E000E00016EEC04F00A000900F5500D
:103E7000EE6E0009FBE106019BBDF28C9BBFF28E4A
:103E8000060E9C6F730E9B6F140E9D6F9E6B010E42
:103E90009F6F030EA06F00016EEC18F025D0060195
:103EA000060EEA6E730EE96EF2CF9BF6F29CF29E5E
:103EB000000E000183EC04F00A000900F550EE6EDC
:103EC0000009FBE106019BBDF28C9BBFF28E060E42
:103ED0009C6F730E9B6F9D6B9E6B010E9F6F020E0E
:103EE000A06F00016EEC18F0010E0501AB6F928A15
:103EF00080BA69D0A0BF66D0A08F000116DF8B8A80
:103F0000949A320E06019C6F00018EEC09F08B9A98
:103F1000949A010E0501B56FB551040853E3B551EC
:103F2000B45D36E1010EB55D036AE96E060E032449
:103F3000EA6EEF2A010EB55D036AE96E060E0324F0
:103F4000EA6EEFBE0BD0EF50090808E2010EB55D36
:103F5000036AE96E060E0324EA6EEF6A010EB55D90
:103F6000036AE96E060E0324EA6EEFCF9BF6B551A5
:103F7000140DF3CF9CF606019BC69DF69CC69EF6DB
:103F80001E0E9F6F010EA06F000170DE18D005019C
:103F9000010EB55D036AE96E060E0324EA6EEFCFEB
:103FA0009BF6B551140DF3CF9CF606019BC69DF60A
:103FB0009CC69EF61E0E9F6FA06B000157DE05018A
:103FC000B52BAAD701D0A09F968084B068D0ACB39F
:103FD00065D0AC830001A9DE8B8A949A320E06016B
:103FE0009C6F00018EEC09F08B9A949A010E0501EA
:103FF000B56FB551040852E3B551B45D35E1010E1A
:10400000B55D036AE96E060E0324EA6EEF06010E43
:10401000B55D036AE96E060E0324EA6EEFBE01D0B9
:1040200009D0010EB55D036AE96E060E0324EA6E3F
:10403000090EEF6E010EB55D036AE96E060E0324EC
:10404000EA6EEFCF9BF6B551140DF3CF9CF6060147
:104050009BC69DF69CC69EF61E0E9F6F010EA06F1E
:10406000000104DE18D00501010EB55D036AE96E9A
:10407000060E0324EA6EEFCF9BF6B551140DF3CF75
:104080009CF606019BC69DF69CC69EF61E0E9F6F73
:10409000A06B0001EBDD0501B52BABD701D0AC93D4
:1040A000968284B24FD0ACB14CD0AC8100013DDEE1
:1040B0000501B42B8B8A949A320E06019C6F000185
:1040C0008EEC09F08B9A949A010E0501B56FB551EB
:1040D000040837E3B551B45D1AE1010EB55D036A1A
:1040E000E96E060E0324EA6EEFCF9BF6B551140D70
:1040F000F3CF9CF606019BC69DF69CC69EF61E0E4F
:104100009F6F010EA06F0001B1DD18D00501010EF7
:10411000B55D036AE96E060E0324EA6EEFCF9BF6E7
:10412000B551140DF3CF9CF606019BC69DF69CC6B7
:104130009EF61E0E9F6FA06B000198DD0501B52B4A
:10414000C6D701D0AC91968484B42ED0640E0601FB
:104150009C6F00018EEC09F0968484B424D08B8A85
:10416000949A320E06019C6F00018EEC09F08B9A36
:10417000949A93C6B3F506019B6B000151EC15F0C0
:104180000501AB6B010EBA6FB46F0601006B016BDA
:10419000026B036B9B6B000151EC15F07EEC15F08C
:1041A000010E016E6CD20501B4510408D8B068D27A
:1041B00006019B6B000151EC15F0010E0501B46F77
:1041C00006019A53D8A4CBD100510308D8A47FD0BC
:1041D00001510808D8A47BD002510908D8A477D08F
:1041E0000351020874E1945372E1AA6A040EA96EA5
:1041F000A86AA69CA69EA684F250006EF29CF29E2F
:104200000F01550EA76EAA0EA76EA682A6B2FED704
:10421000A6940050F212140E06019C6F00018EEC61
:1042200009F0AA6A050EA96EA86AA69CA69EA68495
:10423000F250006EF29CF29E0F01550EA76EAA0E70
:10424000A76EA682A6B2FED7A6940050F212140E54
:1042500006019C6F00018EEC09F0AA6A060EA96E99
:10426000A86AA69CA69EA684F250006EF29CF29EBE
:104270000F01550EA76EAA0EA76EA682A6B2FED794
:10428000A6940050F212140E06019C6F00018EECF1
:1042900009F0AA6A070EA96EA86AA69CA69EA68423
:1042A000F250006EF29CF29E0F01550EA76EAA0E00
:1042B000A76EA682A6B2FED7A6940050F212140EE4
:1042C00006019C6F00018EEC09F0FF00060196517B
:1042D000005DD8A474D09751015D71E19851025DE1
:1042E0006EE19951035D6BE19B6B000151EC15F0A0
:1042F000060EEA6E730EE96EF2CF9BF6F29CF29E0A
:10430000000E6EEC04F00A000900F550EE6E000994
:10431000FBE106019BBDF28C9BBFF28E060E9C6FEB
:10432000730E9B6F1E0E9D6F9E6B9F6B020EA06F98
:1043300000016EEC18F0060EEA6E730EE96EF2CF15
:104340009BF6F29CF29E000E9BEC04F00A00090022
:10435000F550EE6E0009FBE106019BBDF28C9BBFA0
:10436000F28E060E9C6F730E9B6F0F0E9D6F1E0ECE
:104370009E6F9F6B020EA06F00016EEC18F095C649
:10438000B3F57EEC15F0040E06019B6FFA0E9C6FE0
:1043900000018EEC09F006019B2FF8D79B6B000102
:1043A00051EC15F00601006B016B026B036B05010C
:1043B000AB6B010E016E000162D1CFD006019B6B89
:1043C000000151EC15F0060EEA6E730EE96EF2CFA5
:1043D0009BF6F29CF29E000E6EEC04F00A000900BF
:1043E000F550EE6E0009FBE106019BBDF28C9BBF10
:1043F000F28E060E9C6F730E9B6F1E0E9D6F9E6B52
:104400009F6B020EA06F00016EEC18F0060EEA6EB4
:10441000730EE96EF2CF9BF6F29CF29E000EB2ECA8
:1044200004F00A000900F550EE6E0009FBE10601F8
:104430009BBDF28C9BBFF28E060E9C6F730E9B6F22
:104440009D6B1E0E9E6F9F6B020EA06F00016EECA7
:1044500018F0010E0501B46F00017EEC15F0040E9A
:1044600006019B6FFA0E9C6F00018EEC09F00601AD
:104470009B2FF8D7006B016B026B036B9B6B0001EA
:1044800051EC15F00601AC6BAD6B7F0EAE6F190EE3
:10449000AF6F010EB06FB16F00010DEC18F0060E9A
:1044A000EA6E730EE96EF2CF9BF6F29CF29E000E5E
:1044B0006EEC04F00A000900F550EE6E0009FBE115
:1044C00006019BBDF28C9BBFF28E190EAC6F010EE4
:1044D000AD6F060EAF6F730EAE6F030EB06FB16BA4
:1044E00000018CEC16F000C69DF6140E06019E6FBE
:1044F0001E0E9F6F010EA06F000136EC1EF001C66C
:104500009DF6280E06019E6F1E0E9F6FA06B000188
:1045100036EC1EF002C69DF63C0E06019E6F1E0E86
:104520009F6FA06B000136EC1EF000C69DF6500E8A
:1045300006019E6F1E0E9F6FA06B000136EC1EF0F1
:1045400093C6B3F506019B6B000151EC15F0050114
:10455000AB6B000E016E000192D091D00601010EEE
:104560000501BA6FB46FAA6A040EA96E00C6A8FF4F
:10457000A69CA69EA684F250006EF29CF29E0F01AD
:10458000550EA76EAA0EA76EA682A6B2FED7A69457
:104590000050F212320E06019C6F00018EEC09F001
:1045A000AA6A050EA96E01C6A8FFA69CA69EA684AF
:1045B000F250006EF29CF29E0F01550EA76EAA0EED
:1045C000A76EA682A6B2FED7A6940050F212320EB3
:1045D00006019C6F00018EEC09F0AA6A060EA96E16
:1045E00002C6A8FFA69CA69EA684F250006EF29C6E
:1045F000F29E0F01550EA76EAA0EA76EA682A6B256
:10460000FED7A6940050F212320E06019C6F0001F4
:104610008EEC09F0AA6A070EA96E03C6A8FFA69C35
:10462000A69EA684F250006EF29CF29E0F01550EDB
:10463000A76EAA0EA76EA682A6B2FED7A6940050B9
:10464000F212040E06019B6FFA0E9C6F00018EECB5
:1046500009F006019B2FF8D79B6B000151EC15F078
:1046600093C6B3F50501AB6B0601006B016B026BE2
:10467000036B00019CEC1EF0000E016E00D00501E2
:104680000001000C006A016A0601B151D890B2B174
:10469000002600320132B2B3002600320132B2B538
:1046A000002600320132B2B7002600320132B2B920
:1046B000002600320132B2BB002600320132B2BD08
:1046C000002600320132B2BF002600320132000162
:1046D000000C0601AD6BAAC6AEF6010ED880AA5535
:1046E000AF6FAB5365E0AD51A85DB06FAE51A9257A
:1046F000B16FAD51A825B26FAE51A925B36FB0C649
:10470000B7F6B1C6B8F6B2C6B9F6BA6FACC6BBF664
:1047100000016EEC17F00601AD51A85DB06FAE510F
:10472000A95DB16FAD51A825B26FAE51A95DB36F50
:10473000B0C6B7F6B1C6B8F6B2C6B9F6BA6FACC66F
:10474000BBF600016EEC17F00601AE51A85DB06F2C
:10475000AD51A925B16FAE51A825B26FAD51A925B4
:10476000B36FB0C6B7F6B1C6B8F6B2C6B9F6BA6F8F
:10477000ACC6BBF600016EEC17F00601AE51A85DA9
:10478000B06FAD51A95DB16FAE51A825B26FAD51FB
:10479000A95DB36FB0C6B7F6B1C6B8F6B2C6B9F682
:1047A000BA6FACC6BBF600016EEC17F078D006010C
:1047B000A851AD25B06FA951AE25B16FB0C6C7F6EF
:1047C000C86FACC6C9F600012EEC16F00601A85160
:1047D000AE25B06FA951AD25B16FB0C6C7F6C86F91
:1047E000ACC6C9F600012EEC16F00601AD51A85D6D
:1047F000B06FA951AE25B16FB0C6C7F6C86FACC6D1
:10480000C9F600012EEC16F00601AE51A85DB06F9E
:10481000A951AD25B16FB0C6C7F6C86FACC6C9F611
:1048200000012EEC16F00601A851AE25B06FAD5177
:10483000A95DB16FB0C6C7F6C86FACC6C9F60001B6
:104840002EEC16F00601A851AD25B06FAE51A95D52
:10485000B16FB0C6C7F6C86FACC6C9F600012EEC82
:1048600016F00601AD51A85DB06FAE51A95DB16FF4
:10487000B0C6C7F6C86FACC6C9F600012EEC16F07C
:104880000601AE51A85DB06FAD51A95DB16FB0C664
:10489000C7F6C86FACC6C9F600012EEC16F00601CB
:1048A000AFBF01D00ED0AD51AD2BB06F020EB16FC6
:1048B000B0C6B2F60001E6DE0150030F0601AF27D5
:1048C00011D0AD51AD2BB06FAE51AE07B05DB06F32
:1048D000020EB16FB0C6B2F60001D4DE0150050F72
:1048E0000601AF27AD51800A006EAE51800A005C10
:1048F000D8B4F7D6D8A0F5D60001000CEACFACF6B4
:10490000E9CFABF60601A539F009A76FA727E20F9B
:10491000A86F320FAA6FA5510F0BA827A827AA27A7
:10492000E90FA96FA927A927A4390F0BA927AA273F
:10493000A937AA37AA1FAA37A4510F0BAA27A7374E
:10494000070EA66F0A0EA907AA27FDE3A807A92745
:10495000FDE3A707A827FDE3A607A727FDE3060EAB
:10496000EA6EA60EE96E070EAB15AB9DE926AA0E00
:10497000E95CD8B4AB8DEF50006E08E1ABBD06D05A
:10498000ABB916D0ABB702D0200E03D0AB87AB9932
:10499000300E0026EACFA5F6E9CFA4F600C0B3F6A4
:1049A0000001B6EC1DF0A5C6EAFFA4C6E9FF0601AA
:1049B000EE50ABADDCD70001000C060199510208A6
:1049C0003AE1060E926F9B0E916F0A0EE96E96C643
:1049D000A5F695C6A4F6000191DF06019A51120DC5
:1049E000F3509725A46F9A51080DF3509825A56FA1
:1049F00097C6ACF698C6ADF6A4C6AEF6AF6F010E7C
:104A0000B06FB16F00010DEC18F0010E0601972593
:104A1000A46F010E9825A56FA4C6ACF6AD6F060E67
:104A2000AF6F9B0EAE6F9AC6B0F6B16B00018CEC07
:104A300016F09AD00601060E926F9B0E916F0A0E29
:104A4000E96E96C6A5F695C6A4F6000157DF0601E5
:104A5000995104082DE19A51100DF3509725A46F38
:104A60009A51080DF3509825A56F97C6ACF698C6D5
:104A7000ADF6A4C6AEF6AF6F010EB06FB16B00011C
:104A80000DEC18F0010E06019725A46F010E982574
:104A9000A56FA4C6ACF6AD6F060EAF6F9B0EAE6FE2
:104AA0009AC6B0F6010EB16F00018CEC16F006014B
:104AB000992D2CD09A51050DF3509725A46F9A513A
:104AC000080DF3509825A56F97C6ACF698C6ADF6BD
:104AD000A4C6AEF6AF6F010EB06FB16F00010DEC62
:104AE00018F0010E06019725A46F010E9825A56FF9
:104AF000A4C6ACF6AD6F060EAF6F9B0EAE6F9AC636
:104B0000B0F6B16B00018CEC16F0060199532DE163
:104B10009A51050DF3509725A46F9A51080DF35043
:104B20009825A56F97C6ACF698C6ADF6A4C6AEF6A6
:104B3000AF6F010EB06FB16B00010DEC18F0010EFC
:104B400006019725A46F010E9825A56FA4C6ACF6A3
:104B5000AD6F060EAF6F9B0EAE6F9AC6B0F6010E2C
:104B6000B16F00018CEC16F0060100017EEC15F02F
:104B7000000C0601B351B608B36F036AB4C6B7F6AA
:104B8000B48FD890B433B533B63303320232013226
:104B90000032B32FF6D7B7AF0BD0001E011E021E96
:104BA000031E002AD8B4012AD8B4022AD8B4032A92
:104BB000000147EF26F0006A016A026A036A0601F3
:104BC000BB6BBC6BBD6BBE6BBA51B911B811B711E1
:104BD0002CE0200EBF6FD890B337B437B537B63757
:104BE000BB37BC37BD37BE37BA51BE5D08E1B951DE
:104BF000BD5D05E1B851BC5D02E1B751BB5D0FE39E
:104C0000B751BB5FB851D8A0B83DBC5FB951D8A06F
:104C1000B93DBD5FBA51D8A0BA3DBE5FD88000365D
:104C2000013602360336BF2FD6D7060EEA6EBB0E0C
:104C3000E96E0001000CE9500601AB6FAA51AD6F9F
:104C40001CE0A9C6B6F6A8C6B5F6A7C6B4F6A6C6B1
:104C5000B3F6BA6BB96B200EB86F820EB76F000156
:104C600029EC19F003C0A9F602C0A8F601C0A7F606
:104C700000C0A6F60601AD2FE4D7A9C6B6F6A8C6B1
:104C8000B5F6A7C6B4F6A6C6B3F6000172D703C040
:104C9000A9F602C0A8F601C0A7F600C0A6F6060154
:104CA000A9AF0DD0AB07AB8BA61FA71FA81FA91FCD
:104CB000A62BD8B4A72BD8B4A82BD8B4A92B3B0EBD
:104CC000B26F9A0EB16FCA0EB06FAF6B0A0EAD6FB6
:104CD000AA51D8B4AB2BA9C6B6F6A8C6B5F6A7C6D6
:104CE000B4F6A6C6B3F6B2C6BAF6B1C6B9F6B0C641
:104CF000B8F6AFC6B7F600015EDF0150EFCFA6F6FB
:104D0000ECCFA7F6ECCFA8F6ECCFA9F6005213E152
:104D10000601AA29AD5DD8A402D000010CD0AB5188
:104D20000DE00F0BAD5D01E044E2ABBF42D0ABBD87
:104D300005D0200E37D0200E0601AB17ABAB0FD03D
:104D4000AB9BAA51D8A4AB070050AB6F2D0EB36F2D
:104D50000001B6EC1DF00601AB51006EAB6BAA5121
:104D6000AD5D0DE10050AB6F2E0EB36F0001B6ECE0
:104D70001DF00601AB51006E200EAB17000E300E79
:104D8000ABAB10D0AB9BAA51D8A4AB070050AB6F14
:104D90002D0EB36F0001B6EC1DF00601AB51006E95
:104DA000AB6B300E002600C0B3F60001B6EC1DF070
:104DB0000601B2C6B6F6B1C6B5F6B0C6B4F6AFC611
:104DC000B3F6BA6BB96BB86B0A0EB76F0001F3DEBE
:104DD00003C0B2F602C0B1F601C0B0F600C0AFF633
:104DE0000601AD2F78D70001000C06019B2D9FD046
:104DF000060E926F9D0E916F420EE96E98C6A9F64F
:104E000097C6A8F696C6A7F695C6A6F6010EAA6F8F
:104E1000000111DF020E06019A5DA66F9C51080D7C
:104E2000F3509A25A76FAC6BA6C6ADF67F0EAE6F9A
:104E3000A7C6AFF6010EB06FB16F00010DEC18F010
:104E4000060193C601F094C603F093C6A6F694C675
:104E5000A7F6060EEA6E730EE96E94C6E2FF93C6DD
:104E6000E1FFE752E6CFEEFFFCE1540E9925A66F75
:104E7000010E9A25A76FA6C6ACF6AD6F060EAF6FF2
:104E80009D0EAE6F9CC6B0F6B16B00018CEC16F0B7
:104E9000010E06019925A66F010E9A25A76FA6C6D9
:104EA000ACF6AD6F060EAF6F730EAE6F9CC6B0F66C
:104EB000B16B00018CEC16F0060EEA6E730EE96E13
:104EC000F2CFA6F6F29CF29E000ECBEC03F00A00A5
:104ED0000900F550EE6E0009FBE10601A6BDF28C5B
:104EE000A6BFF28E780E9925A66F010E9A25A76FA0
:104EF000A6C6ACF6AD6F060EAF6F730EAE6F9CC656
:104F0000B0F6B16B00018CEC16F0730E060199251A
:104F1000A66F010E9A5DA76FA6C6A8F6A96F010E2F
:104F2000AA6FAB6BAC6B000169EC23F006019B53DD
:104F3000D8A4A1D0060E926F9D0E916F420EE96E1D
:104F400098C6A9F697C6A8F696C6A7F695C6A6F679
:104F5000010EAA6F00016FDE020E06019A5DA66FB8
:104F60009C51080DF3509A25A76FAC6BA6C6ADF601
:104F70007F0EAE6FA7C6AFF6010EB06FB16B00012A
:104F80000DEC18F0060193C601F094C603F093C629
:104F9000A6F694C6A7F6060EEA6E730EE96E94C6E0
:104FA000E2FF93C6E1FFE752E6CFEEFFFCE1540ECD
:104FB0009925A66F010E9A25A76FA6C6ACF6AD6F10
:104FC000060EAF6F9D0EAE6F9CC6B0F6010EB16FB0
:104FD00000018CEC16F0010E06019925A66F010E5A
:104FE0009A25A76FA6C6ACF6AD6F060EAF6F730E0F
:104FF000AE6F9CC6B0F6010EB16F00018CEC16F0DE
:10500000060EEA6E730EE96EF2CFA6F6F29CF29EE1
:10501000000ECBEC03F00A000900F550EE6E00091B
:10502000FBE10601A6BDF28CA6BFF28E780E992593
:10503000A66F010E9A25A76FA6C6ACF6AD6F060E39
:10504000AF6F730EAE6F9CC6B0F6010EB16F00016C
:105050008CEC16F0730E06019925A66F010E9A5D71
:10506000A76FA6C6A8F6A96F010EAA6FAB6BAC6FAF
:10507000000169EC23F000017EEC15F0000C0150FA
:10508000A2C6B0F6640E0601B16F0001A0EC1DF0DF
:1050900000C0A2F60150300E08E10601A3A310D013
:1050A000A3B70ED0A3B9200E04D00601A397A399ED
:1050B000A381012601C0B3F60001B6EC1DF0060184
:1050C000A2C6B0F60A0EB16F0001A0EC1DF000C040
:1050D000A2F60150300E08E10601A3B70BD0A3A140
:1050E00009D0A3B9200E0001012601C0B3F6B6EC29
:1050F0001DF00601300EA227A2C6B3F60001B6ECE1
:105100001DF0000C06019751020838E1060E926F5F
:10511000990E916F94C6A2F6030EA36F0001AFDF44
:1051200006019851120DF3509525A26F9851080D64
:10513000F3509625A36F95C6ACF696C6ADF6A2C6FB
:10514000AEF6AF6F010EB06FB16F00010DEC18F04D
:10515000010E06019525A26F010E9625A36FA2C62A
:10516000ACF6AD6F060EAF6F990EAE6F98C6B0F687
:10517000B16B00018CEC16F0A3D006019751030827
:1051800038E1060E926F990E916F94C6A2F6030E47
:10519000A36F000174DF06019851120DF35095259D
:1051A000A26F9851080DF3509625A36F95C6ACF6E3
:1051B00096C6ADF6A2C6AEF6AF6F010EB06FB16B7C
:1051C00000010DEC18F0010E06019525A26F010EED
:1051D0009625A36FA2C6ACF6AD6F060EAF6F990E03
:1051E000AE6F98C6B0F6010EB16F00018CEC16F0F0
:1051F0000601060E926F990E916F94C6A2F61B0ED1
:10520000A36F00013CDF0601972D2CD09851050DAE
:10521000F3509525A26F9851080DF3509625A36F72
:1052200095C6ACF696C6ADF6A2C6AEF6AF6F010E49
:10523000B06FB16F00010DEC18F0010E060195255D
:10524000A26F010E9625A36FA2C6ACF6AD6F060E37
:10525000AF6F990EAE6F98C6B0F6B16B00018CECD3
:1052600016F0060197532DE19851050DF350952541
:10527000A26F9851080DF3509625A36F95C6ACF612
:1052800096C6ADF6A2C6AEF6AF6F010EB06FB16BAB
:1052900000010DEC18F0010E06019525A26F010E1C
:1052A0009625A36FA2C6ACF6AD6F060EAF6F990E32
:1052B000AE6F98C6B0F6010EB16F00018CEC16F01F
:1052C000060100017EEC15F0000C06019351050863
:1052D00055E1946B94513F0851E3956B95510F083C
:1052E0004BE3070E966F9651800A7F0843E2986B56
:1052F00094C697F69A6B100E996F000118EC19F08E
:1053000002C098F601C097F6060195510124016E7E
:10531000000E0220036E0150F2CF97F6F29CF29E2F
:1053200003C0F7FF0001BAEC01F0060197BDF28C53
:1053300097BFF28E976F070ED8809655986F97C6D5
:1053400000F09851016E04E0D8900032012EFCD795
:1053500000A00ED09551080DF3509625976FC76F9A
:1053600094C6C8F6010EC96F00012EEC16F00601B6
:105370009607B9D7952BB2D7942BACD7000105EF80
:1053800047F00501AE51040DF350036A980FE96E22
:10539000050E0320EA6E40C6EFFF41C6ECFF42C691
:1053A000ECFF43C6ECFFAE2BAE5101081EE2AE6B24
:1053B000D8829FC5A2F69EC5A1F69DC5A0F69CC544
:1053C0009FF69BC5A6F69AC5A5F699C5A4F698C5FD
:1053D000A3F600018FEC0AF003C03FF602C03EF6D0
:1053E00001C03DF600C03CF605010001000CF7C508
:1053F000F3F5F6C5F2F5F5C5F1F5F4C5F0F50601DE
:10540000A06BA6C59FF60001C5EC09F0F3C596F6A2
:10541000F2C595F6F1C594F6F0C593F603C09AF679
:1054200002C099F601C098F600C097F6F2EC0FF0B2
:1054300001E203E1A6DF0501A66B0601336B326BC7
:10544000316B7E0E306FD89233C6A2F632C6A1F60B
:1054500031C6A0F630C69FF64BC6A6F64AC6A5F6DC
:1054600049C6A4F648C6A3F600018FEC0AF000C0B6
:1054700093F601C094F602C095F603C096F6D88262
:1054800003C0A2F602C0A1F601C0A0F600C09FF6BC
:1054900043C6A6F642C6A5F641C6A4F640C6A3F684
:1054A0008FEC0AF003C01FF602C01EF601C01DF605
:1054B00000C01CF60601966B956B700E946F820E01
:1054C000936F1FC69AF61EC699F61DC698F61CC69F
:1054D00097F60001F2EC0FF002E2D8A417D11FC634
:1054E00096F61EC695F61DC694F61CC693F60601E2
:1054F0009A6B996B700E986F840E976F0001F2ECA7
:105500000FF0D8A003D13FC696F63EC695F63DC62D
:1055100094F63CC693F606019A6B996B986B7E0ED7
:10552000976F0001F2EC0FF002E2D8A4EFD0F7C5BC
:10553000B6F6F6C5B5F6F5C5B4F6F4C5B3F606018C
:10554000BA6BB96BB86B800EB76F000129EC19F01C
:1055500003C0F3F502C0F2F501C0F1F500C0F0F5AB
:105560000501AC99AC9B0A0EAA6FDBC596F6DAC5AD
:1055700095F6D9C594F6D8C593F606019A6B996B42
:10558000480E986F840E976F0001F2EC0FF0D8A0D0
:10559000BCD0D1C5A0F6D0C59FF6C5EC09F0F3C5C7
:1055A00096F6F2C595F6F1C594F6F0C593F603C0EC
:1055B0009AF602C099F601C098F600C097F6F2EC90
:1055C0000FF002E2D8A4A1D00501D16BD06B3FC689
:1055D00096F63EC695F63DC694F63CC693F6060191
:1055E0009A6B996B800E986F7E0E976F0001F2ECAC
:1055F0000FF02EE3D892EFC5A2F6EEC5A1F6EDC5E9
:10560000A0F6ECC59FF60601A66BA56BA46B7F0EFA
:10561000A36F00018FEC0AF0D8922FC6A2F62EC617
:10562000A1F62DC6A0F62CC69FF603C0A6F602C0B2
:10563000A5F601C0A4F600C0A3F68FEC0AF003C0E3
:105640002FF602C02EF601C02DF600C02CF65DD05C
:105650003FC696F63EC695F63DC694F63CC693F612
:10566000CD0E06019A6FCC0E996F986F7B0E976FD7
:105670000001F2EC0FF01CE3D8922FC6A2F62EC662
:10568000A1F62DC6A0F62CC69FF6EFC5A6F6EEC570
:10569000A5F6EDC5A4F6ECC5A3F68FEC0AF003C0A1
:1056A0002FF602C02EF601C02DF600C02CF62DD02C
:1056B000D882EFC5A2F6EEC5A1F6EDC5A0F6ECC501
:1056C0009FF60601A66BA56BA46B7E0EA36F00016F
:1056D0008FEC0AF0D8922FC6A2F62EC6A1F62DC6E0
:1056E000A0F62CC69FF603C0A6F602C0A5F601C020
:1056F000A4F600C0A3F68FEC0AF003C02FF602C098
:105700002EF601C02DF600C02CF65CD20601966B79
:10571000956B400E946F810E936F1FC69AF61EC64E
:1057200099F61DC698F61CC697F60001F2EC0FF02C
:1057300002E2D8A41AD11FC696F61EC695F61DC65B
:1057400094F61CC693F606019A6B996B700E986FCF
:10575000820E976F0001F2EC0FF0D8A006D13FC681
:1057600096F63EC695F63DC694F63CC693F69A0E5E
:1057700006019A6F990E996F190E986F7D0E976FAB
:105780000001F2EC0FF002E2D8A4EFD0F7C5B6F6B4
:10579000F6C5B5F6F5C5B4F6F4C5B3F60601BA6BB1
:1057A000B96BB86B800EB76F000129EC19F003C01C
:1057B000F3F502C0F2F501C0F1F500C0F0F5050106
:1057C000AC99AC9B0A0EAA6FDBC596F6DAC595F6C6
:1057D000D9C594F6D8C593F606019A6B996B200E3D
:1057E000986F840E976F0001F2EC0FF0D8A0BCD038
:1057F000D1C5A0F6D0C59FF6C5EC09F0F3C596F665
:10580000F2C595F6F1C594F6F0C593F603C09AF685
:1058100002C099F601C098F600C097F6F2EC0FF0BE
:1058200002E2D8A4A1D00501D16BD06B3FC696F699
:105830003EC695F63DC694F63CC693F606019A6BB5
:10584000996B800E986F7E0E976F0001F2EC0FF04F
:105850002EE3D892EFC5A2F6EEC5A1F6EDC5A0F6EF
:10586000ECC59FF60601A66BA56BA46B7F0EA36F1C
:1058700000018FEC0AF0D8922FC6A2F62EC6A1F630
:105880002DC6A0F62CC69FF603C0A6F602C0A5F64C
:1058900001C0A4F600C0A3F68FEC0AF003C02FF6F7
:1058A00002C02EF601C02DF600C02CF65DD03FC61A
:1058B00096F63EC695F63DC694F63CC693F6CD0EDA
:1058C00006019A6FCC0E996F986F7B0E976F00014F
:1058D000F2EC0FF01CE3D8922FC6A2F62EC6A1F66A
:1058E0002DC6A0F62CC69FF6EFC5A6F6EEC5A5F60A
:1058F000EDC5A4F6ECC5A3F68FEC0AF003C02FF6B5
:1059000002C02EF601C02DF600C02CF62DD0D88294
:10591000EFC5A2F6EEC5A1F6EDC5A0F6ECC59FF663
:105920000601A66BA56BA46B7E0EA36F00018FEC26
:105930000AF0D8922FC6A2F62EC6A1F62DC6A0F662
:105940002CC69FF603C0A6F602C0A5F601C0A4F6B9
:1059500000C0A3F68FEC0AF003C02FF602C02EF6AB
:1059600001C02DF600C02CF62DD1330E0601966F26
:10597000956F946F7E0E936F1FC69AF61EC699F6AA
:105980001DC698F61CC697F60001F2EC0FF002E275
:10599000D8A418D11FC696F61EC695F61DC694F655
:1059A0001CC693F606019A6B996B400E986F810E98
:1059B000976F0001F2EC0FF0D8A004D13FC696F625
:1059C0003EC695F63DC694F63CC693F6CD0E06014E
:1059D0009A6FCC0E996F4C0E986F7C0E976F0001EA
:1059E000F2EC0FF002E2D8A4EDD0F7C5B6F6F6C59A
:1059F000B5F6F5C5B4F6F4C5B3F60601BA6BB96BE6
:105A0000B86B800EB76F000129EC19F003C0F3F5F5
:105A100002C0F2F501C0F1F500C0F0F50501AC9946
:105A2000AC9B0A0EAA6FDBC596F6DAC595F6D9C50A
:105A300094F6D8C593F606019A6B996B700E986F21
:105A4000830E976F0001F2EC0FF0D8A0BBD0D1C548
:105A5000A0F6D0C59FF6C5EC09F0F3C596F6F2C5E1
:105A600095F6F1C594F6F0C593F603C09AF602C018
:105A700099F601C098F600C097F6F2EC0FF002E23A
:105A8000D8A4A0D00501D16BD06B3FC696F63EC618
:105A900095F63DC694F63CC693F606019A6B996B53
:105AA000800E986F7E0E976F0001F2EC0FF02EE3E0
:105AB000D892EFC5A2F6EEC5A1F6EDC5A0F6ECC5ED
:105AC0009FF60601A66BA56BA46B7F0EA36F00016A
:105AD0008FEC0AF0D8922FC6A2F62EC6A1F62DC6DC
