:04000000BFEF18F046
:08000800046ED8CF05F0E0CF33
:1000100006F00001E9CF0CF0EACF07F0E1CF08F0DD
:10002000E2CF09F0D9CF0AF0DACF0BF0F3CF12F01C
:10003000F4CF13F0FACF14F000C00EF001C00FF0AF
:1000400002C010F003C011F09DA02AEF00F09EB096
:1000500025EF06F00EC000F00FC001F010C002F056
:1000600011C003F00CC0E9FF07C0EAFF078E08C00B
:10007000E1FF09C0E2FF0AC0D9FF0BC0DAFF12C0DE
:10008000F3FF13C0F4FF14C0FAFF045006C0E0FFF2
:1000900005C0D8FF1000F2CF0DF0F29EF76AB00F46
:1000A000F66E000EF7220900F5500DBEF28E12001A
:1000B000000000000000005F0000000300030014C7
:1000C0003E143E14242A7F2A1243330866613649BF
:1000D0005522500005030000001C2241000041226F
:1000E0001C0014083E081408083E080800503000A0
:1000F00000080808080800606000002010080402DA
:100100003E5149453E0004027F004261514946226A
:10011000414949361814127F1027454545393E4953
:100120004949320101710907364949493626494989
:10013000493E0036360000005636000008142241C1
:100140000014141414140041221408020151090669
:100150003E4159555E7E0909097E7F494949363E2F
:10016000414141227F4141413E7F494949417F0907
:100170000909013E4141493A7F0808087F00417F53
:100180004100304040403F7F081422417F404040C2
:10019000407F020C027F7F0204087F3E4141413EC6
:1001A0007F090909061E2121215E7F0909097600C0
:1001B000F2CF0DF0F29EF76ACA0FF66E010EF7222B
:1001C0000900F5500DBEF28E120026494949320150
:1001D000017F01013F4040403F1F2040201F7F2002
:1001E00010207F41221C22410708700807615149F5
:1001F0004543007F41000002040810200000417FB9
:10020000000402010204404040404000010204009A
:1002100020545454787F4444443838444444443847
:100220004444447F385454541804047E050508544B
:1002300054543C7F0804047800447D40002040442E
:100240003D007F1028440000417F40007C0478047A
:10025000787C0804047838444444387C1414140826
:10026000081414147C007C080404485454542004DA
:10027000043F44443C4040207C1C2040201C3C4027
:1002800030403C44281028440C5050503C446454A6
:100290004C44000836414100007F000041413608CF
:1002A000000201020402F2CF0DF0F29EBE0FF66EC4
:1002B000020EF7220900F5500DBEF28E120000006A
:1002C0000000000000000000001FFFFFFFFE000014
:1002D0000000000000000000001FFFFFFFFE01C043
:1002E0000000000000000000001C0000000E07F0ED
:1002F0000000000000000000001C0000000E1C9C1C
:100300000000000000000000001C7F00000E180C20
:100310000000000000000000001C4100000E3086BC
:100320000000000000000000001C4100000E2082C0
:100330000000000000000000001C4102000E60836D
:100340000000000000000000001C7F05000E708708
:100350000000000000000000001C0002000E60C34E
:100360000000000000000000001C0000000E2062E1
:100370000000000000000000001C0000000E3026FD
:100380000000000000000000001FFFFFFFFE180C2F
:100390000000000000000000001C0000000E1C9C7B
:1003A0000000000000000000001C0000000E07F02C
:1003B0000000000000000000001C0000000E01C052
:1003C0000000000000000000001C0000000E000003
:1003D0000000000000000000001C0000000E0000F3
:1003E0000000000000000000001C0000000E0000E3
:1003F0000000000000000000001C0000000E0000D3
:100400000000000000000000001C0000000E0000C2
:100410000000000000000000001C001E000E000094
:100420000000000000000000001C00E1C00E000001
:100430000000000000000000001C0180600E0000B1
:100440000000000000000000001C0278100E0000F8
:100450000000000000000000001C067C180E0000D8
:100460000000000000000000001C047C080E0000DA
:100470000000000000000000001C083C040E00000A
:100480000000000000000000001C0810040E0180A5
:100490000000000000000000001C080CE40E0240F8
:1004A0000000000000000000001C082DF40E027087
:1004B0000000000000000000001C0863F40E024071
:1004C0000000000000000000001C08F1E40E03C062
:1004D0000000000000000000001C04F0080E03F003
:1004E0000000000000000000001C04F0080E03C023
:1004F0000000000000000000001C0270100E03C08D
:100500000000000000000000001C0300300E07E0A7
:100510000000000000000000001C00C0C00E0FF032
:100520000000000000000000001C007F800E0BF0A7
:100530000000000000000000001C0000000E0BF096
:100540000000000000000000001C0000000E0FF082
:100550000000000000000000001C0000000E0FF072
:100560000000000000000000001C0000000E07E07A
:100570000000000000000000001C0000000E03C08E
:100580000000000000000000001C0000000E000041
:100590000000000000000000001C0000000E000031
:1005A0000000000000000000001C0000000E000021
:1005B0000000000000000000001C0000000E000011
:1005C0000000000000000000001C0000000E000001
:1005D0000000000000000000001C0000000E0000F1
:1005E0000000000000000000001C0000000E0000E1
:1005F0000000000000000000001C0000000E0000D1
:100600000000000000000000001FFFFFFFFE0000D0
:100610000000000000000000001FFFFFFFFE0000C0
:100620000000000000000000001FFFFFFFFE0000B0
:1006300000000000000000000000000000000000BA
:1006400000000000000000000000000000000000AA
:10065000000000000000000000000000000000009A
:10066000000000000000000000000000000000008A
:10067000000000000000000000000000000000007A
:10068000000000000000000000000000000000006A
:10069000000000000000000000000000000000005A
:1006A000000000000000000000000000000000004A
:1006B0000000000000000000000000000000F2CF79
:1006C0000DF0F29EF76AD80FF66E060EF7220900BB
:1006D000F5500DBEF28E12004A5020496E676C6FC5
:1006E00062616C00F2CF0DF0F29EF76AFE0FF66EBB
:1006F000060EF7220900F5500DBEF28E12002020E2
:100700002020496E63756261646F72610000F2CFF0
:100710000DF0F29EF76A280FF66E070EF722090019
:10072000F5500DBEF28E120020202020446967692A
:1007300074616C00F2CF0DF0F29EF76A4E0FF66E08
:10074000070EF7220900F5500DBEF28E1200202090
:10075000203232204C747300F2CF0DF0F29EF76A13
:10076000720FF66E070EF7220900F5500DBEF28EDD
:10077000120043617267616E646F2E2E0000F2CF2B
:100780000DF0F29EF76A980FF66E070EF722090039
:10079000F5500DBEF28E1200436C61766500F2CF0B
:1007A0000DF0F29EF76AB80FF66E070EF7220900F9
:1007B000F5500DBEF28E1200436F72726563746164
:1007C0000000F2CF0DF0F29EF76ADC0FF66E070E16
:1007D000F7220900F5500DBEF28E1200496E636FCC
:1007E0007272656374610000F2CF0DF0F29EF76AD9
:1007F000020FF66E080EF7220900F5500DBEF28EBC
:1008000012004D656E750000F2CF0DF0F29EF76A92
:10081000220FF66E080EF7220900F5500DBEF28E7B
:100820001200496E69636961722050726F6365736B
:100830006F00F2CF0DF0F29EF76A4C0FF66E080EC5
:10084000F7220900F5500DBEF28E120054656D704E
:100850006572617475726100F2CF0DF0F29EF76AF5
:10086000720FF66E080EF7220900F5500DBEF28EDB
:10087000120054656D706F72697A61646F72000066
:10088000F2CF0DF0F29EF76A9A0FF66E080EF7227D
:100890000900F5500DBEF28E120043616D62696F62
:1008A00020436C6176650000F2CF0DF0F29EF76A8E
:1008B000C20FF66E080EF7220900F5500DBEF28E3B
:1008C0001200436F6E74696E75617200F2CF0DF0A5
:1008D000F29EF76AE60FF66E080EF7220900F55051
:1008E0000DBEF28E120053490000F2CF0DF0F29EC1
:1008F000F76A040FF66E090EF7220900F5500DBED7
:10090000F28E12004E4F0000F2CF0DF0F29EF76A09
:10091000220FF66E090EF7220900F5500DBEF28E79
:1009200012004300F2CF0DF0F29EF76A3E0FF66E12
:10093000090EF7220900F5500DBEF28E1200546523
:100940006D706F72697A6100F2CF0DF0F29EF76AF6
:10095000620FF66E090EF7220900F5500DBEF28EF9
:1009600012003A00F2CF0DF0F29EF76A7E0FF66E9B
:10097000090EF7220900F5500DBEF28E1200436CED
:10098000617665204E7565766100F2CF0DF0F29EBE
:10099000F76AA40FF66E090EF7220900F5500DBE96
:1009A000F28E12005374617475733A436F6E7472F1
:1009B0006F6C616E646F0000F2CF0DF0F29EF76A0B
:1009C000D20FF66E090EF7220900F5500DBEF28E19
:1009D00012005374617475733A43616C656E74618F
:1009E0006E646F00F2CF0DF0F29EF76AFE0FF66EA6
:1009F000090EF7220900F5500DBEF28E1200537455
:100A0000617475733A5075657274612041626965ED
:100A100072746100F2CF0DF0F29EF76A2E0FF66E3F
:100A20000A0EF7220900F5500DBEF28E1200537423
:100A3000617475733A416C61726D612030310000F0
:100A4000F2CF0DF0F29EF76A5A0FF66E0A0EF722F9
:100A50000900F5500DBEF28E120054656D703A001B
:100A6000F2CF0DF0F29EF76A7A0FF66E0A0EF722B9
:100A70000900F5500DBEF28E12002500F2CF0DF0E8
:100A8000F29EF76A960FF66E0A0EF7220900F550ED
:100A90000DBEF28E120054696D653A00F2CF0DF072
:100AA000F29EF76AB60FF66E0A0EF7220900F550AD
:100AB0000DBEF28E120028483A4D2900F2CF0DF0FB
:100AC000F29EF76AD60FF66E0A0EF7220900F5506D
:100AD0000DBEF28E12005374617475733A46696EDE
:100AE000616C697A61646F00F2CF0DF0F29EF76A73
:100AF000020FF66E0B0EF7220900F5500DBEF28EB6
:100B0000120052656772657361720000F2CF0DF0DA
:100B1000F29EF76A260FF66E0B0EF7220900F550CB
:100B20000DBEF28E120047616E616E636961000056
:100B3000F2CF0DF0F29EF76A4A0FF66E0B0EF72217
:100B40000900F5500DBEF28E1200546369636C6F9C
:100B50000000F2CF0DF0F29EF76A6C0FF66E0B0EEE
:100B6000F7220900F5500DBEF28E1200416A75732E
:100B70007465202B0000F2CF0DF0F29EF76A900F03
:100B8000F66E0B0EF7220900F5500DBEF28E120024
:100B9000416A75737465202D0000F2CF0DF0F29E4E
:100BA000F76AB40FF66E0B0EF7220900F5500DBE72
:100BB000F28E12004D65646961204D6F76696C009C
:100BC000F2CF0DF0F29EF76ADA0FF66E0B0EF722F7
:100BD0000900F5500DBEF28E1200436F6566696321
:100BE00069656E746500F2CF0DF0F29EF76A000F32
:100BF000F66E0C0EF7220900F5500DBEF28E1200B3
:100C0000416A757374650000F2CF0DF0F29EF76AC9
:100C1000220FF66E0C0EF7220900F5500DBEF28E73
:100C20001200416A757374656E00F2CF0DF0F29E8A
:100C3000F76A440FF66E0C0EF7220900F5500DBE50
:100C4000F28E12004D6564696100150ECF6EA00E24
:100C5000CE6E0501732BD8B4742B752BD8B4762BBC
:100C6000772BD8B4782B662D15D07851825D07E3A9
:100C700003E18151775D03E28B80949002D08B90E9
:100C800094908451785D06E303E18351775D02E33C
:100C9000786B776B745303E17351C70815E2746B7B
:100CA000736B67896A2B6F2B632B68A903D07D2B2D
:100CB000D8B47E2B712D03D0792BD8B47A2B68A5AC
:100CC00003D07B2BD8B47C2B9E9000012AEF00F040
:100CD000060EEA6E170EE96EEF500EE00F0E016E73
:100CE000006A002EFED7012EFBD78F0E006E002E5D
:100CF000FED70000EF2EF2D7000C8E0E006E18C645
:100D000001F017C602F0036A015209E102C001F0C6
:100D1000026A080E005E015202E1006A08D0D89013
:100D200001BE04D0023601360006F9D7019E000C40
:100D300012C619F606011651191B19AF05D0D89421
:100D4000D89012BFD8802FD012C619F615C61AF641
:100D500011511A5F06E019AF26D0D850010AD86E9B
:100D600022D016C61AF612511A5F06E019AF1BD030
:100D7000D850010AD86E17D017C61AF613511A5F49
:100D800006E019AF10D0D850010AD86E0CD018C6A2
:100D90001AF614511A5F06E019AF05D0D850010AAF
:100DA000D86E01D0D8900001000C0601295303E051
:100DB00093928A8202D093908A8093988A98956AB7
:100DC0002AC68CFF100E006E002EFED700009396F0
:100DD0008A86530E006E002EFED793968A969390C5
:100DE0008A9093928A920001000C0601156B160EF0
:100DF000146F020E176F160E166F1251FF0DF3CF00
:100E000013F6196B186B195101081AE315C603F094
:100E10001451142BD8B4152BE96E03C0EAFF13C686
:100E2000EFFF17C603F01651162BD8B4172BE96E37
:100E300003C0EAFF13C6EFFF182BD8B4192BE3D772
:100E40000001000C0601256B160E246F020E276FA1
:100E5000160E266F226B225107084EE3939A8A9A48
:100E6000296B400E2A6F0001A0DF010E0601296FD9
:100E7000400E2A6F000199DF06012251B809286F40
:100E8000296B2A6F000191DF06012251B809286FF2
:100E9000010E296F28C62AF6000187DF939A8A8AF5
:100EA0000601236B23513F0825E325C603F0245197
:100EB000242BD8B4252BE96E03C0EAFFEFCF28F628
:100EC000296B28C62AF6000170DF060127C603F049
:100ED0002651262BD8B4272BE96E03C0EAFFEFCFAB
:100EE00028F6010E296F28C62AF600015EDF0601EA
:100EF000232BD8D7222BAFD70001000C93948A84E0
:100F000093968A9693908A9093928A92939A8A9AC9
:100F10000601296BC00E2A6F000147DF010E060192
:100F2000296FC00E2A6F000140DF0601296B400EB9
:100F30002A6F00013ADF010E0601296F400E2A6F69
:100F4000000133DF0601296BB80E2A6F00012DDF87
:100F5000010E0601296FB80E2A6F000126DF060177
:100F6000112D0ED0296B3F0E2A6F00011EDF010EDE
:100F70000601296F3F0E2A6F000117DF0DD0060111
:100F8000296B3E0E2A6F000110DF010E0601296F4A
:100F90003E0E2A6F000109DF0601126B000125DFFA
:100FA00051DF000C0601456B4031446F443344333C
:100FB0001F0E4417443745374437453744374537C4
:100FC000443745374437453744374537C00E441713
:100FD0003F514427000E45233F513F080DE2160EB6
:100FE0004425466F020E4521476F400E465D426F15
:100FF000000E4759436F06D0160E4425426F000E6F
:101000004521436F415315E043C603F042C6E9FF53
:1010100043C6EAFF4051070B466F010E006E465172
:10102000016E04E0D8900036012EFCD70050EF127C
:1010300015D043C603F042C6E9FF43C6EAFF40515C
:10104000070B466F010E006E4651016E04E0D8900A
:101050000036012EFCD70050FF0AEF160001000CED
:1010600027C603F0060126C6E9FF27C6EAFFEF52AE
:10107000D8B4D0D027C603F026C6E9FF27C6EAFFBA
:10108000EF50520827E327C603F026C6E9FF27C61C
:10109000EAFF200EEF5C050DF350036A336F060E76
:1010A000EA6E2E0EE96E376B33C636F6F2CF34F6A3
:1010B000F29E050E016EF76A335100014BEC00F011
:1010C0000A000900F5CFEEFF012EFBD7060134BF61
:1010D000F28E35D027C603F026C6E9FF27C6EAFF01
:1010E000EF507E0827E327C603F026C6E9FF27C690
:1010F000EAFF530EEF5C050DF350036A336F060EE3
:10110000EA6E2E0EE96E376B33C636F6F2CF34F642
:10111000F29E050E016EF76A33510001D8EC00F023
:101120000A000900F5CFEEFF012EFBD7060134BF00
:10113000F28E05D02E6B2F6B306B316B326B27C666
:1011400003F02651E96E03C0EAFFEF500A0A0001DE
:1011500003E0070A09E00BD006012851070DF35000
:10116000010F252750D000010601246B4CD0060149
:101170002851050DF35024257F0806E2246B2851E1
:10118000070DF350010F25272A6B2A5104083BE372
:101190002B6B2B51060833E3036A2A512E0FE96E9D
:1011A000060E0320EA6EEFCF33F633C600F02B5164
:1011B000016E04E0D8900032012EFCD700A01DD0B3
:1011C0002C6B28512C5D19E22D6B28512D5D13E2FB
:1011D0002D512425336F2B512803F35025252C2521
:1011E000346F33C63FF6406F29C641F60001DADEA0
:1011F00006012D2BEAD72C2BE4D72B2BCAD72A2B71
:1012000028512427C2D7262BD8B4272B242B000102
:1012100027D706010001000C010E0601386F396F57
:101220003E6B2F51315D3F6F3F513FAF03D0000EFA
:10123000D8803F55036A366F03C037F63051325DB0
:101240003F6F3F513FAF03D0000ED8803F55036A38
:10125000346F03C035F62F51315D02E2FF0E386F57
:101260003051325D02E2FF0E396F3551375D3BE39D
:1012700003E13451365D37E3D89034373537365192
:10128000345D006E3751355900C03AF63B6F365128
:101290003A5D3C6F37513B593D6F375303E13E5147
:1012A000365D20E32FC63FF630C640F633C641F622
:1012B000000178DE06013BBF01D008D034513A2747
:1012C00035513B2338512F252F6F0AD03C513A27F7
:1012D0003D513B2338512F252F6F39513025306F29
:1012E0003E2BDBD736D0D890363737373451365D82
:1012F000006E3551375900C03AF63B6F34513A5DB4
:101300003C6F35513B593D6F355303E13E51345DE0
:1013100020E32FC63FF630C640F633C641F6000143
:1013200041DE06013BBF01D008D036513A27375184
:101330003B2339513025306F0AD03C513A273D517B
:101340003B2338512F252F6F39513025306F3E2BDD
:10135000DBD70001000C060128532EE02651245D46
:1013600005E224C62BF626C62CF604D026C62BF69C
:1013700024C62CF62751255D05E225C62DF627C685
:101380002EF604D027C62DF625C62EF62B512C5D41
:1013900012E32DC62AF62A512E5D0BE32BC63FF62B
:1013A0002AC640F629C641F60001FCDD06012A2BBB
:1013B000F2D72B2BEBD72ED024C62FF625C630F62E
:1013C00026C631F625C632F629C633F6000124DFDB
:1013D00024C62FF627C630F626C631F627C632F6C3
:1013E00029C633F619DF24C62FF625C630F624C6E3
:1013F00031F627C632F629C633F60EDF26C62FF69B
:1014000025C630F626C631F627C632F629C633F68B
:1014100003DF06010001000C060111C601F012C62F
:1014200003F011C617F612C618F6050EEA6EF10E95
:10143000E96E12C6E2FF11C6E1FFE752E6CFEEFF0A
:10144000FCE11551020814E1010E1325176F010E7E
:101450001425186F17C624F6256F050E276FF10E99
:10146000266F16C628F6010E296F0001F9DD060168
:10147000152D25D01651080DF3501425176F246B28
:1014800014C625F67F0E266F17C627F6010E286FA5
:10149000296F000160DF010E06011325176F010E91
:1014A0001425186F17C624F6256F050E276FF10E49
:1014B000266F16C628F6296B0001D2DD06011553EA
:1014C00025E11651080DF3501425176F246B14C62F
:1014D00025F67F0E266F17C627F6010E286F296B9B
:1014E000000139DF010E06011325176F010E1425C7
:1014F000186F17C624F6256F050E276FF10E266F9D
:1015000016C628F6010E296F0001AADD00019ADC3B
:10151000000C06012751016A265D03E226C600F091
:101520000CD0006A080E286F263700362751005C61
:10153000D8B0006E0136282FF7D70001000C10C676
:10154000EAFF0FC6E9FF06012EC6EFFFE92AD8B46D
:10155000EA2AEF6A0F2BD8B4102B0001000C200EE2
:10156000060121A9300E226F20C600F020AF07D05F
:10157000001E002A00C020F62D0E226F218F015080
:1015800020C626F6640E276F0001C3DF00C020F6D8
:10159000300E01240601236F20C626F60A0E276F9F
:1015A0000001B7DF300E00240601256F300E012444
:1015B000246F22C600F021A702D021AF219521B9C6
:1015C0000BD021AF22D021B520D000C023F621B30B
:1015D0001CD000C024F619D0300E235D16E100C0E7
:1015E00023F6200E226F21A704D02195218321AF5D
:1015F0002193300E245D09E100C024F6200E236FF4
:1016000021A7F7D7219321AF219121A505D022C68B
:101610002EF6000194DF060121A305D023C62EF685
:1016200000018DDF060121A104D024C62EF60001A1
:1016300086DF25C62EF6000182DF2AEF0BF0060EAC
:101640000601106F170E0F6F13C620F61F0E216FC5
:10165000000185D70601162D27D0120E1425206F04
:10166000180E1525216F14C624F615C625F620C6BA
:1016700026F6276F010E286F296F00016CDE020E1F
:1016800006011425206F010E1525216F20C624F6B2
:10169000256F060E276F170E266F020E286F296B17
:1016A0000001DEDC26D00601120E1425206F180E74
:1016B0001525216F14C624F615C625F620C626F674
:1016C000276F286B296B000146DE020E06011425E8
:1016D000206F010E1525216F20C624F6256F060EFA
:1016E000276F170E266F020E286F010E296F00015B
:1016F000B7DC000C06011235006E0036FC0E001639
:1017000000C001F0C250C30B0010C26E010E176F73
:10171000000168EC06F0C282C2B2FED7C4CF18F650
:10172000C3CF17F600017DEC06F003C016F602C029
:1017300015F601C014F600C013F613C600F014C667
:1017400001F015C602F016C603F027EF0EF00601F1
:101750001551D8B4A5D0216F1951D8B4A1D0215FAB
:1017600005E37F0E2127D8B09BD006D0810E215FE4
:10177000D8A096D0D8B494D021C600F0016A026AED
:10178000036A206B16C61FF61F8F17C61EF618C6F3
:101790001DF6190E216F1C511D5F0DE2010E1E5F1B
:1017A0000AE21F5F08E2205F06E2202B1F2B1E2BA0
:1017B0001C511D2728D01B511E5F12E2010E1F5F16
:1017C0000FE2205F0DE2202B1F2B1B511E271C5107
:1017D0001D2719E31E2B17E11F2B15E1202B13D01A
:1017E0001A5180091F5F0EE2010E205F0BE2202BD1
:1017F0001A5180091F271B511E27E9E31F2BE7E120
:10180000202BE5D70380212F01D00BD0D8901D3796
:101810001E371F372037D89003360236013622375D
:10182000BAD722A106D0D890013202320332223335
:1018300002D0000635E022BF1ED0D8901D371E37DB
:101840001F3720371C511D5F07E2010E1E5F04E2A7
:101850001F5F02E2205F1AE31B511E5F05E2010ECB
:101860001F5F02E2205F12E31A5180091F5F03E24B
:10187000010E205F0BE3032A09E1022A07E1012A96
:1018800005E1002A0DE001320232033216C621F6CC
:101890001A51211B21AF02D0018E06D0019E04D027
:1018A000006A016A026A036A0001000C800ED8A275
:1018B00002D006011B1B0601206B216B17C61FF609
:1018C0001B511F1B1651D8B4DFD01E6F006E1A516A
:1018D000D8B4E3D01E5FD8B483D03EE31BC624F651
:1018E000248F1CC623F61DC622F6216BD890243304
:1018F0002333223321331E2FF8D71FAF03D020818B
:10190000E0D020911E912089060EEA6E190EE96E34
:10191000EBD020991FBF0AD01EA113D0243323334C
:1019200022332133002AD8B4C7D00BD024BF0CD027
:10193000D89021372237233724370006D8B4BCD0BB
:10194000F5D7208D6DD0209D17C61FF617AF02D09A
:10195000248FABD0249FA9D01AC61EF61AC600F059
:1019600016511E5F17C624F6248F18C623F619C613
:1019700022F6216BD89024332333223321331E2FB8
:10198000F8D71FAF03D020839CD020931E91208BCB
:10199000060EEA6E1D0EE96EA7D0209B1FBF0AD06F
:1019A0001EA113D02433233322332133002AD8B489
:1019B00083D00BD024BF0CD0D890213722372337C7
:1019C00024370006D8B478D0F5D7208F29D0209FAF
:1019D0001BC61FF61BAF02D0248F67D0249F65D093
:1019E0001BC624F6248F1CC623F61DC622F61FAF85
:1019F00004D0249F208565D02095216B1E91060E72
:101A0000EA6E190EE96E70D01FBF1CD017C61FF604
:101A10001EA106D02433233322332133002A4CE085
:101A200021AF0BD0222B09E1232B07E1242B05E169
:101A3000243323332233002A3FE020BD84D720BF44
:101A4000C6D71CD0800E241B24AF04D03AD01BC6AE
:101A50001FF60AD017C61FF6245306E1235304E1EC
:101A6000225302E1006A21D024BF08D0D890213748
:101A7000223723372437002EF7D71ED01FAF02D0CE
:101A8000248F13D0249F11D01AC600F01BC624F651
:101A90001CC623F61DC622F608D016C600F017C6CF
:101AA00024F618C623F619C622F624C601F023C66A
:101AB00002F022C603F034D0006A016A026A036AA7
:101AC0002FD0216B221F231F241F211F212B05E153
:101AD000222B03E1232B01E1242B20B112D720B3C9
:101AE00054D720B589D7B3D7EF50222705E3232B4E
:101AF00003E1242BD8B41E81ED52EF50232703E3DA
:101B0000242BD8B41E81ED52EF50EFBE01D0800AD5
:101B10002427D8B01E8120B9FCD620BB3ED774D76D
:101B20000001000C060115511703F3CF01F0F4CFAB
:101B300000F01803F350002616511703F35000204D
:101B4000026E0001000C06012E51D8B471D0006E57
:101B50003251D8B46DD0002604E3810E002668E22D
:101B600004D07F0E005E64E363E02FC636F6335187
:101B7000361B2F8F338F31513503F4CF38F6305168
:101B80003403F4CF03F0F3CF37F63503F35038279F
:101B9000F4503723000E032231513403F350382719
:101BA000F4503723000E026A032202222F5135031C
:101BB000F3503727F4500322000E02222F51340332
:101BC000F3500326F4500222000E016A0122315123
:101BD0003303F3503727F4500322000E0222012270
:101BE00030513303F3500326F4500222000E012239
:101BF0002F513303F3500226F4500122002A01BE74
:101C000005D037370336023601360006000E37AFEF
:101C10000AD0032A02220122015005E1025003E109
:101C2000035001E1002A36BF018E36AF019E04D079
:101C3000006A016A026A036A0001000C0501B86BC0
:101C4000B76BB66BB56B0601126B000153D503C0C1
:101C5000A0F502C09FF501C09EF500C09DF5A0C58E
:101C600018F69FC517F69EC516F69DC515F6F60E15
:101C700006011C6F280E1B6F260E1A6F840E196F3B
:101C8000000165DD03C0A0F502C09FF501C09EF50F
:101C900000C09DF50601186BC00E176F7F0E166F02
:101CA000880E156FA0C51CF69FC51BF69EC51AF6BB
:101CB0009DC519F600014BDD00C012F601C013F6F8
:101CC00002C014F603C015F6D88203C019F602C08C
:101CD00018F601C017F600C016F606011D6B1C6B46
:101CE0001B6B7F0E1A6F0001E1DDA4C518F6A3C5BA
:101CF00017F6A2C516F6A1C515F603C01CF602C05C
:101D00001BF601C01AF600C019F621DD03C0A8F5C4
:101D100002C0A7F501C0A6F500C0A5F5D882A8C5E8
:101D200019F6A7C518F6A6C517F6A5C516F69A0E94
:101D300006011D6F990E1C6F190E1B6F7D0E1A6F19
:101D40000001B4DD03C0A8F502C0A7F501C0A6F5E7
:101D500000C0A5F5010E0601115D05015F5D02E001
:101D600001E35F6B0601166B5FC515F6186B040E79
:101D7000176F0001D7DE0150160FE96E040E022026
:101D8000EA6EA5C5EFFFA6C5ECFFA7C5ECFFA8C589
:101D9000ECFF05015F2B5E6B0601115105015E5DD5
:101DA0003EE20601166B5EC515F6186B040E176F42
:101DB0000001B8DE02C003F00150160FE96E040EF8
:101DC0000220EA6EEFCF00F0ECCF01F0ECCF02F092
:101DD000ECCF03F0EACF13F6E9CF12F6D892B8C5EC
:101DE00019F6B7C518F6B6C517F6B5C516F603C089
:101DF0001DF602C01CF601C01BF600C01AF656DD27
:101E000013C6EAFF12C6E9FF03C0B8F502C0B7F572
:101E100001C0B6F500C0B5F505015E2BBDD70601C2
:101E2000186B11C617F600017DEC06F0B8C518F660
:101E3000B7C517F6B6C516F6B5C515F603C01CF638
:101E400002C01BF601C01AF600C019F680DC03C000
:101E5000B8F502C0B7F501C0B6F500C0B5F5B8C514
:101E600031F6B7C530F6B6C52FF6B5C52EF6B8C5EE
:101E700035F6B7C534F6B6C533F6B5C532F663DE0A
:101E800000C012F601C013F602C014F603C015F626
:101E900003C031F602C030F601C02FF600C02EF6A6
:101EA000E8C535F6E7C534F6E6C533F6E5C532F6DE
:101EB0004ADE00C012F601C013F602C014F603C0D9
:101EC00015F6B8C531F6B7C530F6B6C52FF6B5C5A7
:101ED0002EF6ECC535F6EBC534F6EAC533F6E9C5A2
:101EE00032F631DED89215C619F614C618F613C6A6
:101EF00017F612C616F603C01DF602C01CF601C086
:101F00001BF600C01AF6D2DC00C012F601C013F6B0
:101F100002C014F603C015F6D89203C019F602C029
:101F200018F601C017F600C016F6F0C51DF6EFC58D
:101F30001CF6EEC51BF6EDC51AF6B8DC03C0BCF501
:101F400002C0BBF501C0BAF500C0B9F50601186BB7
:101F500060C517F600017DEC06F000C012F601C066
:101F600013F602C014F603C015F60601186B61C51E
:101F700017F600017DEC06F0D88215C619F614C6D6
:101F800018F613C617F612C616F603C01DF602C0E1
:101F90001CF601C01BF600C01AF688DCD892BCC53E
:101FA00019F6BBC518F6BAC517F6B9C516F603C0BB
:101FB0001DF602C01CF601C01BF600C01AF676DC46
:101FC00003C0BCF502C0BBF501C0BAF500C0B9F54D
:101FD000B9C500F0BAC501F0BBC502F0BCC503F03D
:101FE000000C006A016A06011A51D8901BB1002644
:101FF000003201321BB30026003201321BB500262D
:10200000003201321BB70026003201321BB9002614
:10201000003201321BBB0026003201321BBD0026FC
:10202000003201321BBF0026003201320001000CD9
:102030000601166B13C617F6010ED8801355186FDC
:10204000145365E01651115D196F175112251A6F5F
:10205000165111251B6F175112251C6F19C62FF62B
:102060001AC630F61BC631F6326F15C633F60001BC
:102070000CEC09F006011651115D196F1751125D34
:102080001A6F165111251B6F1751125D1C6F19C65F
:102090002FF61AC630F61BC631F6326F15C633F668
:1020A00000010CEC09F006011751115D196F165172
:1020B00012251A6F175111251B6F165112251C6F0F
:1020C00019C62FF61AC630F61BC631F6326F15C682
:1020D00033F600010CEC09F006011751115D196F80
:1020E0001651125D1A6F175111251B6F1651125D93
:1020F0001C6F19C62FF61AC630F61BC631F6326FA2
:1021000015C633F600010CEC09F078D00601115128
:102110001625196F125117251A6F19C63FF6406F11
:1021200015C641F60001D2EC07F006011151172542
:10213000196F125116251A6F19C63FF6406F15C652
:1021400041F60001D2EC07F006011651115D196F3E
:10215000125117251A6F19C63FF6406F15C641F682
:102160000001D2EC07F006011751115D196F1251F1
:1021700016251A6F19C63FF6406F15C641F60001C5
:10218000D2EC07F0060111511725196F1651125D97
:102190001A6F19C63FF6406F15C641F60001D2EC22
:1021A00007F0060111511625196F1751125D1A6FAC
:1021B00019C63FF6406F15C641F60001D2EC07F094
:1021C00006011651115D196F1751125D1A6F19C66C
:1021D0003FF6406F15C641F60001D2EC07F006014C
:1021E0001751115D196F1651125D1A6F19C63FF61E
:1021F000406F15C641F60001D2EC07F0060118BF8A
:1022000001D00ED01651162B196F020E1A6F19C677
:102210001BF60001E6DE0150030F0601182711D05E
:102220001651162B196F17511707195D196F020EEA
:102230001A6F19C61BF60001D4DE0150050F060106
:1022400018271651800A006E1751800A005CD8B416
:10225000F7D6D8A0F5D60001000CEACF2AF6E9CFD0
:1022600029F606012339F009256F2527E20F266F8D
:10227000320F286F23510F0B262726272827E90F17
:10228000276F2727272722390F0B272728272737AC
:102290002837281F283722510F0B28272537070EEC
:1022A000246F0A0E27072827FDE326072727FDE3CB
:1022B00025072627FDE324072527FDE3060EEA6E02
:1022C000240EE96E070E2915299DE926280EE95CE2
:1022D000D8B4298DEF50006E08E129BD06D029B988
:1022E00016D029B702D0200E03D029872999300EA5
:1022F0000026EACF23F6E9CF22F600C02EF6000131
:102300009FEC0AF023C6EAFF22C6E9FF0601EE5061
:1023100029ADDCD70001000C0601175102083AE193
:10232000060E106F190E0F6F0A0EE96E14C623F613
:1023300013C622F6000191DF06011851120DF35069
:102340001525226F1851080DF3501625236F15C659
:1023500024F616C625F622C626F6276F010E286F2C
:10236000296F0001ABEC09F0010E06011525226F63
:10237000010E1625236F22C624F6256F060E276F41
:10238000190E266F18C628F6296B000130EC08F0EC
:102390009AD00601060E106F190E0F6F0A0EE96E25
:1023A00014C623F613C622F6000157DF06011751A3
:1023B00004082DE11851100DF3501525226F185106
:1023C000080DF3501625236F15C624F616C625F6FC
:1023D00022C626F6276F010E286F296B0001ABEC91
:1023E00009F0010E06011525226F010E1625236F37
:1023F00022C624F6256F060E276F190E266F18C603
:1024000028F6010E296F000130EC08F00601172DA7
:102410002CD01851050DF3501525226F1851080DB9
:10242000F3501625236F15C624F616C625F622C6C8
:1024300026F6276F010E286F296F0001ABEC09F01B
:10244000010E06011525226F010E1625236F22C6E7
:1024500024F6256F060E276F190E266F18C628F66C
:10246000296B000130EC08F0060117532DE11851DB
:10247000050DF3501525226F1851080DF350162540
:10248000236F15C624F616C625F622C626F6276F34
:10249000010E286F296B0001ABEC09F0010E06015B
:1024A0001525226F010E1625236F22C624F6256FEF
:1024B000060E276F190E266F18C628F6010E296F13
:1024C000000130EC08F00601000122EC07F0000CDE
:1024D000015020C626F6640E0601276F000189EC24
:1024E0000AF000C020F60150300E08E1060121A3D9
:1024F00010D021B70ED021B9200E04D006012197AB
:1025000021992181012601C02EF600019FEC0AF0DD
:10251000060120C626F60A0E276F000189EC0AF094
:1025200000C020F60150300E08E1060121B70BD0A3
:1025300021A109D021B9200E0001012601C02EF6EB
:102540009FEC0AF00601300E202720C62EF600016F
:102550009FEC0AF0000C06011551020838E1060E46
:10256000106F170E0F6F12C620F6030E216F0001B9
:10257000AFDF06011651120DF3501325206F1651CF
:10258000080DF3501425216F13C624F614C625F642
:1025900020C626F6276F010E286F296F0001ABECCD
:1025A00009F0010E06011325206F010E1425216F7D
:1025B00020C624F6256F060E276F170E266F16C647
:1025C00028F6296B000130EC08F0A3D00601155164
:1025D000030838E1060E106F170E0F6F12C620F6B3
:1025E000030E216F000174DF06011651120DF35026
:1025F0001325206F1651080DF3501425216F13C6B3
:1026000024F614C625F620C626F6276F010E286F7D
:10261000296B0001ABEC09F0010E06011325206FB8
:10262000010E1425216F20C624F6256F060E276F94
:10263000170E266F16C628F6010E296F000130EC22
:1026400008F00601060E106F170E0F6F12C620F667
:102650001B0E216F00013CDF0601152D2CD01651F9
:10266000050DF3501325206F1651080DF350142556
:10267000216F13C624F614C625F620C626F6276F4A
:10268000010E286F296F0001ABEC09F0010E060165
:102690001325206F010E1425216F20C624F6256F07
:1026A000060E276F170E266F16C628F6296B000137
:1026B00030EC08F0060115532DE11651050DF350CD
:1026C0001325206F1651080DF3501425216F13C6E2
:1026D00024F614C625F620C626F6276F010E286FAD
:1026E000296B0001ABEC09F0010E06011325206FE8
:1026F000010E1425216F20C624F6256F060E276FC4
:10270000170E266F16C628F6010E296F000130EC51
:1027100008F00601000122EC07F0000C060111513F
:10272000050852E1126B12513F084EE3136B13512F
:102730000F0848E3070E146F1451800A7F0840E227
:10274000166B12C615F6186B100E176F000192EC7F
:102750000DF002C016F601C015F606011351012452
:10276000016E000E0220036E0150F2CF15F6F29EAC
:1027700003C0F7FF000153EC01F0060115BFF28E14
:10278000156F070ED8801455166F15C600F0165138
:10279000016E04E0D8900032012EFCD700A00ED0CC
:1027A0001351080DF3501425156F3F6F12C640F6F4
:1027B000010E416F0001D2EC07F006011407BCD7EF
:1027C000132BB5D7122BAFD700012FEF2BF005013C
:1027D0006951040DF350036A560FE96E050E03208C
:1027E000EA6ED1C5EFFFD2C5ECFFD3C5ECFFD4C56F
:1027F000ECFF692B695101081EE2696BD8825DC547
:1028000019F65CC518F65BC517F65AC516F659C514
:102810001DF658C51CF657C51BF656C51AF600011D
:1028200056EC0CF003C0D0F502C0CFF501C0CEF5D8
:1028300000C0CDF50501000142EF14F08E0E006ED0
:1028400006011151005E12C602F013C601F0028E9D
:10285000005209E0D890025202E1015204E0023233
:102860000132002EF7D712AF05D0011E021E012A39
:10287000D8B4022A0001000C050163511D0804E2CE
:102880000001A5D70501636B7E51010806E2FF0A2E
:1028900003E17D51580801E2688B80C518F67FC5B9
:1028A00017F600017DEC06F0D892C8C519F6C7C529
:1028B00018F6C6C517F6C5C516F603C01DF602C044
:1028C0001CF601C01BF600C01AF656EC0CF000C056
:1028D00011F601C012F602C013F603C014F6D88236
:1028E00003C019F602C018F601C017F600C016F6AC
:1028F000D4C51DF6D3C51CF6D2C51BF6D1C51AF634
:1029000056EC0CF003C0B4F502C0B3F501C0B2F54B
:1029100000C0B1F50601146B136B126B800E116FC2
:10292000B4C518F6B3C517F6B2C516F6B1C515F697
:10293000000198EC06F0D8A0C6D0B4C514F6B3C513
:1029400013F6B2C512F6B1C511F60601186B176B76
:10295000480E166F840E156F000198EC06F0D8A093
:10296000B2D0D0C514F6CFC513F6CEC512F6CDC57C
:1029700011F69A0E0601186F990E176F190E166F41
:102980007D0E156F000198EC06F0D8A09CD00501D3
:1029900068A902D0000197D0679B679D88C514F68F
:1029A00087C513F686C512F685C511F6E0C518F67B
:1029B000DFC517F6DEC516F6DDC515F6000198EC85
:1029C00006F0D8A080D005016F513B08D8B07CD06C
:1029D0006F6BD0C514F6CFC513F6CEC512F6CDC5B4
:1029E00011F60601186B176B800E166F7E0E156FB1
:1029F000000198EC06F01BE3D892C4C519F6C3C5D4
:102A000018F6C2C517F6C1C516F606011D6B1C6B7C
:102A10001B6B7F0E1A6F000156EC0CF003C0C4F55F
:102A200002C0C3F501C0C2F500C0C1F54CD0D0C58D
:102A300014F6CFC513F6CEC512F6CDC511F6CD0EE0
:102A40000601186FCC0E176F166F7B0E156F000105
:102A500098EC06F01BE3D892C4C519F6C3C518F666
:102A6000C2C517F6C1C516F606011D6B1C6B1B6BA4
:102A70007E0E1A6F000156EC0CF003C0C4F502C0C4
:102A8000C3F501C0C2F500C0C1F51DD0D892C4C5C0
:102A900019F6C3C518F6C2C517F6C1C516F6CD0E90
:102AA00006011D6FCC0E1C6F4C0E1B6F7C0E1A6F37
:102AB000000156EC0CF003C0C4F502C0C3F501C020
:102AC000C2F500C0C1F50501B4C514F6B3C513F6CF
:102AD000B2C512F6B1C511F60601186B176B166B6D
:102AE000156B000198EC06F01FE305016F513B08E0
:102AF0001CE26F6BD882C4C519F6C3C518F6C2C5EF
:102B000017F6C1C516F606011D6B1C6B1B6B7E0EFE
:102B10001A6F000156EC0CF003C0C4F502C0C3F5F7
:102B200001C0C2F500C0C1F50501C4C514F6C3C596
:102B300013F6C2C512F6C1C511F60601186B176B64
:102B4000166B7E0E156F000198EC06F007E3050189
:102B5000C46BC36BC26B7E0EC16F00018CC514F6D3
:102B60008BC513F68AC512F689C511F6C4C518F6C9
:102B7000C3C517F6C2C516F6C1C515F698EC06F022
:102B800008E38CC5C4F58BC5C3F58AC5C2F589C5F4
:102B9000C1F5B4C514F6B3C513F6B2C512F6B1C586
:102BA00011F60601186B176B166B156B000198EC8C
:102BB00006F006E30501B46BB36BB26BB16B0001B9
:102BC000B4C531F6B3C530F6B2C52FF6B1C52EF691
:102BD000C4C535F6C3C534F6C2C533F6C1C532F631
:102BE000A3EC0DF003C0C0F502C0BFF501C0BEF5F7
:102BF00000C0BDF580C518F67FC517F67DEC06F060
:102C000003C014F602C013F601C012F600C011F69C
:102C1000C0C518F6BFC517F6BEC516F6BDC515F674
:102C200098EC06F00EE380C518F67FC517F67DEC2C
:102C300006F003C0C0F502C0BFF501C0BEF500C07C
:102C4000BDF5C0C514F6BFC513F6BEC512F6BDC5A9
:102C500011F60601186B176B166B156B000198ECDB
:102C600006F006E30501C06BBF6BBE6BBD6B0001D8
:102C700080C518F67FC517F67DEC06F0C0C518F6BE
:102C8000BFC517F6BEC516F6BDC515F603C01CF6C2
:102C900002C01BF601C01AF600C019F6A7EC0BF033
:102CA00000C011F601C012F602C013F603C014F6FC
:102CB00003C031F602C030F601C02FF600C02EF678
:102CC000ACC535F6ABC534F6AAC533F6A9C532F6A0
:102CD000A3EC0DF003C0B0F502C0AFF501C0AEF536
:102CE00000C0ADF5050168AB1AD00601146B136B7B
:102CF000200E126F810E116FB0C518F6AFC517F612
:102D0000AEC516F6ADC515F6000198EC06F008E361
:102D10000501B06BAF6B200EAE6F810EAD6F000181
:102D2000DCC514F6DBC513F6DAC512F6D9C511F603
:102D3000B0C518F6AFC517F6AEC516F6ADC515F693
:102D400098EC06F008E3DCC5B0F5DBC5AFF5DAC5F5
:102D5000AEF5D9C5ADF5B4C514F6B3C513F6B2C515
:102D600012F6B1C511F60601186B176B166B800EC3
:102D7000156F000198EC06F041E3B4C514F6B3C535
:102D800013F6B2C512F6B1C511F6CD0E0601186FD5
:102D9000CC0E176F4C0E166F7E0E156F000198EC5F
:102DA00006F001E20CE1050167BD09D0B0C5E4F50C
:102DB000AFC5E3F5AEC5E2F5ADC5E1F5678D05013B
:102DC00067AD1DD0B0C514F6AFC513F6AEC512F68B
:102DD000ADC511F6E4C518F6E3C517F6E2C516F65B
:102DE000E1C515F6000198EC06F008E3E4C5B0F57E
:102DF000E3C5AFF5E2C5AEF5E1C5ADF50501B0C57A
:102E000018F6AFC517F6AEC516F6ADC515F60A0E1F
:102E100006011C6FD70E1B6F230E1A6F770E196FEA
:102E20000001A7EC0BF003C014F602C013F601C0BA
:102E300012F600C011F602DD02C082F501C081F574
:102E4000ACC518F6ABC517F6AAC516F6A9C515F692
:102E50000A0E06011C6FD70E1B6F230E1A6F770E1A
:102E6000196F0001A7EC0BF003C014F602C013F6B3
:102E700001C012F600C011F6E1DC02C084F501C009
:102E800083F5010E0501666F0001000C06012E514D
:102E9000B6082E6F036A2FC632F62F8FD8902F33C5
:102EA0003033313303320232013200322E2FF6D763
:102EB00032AF0BD0001E011E021E031E002AD8B422
:102EC000012AD8B4022AD8B4032A0001D4EF17F09B
:102ED000006A016A026A036A0601366B376B386B57
:102EE000396B35513411331132112CE0200E3A6F09
:102EF000D8902E372F373037313736373737383786
:102F000039373551395D08E13451385D05E13351C8
:102F1000375D02E13251365D0FE33251365F335196
:102F2000D8A0333D375F3451D8A0343D385F355198
:102F3000D8A0353D395FD8800036013602360336D9
:102F40003A2FD6D7060EEA6E360EE96E0001000C57
:102F5000E9500601266F2551286F1CE024C631F682
:102F600023C630F622C62FF621C62EF6356B346BFB
:102F7000200E336F820E326F0001A3EC0DF003C000
:102F800024F602C023F601C022F600C021F6060195
:102F9000282FE4D724C631F623C630F622C62FF6F2
:102FA00021C62EF6000172D703C024F602C023F614
:102FB00001C022F600C021F6060124AF0DD026077D
:102FC000268B211F221F231F241F212BD8B4222B25
:102FD000D8B4232BD8B4242B3B0E2D6F9A0E2C6F14
:102FE000CA0E2B6F2A6B0A0E286F2551D8B4262BD8
:102FF00024C631F623C630F622C62FF621C62EF699
:103000002DC635F62CC634F62BC633F62AC632F654
:1030100000015EDF0150EFCF21F6ECCF22F6ECCFBE
:1030200023F6ECCF24F6005213E106012529285D92
:10303000D8A402D000010CD026510DE00F0B285D62
:1030400001E044E226BF42D026BD05D0200E37D095
:10305000200E0601261726AB0FD0269B2551D8A49B
:1030600026070050266F2D0E2E6F00019FEC0AF0F0
:1030700006012651006E266B2551285D0DE100509A
:10308000266F2E0E2E6F00019FEC0AF006012651CE
:10309000006E200E2617000E300E26AB10D0269B99
:1030A0002551D8A426070050266F2D0E2E6F000143
:1030B0009FEC0AF006012651006E266B300E0026AA
:1030C00000C02EF600019FEC0AF006012DC631F675
:1030D0002CC630F62BC62FF62AC62EF6356B346B6F
:1030E000336B0A0E326F0001F3DE03C02DF602C00F
:1030F0002CF601C02BF600C02AF60601282F78D73F
:10310000000196EF18F0060E0601106F180E0F6FF3
:10311000420EE96E14C624F613C623F612C622F632
:1031200011C621F6010E256F000112D706011751B5
:103130001B0DF3501525216F1751080DF35016255F
:10314000226F15C624F616C625F621C626F6276F69
:10315000010E286F296B0001ABEC09F015C624F6AF
:1031600016C625F6060E0601276F180E266F17C61F
:1031700028F6010E296F000130EC08F0000CF86A07
:10318000D09E078EEA6AE96A05015E6B5F6B606B31
:10319000616B0A0E626F636B646B656B666B679144
:1031A0006793679567876799679B679D679F689136
:1031B0006893689568976899689B696B6A6B6B6B95
:1031C000010E6C6F6D6B6E6B6F6B706F716B726BF2
:1031D000746B736B766B756B786B776B7A6B796BE3
:1031E0007C6B7B6B7E6B7D6B806B7F6B826B816B93
:1031F000846B836B886B876B866B856B8C6B8B6B3F
:103200008A6B896BA06B9F6B9E6B9D6BA46B100E82
:10321000A36F420EA26F8B0EA16FAC6BAB6B200E37
:10322000AA6F820EA96FB06BAF6BAE6BAD6BB46B58
:10323000B36BB26BB16BB86BB76BB66BB56BBC6B8A
:10324000BB6BBA6BB96BC06BBF6BBE6BBD6BC46B3A
:10325000C36B480EC26F830EC16FC86BC76BC66B62
:103260007F0EC56FCC6BCB6B700ECA6F830EC96FB0
:10327000D06BCF6BCE6BCD6BD46BD36BD26BD16B72
:10328000D86BD76B200ED66F820ED56FDC6BDB6BE5
:10329000DA6BD96BE06BDF6BDE6BDD6BE46BE36BE2
:1032A000E26BE16BE00EE86F2D0EE76F100EE66F3C
:1032B000750EE56FFF0EEC6F210EEB6F150EEA6FCA
:1032C000800EE96F820EF06F120EEF6FF40EEE6F4C
:1032D000860EED6FC150C00B0F09C16E070EB46EA4
:1032E0000401166B176B186B196B1A6B1B6B1C6B3D
:1032F0001D6B1E6B1F6B206B216B226B236B246B72
:10330000256B266B276B286B296B2A6B2B6B2C6B21
:103310002D6B2E6B2F6B306B316B326B336B346BD1
:10332000356B366B376B386B396B3A6B3B6B3C6B81
:103330003D6B3E6B3F6B406B416B426B436B446B31
:10334000456B466B476B486B496B4A6B4B6B4C6BE1
:103350004D6B4E6B4F6B506B516B526B536B546B91
:10336000556B566B576B586B596B5A6B5B6B5C6B41
:103370005D6B5E6B5F6B606B616B626B636B646BF1
:10338000656B666B676B686B696B6A6B6B6B6C6BA1
:103390006D6B6E6B6F6B706B716B726B736B746B51
:1033A000756B766B776B786B796B7A6B7B6B7C6B01
:1033B0007D6B7E6B7F6B806B816B826B836B846BB1
:1033C000856B866B876B886B896B8A6B8B6B8C6B61
:1033D0008D6B8E6B8F6B906B916B926B936B946B11
:1033E000956B966B976B986B996B9A6B9B6B9C6BC1
:1033F0009D6B9E6B9F6BA06BA16BA26BA36BA46B71
:10340000A56BA66BA76BA86BA96BAA6BAB6BAC6B20
:10341000AD6BAE6BAF6BB06BB16BB26BB36BB46BD0
:10342000B56BB66BB76BB86BB96BBA6BBB6BBC6B80
:10343000BD6BBE6BBF6BC06BC16BC26BC36BC46B30
:10344000C56BC66BC76BC86BC96BCA6BCB6BCC6BE0
:10345000CD6BCE6BCF6BD06BD16BD26BD36BD46B90
:10346000D56BD66BD76BD86BD96BDA6BDB6BDC6B40
:10347000DD6BDE6BDF6BE06BE16BE26BE36BE46BF0
:10348000E56BE66BE76BE86BE96BEA6BEB6BEC6BA0
:10349000ED6BEE6BEF6BF06BF16BF26BF36BF46B50
:1034A000F56BF66BF76BF86BF96BFA6BFB6BFC6B00
:1034B000FD6BFE6BFF6B0501006B016B026B036B19
:1034C000046B056B066B076B086B096B0A6B0B6B68
:1034D0000C6B0D6B0E6B0F6B106B116B126B136B18
:1034E000146B156B166B176B186B196B1A6B1B6BC8
:1034F0001C6B1D6B1E6B1F6B206B216B226B236B78
:10350000246B256B266B276B286B296B2A6B2B6B27
:103510002C6B2D6B2E6B2F6B306B316B326B336BD7
:10352000346B356B366B376B386B396B3A6B3B6B87
:103530003C6B3D6B3E6B3F6B406B416B426B436B37
:10354000446B456B466B476B486B496B4A6B4B6BE7
:103550004C6B4D6B4E6B4F6B506B516B526B536B97
:10356000546B556B566B576B586B596B5A6B5B6B47
:103570005C6B5D6B8D6B8E6B8F6B906B916B926BDD
:10358000936B946B956B966B976B986B996B9A6B2F
:103590009B6B9C6B06010F6B106B040E116FFA0E88
:1035A000176F000168EC06F00601112FF8D78B9019
:1035B00094908B9494948B9C949C850ECD6E9D805E
:1035C000C150C00B0E09C16EC090C082C084C08EB5
:1035D000C280C00EF212F2CF11F6F29EA96AA69C2A
:1035E000A69EA680A85011BFF28E0501916F320EE3
:1035F0000601176F000168EC06F0F2CF11F6F29E9B
:10360000010EA96EA69CA69EA680A850060111BF19
:10361000F28E0501926F320E0601176F000168EC01
:1036200006F0F2CF11F6F29E020EA96EA69CA69E9F
:10363000A680A850060111BFF28E0501936F320ECD
:103640000601176F000168EC06F0F2CF11F6F29E4A
:10365000030EA96EA69CA69EA680A850060111BFC7
:10366000F28E0501946F320E0601176F000168ECAF
:1036700006F0F2CF11F6F29E510EA96EA69CA69E00
:10368000A680A850060111BFF28E126FF2CF13F67A
:10369000F29E500EA96EA69CA69EA680A85013BFAF
:1036A000F28E146F12C680F514C67FF5320E176FB6
:1036B000000168EC06F0F2CF11F6F29E0A0EA96E38
:1036C000A69CA69EA680A850060111BFF28E0501F9
:1036D000996F320E0601176F000168EC06F0F2CF09
:1036E00011F6F29E0B0EA96EA69CA69EA680A8506F
:1036F000060111BFF28E05019A6F320E0601176F97
:10370000000168EC06F0F2CF11F6F29E0C0EA96EE5
:10371000A69CA69EA680A850060111BFF28E0501A8
:103720009B6F320E0601176F000168EC06F0F2CFB6
:1037300011F6F29E0D0EA96EA69CA69EA680A8501C
:10374000060111BFF28E05019C6F320E0601176F44
:10375000000168EC06F0F2CF11F6F29E5A0EA96E47
:10376000A69CA69EA680A850060111BFF28E186BDB
:10377000176F00017DEC06F003C0C4F502C0C3F56D
:1037800001C0C2F500C0C1F5320E0601176F00017D
:1037900068EC06F0F2CF11F6F29E1E0EA96EA69C02
:1037A000A69EA680A850060111BFF28E186B176F57
:1037B00000017DEC06F003C0ACF502C0ABF501C022
:1037C000AAF500C0A9F5320E0601176F000168ECDA
:1037D00006F0F2CF11F6F29E280EA96EA69CA69EC8
:1037E000A680A850060111BFF28E0501606F320E4F
:1037F0000601176F000168EC06F0F2CF11F6F29E99
:10380000320EA96EA69CA69EA680A850060111BFE6
:10381000F28E0501616F320E0601176F000168EC30
:1038200006F0F2CF11F6F29E3C0EA96EA69CA69E63
:10383000A680A850060111BFF28E0501626F320EFC
:103840000601176F000168EC06F0F2CF11F6F29E48
:10385000460EA96EA69CA69EA680A850060111BF82
:10386000F28E186B176F00017DEC06F003C0CCF5EB
:1038700002C0CBF501C0CAF500C0C9F5320E060181
:10388000176F000168EC06F0F2CF11F6F29E640E9D
:10389000A96EA69CA69EA680A850060111BFF28E16
:1038A000186B176F00017DEC06F003C0D8F502C05D
:1038B000D7F501C0D6F500C0D5F50601146B136B22
:1038C000200E126F820E116FC4C518F6C3C517F60D
:1038D000C2C516F6C1C515F6000198EC06F006E360
:1038E0000501C46BC36BC26B800EC16F010E060174
:1038F000116F00017EEC07F00601126B0001F5EC80
:1039000006F0050EEA6EF10EE96EF2CF11F6F29EA8
:10391000000E5FEC03F00A000900F550EE6E00099E
:10392000FBE1060111BFF28E050E126FF10E116F51
:10393000136B146B156B020E166F00010CEC0AF082
:10394000050EEA6EF10EE96EF2CF11F6F29E000E50
:1039500072EC03F00A000900F550EE6E0009FBE17D
:10396000060111BFF28E050E126FF10E116F136B6F
:10397000140E146F156B010E166F00010CEC0AF09B
:10398000050EEA6EF10EE96EF2CF11F6F29E000E10
:1039900087EC03F00A000900F550EE6E0009FBE128
:1039A000060111BFF28E050E126FF10E116F136B2F
:1039B0001E0E146F156B010E166F00010CEC0AF051
:1039C000050EEA6EF10EE96EF2CF11F6F29E000ED0
:1039D0009AEC03F00A000900F550EE6E0009FBE1D5
:1039E000060111BFF28E050E126FF10E116F136BEF
:1039F0002D0E146F156B020E166F00010CEC0AF001
:103A0000040E0601116FFA0E176F000168EC06F044
:103A10000601112FF8D7126B0001F5EC06F095C5E1
:103A200013F6140E0601146F1E0E156F010E166F9D
:103A300000011FEC0BF096C513F6280E0601146F5B
:103A40001E0E156F166B00011FEC0BF097C513F6D9
:103A50003C0E0601146F1E0E156F166B00011FEC55
:103A60000BF098C513F6500E0601146F1E0E156F5D
:103A7000166B00011FEC0BF005016D6B6D514F08CB
:103A800010E362C511F600011EEC0EF003C0D4F580
:103A900002C0D3F501C0D2F500C0D1F505016D2BF0
:103AA000EDD7928A80AA48D0968084A045D096828D
:103AB00084A242D0968484A43FD0020E0601116FE6
:103AC000FA0E176F000168EC06F00601112FF8D707
:103AD000050EEA6EF10EE96EF2CF11F6F29E000EBF
:103AE0000001ACEC03F00A000900F550EE6E00098D
:103AF000FBE1060111BFF28E050E126FF10E116F80
:103B0000136B1E0E146F010E156F166F00010CEC77
:103B10000AF0080E0601116FFA0E176F000168EC2B
:103B200006F00601112FF8D7640E05016B6F060130
:103B3000126B0001F5EC06F0000122EC07F0050124
:103B40006B53D8A4CAD2050EEA6EF10EE96EF2CF1D
:103B500011F6F29E000E0001BFEC03F00A0009000E
:103B6000F550EE6E0009FBE1060111BFF28E050E65
:103B7000126FF10E116F1E0E136F146B010E156F85
:103B8000020E166F00010CEC0AF0928A80AA6BD02C
:103B9000050167B167D067811E0E0601176F00012E
:103BA00068EC06F0010E05016D6F6D5104085AE3D3
:103BB0006D516C5D3BE1010E6D5D036A950FE96E21
:103BC000050E0320EA6EEF2A010E6D5D036A950F64
:103BD000E96E050E0320EA6EEFBE0CD0EF50090827
:103BE00009E2010E6D5D036A950FE96E050E032073
:103BF000EA6EEF6A010E6D5D036A950FE96E050EC0
:103C00000320EA6EEFCF11F66D51140DF3CF12F6CB
:103C1000060111C613F612C614F61E0E156F010E1C
:103C2000166F00011FEC0BF01AD00501010E6D5D3F
:103C3000036A950FE96E050E0320EA6EEFCF11F6C9
:103C40006D51140DF3CF12F6060111C613F612C60C
:103C500014F61E0E156F166B00011FEC0BF005011C
:103C60006D2BA3D702D005016791968084A069D0FF
:103C700067B566D067851E0E0601176F000168ECF8
:103C800006F0010E05016D6F6D51040859E36D5189
:103C90006C5D3AE1010E6D5D036A950FE96E050EEC
:103CA0000320EA6EEF06010E6D5D036A950FE96E63
:103CB000050E0320EA6EEFBE01D00AD0010E6D5D45
:103CC000036A950FE96E050E0320EA6E090EEF6E8A
:103CD000010E6D5D036A950FE96E050E0320EA6E15
:103CE000EFCF11F66D51140DF3CF12F6060111C688
:103CF00013F612C614F61E0E156F010E166F000194
:103D00001FEC0BF01AD00501010E6D5D036A950FD3
:103D1000E96E050E0320EA6EEFCF11F66D51140D1A
:103D2000F3CF12F6060111C613F612C614F61E0ED4
:103D3000156F166B00011FEC0BF005016D2BA4D75E
:103D400001D06795968284A24CD067B349D067832F
:103D50001E0E0601176F000168EC06F005016C2BC2
:103D6000010E6D6F6D5104083BE36D516C5D1CE1FC
:103D7000010E6D5D036A950FE96E050E0320EA6E74
:103D8000EFCF11F66D51140DF3CF12F6060111C6E7
:103D900013F612C614F61E0E156F010E166F0001F3
:103DA0001FEC0BF01AD00501010E6D5D036A950F33
:103DB000E96E050E0320EA6EEFCF11F66D51140D7A
:103DC000F3CF12F6060111C613F612C614F61E0E34
:103DD000156F166B00011FEC0BF005016D2BC2D7A0
:103DE00001D067936C510408D8B077D10601126BEB
:103DF0000001F5EC06F0040E05016C6F9551030807
:103E000073E19651080870E1975109086DE19851E6
:103E100002086AE10A0EA96EA86AA69CA69EA6845C
:103E2000F250006EF29E0F01550EA76EAA0EA76EFD
:103E3000A682A6B2FED7A6940050F212140E060176
:103E4000176F000168EC06F00B0EA96EA86AA69C1D
:103E5000A69EA684F250006EF29E0F01550EA76E2C
:103E6000AA0EA76EA682A6B2FED7A6940050F212A2
:103E7000140E0601176F000168EC06F00C0EA96E17
:103E8000A86AA69CA69EA684F250006EF29E0F0120
:103E9000550EA76EAA0EA76EA682A6B2FED7A6944E
:103EA0000050F212140E0601176F000168EC06F0C4
:103EB0000D0EA96EA86AA69CA69EA684F250006E5E
:103EC000F29E0F01550EA76EAA0EA76EA682A6B28D
:103ED000FED7A6940050F212140E0601176F0001CF
:103EE00068EC06F0FF0005019951955D68E19A5173
:103EF000965D65E19B51975D62E19C51985D5FE144
:103F00000601126B0001F5EC06F0050EEA6EF10EEB
:103F1000E96EF2CF11F6F29E000EBFEC03F00A003C
:103F20000900F550EE6E0009FBE1060111BFF28EAB
:103F3000050E126FF10E116F1E0E136F146B156BC1
:103F4000020E166F00010CEC0AF0050EEA6EF10E7F
:103F5000E96EF2CF11F6F29E000ECFEC03F00A00EC
:103F60000900F550EE6E0009FBE1060111BFF28E6B
:103F7000050E126FF10E116F0F0E136F1E0E146FE0
:103F8000156B020E166F00010CEC0AF0010E050114
:103F90006B6F000122EC07F0040E0601116FFA0EA0
:103FA000176F000168EC06F00601112FF8D7126BAD
:103FB0000001F5EC06F0010E05016C6F8ED00601D4
:103FC000126B0001F5EC06F0050EEA6EF10EE96EDB
:103FD000F2CF11F6F29E000EBFEC03F00A000900CA
:103FE000F550EE6E0009FBE1060111BFF28E050EE1
:103FF000126FF10E116F1E0E136F146B156B020E04
:10400000166F00010CEC0AF0050EEA6EF10EE96E77
:10401000F2CF11F6F29E000EE1EC03F00A00090067
:10402000F550EE6E0009FBE1060111BFF28E050EA0
:10403000126FF10E116F136B1E0E146F156B020EC3
:10404000166F00010CEC0AF005016B6B000122EC0D
:1040500007F0040E0601116FFA0E176F000168ECED
:1040600006F00601112FF8D7126B0001F5EC06F0EF
:10407000010E05016C6F956B966B976B986B95C5F0
:1040800013F6140E0601146F1E0E156F010E166F37
:1040900000011FEC0BF096C513F6280E0601146FF5
:1040A0001E0E156F166B00011FEC0BF097C513F673
:1040B0003C0E0601146F1E0E156F166B00011FECEF
:1040C0000BF098C513F6500E0601146F1E0E156FF7
:1040D000166B00011FEC0BF005016B2D8ED170519A
:1040E000040802E2010E706F705302E1040E706F5B
:1040F000050EEA6EF10EE96EF2CF11F6F29E000E99
:104100000001F4EC03F00A000900F550EE6E00091E
:10411000FBE1060111BFF28E050E126FF10E116F59
:104120001E0E136F146B010E156F020E166F000139
:104130000CEC0AF00501702D23D0050EEA6EF10E8D
:10414000E96EF2CF11F6F29E000E000104EC04F0CD
:104150000A000900F550EE6E0009FBE1060111BFEF
:10416000F28E050E126FF10E116F136B140E146F99
:10417000010E156F166F00010CEC0AF022D005013C
:10418000050EEA6EF10EE96EF2CF11F6F29E000E08
:10419000000104EC04F00A000900F550EE6E00097D
:1041A000FBE1060111BFF28E050E126FF10E116FC9
:1041B000136B140E146F156B010E166F00010CECCF
:1041C0000AF005017051020823E1050EEA6EF10EB6
:1041D000E96EF2CF11F6F29E000E000119EC04F028
:1041E0000A000900F550EE6E0009FBE1060111BF5F
:1041F000F28E050E126FF10E116F136B1E0E146FFF
:10420000010E156F166F00010CEC0AF022D00501AB
:10421000050EEA6EF10EE96EF2CF11F6F29E000E77
:10422000000119EC04F00A000900F550EE6E0009D7
:10423000FBE1060111BFF28E050E126FF10E116F38
:10424000136B1E0E146F156B010E166F00010CEC34
:104250000AF005017051030823E1050EEA6EF10E24
:10426000E96EF2CF11F6F29E000E00012CEC04F084
:104270000A000900F550EE6E0009FBE1060111BFCE
:10428000F28E050E126FF10E116F136B280E146F64
:10429000010E156F166F00010CEC0AF022D005011B
:1042A000050EEA6EF10EE96EF2CF11F6F29E000EE7
:1042B00000012CEC04F00A000900F550EE6E000934
:1042C000FBE1060111BFF28E050E126FF10E116FA8
:1042D000136B280E146F156B010E166F00010CEC9A
:1042E0000AF005017051040823E1050EEA6EF10E93
:1042F000E96EF2CF11F6F29E000E000140EC04F0E0
:104300000A000900F550EE6E0009FBE1060111BF3D
:10431000F28E050E126FF10E116F136B320E146FC9
:10432000010E156F166F00010CEC0AF022D005018A
:10433000050EEA6EF10EE96EF2CF11F6F29E000E56
:10434000000140EC04F00A000900F550EE6E00098F
:10435000FBE1060111BFF28E050E126FF10E116F17
:10436000136B320E146F156B010E166F00010CECFF
:104370000AF0928A80AA0ED0050167B10AD067813F
:104380001E0E0601176F000168EC06F005017007AC
:10439000678702D005016791968084A00DD067B52C
:1043A0000AD067851E0E0601176F000168EC06F043
:1043B0000501702B678701D06795968284A21CD077
:1043C00067B319D06783020E0601116FFA0E176FDB
:1043D000000168EC06F00601112FF8D7030E050165
:1043E00070256B6F010E706F0601126B0001F5EC0A
:1043F00006F00501678701D067936B510408D8A4C4
:1044000002D27051020802E2010E706F705302E195
:10441000020E706F050EEA6EF10EE96EF2CF11F624
:10442000F29E000E000154EC04F00A000900F55061
:10443000EE6E0009FBE1060111BFF28E050E126F50
:10444000F10E116F136B146B010E156F020E166FC8
:1044500000010CEC0AF005017051020845E1050E5F
:10446000EA6EF10EE96EF2CF11F6F29E000E000137
:1044700066EC04F00A000900F550EE6E0009FBE15D
:10448000060111BFF28E050E126FF10E116F320E82
:10449000136F190E146F010E156F020E166F0001C7
:1044A0000CEC0AF0050EEA6EF10EE96EF2CF11F691
:1044B000F29E000E75EC04F00A000900F550EE6E55
:1044C0000009FBE1060111BFF28E050E126FF10E1D
:1044D000116F320E136F2D0E146F156B020E166FC7
:1044E00000010CEC0AF00501702D45D0050EEA6EB6
:1044F000F10EE96EF2CF11F6F29E000E000166ECAD
:1045000004F00A000900F550EE6E0009FBE1060117
:1045100011BFF28E050E126FF10E116F320E136F76
:10452000190E146F156B020E166F00010CEC0AF0D9
:10453000050EEA6EF10EE96EF2CF11F6F29E000E54
:1045400075EC04F00A000900F550EE6E0009FBE17D
:10455000060111BFF28E050E126FF10E116F320EB1
:10456000136F2D0E146F010E156F020E166F0001E2
:104570000CEC0AF00501928A80AA04D0705101085F
:1045800001E3702B968084A004D07051010801E2F1
:104590007007968284A21CD170510208D8A401D160
:1045A000140E6B6F0F0E0601246F120E256F1E0E78
:1045B000266F350E276F286B010E296F0001ABECBB
:1045C00009F00501726B0601126B0001F5EC06F0B3
:1045D00005016E6BC4C518F6C3C517F6C2C516F63D
:1045E000C1C515F6CCC51CF6CBC51BF6CAC51AF657
:1045F000C9C519F60001A7EC0BF000C011F601C007
:1046000012F602C013F603C014F680C518F67FC573
:1046100017F67DEC06F003C031F602C030F601C09B
:104620002FF600C02EF614C635F613C634F612C6A1
:1046300033F611C632F6A3EC0DF003C0C4F502C088
:10464000C3F501C0C2F500C0C1F580C518F67FC52D
:1046500017F67DEC06F0330E0601316F306F2F6FC9
:104660007D0E2E6F03C035F602C034F601C033F65E
:1046700000C032F60001A3EC0DF003C08CF502C0BF
:104680008BF501C08AF500C089F580C518F67FC595
:1046900017F67DEC06F0710E0601316F3D0E306F9E
:1046A0000A0E2F6F7E0E2E6F03C035F602C034F651
:1046B00001C033F600C032F60001A3EC0DF000C0DB
:1046C00011F601C012F602C013F603C014F603C0BF
:1046D00031F602C030F601C02FF600C02EF6ACC590
:1046E00035F6ABC534F6AAC533F6A9C532F6A3EC48
:1046F0000DF000C011F601C012F602C013F603C09F
:1047000014F603C018F602C017F601C016F600C072
:1047100015F606011C6B1B6B480E1A6F850E196F80
:104720000001A7EC0BF003C0DCF502C0DBF501C013
:10473000DAF500C0D9F50601316B306B480E2F6FEA
:10474000850E2E6FDCC535F6DBC534F6DAC533F6DB
:10475000D9C532F60001A3EC0DF000C011F601C07E
:1047600012F602C013F603C014F603C018F602C016
:1047700017F601C016F600C015F6ACC51CF6ABC5A1
:104780001BF6AAC51AF6A9C519F6A7EC0BF003C0CB
:10479000E0F502C0DFF501C0DEF500C0DDF519D09F
:1047A0000501040E0601116FAF0E176F000168ECD2
:1047B00006F00601112FF8D7010E05016B6F0601F7
:1047C000126B0001F5EC06F0010E0501706F6787B2
:1047D0000001968484A418D0040E0601116FAF0E58
:1047E000176F000168EC06F00601112FF8D7010ED3
:1047F00005016B6F0601126B0001F5EC06F0010E6E
:104800000501706F6787000105016B510508D8A489
:1048100008D1805303E17F51460803E2806B460EC6
:104820007F6F7F5305E1805303E1806B010E7F6F43
:10483000550E0601116F1E0E126F030E136F146BCF
:10484000010E156F000118EC10F0050EEA6EF10E66
:10485000E96EF2CF11F6F29E000E84EC04F00A002D
:104860000900F550EE6E0009FBE1060111BFF28E62
:10487000050E126FF10E116F5C0E136F1E0E146F8A
:10488000020E156F030E166F00010CEC0AF0050EF8
:10489000EA6EF10EE96EF2CF11F6F29E000E19ECFF
:1048A00004F00A000900F550EE6E0009FBE1060174
:1048B00011BFF28E050E126FF10E116F136B146B98
:1048C000010E156F020E166F00010CEC0AF080C588
:1048D00014F67FC513F61E0E0601156F166F176BC3
:1048E000030E186F00018CEC11F0928A80AA1AD086
:1048F0001E0E0601246F256F500E266F370E276F90
:10490000010E286F296B0001ABEC09F01E0E0601A9
:10491000176F000168EC06F005017F2BD8B4802BDF
:1049200067870001968084A01BD01E0E0601246FAD
:10493000256F500E266F370E276F010E286F296BDB
:104940000001ABEC09F01E0E0601176F000168ECC8
:1049500006F005017F51D8B480077F076787000103
:10496000968284A209D01E0E0601176F000168EC22
:1049700006F0050167870001968484A451D0040ED7
:104980000601116FAF0E176F000168EC06F006010B
:10499000112FF8D7010E05016B6F0601126B000194
:1049A000F5EC06F0010E0501706F67877FC511F603
:1049B000500EA96E11C6A8FFA69CA69EA684F25012
:1049C000006EF29E0F01550EA76EAA0EA76EA6826C
:1049D000A6B2FED7A6940050F212320E0601176F4F
:1049E000000168EC06F080C511F6510EA96E11C6E3
:1049F000A8FFA69CA69EA684F250006EF29E0F0110
:104A0000550EA76EAA0EA76EA682A6B2FED7A694D2
:104A10000050F212320E0601176F000168EC06F02A
:104A200005016B510608D8A4A9D16C5302E1040E0C
:104A30006C6F050EEA6EF10EE96EF2CF11F6F29E82
:104A4000000E000192EC04F00A000900F550EE6E31
:104A50000009FBE1060111BFF28E050E126FF10E87
:104A6000116F136B146B010E156F020E166F0001A0
:104A70000CEC0AF005016C5104080FE194C512F624
:104A8000140E0601136F280E146F010E156F020E1F
:104A9000166F0001ABEC12F00DD094C512F6140E97
:104AA0000601136F280E146F156B020E166F0001AE
:104AB000ABEC12F005016C5103080EE193C512F640
:104AC000280E0601136F146F010E156F020E166F7C
:104AD0000001ABEC12F00CD093C512F6280E0601C3
:104AE000136F146F156B020E166F0001ABEC12F012
:104AF00005016C5102080FE192C512F6460E06013F
:104B0000136F280E146F010E156F020E166F000141
:104B1000ABEC12F00DD092C512F6460E0601136FE3
:104B2000280E146F156B020E166F0001ABEC12F01D
:104B300005016C2D0FD091C512F65A0E0601136FA8
:104B4000280E146F010E156F020E166F0001ABECEC
:104B500012F00DD091C512F65A0E0601136F280EF1
:104B6000146F156B020E166F0001ABEC12F0050E00
:104B7000EA6EF10EE96EF2CF11F6F29E000EA4EC91
:104B800004F00A000900F550EE6E0009FBE1060191
:104B900011BFF28E050E126FF10E116F3C0E136FE6
:104BA0002A0E146F020E156F166F00010CEC0AF03E
:104BB000928A80AA20D0010E05016C5D036A910FD4
:104BC000E96E050E0320EA6EEFBE03D0EF50080831
:104BD00011E31E0E0601176F000168EC06F0010ECE
:104BE00005016C5D036A910FE96E050E0320EA6E04
:104BF000EF2A67870001968084A020D0010E05016E
:104C00006C5D036A910FE96E050E0320EA6EEFBE3C
:104C100014D0EF50000811E21E0E0601176F0001BC
:104C200068EC06F0010E05016C5D036A910FE96EF8
:104C3000050E0320EA6EEF0667870001968284A2C4
:104C40000AD01E0E0601176F000168EC06F0050180
:104C50006C0767870001968484A491D0040E060136
:104C6000116FAF0E176F000168EC06F00601112FEF
:104C7000F8D7010E05016B6F0601126B0001F5EC10
:104C800006F0010E0501706F6787A96A91C5A8FF3C
:104C9000A69CA69EA684F250006EF29E0F01550EB1
:104CA000A76EAA0EA76EA682A6B2FED7A694005043
:104CB000F212320E0601176F000168EC06F0010EC9
:104CC000A96E92C5A8FFA69CA69EA684F250006E6F
:104CD000F29E0F01550EA76EAA0EA76EA682A6B26F
:104CE000FED7A6940050F212320E0601176F000193
:104CF00068EC06F0020EA96E93C5A8FFA69CA69EBE
:104D0000A684F250006EF29E0F01550EA76EAA0EF9
:104D1000A76EA682A6B2FED7A6940050F212320E5B
:104D20000601176F000168EC06F0030EA96E94C52A
:104D3000A8FFA69CA69EA684F250006EF29E0F01CC
:104D4000550EA76EAA0EA76EA682A6B2FED7A6948F
:104D50000050F212320E0601176F000168EC06F0E7
:104D60000501915309E1925307E1935305E19453EF
:104D700003E1050E656F02D00A0E656F00010501A3
:104D80006B510708D8A45AD2050EEA6EF10EE96EEF
:104D9000F2CF11F6F29E000E0001BFEC03F00A0004
:104DA0000900F550EE6E0009FBE1060111BFF28E1D
:104DB000050E126FF10E116F1E0E136F146B010EA4
:104DC000156F020E166F00010CEC0AF005016C2D38
:104DD0002FD095C513F6140E0601146F1E0E156F15
:104DE000010E166F00011FEC0BF096C513F6280E8E
:104DF0000601146F1E0E156F166B00011FEC0BF0F1
:104E000097C513F63C0E0601146F1E0E156F166B38
:104E100000011FEC0BF098C513F6500E0601146F3D
:104E20001E0E156F166B00011FEC0BF095D00501DF
:104E30006C5102082FE195C513F6140E0601146F8C
:104E40001E0E156F166B00011FEC0BF096C513F6C6
:104E5000280E0601146F1E0E156F010E166F00014D
:104E60001FEC0BF097C513F63C0E0601146F1E0ED7
:104E7000156F166B00011FEC0BF098C513F6500E62
:104E80000601146F1E0E156F166B00011FEC0BF060
:104E900063D005016C5103082FE195C513F6140E7C
:104EA0000601146F1E0E156F166B00011FEC0BF040
:104EB00096C513F6280E0601146F1E0E156F166B9D
:104EC00000011FEC0BF097C513F63C0E0601146FA2
:104ED0001E0E156F010E166F00011FEC0BF098C52A
:104EE00013F6500E0601146F1E0E156F166B00019F
:104EF0001FEC0BF031D005016C5104082EE195C573
:104F000013F6140E0601146F1E0E156F166B0001BA
:104F10001FEC0BF096C513F6280E0601146F1E0E3B
:104F2000156F166B00011FEC0BF097C513F63C0EC6
:104F30000601146F1E0E156F166B00011FEC0BF0AF
:104F400098C513F6500E0601146F1E0E156F010E54
:104F5000166F00011FEC0BF00501928A80AA34D075
:104F600067B131D067811E0E0601176F000168EC32
:104F700006F0010E05016D6F6D51040824E36D51BB
:104F80006C5D1FE1010E6D5D036A950FE96E050E04
:104F90000320EA6EEF2A010E6D5D036A950FE96E3C
:104FA000050E0320EA6EEFBE0CD0EF50090809E2AF
:104FB000010E6D5D036A950FE96E050E0320EA6E22
:104FC000EF6A6D2BD9D701D06791968084A033D03A
:104FD00067B530D067851E0E0601176F000168ECBB
:104FE00006F0010E05016D6F6D51040823E36D514C
:104FF0006C5D1EE1010E6D5D036A950FE96E050E95
:105000000320EA6EEF06010E6D5D036A950FE96EEF
:10501000050E0320EA6EEFBE01D00AD0010E6D5DD1
:10502000036A950FE96E050E0320EA6E090EEF6E16
:105030006D2BDAD701D06795968284A211D067B321
:105040000ED06783020E0601116F960E176F0001D6
:1050500068EC06F00601112FF8D705016C2B01D082
:105060006793968484A414D0040E0601116FAF0ECA
:10507000176F000168EC06F00601112FF8D7010E3A
:1050800005016B6F0601126B0001F5EC06F00501DE
:105090006C510408D8B0D2D00601126B0001F5ECB7
:1050A00006F005019951955D68E19A51965D65E1BB
:1050B0009B51975D62E19C51985D5FE10601126B27
:1050C0000001F5EC06F0050EEA6EF10EE96EF2CF86
:1050D00011F6F29E000EBFEC03F00A000900F55035
:1050E000EE6E0009FBE1060111BFF28E050E126F94
:1050F000F10E116F1E0E136F146B156B020E166FEF
:1051000000010CEC0AF0050EEA6EF10EE96EF2CF2A
:1051100011F6F29E000ECFEC03F00A000900F550E4
:10512000EE6E0009FBE1060111BFF28E050E126F53
:10513000F10E116F0F0E136F1E0E146F156B020E12
:10514000166F00010CEC0AF05B0E05016B6F00019D
:1051500022EC07F0040E0601116FFA0E176F000122
:1051600068EC06F00601112FF8D7126B0001F5EC80
:1051700006F0010E05016C6F61D00601126B000193
:10518000F5EC06F0050EEA6EF10EE96EF2CF11F6BF
:10519000F29E000EBFEC03F00A000900F550EE6E1F
:1051A0000009FBE1060111BFF28E050E126FF10E30
:1051B000116F1E0E136F146B156B020E166F00012C
:1051C0000CEC0AF0050EEA6EF10EE96EF2CF11F664
:1051D000F29E000EE1EC03F00A000900F550EE6EBD
:1051E0000009FBE1060111BFF28E050E126FF10EF0
:1051F000116F136B1E0E146F156B020E166F0001EC
:105200000CEC0AF0010E05016B6F000122EC07F0B7
:10521000040E0601116FFA0E176F000168EC06F01C
:105220000601112FF8D7126B0001F5EC06F0010E04
:1052300005016C6F956B966B976B986B6B515B0868
:10524000D8A402D2050EEA6EF10EE96EF2CF11F685
:10525000F29E000E0001B2EC04F00A000900F550C5
:10526000EE6E0009FBE1060111BFF28E050E126F12
:10527000F10E116F136B146B010E156F020E166F8A
:1052800000010CEC0AF005016C2D2FD099C513F626
:10529000140E0601146F1E0E156F010E166F00011D
:1052A0001FEC0BF09AC513F6280E0601146F1E0EA4
:1052B000156F166B00011FEC0BF09BC513F63C0E2F
:1052C0000601146F1E0E156F166B00011FEC0BF01C
:1052D0009CC513F6500E0601146F1E0E156F166B4B
:1052E00000011FEC0BF095D005016C5102082FE175
:1052F00099C513F6140E0601146F1E0E156F166B6A
:1053000000011FEC0BF09AC513F6280E0601146F6E
:105310001E0E156F010E166F00011FEC0BF09BC5E2
:1053200013F63C0E0601146F1E0E156F166B00016E
:105330001FEC0BF09CC513F6500E0601146F1E0EE9
:10534000156F166B00011FEC0BF063D005016C515B
:1053500003082FE199C513F6140E0601146F1E0EF3
:10536000156F166B00011FEC0BF09AC513F6280E93
:105370000601146F1E0E156F166B00011FEC0BF06B
:105380009BC513F63C0E0601146F1E0E156F010E21
:10539000166F00011FEC0BF09CC513F6500E0601B2
:1053A000146F1E0E156F166B00011FEC0BF031D041
:1053B00005016C5104082EE199C513F6140E06017F
:1053C000146F1E0E156F166B00011FEC0BF09AC5C3
:1053D00013F6280E0601146F1E0E156F166B0001D2
:1053E0001FEC0BF09BC513F63C0E0601146F1E0E4E
:1053F000156F166B00011FEC0BF09CC513F6500ED9
:105400000601146F1E0E156F010E166F00011FECC2
:105410000BF00501928A80AA34D067B131D0678140
:105420001E0E0601176F000168EC06F0010E050163
:105430006D6F6D51040824E36D516C5D1FE1010E29
:105440006D5D036A990FE96E050E0320EA6EEF2A7F
:10545000010E6D5D036A990FE96E050E0320EA6E79
:10546000EFBE0CD0EF50090809E2010E6D5D036A32
:10547000990FE96E050E0320EA6EEF6A6D2BD9D7FE
:1054800001D06791968084A033D067B530D067850E
:105490001E0E0601176F000168EC06F0010E0501F3
:1054A0006D6F6D51040823E36D516C5D1EE1010EBB
:1054B0006D5D036A990FE96E050E0320EA6EEF0633
:1054C000010E6D5D036A990FE96E050E0320EA6E09
:1054D000EFBE01D00AD0010E6D5D036A990FE96E2F
:1054E000050E0320EA6E090EEF6E6D2BDAD701D0A0
:1054F0006795968284A211D067B30ED06783020E9F
:105500000601116F960E176F000168EC06F0060198
:10551000112FF8D705016C2B01D06793968484A4D2
:1055200014D0040E0601116FAF0E176F000168EC66
:1055300006F00601112FF8D7010E05016B6F060169
:10554000126B0001F5EC06F005016C510408D8B0AF
:105550007BD0010E706F6C6F0A0EA96E99C5A8FF03
:10556000A69CA69EA684F250006EF29E0F01550ED8
:10557000A76EAA0EA76EA682A6B2FED7A69400506A
:10558000F212320E0601176F000168EC06F00B0EE6
:10559000A96E9AC5A8FFA69CA69EA684F250006E8E
:1055A000F29E0F01550EA76EAA0EA76EA682A6B296
:1055B000FED7A6940050F212320E0601176F0001BA
:1055C00068EC06F00C0EA96E9BC5A8FFA69CA69ED3
:1055D000A684F250006EF29E0F01550EA76EAA0E21
:1055E000A76EA682A6B2FED7A6940050F212320E83
:1055F0000601176F000168EC06F00D0EA96E9CC540
:10560000A8FFA69CA69EA684F250006EF29E0F01F3
:10561000550EA76EAA0EA76EA682A6B2FED7A694B6
:105620000050F212040E0601116FFA0E176F0001FE
:1056300068EC06F00601112FF8D7126B0001F5ECAB
:1056400006F0010E05016B6F6B511408D8A4E5EF4D
:105650002FF0050E0601116F00018EEF13F09288F6
:1056600080B8F0D0928680B6EDD080C518F67FC5A0
:1056700017F67DEC06F003C014F602C013F601C065
:1056800012F600C011F6D4C518F6D3C517F6D2C568
:1056900016F6D1C515F698EC06F001E203E1050116
:1056A0006889000180C518F67FC517F67DEC06F005
:1056B000D88203C019F602C018F601C017F600C060
:1056C00016F69A0E06011D6F990E1C6F190E1B6FB0
:1056D0007F0E1A6F000156EC0CF0D4C514F6D3C53A
:1056E00013F6D2C512F6D1C511F603C018F602C0E2
:1056F00017F601C016F600C015F698EC06F003E3A5
:1057000005016899000180C518F67FC517F67DEC84
:1057100006F0D88203C019F602C018F601C017F6C9
:1057200000C016F606011D6B1C6B1B6B7F0E1A6FFB
:10573000000156EC0CF003C014F602C013F601C0D1
:1057400012F600C011F6D4C518F6D3C517F6D2C5A7
:1057500016F6D1C515F698EC06F001E239E106011E
:10576000246B370E256F7F0E266F3F0E276F010EBD
:10577000286F296B0001ABEC09F0050EEA6EF10E03
:10578000E96EF2CF11F6F29E000EC5EC04F00A00AD
:105790000900F550EE6E0009FBE1060111BFF28E23
:1057A000050E126FF10E116F136B370E146F020E90
:1057B000156F010E166F00010CEC0AF0010E0501C9
:1057C000716F00013CEC14F00501689538D00001C0
:1057D000050168850601246B370E256F7F0E266F45
:1057E0003F0E276F010E286F296B0001ABEC09F00B
:1057F000050EEA6EF10EE96EF2CF11F6F29E000E82
:10580000DCEC04F00A000900F550EE6E0009FBE143
:10581000060111BFF28E050E126FF10E116F136BA0
:10582000370E146F020E156F010E166F00010CEC8F
:105830000AF00501716B00013CEC14F005018B824C
:1058400094920001928880A84BD005016895666B00
:1058500068B117D0C46BC36BC26B800EC16F0601F9
:10586000246B370E256F7F0E266F3F0E276F010EBC
:10587000286F296B0001ABEC09F00501716B6881A1
:10588000646B050EEA6EF10EE96EF2CF11F6F29E30
:10589000000E0001F2EC04F00A000900F550EE6E73
:1058A0000009FBE1060111BFF28E050E126FF10E29
:1058B000116F136B370E146F020E156F010E166FFA
:1058C00000010CEC0AF08B9294928B9094908B9444
:1058D00094940501B06BAF6BAE6BAD6B14D000014F
:1058E000050168A110D00601246B370E256F7F0ECD
:1058F000266F3F0E276F010E286F296B0001ABEC5E
:1059000009F005016891928680A65BD06895666B68
:1059100068B31AD00601246B370E256F7F0E266FF1
:105920003F0E276F010E286F296B0001ABEC09F0C9
:105930000501716B8B9094908B949494B06BAF6BCA
:10594000AE6BAD6B6883646B050EEA6EF10EE96EAB
:10595000F2CF11F6F29E000E00010AEC05F00A00EB
:105960000900F550EE6E0009FBE1060111BFF28E51
:10597000050E126FF10E116F136B370E146F020EBE
:10598000156F010E166F00010CEC0AF08B8C949CC5
:10599000040E0601116FFA0E176F000168EC06F095
:1059A0000601112FF8D78B9C949C040E116FFA0EF0
:1059B000176F000168EC06F00601112FF8D714D01C
:1059C000050168A310D00601246B370E256F7F0EEA
:1059D000266F3F0E276F010E286F296B0001ABEC7D
:1059E00009F0050168930601968284A207D0010E92
:1059F000116F00017EEC07F005016877050167A9CA
:105A000045D267990601186B176B480E166F850E05
:105A1000156FACC51CF6ABC51BF6AAC51AF6A9C511
:105A200019F60001A7EC0BF000C011F601C012F648
:105A300002C013F603C014F603C031F602C030F6FC
:105A400001C02FF600C02EF6B0C535F6AFC534F64E
:105A5000AEC533F6ADC532F6A3EC0DF003C088F544
:105A600002C087F501C086F500C085F562C511F654
:105A70001EEC0EF003C0D4F502C0D3F501C0D2F580
:105A800000C0D1F5D4C514F6D3C513F6D2C512F6AD
:105A9000D1C511F60F0E0601156F1D0E166F020E01
:105AA000176F000183EC18F04A0E0601116F1E0EED
:105AB000126F020E136F146B010E156F000118ECBC
:105AC00010F0050EEA6EF10EE96EF2CF11F6F29EBD
:105AD000000E84EC04F00A000900F550EE6E000997
