:04000000F7EF19F00D
:08000800046ED8CF05F0E0CF33
:1000100006F00001E9CF0CF0EACF07F0E1CF08F0DD
:10002000E2CF09F0D9CF0AF0DACF0BF0F3CF12F01C
:10003000F4CF13F0FACF14F000C00EF001C00FF0AF
:1000400002C010F003C011F09DA02AEF00F09EB096
:1000500050EF06F00EC000F00FC001F010C002F02B
:1000600011C003F00CC0E9FF07C0EAFF078E08C00B
:10007000E1FF09C0E2FF0AC0D9FF0BC0DAFF12C0DE
:10008000F3FF13C0F4FF14C0FAFF045006C0E0FFF2
:1000900005C0D8FF1000F2CF0DF0F29EF76AB00F46
:1000A000F66E000EF7220900F5500DBEF28E12001A
:1000B000000000000000005F0000000300030014C7
:1000C0003E143E14242A7F2A1243330866613649BF
:1000D0005522500005030000001C2241000041226F
:1000E0001C0014083E081408083E080800503000A0
:1000F00000080808080800606000002010080402DA
:100100003E5149453E0004027F004261514946226A
:10011000414949361814127F1027454545393E4953
:100120004949320101710907364949493626494989
:10013000493E0036360000005636000008142241C1
:100140000014141414140041221408020151090669
:100150003E4159555E7E0909097E7F494949363E2F
:10016000414141227F4141413E7F494949417F0907
:100170000909013E4141493A7F0808087F00417F53
:100180004100304040403F7F081422417F404040C2
:10019000407F020C027F7F0204087F3E4141413EC6
:1001A0007F090909061E2121215E7F0909097600C0
:1001B000F2CF0DF0F29EF76ACA0FF66E010EF7222B
:1001C0000900F5500DBEF28E120026494949320150
:1001D000017F01013F4040403F1F2040201F7F2002
:1001E00010207F41221C22410708700807615149F5
:1001F0004543007F41000002040810200000417FB9
:10020000000402010204404040404000010204009A
:1002100020545454787F4444443838444444443847
:100220004444447F385454541804047E050508544B
:1002300054543C7F0804047800447D40002040442E
:100240003D007F1028440000417F40007C0478047A
:10025000787C0804047838444444387C1414140826
:10026000081414147C007C080404485454542004DA
:10027000043F44443C4040207C1C2040201C3C4027
:1002800030403C44281028440C5050503C446454A6
:100290004C44000836414100007F000041413608CF
:1002A000000201020402F2CF0DF0F29EBE0FF66EC4
:1002B000020EF7220900F5500DBEF28E120000006A
:1002C0000000000000000000001FFFFFFFFE000014
:1002D0000000000000000000001FFFFFFFFE01C043
:1002E0000000000000000000001C0000000E07F0ED
:1002F0000000000000000000001C0000000E1C9C1C
:100300000000000000000000001C7F00000E180C20
:100310000000000000000000001C4100000E3086BC
:100320000000000000000000001C4100000E2082C0
:100330000000000000000000001C4102000E60836D
:100340000000000000000000001C7F05000E708708
:100350000000000000000000001C0002000E60C34E
:100360000000000000000000001C0000000E2062E1
:100370000000000000000000001C0000000E3026FD
:100380000000000000000000001FFFFFFFFE180C2F
:100390000000000000000000001C0000000E1C9C7B
:1003A0000000000000000000001C0000000E07F02C
:1003B0000000000000000000001C0000000E01C052
:1003C0000000000000000000001C0000000E000003
:1003D0000000000000000000001C0000000E0000F3
:1003E0000000000000000000001C0000000E0000E3
:1003F0000000000000000000001C0000000E0000D3
:100400000000000000000000001C0000000E0000C2
:100410000000000000000000001C001E000E000094
:100420000000000000000000001C00E1C00E000001
:100430000000000000000000001C0180600E0000B1
:100440000000000000000000001C0278100E0000F8
:100450000000000000000000001C067C180E0000D8
:100460000000000000000000001C047C080E0000DA
:100470000000000000000000001C083C040E00000A
:100480000000000000000000001C0810040E0180A5
:100490000000000000000000001C080CE40E0240F8
:1004A0000000000000000000001C082DF40E027087
:1004B0000000000000000000001C0863F40E024071
:1004C0000000000000000000001C08F1E40E03C062
:1004D0000000000000000000001C04F0080E03F003
:1004E0000000000000000000001C04F0080E03C023
:1004F0000000000000000000001C0270100E03C08D
:100500000000000000000000001C0300300E07E0A7
:100510000000000000000000001C00C0C00E0FF032
:100520000000000000000000001C007F800E0BF0A7
:100530000000000000000000001C0000000E0BF096
:100540000000000000000000001C0000000E0FF082
:100550000000000000000000001C0000000E0FF072
:100560000000000000000000001C0000000E07E07A
:100570000000000000000000001C0000000E03C08E
:100580000000000000000000001C0000000E000041
:100590000000000000000000001C0000000E000031
:1005A0000000000000000000001C0000000E000021
:1005B0000000000000000000001C0000000E000011
:1005C0000000000000000000001C0000000E000001
:1005D0000000000000000000001C0000000E0000F1
:1005E0000000000000000000001C0000000E0000E1
:1005F0000000000000000000001C0000000E0000D1
:100600000000000000000000001FFFFFFFFE0000D0
:100610000000000000000000001FFFFFFFFE0000C0
:100620000000000000000000001FFFFFFFFE0000B0
:1006300000000000000000000000000000000000BA
:1006400000000000000000000000000000000000AA
:10065000000000000000000000000000000000009A
:10066000000000000000000000000000000000008A
:10067000000000000000000000000000000000007A
:10068000000000000000000000000000000000006A
:10069000000000000000000000000000000000005A
:1006A000000000000000000000000000000000004A
:1006B0000000000000000000000000000000F2CF79
:1006C0000DF0F29EF76AD80FF66E060EF7220900BB
:1006D000F5500DBEF28E12004A5020496E676C6FC5
:1006E00062616C00F2CF0DF0F29EF76AFE0FF66EBB
:1006F000060EF7220900F5500DBEF28E12002020E2
:100700002020496E63756261646F72610000F2CFF0
:100710000DF0F29EF76A280FF66E070EF722090019
:10072000F5500DBEF28E1200202020205265667218
:100730006967657261646100F2CF0DF0F29EF76A3D
:10074000520FF66E070EF7220900F5500DBEF28E1D
:1007500012002020203232204C747300F2CF0DF0B2
:10076000F29EF76A760FF66E070EF7220900F55033
:100770000DBEF28E120043617267616E646F2E2EA1
:100780000000F2CF0DF0F29EF76A9C0FF66E070E96
:10079000F7220900F5500DBEF28E1200436C61760F
:1007A0006500F2CF0DF0F29EF76ABC0FF66E070EF1
:1007B000F7220900F5500DBEF28E1200436F7272DF
:1007C000656374610000F2CF0DF0F29EF76AE00FEE
:1007D000F66E070EF7220900F5500DBEF28E1200DC
:1007E000496E636F7272656374610000F2CF0DF041
:1007F000F29EF76A060FF66E080EF7220900F55012
:100800000DBEF28E12004D656E750000F2CF0DF038
:10081000F29EF76A260FF66E080EF7220900F550D1
:100820000DBEF28E1200496E6963696172205072CA
:100830006F6365736F00F2CF0DF0F29EF76A500F91
:10084000F66E080EF7220900F5500DBEF28E12006A
:1008500054656D706572617475726100F2CF0DF050
:10086000F29EF76A760FF66E080EF7220900F55031
:100870000DBEF28E120054656D706F72697A6164FC
:100880006F720000F2CF0DF0F29EF76A9E0FF66EC7
:10089000080EF7220900F5500DBEF28E12004361DA
:1008A0006D62696F20436C6176650000F2CF0DF0D8
:1008B000F29EF76AC60FF66E080EF7220900F55091
:1008C0000DBEF28E1200436F6E74696E7561720018
:1008D000F2CF0DF0F29EF76AEA0FF66E080EF722DD
:1008E0000900F5500DBEF28E120053490000F2CF00
:1008F0000DF0F29EF76A080FF66E090EF722090056
:10090000F5500DBEF28E12004E4F0000F2CF0DF0EA
:10091000F29EF76A260FF66E090EF7220900F550CF
:100920000DBEF28E12004300F2CF0DF0F29EF76A78
:10093000420FF66E090EF7220900F5500DBEF28E39
:10094000120054656D706F72697A6100F2CF0DF01C
:10095000F29EF76A660FF66E090EF7220900F5504F
:100960000DBEF28E12003A00F2CF0DF0F29EF76A41
:10097000820FF66E090EF7220900F5500DBEF28EB9
:100980001200436C617665204E7565766100F2CF8A
:100990000DF0F29EF76AA80FF66E090EF722090015
:1009A000F5500DBEF28E12005374617475733A43A4
:1009B0006F6E74726F6C616E646F0000F2CF0DF039
:1009C000F29EF76AD60FF66E090EF7220900F5506F
:1009D0000DBEF28E12005374617475733A456E66E3
:1009E0007269616E646F0000F2CF0DF0F29EF76ADB
:1009F000020FF66E0A0EF7220900F5500DBEF28EB8
:100A000012005374617475733A43616C656E74615E
:100A10006E646F00F2CF0DF0F29EF76A2E0FF66E45
:100A20000A0EF7220900F5500DBEF28E1200537423
:100A3000617475733A5061757361646F0000F2CF31
:100A40000DF0F29EF76A580FF66E0A0EF7220900B3
:100A5000F5500DBEF28E12005374617475733A41F5
:100A60006C61726D612030310000F2CF0DF0F29EAA
:100A7000F76A840FF66E0A0EF7220900F5500DBED4
:100A8000F28E120054656D703A00F2CF0DF0F29EB6
:100A9000F76AA40FF66E0A0EF7220900F5500DBE94
:100AA000F28E12002500F2CF0DF0F29EF76AC00F11
:100AB000F66E0A0EF7220900F5500DBEF28E1200F6
:100AC00054696D653A00F2CF0DF0F29EF76AE00FBF
:100AD000F66E0A0EF7220900F5500DBEF28E1200D6
:100AE00028483A4D2900F2CF0DF0F29EF76A000F28
:100AF000F66E0B0EF7220900F5500DBEF28E1200B5
:100B00005374617475733A46696E616C697A616495
:100B10006F00F2CF0DF0F29EF76A2C0FF66E0B0EFF
:100B2000F7220900F5500DBEF28E12005374617465
:100B300075733A416C61726D612030320000F2CF02
:100B40000DF0F29EF76A580FF66E0B0EF7220900B1
:100B5000F5500DBEF28E12005265677265736172B8
:100B60000000F2CF0DF0F29EF76A7C0FF66E0B0ECE
:100B7000F7220900F5500DBEF28E120047616E613A
:100B80006E6369610000F2CF0DF0F29EF76AA00F6C
:100B9000F66E0B0EF7220900F5500DBEF28E120014
:100BA000546369636C6F0000F2CF0DF0F29EF76A38
:100BB000C20FF66E0B0EF7220900F5500DBEF28E35
:100BC0001200416A75737465202B0000F2CF0DF09E
:100BD000F29EF76AE60FF66E0B0EF7220900F5504B
:100BE0000DBEF28E1200416A75737465202D0000EF
:100BF000F2CF0DF0F29EF76A0A0FF66E0C0EF72296
:100C00000900F5500DBEF28E12004D656469612039
:100C10004D6F76696C00F2CF0DF0F29EF76A300FDF
:100C2000F66E0C0EF7220900F5500DBEF28E120082
:100C3000436F6566696369656E746500F2CF0DF098
:100C4000F29EF76A560FF66E0C0EF7220900F55069
:100C50000DBEF28E1200416A757374650000F2CF0A
:100C60000DF0F29EF76A780FF66E0C0EF72209006F
:100C7000F5500DBEF28E1200416A757374656E00F8
:100C8000F2CF0DF0F29EF76A9A0FF66E0C0EF72275
:100C90000900F5500DBEF28E12004D6564696100C9
:100CA000150ECF6EA00ECE6E05019D2BD8B49E2BD7
:100CB0009F2BD8B4A02BA12BD8B4A22B9E5303E119
:100CC0009D51C70816E29E6B9D6B8F89922B992BC5
:100CD0008B2B8F8B90A903D0A72BD8B4A82B9B2D3F
:100CE00003D0A32BD8B4A42B90A503D0A52BD8B4A4
:100CF000A62B9E9000012AEF00F0060EEA6E3D0E34
:100D0000E96EEF500EE00F0E016E006A002EFED766
:100D1000012EFBD78F0E006E002EFED70000EF2EA7
:100D2000F2D7000C8E0E006E3EC601F03DC602F0FA
:100D3000036A015209E102C001F0026A080E005E76
:100D4000015202E1006A08D0D89001BE04D00236F8
:100D500001360006F9D7019E000C38C63FF60601A1
:100D60003C513F1B3FAF05D0D894D89038BFD880B6
:100D70002FD038C63FF63BC640F63751405F06E0FD
:100D80003FAF26D0D850010AD86E22D03CC640F6DC
:100D90003851405F06E03FAF1BD0D850010AD86EF3
:100DA00017D03DC640F63951405F06E03FAF10D046
:100DB000D850010AD86E0CD03EC640F63A51405F7A
:100DC00006E03FAF05D0D850010AD86E01D0D890C8
:100DD0000001000C06014F5303E093928A8202D077
:100DE00093908A8093988A98956A50C68CFF100ECB
:100DF000006E002EFED7000093968A86530E006E7A
:100E0000002EFED793968A9693908A9093928A9218
:100E10000001000C06013B6B160E3A6F020E3D6F8F
:100E2000160E3C6F3851FF0DF3CF39F63F6B3E6B1A
:100E30003F5101081AE33BC603F03A513A2BD8B4AC
:100E40003B2BE96E03C0EAFF39C6EFFF3DC603F056
:100E50003C513C2BD8B43D2BE96E03C0EAFF39C6A8
:100E6000EFFF3E2BD8B43F2BE3D70001000C060167
:100E70004B6B160E4A6F020E4D6F160E4C6F486B81
:100E8000485107084EE3939A8A9A4F6B400E506F71
:100E90000001A0DF010E06014F6F400E506F0001F0
:100EA00099DF06014851B8094E6F4F6B506F000132
:100EB00091DF06014851B8094E6F010E4F6F4EC6C3
:100EC00050F6000187DF939A8A8A0601496B4951DF
:100ED0003F0825E34BC603F04A514A2BD8B44B2BAD
:100EE000E96E03C0EAFFEFCF4EF64F6B4EC650F6E9
:100EF000000170DF06014DC603F04C514C2BD8B4F5
:100F00004D2BE96E03C0EAFFEFCF4EF6010E4F6F97
:100F10004EC650F600015EDF0601492BD8D7482B9C
:100F2000AFD70001000C93948A8493968A9693908D
:100F30008A9093928A92939A8A9A06014F6BC00E76
:100F4000506F000147DF010E06014F6FC00E506F5A
:100F5000000140DF06014F6B400E506F00013ADF89
:100F6000010E06014F6F400E506F000133DF060186
:100F70004F6BB80E506F00012DDF010E06014F6F51
:100F8000B80E506F000126DF0601372D0ED04F6BD3
:100F90003F0E506F00011EDF010E06014F6F3F0E26
:100FA000506F000117DF0DD006014F6B3E0E506FE2
:100FB000000110DF010E06014F6F3E0E506F000161
:100FC00009DF0601386B000125DF51DF000C060147
:100FD0006B6B66316A6F6A336A331F0E6A176A3742
:100FE0006B376A376B376A376B376A376B376A37F5
:100FF0006B376A376B37C00E6A1765516A27000E68
:101000006B2365513F080DE2160E6A256C6F020EC8
:101010006B216D6F400E6C5D686F000E6D59696FCE
:1010200006D0160E6A25686F000E6B21696F675334
:1010300015E069C603F068C6E9FF69C6EAFF6651B4
:10104000070B6C6F010E006E6C51016E04E0D890BE
:101050000036012EFCD70050EF1215D069C603F000
:1010600068C6E9FF69C6EAFF6651070B6C6F010E9F
:10107000006E6C51016E04E0D8900036012EFCD752
:101080000050FF0AEF160001000C4DC603F00601E8
:101090004CC6E9FF4DC6EAFFEF52D8B4D0D04DC6DA
:1010A00003F04CC6E9FF4DC6EAFFEF50520827E3B4
:1010B0004DC603F04CC6E9FF4DC6EAFF200EEF5CBB
:1010C000050DF350036A596F060EEA6E540EE96E71
:1010D0005D6B59C65CF6F2CF5AF6F29E050E016EB4
:1010E000F76A595100014BEC00F00A000900F5CFF6
:1010F000EEFF012EFBD706015ABFF28E35D04DC64A
:1011000003F04CC6E9FF4DC6EAFFEF507E0827E327
:101110004DC603F04CC6E9FF4DC6EAFF530EEF5C27
:10112000050DF350036A596F060EEA6E540EE96E10
:101130005D6B59C65CF6F2CF5AF6F29E050E016E53
:10114000F76A59510001D8EC00F00A000900F5CF08
:10115000EEFF012EFBD706015ABFF28E05D0546B6D
:10116000556B566B576B586B4DC603F04C51E96E7F
:1011700003C0EAFFEF500A0A000103E0070A09E092
:101180000BD006014E51070DF350010F4B2750D0E5
:10119000000106014A6B4CD006014E51050DF3507B
:1011A0004A257F0806E24A6B4E51070DF350010FA6
:1011B0004B27506B505104083BE3516B51510608CB
:1011C00033E3036A5051540FE96E060E0320EA6EB2
:1011D000EFCF59F659C600F05151016E04E0D89096
:1011E0000032012EFCD700A01DD0526B4E51525D33
:1011F00019E2536B4E51535D13E253514A25596F17
:1012000051514E03F3504B2552255A6F59C665F67E
:10121000666F4FC667F60001DADE0601532BEAD788
:10122000522BE4D7512BCAD7502B4E514A27C2D745
:101230004C2BD8B44D2B4A2B000127D706010001B7
:10124000000C010E06015E6F5F6F646B5551575DB8
:10125000656F655165AF03D0000ED8806555036A90
:101260005C6F03C05DF65651585D656F655165AFA3
:1012700003D0000ED8806555036A5A6F03C05BF631
:101280005551575D02E2FF0E5E6F5651585D02E206
:10129000FF0E5F6F5B515D5D3BE303E15A515C5DA7
:1012A00037E3D8905A375B375C515A5D006E5D5119
:1012B0005B5900C060F6616F5C51605D626F5D51AB
:1012C0006159636F5D5303E164515C5D20E355C672
:1012D00065F656C666F659C667F6000178DE060161
:1012E00061BF01D008D05A5160275B5161235E5124
:1012F0005525556F0AD062516027635161235E51B5
:101300005525556F5F515625566F642BDBD736D068
:10131000D8905C375D375A515C5D006E5B515D590A
:1013200000C060F6616F5A51605D626F5B51615938
:10133000636F5B5303E164515A5D20E355C665F664
:1013400056C666F659C667F6000141DE060161BF62
:1013500001D008D05C5160275D5161235F51562553
:10136000566F0AD062516027635161235E51552543
:10137000556F5F515625566F642BDBD70001000C6B
:1013800006014E532EE04C514A5D05E24AC651F625
:101390004CC652F604D04CC651F64AC652F64D51D0
:1013A0004B5D05E24BC653F64DC654F604D04DC610
:1013B00053F64BC654F65151525D12E353C650F6E4
:1013C0005051545D0BE351C665F650C666F64FC6E4
:1013D00067F60001FCDD0601502BF2D7512BEBD74D
:1013E0002ED04AC655F64BC656F64CC657F64BC6D7
:1013F00058F64FC659F6000124DF4AC655F64DC6C9
:1014000056F64CC657F64DC658F64FC659F619DF74
:101410004AC655F64BC656F64AC657F64DC658F656
:101420004FC659F60EDF4CC655F64BC656F64CC69F
:1014300057F64DC658F64FC659F603DF06010001B0
:10144000000C060137C601F038C603F037C63DF67A
:1014500038C63EF6060EEA6E170EE96E38C6E2FF93
:1014600037C6E1FFE752E6CFEEFFFCE13B51020851
:1014700014E1010E39253D6F010E3A253E6F3DC640
:101480004AF64B6F060E4D6F170E4C6F3CC64EF66C
:10149000010E4F6F0001F9DD06013B2D25D03C51B7
:1014A000080DF3503A253D6F4A6B3AC64BF67F0E56
:1014B0004C6F3DC64DF6010E4E6F4F6F000160DF61
:1014C000010E060139253D6F010E3A253E6F3DC6DE
:1014D0004AF64B6F060E4D6F170E4C6F3CC64EF61C
:1014E0004F6B0001D2DD06013B5325E13C51080D55
:1014F000F3503A253D6F4A6B3AC64BF67F0E4C6F60
:101500003DC64DF6010E4E6F4F6B000139DF010EE7
:10151000060139253D6F010E3A253E6F3DC64AF65C
:101520004B6F060E4D6F170E4C6F3CC64EF6010EFC
:101530004F6F0001AADD00019ADC000C06014D513D
:10154000016A4C5D03E24CC600F00CD0006A080E44
:101550004E6F4C3700364D51005CD8B0006E0136EE
:101560004E2FF7D70001000C36C6EAFF35C6E9FF5B
:10157000060154C6EFFFE92AD8B4EA2AEF6A352BF0
:10158000D8B4362B0001000C200E060147A9300EFE
:10159000486F46C600F046AF07D0001E002A00C0C4
:1015A00046F62D0E486F478F015046C64CF6640E26
:1015B0004D6F0001C3DF00C046F6300E0124060166
:1015C000496F46C64CF60A0E4D6F0001B7DF300E6C
:1015D000002406014B6F300E01244A6F48C600F00C
:1015E00047A702D047AF479547B90BD047AF22D0A6
:1015F00047B520D000C049F647B31CD000C04AF61A
:1016000019D0300E495D16E100C049F6200E486F32
:1016100047A704D04795478347AF4793300E4A5DAD
:1016200009E100C04AF6200E496F47A7F7D7479354
:1016300047AF479147A505D048C654F6000194DF4F
:10164000060147A305D049C654F600018DDF060107
:1016500047A104D04AC654F6000186DF4BC654F6B3
:10166000000182DF3FEF0BF0060E0601366F3D0EE4
:10167000356F39C646F61F0E476F000185D7060144
:101680003C2D27D0120E3A25466F180E3B25476F8A
:101690003AC64AF63BC64BF646C64CF64D6F010EAF
:1016A0004E6F4F6F00016CDE020E06013A25466F49
:1016B000010E3B25476F46C64AF64B6F060E4D6F2F
:1016C0003D0E4C6F020E4E6F4F6B0001DEDC26D0DC
:1016D0000601120E3A25466F180E3B25476F3AC693
:1016E0004AF63BC64BF646C64CF64D6F4E6B4F6BFB
:1016F000000146DE020E06013A25466F010E3B252B
:10170000476F46C64AF64B6F060E4D6F3D0E4C6F47
:10171000020E4E6F010E4F6F0001B7DC000C060188
:101720003835006E0036FC0E001600C001F0C250C5
:10173000C30B0010C26E010E3D6F00017DEC06F080
:10174000C282C2B2FED7C4CF3EF6C3CF3DF600017F
:1017500092EC06F003C03CF602C03BF601C03AF63C
:1017600000C039F639C600F03AC601F03BC602F0B7
:101770003CC603F03CEF0EF006013851D8B4A5D0BA
:10178000446F3C51D8B4A1D0445F05E37F0E442799
:10179000D8B09BD006D0810E445FD8A096D0D8B4E4
:1017A00094D044C600F0016A026A036A436B39C6EA
:1017B00042F6428F3AC641F63BC640F6190E446FD8
:1017C0003F51405F0DE2010E415F0AE2425F08E2D5
:1017D000435F06E2432B422B412B3F51402728D049
:1017E0003E51415F12E2010E425F0FE2435F0DE2A4
:1017F000432B422B3E5141273F51402719E3412BB8
:1018000017E1422B15E1432B13D03D518009425F74
:101810000EE2010E435F0BE2432B3D51800942274C
:101820003E514127E9E3422BE7E1432BE5D7038013
:10183000442F01D00BD0D89040374137423743373F
:10184000D8900336023601364537BAD745A106D0BF
:10185000D890013202320332453302D0000635E01F
:1018600045BF1ED0D89040374137423743373F51AC
:10187000405F07E2010E415F04E2425F02E2435F24
:101880001AE33E51415F05E2010E425F02E2435F0F
:1018900012E33D518009425F03E2010E435F0BE317
:1018A000032A09E1022A07E1012A05E1002A0DE0E5
:1018B00001320232033239C644F63D51441B44AF73
:1018C00002D0018E06D0019E04D0006A016A026A2D
:1018D000036A0001000C800ED8A202D00601411B51
:1018E0000601466B476B3DC645F64151451B3C51D1
:1018F000D8B4DFD0446F006E4051D8B4E3D0445F19
:10190000D8B483D03EE341C64AF64A8F42C649F670
:1019100043C648F6476BD8904A3349334833473378
:10192000442FF8D745AF03D04681E0D0469144918B
:101930004689060EEA6E3F0EE96EEBD0469945BF2A
:101940000AD044A113D04A33493348334733002ADD
:10195000D8B4C7D00BD04ABF0CD0D890473748373F
:1019600049374A370006D8B4BCD0F5D7468D6DD07C
:10197000469D3DC645F63DAF02D04A8FABD04A9F4B
:10198000A9D040C644F640C600F03C51445F3DC675
:101990004AF64A8F3EC649F63FC648F6476BD8908E
:1019A0004A33493348334733442FF8D745AF03D040
:1019B00046839CD046934491468B060EEA6E430EB6
:1019C000E96EA7D0469B45BF0AD044A113D04A3345
:1019D000493348334733002AD8B483D00BD04ABFA9
:1019E0000CD0D8904737483749374A370006D8B423
:1019F00078D0F5D7468F29D0469F41C645F641AFEE
:101A000002D04A8F67D04A9F65D041C64AF64A8FB6
:101A100042C649F643C648F645AF04D04A9F4685BC
:101A200065D04695476B4491060EEA6E3F0EE96E0F
:101A300070D045BF1CD03DC645F644A106D04A3300
:101A4000493348334733002A4CE047AF0BD0482B8B
:101A500009E1492B07E14A2B05E14A334933483371
:101A6000002A3FE046BD84D746BFC6D71CD0800EB3
:101A70004A1B4AAF04D03AD041C645F60AD03DC60B
:101A800045F64A5306E1495304E1485302E1006A2E
:101A900021D04ABF08D0D8904737483749374A370E
:101AA000002EF7D71ED045AF02D04A8F13D04A9FE1
:101AB00011D040C600F041C64AF642C649F643C6B8
:101AC00048F608D03CC600F03DC64AF63EC649F688
:101AD0003FC648F64AC601F049C602F048C603F0C0
:101AE00034D0006A016A026A036A2FD0476B481F2C
:101AF000491F4A1F471F472B05E1482B03E1492B8C
:101B000001E14A2B46B112D746B354D746B589D71F
:101B1000B3D7EF50482705E3492B03E14A2BD8B44C
:101B20004481ED52EF50492703E34A2BD8B4448156
:101B3000ED52EF50EFBE01D0800A4A27D8B0448161
:101B400046B9FCD646BB3ED774D70001000C06014F
:101B50003B513D03F3CF01F0F4CF00F03E03F350CF
:101B600000263C513D03F3500020026E0001000CA2
:101B700006015451D8B471D0006E5851D8B46DD00C
:101B8000002604E3810E002668E204D07F0E005E8A
:101B900064E363E055C65CF659515C1B558F598F61
:101BA00057515B03F4CF5EF656515A03F4CF03F05E
:101BB000F3CF5DF65B03F3505E27F4505D23000E18
:101BC000032257515A03F3505E27F4505D23000E51
:101BD000026A0322022255515B03F3505D27F45041
:101BE0000322000E022255515A03F3500326F450EB
:101BF0000222000E016A012257515903F3505D275A
:101C0000F4500322000E0222012256515903F350D0
:101C10000326F4500222000E012255515903F350BD
:101C20000226F4500122002A01BE05D05D3703369A
:101C3000023601360006000E5DAF0AD0032A0222EA
:101C40000122015005E1025003E1035001E1002AA5
:101C50005CBF018E5CAF019E04D0006A016A026A1B
:101C6000036A0001000C0501E26BE16BE06BDF6BC6
:101C70000601386B000153D503C0CAF502C0C9F58F
:101C800001C0C8F500C0C7F5CAC53BF6C9C53AF6DC
:101C9000C8C539F6C7C538F6E10E06013F6F7A0EA2
:101CA0003E6F260E3D6F840E3C6F000165DD03C064
:101CB000CAF502C0C9F501C0C8F500C0C7F50601E4
:101CC0003B6BC00E3A6F7F0E396F880E386FCAC5F6
:101CD0003FF6C9C53EF6C8C53DF6C7C53CF600018E
:101CE0004BDD00C038F601C039F602C03AF603C039
:101CF0003BF6D88203C03FF602C03EF601C03DF677
:101D000000C03CF60601436B426B416B7F0E406F97
:101D10000001E1DDCEC53BF6CDC53AF6CCC539F6BE
:101D2000CBC538F603C03FF602C03EF601C03DF613
:101D300000C03CF621DD03C0D2F502C0D1F501C0E0
:101D4000D0F500C0CFF5D882D2C53FF6D1C53EF65A
:101D5000D0C53DF6CFC53CF6CD0E0601436FCC0E87
:101D6000426F4C0E416F7D0E406F0001B4DD03C029
:101D7000D2F502C0D1F501C0D0F500C0CFF5010EFB
:101D80000601375D0501875D02E001E3876B06010F
:101D90003C6B87C53BF63E6B040E3D6F0001D7DE02
:101DA0000150160FE96E040E0220EA6ECFC5EFFF58
:101DB000D0C5ECFFD1C5ECFFD2C5ECFF0501872BE8
:101DC000866B060137510501865D3EE206013C6BDC
:101DD00086C53BF63E6B040E3D6F0001B8DE02C0C7
:101DE00003F00150160FE96E040E0220EA6EEFCFE9
:101DF00000F0ECCF01F0ECCF02F0ECCF03F0EACF33
:101E000039F6E9CF38F6D892E2C53FF6E1C53EF69D
:101E1000E0C53DF6DFC53CF603C043F602C042F61E
:101E200001C041F600C040F656DD39C6EAFF38C6AB
:101E3000E9FF03C0E2F502C0E1F501C0E0F500C032
:101E4000DFF50501862BBDD706013E6B37C63DF693
:101E5000000192EC06F0E2C53BF6E1C53AF6E0C5BA
:101E600039F6DFC538F603C03FF602C03EF601C0C2
:101E70003DF600C03CF680DC03C0E2F502C0E1F5AF
:101E800001C0E0F500C0DFF5E2C557F6E1C556F642
:101E9000E0C555F6DFC554F6E2C55BF6E1C55AF676
:101EA000E0C559F6DFC558F663DE00C038F601C05C
:101EB00039F602C03AF603C03BF603C057F602C03B
:101EC00056F601C055F600C054F60EC65BF60DC6B8
:101ED0005AF60CC659F60BC658F64ADE00C038F65C
:101EE00001C039F602C03AF603C03BF6E2C557F628
:101EF000E1C556F6E0C555F6DFC554F612C65BF6E9
:101F000011C65AF610C659F60FC658F631DED892E9
:101F10003BC63FF63AC63EF639C63DF638C63CF6F5
:101F200003C043F602C042F601C041F600C040F6CD
:101F3000D2DC00C038F601C039F602C03AF603C060
:101F40003BF6D89203C03FF602C03EF601C03DF614
:101F500000C03CF616C643F615C642F614C641F656
:101F600013C640F6B8DC03C0E6F502C0E5F501C0D3
:101F7000E4F500C0E3F506013E6B88C53DF60001BF
:101F800092EC06F000C038F601C039F602C03AF60D
:101F900003C03BF606013E6B89C53DF6000192EC9D
:101FA00006F0D8823BC63FF63AC63EF639C63DF645
:101FB00038C63CF603C043F602C042F601C041F603
:101FC00000C040F688DCD892E6C53FF6E5C53EF68F
:101FD000E4C53DF6E3C53CF603C043F602C042F655
:101FE00001C041F600C040F676DC03C0E6F502C051
:101FF000E5F501C0E4F500C0E3F5E3C500F0E4C594
:1020000001F0E5C502F0E6C503F0000C006A016AC4
:1020100006014051D89041B100260032013241B34F
:1020200000260032013241B500260032013241B7AC
:1020300000260032013241B900260032013241BB94
:1020400000260032013241BD00260032013241BF7C
:102050000026003201320001000C06013C6B39C63B
:102060003DF6010ED88039553E6F3A5365E03C513C
:10207000375D3F6F3D513825406F3C513725416FEB
:102080003D513825426F3FC655F640C656F641C60B
:1020900057F6586F3BC659F6000121EC09F00601CE
:1020A0003C51375D3F6F3D51385D406F3C513725A6
:1020B000416F3D51385D426F3FC655F640C656F6FA
:1020C00041C657F6586F3BC659F6000121EC09F09E
:1020D00006013D51375D3F6F3C513825406F3D5102
:1020E0003725416F3C513825426F3FC655F640C6F3
:1020F00056F641C657F6586F3BC659F6000121EC1B
:1021000009F006013D51375D3F6F3C51385D406F2E
:102110003D513725416F3C51385D426F3FC655F602
:1021200040C656F641C657F6586F3BC659F60001F1
:1021300021EC09F078D0060137513C253F6F38512A
:102140003D25406F3FC665F6666F3BC667F60001EA
:10215000E7EC07F0060137513D253F6F38513C252C
:10216000406F3FC665F6666F3BC667F60001E7EC59
:1021700007F006013C51375D3F6F38513D25406FF8
:102180003FC665F6666F3BC667F60001E7EC07F0F1
:1021900006013D51375D3F6F38513C25406F3FC6CA
:1021A00065F6666F3BC667F60001E7EC07F00601CF
:1021B00037513D253F6F3C51385D406F3FC665F656
:1021C000666F3BC667F60001E7EC07F00601375182
:1021D0003C253F6F3D51385D406F3FC665F6666FE9
:1021E0003BC667F60001E7EC07F006013C51375D9E
:1021F0003F6F3D51385D406F3FC665F6666F3BC629
:1022000067F60001E7EC07F006013D51375D3F6FCF
:102210003C51385D406F3FC665F6666F3BC667F65A
:102220000001E7EC07F006013EBF01D00ED03C51A3
:102230003C2B3F6F020E406F3FC641F60001E6DEC9
:102240000150030F06013E2711D03C513C2B3F6F3C
:102250003D513D073F5D3F6F020E406F3FC641F667
:102260000001D4DE0150050F06013E273C51800AD3
:10227000006E3D51800A005CD8B4F7D6D8A0F5D6E0
:102280000001000CEACF50F6E9CF4FF606014939BC
:10229000F0094B6F4B27E20F4C6F320F4E6F4951D5
:1022A0000F0B4C274C274E27E90F4D6F4D274D271D
:1022B00048390F0B4D274E274D374E374E1F4E379F
:1022C00048510F0B4E274B37070E4A6F0A0E4D072A
:1022D0004E27FDE34C074D27FDE34B074C27FDE35D
:1022E0004A074B27FDE3060EEA6E4A0EE96E070E1B
:1022F0004F154F9DE9264E0EE95CD8B44F8DEF5037
:10230000006E08E14FBD06D04FB916D04FB702D0CE
:10231000200E03D04F874F99300E0026EACF49F6A2
:10232000E9CF48F600C054F60001B4EC0AF049C603
:10233000EAFF48C6E9FF0601EE504FADDCD70001C9
:10234000000C06013D5102083AE1060E366F3F0EC1
:10235000356F0A0EE96E3AC649F639C648F60001ED
:1023600091DF06013E51120DF3503B25486F3E515F
:10237000080DF3503C25496F3BC64AF63CC64BF668
:1023800048C64CF64D6F010E4E6F4F6F0001C0EC0A
:1023900009F0010E06013B25486F010E3C25496FEF
:1023A00048C64AF64B6F060E4D6F3F0E4C6F3EC649
:1023B0004EF64F6B000145EC08F09AD00601060E70
:1023C000366F3F0E356F0A0EE96E3AC649F639C6CA
:1023D00048F6000157DF06013D5104082DE13E514A
:1023E000100DF3503B25486F3E51080DF3503C252E
:1023F000496F3BC64AF63CC64BF648C64CF64D6F95
:10240000010E4E6F4F6B0001C0EC09F0010E06018A
:102410003B25486F010E3C25496F48C64AF64B6F75
:10242000060E4D6F3F0E4C6F3EC64EF6010E4F6FBF
:10243000000145EC08F006013D2D2CD03E51050D64
:10244000F3503B25486F3E51080DF3503C25496F32
:102450003BC64AF63CC64BF648C64CF64D6F010EDD
:102460004E6F4F6F0001C0EC09F0010E06013B25D5
:10247000486F010E3C25496F48C64AF64B6F060E61
:102480004D6F3F0E4C6F3EC64EF64F6B000145EC54
:1024900008F006013D532DE13E51050DF3503B255B
:1024A000486F3E51080DF3503C25496F3BC64AF634
:1024B0003CC64BF648C64CF64D6F010E4E6F4F6B47
:1024C0000001C0EC09F0010E06013B25486F010E2A
:1024D0003C25496F48C64AF64B6F060E4D6F3F0EBE
:1024E0004C6F3EC64EF6010E4F6F000145EC08F0F2
:1024F0000601000137EC07F0000C015046C64CF60F
:10250000640E06014D6F00019EEC0AF000C046F615
:102510000150300E08E1060147A310D047B70ED096
:1025200047B9200E04D006014797479947810126F5
:1025300001C054F60001B4EC0AF0060146C64CF6A0
:102540000A0E4D6F00019EEC0AF000C046F60150E5
:10255000300E08E1060147B70BD047A109D047B9B3
:10256000200E0001012601C054F6B4EC0AF0060169
:10257000300E462746C654F60001B4EC0AF0000CB3
:1025800006013B51020838E1060E366F3D0E356FED
:1025900038C646F6030E476F0001AFDF06013C5117
:1025A000120DF3503925466F3C51080DF3503A2572
:1025B000476F39C64AF63AC64BF646C64CF64D6FDB
:1025C000010E4E6F4F6F0001C0EC09F0010E0601C5
:1025D0003925466F010E3A25476F46C64AF64B6FBE
:1025E000060E4D6F3D0E4C6F3CC64EF64F6B000114
:1025F00045EC08F0A3D006013B51030838E1060E74
:10260000366F3D0E356F38C646F6030E476F000134
:1026100074DF06013C51120DF3503925466F3C51D1
:10262000080DF3503A25476F39C64AF63AC64BF6BD
:1026300046C64CF64D6F010E4E6F4F6B0001C0EC5D
:1026400009F0010E06013925466F010E3A25476F44
:1026500046C64AF64B6F060E4D6F3D0E4C6F3CC69C
:102660004EF6010E4F6F000145EC08F00601060E14
:10267000366F3D0E356F38C646F61B0E476F0001AC
:102680003CDF06013B2D2CD03C51050DF350392584
:10269000466F3C51080DF3503A25476F39C64AF64C
:1026A0003AC64BF646C64CF64D6F010E4E6F4F6F55
:1026B0000001C0EC09F0010E06013925466F010E3C
:1026C0003A25476F46C64AF64B6F060E4D6F3D0ED4
:1026D0004C6F3CC64EF64F6B000145EC08F006010E
:1026E0003B532DE13C51050DF3503925466F3C51CC
:1026F000080DF3503A25476F39C64AF63AC64BF6ED
:1027000046C64CF64D6F010E4E6F4F6B0001C0EC8C
:1027100009F0010E06013925466F010E3A25476F73
:1027200046C64AF64B6F060E4D6F3D0E4C6F3CC6CB
:102730004EF6010E4F6F000145EC08F00601000156
:1027400037EC07F0000C06013751050852E1386BF1
:1027500038513F084EE3396B39510F0848E3070EF3
:102760003A6F3A51800A7F0840E23C6B38C63BF62C
:102770003E6B100E3D6F0001A7EC0DF002C03CF661
:1027800001C03BF6060139510124016E000E022002
:10279000036E0150F2CF3BF6F29E03C0F7FF00013B
:1027A00053EC01F006013BBFF28E3B6F070ED88061
:1027B0003A553C6F3BC600F03C51016E04E0D890A6
:1027C0000032012EFCD700A00ED03951080DF35075
:1027D0003A253B6F656F38C666F6010E676F0001DC
:1027E000E7EC07F006013A07BCD7392BB5D7382BF1
:1027F000AFD70001D0EF2BF005019151040DF3503C
:10280000036A7E0FE96E050E0320EA6EFFC5EFFF37
:1028100000C6ECFF01C6ECFF02C6ECFF912B915104
:1028200001081EE2916BD88285C53FF684C53EF64D
:1028300083C53DF682C53CF681C543F680C542F6A8
:102840007FC541F67EC540F600016BEC0CF003C07D
:10285000FEF502C0FDF501C0FCF500C0FBF5050169
:10286000000157EF14F08E0E006E06013751005E26
:1028700038C602F039C601F0028E005209E0D89045
:10288000025202E1015204E002320132002EF7D777
:1028900038AF05D0011E021E012AD8B4022A000159
:1028A000000C05018B51270804E20001A5D70501A2
:1028B0008B6B932DEBD1AAC53EF6A9C53DF6000161
:1028C00092EC06F0D88203C03FF602C03EF601C08B
:1028D0003DF600C03CF6F6C543F6F5C542F6F4C534
:1028E00041F6F3C540F66BEC0CF000C037F601C0C2
:1028F00038F602C039F603C03AF6D88203C03FF674
:1029000002C03EF601C03DF600C03CF602C643F6EA
:1029100001C642F600C641F6FFC540F66BEC0CF06E
:1029200003C0DEF502C0DDF501C0DCF500C0DBF55B
:1029300006013A6B396B800E386F7F0E376FDEC53C
:102940003EF6DDC53DF6DCC53CF6DBC53BF60001D9
:10295000ADEC06F046E3CD0E06013A6FCC0E396FB2
:10296000386F7C0E376FFEC53EF6FDC53DF6FCC5E3
:102970003CF6FBC53BF60001ADEC06F032E3AEC51C
:102980003AF6ADC539F6ACC538F6ABC537F6060133
:102990003E6B3D6B340E3C6F850E3B6F0001ADEC22
:1029A00006F01FE3050199514F081CE2996BD8927C
:1029B000EEC53FF6EDC53EF6ECC53DF6EBC53CF683
:1029C0000601436B426B416B7E0E406F00016BEC66
:1029D0000CF003C0EEF502C0EDF501C0ECF500C04F
:1029E000EBF5050106013A6B396B386B376BDEC5C9
:1029F0003EF6DDC53DF6DCC53CF6DBC53BF6000129
:102A0000ADEC06F005E30501DE6BDD6BDC6BDB6B2B
:102A1000DEC557F6DDC556F6DCC555F6DBC554F602
:102A200006015B6B5A6B800E596F7F0E586F000169
:102A3000B8EC0DF003C0DEF502C0DDF501C0DCF539
:102A400000C0DBF5EEC53AF6EDC539F6ECC538F653
:102A5000EBC537F606013E6B3D6B3C6B7E0E3B6F64
:102A60000001ADEC06F007E30501EE6BED6BEC6BDE
:102A70007E0EEB6F0001B6C53AF6B5C539F6B4C5A2
:102A800038F6B3C537F6EEC53EF6EDC53DF6ECC5F6
:102A90003CF6EBC53BF6ADEC06F008E3B6C5EEF54B
:102AA000B5C5EDF5B4C5ECF5B3C5EBF5DEC557F628
:102AB000DDC556F6DCC555F6DBC554F6EEC55BF64E
:102AC000EDC55AF6ECC559F6EBC558F6B8EC0DF065
:102AD00003C0EAF502C0E9F501C0E8F500C0E7F57A
:102AE000AAC53EF6A9C53DF692EC06F003C03AF63B
:102AF00002C039F601C038F600C037F6EAC53EF626
:102B0000E9C53DF6E8C53CF6E7C53BF6ADEC06F099
:102B10000EE3AAC53EF6A9C53DF692EC06F003C049
:102B2000EAF502C0E9F501C0E8F500C0E7F5EAC53D
:102B30003AF6E9C539F6E8C538F6E7C537F60601CD
:102B40003E6B3D6B3C6B3B6B0001ADEC06F006E36E
:102B50000501EA6BE96BE86BE76B0001AAC53EF67D
:102B6000A9C53DF692EC06F0EAC53BF6E9C53AF692
:102B7000E8C539F6E7C538F603C03FF602C03EF6B1
:102B800001C03DF600C03CF6BCEC0BF000C037F6CF
:102B900001C038F602C039F603C03AF603C057F652
:102BA00002C056F601C055F600C054F6D6C55BF615
:102BB000D5C55AF6D4C559F6D3C558F6B8EC0DF0BC
:102BC00003C0DAF502C0D9F501C0D8F500C0D7F5C9
:102BD000D6C53BF6D5C53AF6D4C539F6D3C538F6D1
:102BE0000A0E06013F6FD70E3E6F230E3D6F770E24
:102BF0003C6F0001BCEC0BF003C03AF602C039F6A2
:102C000001C038F600C037F62EDE0250036E050113
:102C1000A25D06E303E10150A15D02E3A26BA16B9B
:102C2000DAC53BF6D9C53AF6D8C539F6D7C538F670
:102C30000A0E06013F6FD70E3E6F230E3D6F770ED3
:102C40003C6F0001BCEC0BF003C03AF602C039F651
:102C500001C038F600C037F606DE02C003F00150AE
:102C60000501A251025C0BE303E1A151015C07E302
:102C70008B8094908B9494948B82949206D08B90BA
:102C800094908B9494948B92949236D2AAC53EF6EB
:102C9000A9C53DF6000192EC06F0D892F6C53FF6C4
:102CA000F5C53EF6F4C53DF6F3C53CF603C043F664
:102CB00002C042F601C041F600C040F66BEC0CF0D9
:102CC00000C037F601C038F602C039F603C03AF644
:102CD000D88203C03FF602C03EF601C03DF600C0F8
:102CE0003CF602C643F601C642F600C641F6FFC5F1
:102CF00040F66BEC0CF003C0DEF502C0DDF501C060
:102D0000DCF500C0DBF59A0E06013A6F990E396FBB
:102D1000190E386F7F0E376FDEC53EF6DDC53DF606
:102D2000DCC53CF6DBC53BF60001ADEC06F0D8A0F7
:102D3000A7D0FEC53AF6FDC539F6FCC538F6FBC589
:102D400037F69A0E06013E6F990E3D6F190E3C6FD5
:102D50007D0E3B6F0001ADEC06F0D8A091D0AEC562
:102D60003AF6ADC539F6ACC538F6ABC537F606014F
:102D70003E6B3D6B340E3C6F850E3B6F0001ADEC3E
:102D800006F0D8A07DD0050199514F08D8B079D070
:102D9000996BFEC53AF6FDC539F6FCC538F6FBC59C
:102DA00037F606013E6B3D6B800E3C6F7E0E3B6F2F
:102DB0000001ADEC06F01BE3D892EEC53FF6EDC581
:102DC0003EF6ECC53DF6EBC53CF60601436B426BA7
:102DD000416B800E406F00016BEC0CF003C0EEF510
:102DE00002C0EDF501C0ECF500C0EBF549D0FEC521
:102DF0003AF6FDC539F6FCC538F6FBC537F6CD0EFB
:102E000006013E6FCC0E3D6F3C6F7B0E3B6F0001A9
:102E1000ADEC06F01BE3D892EEC53FF6EDC53EF6ED
:102E2000ECC53DF6EBC53CF60601436B426B416BCE
:102E30007F0E406F00016BEC0CF003C0EEF502C09A
:102E4000EDF501C0ECF500C0EBF51AD0D892EEC557
:102E50003FF6EDC53EF6ECC53DF6EBC53CF606018A
:102E6000436B426B416B7E0E406F00016BEC0CF0CC
:102E700003C0EEF502C0EDF501C0ECF500C0EBF5C6
:102E80000501DEC53AF6DDC539F6DCC538F6DBC529
:102E900037F606013E6B3D6B3C6B3B6B0001ADECC6
:102EA00006F005E30501DE6BDD6BDC6BDB6BEEC56D
:102EB0003AF6EDC539F6ECC538F6EBC537F606013E
:102EC0003E6B3D6B3C6B7E0E3B6F0001ADEC06F044
:102ED00007E30501EE6BED6BEC6B7E0EEB6F000113
:102EE000B6C53AF6B5C539F6B4C538F6B3C537F642
:102EF000EEC53EF6EDC53DF6ECC53CF6EBC53BF642
:102F0000ADEC06F008E3B6C5EEF5B5C5EDF5B4C514
:102F1000ECF5B3C5EBF5DEC557F6DDC556F6DCC5F9
:102F200055F6DBC554F6EEC55BF6EDC55AF6ECC5B5
:102F300059F6EBC558F6B8EC0DF003C0EAF502C03F
:102F4000E9F501C0E8F500C0E7F5AAC53EF6A9C558
:102F50003DF692EC06F003C03AF602C039F601C025
:102F600038F600C037F6EAC53EF6E9C53DF6E8C5D5
:102F70003CF6E7C53BF6ADEC06F00EE3AAC53EF61F
:102F8000A9C53DF692EC06F003C0EAF502C0E9F5EA
:102F900001C0E8F500C0E7F5EAC53AF6E9C539F63B
:102FA000E8C538F6E7C537F606013E6B3D6B3C6B6E
:102FB0003B6B0001ADEC06F006E30501EA6BE96B43
:102FC000E86BE76B0001AAC53EF6A9C53DF692EC99
:102FD00006F0EAC53BF6E9C53AF6E8C539F6E7C5B5
:102FE00038F603C03FF602C03EF601C03DF600C011
:102FF0003CF6BCEC0BF000C037F601C038F602C05E
:1030000039F603C03AF603C057F602C056F601C0BF
:1030100055F600C054F6D6C55BF6D5C55AF6D4C5EC
:1030200059F6D3C558F6B8EC0DF003C0DAF502C076
:10303000D9F501C0D8F500C0D7F5DAC53BF6D9C53A
:103040003AF6D8C539F6D7C538F60A0E06013F6FED
:10305000D70E3E6F230E3D6F770E3C6F0001BCEC28
:103060000BF003C03AF602C039F601C038F600C0D2
:1030700037F633EC14F002C003F001500501A25101
:10308000025C0BE303E1A151015C07E38B809490A8
:103090008B8494948B92949206D08B9094908B9482
:1030A00094948B929492D6C53BF6D5C53AF6D4C586
:1030B00039F6D3C538F60A0E06013F6FD70E3E6FBC
:1030C000230E3D6F770E3C6F0001BCEC0BF003C08C
:1030D0003AF602C039F601C038F600C037F633ECD4
:1030E00014F00250036E0501A25D06E303E10150F6
:1030F000A15D02E3A26BA16B0001000C060154511B
:10310000B608546F036A55C658F6558FD890553394
:10311000563357330332023201320032542FF6D77E
:1031200058AF0BD0001E011E021E031E002AD8B489
:10313000012AD8B4022AD8B4032A00010CEF19F0EE
:10314000006A016A026A036A06015C6B5D6B5E6B72
:103150005F6B5B515A11591158112CE0200E606FB2
:10316000D89054375537563757375C375D375E3709
:103170005F375B515F5D08E15A515E5D05E1595172
:103180005D5D02E158515C5D0FE358515C5F595140
:10319000D8A0593D5D5F5A51D8A05A3D5E5F5B5142
:1031A000D8A05B3D5F5FD88000360136023603361B
:1031B000602FD6D7060EEA6E5C0EE96E0001000C99
:1031C000E95006014C6F4B514E6F1CE04AC657F652
:1031D00049C656F648C655F647C654F65B6B5A6B59
:1031E000200E596F820E586F0001B8EC0DF003C02D
:1031F0004AF602C049F601C048F600C047F606018B
:103200004E2FE4D74AC657F649C656F648C655F675
:1032100047C654F6000172D703C04AF602C049F609
:1032200001C048F600C047F606014AAF0DD04C0772
:103230004C8B471F481F491F4A1F472BD8B4482BA8
:10324000D8B4492BD8B44A2B3B0E536F9A0E526F09
:10325000CA0E516F506B0A0E4E6F4B51D8B44C2BA7
:103260004AC657F649C656F648C655F647C654F6F6
:1032700053C65BF652C65AF651C659F650C658F6B2
:1032800000015EDF0150EFCF47F6ECCF48F6ECCF00
:1032900049F6ECCF4AF6005213E106014B294E5D88
:1032A000D8A402D000010CD04C510DE00F0B4E5DA4
:1032B00001E044E24CBF42D04CBD05D0200E37D0D7
:1032C000200E06014C174CAB0FD04C9B4B51D8A491
:1032D0004C0700504C6F2D0E546F0001B4EC0AF0F7
:1032E00006014C51006E4C6B4B514E5D0DE1005090
:1032F0004C6F2E0E546F0001B4EC0AF006014C51D5
:10330000006E200E4C17000E300E4CAB10D04C9BB4
:103310004B51D8A44C0700504C6F2D0E546F000138
:10332000B4EC0AF006014C51006E4C6B300E0026D6
:1033300000C054F60001B4EC0AF0060153C657F67B
:1033400052C656F651C655F650C654F65B6B5A6BCC
:10335000596B0A0E586F0001F3DE03C053F602C02A
:1033600052F601C051F600C050F606014E2F78D734
:103370000001CEEF19F0060E0601366F3E0E356FD6
:10338000420EE96E3AC64AF639C649F638C648F6DC
:1033900037C647F6010E4B6F000112D706013D51AB
:1033A0001B0DF3503B25476F3D51080DF3503C2555
:1033B000486F3BC64AF63CC64BF647C64CF64D6FC7
:1033C000010E4E6F4F6B0001C0EC09F03BC64AF690
:1033D0003CC64BF6060E06014D6F3E0E4C6F3DC6C9
:1033E0004EF6010E4F6F000145EC08F0000CF86A34
:1033F000D09E078EEA6AE96A0501866B876B886B47
:10340000896B0A0E8A6F8B6B8C6B8D6B8E6B8F91B9
:103410008F938F958F878F998F9B8F9D8F9F909183
:103420009093909590979099909B916B926B936BE2
:10343000946B010E956F966B976B986B996B9A6F67
:103440009B6B9C6B9E6B9D6BA06B9F6BA26BA16B30
:10345000A46BA36BA66BA56BA86BA76BAA6BA96BE0
:10346000AE6BAD6BAC6BAB6BB26BB16BB06BAF6B90
:10347000B66BB56BB46BB36BCA6BC96BC86BC76B00
:10348000CE6B100ECD6F420ECC6F8B0ECB6FD66B0A
:10349000D56B200ED46F820ED36FDA6BD96BD86BDD
:1034A000D76BDE6BDD6BDC6BDB6BE26BE16BE06BD8
:1034B000DF6BE66BE56BE46BE36BEA6BE96BE86B88
:1034C000E76BEE6BED6B480EEC6F830EEB6FF26B00
:1034D000F16B200EF06F830EEF6FF66BF56BF46BF4
:1034E0007E0EF36FFA6BF96B160EF86F860EF76FA0
:1034F000FE6BFD6BFC6BFB6B0601026B016B006BE3
:103500000501FF6B0601066B056B200E046F820E32
:10351000036F0A6B096B086B076BE00E0E6F2D0EC5
:103520000D6F100E0C6F750E0B6FFF0E126F210ECC
:10353000116F150E106F800E0F6F820E166F120E28
:10354000156FF40E146F860E136FC150C00B0F0968
:10355000C16E070EB46E0401166B176B186B196BF6
:103560001A6B1B6B1C6B1D6B1E6B1F6B206B216B17
:10357000226B236B246B256B266B276B286B296BC7
:103580002A6B2B6B2C6B2D6B2E6B2F6B306B316B77
:10359000326B336B346B356B366B376B386B396B27
:1035A0003A6B3B6B3C6B3D6B3E6B3F6B406B416BD7
:1035B000426B436B446B456B466B476B486B496B87
:1035C0004A6B4B6B4C6B4D6B4E6B4F6B506B516B37
:1035D000526B536B546B556B566B576B586B596BE7
:1035E0005A6B5B6B5C6B5D6B5E6B5F6B606B616B97
:1035F000626B636B646B656B666B676B686B696B47
:103600006A6B6B6B6C6B6D6B6E6B6F6B706B716BF6
:10361000726B736B746B756B766B776B786B796BA6
:103620007A6B7B6B7C6B7D6B7E6B7F6B806B816B56
:10363000826B836B846B856B866B876B886B896B06
:103640008A6B8B6B8C6B8D6B8E6B8F6B906B916BB6
:10365000926B936B946B956B966B976B986B996B66
:103660009A6B9B6B9C6B9D6B9E6B9F6BA06BA16B16
:10367000A26BA36BA46BA56BA66BA76BA86BA96BC6
:10368000AA6BAB6BAC6BAD6BAE6BAF6BB06BB16B76
:10369000B26BB36BB46BB56BB66BB76BB86BB96B26
:1036A000BA6BBB6BBC6BBD6BBE6BBF6BC06BC16BD6
:1036B000C26BC36BC46BC56BC66BC76BC86BC96B86
:1036C000CA6BCB6BCC6BCD6BCE6BCF6BD06BD16B36
:1036D000D26BD36BD46BD56BD66BD76BD86BD96BE6
:1036E000DA6BDB6BDC6BDD6BDE6BDF6BE06BE16B96
:1036F000E26BE36BE46BE56BE66BE76BE86BE96B46
:10370000EA6BEB6BEC6BED6BEE6BEF6BF06BF16BF5
:10371000F26BF36BF46BF56BF66BF76BF86BF96BA5
:10372000FA6BFB6BFC6BFD6BFE6BFF6B0501006BBB
:10373000016B026B036B046B056B066B076B086B0D
:10374000096B0A6B0B6B0C6B0D6B0E6B0F6B106BBD
:10375000116B126B136B146B156B166B176B186B6D
:10376000196B1A6B1B6B1C6B1D6B1E6B1F6B206B1D
:10377000216B226B236B246B256B266B276B286BCD
:10378000296B2A6B2B6B2C6B2D6B2E6B2F6B306B7D
:10379000316B326B336B346B356B366B376B386B2D
:1037A000396B3A6B3B6B3C6B3D6B3E6B3F6B406BDD
:1037B000416B426B436B446B456B466B476B486B8D
:1037C000496B4A6B4B6B4C6B4D6B4E6B4F6B506B3D
:1037D000516B526B536B546B556B566B576B586BED
:1037E000596B5A6B5B6B5C6B5D6B5E6B5F6B606B9D
:1037F000616B626B636B646B656B666B676B686B4D
:10380000696B6A6B6B6B6C6B6D6B6E6B6F6B706BFC
:10381000716B726B736B746B756B766B776B786BAC
:10382000796B7A6B7B6B7C6B7D6B7E6B7F6B806B5C
:10383000816B826B836B846B856BB76BB86BB96B79
:10384000BA6BBB6BBC6BBD6BBE6BBF6BC06BC16B34
:10385000C26BC36BC46BC56BC66B0601356B366B35
:10386000040E376FFA0E3D6F00017DEC06F0060185
:10387000372FF8D78B9094908B9294928B9494944A
:103880008B9C949C850ECD6E9D80C150C00B0E0903
:10389000C16EC090C082C084C08EC280C00EF212C1
:1038A000F2CF37F6F29EA96AA69CA69EA680A850E3
:1038B00037BFF28E0501BB6F320E06013D6F00016E
:1038C0007DEC06F0F2CF37F6F29E010EA96EA69CB3
:1038D000A69EA680A850060137BFF28E0501BC6FD8
:1038E000320E06013D6F00017DEC06F0F2CF37F697
:1038F000F29E020EA96EA69CA69EA680A850060166
:1039000037BFF28E0501BD6F320E06013D6F00011B
:103910007DEC06F0F2CF37F6F29E030EA96EA69C60
:10392000A69EA680A850060137BFF28E0501BE6F85
:10393000320E06013D6F00017DEC06F0F2CF37F646
:10394000F29E510EA96EA69CA69EA680A8500601C6
:1039500037BFF28E386FF2CF39F6F29E500EA96E55
:10396000A69CA69EA680A85039BFF28E3A6F38C694
:10397000AAF53AC6A9F5320E3D6F00017DEC06F0BE
:10398000F2CF37F6F29E0A0EA96EA69CA69EA680DE
:10399000A850060137BFF28E0501C36F320E060133
:1039A0003D6F00017DEC06F0F2CF37F6F29E0B0E74
:1039B000A96EA69CA69EA680A850060137BFF28ECF
:1039C0000501C46F320E06013D6F00017DEC06F06B
:1039D000F2CF37F6F29E0C0EA96EA69CA69EA6808C
:1039E000A850060137BFF28E0501C56F320E0601E1
:1039F0003D6F00017DEC06F0F2CF37F6F29E0D0E22
:103A0000A96EA69CA69EA680A850060137BFF28E7E
:103A10000501C66F320E06013D6F00017DEC06F018
:103A2000F2CF37F6F29E5A0EA96EA69CA69EA680ED
:103A3000A850060137BFF28E3E6B3D6F000192EC3D
:103A400006F003C0EEF502C0EDF501C0ECF500C0D4
:103A5000EBF5320E06013D6F00017DEC06F0F2CF72
:103A600037F6F29E1E0EA96EA69CA69EA680A850B2
:103A7000060137BFF28E3E6B3D6F000192EC06F0FF
:103A800003C0D6F502C0D5F501C0D4F500C0D3F50A
:103A9000320E06013D6F00017DEC06F0F2CF37F6E5
:103AA000F29E280EA96EA69CA69EA680A85006018E
:103AB00037BFF28E0501886F320E06013D6F00019F
:103AC0007DEC06F0F2CF37F6F29E320EA96EA69C80
:103AD000A69EA680A850060137BFF28E0501896F09
:103AE000320E06013D6F00017DEC06F0F2CF37F695
:103AF000F29E3C0EA96EA69CA69EA680A85006012A
:103B000037BFF28E05018A6F320E06013D6F00014C
:103B10007DEC06F0F2CF37F6F29E460EA96EA69C1B
:103B2000A69EA680A850060137BFF28E3E6B3D6F61
:103B3000000192EC06F003C0FAF502C0F9F501C0ED
:103B4000F8F500C0F7F5320E06013D6F00017DEC7F
:103B500006F0F2CF37F6F29E640EA96EA69CA69EE2
:103B6000A680A850060137BFF28E3E6B3D6F000164
:103B700092EC06F003C006F602C005F601C004F69A
:103B800000C003F606013A6B396B200E386F830EC6
:103B9000376FEEC53EF6EDC53DF6ECC53CF6EBC520
:103BA0003BF60001ADEC06F007E30501EE6BED6BB3
:103BB000200EEC6F820EEB6F010E0601376F0001D5
:103BC00093EC07F00601386B00010AEC07F0060ED3
:103BD000EA6E170EE96EF2CF37F6F29E000E5FEC3A
:103BE00003F00A000900F550EE6E0009FBE1060142
:103BF00037BFF28E060E386F170E376F396B3A6B80
:103C00003B6B020E3C6F000121EC0AF0060EEA6EDF
:103C1000170EE96EF2CF37F6F29E000E72EC03F04B
:103C20000A000900F550EE6E0009FBE1060137BFFE
:103C3000F28E060E386F170E376F396B140E3A6F0F
:103C40003B6B010E3C6F000121EC0AF0060EEA6EA0
:103C5000170EE96EF2CF37F6F29E000E87EC03F0F6
:103C60000A000900F550EE6E0009FBE1060137BFBE
:103C7000F28E060E386F170E376F396B1E0E3A6FC5
:103C80003B6B010E3C6F000121EC0AF0060EEA6E60
:103C9000170EE96EF2CF37F6F29E000E9CEC03F0A1
:103CA0000A000900F550EE6E0009FBE1060137BF7E
:103CB000F28E060E386F170E376F396B2D0E3A6F76
:103CC0003B6B020E3C6F000121EC0AF0040E060172
:103CD000376FFA0E3D6F00017DEC06F00601372FBD
:103CE000F8D7386B00010AEC07F0BFC539F6140E9F
:103CF00006013A6F1E0E3B6F010E3C6F000134EC63
:103D00000BF0C0C539F6280E06013A6F1E0E3B6F48
:103D10003C6B000134EC0BF0C1C539F63C0E0601DA
:103D20003A6F1E0E3B6F3C6B000134EC0BF0C2C5CA
:103D300039F6500E06013A6F1E0E3B6F3C6B0001C8
:103D400034EC0BF00501966B96514F0810E38AC5D1
:103D500037F6000133EC0EF003C002F602C001F6A4
:103D600001C000F600C0FFF50501962BEDD7928A41
:103D700080AA48D0968084A045D0968284A242D062
:103D8000968484A43FD0020E0601376FFA0E3D6F71
:103D900000017DEC06F00601372FF8D7060EEA6E1B
:103DA000170EE96EF2CF37F6F29E000E0001AEEC70
:103DB00003F00A000900F550EE6E0009FBE1060170
:103DC00037BFF28E060E386F170E376F396B1E0E27
:103DD0003A6F010E3B6F3C6F000121EC0AF0080EB8
:103DE0000601376FFA0E3D6F00017DEC06F006010B
:103DF000372FF8D7640E0501946F0601386B000168
:103E00000AEC07F0000137EC07F005019453D8A441
:103E1000CAD2060EEA6E170EE96EF2CF37F6F29EA0
:103E2000000E0001C1EC03F00A000900F550EE6E2F
:103E30000009FBE1060137BFF28E060E386F170E40
:103E4000376F1E0E396F3A6B010E3B6F020E3C6FDF
:103E5000000121EC0AF0928A80AA6BD005018FB193
:103E600067D08F811E0E06013D6F00017DEC06F0CC
:103E7000010E0501966F965104085AE39651955D1F
:103E80003BE1010E965D036ABF0FE96E050E03204C
:103E9000EA6EEF2A010E965D036ABF0FE96E050E0A
:103EA0000320EA6EEFBE0CD0EF50090809E2010EC4
:103EB000965D036ABF0FE96E050E0320EA6EEF6A96
:103EC000010E965D036ABF0FE96E050E0320EA6ED0
:103ED000EFCF37F69651140DF3CF38F6060137C6FB
:103EE00039F638C63AF61E0E3B6F010E3C6F0001E4
:103EF00034EC0BF01AD00501010E965D036ABF0F7A
:103F0000E96E050E0320EA6EEFCF37F69651140DD9
:103F1000F3CF38F6060137C639F638C63AF61E0E24
:103F20003B6F3C6B000134EC0BF00501962BA3D7E3
:103F300002D005018F91968084A069D08FB566D09C
:103F40008F851E0E06013D6F00017DEC06F0010E0F
:103F50000501966F9651040859E39651955D3AE133
:103F6000010E965D036ABF0FE96E050E0320EA6E2F
:103F7000EF06010E965D036ABF0FE96E050E032082
:103F8000EA6EEFBE01D00AD0010E965D036ABF0F44
:103F9000E96E050E0320EA6E090EEF6E010E965DC6
:103FA000036ABF0FE96E050E0320EA6EEFCF37F606
:103FB0009651140DF3CF38F6060137C639F638C6D8
:103FC0003AF61E0E3B6F010E3C6F000134EC0BF015
:103FD0001AD00501010E965D036ABF0FE96E050E4A
:103FE0000320EA6EEFCF37F69651140DF3CF38F673
:103FF000060137C639F638C63AF61E0E3B6F3C6BE3
:10400000000134EC0BF00501962BA4D701D08F955D
:10401000968284A24CD08FB349D08F831E0E0601A6
:104020003D6F00017DEC06F00501952B010E966FAA
:10403000965104083BE39651955D1CE1010E965D97
:10404000036ABF0FE96E050E0320EA6EEFCF37F665
:104050009651140DF3CF38F6060137C639F638C637
:104060003AF61E0E3B6F010E3C6F000134EC0BF074
:104070001AD00501010E965D036ABF0FE96E050EA9
:104080000320EA6EEFCF37F69651140DF3CF38F6D2
:10409000060137C639F638C63AF61E0E3B6F3C6B42
:1040A000000134EC0BF00501962BC2D701D08F93A1
:1040B00095510408D8B077D10601386B00010AEC9D
:1040C00007F0040E0501956FBF51030873E1C0515D
:1040D000080870E1C15109086DE1C25102086AE1A6
:1040E0000A0EA96EA86AA69CA69EA684F250006E2F
:1040F000F29E0F01550EA76EAA0EA76EA682A6B25B
:10410000FED7A6940050F212140E06013D6F000176
:104110007DEC06F00B0EA96EA86AA69CA69EA6844E
:10412000F250006EF29E0F01550EA76EAA0EA76EFA
:10413000A682A6B2FED7A6940050F212140E060173
:104140003D6F00017DEC06F00C0EA96EA86AA69CDE
:10415000A69EA684F250006EF29E0F01550EA76E29
:10416000AA0EA76EA682A6B2FED7A6940050F2129F
:10417000140E06013D6F00017DEC06F00D0EA96ED8
:10418000A86AA69CA69EA684F250006EF29E0F011D
:10419000550EA76EAA0EA76EA682A6B2FED7A6944B
:1041A0000050F212140E06013D6F00017DEC06F086
:1041B000FF000501C351BF5D68E1C451C05D65E109
:1041C000C551C15D62E1C651C25D5FE10601386B58
:1041D00000010AEC07F0060EEA6E170EE96EF2CF48
:1041E00037F6F29E000EC1EC03F00A000900F5500C
:1041F000EE6E0009FBE1060137BFF28E060E386F46
:10420000170E376F1E0E396F3A6B3B6B020E3C6F09
:10421000000121EC0AF0060EEA6E170EE96EF2CFED
:1042200037F6F29E000ED1EC03F00A000900F550BB
:10423000EE6E0009FBE1060137BFF28E060E386F05
:10424000170E376F0F0E396F1E0E3A6F3B6B020E53
:104250003C6F000121EC0AF0010E0501946F000192
:1042600037EC07F0040E0601376FFA0E3D6F0001C0
:104270007DEC06F00601372FF8D7386B00010AEC09
:1042800007F0010E0501956F8ED00601386B000115
:104290000AEC07F0060EEA6E170EE96EF2CF37F65B
:1042A000F29E000EC1EC03F00A000900F550EE6E1C
:1042B0000009FBE1060137BFF28E060E386F170EBC
:1042C000376F1E0E396F3A6B3B6B020E3C6F00016D
:1042D00021EC0AF0060EEA6E170EE96EF2CF37F601
:1042E000F29E000EE3EC03F00A000900F550EE6EBA
:1042F0000009FBE1060137BFF28E060E386F170E7C
:10430000376F396B1E0E3A6F3B6B020E3C6F00012C
:1043100021EC0AF00501946B000137EC07F0040E64
:104320000601376FFA0E3D6F00017DEC06F00601C5
:10433000372FF8D7386B00010AEC07F0010E0501A2
:10434000956FBF6BC06BC16BC26BBFC539F6140EE6
:1043500006013A6F1E0E3B6F010E3C6F000134ECFC
:104360000BF0C0C539F6280E06013A6F1E0E3B6FE2
:104370003C6B000134EC0BF0C1C539F63C0E060174
:104380003A6F1E0E3B6F3C6B000134EC0BF0C2C564
:1043900039F6500E06013A6F1E0E3B6F3C6B000162
:1043A00034EC0BF00501942D8ED19A51040802E2F1
:1043B000010E9A6F9A5302E1040E9A6F060EEA6E8E
:1043C000170EE96EF2CF37F6F29E000E0001F6EC02
:1043D00003F00A000900F550EE6E0009FBE106014A
:1043E00037BFF28E060E386F170E376F1E0E396FFD
:1043F0003A6B010E3B6F020E3C6F000121EC0AF09C
:1044000005019A2D23D0060EEA6E170EE96EF2CF43
:1044100037F6F29E000E000106EC04F00A000900D7
:10442000F550EE6E0009FBE1060137BFF28E060E75
:10443000386F170E376F396B140E3A6F010E3B6FE2
:104440003C6F000121EC0AF022D00501060EEA6E55
:10445000170EE96EF2CF37F6F29E000E000106EC61
:1044600004F00A000900F550EE6E0009FBE10601B8
:1044700037BFF28E060E386F170E376F396B140E7A
:104480003A6F3B6B010E3C6F000121EC0AF0050115
:104490009A51020823E1060EEA6E170EE96EF2CF7A
:1044A00037F6F29E000E00011BEC04F00A00090032
:1044B000F550EE6E0009FBE1060137BFF28E060EE5
:1044C000386F170E376F396B1E0E3A6F010E3B6F48
:1044D0003C6F000121EC0AF022D00501060EEA6EC5
:1044E000170EE96EF2CF37F6F29E000E00011BECBC
:1044F00004F00A000900F550EE6E0009FBE1060128
:1045000037BFF28E060E386F170E376F396B1E0EDF
:104510003A6F3B6B010E3C6F000121EC0AF0050184
:104520009A51030823E1060EEA6E170EE96EF2CFE8
:1045300037F6F29E000E00012EEC04F00A0009008E
:10454000F550EE6E0009FBE1060137BFF28E060E54
:10455000386F170E376F396B280E3A6F010E3B6FAD
:104560003C6F000121EC0AF022D00501060EEA6E34
:10457000170EE96EF2CF37F6F29E000E00012EEC18
:1045800004F00A000900F550EE6E0009FBE1060197
:1045900037BFF28E060E386F170E376F396B280E45
:1045A0003A6F3B6B010E3C6F000121EC0AF00501F4
:1045B0009A51040823E1060EEA6E170EE96EF2CF57
:1045C00037F6F29E000E000142EC04F00A000900EA
:1045D000F550EE6E0009FBE1060137BFF28E060EC4
:1045E000386F170E376F396B320E3A6F010E3B6F13
:1045F0003C6F000121EC0AF022D00501060EEA6EA4
:10460000170EE96EF2CF37F6F29E000E000142EC73
:1046100004F00A000900F550EE6E0009FBE1060106
:1046200037BFF28E060E386F170E376F396B320EAA
:104630003A6F3B6B010E3C6F000121EC0AF0928A4D
:1046400080AA0ED005018FB10AD08F811E0E0601FF
:104650003D6F00017DEC06F005019A078F8702D0BF
:1046600005018F91968084A00DD08FB50AD08F85DB
:104670001E0E06013D6F00017DEC06F005019A2B30
:104680008F8701D08F95968284A21CD08FB319D0CA
:104690008F83020E0601376FFA0E3D6F00017DEC2D
:1046A00006F00601372FF8D7030E05019A25946FFF
:1046B000010E9A6F0601386B00010AEC07F0050144
:1046C0008F8701D08F9394510408D8A44CD19A516C
:1046D000020802E2010E9A6F9A5302E1020E9A6FEB
:1046E000060EEA6E170EE96EF2CF37F6F29E000E56
:1046F000000156EC04F00A000900F550EE6E0009C6
:10470000FBE1060137BFF28E060E386F170E376FCA
:10471000396B3A6B010E3B6F020E3C6F000121ECCE
:104720000AF005019A51020845E1060EEA6E170EDD
:10473000E96EF2CF37F6F29E000E000168EC04F04D
:104740000A000900F550EE6E0009FBE1060137BFD3
:10475000F28E060E386F170E376F320E396F190E44
:104760003A6F010E3B6F020E3C6F000121EC0AF024
:10477000060EEA6E170EE96EF2CF37F6F29E000EC5
:1047800077EC04F00A000900F550EE6E0009FBE139
:10479000060137BFF28E060E386F170E376F320ED6
:1047A000396F2D0E3A6F3B6B020E3C6F000121EC0E
:1047B0000AF005019A2D45D0060EEA6E170EE96E35
:1047C000F2CF37F6F29E000E000168EC04F00A000A
:1047D0000900F550EE6E0009FBE1060137BFF28ECD
:1047E000060E386F170E376F320E396F190E3A6F8B
:1047F0003B6B020E3C6F000121EC0AF0060EEA6EE4
:10480000170EE96EF2CF37F6F29E000E77EC04F049
:104810000A000900F550EE6E0009FBE1060137BF02
:10482000F28E060E386F170E376F320E396F2D0E5F
:104830003A6F010E3B6F020E3C6F000121EC0AF053
:104840000501928A80AA04D09A51010801E39A2BAB
:10485000968084A004D09A51010801E29A079682BA
:1048600084A266D09A5102084CE1AAC53EF6A9C5B9
:104870003DF6000192EC06F003C03AF602C039F6AC
:1048800001C038F600C037F602C63EF601C63DF656
:1048900000C63CF6FFC53BF6ADEC06F005E3010EA5
:1048A0000501936F03D000010501936B140E946F03
:1048B0000F0E06014A6F120E4B6F1E0E4C6F350E17
:1048C0004D6F4E6B010E4F6F0001C0EC09F00501FA
:1048D0009C6B0601386B00010AEC07F00501976B31
:1048E000AAC53EF6A9C53DF6000192EC06F003C04C
:1048F000B6F502C0B5F501C0B4F500C0B3F519D0E6
:104900000501040E0601376FAF0E3D6F00017DEC0F
:1049100006F00601372FF8D7010E0501946F060146
:10492000386B00010AEC07F0010E05019A6F8F87C2
:104930000001968484A418D0040E0601376FAF0ED0
:104940003D6F00017DEC06F00601372FF8D7010E10
:104950000501946F0601386B00010AEC07F0010EA7
:1049600005019A6F8F870001050194510508D8A4AD
:1049700008D1AA5303E1A951460803E2AA6B460EE7
:10498000A96FA95305E1AA5303E1AA6B010EA96F10
:10499000550E0601376F1E0E386F030E396F3A6BD6
:1049A000010E3B6F00012DEC10F0060EEA6E170EA3
:1049B000E96EF2CF37F6F29E000E86EC04F00A00A4
:1049C0000900F550EE6E0009FBE1060137BFF28EDB
:1049D000060E386F170E376F5C0E396F1E0E3A6F6A
:1049E000020E3B6F030E3C6F000121EC0AF0060E35
:1049F000EA6E170EE96EF2CF37F6F29E000E1BEC50
:104A000004F00A000900F550EE6E0009FBE1060112
:104A100037BFF28E060E386F170E376F396B3A6B51
:104A2000010E3B6F020E3C6F000121EC0AF0AAC59B
:104A30003AF6A9C539F61E0E06013B6F3C6F3D6B79
:104A4000030E3E6F0001A1EC11F0928A80AA1AD0E9
:104A50001E0E06014A6F4B6F500E4C6F370E4D6F96
:104A6000010E4E6F4F6B0001C0EC09F01E0E0601E7
:104A70003D6F00017DEC06F00501A92BD8B4AA2BEF
:104A80008F870001968084A01BD01E0E06014A6FFE
:104A90004B6F500E4C6F370E4D6F010E4E6F4F6BBC
:104AA0000001C0EC09F01E0E06013D6F00017DEC17
:104AB00006F00501A951D8B4AA07A9078F870001FC
:104AC000968284A209D01E0E06013D6F00017DEC86
:104AD00006F005018F870001968484A451D0040E4E
:104AE0000601376FAF0E3D6F00017DEC06F0060149
:104AF000372FF8D7010E0501946F0601386B0001BE
:104B00000AEC07F0010E05019A6F8F87A9C537F6E9
:104B1000500EA96E37C6A8FFA69CA69EA684F2508A
:104B2000006EF29E0F01550EA76EAA0EA76EA6820A
:104B3000A6B2FED7A6940050F212320E06013D6FC7
:104B400000017DEC06F0AAC537F6510EA96E37C6F6
:104B5000A8FFA69CA69EA684F250006EF29E0F01AE
:104B6000550EA76EAA0EA76EA682A6B2FED7A69471
:104B70000050F212320E06013D6F00017DEC06F08E
:104B8000050194510608D8A49CD1955302E1040E66
:104B9000956F060EEA6E170EE96EF2CF37F6F29EAB
:104BA000000E000194EC04F00A000900F550EE6ECE
:104BB0000009FBE1060137BFF28E060E386F170EB3
:104BC000376F396B3A6B010E3B6F020E3C6F000181
:104BD00021EC0AF00501955104080FE1BEC538F635
:104BE000140E0601396F280E3A6F010E3B6F020E4C
:104BF0003C6F0001C0EC12F00DD0BEC538F6140EAB
:104C00000601396F280E3A6F3B6B020E3C6F0001B4
:104C1000C0EC12F00501955103080EE1BDC538F650
:104C2000280E0601396F3A6F010E3B6F020E3C6F82
:104C30000001C0EC12F00CD0BDC538F6280E0601FC
:104C4000396F3A6F3B6B020E3C6F0001C0EC12F003
:104C50000501955102080FE1BCC538F6460E060164
:104C6000396F280E3A6F010E3B6F020E3C6F000148
:104C7000C0EC12F00DD0BCC538F6460E0601396FF7
:104C8000280E3A6F3B6B020E3C6F0001C0EC12F035
:104C90000501952D0FD0BBC538F65A0E0601396FA8
:104CA000280E3A6F010E3B6F020E3C6F0001C0EC04
:104CB00012F00DD0BBC538F65A0E0601396F280E1A
:104CC0003A6F3B6B020E3C6F0001C0EC12F0060E17
:104CD000EA6E170EE96EF2CF37F6F29E000EA6ECE2
:104CE00004F00A000900F550EE6E0009FBE1060130
:104CF00037BFF28E060E386F170E376F3C0E396FC6
:104D00002A0E3A6F020E3B6F3C6F000121EC0AF055
:104D1000928A80AA20D0010E0501955D036ABB0F1F
:104D2000E96E050E0320EA6EEFBE03D0EF500808CF
:104D300011E31E0E06013D6F00017DEC06F0010E31
:104D40000501955D036ABB0FE96E050E0320EA6E4F
:104D5000EF2A8F870001968084A020D0010E0501E4
:104D6000955D036ABB0FE96E050E0320EA6EEFBE88
:104D700014D0EF50000811E21E0E06013D6F000135
:104D80007DEC06F0010E0501955D036ABB0FE96E2F
:104D9000050E0320EA6EEF068F870001968284A23B
:104DA0000AD01E0E06013D6F00017DEC06F00501E4
:104DB00095078F870001968484A482D0040E060193
:104DC000376FAF0E3D6F00017DEC06F00601372F07
:104DD000F8D7010E0501946F0601386B00010AEC4B
:104DE00007F0010E05019A6F8F87A96ABBC5A8FF5E
:104DF000A69CA69EA684F250006EF29E0F01550E50
:104E0000A76EAA0EA76EA682A6B2FED7A6940050E1
:104E1000F212320E06013D6F00017DEC06F0010E2C
:104E2000A96EBCC5A8FFA69CA69EA684F250006EE3
:104E3000F29E0F01550EA76EAA0EA76EA682A6B20D
:104E4000FED7A6940050F212320E06013D6F00010B
:104E50007DEC06F0020EA96EBDC5A8FFA69CA69E1D
:104E6000A684F250006EF29E0F01550EA76EAA0E98
:104E7000A76EA682A6B2FED7A6940050F212320EFA
:104E800006013D6F00017DEC06F0030EA96EBEC564
:104E9000A8FFA69CA69EA684F250006EF29E0F016B
:104EA000550EA76EAA0EA76EA682A6B2FED7A6942E
:104EB0000050F212320E06013D6F00017DEC06F04B
:104EC000050194510708D8A45AD2060EEA6E170EAF
:104ED000E96EF2CF37F6F29E000E0001C1EC03F04E
:104EE0000A000900F550EE6E0009FBE1060137BF2C
:104EF000F28E060E386F170E376F1E0E396F3A6B33
:104F0000010E3B6F020E3C6F000121EC0AF005011F
:104F1000952D2FD0BFC539F6140E06013A6F1E0E1F
:104F20003B6F010E3C6F000134EC0BF0C0C539F64D
:104F3000280E06013A6F1E0E3B6F3C6B000134ECED
:104F40000BF0C1C539F63C0E06013A6F1E0E3B6FE1
:104F50003C6B000134EC0BF0C2C539F6500E060173
:104F60003A6F1E0E3B6F3C6B000134EC0BF095D09A
:104F70000501955102082FE1BFC539F6140E06014F
:104F80003A6F1E0E3B6F3C6B000134EC0BF0C0C55A
:104F900039F6280E06013A6F1E0E3B6F010E3C6F6C
:104FA000000134EC0BF0C1C539F63C0E06013A6F36
:104FB0001E0E3B6F3C6B000134EC0BF0C2C539F6A2
:104FC000500E06013A6F1E0E3B6F3C6B000134EC35
:104FD0000BF063D00501955103082FE1BFC539F6E9
:104FE000140E06013A6F1E0E3B6F3C6B000134EC51
:104FF0000BF0C0C539F6280E06013A6F1E0E3B6F46
:105000003C6B000134EC0BF0C1C539F63C0E0601D7
:105010003A6F1E0E3B6F010E3C6F000134EC0BF03B
:10502000C2C539F6500E06013A6F1E0E3B6F3C6B3F
:10503000000134EC0BF031D00501955104082EE14C
:10504000BFC539F6140E06013A6F1E0E3B6F3C6B5E
:10505000000134EC0BF0C0C539F6280E06013A6F9A
:105060001E0E3B6F3C6B000134EC0BF0C1C539F6F2
:105070003C0E06013A6F1E0E3B6F3C6B000134EC98
:105080000BF0C2C539F6500E06013A6F1E0E3B6F8B
:10509000010E3C6F000134EC0BF00501928A80AAEE
:1050A00034D08FB131D08F811E0E06013D6F0001CB
:1050B0007DEC06F0010E0501966F9651040824E37D
:1050C0009651955D1FE1010E965D036ABF0FE96E73
:1050D000050E0320EA6EEF2A010E965D036ABF0FEC
:1050E000E96E050E0320EA6EEFBE0CD0EF50090802
:1050F00009E2010E965D036ABF0FE96E050E0320FB
:10510000EA6EEF6A962BD9D701D08F91968084A052
:1051100033D08FB530D08F851E0E06013D6F000154
:105120007DEC06F0010E0501966F9651040823E30D
:105130009651955D1EE1010E965D036ABF0FE96E03
:10514000050E0320EA6EEF06010E965D036ABF0F9F
:10515000E96E050E0320EA6EEFBE01D00AD0010E03
:10516000965D036ABF0FE96E050E0320EA6E090E15
:10517000EF6E962BDAD701D08F95968284A211D04C
:105180008FB30ED08F83020E0601376F960E3D6FE0
:1051900000017DEC06F00601372FF8D70501952BAD
:1051A00001D08F93968484A414D0040E0601376F27
:1051B000AF0E3D6F00017DEC06F00601372FF8D7EA
:1051C000010E0501946F0601386B00010AEC07F02F
:1051D000050195510408D8B0D2D00601386B000102
:1051E0000AEC07F00501C351BF5D68E1C451C05D21
:1051F00065E1C551C15D62E1C651C25D5FE1060175
:10520000386B00010AEC07F0060EEA6E170EE96E25
:10521000F2CF37F6F29E000EC1EC03F00A0009004F
:10522000F550EE6E0009FBE1060137BFF28E060E67
:10523000386F170E376F1E0E396F3A6B3B6B020ECD
:105240003C6F000121EC0AF0060EEA6E170EE96EC3
:10525000F2CF37F6F29E000ED1EC03F00A000900FF
:10526000F550EE6E0009FBE1060137BFF28E060E27
:10527000386F170E376F0F0E396F1E0E3A6F3B6B7C
:10528000020E3C6F000121EC0AF05B0E0501946FE9
:10529000000137EC07F0040E0601376FFA0E3D6F80
:1052A00000017DEC06F00601372FF8D7386B0001BE
:1052B0000AEC07F0010E0501956F61D00601386B0D
:1052C00000010AEC07F0060EEA6E170EE96EF2CF47
:1052D00037F6F29E000EC1EC03F00A000900F5500B
:1052E000EE6E0009FBE1060137BFF28E060E386F45
:1052F000170E376F1E0E396F3A6B3B6B020E3C6F09
:10530000000121EC0AF0060EEA6E170EE96EF2CFEC
:1053100037F6F29E000EE3EC03F00A000900F550A8
:10532000EE6E0009FBE1060137BFF28E060E386F04
:10533000170E376F396B1E0E3A6F3B6B020E3C6FC8
:10534000000121EC0AF0010E0501946F000137EC19
:1053500007F0040E0601376FFA0E3D6F00017DEC79
:1053600006F00601372FF8D7386B00010AEC07F07A
:10537000010E0501956FBF6BC06BC16BC26B945181
:105380005B08D8A402D2060EEA6E170EE96EF2CFC1
:1053900037F6F29E000E0001B4EC04F00A0009009A
:1053A000F550EE6E0009FBE1060137BFF28E060EE6
:1053B000386F170E376F396B3A6B010E3B6F020E69
:1053C0003C6F000121EC0AF00501952D2FD0C3C5DB
:1053D00039F6140E06013A6F1E0E3B6F010E3C6F3C
:1053E000000134EC0BF0C4C539F6280E06013A6F03
:1053F0001E0E3B6F3C6B000134EC0BF0C5C539F65B
:105400003C0E06013A6F1E0E3B6F3C6B000134EC04
:105410000BF0C6C539F6500E06013A6F1E0E3B6FF3
:105420003C6B000134EC0BF095D00501955102085E
:105430002FE1C3C539F6140E06013A6F1E0E3B6FFD
:105440003C6B000134EC0BF0C4C539F6280E0601A4
:105450003A6F1E0E3B6F010E3C6F000134EC0BF0F7
:10546000C5C539F63C0E06013A6F1E0E3B6F3C6B0C
:10547000000134EC0BF0C6C539F6500E06013A6F48
:105480001E0E3B6F3C6B000134EC0BF063D005014A
:10549000955103082FE1C3C539F6140E06013A6F82
:1054A0001E0E3B6F3C6B000134EC0BF0C4C539F6AB
:1054B000280E06013A6F1E0E3B6F3C6B000134EC68
:1054C0000BF0C5C539F63C0E06013A6F1E0E3B6F58
:1054D000010E3C6F000134EC0BF0C6C539F6500EDE
:1054E00006013A6F1E0E3B6F3C6B000134EC0BF073
:1054F00031D00501955104082EE1C3C539F6140ECB
:1055000006013A6F1E0E3B6F3C6B000134EC0BF052
:10551000C4C539F6280E06013A6F1E0E3B6F3C6B70
:10552000000134EC0BF0C5C539F63C0E06013A6FAC
:105530001E0E3B6F3C6B000134EC0BF0C6C539F618
:10554000500E06013A6F1E0E3B6F010E3C6F0001BC
:1055500034EC0BF00501928A80AA34D08FB131D09F
:105560008F811E0E06013D6F00017DEC06F0010EDD
:105570000501966F9651040824E39651955D1FE14D
:10558000010E965D036AC30FE96E050E0320EA6EF5
:10559000EF2A010E965D036AC30FE96E050E032024
:1055A000EA6EEFBE0CD0EF50090809E2010E965DDD
:1055B000036AC30FE96E050E0320EA6EEF6A962BAD
:1055C000D9D701D08F91968084A033D08FB530D0B9
:1055D0008F851E0E06013D6F00017DEC06F0010E69
:1055E0000501966F9651040823E39651955D1EE1DF
:1055F000010E965D036AC30FE96E050E0320EA6E85
:10560000EF06010E965D036AC30FE96E050E0320D7
:10561000EA6EEFBE01D00AD0010E965D036AC30F99
:10562000E96E050E0320EA6E090EEF6E962BDAD7AF
:1056300001D08F95968284A211D08FB30ED08F8324
:10564000020E0601376F960E3D6F00017DEC06F0ED
:105650000601372FF8D70501952B01D08F9396843B
:1056600084A414D0040E0601376FAF0E3D6F000105
:105670007DEC06F00601372FF8D7010E0501946F77
:105680000601386B00010AEC07F00501955104088A
:10569000D8B07BD0010E9A6F956F0A0EA96EC3C564
:1056A000A8FFA69CA69EA684F250006EF29E0F0153
:1056B000550EA76EAA0EA76EA682A6B2FED7A69416
:1056C0000050F212320E06013D6F00017DEC06F033
:1056D0000B0EA96EC4C5A8FFA69CA69EA684F25078
:1056E000006EF29E0F01550EA76EAA0EA76EA6823F
:1056F000A6B2FED7A6940050F212320E06013D6FFC
:1057000000017DEC06F00C0EA96EC5C5A8FFA69C95
:10571000A69EA684F250006EF29E0F01550EA76E53
:10572000AA0EA76EA682A6B2FED7A6940050F212C9
:10573000320E06013D6F00017DEC06F00D0EA96EE4
:10574000C6C5A8FFA69CA69EA684F250006EF29E37
:105750000F01550EA76EAA0EA76EA682A6B2FED79F
:10576000A6940050F212040E0601376FFA0E3D6F38
:1057700000017DEC06F00601372FF8D7386B0001E9
:105780000AEC07F0010E0501946F94511408D8A497
:105790004EEF31F0050E0601376F0001A3EF13F055
:1057A00005019753D8A442D1928680B63FD18B8E03
:1057B000949E932D9ED0AAC53EF6A9C53DF6000144
:1057C00092EC06F0D89203C03FF602C03EF601C04C
:1057D0003DF600C03CF60601436B426B416B7F0E09
:1057E000406F00016BEC0CF002C63AF601C639F6C8
:1057F00000C638F6FFC537F603C03EF602C03DF6D8
:1058000001C03CF600C03BF6ADEC06F001E239E128
:1058100006014A6B370E4B6F7F0E4C6F3F0E4D6F7C
:10582000010E4E6F4F6B0001C0EC09F0060EEA6EE0
:10583000170EE96EF2CF37F6F29E000EC7EC04F0B9
:105840000A000900F550EE6E0009FBE1060137BFC2
:10585000F28E060E386F170E376F396B370E3A6FB0
:10586000020E3B6F010E3C6F000121EC0AF0010EAD
:1058700005019B6F000151EC14F00501909538D0A3
:1058800000010501909506014A6B370E4B6F7F0EA4
:105890004C6F3F0E4D6F010E4E6F4F6B0001C0EC11
:1058A00009F0060EEA6E170EE96EF2CF37F6F29E99
:1058B000000EDEEC04F00A000900F550EE6E00095F
:1058C000FBE1060137BFF28E060E386F170E376FF9
:1058D000396B370E3A6F020E3B6F010E3C6F0001C1
:1058E00021EC0AF005019B6B000151EC14F005015D
:1058F0009DD0AAC53EF6A9C53DF6000192EC06F082
:10590000D88203C03FF602C03EF601C03DF600C09B
:105910003CF60601436B426B416B7F0E406F00010A
:105920006BEC0CF003C03AF602C039F601C038F651
:1059300000C037F602C63EF601C63DF600C63CF68C
:10594000FFC53BF6ADEC06F001E239E106014A6B1A
:10595000370E4B6F7F0E4C6F3F0E4D6F010E4E6F2B
:105960004F6B0001C0EC09F0060EEA6E170EE96EEF
:10597000F2CF37F6F29E000EC7EC04F00A000900E1
:10598000F550EE6E0009FBE1060137BFF28E060E00
:10599000386F170E376F396B370E3A6F020E3B6F49
:1059A000010E3C6F000121EC0AF0010E05019B6F16
:1059B000000151EC14F00501909538D0000105016B
:1059C000908506014A6B370E4B6F7F0E4C6F3F0E72
:1059D0004D6F010E4E6F4F6B0001C0EC09F0060ECB
:1059E000EA6E170EE96EF2CF37F6F29E000EF4EC77
:1059F00004F00A000900F550EE6E0009FBE1060113
:105A000037BFF28E060E386F170E376F396B370EB1
:105A10003A6F020E3B6F010E3C6F000121EC0AF061
:105A200005019B6B000151EC14F00501972D34D05A
:105A3000928680B631D08B9E949E9095060EEA6E2B
:105A4000170EE96EF2CF37F6F29E000E00010AEC57
:105A500005F00A000900F550EE6E0009FBE10601B1
:105A600037BFF28E060E386F170E376F396B370E51
:105A70003A6F020E3B6F010E3C6F000121EC0AF001
:105A800005019B6B8B9094908B9294928B94949441
:105A9000DA6BD96BD86BD76B928680A661D08B9E60
:105AA000949E909590B11FD097C598F5976B06017D
:105AB0004A6B370E4B6F7F0E4C6F3F0E4D6F010ED2
:105AC0004E6F4F6B0001C0EC09F005019B6B8B9092
:105AD00094908B9294928B949494DA6BD96BD86B4C
