:040000004CEF2CF0A5
:08000800046ED8CF05F0E0CF33
:1000100006F00001E9CF0CF0EACF07F0E1CF08F0DD
:10002000E2CF09F0D9CF0AF0DACF0BF0F3CF12F01C
:10003000F4CF13F0FACF14F0FBCF15F000C00EF0A0
:1000400001C00FF002C010F003C011F09DA02CEF12
:1000500000F09EB0DFEF07F00EC000F00FC001F01F
:1000600010C002F011C003F00CC0E9FF07C0EAFFA6
:10007000078E08C0E1FF09C0E2FF0AC0D9FF0BC02C
:10008000DAFF12C0F3FF13C0F4FF14C0FAFF15C06B
:10009000FBFF045006C0E0FF05C0D8FF1000F2CF00
:1000A0000DF0F29EF76ABC0FF66E000EF722000EFE
:1000B000F86E0900F5500DBEF28E1200000000002F
:1000C0000000005F00000003000300143E143E1413
:1000D000242A7F2A1243330866613649552250008C
:1000E00005030000001C2241000041221C001408EE
:1000F0003E081408083E08080050300000080808B0
:100100000808006060000020100804023E514945C4
:100110003E0004027F00426151494622414949366E
:100120001814127F1027454545393E494949320187
:10013000017109073649494936264949493E003681
:100140003600000056360000081422410014141432
:100150001414004122140802015109063E41595568
:100160005E7E0909097E7F494949363E4141412267
:100170007F4141413E7F494949417F090909013E8B
:100180004141493A7F0808087F00417F41003040E3
:1001900040403F7F081422417F404040407F020C96
:1001A000027F7F0204087F3E4141413E7F090909E9
:1001B000061E2121215E7F0909097600F2CF0DF08C
:1001C000F29EF76ADA0FF66E010EF722000EF86E55
:1001D0000900F5500DBEF28E120026494949320140
:1001E000017F01013F4040403F1F2040201F7F20F2
:1001F00010207F41221C22410708700807615149E5
:100200004543007F41000002040810200000417FA8
:10021000000402010204404040404000010204008A
:1002200020545454787F4444443838444444443837
:100230004444447F385454541804047E050508543B
:1002400054543C7F0804047800447D40002040441E
:100250003D007F1028440000417F40007C0478046A
:10026000787C0804047838444444387C1414140816
:10027000081414147C007C080404485454542004CA
:10028000043F44443C4040207C1C2040201C3C4017
:1002900030403C44281028440C5050503C44645496
:1002A0004C44000836414100007F000041413608BF
:1002B000000201020402F2CF0DF0F29ED20FF66EA0
:1002C000020EF722000EF86E0900F5500DBEF28EF8
:1002D000120000000000000000000000001FFFFFEF
:1002E000FFFE00000000000000000000001FFFFFF4
:1002F000FFFE01C00000000000000000001C000024
:10030000000E07F00000000000000000001C0000CC
:10031000000E1C9C0000000000000000001C7F007C
:10032000000E180C0000000000000000001C41003E
:10033000000E30860000000000000000001C41009C
:10034000000E20820000000000000000001C41029E
:10035000000E60830000000000000000001C7F050C
:10036000000E70870000000000000000001C00026A
:10037000000E60C30000000000000000001C000030
:10038000000E20620000000000000000001C0000C1
:10039000000E30260000000000000000001FFFFFDC
:1003A000FFFE180C0000000000000000001C000010
:1003B000000E1C9C0000000000000000001C00005B
:1003C000000E07F00000000000000000001C00000C
:1003D000000E01C00000000000000000001C000032
:1003E000000E00000000000000000000001C0000E3
:1003F000000E00000000000000000000001C0000D3
:10040000000E00000000000000000000001C0000C2
:10041000000E00000000000000000000001C0000B2
:10042000000E00000000000000000000001C001E84
:10043000000E00000000000000000000001C00E1B1
:10044000C00E00000000000000000000001C018041
:10045000600E00000000000000000000001C027898
:10046000100E00000000000000000000001C067CD0
:10047000180E00000000000000000000001C047CBA
:10048000080E00000000000000000000001C083CF6
:10049000040E00000000000000000000001C081016
:1004A000040E01800000000000000000001C080C89
:1004B000E40E02400000000000000000001C082DB7
:1004C000F40E02700000000000000000001C086331
:1004D000F40E02400000000000000000001C08F1C3
:1004E000E40E03C00000000000000000001C04F047
:1004F000080E03F00000000000000000001C04F0E3
:10050000080E03C00000000000000000001C027084
:10051000100E03C00000000000000000001C0300DB
:10052000300E07E00000000000000000001C00C0CA
:10053000C00E0FF00000000000000000001C007F53
:10054000800E0BF00000000000000000001C000006
:10055000000E0BF00000000000000000001C000076
:10056000000E0FF00000000000000000001C000062
:10057000000E0FF00000000000000000001C000052
:10058000000E07E00000000000000000001C00005A
:10059000000E03C00000000000000000001C00006E
:1005A000000E00000000000000000000001C000021
:1005B000000E00000000000000000000001C000011
:1005C000000E00000000000000000000001C000001
:1005D000000E00000000000000000000001C0000F1
:1005E000000E00000000000000000000001C0000E1
:1005F000000E00000000000000000000001C0000D1
:10060000000E00000000000000000000001C0000C0
:10061000000E00000000000000000000001FFFFFAF
:10062000FFFE00000000000000000000001FFFFFB0
:10063000FFFE00000000000000000000001FFFFFA0
:10064000FFFE0000000000000000000000000000AD
:10065000000000000000000000000000000000009A
:10066000000000000000000000000000000000008A
:10067000000000000000000000000000000000007A
:10068000000000000000000000000000000000006A
:10069000000000000000000000000000000000005A
:1006A000000000000000000000000000000000004A
:1006B000000000000000000000000000000000003A
:1006C000000000000000000000000000000000002A
:1006D0000000F2CF0DF0F29EF76AF00FF66E060EF4
:1006E000F722000EF86E0900F5500DBEF28E1200D2
:1006F0004300F2CF0DF0F29EF76A100FF66E070E70
:10070000F722000EF86E0900F5500DBEF28E1200B1
:1007100056616C6F7200F2CF0DF0F29EF76A340FE3
:10072000F66E070EF722000EF86E0900F5500DBEAA
:10073000F28E120020416C6D6163656E61646F0022
:10074000F2CF0DF0F29EF76A5E0FF66E070EF722FB
:10075000000EF86E0900F5500DBEF28E12004A50E0
:1007600020496E676C6F62616C00F2CF0DF0F29EF3
:10077000F76A880FF66E070EF722000EF86E090072
:10078000F5500DBEF28E120020202020496E6375B8
:100790006261646F72610000F2CF0DF0F29EF76A41
:1007A000B60FF66E070EF722000EF86E0900F55030
:1007B0000DBEF28E1200202020202044696769744B
:1007C000616C20200000F2CF0DF0F29EF76AE40F7A
:1007D000F66E070EF722000EF86E0900F5500DBEFA
:1007E000F28E1200202020323430204C747300002E
:1007F000F2CF0DF0F29EF76A0E0FF66E080EF7229A
:10080000000EF86E0900F5500DBEF28E1200436C1A
:1008100061766500F2CF0DF0F29EF76A320FF66E48
:10082000080EF722000EF86E0900F5500DBEF28E8C
:100830001200436C617665204E7565766100F2CFDB
:100840000DF0F29EF76A5C0FF66E080EF722000EAE
:10085000F86E0900F5500DBEF28E1200436F7272F1
:10086000656374610000F2CF0DF0F29EF76A840FA9
:10087000F66E080EF722000EF86E0900F5500DBE58
:10088000F28E1200496E636F7272656374610000CC
:10089000F2CF0DF0F29EF76AAE0FF66E080EF72259
:1008A000000EF86E0900F5500DBEF28E1200436185
:1008B0007267616E646F2E2E0000F2CF0DF0F29E13
:1008C000F76AD80FF66E080EF722000EF86E0900D0
:1008D000F5500DBEF28E12004D656E750000F2CF20
:1008E0000DF0F29EF76AFC0FF66E080EF722000E6E
:1008F000F86E0900F5500DBEF28E1200496E696364
:100900006961722050726F6365736F00F2CF0DF0F2
:10091000F29EF76A2A0FF66E090EF722000EF86EA5
:100920000900F5500DBEF28E120053656C656363CD
:10093000696F6E2054656D706572617475726100C7
:10094000F2CF0DF0F29EF76A5E0FF66E090EF722F7
:10095000000EF86E0900F5500DBEF28E12005465BF
:100960006D706F72697A61646F720000F2CF0DF082
:10097000F29EF76A8A0FF66E090EF722000EF86EE5
:100980000900F5500DBEF28E120043616D62696F71
:1009900020436C6176650000F2CF0DF0F29EF76A9D
:1009A000B60FF66E090EF722000EF86E0900F5502C
:1009B0000DBEF28E120053656C656363696F6E65E0
:1009C0000000F2CF0DF0F29EF76AE00FF66E090E0E
:1009D000F722000EF86E0900F5500DBEF28E1200DF
:1009E00054656D706572617475726100F2CF0DF0BF
:1009F000F29EF76A0A0FF66E0A0EF722000EF86EE4
:100A00000900F5500DBEF28E120054656D706572CE
:100A10006174757261203100F2CF0DF0F29EF76AB9
:100A2000360FF66E0A0EF722000EF86E0900F5502A
:100A30000DBEF28E120054656D7065726174757230
:100A400061203200F2CF0DF0F29EF76A620FF66E6F
:100A50000A0EF722000EF86E0900F5500DBEF28E58
:100A6000120054656D706572617475726120330097
:100A7000F2CF0DF0F29EF76A8E0FF66E0A0EF72295
:100A8000000EF86E0900F5500DBEF28E120054698A
:100A9000656D706F0000F2CF0DF0F29EF76AB40F33
:100AA000F66E0A0EF722000EF86E0900F5500DBE24
:100AB000F28E12003A00F2CF0DF0F29EF76AD40FD8
:100AC000F66E0A0EF722000EF86E0900F5500DBE04
:100AD000F28E12005374617475733A436F6E7472C0
:100AE0006F6C616E646F0000F2CF0DF0F29EF76ADA
:100AF000060FF66E0B0EF722000EF86E0900F55089
:100B00000DBEF28E12005374617475733A43616CBA
:100B1000656E74616E646F00F2CF0DF0F29EF76A3D
:100B2000360FF66E0B0EF722000EF86E0900F55028
:100B30000DBEF28E12005374617475733A50756570
:100B4000727461204162696572746100F2CF0DF0C8
:100B5000F29EF76A6A0FF66E0B0EF722000EF86E21
:100B60000900F5500DBEF28E120053746174757356
:100B70003A416C61726D612030310000F2CF0DF0AE
:100B8000F29EF76A9A0FF66E0B0EF722000EF86EC1
:100B90000900F5500DBEF28E12002D2D2D2D2D00C9
:100BA000F2CF0DF0F29EF76ABE0FF66E0B0EF72233
:100BB000000EF86E0900F5500DBEF28E120054655D
:100BC0006D703A00F2CF0DF0F29EF76AE20FF66E0A
:100BD0000B0EF722000EF86E0900F5500DBEF28ED6
:100BE00012002500F2CF0DF0F29EF76A020FF66EAA
:100BF0000C0EF722000EF86E0900F5500DBEF28EB5
:100C0000120054696D653A00F2CF0DF0F29EF76A5A
:100C1000260FF66E0C0EF722000EF86E0900F55046
:100C20000DBEF28E120028483A4D2900F2CF0DF089
:100C3000F29EF76A4A0FF66E0C0EF722000EF86E5F
:100C40000900F5500DBEF28E120053746174757375
:100C50003A46696E616C697A61646F00F2CF0DF09B
:100C6000F29EF76A7A0FF66E0C0EF722000EF86EFF
:100C70000900F5500DBEF28E120050726F706F7247
:100C800063696F6E616C0000F2CF0DF0F29EF76A3F
:100C9000A60FF66E0C0EF722000EF86E0900F55046
:100CA0000DBEF28E1200496E74656772616C0000B1
:100CB000F2CF0DF0F29EF76ACE0FF66E0C0EF72211
:100CC000000EF86E0900F5500DBEF28E120044655C
:100CD000726976617469766F0000F2CF0DF0F29E52
:100CE000F76AF80FF66E0C0EF722000EF86E090088
:100CF000F5500DBEF28E1200546369636C6F0000F4
:100D0000F2CF0DF0F29EF76A1E0FF66E0D0EF7226F
:100D1000000EF86E0900F5500DBEF28E1200416A09
:100D200075737465202B0000F2CF0DF0F29EF76A08
:100D3000460FF66E0D0EF722000EF86E0900F55004
:100D40000DBEF28E1200416A75737465202D00008D
:100D5000F2CF0DF0F29EF76A6E0FF66E0D0EF722CF
:100D6000000EF86E0900F5500DBEF28E12004D65B2
:100D7000646961204D6F76696C00F2CF0DF0F29ED0
:100D8000F76A980FF66E0D0EF722000EF86E090046
:100D9000F5500DBEF28E120047616E616E6369619F
:100DA000202020200000F2CF0DF0F29EF76AC40F41
:100DB000F66E0D0EF722000EF86E0900F5500DBE0E
:100DC000F28E1200523531202020202020202020B9
:100DD0000000F2CF0DF0F29EF76AF00FF66E0D0EE6
:100DE000F722000EF86E0900F5500DBEF28E1200CB
:100DF0005250543130302042202020202000F2CFA9
:100E00000DF0F29EF76A1C0FF66E0E0EF722000E22
:100E1000F86E0900F5500DBEF28E1200496E205496
:100E2000656D70657261747572610000F2CF0DF0CE
:100E3000F29EF76A4A0FF66E0E0EF722000EF86E5B
:100E40000900F5500DBEF28E120020202020202037
:100E50002020202020200000F2CF0DF0F29EF76A23
:100E6000760FF66E0E0EF722000EF86E0900F550A2
:100E70000DBEF28E12005000F2CF0DF0F29EF76A16
:100E8000960FF66E0E0EF722000EF86E0900F55062
:100E90000DBEF28E12004900F2CF0DF0F29EF76AFD
:100EA000B60FF66E0E0EF722000EF86E0900F55022
:100EB0000DBEF28E12004400F2CF0DF0F29EF76AE2
:100EC000D60FF66E0E0EF722000EF86E0900F550E2
:100ED0000DBEF28E1200416A757374650000F2CF88
:100EE0000DF0F29EF76AFC0FF66E0E0EF722000E62
:100EF000F86E0900F5500DBEF28E1200416A75734E
:100F000074656E00F2CF0DF0F29EF76A220FF66E56
:100F10000F0EF722000EF86E0900F5500DBEF28E8E
:100F200012004D6564696100F2CF0DF0F29EF76A20
:100F3000460FF66E0F0EF722000EF86E0900F55000
:100F40000DBEF28E120047616E616E636961000032
:100F5000F2CF0DF0F29EF76A6E0FF66E0F0EF722CB
:100F6000000EF86E0900F5500DBEF28E12005235DB
:100F70003100F2CF0DF0F29EF76A900FF66E0F0E71
:100F8000F722000EF86E0900F5500DBEF28E120029
:100F90005250543130300000F2CF0DF0F29EF76A1B
:100FA000B60FF66E0F0EF722000EF86E0900F55020
:100FB0000DBEF28E1200496E2054656D00009E0E2B
:100FC000CF6E580ECE6E0501A12BD8B4A22BA32B49
:100FD000D8B4A42BA52BD8B4A62BA45303E1A351BA
:100FE000C70802E2010E8F6F902D15D0A651AE5D9D
:100FF00007E303E1AD51A55D03E28B94949402D025
:101000008B849494B051A65D06E303E1AF51A55DD6
:1010100002E3A66BA56BA25303E1A151C70815E239
:10102000A26BA16B878B952B9B2B8D2B93AD03D044
:10103000AB2BD8B4AC2B9D2D03D0A72BD8B4A82BA9
:1010400093A903D0A92BD8B4AA2B9E9000012CEF12
:1010500000F0060EEA6E620EE96EEF500DE0060E2D
:10106000016E006A002EFED7012EFBD77B0E006EAC
:10107000002EFED7EF2EF3D7000C040E0601596F99
:10108000FA0E626F0001E5DF0601592FF9D7850ED0
:10109000CD6E9D80C150C00B0D09C16EC050C00BFC
:1010A0000609C06EC08EC280C00EF2120001AEEF03
:1010B0002EF08E0E006E60C601F05FC602F0036A6D
:1010C000015209E102C001F0026A080E005E0152FD
:1010D00002E1006A08D0D89001BE04D00236013681
:1010E0000006F9D7019E000C06015A51D8B4A5D0CC
:1010F000666F5E51D8B4A1D0665F05E37F0E6627A8
:10110000D8B09BD006D0810E665FD8A096D0D8B458
:1011100094D066C600F0016A026A036A656B5BC61A
:1011200064F6648F5CC663F65DC662F6190E666F80
:101130006151625F0DE2010E635F0AE2645F08E2E3
:10114000655F06E2652B642B632B6151622728D013
:101150006051635F12E2010E645F0FE2655F0DE2B2
:10116000652B642B605163276151622719E3632B60
:1011700017E1642B15E1652B13D05F518009645F83
:101180000EE2010E655F0BE2652B5F51800964275B
:1011900060516327E9E3642BE7E1652BE5D7038022
:1011A000662F01D00BD0D89062376337643765372C
:1011B000D8900336023601366737BAD767A106D012
:1011C000D890013202320332673302D0000635E094
:1011D00067BF1ED0D8906237633764376537615177
:1011E000625F07E2010E635F04E2645F02E2655F33
:1011F0001AE36051635F05E2010E645F02E2655F1E
:1012000012E35F518009645F03E2010E655F0BE347
:10121000032A09E1022A07E1012A05E1002A0DE07B
:101220000132023203325BC666F65F51661B66AF5F
:1012300002D0018E06D0019E04D0006A016A026AC3
:10124000036A0001000C800ED8A202D00601631BC5
:101250000601686B696B5FC667F66351671B5E5179
:10126000D8B4DFD0666F006E6251D8B4E3D0665F49
:10127000D8B483D03EE363C66CF66C8F64C66BF65D
:1012800065C66AF6696BD8906C336B336A33693321
:10129000662FF8D767AF03D06881E0D06891669178
:1012A0006889060EEA6E610EE96EEBD0689967BF39
:1012B0000AD066A113D06C336B336A336933002ACA
:1012C000D8B4C7D00BD06CBF0CD0D89069376A3770
:1012D0006B376C370006D8B4BCD0F5D7688D6DD0AD
:1012E000689D5FC667F65FAF02D06C8FABD06C9F16
:1012F000A9D062C666F662C600F05E51665F5FC640
:101300006CF66C8F60C66BF661C66AF6696BD89036
:101310006C336B336A336933662FF8D767AF03D00A
:1013200068839CD068936691688B060EEA6E650EA2
:10133000E96EA7D0689B67BF0AD066A113D06C3353
:101340006B336A336933002AD8B483D00BD06CBFB7
:101350000CD0D89069376A376B376C370006D8B431
:1013600078D0F5D7688F29D0689F63C667F663AFDA
:1013700002D06C8F67D06C9F65D063C66CF66C8FA3
:1013800064C66BF665C66AF667AF04D06C9F688565
:1013900065D06895696B6691060EEA6E610EE96E1E
:1013A00070D067BF1CD05FC667F666A106D06C33ED
:1013B0006B336A336933002A4CE069AF0BD06A2B78
:1013C00009E16B2B07E16C2B05E16C336B336A335E
:1013D000002A3FE068BD84D768BFC6D71CD0800E06
:1013E0006C1B6CAF04D03AD063C667F60AD05FC6F8
:1013F00067F66C5306E16B5304E16A5302E1006A3D
:1014000021D06CBF08D0D89069376A376B376C37FA
:10141000002EF7D71ED067AF02D06C8F13D06C9F11
:1014200011D062C600F063C66CF664C66BF665C682
:101430006AF608D05EC600F05FC66CF660C66BF652
:1014400061C66AF66CC601F06BC602F06AC603F0AC
:1014500034D0006A016A026A036A2FD0696B6A1F7E
:101460006B1F6C1F691F692B05E16A2B03E16B2B56
:1014700001E16C2B68B112D768B354D768B589D72E
:10148000B3D7EF506A2705E36B2B03E16C2BD8B47D
:101490006681ED52EF506B2703E36C2BD8B4668165
:1014A000ED52EF50EFBE01D0800A6C27D8B06681B4
:1014B00068B9FCD668BB3ED774D70001000CF2CFE8
:1014C00059F6F29EAA6AA96AA69CA69EA680A85072
:1014D000060159BFF28E0501D16F140E0601626F2D
:1014E0000001B7DDF2CF59F6F29EAA6A010EA96E8D
:1014F000A69CA69EA680A850060159BFF28E0501A3
:10150000D26F140E0601626F0001A3DDF2CF59F60F
:10151000F29EAA6A020EA96EA69CA69EA680A8505C
:10152000060159BFF28E0501D36F140E0601626FDA
:1015300000018FDDF2CF59F6F29EAA6A030EA96E62
:10154000A69CA69EA680A850060159BFF28E050152
:10155000D46F140E0601626F00017BDDF2CF59F6E5
:10156000F29EAA6A040EA96EA69CA69EA680A8500A
:10157000060159BFF28E0501D96F140E0601626F84
:10158000000167DDF2CF59F6F29EAA6A050EA96E38
:10159000A69CA69EA680A850060159BFF28E050102
:1015A000DA6F140E0601626F000153DDF2CF59F6B7
:1015B000F29EAA6A060EA96EA69CA69EA680A850B8
:1015C000060159BFF28E0501DB6F140E0601626F32
:1015D00000013FDDF2CF59F6F29EAA6A070EA96E0E
:1015E000A69CA69EA680A850060159BFF28E0501B2
:1015F000DC6F140E0601626F00012BDDF2CF59F68D
:10160000F29EAA6A080EA96EA69CA69EA680A85065
:10161000060159BFF28E0501A06F140E0601626F1C
:10162000000117DDF2CF59F6F29EAA6A090EA96EE3
:10163000A69CA69EA680A850060159BFF28E606B9C
:101640005F6F000136DD03C02CF602C02BF601C02F
:101650002AF600C029F62CC65DF62BC65CF62AC613
:101660005BF629C65AF60601616B606B200E5F6F50
:10167000820E5E6F000138DD03C02CF602C02BF62F
:1016800001C02AF600C029F60601606BA0C55FF60E
:1016900000010FDDD89203C061F602C060F601C000
:1016A0005FF600C05EF62CC665F62BC664F62AC649
:1016B00063F629C662F6C7DD03C020F602C01FF636
:1016C00001C01EF600C01DF6140E0601626F000177
:1016D000C0DCF2CF59F6F29EAA6A0A0EA96EA69C49
:1016E000A69EA680A850060159BFF28E0501A06FE4
:1016F000140E0601626F0001ACDCF2CF59F6F29EC7
:10170000AA6A0B0EA96EA69CA69EA680A8500601EA
:1017100059BFF28E606B5F6F0001CBDC03C02CF60B
:1017200002C02BF601C02AF600C029F62CC65DF6D1
:101730002BC65CF62AC65BF629C65AF60601616B13
:10174000606B200E5F6F820E5E6F0001CDDC03C008
:101750002CF602C02BF601C02AF600C029F60601BD
:10176000606BA0C55FF60001A4DCD89203C061F6EF
:1017700002C060F601C05FF600C05EF62CC665F6DA
:101780002BC664F62AC663F629C662F65CDD03C082
:1017900024F602C023F601C022F600C021F6140E82
:1017A0000601626F000155DCF2CF59F6F29EAA6A7B
:1017B0000C0EA96EA69CA69EA680A850060159BF35
:1017C000F28E0501A06F140E0601626F000141DC6C
:1017D000F2CF59F6F29EAA6A0D0EA96EA69CA69E9D
:1017E000A680A850060159BFF28E606B5F6F0001A2
:1017F00060DC03C02CF602C02BF601C02AF600C044
:1018000029F62CC65DF62BC65CF62AC65BF629C601
:101810005AF60601616B606B200E5F6F820E5E6F81
:10182000000162DC03C02CF602C02BF601C02AF6D0
:1018300000C029F60601606BA0C55FF6000139DC27
:10184000D89203C061F602C060F601C05FF600C026
:101850005EF62CC665F62BC664F62AC663F629C664
:1018600062F6F1DC03C028F602C027F601C026F6B6
:1018700000C025F6140E0601626F000129EC08F085
:10188000F2CF59F6F29EAA6A0E0EA96EA69CA69EEB
:10189000A680A850060159BFF28E606B5F6F0001F1
:1018A00008DC03C004F602C003F601C002F600C063
:1018B00001F60A0E0601626F000129EC08F0F2CF72
:1018C00059F6F29EAA6A0F0EA96EA69CA69EA68045
:1018D000A850060159BFF28E606B5F6F000159EC92
:1018E00008F003C0C8F502C0C7F501C0C6F500C0C6
:1018F000C5F50A0E0601626F000129EC08F0F2CF6F
:1019000059F6F29EAA6A100EA96EA69CA69EA68003
:10191000A850060159BFF28E606B5F6F000159EC51
:1019200008F003C0CCF502C0CBF501C0CAF500C079
:10193000C9F50A0E0601626F000129EC08F0F2CF2A
:1019400059F6F29EAA6A110EA96EA69CA69EA680C2
:10195000A850060159BFF28E606B5F6F000159EC11
:1019600008F003C0ECF502C0EBF501C0EAF500C0D9
:10197000E9F50A0E0601626F000129EC08F0F2CFCA
:1019800059F6F29EAA6A120EA96EA69CA69EA68081
:10199000A850060159BFF28E05018A6F0A0E060192
:1019A000626F000129EC08F0F2CF59F6F29EAA6AA4
:1019B000130EA96EA69CA69EA680A850060159BF2C
:1019C000F28E05018B6F0A0E0601626F000129EC91
:1019D00008F0F2CF59F6F29EAA6A140EA96EA69CE0
:1019E000A69EA680A850060159BFF28E05018C6FF5
:1019F0000A0E0601626F000129EC08F0F2CF59F6D9
:101A0000F29EAA6A160EA96EA69CA69EA680A85053
:101A1000060159BFF28E606B5F6F000159EC08F050
:101A200003C02CF602C02BF601C02AF600C029F62E
:101A30002CC65DF62BC65CF62AC65BF629C65AF69E
:101A40000601616B606B200E5F6F820E5E6F00019E
:101A500074EC08F003C02CF602C02BF601C02AF685
:101A600000C029F60A0E0601626F000129EC08F099
:101A7000F2CF59F6F29EAA6A150EA96EA69CA69EF2
:101A8000A680A850060159BFF28E606B5F6F0001FF
:101A900059EC08F0D89203C061F602C060F601C0AC
:101AA0005FF600C05EF62CC665F62BC664F62AC645
:101AB00063F629C662F623EC09F003C0C0F502C044
:101AC000BFF501C0BEF500C0BDF50A0E0601626F8C
:101AD000000129EC08F0F2CF59F6F29EAA6A180E1E
:101AE000A96EA69CA69EA680A850060159BFF28E9C
:101AF0005A6FF2CF5BF6F29EAA6A170EA96EA69CE9
:101B0000A69EA680A8505BBFF28E5C6F5AC603F0FB
:101B10005C515F6F03C060F6000159EC08F003C030
:101B2000E4F502C0E3F501C0E2F500C0E1F50A0EFC
:101B30000601626F000129EC08F0F2CF59F6F29E1F
:101B4000AA6A1A0EA96EA69CA69EA680A850060197
:101B500059BFF28E606B5F6F000159EC08F003C053
:101B60002CF602C02BF601C02AF600C029F62CC6BE
:101B70005DF62BC65CF62AC65BF629C65AF6060148
:101B8000616B606B200E5F6F820E5E6F000174EC04
:101B900008F003C02CF602C02BF601C02AF600C0E4
:101BA00029F60A0E0601626F000129EC08F0F2CF57
:101BB00059F6F29EAA6A190EA96EA69CA69EA68048
:101BC000A850060159BFF28E606B5F6F000159EC9F
:101BD00008F0D89203C061F602C060F601C05FF65B
:101BE00000C05EF62CC665F62BC664F62AC663F600
:101BF00029C662F623EC09F003C0C4F502C0C3F5A0
:101C000001C0C2F500C0C1F50A0E0601626F0001F5
:101C100029EC08F0F2CF59F6F29EAA6A1B0EA96EC3
:101C2000A69CA69EA680A850060159BFF28E05016B
:101C3000966F0A0E0601626F000129EC08F0B0EF02
:101C40002EF05EC665F606016251651B65AF05D0D4
:101C5000D894D8905EBFD8802FD05EC665F661C696
:101C600066F65D51665F06E065AF26D0D850010A82
:101C7000D86E22D062C666F65E51665F06E065AF3A
:101C80001BD0D850010AD86E17D063C666F65F51D4
:101C9000665F06E065AF10D0D850010AD86E0CD050
:101CA00064C666F66051665F06E065AF05D0D85041
:101CB000010AD86E01D0D8900001000C0501D1BFF7
:101CC00003D0D151090803E3D1BF01D01CD0D16B9F
:101CD000AA6AA96AA86AA69CA69EA684F250006E6B
:101CE000F29E0F01550EA76EAA0EA76EA682A6B28F
:101CF000FED7A6940050F212140E0601626F000186
:101D000029EC08F00501D2BF03D0D251090803E342
:101D1000D2BF01D01DD0D26BAA6A010EA96EA86AEB
:101D2000A69CA69EA684F250006EF29E0F01550E50
:101D3000A76EAA0EA76EA682A6B2FED7A6940050E2
:101D4000F212140E0601626F000129EC08F0050181
:101D5000D3BF03D0D351090803E3D3BF01D01DD0B3
:101D6000D36BAA6A020EA96EA86AA69CA69EA68438
:101D7000F250006EF29E0F01550EA76EAA0EA76ECE
:101D8000A682A6B2FED7A6940050F212140E060147
:101D9000626F000129EC08F00501D4BF03D0D451D3
:101DA000090803E3D4BF01D01DD0D46BAA6A030E87
:101DB000A96EA86AA69CA69EA684F250006EF29E0A
:101DC0000F01550EA76EAA0EA76EA682A6B2FED769
:101DD000A6940050F212140E0601626F000129EC65
:101DE00008F00501D9BF03D0D951090803E3D9BFD1
:101DF00001D01DD0D96BAA6A040EA96EA86AA69C50
:101E0000A69EA684F250006EF29E0F01550EA76E9C
:101E1000AA0EA76EA682A6B2FED7A6940050F21212
:101E2000140E0601626F000129EC08F00501DABF0B
:101E300003D0DA51090803E3DABF01D01DD0DA6B11
:101E4000AA6A050EA96EA86AA69CA69EA684F25050
:101E5000006EF29E0F01550EA76EAA0EA76EA68207
:101E6000A6B2FED7A6940050F212140E0601626FBD
:101E7000000129EC08F00501DBBF03D0DB510908A4
:101E800003E3DBBF01D01DD0DB6BAA6A060EA96E8F
:101E9000A86AA69CA69EA684F250006EF29E0F0130
:101EA000550EA76EAA0EA76EA682A6B2FED7A6945E
:101EB0000050F212140E0601626F000129EC08F0C6
:101EC0000501DCBF03D0DC51090803E3DCBF01D00E
:101ED0001CD0DC6BAA6A070EA96EA86AA69CA69EF7
:101EE000A684F250006EF29E0F01550EA76EAA0E48
:101EF000A76EA682A6B2FED7A6940050F212140EC8
:101F00000601626F000129EC08F00601606B5F6B4F
:101F1000700E5E6F840E5D6F20C664F61FC663F69A
:101F20001EC662F61DC661F600018BDE3EE30601A9
:101F3000206B1F6B700E1E6F830E1D6FAA6A080E3A
:101F4000A96E1E0EA86EA69CA69EA684F250006ED8
:101F5000F29E0F01550EA76EAA0EA76EA682A6B21C
:101F6000FED7A6940050F212140E0601626F000113
:101F700029EC08F0AA6A090EA96EA86AA69CA69E7A
:101F8000A684F250006EF29E0F01550EA76EAA0EA7
:101F9000A76EA682A6B2FED7A6940050F212140E27
:101FA0000601626F000129EC08F00601606B5F6BAF
:101FB000700E5E6F840E5D6F24C664F623C663F6F2
:101FC00022C662F621C661F600013BDE3EE3060151
:101FD000246B236B700E226F830E216FAA6A0A0E88
:101FE000A96E1E0EA86EA69CA69EA684F250006E38
:101FF000F29E0F01550EA76EAA0EA76EA682A6B27C
:10200000FED7A6940050F212140E0601626F000172
:1020100029EC08F0AA6A0B0EA96EA86AA69CA69ED7
:10202000A684F250006EF29E0F01550EA76EAA0E06
:10203000A76EA682A6B2FED7A6940050F212140E86
:102040000601626F000129EC08F00601606B5F6B0E
:10205000700E5E6F840E5D6F28C664F627C663F649
:1020600026C662F625C661F60001EBDD3EE30601F9
:10207000286B276B700E266F830E256FAA6A0C0ED5
:10208000A96E1E0EA86EA69CA69EA684F250006E97
:10209000F29E0F01550EA76EAA0EA76EA682A6B2DB
:1020A000FED7A6940050F212140E0601626F0001D2
:1020B00029EC08F0AA6A0D0EA96EA86AA69CA69E35
:1020C000A684F250006EF29E0F01550EA76EAA0E66
:1020D000A76EA682A6B2FED7A6940050F212140EE6
:1020E0000601626F000129EC08F00601606B5F6B6E
:1020F000200E5E6F840E5D6F04C664F603C663F641
:1021000002C662F601C661F600019BDD22E306010C
:10211000046B036B026B800E016FAA6A0E0EA96E30
:10212000020EA86EA69CA69EA684F250006EF29E99
:102130000F01550EA76EAA0EA76EA682A6B2FED7F5
:10214000A6940050F212140E0601626F000129ECF1
:1021500008F00601606B5F6B200E5E6F840E5D6F92
:10216000C8C564F6C7C563F6C6C562F6C5C561F6DF
:10217000000167DD22E30501C86BC76BC66B7F0EEC
:10218000C56FAA6A0F0EA96E010EA86EA69CA69E28
:10219000A684F250006EF29E0F01550EA76EAA0E95
:1021A000A76EA682A6B2FED7A6940050F212140E15
:1021B0000601626F000129EC08F00601606B5F6B9D
:1021C000480E5E6F860E5D6FCCC564F6CBC563F6B8
:1021D000CAC562F6C9C561F6000133DD23E3050116
:1021E000CC6BCB6B200ECA6F840EC96FAA6A100E1F
:1021F000A96E280EA86EA69CA69EA684F250006E1C
:10220000F29E0F01550EA76EAA0EA76EA682A6B269
:10221000FED7A6940050F212140E0601626F000160
:1022200029EC08F00601606B5F6B200E5E6F840E78
:102230005D6FECC564F6EBC563F6EAC562F6E9C509
:1022400061F60001FEDC23E30501EC6BEB6B200E75
:10225000EA6F810EE96FAA6A110EA96E050EA86ECB
:10226000A69CA69EA684F250006EF29E0F01550E0B
:10227000A76EAA0EA76EA682A6B2FED7A69400509D
:10228000F212140E0601626F000129EC08F005013C
:102290008A5164081DE28A6BAA6A120EA96EA86AA6
:1022A000A69CA69EA684F250006EF29E0F01550ECB
:1022B000A76EAA0EA76EA682A6B2FED7A69400505D
:1022C000F212140E0601626F000129EC08F00501FC
:1022D0008B5164081DE28B6BAA6A130EA96EA86A63
:1022E000A69CA69EA684F250006EF29E0F01550E8B
:1022F000A76EAA0EA76EA682A6B2FED7A69400501D
:10230000F212140E0601626F000129EC08F00501BB
:102310008C5150081EE2500E8C6FAA6A140EA96EE2
:10232000500EA86EA69CA69EA684F250006EF29E49
:102330000F01550EA76EAA0EA76EA682A6B2FED7F3
:10234000A6940050F212140E0601626F000129ECEF
:1023500008F00601606B5F6B480E5E6F840E5D6F68
:10236000C0C564F6BFC563F6BEC562F6BDC561F6FD
:10237000000167DC41E3CD0E0501C06FCC0EBF6FDD
:10238000200EBE6F840EBD6FAA6A150EA96E280EB0
:10239000A86EA69CA69EA684F250006EF29E0F0127
:1023A000550EA76EAA0EA76EA682A6B2FED7A69459
:1023B0000050F212140E0601626F000129EC08F0C1
:1023C000AA6A160EA96E020EA86EA69CA69EA684E8
:1023D000F250006EF29E0F01550EA76EAA0EA76E68
:1023E000A682A6B2FED7A6940050F212140E0601E1
:1023F000626F000129EC08F00601606B5F6B480E0C
:102400005E6F8B0E5D6FE4C564F6E3C563F6E2C5EF
:1024100062F6E1C561F6000114DC40E30501E46BFE
:10242000C00EE36F410EE26F8B0EE16FAA6A170ECA
:10243000A96E180EA86EA69CA69EA684F250006EE9
:10244000F29E0F01550EA76EAA0EA76EA682A6B227
:10245000FED7A6940050F212140E0601626F00011E
:1024600029EC08F0AA6A180EA96E380EA86EA69C70
:10247000A69EA684F250006EF29E0F01550EA76E26
:10248000AA0EA76EA682A6B2FED7A6940050F2129C
:10249000140E0601626F000129EC08F00601606B62
:1024A0005F6B5E6B800E5D6FC4C564F6C3C563F67B
:1024B000C2C562F6C1C561F6000121EC0EF03DE334
:1024C0000501C46BC36BC26B7E0EC16FAA6A190E85
:1024D000A96EA86AA69CA69EA684F250006EF29EE3
:1024E0000F01550EA76EAA0EA76EA682A6B2FED742
:1024F000A6940050F212140E0601626F000129EC3E
:1025000008F0AA6A1A0EA96E050EA86EA69CA69ED1
:10251000A684F250006EF29E0F01550EA76EAA0E11
:10252000A76EA682A6B2FED7A6940050F212140E91
:102530000601626F000129EC08F0050196510108BF
:102540001FE2010E966FAA6A1B0EA96E010EA86EFD
:10255000A69CA69EA684F250006EF29E0F01550E18
:10256000A76EAA0EA76EA682A6B2FED7A6940050AA
:10257000F212140E0601626F000129EC08F0050149
:102580000001B2EF2EF00601735303E093928A82AA
:1025900002D093908A8093988A98956A74C68CFF2B
:1025A000000093968A8600D000D0000093968A9609
:1025B00093908A9093928A920001000C0601646BBA
:1025C000170E636F020E666F170E656F6151FF0D78
:1025D000F3CF62F6686B676B685101081AE364C653
:1025E00003F06351632BD8B4642BE96E03C0EAFF98
:1025F00062C6EFFF66C603F06551652BD8B4662B43
:10260000E96E03C0EAFF62C6EFFF672BD8B4682B00
:10261000E3D70001000C06016F6B170E6E6F020E00
:10262000716F170E706F6C6B6C5107084EE3939AC5
:102630008A9A736B400E746F0001A5DF010E0601CC
:10264000736F400E746F00019EDF06016C51B80974
:10265000726F736B746F000196DF06016C51B809DD
:10266000726F010E736F72C674F600018CDF939A5D
:102670008A8A06016D6B6D513F0825E36FC603F032
:102680006E516E2BD8B46F2BE96E03C0EAFFEFCF0B
:1026900072F6736B72C674F6000175DF060171C6BF
:1026A00003F07051702BD8B4712BE96E03C0EAFFB0
:1026B000EFCF72F6010E736F72C674F6000163DF1E
:1026C00006016D2BD8D76C2BAFD70001000C93946B
:1026D0008A8493968A9693908A9093928A92939AF8
:1026E0008A9A0601736BC00E746F00014CDF010EF5
:1026F0000601736FC00E746F000145DF0601736B36
:10270000400E746F00013FDF010E0601736F400E33
:10271000746F000138DF0601736BB80E746F00012F
:1027200032DF010E0601736FB80E746F00012BDFEC
:102730000601592D0ED0736B3F0E746F000123DF1D
:10274000010E0601736F3F0E746F00011CDF0DD088
:102750000601736B3E0E746F000115DF010E06015A
:10276000736F3E0E746F00010EDF0601616B000196
:1027700025DF51DF000C0601936B8E31926F92338F
:1027800092331F0E921792379337923793379237BF
:102790009337923793379237933792379337C00EE8
:1027A00092178D519227000E93238D513F080DE211
:1027B000170E9225946F020E9321956F400E945D33
:1027C000906F000E9559916F06D0170E9225906F5D
:1027D000000E9321916F8F5315E091C603F090C6C0
:1027E000E9FF91C6EAFF8E51070B946F010E006E50
:1027F0009451016E04E0D8900036012EFCD70050B1
:10280000EF1215D091C603F090C6E9FF91C6EAFF1A
:102810008E51070B946F010E006E9451016E04E00F
:10282000D8900036012EFCD70050FF0AEF160001A9
:10283000000C75C603F0060174C6E9FF75C6EAFF11
:10284000EF52D8B4D0D075C603F074C6E9FF75C690
:10285000EAFFEF50520827E375C603F074C6E9FF9C
:1028600075C6EAFF200EEF5C050DF350036A816F19
:10287000060EEA6E7C0EE96E856B81C684F6F2CF99
:1028800082F6F29E050E016EF76A815100014FEC4F
:1028900000F00A000900F5CFEEFF012EFBD706017C
:1028A00082BFF28E35D075C603F074C6E9FF75C6D7
:1028B000EAFFEF507E0827E375C603F074C6E9FF10
:1028C00075C6EAFF530EEF5C050DF350036A816F86
:1028D000060EEA6E7C0EE96E856B81C684F6F2CF39
:1028E00082F6F29E050E016EF76A81510001DEEC60
:1028F00000F00A000900F5CFEEFF012EFBD706011C
:1029000082BFF28E05D07C6B7D6B7E6B7F6B806BA4
:1029100075C603F07451E96E03C0EAFFEF500A0A6E
:10292000000103E0070A09E00BD006017651070D0C
:10293000F350010F732750D000010601726B4CD089
:1029400006017651050DF35072257F0806E2726B81
:102950007651070DF350010F7327786B78510408F7
:102960003BE3796B7951060833E3036A78517C0FB6
:10297000E96E060E0320EA6EEFCF81F681C600F005
:102980007951016E04E0D8900032012EFCD700A0EE
:102990001DD07A6B76517A5D19E27B6B76517B5D47
:1029A00013E27B517225816F79517603F3507325C1
:1029B0007A25826F81C68DF68E6F77C68FF60001FD
:1029C000DADE06017B2BEAD77A2BE4D7792BCAD73C
:1029D000782B76517227C2D7742BD8B4752B722BF3
:1029E000000127D706010001000C010E0601866FC9
:1029F000876F8C6B7D517F5D8D6F8D518DAF03D057
:102A0000000ED8808D55036A846F03C085F67E5111
:102A1000805D8D6F8D518DAF03D0000ED8808D55A8
:102A2000036A826F03C083F67D517F5D02E2FF0E71
:102A3000866F7E51805D02E2FF0E876F8351855D58
:102A40003BE303E18251845D37E3D89082378337DB
:102A50008451825D006E8551835900C088F6896F6C
:102A60008451885D8A6F855189598B6F855303E145
:102A70008C51845D20E37DC68DF67EC68EF681C6C0
:102A80008FF6000178DE060189BF01D008D082519F
:102A900088278351892386517D257D6F0AD08A51ED
:102AA00088278B51892386517D257D6F87517E250F
:102AB0007E6F8C2BDBD736D0D89084378537825108
:102AC000845D006E8351855900C088F6896F8251FC
:102AD000885D8A6F835189598B6F835303E18C51D1
:102AE000825D20E37DC68DF67EC68EF681C68FF6AA
:102AF000000141DE060189BF01D008D0845188273A
:102B00008551892387517E257E6F0AD08A51882777
:102B10008B51892386517D257D6F87517E257E6F60
:102B20008C2BDBD70001000C060176532EE074518C
:102B3000725D05E272C679F674C67AF604D074C680
:102B400079F672C67AF67551735D05E273C67BF647
:102B500075C67CF604D075C67BF673C67CF67951D3
:102B60007A5D12E37BC678F678517C5D0BE379C61B
:102B70008DF678C68EF677C68FF60001FCDD06016D
:102B8000782BF2D7792BEBD72ED072C67DF673C691
:102B90007EF674C67FF673C680F677C681F60001AE
:102BA00024DF72C67DF675C67EF674C67FF675C6DE
:102BB00080F677C681F619DF72C67DF673C67EF69B
:102BC00072C67FF675C680F677C681F60EDF74C6CC
:102BD0007DF673C67EF674C67FF675C680F677C638
:102BE00081F603DF06010001000C060161C601F059
:102BF00062C603F061C667F662C668F6060EEA6E44
:102C0000390EE96E62C6E2FF61C6E1FFE752E6CF28
:102C1000EEFFFCE16551020814E1010E6325676FC8
:102C2000010E6425686F67C672F6736F060E756FC6
:102C3000390E746F66C676F6010E776F0001F9DD06
:102C40000601652D25D06651080DF3506425676F88
:102C5000726B64C673F67F0E746F67C675F6010EED
:102C6000766F776F000160DF010E06016325676FE5
:102C7000010E6425686F67C672F6736F060E756F76
:102C8000390E746F66C676F6776B0001D2DD0601E9
:102C9000655325E16651080DF3506425676F726B2B
:102CA00064C673F67F0E746F67C675F6010E766F95
:102CB000776B000139DF010E06016325676F010E96
:102CC0006425686F67C672F6736F060E756F390EEE
:102CD000746F66C676F6010E776F0001AADD0001FB
:102CE0009ADC000C06015A35006E0036FC0E001608
:102CF00000C001F0C250C30B0010C26E010E626F23
:102D0000000129EC08F0C282C2B2FED7C4CF60F63F
:102D1000C3CF5FF6000159EC08F003C05EF602C0B5
:102D20005DF601C05CF600C05BF65BC600F05CC6F9
:102D300001F05DC602F05EC603F0000C0601795199
:102D4000D8B471D0006E7D51D8B46DD0002604E3A4
:102D5000810E002668E204D07F0E005E64E363E02B
:102D60007AC681F67E51811B7A8F7E8F7C518003DB
:102D7000F4CF83F67B517F03F4CF03F0F3CF82F6D9
:102D80008003F3508327F4508223000E03227C51EA
:102D90007F03F3508327F4508223000E026A03223C
:102DA00002227A518003F3508227F4500322000E4E
:102DB00002227A517F03F3500326F4500222000EC0
:102DC000016A01227C517E03F3508227F4500322D2
:102DD000000E022201227B517E03F3500326F450A1
:102DE0000222000E01227A517E03F3500226F45093
:102DF0000122002A01BE05D0823703360236013691
:102E00000006000E82AF0AD0032A022201220150DE
:102E100005E1025003E1035001E1002A81BF018E68
:102E200081AF019E04D0006A016A026A036A000150
:102E3000000C06015D515F03F3CF01F0F4CF00F009
:102E40006003F35000265E515F03F3500020026ED2
:102E50000001000C0501962D1FD1F86BF76BF66B86
:102E6000F56B010E06015A6F00013CDF03C0E0F56F
:102E700002C0DFF501C0DEF500C0DDF5B80E0601C9
:102E80007C6F400E7B6F020E7A6F7C0E796FE0C50F
:102E900080F6DFC57FF6DEC57EF6DDC57DF6000176
:102EA0004DDF00C05AF601C05BF602C05CF603C0FD
:102EB0005DF6D88203C061F602C060F601C05FF61D
:102EC00000C05EF6190E0601656F040E646F480EB1
:102ED000636F830E626F000123EC09F003C0FCF501
:102EE00002C0FBF501C0FAF500C0F9F5010E0601BC
:102EF000595D0501895D02E001E3896B06015E6BA6
:102F000089C55DF6606B040E5F6F000192DF0150B2
:102F1000170FE96E040E0220EA6EF9C5EFFFFAC53D
:102F2000ECFFFBC5ECFFFCC5ECFF0501892B886BB2
:102F3000060159510501885D3FE206015E6B88C5B7
:102F40005DF6606B040E5F6F000173DF02C003F07B
:102F50000150170FE96E040E0220EA6EEFCF00F069
:102F6000ECCF01F0ECCF02F0ECCF03F0EACF5BF650
:102F7000E9CF5AF6D892F8C561F6F7C560F6F6C5FE
:102F80005FF6F5C55EF603C065F602C064F601C0E3
:102F900063F600C062F623EC09F05BC6EAFF5AC68E
:102FA000E9FF03C0F8F502C0F7F501C0F6F500C06F
:102FB000F5F50501882BBCD70601606B59C65FF695
:102FC000000159EC08F0F8C55DF6F7C55CF6F6C5EA
:102FD0005BF6F5C55AF603C061F602C060F601C0A3
:102FE0005FF600C05EF674EC08F003C0F8F502C0AE
:102FF000F7F501C0F6F500C0F5F50601606B8AC56E
:103000005FF6000159EC08F000C05AF601C05BF60B
:1030100002C05CF603C05DF60601606B8BC55FF60F
:10302000000159EC08F0D8825DC661F65CC660F616
:103030005BC65FF65AC65EF603C065F602C064F66C
:1030400001C063F600C062F623EC09F0D892F8C51F
:1030500061F6F7C560F6F6C55FF6F5C55EF603C026
:1030600065F602C064F601C063F600C062F623ECA8
:1030700009F003C0F8F502C0F7F501C0F6F500C08D
:10308000F5F5F5C500F0F6C501F0F7C502F0F8C595
:1030900003F0DCD1DBD105019653D8A4D8D1F86B6D
:1030A000F76BF66BF56B06015A6B00011BDE03C074
:1030B000E0F502C0DFF501C0DEF500C0DDF5E0C5DA
:1030C0005DF6DFC55CF6DEC55BF6DDC55AF6C0C54C
:1030D00061F6BFC560F6BEC55FF6BDC55EF674ECB1
:1030E00008F003C0E0F502C0DFF501C0DEF500C066
:1030F000DDF506015D6B5C6B5B6B890E5A6FE0C59D
:1031000061F6DFC560F6DEC55FF6DDC55EF600017F
:1031100074EC08F000C05AF601C05BF602C05CF621
:1031200003C05DF6D88203C061F602C060F601C03C
:103130005FF600C05EF60601656B646B636B7F0E25
:10314000626F000123EC09F0E4C55DF6E3C55CF6AF
:10315000E2C55BF6E1C55AF603C061F602C060F64F
:1031600001C05FF600C05EF674EC08F003C0E8F53D
:1031700002C0E7F501C0E6F500C0E5F5D882E8C574
:1031800061F6E7C560F6E6C55FF6E5C55EF6C4C55F
:1031900065F6C3C564F6C2C563F6C1C562F623EC25
:1031A00009F003C0E8F502C0E7F501C0E6F500C08C
:1031B000E5F5010E0601595D0501895D02E001E3B7
:1031C000896B06015E6B89C55DF6606B040E5F6FEF
:1031D00000012FDE0150170FE96E040E0220EA6E87
:1031E000E5C5EFFFE6C5ECFFE7C5ECFFE8C5ECFF82
:1031F0000501892B886B060159510501885D3FE265
:1032000006015E6B88C55DF6606B040E5F6F0001A2
:1032100010DE02C003F00150170FE96E040E022009
:10322000EA6EEFCF00F0ECCF01F0ECCF02F0ECCF84
:1032300003F0EACF5BF6E9CF5AF6D892F8C561F60B
:10324000F7C560F6F6C55FF6F5C55EF603C065F630
:1032500002C064F601C063F600C062F623EC09F018
:103260005BC6EAFF5AC6E9FF03C0F8F502C0F7F5EE
:1032700001C0F6F500C0F5F50501882BBCD70601A5
:10328000606B59C65FF6000159EC08F0F8C55DF6B1
:10329000F7C55CF6F6C55BF6F5C55AF603C061F6F0
:1032A00002C060F601C05FF600C05EF674EC08F084
:1032B00003C0F8F502C0F7F501C0F6F500C0F5F55A
:1032C000F8C57CF6F7C57BF6F6C57AF6F5C579F64E
:1032D000F8C580F6F7C57FF6F6C57EF6F5C57DF62E
:1032E0002DDD00C05AF601C05BF602C05CF603C0DB
:1032F0005DF603C07CF602C07BF601C07AF600C022
:1033000079F630C680F62FC67FF62EC67EF62DC61D
:103310007DF614DD00C05AF601C05BF602C05CF613
:1033200003C05DF6F8C57CF6F7C57BF6F6C57AF600
:10333000F5C579F634C680F633C67FF632C67EF61A
:1033400031C67DF6FBDCD8925DC661F65CC660F6E0
:103350005BC65FF65AC65EF603C065F602C064F649
:1033600001C063F600C062F623EC09F000C05AF613
:1033700001C05BF602C05CF603C05DF6D89203C0E4
:1033800061F602C060F601C05FF600C05EF638C6A6
:1033900065F637C664F636C663F635C662F623ECC4
:1033A00009F003C0FCF502C0FBF501C0FAF500C04E
:1033B000F9F50601606B8AC55FF6000159EC08F06B
:1033C00000C05AF601C05BF602C05CF603C05DF6B1
:1033D0000601606B8BC55FF6000159EC08F0D882DE
:1033E0005DC661F65CC660F65BC65FF65AC65EF601
:1033F00003C065F602C064F601C063F600C062F661
:1034000023EC09F0D892FCC561F6FBC560F6FAC55D
:103410005FF6F9C55EF603C065F602C064F601C04A
:1034200063F600C062F623EC09F003C0FCF502C0AD
:10343000FBF501C0FAF500C0F9F5F9C500F0FAC5D1
:1034400001F0FBC502F0FCC503F000D0050100014E
:10345000000C010E0601596F000167EC13F0060124
:10346000616B0001DEEC12F0060EEA6E390EE96EB9
:10347000F2CF59F6F29E000EA0EC03F00A0009000C
:10348000F550EE6E0009FBE1060159BFF28E060E03
:10349000626F390E616F636B646B656B020E666FF2
:1034A0000001F5EC15F0060EEA6E390EE96EF2CF6A
:1034B00059F6F29E000EB5EC03F00A000900F55033
:1034C000EE6E0009FBE1060159BFF28E060E626F37
:1034D000390E616F636B140E646F656B010E666F5E
:1034E0000001F5EC15F0060EEA6E390EE96EF2CF2A
:1034F00059F6F29E000ECCEC03F00A000900F550DC
:10350000EE6E0009FBE1060159BFF28E060E626FF6
:10351000390E616F636B1E0E646F656B010E666F13
:103520000001F5EC15F0060EEA6E390EE96EF2CFE9
:1035300059F6F29E000EE3EC03F00A000900F55084
:10354000EE6E0009FBE1060159BFF28E060E626FB6
:10355000390E616F636B2D0E646F656B020E666FC3
:103560000001F5EC15F0040E0601596FFA0E626FBA
:10357000000129EC08F00601592FF8D7616B000112
:10358000DEEC12F00501996B99514F080FE38CC5E1
:1035900059F600015FDC03C014F602C013F601C047
:1035A00012F600C011F60501992BEED70001B4EF19
:1035B0002EF006017751016A765D03E276C600F0CF
:1035C0000CD0006A080E786F763700367751005CB1
:1035D000D8B0006E0136782FF7D70001000C58C61E
:1035E000EAFF57C6E9FF060179C6EFFFE92AD8B41A
:1035F000EA2AEF6A572BD8B4582B0001000C200E92
:10360000060171A9300E726F70C600F070AF07D05E
:10361000001E002A00C070F62D0E726F718F0150CF
:1036200070C676F6640E776F0001C3DF00C070F6D7
:10363000300E01240601736F70C676F60A0E776F9E
:103640000001B7DF300E00240601756F300E012433
:10365000746F72C600F071A702D071AF719571B925
:103660000BD071AF22D071B520D000C073F671B30A
:103670001CD000C074F619D0300E735D16E100C086
:1036800073F6200E726F71A704D07195718371AFBC
:103690007193300E745D09E100C074F6200E736FF3
:1036A00071A7F7D7719371AF719171A505D072C6EB
:1036B00079F6000194DF060171A305D073C679F68F
:1036C00000018DDF060171A104D074C679F60001F6
:1036D00086DF75C679F6000182DF7AEF1BF0060EF1
:1036E0000601586F670E576F63C670F61F0E716F35
:1036F000000185D70601662D29D0120E6425706F52
:10370000180E6525716F64C672F665C673F670C6CD
:1037100074F6756F010E766F776F000194EC15F0FB
:10372000020E06016425706F010E6525716F70C66B
:1037300072F6736F060E756F670E746F020E766FFA
:10374000776B000119EC14F028D00601120E6425E5
:10375000706F180E6525716F64C672F665C673F6D4
:1037600070C674F6756F766B776B000194EC15F08C
:10377000020E06016425706F010E6525716F70C61B
:1037800072F6736F060E756F670E746F020E766FAA
:10379000010E776F000119EC14F0000C020E060107
:1037A000626F000129EC08F0000C0601616B00015A
:1037B000DEEC12F0060EEA6E390EE96EF2CF61F61B
:1037C000F29E000E79EC03F00A000900F550EE6E4F
:1037D0000009FBE1060161BFF28E060E626F390E31
:1037E000616F1E0E636F646B656B020E666F000186
:1037F000F5EC15F0060EEA6E390EE96EF2CF61F6C1
:10380000F29E000E8BEC03F00A000900F550EE6EFC
:103810000009FBE1060161BFF28E060E626F390EF0
:10382000616F636B1E0E646F656B020E666F000145
:10383000F5EC15F00BEC13F0080E0601616FFA0EB3
:10384000626F000129EC08F00601612FF8D7616B67
:103850000001DEEC12F0000C05019253D8A474D0E4
:10386000D5C563F6140E0601646F1E0E656F010E5A
:10387000666F000134DFD6C563F6280E0601646F5B
:103880001E0E656F666B00012ADFD7C563F63C0E1E
:103890000601646F1E0E656F666B000120DFD5C5E3
:1038A00063F6500E0601646F1E0E656F666B0001B5
:1038B00016DF0601605324E1060EEA6E390EE96E4A
:1038C000F2CF61F6F29E000E0001F8EC03F00A0060
:1038D0000900F550EE6E0009FBE1060161BFF28EB2
:1038E000060E626F390E616F140E636F646B010E0A
:1038F000656F030E666F0001F5EC15F022D006012E
:10390000060EEA6E390EE96EF2CF61F6F29E000EF7
:1039100000010AEC04F00A000900F550EE6E0009FF
:10392000FBE1060161BFF28E060E626F390E616F18
:10393000636B646B010E656F020E666F0001F5EC40
:1039400015F0010E0501926F928880B864D087B39C
:1039500061D08783000122DF010E0501996F995123
:10396000040858E39951985D3AE1010E995D036AA4
:10397000D50FE96E050E0320EA6EEF2A010E995D60
:10398000036AD50FE96E050E0320EA6EEFBE0CD078
:10399000EF50090809E2010E995D036AD50FE96E3F
:1039A000050E0320EA6EEF6A010E995D036AD50FDA
:1039B000E96E050E0320EA6EEFCF61F69951140D02
:1039C000F3CF62F6060161C663F662C664F61E0EA8
:1039D000656F010E666F000182DE19D00501010ED0
:1039E000995D036AD50FE96E050E0320EA6EEFCFED
:1039F00061F69951140DF3CF62F6060161C663F6C4
:103A000062C664F61E0E656F666B000168DE050116
:103A1000992BA5D701D08793928A80BA63D087B7B4
:103A200060D087870001BADE010E0501996F9951B8
:103A3000040857E39951985D39E1010E995D036AD5
:103A4000D50FE96E050E0320EA6EEF06010E995DB3
:103A5000036AD50FE96E050E0320EA6EEFBE01D0B2
:103A60000AD0010E995D036AD50FE96E050E032099
:103A7000EA6E090EEF6E010E995D036AD50FE96ECD
:103A8000050E0320EA6EEFCF61F69951140DF3CFC6
:103A900062F6060161C663F662C664F61E0E656FC5
:103AA000010E666F00011BDE19D00501010E995D44
:103AB000036AD50FE96E050E0320EA6EEFCF61F6BB
:103AC0009951140DF3CF62F6060161C663F662C622
:103AD00064F61E0E656F666B000101DE0501992B11
:103AE000A6D701D08797968084B046D087B543D0BB
:103AF0008785000153DE0501982B010E996F9951BE
:103B0000040839E39951985D1BE1010E995D036A40
:103B1000D50FE96E050E0320EA6EEFCF61F69951DD
:103B2000140DF3CF62F6060161C663F662C664F651
:103B30001E0E656F010E666F0001D1DD19D0050103
:103B4000010E995D036AD50FE96E050E0320EA6E3A
:103B5000EFCF61F69951140DF3CF62F6060161C6FD
:103B600063F662C664F61E0E656F666B0001B7DD14
:103B70000501992BC4D701D08795968284B224D0B1
:103B8000640E0601626F000129EC08F0968284B28F
:103B90001AD059C697F50601616B0001DEEC12F0F0
:103BA0000501926B010E9C6F986FD56BD66BD76B2E
:103BB000D86B0601616B0001DEEC12F00BEC13F028
:103BC000010E016E62D2050198510408D8B05ED290
:103BD0000601616B0001DEEC12F0010E0501986F29
:103BE00006016053D8A4C6D10501D5510308D8A455
:103BF0007DD0D6510808D8A479D0D751090876E1EC
:103C0000D851020873E106015A53D8B402D0050115
:103C10006DD0AA6A040EA96EA86AA69CA69EA68468
:103C2000F250006EF29E0F01550EA76EAA0EA76EFF
:103C3000A682A6B2FED7A6940050F212140E060178
:103C4000626F000129EC08F0AA6A050EA96EA86A45
:103C5000A69CA69EA684F250006EF29E0F01550E01
:103C6000A76EAA0EA76EA682A6B2FED7A694005093
:103C7000F212140E0601626F000129EC08F0AA6A24
:103C8000060EA96EA86AA69CA69EA684F250006E97
:103C9000F29E0F01550EA76EAA0EA76EA682A6B2BF
:103CA000FED7A6940050F212140E0601626F0001B6
:103CB00029EC08F0AA6A070EA96EA86AA69CA69E1F
:103CC000A684F250006EF29E0F01550EA76EAA0E4A
:103CD000A76EA682A6B2FED7A6940050F212140ECA
:103CE0000601626F000129EC08F0FF0006015C513B
:103CF0000501D55DD8A474D006015D510501D65DDE
:103D00006FE106015E510501D75D6AE106015F5171
:103D10000501D85D65E10601616B0001DEEC12F082
:103D2000060EEA6E390EE96EF2CF61F6F29E000ED3
:103D3000F8EC03F00A000900F550EE6E0009FBE113
:103D4000060161BFF28E060E626F390E616F1E0EA4
:103D5000636F646B656B020E666F0001F5EC15F026
:103D6000060EEA6E390EE96EF2CF61F6F29E000E93
:103D70001FEC04F00A000900F550EE6E0009FBE1AB
:103D8000060161BFF28E060E626F390E616F0F0E73
:103D9000636F1E0E646F656B020E666F0001F5ECBB
:103DA00015F05BC697F50BEC13F0040E0601616F7E
:103DB000FA0E626F000129EC08F00601612FF8D7B6
:103DC000616B0001DEEC12F00501D56BD66BD76B91
:103DD000D86B926B010E016E000157D1C9D005015D
:103DE0000601616B0001DEEC12F0060EEA6E390E80
:103DF000E96EF2CF61F6F29E000EF8EC03F00A00D5
:103E00000900F550EE6E0009FBE1060161BFF28E7C
:103E1000060E626F390E616F1E0E636F646B656B09
:103E2000020E666F0001F5EC15F0060EEA6E390E13
:103E3000E96EF2CF61F6F29E000E33EC04F00A0058
:103E40000900F550EE6E0009FBE1060161BFF28E3C
:103E5000060E626F390E616F636B1E0E646F656BC9
:103E6000020E666F0001F5EC15F0010E0501986F6A
:103E700000010BEC13F0040E0601616FFA0E626F85
:103E8000000129EC08F00601612FF8D70501D56B78
:103E9000D66BD76BD86B0601616B0001DEEC12F0BC
:103EA0000601726B736B7F0E746F190E756F010EC6
:103EB000766F776F000194EC15F0060EEA6E390EFE
:103EC000E96EF2CF61F6F29E000EF8EC03F00A0004
:103ED0000900F550EE6E0009FBE1060161BFF28EAC
:103EE000190E726F010E736F060E756F390E746FB7
:103EF000030E766F776B000119EC14F0D5C563F6ED
:103F0000140E0601646F1E0E656F010E666F0001D0
:103F10006FEC1BF0D6C563F6280E0601646F1E0E0B
:103F2000656F666B00016FEC1BF0D7C563F63C0E46
:103F30000601646F1E0E656F666B00016FEC1BF06F
:103F4000D5C563F6500E0601646F1E0E656F666B75
:103F500000016FEC1BF059C697F50601616B00017B
:103F6000DEEC12F00501926B000E016E00018DD0A7
:103F70008CD00601010E05019C6F986FAA6A040E91
:103F8000A96ED5C5A8FFA69CA69EA684F250006E79
:103F9000F29E0F01550EA76EAA0EA76EA682A6B2BC
:103FA000FED7A6940050F212320E0601626F000195
:103FB00029EC08F0AA6A050EA96ED6C5A8FFA69C32
:103FC000A69EA684F250006EF29E0F01550EA76EBB
:103FD000AA0EA76EA682A6B2FED7A6940050F21231
:103FE000320E0601626F000129EC08F0AA6A060E83
:103FF000A96ED7C5A8FFA69CA69EA684F250006E07
:10400000F29E0F01550EA76EAA0EA76EA682A6B24B
:10401000FED7A6940050F212320E0601626F000124
:1040200029EC08F0AA6A070EA96ED8C5A8FFA69CBD
:10403000A69EA684F250006EF29E0F01550EA76E4A
:10404000AA0EA76EA682A6B2FED7A6940050F212C0
:10405000040E0601616FFA0E626F000129EC08F090
:104060000601612FF8D7616B0001DEEC12F059C632
:1040700097F50501926BD56BD66BD76BD86B0001AA
:10408000D5EC1BF0000E016E00D005010001000C04
:10409000006A016A06017751D89078B10026003293
:1040A000013278B300260032013278B500260032A2
:1040B000013278B700260032013278B9002600328A
:1040C000013278BB00260032013278BD0026003272
:1040D000013278BF0026003201320001000C0601D7
:1040E000736B70C674F6010ED8807055756F71537E
:1040F00065E073516E5D766F74516F25776F735104
:104100006E25786F74516F25796F76C67DF677C608
:104110007EF678C67FF6806F72C681F60001F5ECF8
:1041200014F0060173516E5D766F74516F5D776F99
:1041300073516E25786F74516F5D796F76C67DF619
:1041400077C67EF678C67FF6806F72C681F600016C
:10415000F5EC14F0060174516E5D766F73516F25A6
:10416000776F74516E25786F73516F25796F76C6AE
:104170007DF677C67EF678C67FF6806F72C681F6CA
:104180000001F5EC14F0060174516E5D766F735109
:104190006F5D776F74516E25786F73516F5D796FB6
:1041A00076C67DF677C67EF678C67FF6806F72C6D5
:1041B00081F60001F5EC14F078D006016E517325FC
:1041C000766F6F517425776F76C68DF68E6F72C6D7
:1041D0008FF60001BBEC13F006016E517425766F6B
:1041E0006F517325776F76C68DF68E6F72C68FF618
:1041F0000001BBEC13F0060173516E5D766F6F51D9
:104200007425776F76C68DF68E6F72C68FF60001B5
:10421000BBEC13F0060174516E5D766F6F51732520
:10422000776F76C68DF68E6F72C68FF60001BBEC87
:1042300013F006016E517425766F73516F5D776FC1
:1042400076C68DF68E6F72C68FF60001BBEC13F04A
:1042500006016E517325766F74516F5D776F76C668
:104260008DF68E6F72C68FF60001BBEC13F006015F
:1042700073516E5D766F74516F5D776F76C68DF694
:104280008E6F72C68FF60001BBEC13F006017451FD
:104290006E5D766F73516F5D776F76C68DF68E6F3C
:1042A00072C68FF60001BBEC13F0060175BF01D09A
:1042B0000ED07351732B766F020E776F76C678F639
:1042C0000001E6DE0150030F0601752711D073517E
:1042D000732B766F74517407765D766F020E776F6D
:1042E00076C678F60001D4DE0150050F0601752769
:1042F0007351800A006E7451800A005CD8B4F7D6FE
:10430000D8A0F5D60001000C8E0E006E06015951A2
:10431000005E5AC602F05BC601F0028E005209E050
:10432000D890025202E1015204E002320132002E22
:10433000F7D75AAF05D0011E021E012AD8B4022AAF
:104340000001000CEACF72F6E9CF71F606016B3975
:10435000F0096D6F6D27E20F6E6F320F706F6B514A
:104360000F0B6E276E277027E90F6F6F6F276F2770
:104370006A390F0B6F2770276F377037701F7037D0
:104380006A510F0B70276D37070E6C6F0A0E6F079F
:104390007027FDE36E076F27FDE36D076E27FDE3D2
:1043A0006C076D27FDE3060EEA6E6C0EE96E070ED4
:1043B0007115719DE926700EE95CD8B4718DEF50CE
:1043C000006E08E171BD06D071B916D071B702D088
:1043D000200E03D071877199300E0026EACF6BF65C
:1043E000E9CF6AF600C079F60001EFEC1AF06BC66F
:1043F000EAFF6AC6E9FF0601EE5071ADDCD70001A5
:10440000000C06015F5102083AE1060E586F610E7A
:10441000576F0A0EE96E5CC66BF65BC66AF6000162
:1044200091DF06016051120DF3505D256A6F6051F6
:10443000080DF3505E256B6F5DC672F65EC673F6AF
:104440006AC674F6756F010E766F776F000194EC93
:1044500015F0010E06015D256A6F010E5E256B6F7A
:104460006AC672F6736F060E756F610E746F60C662
:1044700076F6776B000119EC14F09AD00601060E5F
:10448000586F610E576F0A0EE96E5CC66BF65BC61D
:104490006AF6000157DF06015F5104082DE1605103
:1044A000100DF3505D256A6F6051080DF3505E25C5
:1044B0006B6F5DC672F65EC673F66AC674F6756F8C
:1044C000010E766F776B000194EC15F0010E06017A
:1044D0005D256A6F010E5E256B6F6AC672F6736F9B
:1044E000060E756F610E746F60C676F6010E776FFB
:1044F000000119EC14F006015F2D2CD06051050D60
:10450000F3505D256A6F6051080DF3505E256B6FA7
:104510005DC672F65EC673F66AC674F6756F010EF6
:10452000766F776F000194EC15F0010E06015D25A2
:104530006A6F010E5E256B6F6AC672F6736F060EA8
:10454000756F610E746F60C676F6776B000119ECBB
:1045500014F006015F532DE16051050DF3505D2508
:104560006A6F6051080DF3505E256B6F5DC672F681
:104570005EC673F66AC674F6756F010E766F776B5A
:10458000000194EC15F0010E06015D256A6F010E25
:104590005E256B6F6AC672F6736F060E756F610EDD
:1045A000746F60C676F6010E776F000119EC14F097
:1045B000060100010BEC13F0000C06017951B6085E
:1045C000796F036A7AC67DF67A8FD8907A337B3317
:1045D0007C330332023201320032792FF6D77DAFBD
:1045E0000BD0001E011E021E031E002AD8B4012A91
:1045F000D8B4022AD8B4032A00016BEF23F0006A72
:10460000016A026A036A0601816B826B836B846BA9
:1046100080517F117E117D112CE0200E856FD89086
:1046200079377A377B377C378137823783378437DE
:104630008051845D08E17F51835D05E17E51825D9B
:1046400002E17D51815D0FE37D51815F7E51D8A0F4
:104650007E3D825F7F51D8A07F3D835F8051D8A08F
:10466000803D845FD8800036013602360336852FC0
:10467000D6D7060EEA6E810EE96E0001000CE950F5
:104680000601716F7051736F1CE06FC67CF66EC6C9
:104690007BF66DC67AF66CC679F6806B7F6B200E62
:1046A0007E6F820E7D6F00019EEC16F003C06FF6E8
:1046B00002C06EF601C06DF600C06CF60601732FE5
:1046C000E4D76FC67CF66EC67BF66DC67AF66CC60E
:1046D00079F6000172D703C06FF602C06EF601C012
:1046E0006DF600C06CF606016FAF0DD07107718BCF
:1046F0006C1F6D1F6E1F6F1F6C2BD8B46D2BD8B441
:104700006E2BD8B46F2B3B0E786F9A0E776FCA0E54
:10471000766F756B0A0E736F7051D8B4712B6FC6BC
:104720007CF66EC67BF66DC67AF66CC679F678C6F0
:1047300080F677C67FF676C67EF675C67DF60001F2
:104740005EDF0150EFCF6CF6ECCF6DF6ECCF6EF67E
:10475000ECCF6FF6005213E106017029735DD8A407
:1047600002D000010CD071510DE00F0B735D01E020
:1047700044E271BF42D071BD05D0200E37D0200E6B
:104780000601711771AB0FD0719B7051D8A47107DE
:104790000050716F2D0E796F0001EFEC1AF00601D9
:1047A0007151006E716B7051735D0DE10050716F4E
:1047B0002E0E796F0001EFEC1AF006017151006EB8
:1047C000200E7117000E300E71AB10D0719B70511E
:1047D000D8A471070050716F2D0E796F0001EFECB6
:1047E0001AF006017151006E716B300E002600C088
:1047F00079F60001EFEC1AF0060178C67CF677C670
:104800007BF676C67AF675C679F6806B7F6B7E6B23
:104810000A0E7D6F0001F3DE03C078F602C077F662
:1048200001C076F600C075F60601732F78D7000137
:10483000000C0601612D9CD0060E586F630E576F59
:10484000420EE96E5EC66FF65DC66EF65CC66DF62C
:104850005BC66CF6010E706F000111DF020E0601DF
:10486000605D6C6F6251080DF35060256D6F726B67
:104870006CC673F67F0E746F6DC675F6010E766F9B
:10488000776F000194EC15F0060159C601F05AC685
:1048900003F059C66CF65AC66DF6060EEA6E390E6E
:1048A000E96E5AC6E2FF59C6E1FFE752E6CFEEFFD6
:1048B000FCE15A0E5F256C6F010E60256D6F6CC6B2
:1048C00072F6736F060E756F630E746F62C676F6BE
:1048D000776B000119EC14F0010E06015F256C6F77
:1048E000010E60256D6F6CC672F6736F060E756FE4
:1048F000390E746F62C676F6776B000119EC14F00E
:10490000060EEA6E390EE96EF2CF6CF6F29E000EDC
:1049100069EC03F00A000900F550EE6E0009FBE1B6
:1049200006016CBFF28E780E5F256C6F010E60255C
:104930006D6F6CC672F6736F060E756F390E746FFD
:1049400062C676F6776B000119EC14F0730E06015F
:104950005F256C6F010E605D6D6F6CC66EF66F6FDC
:10496000010E706F716B726B00016FEC20F006012D
:104970006153D8A49ED0060E586F630E576F420E37
:10498000E96E5EC66FF65DC66EF65CC66DF65BC61A
:104990006CF6010E706F000172DE020E0601605DA2
:1049A0006C6F6251080DF35060256D6F726B6CC6B1
:1049B00073F67F0E746F6DC675F6010E766F776BAA
:1049C000000194EC15F0060159C601F05AC603F037
:1049D00059C66CF65AC66DF6060EEA6E390EE96EC9
:1049E0005AC6E2FF59C6E1FFE752E6CFEEFFFCE10F
:1049F0005A0E5F256C6F010E60256D6F6CC672F6E6
:104A0000736F060E756F630E746F62C676F6010ED5
:104A1000776F000119EC14F0010E06015F256C6F31
:104A2000010E60256D6F6CC672F6736F060E756FA2
:104A3000390E746F62C676F6010E776F000119ECBD
:104A400014F0060EEA6E390EE96EF2CF6CF6F29EA5
:104A5000000E69EC03F00A000900F550EE6E000943
:104A6000FBE106016CBFF28E780E5F256C6F010EC4
:104A700060256D6F6CC672F6736F060E756F390E1A
:104A8000746F62C676F6010E776F000119EC14F0B0
:104A9000730E06015F256C6F010E605D6D6F6CC655
:104AA0006EF66F6F010E706F716B726F00016FECBD
:104AB00020F000010BEC13F0000C015068C676F6F4
:104AC000640E0601776F0001D9EC1AF000C068F699
:104AD0000150300E08E1060169A310D069B70ED06D
:104AE00069B9200E04D00601699769996981012688
:104AF00001C079F60001EFEC1AF0060168C676F6FF
:104B00000A0E776F0001D9EC1AF000C068F6015068
:104B1000300E08E1060169B70BD069A109D069B967
:104B2000200E0001012601C079F6EFEC1AF0060113
:104B3000300E682768C679F60001EFEC1AF0000C19
:104B400006015D51020838E1060E586F5F0E576F7F
:104B50005AC668F6030E696F0001AFDF06015E51A9
:104B6000120DF3505B25686F5E51080DF3505C2504
:104B7000696F5BC672F65CC673F668C674F6756FCD
:104B8000010E766F776F000194EC15F0010E0601AF
:104B90005B25686F010E5C25696F68C672F6736FDE
:104BA000060E756F5F0E746F5EC676F6776B00014A
:104BB00019EC14F0A3D006015D51030838E1060E8C
:104BC000586F5F0E576F5AC668F6030E696F000183
:104BD00074DF06015E51120DF3505B25686F5E5164
:104BE000080DF3505C25696F5BC672F65CC673F600
:104BF00068C674F6756F010E766F776B000194ECE2
:104C000015F0010E06015B25686F010E5C25696FCA
:104C100068C672F6736F060E756F5F0E746F5EC6B0
:104C200076F6010E776F000119EC14F00601060EFE
:104C3000586F5F0E576F5AC668F61B0E696F0001FA
:104C40003CDF06015D2D2CD05E51050DF3505B2538
:104C5000686F5E51080DF3505C25696F5BC672F694
:104C60005CC673F668C674F6756F010E766F776F63
:104C7000000194EC15F0010E06015B25686F010E32
:104C80005C25696F68C672F6736F060E756F5F0EEE
:104C9000746F5EC676F6776B000119EC14F00601AE
:104CA0005D532DE15E51050DF3505B25686F5E513C
:104CB000080DF3505C25696F5BC672F65CC673F62F
:104CC00068C674F6756F010E766F776B000194EC11
:104CD00015F0010E06015B25686F010E5C25696FFA
:104CE00068C672F6736F060E756F5F0E746F5EC6E0
:104CF00076F6010E776F000119EC14F00601000141
:104D00000BEC13F0000C06015951050852E15A6BE7
:104D10005A513F084EE35B6B5B510F0848E3070EA7
:104D20005C6F5C51800A7F0840E25E6B5AC65DF69C
:104D3000606B100E5F6F000119EC17F002C05EF699
:104D400001C05DF606015B510124016E000E0220D8
:104D5000036E0150F2CF5DF6F29E03C0F7FF000133
:104D60005BEC01F006015DBFF28E5D6F070ED8802F
:104D70005C555E6F5DC600F05E51016E04E0D89038
:104D80000032012EFCD700A00ED05B51080DF3506D
:104D90005C255D6F8D6F5AC68EF6010E8F6F000118
:104DA000BBEC13F006015C07BCD75B2BB5D75A2BC5
:104DB000AFD70001A7EF38F005019451040DF3506F
:104DC000036A7F0FE96E050E0320EA6E11C6EFFF3E
:104DD00012C6ECFF13C6ECFF14C6ECFF942B9451E3
:104DE00001081EE2946BD88286C561F685C560F61F
:104DF00084C55FF683C55EF682C565F681C564F637
:104E000080C563F67FC562F6000123EC09F003C09C
:104E100010F602C00FF601C00EF600C00DF6050137
:104E200000012FEF27F00601606B8DC55FF60001D2
:104E300059EC08F0CCC560F6CBC55FF6CAC55EF686
:104E4000C9C55DF603C064F602C063F601C062F630
:104E500000C061F621EC0EF001E204E1ADD70501DE
:104E60008D6B00018B9A949A8B9C949CD89208C667
:104E700061F607C660F606C65FF605C65EF61CC696
:104E800065F61BC664F61AC663F619C662F623EC0D
:104E900009F000C059F601C05AF602C05BF603C023
:104EA0005CF6D88203C061F602C060F601C05FF60E
:104EB00000C05EF614C665F613C664F612C663F645
:104EC00011C662F623EC09F003C0F4F502C0F3F555
:104ED00001C0F2F500C0F1F5CD0E0601606FCC0EF9
:104EE0005F6F4C0E5E6F7E0E5D6FF4C564F6F3C5AA
:104EF00063F6F2C562F6F1C561F6000121EC0EF031
:104F000002E2D8A40AD2F4C560F6F3C55FF6F2C592
:104F10005EF6F1C55DF60601646B636B700E626F41
:104F2000830E616F000121EC0EF0D8A0F6D110C6FF
:104F300060F60FC65FF60EC65EF60DC65DF69A0EFB
:104F40000601646F990E636F190E626F7D0E616FBB
:104F5000000121EC0EF0D8A0E0D1050193AD02D004
:104F60000001DBD1879D879F0A0E916FB4C560F663
:104F7000B3C55FF6B2C55EF6B1C55DF60601646BFA
:104F8000636B340E626F850E616F000121EC0EF0D1
:104F9000D8A0C2D1CD0E0601606FCC0E5F6F0C0E93
:104FA0005E6F7F0E5D6FF4C564F6F3C563F6F2C500
:104FB00062F6F1C561F6000121EC0EF0D8A0D6D062
:104FC000CCC57CF6CBC57BF6CAC57AF6C9C579F6E1
:104FD0000601806B7F6B7E6B800E7D6F00019EEC07
:104FE00016F000C059F601C05AF602C05BF603C0C5
:104FF0005CF60601606B9BC55FF6000159EC08F09A
:105000005CC660F65BC65FF65AC65EF659C65DF6CC
:1050100003C064F602C063F601C062F600C061F628
:1050200021EC0EF002E2D8A4A0D005019B6B10C6C3
:1050300060F60FC65FF60EC65EF60DC65DF606019B
:10504000646B636B800E626F7E0E616F000121ECFA
:105050000EF02EE3D892C8C561F6C7C560F6C6C586
:105060005FF6C5C55EF60601656B646B636B7F0E0C
:10507000626F000123EC09F0D89204C661F603C602
:1050800060F602C65FF601C65EF603C065F602C0B2
:1050900064F601C063F600C062F623EC09F003C0B9
:1050A00004F602C003F601C002F600C001F65DD0AE
:1050B00010C660F60FC65FF60EC65EF60DC65DF64C
:1050C000CD0E0601646FCC0E636F626F7B0E616F55
:1050D000000121EC0EF01CE3D89204C661F603C671
:1050E00060F602C65FF601C65EF6C8C565F6C7C5BE
:1050F00064F6C6C563F6C5C562F623EC09F003C0C5
:1051000004F602C003F601C002F600C001F62DD07D
:10511000D882C8C561F6C7C560F6C6C55FF6C5C505
:105120005EF60601656B646B636B7E0E626F000159
:1051300023EC09F0D89204C661F603C660F602C6F5
:105140005FF601C65EF603C065F602C064F601C0F4
:1051500063F600C062F623EC09F003C004F602C057
:1051600003F601C002F600C001F6D6D0CCC57CF62D
:10517000CBC57BF6CAC57AF6C9C579F60601806B40
:105180007F6B400E7E6F810E7D6F00019EEC16F0EE
:1051900000C059F601C05AF602C05BF603C05CF6C7
:1051A0000601606B9BC55FF6000159EC08F05CC618
:1051B00060F65BC65FF65AC65EF659C65DF603C07A
:1051C00064F602C063F601C062F600C061F621EC2D
:1051D0000EF002E2D8A4A0D005019B6B10C660F6C9
:1051E0000FC65FF60EC65EF60DC65DF60601646B71
:1051F000636B800E626F7E0E616F000121EC0EF01A
:105200002EE3D892C8C561F6C7C560F6C6C55FF67D
:10521000C5C55EF60601656B646B636B7F0E626FDE
:10522000000123EC09F0D89204C661F603C660F6CB
:1052300002C65FF601C65EF603C065F602C064F6FC
:1052400001C063F600C062F623EC09F003C004F667
:1052500002C003F601C002F600C001F65DD010C620
:1052600060F60FC65FF60EC65EF60DC65DF6CD0E95
:105270000601646FCC0E636F626F7B0E616F00017D
:1052800021EC0EF01CE3D89204C661F603C660F66A
:1052900002C65FF601C65EF6C8C565F6C7C564F608
:1052A000C6C563F6C5C562F623EC09F003C004F673
:1052B00002C003F601C002F600C001F62DD0D8826C
:1052C000C8C561F6C7C560F6C6C55FF6C5C55EF65A
:1052D0000601656B646B636B7E0E626F000123ECED
:1052E00009F0D89204C661F603C660F602C65FF6FE
:1052F00001C65EF603C065F602C064F601C063F63F
:1053000000C062F623EC09F003C004F602C003F605
:1053100001C002F600C001F668D0F4C560F6F3C51E
:105320005FF6F2C55EF6F1C55DF60601646B636B70
:10533000626B616B000121EC0EF057E3CCC57CF68B
:10534000CBC57BF6CAC57AF6C9C579F60601806B6E
:105350007F6B7E6B800E7D6F00019EEC16F000C0AF
:1053600059F601C05AF602C05BF603C05CF60601AE
:10537000606B9BC55FF6000159EC08F05CC660F6F7
:105380005BC65FF65AC65EF659C65DF603C064F6A4
:1053900002C063F601C062F600C061F621EC0EF0B7
:1053A00001E223E105019B6BD88204C661F603C6C6
:1053B00060F602C65FF601C65EF6CD0E0601656FA9
:1053C000CC0E646F4C0E636F7C0E626F000123EC99
:1053D00009F003C004F602C003F601C002F600C0E3
:1053E00001F60501879D879F000104C660F603C68C
:1053F0005FF602C65EF601C65DF6CD0E0601646F6D
:10540000CC0E636F4C0E626F7B0E616F000121EC5E
:105410000EF00AE3CD0E0601046FCC0E036F4C0EA6
:10542000026F7B0E016F0001BCC560F6BBC55FF665
:10543000BAC55EF6B9C55DF604C664F603C663F682
:1054400002C662F601C661F621EC0EF008E3BCC5A7
:1054500004F6BBC503F6BAC502F6B9C501F6F4C534
:1054600060F6F3C55FF6F2C55EF6F1C55DF60601BE
:10547000646B636B626B616B000121EC0EF006E301
:105480000501F46BF36BF26BF16B0001F4C57CF674
:10549000F3C57BF6F2C57AF6F1C579F604C680F657
:1054A00003C67FF602C67EF601C67DF69EEC16F0B8
:1054B00003C000F602C0FFF501C0FEF500C0FDF517
:1054C0001CC660F61BC65FF61AC65EF619C65DF608
:1054D00000C664F6FFC563F6FEC562F6FDC561F65B
:1054E00021EC0EF008E31CC600F61BC6FFF51AC639
:1054F000FEF519C6FDF500C660F6FFC55FF6FEC5F0
:105500005EF6FDC55DF60601646B636B626B616BF5
:10551000000121EC0EF007E30601006B0501FF6BB3
:10552000FE6BFD6B000100C65DF6FFC55CF6FEC5B7
:105530005BF6FDC55AF61CC661F61BC660F61AC6B8
:105540005FF619C65EF674EC08F000C059F601C0AB
:105550005AF602C05BF603C05CF603C07CF602C0DC
:105560007BF601C07AF600C079F6ECC580F6EBC593
:105570007FF6EAC57EF6E9C57DF69EEC16F003C01F
:10558000F0F502C0EFF501C0EEF500C0EDF5F4C591
:1055900060F6F3C55FF6F2C55EF6F1C55DF6660E20
:1055A0000601646F636F626F7E0E616F000121EC14
:1055B0000EF0D8A086D0F4C560F6F3C55FF6F2C54C
:1055C0005EF6F1C55DF6CD0E0601646FCC0E636F1D
:1055D0004C0E626F7E0E616F000121EC0EF001E255
:1055E0000EE1050187BD0BD0F0C518F6EFC517F623
:1055F000EEC516F6EDC515F6878D050E916FF4C54F
:1056000060F6F3C55FF6F2C55EF6F1C55DF6CD0E48
:105610000601646FCC0E636F4C0E626F7D0E616F7E
:10562000000121EC0EF001E20EE1050187BF0BD075
:10563000F0C5B8F5EFC5B7F5EEC5B6F5EDC5B5F5EE
:10564000878F050E916F050187AF1DD0F0C560F6FD
:10565000EFC55FF6EEC55EF6EDC55DF6B8C564F65E
:10566000B7C563F6B6C562F6B5C561F6000121ECB3
:105670000EF008E3B8C5F0F5B7C5EFF5B6C5EEF521
:10568000B5C5EDF5050187AD1DD018C660F617C686
:105690005FF616C65EF615C65DF6F0C564F6EFC594
:1056A00063F6EEC562F6EDC561F6000121EC0EF081
:1056B00008E318C6F0F517C6EFF516C6EEF515C6E1
:1056C000EDF50501F0C55DF6EFC55CF6EEC55BF6E0
:1056D000EDC55AF60A0E0601616FD70E606F230EF4
:1056E0005F6F770E5E6F000174EC08F003C05CF62C
:1056F00002C05BF601C05AF600C059F684EC21F0F6
:1057000002C0AEF501C0ADF5ECC55DF6EBC55CF6CB
:10571000EAC55BF6E9C55AF60A0E0601616FD70EB7
:10572000606F230E5F6F770E5E6F000174EC08F000
:1057300003C05CF602C05BF601C05AF600C059F621
:1057400084EC21F002C0B0F501C0AFF5010E0501F7
:10575000906F0001000C060E0601586F600E576F27
:10576000420EE96E5CC66FF65BC66EF65AC66DF603
:1057700059C66CF6010E706F00013FEC23F0060174
:105780005F511B0DF3505D25696F5F51070DF3509D
:105790005E256A6F5DC672F65EC673F669C674F6FC
:1057A000756F010E766F776B000194EC15F05DC696
:1057B00072F65EC673F6060E0601756F600E746FA4
:1057C0005FC676F6010E776F000119EC14F0000C3D
:1057D0000501A85303E1A7513B081EE2A86BA76B84
:1057E000CD2BCDBF05D0CD51090802E2CD6BCE2B1C
:1057F000CEBF05D0CE51050802E2CE6BCF2BCFBF76
:1058000005D0CF51090802E2CF6BD02BD0BF04D016
:10581000D051090801E2D06B0001CDEF3DF0060E3A
:105820000601586F600E576F420EE96E5CC66FF648
:105830005BC66EF65AC66DF659C66CF6010E706FF1
:1058400000013FEC23F006015F511B0DF3505D2575
:10585000696F5F51080DF3505E256A6F5DC672F681
:105860005EC673F669C674F6756F010E766F776B58
:10587000000194EC15F05DC672F65EC673F6060E76
:105880000601756F600E746F5FC676F6010E776F56
:10589000000119EC14F0000CF86AD09E078EEA6A39
:1058A000E96A05018791886B896B8A6B8B6B0A0E9D
:1058B0008C6F8D6B8E6B8F6B906B916F926B8793F0
:1058C000879587978789879B879D879F93919393D8
:1058D000939593979399939B939D939F946B956BBB
:1058E000010E966F976B986F996B9A6B9B6B9C6F81
:1058F0009D6B9E6B9F6BA06BA26BA16BA46BA36B4C
:10590000A66BA56BA86BA76BAA6BA96BAC6BAB6BFB
:10591000AE6BAD6BB06BAF6BB46BB36BB26BB16BAB
:10592000B86BB76BB66BB56BBC6BBB6BBA6BB96B5B
:10593000C06BBF6BBE6BBD6BC46BC36BC26BC16B0B
:10594000C86BC76BC66BC56BCC6BCB6BCA6BC96BBB
:10595000E06BDF6BDE6BDD6BE46B400EE36F1C0E08
:10596000E26F8C0EE16FEC6BEB6B200EEA6F820E38
:10597000E96FF06BEF6BEE6BED6BF46BF36BF26B4F
:10598000F16BF86BF76BF66BF56BFC6BFB6BFA6B03
:10599000F96B0601006B0501FF6BFE6BFD6B0601E9
:1059A000046B036B026B800E016F086B076B066B59
:1059B0007E0E056F0C6B0B6B320E0A6F840E096F37
:1059C000106B0F6B0E6B0D6B146B136B126B116BFB
:1059D000186B176B166B156B1C6B1B6B1A6B196BAB
:1059E000206B1F6B1E6B1D6B246B236B226B216B5B
:1059F000286B276B266B256B2C6B2B6B2A6B296B0B
:105A0000E00E306F2D0E2F6F100E2E6F750E2D6F56
:105A1000FF0E346F210E336F150E326F800E316F13
:105A2000820E386F120E376FF40E366F860E356F9A
:105A3000C150C00B0F09C16E070EB46E0401176B85
:105A4000186B196B1A6B1B6B1C6B1D6B1E6B1F6B22
:105A5000206B216B226B236B246B256B266B276BD2
:105A6000286B296B2A6B2B6B2C6B2D6B2E6B2F6B82
:105A7000306B316B326B336B346B356B366B376B32
:105A8000386B396B3A6B3B6B3C6B3D6B3E6B3F6BE2
:105A9000406B416B426B436B446B456B466B476B92
:105AA000486B496B4A6B4B6B4C6B4D6B4E6B4F6B42
:105AB000506B516B526B536B546B556B566B576BF2
:105AC000586B596B5A6B5B6B5C6B5D6B5E6B5F6BA2
:105AD000606B616B626B636B646B656B666B676B52
