:400000000080002011000000C1690000C169000008B5044B1A6803F53F5302331A6006F0EFFC00BFFA46004010B5054C237833B9044B13B10448AFF300800123237010BD32
:40004000E881FF1F000000000CCD0000084B10B51BB108490848AFF300800848036803B910BD074B002BFBD0BDE81040184700BF00000000EC81FF1F0CCD0000C880FF1F10
:400080000000000008B5564A138801331380554A138801331380544A138801339BB21380524AB2F90020012A14D1514A1288934202D300224C4B1A804B4B1A884D4B1B8817
:4000C0009A4203D8012008F0BBFD0AE0002008F0B7FD06E0484BB3F9003013B9002008F0AFFD404B1B88C72B15D90122434B1A80434BB3F900301BB1424A13880133138060
:40010000414BB3F900301BB1404A1388013313800022344B1A80324B1B88B3F5FA7F5ED300222F4B1A800122394B1A8039490B8813440B8038490B8813440B8037490B887B
:4001400013440B803649B1F90030B3FA83F35B090B80344B1A8009F039FB012807D1324B1B88B3F5167F02D201332F4A13802F4BB3F900301BB12E4A1388013313802D4B06
:40018000B3F900301BB12C4A1388013313802B4BB3F900301BB12A4A138801331380294BB3F90030012B03D1274A138801331380264B1B78013BDBB2012B07D8244A1388C7
:4001C00001331380234A136801331360224BB3F90030012B03D1214A13880133138008BDE484FF1FEE84FF1F4488FF1F0484FF1FAC85FF1F6488FF1F3084FF1F1689FF1F40
:400200003284FF1F2884FF1FD288FF1FD688FF1FD084FF1FE684FF1FD484FF1FCC88FF1FE883FF1FF683FF1F3489FF1F4084FF1FD088FF1F3484FF1FB28AFF1FE683FF1F40
:40024000DE86FF1F2C89FF1F2489FF1FA485FF1F6C85FF1F7885FF1FC885FF1FDC86FF1F08B508F071FBC0B21D4B1870652805D101221C4B1A8000221B4B1A70194BB3F9D6
:400280000030012B05D1184A13781849C85401331370154B1B78092B04D90023124A1370104A1380104B1B78CBB9104B1B78652B12D10E4B5B78FF2B0ED10C4B9B78FF2B5C
:4002C0000AD10A4B1B7A3BB9084B5B7AFF2B03D10522074B1A7008BD0A22054B1A7008BDFA83FF1F1685FF1F0482FF1FB485FF1F0784FF1F000000002DE9F843002008F02B
:400300008BFC874B1870052006F0C0FC012008F083FC844B1870052006F0B8FC502008F07BFC814D2870052006F0B0FC512008F073FC7E4C0AF01CFA2060052006F0A6FC4C
:400340007B4920680AF020FB0646206028780AF013FA31460AF05CF9764B1860522008F05BFC2870052006F091FC532008F054FC0AF0FEF92060052006F088FC6C492068A1
:400380000AF002FB0646206028780AF0F5F931460AF03EF9684B1860542008F03DFC2870052006F073FC552008F036FC0AF0E0F92060052006F06AFC5D4920680AF0E4FADF
:4003C0000646206028780AF0D7F931460AF020F95A4B1860562008F01FFC2870052006F055FC572008F018FC0AF0C2F92060052006F04CFC4E4920680AF0C6FA06462060D3
:4004000028780AF0B9F931460AF002F94C4B18600A2008F001FC4B4C2070052006F036FC0B2008F0F9FB6070052006F02FFC0C2008F0F2FBA070052006F028FC0D2008F0B0
:40044000EBFBE070052006F021FC1E2008F0E4FB3D4C0AF08DF92060052006F017FC1F2008F0DAFB394B1870052006F00FFC202008F0D2FB364B1870052006F007FC212097
:4004800008F0CAFB334B1870052006F0FFFB222008F0C2FB304B1870052006F0F7FB232008F0BAFB2D4B1870052006F0EFFB242008F0B2FB2A4B1870052006F0E7FB252040
:4004C00008F0AAFB274B1870052006F0DFFB262008F0A2FB244B1870052006F0D7FB282008F09AFB214B1870052006F0CFFB292008F092FB1E4B1870052006F0C7FB2B201C
:4005000008F08AFB1B4B1870052006F0BFFB20680AF072FB184B18700022184B1A70B4E0BC8AFF1F4884FF1F3C84FF1FEC86FF1F000020415484FF1FCC84FF1FC485FF1F16
:400540005088FF1F0089FF1FA08AFF1FD284FF1FF688FF1F318CFF1FCA85FF1F7D85FF1F2E89FF1FA48AFF1F0F84FF1F018CFF1F4788FF1FC285FF1FD883FF1FB085FF1F83
:4005800004EB44035800643080B208F045FB444D04EB4404A3002B445870424E347804EB44035800653080B208F036FB04EB4404A300E854347804EB44035800673080B23A
:4005C00008F02AFB04EB4404A3002B449870347804EB44035800683080B208F01DFB04EB4404A3002B44D870347867003A199300EA1892F80190E85C05F094FD80464846B4
:400600000AF0BAF841460AF003F83C44A3002B449860347804EB440293001D44AD68224928460AF0B9FA40B9284609F065FC1AA3D3E9002309F026FF30B104EB4402930074
:40064000174A1344194A9A6004EB44029300144A13449B78632B06D904EB44029300104A13440A229A7004EB440293000C4A1344DB783B2B06D904EB44029300084A13443B
:400680000A22DA700134074B1C70064B1C78132C7FF676AFBDE8F8839A9999999999B93FEC85FF1FB085FF1F000070420000F04110B5B24B1B783B2B08D90A20AF4B187037
:4006C000002108F041FA142006F0E0FAAC4B1B78632B08D90A20AA4B1870012108F034FA142006F0D3FAA74B1B78092B08D90020A44B18700A2108F027FA142006F0C6FA64
:40070000A04B5B78092B08D900209E4B58700B2108F01AFA142006F0B9FA9A4B9B78092B08D90020974B98700C2108F00DFA142006F0ACFA934BDB78092B08D90020914BAB
:40074000D8700D2108F000FA142006F09FFA8E4B1C688E4920460AF01FFA20B9002120460AF0FCF980B18A4A874B1A6050211E2008F0EAF9142006F089FA5121002008F040
:40078000E3F9142006F082FA824B1C687F4920460AF002FA20B9002120460AF0DFF980B17B4A7C4B1A6052211E2008F0CDF9142006F06CFA5321002008F0C6F9142006F065
:4007C00065FA754B1C68714920460AF0E5F920B9002120460AF0C2F980B16D4A6E4B1A6054211E2008F0B0F9142006F04FFA5521002008F0A9F9142006F048FA674B1C6895
:40080000624920460AF0C8F920B9002120460AF0A5F980B15E4A614B1A6056211E2008F093F9142006F032FA5721002008F08CF9142006F02BFA5A4B1C685A4920460AF0D6
:40084000ABF928B94FF07E5120460AF087F950B14FF08042524B1A601E21022008F074F9142006F013FA504B1B78053BDBB24B2B08D950204C4B18701F2108F065F9142044
:4008800006F004FA494B1B78013BDBB2032B08D90120464B1870202108F056F9142006F0F5F9434B1B78053BDBB20F2B08D905203F4B1870212108F047F9142006F0E6F9A8
:4008C0003C4B1B78642B08D900203A4B1870222108F03AF9142006F0D9F9374B1B78642B08D90020344B1870232108F02DF9142006F0CCF9314B1B780A3BDBB2462B08D9A7
:4009000050202E4B1870242108F01EF9142006F0BDF92B4B1B78642B08D90020284B1870252108F011F9142006F0B0F9254B1B78642B08D90020234B1870262108F004F99E
:40094000142006F0A3F9204B1B78012B08D900201D4B1870292108F0F7F8142006F096F91A4B1B78012B08D90020184B18702B2108F0EAF8142006F089F910BDBC8AFF1F99
:400980004884FF1F0089FF1F5484FF1F000070420000F041CC84FF1FC485FF1F5088FF1FA08AFF1F0000A041D284FF1FF688FF1F318CFF1FCA85FF1F7D85FF1F2E89FF1F8C
:4009C000A48AFF1F0F84FF1F4788FF1FC285FF1F70B526490B78264A1468264A02EB830254600133DBB20B70012B3DD900220A70204B5968986809F009FE05461E4B18609D
:400A00001E4B1A781E4B1A801E4B1B781E490B80C2EB0212C2EB0212C3EB03139B0003EB02131A4A16881E44194B1A88961BB6B2184B1E802146184B186809F0E7FD0446F1
:400A4000304609F099FE0146204609F09DFF134B1860134909F0E4FE294609F0D7FD114909F0DEFE104B186070BD00BF6888FF1F5884FF1F0482FF1F0084FF1FEA86FF1F1B
:400A80006082FF1F1C8CFF1FF886FF1F6C85FF1FEC88FF1FA685FF1F5484FF1F4C88FF1F0000A0410000A0400085FF1F000000002DE9F843A24BB3F900305BB9A14B1A78F2
:400AC000A14B1B889A420ED8FFF782FF00229E4B1A8008E09C4B1B88092B04D9FFF778FF0022994B1A80002008F078FE944BB3F90050002D00F08880944B1B78002B3DD1C0
:400B0000934BB3F90030002B7ED1924A9778D678C7EB0713C3EB03131C01C6EB06118B001C44A4B28C4B1C80D2F808808B4BC3F800808B4B1968404609F068FD8146204654
:400B400009F016FE0146484609F01EFF854B1860854B1F70854B1E7001227D4B1A808449404609F011FF0446824B187809F004FE214609F055FE804B186045E0744AB2F971
:400B80000020002A40D17348590019448A0002449778D678C7EB0711C1EB01110C01C6EB061E4FEA8E010C44A4B26B490C80D2F808806A4AC2F80080013B03EB43039A00DA
:400BC00002449168404609F021FD8146204609F0CFFD0146484609F0D7FE624B1860624B1F70624B1E700122594B1A806049404609F0CAFE04465F4B187809F0BDFD2146F9
:400C000009F00EFE5C4B1860564B1C680021204609F09AFF002840F0E180002D00F0DE80564B1B78C3EB0313C3EB03131801544B1B78C3EB03139A001044524B1B881844C9
:400C400080B2514B1880414B1D785DB909F094FD214609F0E5FD424B196809F0D9FC4B4B18600FE009F088FD214609F0D9FD013D05EB4505AB00374A1344996809F0C8FCC5
:400C8000424B1860424B1968404B186809F0BEFC404909F0C5FD404B196809F075FE05463E4B18600021204609F058FF28B30021284609F053FF70B13949284609F06CFF5A
:400CC00048B10021284609F049FF38B305F10045324B1D6022E03249284609F03FFF18B12C4A2E4B1A6019E00021284609F054FFA0B10022294B1A6010E02649284609F0BC
:400D00004BFF10B1234A254B1A600021234B186809F024FF10B10022204B1A60214BB3F90030012B40D1002008F0F8FC002008F0E1FC002008F006FD002008F033FD3FE056
:400D4000328CFF1FD284FF1FCC88FF1F0C84FF1F5688FF1FEC85FF1FEC88FF1F5484FF1FE885FF1F7085FF1F4884FF1FBC8AFF1F00004843D883FF1FA08AFF1FEA86FF1F2A
:400D80001C8CFF1F6C85FF1F168CFF1FC488FF1F5884FF1F0000C842CC80FF1FD485FF1F0000C8C2C884FF1F012008F0B7FC012008F0A0FC012008F0C5FC012008F0F2FCF9
:400DC0007D4B187809F0D8FC7C4B196809F028FD7B4909F0D9FD7B4B1860A9E37A4BB3F90030012B40F00C81002008F097FC002008F080FC002008F0A5FC002008F0D2FCA3
:400E0000724B1D68284609F077F80022704B08F013FF06460F466F4B186809F06DF802460B463046394608F007FF09F09BFB0446694B186009F060F853A3D3E9002309F0CA
:400E400021FB002862D0654B1E68304609F054F8804689464EA3D3E9002309F031FB002854D05F495F4B186809F078FE00284DD05D4B1B885D4A1278B3EB420F46DB002201
:400E8000594B1A8044A3D3E900234046494609F017FB48B1564E574B187809F06DFC316809F0B6FB306031E00021304609F074FEB0B1504B187809F00DF839A3D3E90023B2
:400EC00008F0BAFE80468946494E306809F014F842464B4608F0B2FE09F044FB306015E0444B187808F0F6FF2FA3D3E9002308F0A3FE804689463E4E306808F0FDFF424670
:400F00004B4608F09BFE09F02DFB30600021204609F042FE10B100222F4B1A602E4B1C6804F100441C60324B186808F0E5FF20A3D3E9002309F0A6FA10B12F4A2C4B1A6056
:400F40002B4B1968204609F06BFC04460146284609F004FE00B12C460021204609F0FEFD00B100242946204609F00EFD0446124B187809F001FC214609F052FC114B1860BF
:400F800001221E4B1A80D3E2333333333333E3BF9A9999999999C9BF9A9999999999C93F9A9999999999D93F666666666666E63F9A9999999999B93F318CFF1FD485FF1FAB
:400FC0000000C842E086FF1FC884FF1F5484FF1F0000E03F5884FF1FDC88FF1F0084FF1F0000B4421885FF1FD484FF1FD284FF1FA08AFF1FF688FF1FCDCCCC3DE486FF1F1D
:40100000012008F08BFB012008F074FB012008F099FB012008F0C6FB8D4B1D68284608F06BFF00228B4B08F009FE06460F468A4B186808F061FF02460B463046394608F00A
:40104000FBFD09F08FFA0446844B1860844909F099FD00286FD0834B1F68384608F04CFF8046894672A3D3E9002309F015FA002861D07D4B1E78B6007C4B1E8000237C4A40
:4010800013807C4A13800A227B4B1A707B497C4B186809F063FD002800F0A081794B1B889E4200F29B810022764B1A804FF03F41384609F053FD48B1734E744B187809F0D1
:4010C0005BFB316809F0A4FA306087E15AA3D3E900234046494609F0D5F9A8B16B4B187808F0F8FE00225B4B08F05AFF80468946654E306808F000FF42464B4608F09EFD91
:4011000009F030FA306069E1604B187808F0E2FE4BA3D3E9002308F043FF804689465A4E306808F0E9FE42464B4608F087FD09F019FA306052E15649204609F023FD00283A
:4011400000F0AA804649204609F008FD002800F0A380444B1F684FF07C51384609F008FD002800F09980404B1B7803EB43063F4B1E8000233E4A13803E4A13800A223E4BCD
:401180001A7044493E4B186809F0E8FC002800F025813C4B1B889E4200F220810022394B1A804FF03F41384609F0D8FC48B1364E364B187809F0E0FA316809F029FA3060E7
:4011C0000CE1384608F098FE1BA3D3E9002309F059F9B0B12D4B187808F07CFE18A3D3E9002308F0DDFE80468946274E306808F083FE42464B4608F021FD09F0B3F9306047
:40120000ECE0224B187808F065FE0FA3D3E9002308F0C6FE804689461B4E306808F06CFE42464B4608F00AFD09F09CF93060D5E0666666666666E63F9A9999999999B9BFC2
:40124000333333333333D33F9A9999999999B93F5484FF1F0000E03F5884FF1FDC88FF1F0000A0410084FF1FD284FF1F0E89FF1F6688FF1F4088FF1F1889FF1F0000B442B7
:401280001885FF1FD484FF1FA08AFF1FF688FF1F0000C04000008C424FF07E51204609F071FC002800F09A803549204609F056FC002800F09380334B1F68384608F01CFE50
:4012C000804689462AA3D3E9002309F0E5F8002800F084802C4B1E7876002C4B1E8000232B4A13802B4A13800A222B4B1A702B492B4B186809F032FC00286FD0294B1B88B5
:401300009E426BD80022274B1A804FF03F41384609F024FC48B1244E244B187809F02CFA316809F075F9306058E013A3D3E900234046494609F0A6F8002839D01B4B18784D
:4013400008F0C8FD0AA3D3E9002308F029FE80468946154E306808F0CFFD42464B4608F06DFC09F0FFF8306038E000BFAFF30080333333333333D33F9A9999999999B9BF6B
:40138000000020410084FF1FD284FF1F0E89FF1F6688FF1F4088FF1F1889FF1F000048421885FF1FD484FF1FA08AFF1FF688FF1F774B187808F08EFD6DA3D3E9002308F0F5
:4013C000EFFD80468946734E306808F095FD42464B4608F033FC09F0C5F830600021204609F0BCFB68B16C49284609F0CDFA06466A4B187809F0C0F9314609F011FA654B62
:401400001860644B186808F077FD59A3D3E9002309F038F810B1624A5E4B1A600021204609F09CFB10B100225E4B1A605D4B1E68584B1968304609F0F3F90446014628463C
:4014400009F08CFB00B12C460021204609F086FB00B100242946204609F096FA0446524B187809F089F9214609F0DAF904464F4B18604FF07E51304609F070FB002857D0DD
:401480000021304609F088FB002851D0304608F033FD8046894638A3D3E9002308F0FCFF80B10021304609F077FB58B1404BB3F900303BB93F4B1C6001223D4B1A800522E7
:4014C0003D4B1A702EA3D3E900234046494608F0E3FF80B10021304609F05EFB58B1374BB3F900303BB9364B1C600122334B1A800522314B1A70314BB3F90030012B08D104
:401500002F4B1D682946204609F028FB08B1274B1D60274BB3F90030012B09D1254B1C682146224B186809F037FB08B11F4B1C601E4B186808F0E0FC13A3D3E9002308F063
:4015400059FE08F0EFFF1F4B1880174B187808F0C1FC0DA3D3E9002308F04CFE08F0E2FF194B18800122194B1A80BDE8F88300BF9A9999999999B93F333333333333E33FFC
:40158000989999999999B93FFCA9F1D24D62603FF688FF1FA08AFF1F00004843D883FF1FCDCCCC3DDC88FF1F318CFF1FE086FF1F6688FF1F8085FF1F1889FF1F4088FF1FA9
:4015C000108CFF1F6488FF1FAC85FF1F0484FF1F124B1B883B2B1FD910B500220F4B1A800F4C207808F076FC00220E4B08F026FB08F098FFC0B220703B280CD9002222707B
:40160000094C207808F066FC0022064B08F016FB08F088FF207010BD704700BF6C85FF1F1C8CFF1F0000F03FEA86FF1F10B51B4BB3F900404CB10021194B186809F084FA73
:4016400018B90122174B1A7010BD8CB10021144B186809F079FA58B1134BB3F900301BB10122104B1A7010BD00220E4B1A7010BD0E4BB3F900301BB900220A4B1A7010BD87
:4016800053B1094BB3F900301BB10122054B1A7010BD0022034B1A7010BD00BF328CFF1F7085FF1FA485FF1F1485FF1FFE88FF1F08B507F05FF90A2005F0FEFAFF2007F010
:4016C0004DF90A2005F0F8FAFF2007F047F90A2005F0F2FAFF2007F041F90A2005F0ECFA08BD00BFA04B1B78052B40F0E2809F4A11789F4B19705178597091789970D17847
:40170000D970107918715079587190799871D079D871107A1872527A5A7201290AD10022944B1A70944B1B78002B00F0CD80924B1A70C9E002290AD101228E4B1A708E4B8D
:401740001B78934200F0C0808B4B1A70BCE004290AD10222874B1A70874B1B78934200F0B380854B1A70AFE005290AD10322814B1A70814B1B78934200F0A6807E4B1A70E6
:40178000A2E006290AD104227A4B1A707A4B1B78934200F09980784B1A7095E007290AD10622744B1A70744B1B78934200F08C80714B1A7088E0082909D107226D4B1A706D
:4017C0006D4B1B7893427FD06B4B1A707CE0092909D10822674B1A70674B1B78934273D0654B1A7070E00A2909D10922614B1A70614B1B78934267D05F4B1A7064E00F291C
:4018000062D01A2909D114225A4B1A705A4B1B78934259D0584B1A7056E01B2909D10F22544B1A70544B1B7893424DD0524B1A704AE01C2909D110224E4B1A704E4B1B78CE
:40184000934241D04C4B1A703EE01D2909D11122484B1A70484B1B78934235D0464B1A7032E01E2909D11222424B1A70424B1B78934229D0404B1A7026E02C2909D164227C
:401880003C4B1A703C4B1B7893421DD03A4B1A701AE0CC2918D1394B1B7833B9384B1B781BB97822334B1A700EE01422314B1A700AE00022334B1A7002E00133314A137073
:4018C000304B1B78092BF8D92F4B1B78052B40F0D9802E4A11782E4B19705178597091789970D178D970107918715079587190799871D079D871107A1872527A5A720129B8
:401900000AD10022234B1A70234B1B78002B00F0C480214B1A70704702290AD101221D4B1A701D4B1B78934200F0B7801A4B1A70704704290AD10222164B1A70164B1B78E2
:40194000934200F0AA80144B1A707047052925D10322104B1A70104B1B78934200F09D800D4B1A70704700BF0784FF1FB485FF1F5888FF1F308CFF1FD888FF1F4788FF1F3F
:40198000C285FF1F9385FF1FD384FF1F048CFF1F1884FF1FD488FF1F7F85FF1F062909D105223E4B1A703E4B1B78934275D03C4B1A707047072909D10622384B1A70384B10
:4019C0001B78934269D0364B1A707047082909D10722324B1A70324B1B7893425DD0304B1A707047092909D108222C4B1A702C4B1B78934251D02A4B1A7070470A2909D181
:401A00000922264B1A70264B1B78934245D0244B1A7070470F2940D01A2909D114221F4B1A701F4B1B78934237D01D4B1A7070471B2909D10F22194B1A70194B1B789342C8
:401A40002BD0174B1A7070471C2909D11022134B1A70134B1B7893421FD0114B1A7070472C2909D164220D4B1A700D4B1B78934213D00B4B1A707047CC290ED17822074BAC
:401A80001A7070470022074B1A7002E00133054A1370044B1B78092BF8D97047D488FF1F7F85FF1F9385FF1F2DE9F0419A4BB3F90030012B40F09680984B186808F01CFAA4
:401AC00004460D46964BD3F80080404608F014FA06460F460022934B08F0B0F802460B462046294608F0D8FC58B300228D4B3046394608F0A1F802460B462046294608F025
:401B0000D5FCF0B10021884B186809F01DF828B98648FFF7CDFD0122854B1A800021824B186809F011F828B18248FFF7C1FD01227F4B1A80FEF7BCFF00227F4B1A80BDE88C
:401B4000F0810022774B3046394608F075F802460B462046294608F095FCB8B100246E4B1C807649404608F00FFF0546744B187808F002FE294608F053FE724B18602046AD
:401B800007F05EF8704B1C80BDE8F08160A3D3E900233046394608F051F802460B462046294608F08DFC002800F0AF8000215E4B186808F0C9FF28B96448FFF779FD0122F7
:401BC0005B4B1A800021584B186808F0BDFF28B15F48FFF76DFD0022554B1A80FEF768FFBDE8F0814D4B186808F086F904460D464B4BD3F80080404608F07EF906460F465C
:401C00000022484B08F018F802460B462046294608F04CFC58B30022424B3046394608F00DF802460B462046294608F035FCF0B100213D4B186808F087FF28B93B48FFF754
:401C400037FD01223A4B1A800021374B186808F07BFF28B13748FFF72BFD0122344B1A80FEF726FF0022344B1A80BDE8F08100222C4B3046394607F0E1FF02460B462046D8
:401C8000294608F01DFCC0B10122234B1A802B49404608F079FE0446294B187808F06CFD214608F0BDFD274B1860002006F0C8FF0022254B1A80BDE8F08115A3D3E9002337
:401CC0003046394607F0B8FF02460B462046294608F0D8FBC8B10021134B186808F034FF28B91C48FFF7E4FC0122114B1A8000210D4B186808F028FF28B11748FFF7D8FC17
:401D000000220B4B1A80FEF7D3FEBDE8F08100BF333333333333E33FC884FF1F5884FF1F5484FF1F0000E03F7085FF1FC4CD00001485FF1FE0CD0000C885FF1F000048432B
:401D4000D883FF1FA08AFF1F0484FF1FF8CD000010CE000028CE000040CE0000F8B506460022404B1A6004F0E7F93F4B1860002104F0FCF93D4B186007F026FB3C4B18603E
:401D80003C4C84FB0023C417C4EB63143A4B1C606FF0630303FB0400384B1860002801DA40421860354B186808F0E6FC0546204608F0E2FC0746284608F09EF80022304BF1
:401DC00008F018FA04460D46384608F095F822462B4607F033FF08F0C5FB2A4B18602A4B1A78731E9A4202DD0022274B1A70264A1378264941F82300013313700022244B13
:401E00001A700AE0174D214B53F82410286808F0FFFB286001341E4B1C701D4B1C78A642F0D81C4B187808F0A3FC1B4908F0ACFD05461A4B187808F09BFC174908F0A4FDA4
:401E40000446304608F098FC0146064B186808F09BFD0146284608F0DBFB214608F0D6FBF8BD00BF0C85FF1F2889FF1F9885FF1F6C88FF1F1F85EB511C89FF1F208CFF1F0F
:401E8000000059403089FF1F0485FF1F3889FF1FEE88FF1FCA85FF1F000020417D85FF1FF8B506460022404B1A6004F045F93F4B1860012104F05AF93D4B586007F084FA38
:401EC0003C4B58603C4C84FB0023C417C4EB63143A4B5C606FF0630303FB0400384B5860002801DA40425860354B586808F044FC0546204608F040FC0746284607F0FCFFEE
:401F00000022304B08F076F904460D46384607F0F3FF22462B4607F091FE08F023FB2A4B18602A4B1A78731E9A4202DD0022274B1A70264A1378264941F823000133137049
:401F40000022244B1A700AE0174D214B53F82410286808F05DFB286001341E4B1C701D4B1C78A642F0D81C4B187808F001FC1B4908F00AFD05461A4B187808F0F9FB1749F4
:401F800008F002FD0446304608F0F6FB0146064B186808F0F9FC0146284608F039FB214608F034FBF8BD00BFD085FF1F2889FF1F9885FF1F6C88FF1F1F85EB511C89FF1F67
:401FC000208CFF1F000059400885FF1FCB85FF1F6482FF1F1089FF1FA48AFF1F000020410F84FF1F074A1168C1EB0020031203EB8303D8000B181360C3F3C01000EB23200B
:40200000704700BFF484FF1F38B5002006F0E0FE002006F0E9FE194B186006F0F3FEFFF7E1FF174B1860174B1B78042B02D90022144B1A70134D2C7808F09AFB124B43F810
:40204000240001342C700022104B1A70002007E00D4B53F8241008F0DBFA01340B4B1C700A4B1C78042CF3D9094908F08DFC094908F0D6FB08F09AFD38BD00BFDC83FF1F0F
:40208000B88AFF1F0585FF1F7488FF1F1589FF1F0000A0400000204110F0030F09D1084BA3FB00235B09642202FB130313F0FF0F02D118B9012070470120704700207047C8
:4020C0001F85EB5108B52A4B1B7B0C2B02D90A22274B1A73264B5B7B1F2B02D91022244B5A73234B9B7B632B02D91222204B9A731F4BDB7B182B02D90B221D4BDA731C4B61
:402100001B7C3B2B02D91E22194B1A74184B1B7B022B14D1164B987BFFF7BEFF38B1144B5B7B1D2B22D91D22114B5A7308BD104B5B7B1C2B1AD91C220D4B5A7308BD072B10
:402140000AD813F0010F11D1094B5B7B1E2B0DD91E22074B5A7308BD13F0010F06D0044B5B7B1E2B02D91E22014B5A7308BD00BF0482FF1F08B5002007F0DAF8002007F09B
:40218000CDFA002007F0B6FA002007F0DBFA002007F008FB002007F0F1FA012007F01EFB012007F02FFB002007F040FB002006F047FD08BD000000002DE9F04107F0D6FA97
:4021C000012806D0964B1C689649204608F0E4FC38B39548FFF76CFA002006F031FD0024924B1C809249934B186808F0CDFB0546914B187808F0C0FA294608F011FB8F4BAA
:402200001860012007F094F84FF4967004F03EFD204607F08DF84FF4967004F037FDBDE8F081874BB3F90030012B7AD1204607F063FE04460D467F4BD3F80080404607F08F
:402240005BFE06460F4600227E4B07F0F7FC02460B462046294608F01FF908B30022794B3046394607F0E8FC02460B462046294608F01CF9A0B17448FFF71AFA734BB3F9A4
:4022800000301BB90122724B1A8002E00022704B1A80FEF70DFC00226E4B1A80BDE8F0810022684B3046394607F0C6FC02460B462046294608F0E6F8B8B10024604B1C8023
:4022C0005B49404608F060FB05465B4B187808F053FA294608F0A4FA584B1860204606F0AFFC524B1C80BDE8F0814BA3D3E900233046394607F0A2FC02460B462046294660
:4023000008F0DEF8002800F085800024514B1C805148FFF7CDF94E4B1C80FEF7C9FBBDE8F081204607F0E8FD04460D46414BD3F80080404607F0E0FD06460F460022414B9E
:4023400007F07AFC02460B462046294608F0AEF808B300223B4B3046394607F06FFC02460B462046294608F097F8A0B13B48FFF79FF9364BB3F900301BB90122344B1A8066
:4023800002E00022324B1A80FEF792FB0022314B1A80BDE8F08100222A4B3046394607F04DFC02460B462046294608F089F8C0B10122234B1A801E49404608F0E5FA0446D5
:4023C0001D4B187808F0D8F9214608F029FA1B4B1860002006F034FC0022144B1A80BDE8F0810DA3D3E900233046394607F024FC02460B462046294608F044F850B10122E4
:40240000144B1A801648FFF753F90022104B1A80FEF74EFBBDE8F081333333333333E33F5884FF1F000070425CCE00000484FF1F000048435484FF1FD883FF1FA08AFF1F86
:40244000C884FF1F0000E03F78CE0000F088FF1F1485FF1FC885FF1F10CE000094CE000040CE00000000000080B58AB062B69D4805F002F806F04CFA9B4806F04DFB06F0D9
:40248000F3FA06F0E7FE06F05BFB04F057FE06F087FC06F099FC06F00FFD06F037FF06F05BFF06F0EFFA0121002005F0EFF8012006F0E6FB012006F0D7FB642004F0E6FB06
:4024C0008A4B1A688A4B1A6001208A4B18700024894B1C8006F02CFFFDF70EFFFEF7E8F8204606F025FF854B1C700EE0844C2078FFF734FC834B18602078FFF7D1FC824B67
:4025000018607E4A1378013313707C4B1B784F2BECD90022794B1A7016E003EB43018A007A490A4492784AB903EB43018A0077490A44D27812B9764A137009E00133DBB274
:40254000734A13706D4A13706C4B1B78132BE4D9704B1B78CBB9704A1278B2B96F4A12789AB978236E4A13706E4A137000236E4A13806E4A13806E48FFF79AF86D48FFF7D2
:4025800097F80A2004F082FB21E0644A1278012A03D10121654A118002E00021634A1180012B03D10122604B1A8002E000225E4B1A806148FFF77CF85E48FFF779F80A201D
:4025C00004F064FB1423564A1370564A137000218E2003F0A5FE0021902003F0A1FE05F08DF840B1554BB3F9003023B905F05EF90122524B1A80524B524A5349534803F077
:402600000DFF534A5349544803F03AFF534BB3F90030A3B10122524B1A8000224F4B1A80374C2078FFF79AFB364B18602078FFF737FC354B1860FFF7E7FC4A4B18604A4B3C
:40264000B3F90030002B00F020810022464B1A80464A13780133DBB21370454A12789342C0F013810022414B1A70344BB3F90030002B00F00A813F4B1B683F4A934240F30D
:4026800083803C4A51683C4A91427DDD1D4B186807F032FC04460D462D4B1B7809932D4B1B7808932C4B1B780793264B1B780693254B1B780593254B1B7804932F4B1868BE
:4026C00007F01AFCCDE902010F4B186807F014FCCDE9000122462B4629492A4808F05CFFD0E000BF8500000061020000CC80FF1F0889FF1F4688FF1F0484FF1FB085FF1F17
:402700002E89FF1F5884FF1F8C85FF1FEC85FF1F0E84FF1F4788FF1FE488FF1FC285FF1F308CFF1FD488FF1FFE88FF1F328CFF1FB0CE0000C0CE0000C8CE00008885FF1FDF
:40274000FC84FF1FC888FF1F2F89FF1F4288FF1FCC85FF1FFC83FF1FF488FF1F1689FF1F1289FF1FE884FF1FF683FF1FCE83FF1F018CFF1F9885FF1F803801002C8CFF1F6E
:40278000D8CE00006084FF1F604A934229DC604A5168604A914224DD5F4B186807F0ACFB04460D465D4B1B7807935D4B1B7806935C4B1B7805935C4B1B7804935B4B1B7822
:4027C00003935B4B1B7802935A4B186807F094FBCDE9000122462B465749584808F0DCFE50E04C4A934229DD494A5168474A914224DC534B186807F07FFB04460D46474B19
:402800001B780793464B1B780693464B1B780593454B1B780493454B1B780393444B1B780293444B186807F067FBCDE9000122462B464449414808F0AFFE23E0334A9342C0
:4028400020DC334B5A68314B9A421BDC394B186807F052FB314B1B780593314B1B780493304B1B780393304B1B7802932F4B1B7801932F4B1B78009302460B4632492F4825
:4028800008F08AFE2D4805F05DF8FEF72BFF2F4B1B78782B09D12E48FEF70AFF4FF4487004F0F4F92B48FEF703FF284B1B78002B40F0EF810022284B1A80284B1B79112B33
:4028C00005D1274B1B7813B12648FEF7F1FE244B1B78032B06D12448FEF7EAFE2348FEF7E7FE5BE0022B06D12148FEF7E1FE1F48FEF7DEFE52E0012B01D0042B3CD11D48CE
:40290000FEF7D6FE1948FEF7D3FE47E07F3801009885FF1F803801008C85FF1FCC85FF1FFC83FF1FF488FF1FC888FF1F2F89FF1F4288FF1F2C8CFF1F20CF00006084FF1F0C
:402940005884FF1F64CF0000A8CF0000308CFF1FC0CE0000E8CF0000D684FF1F5888FF1FE085FF1FC8CE0000F4CF000010D000001CD0000038D0000083B9B54DB54C0FCC54
:4029800028606960AA60EB6003CC286169612288A3782A83AB762846FEF78AFEAE4BDB780F2B40F07681AD4B1B78002B7CD1AA4B1B792F2B39D9A84A52792F2A35D9A64919
:4029C00089792F2931D9A448C0792F282DD9392B2BD8392A29D8392927D8392825D8332B23D1382A21D139291FD132281DD10A21002006F0A9F8142004F048F90B21002090
:402A000006F0A2F8142004F041F90C21002006F09BF8142004F03AF90D21002006F094F8142004F033F904F029F98B4B1B792F2B40F22F81884A52792F2A40F22A818649F1
:402A400089792F2940F225818348C0792F2840F22081392B00F21D81392A00F21A81392900F21781392800F214817D4C24783034A34215D17A4B5B7830339A4210D1784B2F
:402A80009B78303399420BD1754BDB783033984206D17448FEF70CFE0022734B1A80F8E07248FEF705FEF4E0012B2FD16A4B1B792F2B40F2EE80684A52792F2A40F2E9804F
:402AC000654989792F2940F2E4806348C0792F2840F2DF80392B00F2DC80392A00F2D980392900F2D680392800F2D380342B09D1342A07D1342905D1342803D15C48FEF751
:402B0000D7FDC6E05B48FEF7D3FDC2E0022B45D1514B1B792F2B40F2BC804F4A52792F2A40F2B7804C4988792F2840F2B280C9792F2940F2AE80392B00F2AB80392A00F28F
:402B4000A880392800F2A580392900F2A280444C24783034A3421DD1414B5B7830339A4218D13F4B9B783033984213D13C4BDB78303399420ED14048FEF79AFD3F48FEF710
:402B800097FD0322354B1A700023334AD3703C4AD3707EE03748FEF78BFD7AE0032B40D13648FEF785FD3348FEF782FD354BB3F900303BBB284C207930380A21C0B205F076
:402BC000C3FF142004F062F8607930380B21C0B205F0BAFF142004F059F8A07930380C21C0B205F0B1FF142004F050F8E07930380D21C0B205F0A8FF142004F047F80122CF
:402C0000204B1A80144A1179154B30391970517930395970917930399970D279303ADA7037E0042B35D10C4B1B79342B2ED10A4B5B79342B2AD1084B9B79342B26D1064BB8
:402C4000DB79342B22D11048FEF732FD21E000BF6084FF1F54D000005888FF1FE085FF1F0089FF1F70D000005C84FF1F84D0000094D00000C8CE0000E8CF0000F4CF00001E
:402C8000B485FF1FE886FF1FA0D000009E48FEF70FFD9E4B1B78012B40F0D68100239C4A13809C4A13809C4A13809C4BDB780F2B7FD1052003F0EAFF984BDB780F2B40F0B8
:402CC000C381964B1B79372B10D19548FEF7F0FC8E4B1A78934B1A700122934B1A7000238E4AD370914AD370914A1370904B1B78072B11D18A48FEF7DBFC844B1A78894BAD
:402D00001A700222884B1A700023844AD370874AD370874A137097E1062B0AD18548FEF7C7FC0022844B1A70784B1A787D4B1A708AE1052B0AD18148FEF7BAFC734B1A7887
:402D4000784B1A7005227E4B1A707DE1042B09D17A48FEF7ADFC0222724B1A700422784B1A7071E1012B09D17448FEF7A1FC02226C4B1A700122724B1A7065E1032B0AD123
:402D80006E48FEF795FC614B1A78664B1A7003226B4B1A7058E1022B40F056816748FEF787FC5A4B1A785F4B1A700222644B1A704AE15F4B1B78072B02D901225C4B1A70D4
:402DC0005B4B1B7813B90722594B1A70584B1B78012B4AD1013B5B4D2B445B4C1A795B49204608F0D9FB2046FEF762FC504E33782B441A7D5649204608F0CEFB2046FEF76E
:402E000057FCAA7E5349204608F0C6FB2046FEF74FFC3378013B2B441A794F49204608F0BBFB2046FEF744FC33782B441A7D4B49204608F0B1FB2046FEF73AFCAA7E4849ED
:402E4000204608F0A9FB2046FEF732FC3378013B03EB83039A00434B1A444349204608F09BFB2046FEF724FCD0E0072B7ED1013B344D2B44344C1A793449204608F08CFB19
:402E80002046FEF715FC2A7D3149204608F084FB2046FEF70DFC264E3378023B2B441A7D2C49204608F078FB2046FEF701FC3378013B2B441A792849204608F06DFB2046BE
:402EC000FEF7F6FB2A7D2549204608F065FB2046FEF7EEFB3378023B1D442A7D2049204608F05AFB2046FEF7E3FB3378013B03EB83039A001B4B1A441B49204608F04CFBCE
:402F00002046FEF7D5FB81E0C8CE0000308CFF1FE886FF1F3084FF1F5C84FF1F5888FF1FE8CF00000984FF1FE085FF1FB485FF1F4688FF1FA0D000002A84FF1FACD000005B
:402F4000A88AFF1FCC80FF1F6084FF1FB8D00000C4D00000D0D00000DCD00000E8D00000F4D0000010CD000000D10000013B9E4E33449E4C1A799E49204608F00DFB204634
:402F8000FEF796FB9B4D2B7833441A7D9A49204608F002FB2046FEF78BFB2B78023B33441A7D9649204608F0F7FA2046FEF780FB2B78013B33441A799149204608F0ECFADA
:402FC0002046FEF775FB2B7833441A7D8D49204608F0E2FA2046FEF76BFB2B78023B1E44327D8949204608F0D7FA2046FEF760FB2B78013B03EB83039A00844B1A448449F5
:40300000204608F0C9FA2046FEF752FB814B1B790C3BDBB2012B08D8764A13780133137000237C4A13717C4A13717A4B1B790E3BDBB2012B08D86F4A1378013B137000236D
:40304000744A1371744A1371744B1B78022B40F04C820023724A1380724A1380724B1B78724A1278614C72490978039171490978029171490978019170490978009170495C
:40308000204608F089FA2046FEF712FB6D4BB3F90030002B40F0EE805E4B1B790A2B09D1002269490A8001206849088068490A8068490A800B2B09D10121634A118000225E
:4030C00062490A8062490A8062490A80112B36D1C82003F0DBFD4F4B1B79112B2FD10023594A1380594A13805B48FEF7E1FA5B4BB3F900301BBB5A4C0021207805F024FD02
:403100000A2003F0C3FD0121564B187805F01CFD0A2003F0BBFD237833B9524B1B781BB90122514B1A8002E000224F4B1A8001224A4B1A800023464A1380464A1380444B16
:40314000B3F9003093B1404BB3F900301BB1444A1378013313703D4BB3F900301BB1414A137801331370642003F090FD394BB3F90030B3B1344BB3F900302BB1384B1B781A
:4031800013B1013B364A1370304BB3F900302BB1344B1B7813B1013B324A1370642003F075FD304B1B78632B02D901222D4B1A702B4B1B783B2B02D90022294B1A700B4C82
:4031C000284B1A782949204608F0E6F92046FEF76FFA234B1A782649204608F0DDF92046FEF766FA48E100BFCC80FF1F6084FF1FB8D000004688FF1FC4D00000D0D00000FD
:40320000DCD00000E8D00000F4D0000010CD000000D100005888FF1FB485FF1F308CFF1F5C84FF1F2684FF1F2F89FF1F4288FF1FCC85FF1FFC83FF1FF488FF1FC888FF1FF1
:4032400010D10000A68AFF1FCC83FF1F288CFF1F0685FF1FA885FF1FC8CE0000E886FF1FBC8AFF1F4884FF1FF088FF1F4CD1000060D10000AB4B1B790A2B05D10021AA4AEE
:4032800011800121A94A11800B2B05D10121A64A11800021A54A1180112B3CD1C82003F0F5FCA04B1B79112B35D100239E4A13809E4A13809E48FEF7FBF99E4BB3F9003004
:4032C00023BB9D4D2B78013B03EB830167319B4C03EB43039A00224489B2907805F034FC0A2003F0D3FC2B78013B03EB8301683103EB43039A00224489B2D07805F024FCF8
:403300000A2003F0C3FC01228A4B1A8000238C4A13808C4A13808A4BB3F9003073B3824BB3F900308BB1844B1B78013B83495800C418A2008C18E07806F0CCFD0022824B84
:4033400006F07CFC07F0EEF8E070784BB3F900308BB1794B1B78013B78495800C418A2008C18A07806F0B6FD0022774B06F066FC07F0D8F8A070642003F088FC714BB3F9D2
:403380000030002B3AD0684BB3F90030BBB16A4B1B78013B03EB43018A0068490A44D07868B103EB43039A000C46144406F092FD0022654B06F040FC07F0B4F8E0705B4B73
:4033C000B3F90030BBB15C4B1B78013B03EB43018A005A490A44907868B103EB43039A000C46144406F076FD0022574B06F024FC07F098F8A070642003F048FC4E4B1B7808
:40340000013B03EB43018A004C490A449278632A06D903EB43018A0048490A440121917003EB43018A0045490A44D2783B2A06D903EB43018A0041490A440021D1703F4DD5
:4034400003EB43039A002A44404C92784049204608F0A2F82046FEF72BF9374B1B78013B03EB43039A002A44D2783A49204608F093F82046FEF71CF92A4B1B790D2B0AD1AB
:4034800001222F4B1A8000232E4A1380254A1371314A137129E00E2B09D10023284A1380284A13801F4A13712B4A13711DE00C2B0AD10122234B1A800023214A1380194AC8
:4034C0001371254A137110E00B2B09D100231C4A13801C4A1380134A13711F4A137104E00023174A1380174A13801C4B1B78032B40F05D8300231A4A13801A4A1380094BE6
:403500001B790D2B30D101220D4B1A8000230D4A1380044A1371104A1371642003F0B6FB9DE000BF5888FF1FCC83FF1F288CFF1FACD00000E886FF1F7E85FF1FEC85FF1F93
:403540000685FF1FA885FF1F0000F03F6084FF1F4CD1000060D10000B485FF1F308CFF1F5C84FF1F2684FF1F0E2B0CD10023A04A1380A04A1380A04A1371A04A137164204E
:4035800003F084FB6BE00C2B0DD10122994B1A800023974A1380984A1371984A1371642003F074FB5BE00B2B0CD10023904A1380904A1380904A1371904A1371642003F0D1
:4035C00065FB4CE0202B15D101228D4B1A8000248C4B1C808C4B1C808C48FEF769F88C48FEF766F88B48FEF763F8834B1C71834B1C7134E0212B15D10024814B1C80012250
:40360000804B1A80804B1C808348FEF751F88348FEF74EF87F48FEF74BF8774B1C71774B1C711CE0222B15D10024754B1C80754B1C800122744B1A807748FEF739F87448EA
:40364000FEF736F87648FEF733F86B4B1C716B4B1C7104E00023664A1380664A1380714B1B78714A1278714C714909780391714909780291704909780191704909780091B1
:403680006F49204607F088FF2046FEF711F86D4BB3F90030002B40F01D816B4B186806F02BFC02460B466949204607F075FF2046FDF7FEFF504B1B79112B4FD10023644A5B
:4036C0001380644A13806448FDF7F2FF634BB3F900309BB95C4C206807F068FA5021C0B205F032FA206802F009FD512105F02CFA0A2003F0CBFA0122584B1A8000233C4A02
:4037000013803C4A1380504B1C68554B1968204607F024FA88B10122524B1A805249204607F032F90446514B187807F025F8214607F076F84E4B186010E00022494B1A80C5
:403740004949204607F020F90446484B187807F013F8214607F064F8454B1860244BB3F900304BB3264BB3F9003063B1364C206806F0C2FB1CA3D3E9002306F05FFA06F0C6
:40378000F1FE206015E01F4BB3F900303BB12E4C4FF07E51206806F03BFF206009E01A4BB3F900302BB1284C3249206806F030FF2060642003F06AFA0E4BB3F90030002B56
:4037C00073D00F4BB3F90030002B55D01E4C206806F092FB04A3D3E9002306F02DFA06F0C1FE20605EE000BF9A9999999999B93F0685FF1FA885FF1F5888FF1FB485FF1FDE
:40380000F288FF1F0489FF1FEC84FF1F74D1000080D100008CD1000098D10000A4D10000B0D100002F89FF1F4288FF1F6084FF1FCC85FF1FFC83FF1FF488FF1FC888FF1F91
:4038400010D10000A68AFF1F5484FF1FBCD10000288CFF1FCC83FF1FC8CE0000E886FF1F5884FF1FC884FF1F00004843D883FF1FA08AFF1F00002041974BB3F900303BB17A
:40388000964C4FF07E51206806F0C0FE206009E0934BB3F900302BB1904C9249206806F0B5FE2060642003F0F1F98F498B4B186807F054F910B18D4A884B1A608B49874B17
:4038C000186807F069F9002800F07181864A834B1A606CE1864B1B78013B03EB43039A00844B1A44906806F007FB834C02460B468249204607F050FE2046FDF7D9FE804B1B
:403900001B79112B6ED100237E4A13707E4A13707E4A13807E4A13807E48FDF7C9FE7E4BB3F9003073BB724D2B78013B714E03EB43018A00324403EB830303F16404A4B200
:40394000906807F059F92146C0B205F0FDF80A2003F09CF92B78013B03EB43039A003244906802F0CBFB2B78013B03EB830303F1650189B205F0E8F80A2003F087F9012241
:40398000654B1A800023654A1380654A1380534B1C68644B1968204607F0E0F888B10122614B1A806149204606F0EEFF0446604B187806F0E1FE214606F032FF5D4B1860F2
:4039C00010E00022584B1A805849204606F0DCFF0446574B187806F0CFFE214606F020FF544B18604D4BB3F90030002B3ED0524BB3F900309BB13E4B1B78013B3D49580026
:403A0000C418A2008C18A06806F076FA30A3D3E9002306F013F906F0A5FDA06023E02E4BB3F9003073B1324B1B78013B31495800C418A2008C184FF07E51A06806F0E8FDFD
:403A4000A06010E0264BB3F9003063B1284B1B78013B28495800C418A2008C182149A06806F0D6FDA060642003F010F92C4BB3F90030002B76D0304BB3F900309BB11C4B3F
:403A80001B78013B1B495800C418A2008C18A06806F032FA0EA3D3E9002306F0CDF806F061FDA0605BE00C4BB3F90030002B45D00F4B1B78013B0F495800C418A2008C18E7
:403AC0004FF07E51A06806F0A1FDA06047E000BF9A9999999999B93F0489FF1F5484FF1FEC84FF1F0000204100007041000020427E85FF1FEC85FF1F6084FF1FBCD10000C5
:403B00005888FF1F0684FF1FF588FF1F288CFF1FCC83FF1FACD00000E886FF1F0685FF1FA885FF1F5884FF1FC884FF1F00004843D883FF1FA08AFF1FF288FF1F774BB3F953
:403B4000003063B1764B1B78013B76495800C418A2008C187449A06806F058FDA060642003F094F86E4B1C78013C04EB440293006C4A13446D49986806F0F0FF30B104EB5B
:403B800044029300674A1344694A9A6004EB44029300644A13446649986806F0FDFF30B104EB4404A3005F4A1344604A9A60614B1B78042B40F0DD8400235F4A13805F4AA3
:403BC00013805F4B1B790D2B0DD101225D4B1A8000235D4A13805A4A13715C4A1371642003F054F892E00E2B0CD10023554A1380554A1380524A1371544A1371642003F03F
:403C000045F883E00C2B0DD101224F4B1A8000234C4A13804A4A13714C4A1371642003F035F873E00B2B0CD10023464A1380464A1380434A1371454A1371642003F026F8CE
:403C400064E0202B15D10122414B1A800024414B1C80324B1C804048FDF72AFD3F48FDF727FD3F48FDF724FD354B1C71374B1C714CE0212B15D10024354B1C800122354BE6
:403C80001A80264B1C803748FDF712FD3648FDF70FFD3348FDF70CFD294B1C712B4B1C7134E0222B15D10024294B1C80294B1C8001221A4B1A802B48FDF7FAFC2748FDF774
:403CC000F7FC2A48FDF7F4FC1D4B1C711F4B1C711CE0AA2B09D1264A1378013B13700023174A1371194A137110E0BB2B09D1204A1378013313700023114A1371134A1371FC
:403D000004E000230F4A13800F4A1380184B1B7883BB0322164B1A7031E000BFEC84FF1F7E85FF1FEC85FF1F000020410000704100002042308CFF1F5C84FF1F2684FF1F3E
:403D40005888FF1F0685FF1FA885FF1FB485FF1FF288FF1F0489FF1F74D1000080D100008CD1000098D10000A4D10000B0D10000E185FF1F032B02D90122974B1A70974B67
:403D80001B78974A1278974C9749097803919749097802919649097801919649097800919549204607F0F8FB2046FDF781FC8A4B1B78012B40F052819048FDF779FC904B9E
:403DC000186806F099F802460B468E49204607F0E3FB2046FDF76CFC8B4B1B79112B40F085800023894A1380894A13808948FDF75FFC894BB3F90030002B47D1804C20681E
:403E0000864D286006F0D2FE5021C0B204F09CFE286802F073F9512104F096FE0A2002F035FF206806F0C2FE5221C0B204F08CFE206802F063F9532104F086FE0A2002F039
:403E400025FF774C206806F0B1FE5421C0B204F07BFE206802F052F9552104F075FE0A2002F014FF6F4C206806F0A0FE5621C0B204F06AFE206802F041F9572104F064FE6B
:403E80000A2002F003FF0122634B1A800023664A1380664A1380614B1C68654B1968204606F05CFE88B10122624B1A806249204606F06AFD0446614B187806F05DFC21466C
:403EC00006F0AEFC5E4B186010E00022594B1A805949204606F058FD0446584B187806F04BFC214606F09CFC554B18604E4BB3F900304BB3534BB3F9003063B1404C206882
:403F000005F0FAFF32A3D3E9002305F097FE06F029FB206015E04C4BB3F900303BB1384C4FF07E51206806F073FB206009E0474BB3F900302BB1324C4549206806F068FB49
:403F40002060642002F0A2FE384BB3F900304BB33C4BB3F9003063B1294C206805F0CCFF1BA3D3E9002305F067FE06F0FBFA206015E0354BB3F900303BB1214C4FF07E5100
:403F8000206806F043FB206009E0304BB3F900302BB11B4C2E49206806F038FB2060642002F074FE2B49164B186806F0D7FD10B1294A134B1A602849114B186806F0ECFD5B
:403FC000002800F0D682234A0D4B1A60D1E200BF9A9999999999B93FE185FF1F2F89FF1F4288FF1F6084FF1FCC85FF1FFC83FF1FF488FF1FC888FF1F10D10000D0D1000037
:40400000CC84FF1FBCD100005888FF1F288CFF1FCC83FF1FC8CE0000E886FF1F5484FF1FC485FF1F5088FF1F0685FF1FA885FF1F5884FF1FC884FF1F00004843D883FF1F77
:40404000A08AFF1FF288FF1F0489FF1FEC84FF1F000020410000704100002042022B40F045818948FDF724FB884B186805F044FF874C02460B468749204607F08DFA20469B
:40408000FDF716FB844B1B79112B40F085800023824A1380824A13808248FDF709FB824BB3F90030002B47D1784C20687F4D286006F07CFD5021C0B204F046FD286802F0ED
:4040C0001DF8512104F040FD0A2002F0DFFD784D286806F06BFD5221C0B204F035FD286802F00CF8532104F02FFD0A2002F0CEFD206806F05BFD5421C0B204F025FD2068F6
:4041000001F0FCFF552104F01FFD0A2002F0BEFD684C206806F04AFD5621C0B204F014FD206801F0EBFF572104F00EFD0A2002F0ADFD01225C4B1A8000235F4A13805F4AC3
:4041400013805A4B1C685E4B1968204606F006FD88B101225B4B1A805B49204606F014FC04465A4B187806F007FB214606F058FB574B186010E00022524B1A8052492046C3
:4041800006F002FC0446514B187806F0F5FA214606F046FB4E4B1860474BB3F900304BB34C4BB3F9003063B1384C206805F0A4FE33A3D3E9002305F041FD06F0D3F9206041
:4041C00015E0454BB3F900303BB1304C4FF07E51206806F01DFA206009E0404BB3F900302BB12A4C3E49206806F012FA2060642002F04CFD314BB3F900304BB3354BB3F95F
:40420000003063B1214C206805F076FE1CA3D3E9002305F011FD06F0A5F9206015E02E4BB3F900303BB1194C4FF07E51206806F0EDF9206009E0294BB3F900302BB1134C26
:404240002749206806F0E2F92060642002F01EFD24490E4B186806F081FC10B1224A0B4B1A602149094B186806F096FC002800F080811C4A054B1A607BE100BFAFF3008062
:404280009A9999999999B93FECD10000C485FF1F6084FF1FBCD100005888FF1F288CFF1FCC83FF1FC8CE0000E886FF1F5484FF1FCC84FF1F5088FF1F0685FF1FA885FF1F0F
:4042C0005884FF1FC884FF1F00004843D883FF1FA08AFF1FF288FF1F0489FF1FEC84FF1F000020410000704100002042032B40F040817948FDF7DCF9784B186805F0FCFDEF
:40430000774C02460B467749204607F045F92046FDF7CEF9744B1B79112B40F085800023724A1380724A13807248FDF7C1F9724BB3F90030002B47D1684C20686F4D28605C
:4043400006F034FC5021C0B204F0FEFB286801F0D5FE512104F0F8FB0A2002F097FC684D286806F023FC5221C0B204F0EDFB286801F0C4FE532104F0E7FB0A2002F086FCA5
:40438000604D286806F012FC5421C0B204F0DCFB286801F0B3FE552104F0D6FB0A2002F075FC206806F002FC5621C0B204F0CCFB206801F0A3FE572104F0C6FB0A2002F08D
:4043C00065FC01224C4B1A8000234F4A13804F4A13804A4B1C684E4B1968204606F0BEFB88B101224B4B1A804B49204606F0CCFA04464A4B187806F0BFF9214606F010FA7F
:40440000474B186010E00022424B1A804249204606F0BAFA0446414B187806F0ADF9214606F0FEF93E4B1860374BB3F900304BB33C4BB3F9003063B1284C206805F05CFD2A
:4044400023A3D3E9002305F0F9FB06F08BF8206015E0354BB3F900303BB1204C4FF07E51206806F0D5F8206009E0304BB3F900302BB11A4C2E49206806F0CAF820606420F6
:4044800002F004FC214BB3F90030002B5FD0254BB3F9003063B1114C206805F02DFD0CA3D3E9002305F0C8FB06F05CF820604BE01D4BB3F90030002B3CD0084C4FF07E51EC
:4044C000206806F0A3F820603EE000BFAFF300809A9999999999B93F08D200005088FF1F6084FF1FBCD100005888FF1F288CFF1FCC83FF1FC8CE0000E886FF1F5484FF1FE1
:40450000CC84FF1FC485FF1F0685FF1FA885FF1F5884FF1FC884FF1F00004843D883FF1FA08AFF1FF288FF1F0489FF1FEC84FF1F00002041AD4BB3F900302BB1AC4CAD4932
:40454000206806F063F82060642002F09FFBAA49A74B186806F002FB10B1A84AA44B1A60A649A34B186806F017FB10B1A24AA04B1A60A34B1B78062B40F0D1810122A14BA4
:404580001A800022A04B1A80A04B1B79212B09D19F48FDF78DF800239A4A13809B4A13719C4A1371994B1B79082B0BD19A4AB2F90030B3FA83F35B0913800023934A137164
:4045C000944A1371914B1B79132B0BD104F0BCFEB0FA80F0400904F0ABFE00238B4A13718C4A1371894B1B79012B0BD105F0A2F8B0FA80F0400905F091F80023834A1371F7
:40460000844A1371814B1B79022B0BD105F07EF8B0FA80F0400905F06DF800237B4A13717C4A1371794B1B79032B0BD105F096F8B0FA80F0400905F085F80023734A1371C3
:40464000744A1371714B1B79042B0BD105F0B6F8B0FA80F0400905F0A5F800236B4A13716C4A1371694B1B79052B0BD105F092F8B0FA80F0400905F081F80023634A137177
:40468000644A1371614B1B79062B0BD105F0B2F8B0FA80F0400905F0A1F800235B4A13715C4A1371594B1B79072B0BD105F0B6F8B0FA80F0400905F0A5F80023534A137153
:4046C000544A1371514B1B79122B0BD105F0BAF8B0FA80F0400905F0A9F800234B4A13714C4A13714C4BB3F9003033B1012004F0A7FA4A48FCF7DCFF05E0002004F0A0FA59
:404700004748FCF7D5FF04F01FFE012803D14548FCF7CEFF02E04448FCF7CAFF05F00AF8012803D14148FCF7C3FF02E04048FCF7BFFF04F0EBFF012803D13E48FCF7B8FF46
:4047400002E03D48FCF7B4FF05F008F8012803D13A48FCF7ADFF02E03948FCF7A9FF05F02DF8012803D13748FCF7A2FF02E03648FCF79EFF05F00EF8012803D13348FCF79B
:4047800097FF02E03248FCF793FF05F033F818B93048FCF78DFF02E02F48FCF789FF05F03DF818B92D48FCF783FF02E02C48FCF77FFF05F047F8012803D12A48FCF778FF0D
:4047C00002E02948FCF774FF04F046FA18B92748FCF76EFF02E02648FCF76AFF04F0C6FF002849D12348FCF763FF48E0EC84FF1F5088FF1F000020410000704100002042A5
:40480000308CFF1F3084FF1F0484FF1F5888FF1FC8CE0000B485FF1F1285FF1F24D2000030D2000040D2000050D2000060D200006CD200007CD2000088D2000098D20000D8
:40484000A4D20000B4D20000C0D20000D0D20000DCD20000ECD20000F8D2000008D3000014D3000024D3000034D3000044D3000050D3000060D30000AD48FCF719FF04F0B1
:40488000A5FF30B9AB48FCF713FF002004F0CEFF02E0A948FCF70CFFA84DA94C2A68A949204606F079FE2046FCF702FF6A68A649204606F071FE2046FCF7FAFEA34B1868DB
:4048C00005F01AFB02460B46A149204606F064FE2046FCF7EDFEFDF797FB02469D49204606F05AFE2046FCF7E3FE9B4B186805F003FB02460B469949204606F04DFE2046A6
:40490000FCF7D6FE964B186805F0F6FA02460B469449204606F040FE2046FCF7C9FE924B1B78072B40F0D781904B1B790A2B02D104218F4A11700B2B02D105218C4A117094
:404940000C2B02D101218A4A11700D2B02D10221874A11700E2B02D10321854A1170844A1278052A02D90121814A1170804A127812B905217E4A1170112B69D17D48FCF72A
:4049800097FE7D4B9C7B2046FDF786FB40B17A4B1B7B7A4A134493F92420794B1A7007E0754B1B7B754A134493F93020744B1A70631E744883FB00011944DA17C2EBA10251
:4049C000C2EBC2029A1A1846002B00DAD81C80106D4981FB0351DB17C3EB6113013303EB43031946002B00DAD91CA0EBA100654D80FB0567C319C117C1EBA303C3EBC30311
:404A0000C31A13445E4A12781A445B4E707B5F4BA0FB0389C9EB000309EB53039B08C3EBC303C31ADBB21A4482FB058902EB0901D317C3EBA103C3EBC303D31ADBB273745A
:404A4000317B327C0192F27B0092224601F090FC464B1B792A2B40F0C980454B1B78012B58D1454B1B7B022B1CD1434B987BFDF713FB58B1404B5B7B1C2B03D801333E4ACF
:404A80005373AEE001223C4B5A73AAE03A4B5B7B1B2B03D80133384A5373A2E00122364B5A739EE0072B1AD813F0010F0BD1324B5B7B1D2B03D801332F4A537391E00122A8
:404AC0002D4B5A738DE02C4B5B7B1E2B03D80133294A537385E00122274B5A7381E013F0010F0BD1244B5B7B1E2B03D80133224A537376E00122204B5A7372E01E4B5B7BFE
:404B00001D2B03D801331C4A53736AE001221A4B5A7366E0022B3BD1174B1B7B0B2B03D80133154A13735CE00122134B1A7358E06CD300007CD300008CD300009885FF1F08
:404B40006084FF1F9CD30000B0D300005884FF1FC4D30000D8D300008C85FF1FECD30000A085FF1F00D40000308CFF1F5888FF1F4688FF1FC8CE00000482FF1FCC80FF1F98
:404B80001489FF1F932449921F85EB5125499224032B0BD19A4B9B7B622B03D80133984A93731EE00022964B9A731AE0042B0BD1934BDB7B172B03D80133914AD37310E072
:404BC00000228F4BDA730CE0052B0AD18C4B1B7C3A2B03D801338A4A137402E00022884B1A740023874A1371874A1371854B1B792B2B44D1854B1B78012B07D1804B5B7B2F
:404C0000002B37D0013B7E4A537333E0022B0BD17B4B1B7B012B03D9013B794A137329E00C22774B1A7325E0032B0AD1744B9B7B1BB1013B724A93731CE06322704B9A73F7
:404C400018E0042B0AD16E4BDB7B1BB1013B6C4AD3730FE017226A4BDA730BE0052B09D1674B1B7C1BB1013B654A137402E03B22634B1A740023634A1371634A1371604DCC
:404C8000634CEA7B6349204606F086FC2046FCF70FFD2A7C6049204606F07EFC2046FCF707FD6A7B5D49204606F076FC2046FCF7FFFC2A7B5A49204606F06EFC2046FCF75B
:404CC000F7FCAA7B5749204606F066FC2046FCF7EFFCFDF7F7F9544B1B78082B40F027810024524B1C80524B1B78524A1278484D514909780391514909780291504909781A
:404D000001915049097800914F49284606F044FC2846FCF7CDFC01224C4B1A804C4B1C804C4B1C804C4B1C7016E003EB43018A004A490A4492784AB903EB43018A00474907
:404D40000A44D27812B9464A137009E00133DBB2434A1370404A13703F4B1B78132BE4D92B4C3F4B1A783F49204606F015FC2046FCF79EFC00223C4B1A80224B1A79531EAF
:404D8000DBB2132B2DD83949204606F005FC2046FCF78EFC1B4D2B79013B304E03EB43039A003244906805F0A7F802460B463049204606F0F1FB2046FCF77AFC2B79013BC2
:404DC0005900C81882003244D37892782949204606F0E2FB2046FCF76BFC2A79264B1A7081E0254B1A78002A4ED12448FCF760FC2348FCF75DFC2348FCF75AFC73E000BF40
:404E00000482FF1F5888FF1FB485FF1F4688FF1F6084FF1F18D400002CD4000040D4000050D4000060D40000308CFF1F2484FF1F2F89FF1F4288FF1FCC85FF1FFC83FF1FC9
:404E4000F488FF1FC888FF1F74D40000F288FF1F0489FF1FEC84FF1FB085FF1FEC85FF1F0E84FF1FACD40000E886FF1FCCD40000E4D4000008D500007E85FF1F28D5000020
:404E80003CD5000058D50000531EDBB2132B2AD8A14CA249204606F07FFB2046FCF708FC9F4E3378013B9F4D03EB43039A002A44906805F021F802460B469B49204606F090
:404EC0006BFB2046FCF7F4FB3378013B5900C81882002A44D37892789449204606F05CFB2046FCF7E5FB924B1B79202B08D18C4B1B782BB18F48FCF7DBFB01228E4B1A80C5
:404F00008B4B1B79402B08D1854B1B782BB18B48FCF7CEFB0122884B1A80854B1B79702B05D18748FCF7C4FB0022834B1A80854B1B780F2B0DD1844BB3F9003033B94FF430
:404F4000FA6001F0A3FE01227F4B1A807C48FCF7AFFB7C4B1B78102B0DD17B4BB3F9003033B94FF4FA6001F091FE0122764B1A807648FCF79DFB734B1B78112B0DD1744B4E
:404F8000B3F9003033B94FF4FA6001F07FFE01226F4B1A806A48FCF78BFB6A4B1B78122B4CD101226B4B1A806B4B1B880A2B02D96A48FCF77DFB5E4B1B79012B32D16848C5
:404FC000FCF776FB0024674B1C70674B1C70544B1C70204603F034FE644B1C800022644B1A60644B1C70644B1C80644B1C706449644B186805F0C8FC634B196805F010FCDB
:40500000624B1860624B1C80624B1C80624B1C80624B1C80624B1C80624B1C80444B1C71614B1C71424B1B79022B07D14B48FCF73FFB00233E4A13715B4A1371414B1B78E3
:40504000142B40F07D840023584A1380584A1380404A1380404A1380564E2F4C06F1200735460FCD20606160A260E3602E461034BD42F5D1286820602B792371264C204642
:40508000FCF716FB4C4B1B784C4A12784C49097803914C49097802914B49097801914B49097800914A49204606F076FA2046FCF7FFFA0122474B1A800023474A1380474A2A
:4050C00013801B4B1B79012B02D14548FCF7F0FA174B1B79032B02D11848FCF7E9FA144B1B79042B05D11948FCF7E2FA04223D4B1A700F4B1B79052B05D11448FCF7D8FA18
:405100000222384B1A700A4B1B79062B7ED13648FCF7CEFA6AE000BF6084FF1FCCD400007E85FF1FEC85FF1FE4D4000008D500005888FF1F74D50000A68AFF1F88D50000BA
:40514000C8CE0000308CFF1FD684FF1FE8CF00002484FF1FE683FF1FDE86FF1F94D50000A8D500001C8CFF1FEA86FF1F0484FF1FE086FF1FA485FF1FC885FF1F0C84FF1FFD
:405180000000C8425484FF1FE083FF1FA08AFF1F6C85FF1FD083FF1F5688FF1F1485FF1F328CFF1FAE85FF1FB485FF1FE886FF1F5C84FF1FBCD500002F89FF1F4288FF1F96
:4051C000CC85FF1FFC83FF1FF488FF1FC888FF1F10D10000F288FF1F0489FF1FEC84FF1FE4D50000E085FF1FF0D50000A64BA74A12785A73A64A12781A73A64A12789A7321
:40520000A54A1278DA73A54A12781A74A44B1B79072B05D1A348FCF74BFA0122A24B1A709F4B1B790A2B02D1A048FCF741FAA04BB3F90030002B40F0DB8103F00DFD00281A
:4052400040F09181964B1B79082B36D1994BB3F90040B4FA84F464091C801CB10122964B1A8002E00022944B1A8000238C4A1371924A13719249934B186805F085FB054680
:40528000914B187805F078FA294605F0C9FA8F4B18608F4B1B7833B98E4B1B781BB901228D4B1A8002E000228B4B1A802921204603F04AFC142001F0E9FC794B1B790B2B7F
:4052C00073D1864B1B78002B6AD0854BB3F90030002B65D1784BB3F90030002B60D1814AB2F90030B3FA83F35B091380002B44D0DFF8D0E1DEF800207B4B1A60DFF8D481B0
:4053000098F80020794B1A70714F3A78784B1A70784B1968784B1960784B1B7878484FEA430C0CEB0304A20002449678D578C6EB0612C2EB02121401C5EB05194FEA890220
:40534000224494B26F4A148063449A0002449068CEF8000005F05AF98146204605F00CFA0146484605F010FB674B186088F800603D7001224F4B1A8012E05B4B1A68514BE6
:405380001A605A4B1A78534B1A70594B1A78504B1A7000235D4A13705D4A1370454A138000233F4A1371454A13714E4BB3F90030002B4FD0002004F011FAFCF737F955483F
:4053C000FCF776F95448FCF773F95448FCF770F904F0CCF9012805D05149464B186805F0DBFB30B34F48FCF763F9002003F028FC00244D4B1C803249324B186805F0C4FAA8
:405400000546314B187805F0B7F9294605F008FA2E4B1860012003F08BFF4FF4967001F035FC204603F084FF4FF4967001F02EFC04E0FCF739FB3D48FCF73AF92F4B1A780E
:405440003B4C01323B49204606F0A6F82046FCF72FF908E13848FCF72BF93848FCF728F9FCF7E4F83148FCF723F9124BB3F90030002B65D02748FCF71BF9FCF79DFE00204B
:4054800004F0ACF9EFE000BF0482FF1F4288FF1F2F89FF1FC888FF1FF488FF1FFC83FF1F5888FF1FE8CF0000E085FF1FACD00000D083FF1FFE88FF1FD884FF1FB485FF1F24
:4054C000000048435484FF1FD883FF1FA08AFF1FBC8AFF1F4884FF1FF088FF1F0E84FF1F3689FF1F328CFF1FF486FF1F9285FF1FFA86FF1F5884FF1FE885FF1F0C84FF1F7F
:40550000EC85FF1FEC88FF1F7085FF1F1C8CFF1FEA86FF1FFCD5000008D6000014D60000000070425CCE00000484FF1F20D600006084FF1F3CD6000050D6000060D6000062
:40554000AC48FCF7B5F8AC48FCF7B2F8002003F077FB0022A94B1A800022A94B1A60012004F03CF97FE003F077FB01287BD104F049F9002004F002F9012004F02FF900201C
:4055800004F054F99C48FCF793F89E48FCF790F89D48FCF78DF80024984B1C809B4B1C809B4B1C809B499C4B186805F0EDF905469A4B187805F0E0F8294605F031F9984BBF
:4055C0001860984B1C70204603F03AFB00228C4B1A600122944B1A80944B1C809448FCF767F89448FCF764F89348FCF761F83AE0012004F007F9002004F0C0F8002004F01D
:405600008DF8002004F076F8002004F09BF8002004F0C8F8012004F0E1F8002004F006F98648FCF745F88648FCF742F8002003F007FB0023714A13800021714A1160794A58
:405640001370804A1380804A1380FCF793FD6A48FCF72EF86C48FCF72BF87C48FCF728F87B48FCF725F87B4BB3F90030012B6CD10022784B1A80784B187804F02BFC0246EB
:405680000B460020754904F0B5FD04460D465C4B186804F031FC22462B4604F081FC04F061FF6F4B18606F4B1A686F4B9A420ADD6E4B186804F020FC02460B466C496D485B
:4056C00005F06AFF0DE06B4D6B4C0FCC28606960AA60EB6003CC286169612288A3782A83AB76644C2046FBF7E3FF4B4B186804F003FC02460B466149204605F04DFF204677
:40570000FBF7D6FF5E4B1B785E4A12785E49204605F042FF2046FBF7CBFF5C4B1B785C4A12785C49204605F037FF2046FBF7C0FF4B4B186804F0E0FB02460B465649204695
:4057400005F02AFF2046FBF7B3FF4D4B1B7823B94C4B1B78002B00F0F380FBF739FF394BB3F90030002B00F0A380484B1A78444B1B789A42C0F0E480454B1A78414B1B7802
:405780009A42C0F0DD80454BB3F90030002B40F0D7800022424B1A80424B1A78424B1B78013B9A4208DA01323E4B1A700023384A1370364A137002E00122384B1A800022AB
:4057C0003A4B1A7011E0012003F0B2FD4FF47A7001F05CFA002003F0ABFD4FF47A7001F055FA324A137801331370304B1B78012BE9D9A5E06CD6000084D600000484FF1FC9
:40580000E086FF1F90D6000060D60000C885FF1FDC86FF1F000048435484FF1FD883FF1FA08AFF1FA485FF1FEA83FF1F148CFF1F9CD60000B8D60000CCD60000E0D6000033
:40584000F4D60000328CFF1FFE88FF1F14D7000030D70000D084FF1F318CFF1F000059401885FF1F9885FF1F803801005884FF1F4CD700006084FF1F6CD7000088D7000096
:40588000BC8AFF1F4884FF1FA8D700001C8CFF1FEA86FF1FCCD70000E4D70000D083FF1F5688FF1F0C84FF1F0E84FF1FB085FF1F9F4B1A789F4B1B789A4241D39E4B1A78E7
:4058C0009E4B1B789A423BD39D4B1B78012B37D19C4BB3F90030A3B90024994B1C700222994B1A800125974B1D80204603F0A8F9964B1C800022964B1A60964B1C80964B47
:405900001D809648FBF7D4FEFCF734FC0022944B1A7011E0012003F00BFD4FF47A7001F0B5F9002003F004FD4FF47A7001F0AEF98B4A137801331370894B1B78012BE9D95C
:40594000884B1B78642B7CF44AAE874B1B780A2B02D90122844B1A70834B1B7813B90A22814B1A70804B1B78012B52D17F48FBF79FFE7F4C7F4B1A787F49204605F00CFED3
:405980002046FBF795FE7D4B1B790A2B16D1142001F07CF9794B1B790A2B0FD1754C207804F098FA0022764B04F048F904F0BAFD20700023714A1371724A13716F4B1B795B
:4059C0000B2B16D1142001F061F96C4B1B790B2B0FD1684C207804F07DFA0022684B04F02BF904F09FFD20700023644A1371654A1371604B1B78142B02D901225D4B1A70B1
:405A00005C4B1B78002B40F0AB821422594B1A70A6E2022B44D15C48FBF74AFE544C5B4B1A785549204605F0B7FD2046FBF740FE524B1B790A2B0FD1142001F027F94F4B58
:405A40001B790A2B08D1514A13780133137000234A4A13714B4A1371484B1B790B2B0FD1142001F013F9454B1B790B2B08D1474A1378013B13700023404A1371414A137197
:405A8000424B1B78502B02D90122404B1A703F4B1B78002B40F0648250223C4B1A705FE2032B79D13A48FBF703FE314C394B1A783149204605F070FD2046FBF7F9FD2F4B8C
:405AC0001B790A2B0FD1142001F0E0F82B4B1B790A2B08D12F4A1378013313700023274A1371284A1371254B1B790B2B0FD1142001F0CCF8214B1B790B2B08D1254A137813
:405B0000013B137000231D4A13711E4A1371214B1B78042B02D901221E4B1A701D4B1B78002B40F01D8204221A4B1A7018E200BF1C8CFF1FBC8AFF1FEA86FF1F4884FF1F28
:405B4000A485FF1FF086FF1FEC83FF1F0484FF1FE086FF1F148CFF1FD083FF1F00D80000B085FF1F308CFF1FF083FF1F18D800006084FF1FD883FF1F38D800005888FF1F55
:405B80000000F03FB485FF1F48D80000D284FF1F64D80000F688FF1F042B52D1A748FBF787FDA74CA74B1A78A749204605F0F4FC2046FBF77DFDA54B1B790A2B16D11420E4
:405BC00001F064F8A14B1B790A2B0FD19D4C207804F080F900229E4B04F030F804F0A2FC20700023994A13719A4A1371974B1B790B2B16D1142001F049F8944B1B790B2BF8
:405C00000FD1904C207804F065F90022904B04F013F804F087FC207000238C4A13718D4A1371884B1B78142B02D90522854B1A70844B1B78042B00F293811422814B1A70BF
:405C40008EE1052B3CD18448FBF732FD7C4C834B1A787D49204605F09FFC2046FBF728FD7A4B1B790A2B12D1142001F00FF8774B1B790A2B0BD1794B1B78632B02D8013333
:405C8000764A13700023714A1371724A13716F4B1B790B2B40F06481142000F0F7FF6B4B1B790B2B40F05C816C4B1B7813B1013B6A4A13700023654A1371664A13714FE184
:405CC000062B3CD16648FBF7F3FC5D4C654B1A785D49204605F060FC2046FBF7E9FC5B4B1B790A2B12D1142000F0D0FF574B1B790A2B0BD15B4B1B78632B02D80133594A4E
:405D000013700023514A1371524A13714F4B1B790B2B40F02581142000F0B8FF4B4B1B790B2B40F01D814F4B1B7813B1013B4D4A13700023454A1371464A137110E1072B87
:405D40003DD14948FBF7B4FC3D4C484B1A783E49204605F021FC2046FBF7AAFC3B4B1B790A2B12D1142000F091FF384B1B790A2B0BD13E4B1B784F2B02D801333B4A13707D
:405D80000023324A1371334A1371304B1B790B2B40F0E680142000F079FF2C4B1B790B2B40F0DE80314B1B780A2B02D9013B2F4A13700023254A1371264A1371D0E0082B35
:405DC0005AD12B48FBF774FC1D4C2A4B1A781E49204605F0E1FB2046FBF76AFC1B4B1B790A2B12D1142000F051FF184B1B790A2B0BD1204B1B78632B02D801331D4A1370C5
:405E00000023124A1371134A1371104B1B790B2B40F0A680142000F039FF0C4B1B790B2B40F09E80134B1B7813B1013B114A13700023064A1371074A137191E080D80000D4
:405E40006084FF1F318CFF1F38D800005888FF1F0000F03FB485FF1F98D80000CA85FF1FB4D800007D85FF1FD0D800002E89FF1FE8D80000A48AFF1F092B3AD18848FBF79E
:405E800017FC884C884B1A788849204605F084FB2046FBF70DFC864B1B790A2B12D1142000F0F4FE824B1B790A2B0BD17E4B1B78632B02D801337C4A137000237C4A1371D7
:405EC0007C4A13717A4B1B790B2B49D1142000F0DDFE774B1B790B2B42D1734B1B7813B1013B714A13700023714A1371714A137136E00A2B34D17048FBF7DAFB694C6F4BA3
:405F00001A786F49204605F047FB2046FBF7D0FB674B1B790A2B0FD1142000F0B7FE644B1B790A2B08D1654A13780133137000235F4A13715F4A13715D4B1B790B2B0FD112
:405F4000142000F0A3FE5A4B1B790B2B08D15B4A1378013B13700023554A1371554A1371534B1B790C2B0FD1142000F08FFE504B1B790C2B08D1534A137801331370002381
:405F80004B4A13714B4A1371494B1B790D2B0FD1142000F07BFE464B1B790D2B08D1494A1378013B13700023414A1371414A13713F4B1B79112B7CF412AB142000F066FE6F
:405FC0003B4B1B79112B7CF40AAB3F4BB3F90030002B60D120213D4B187802F0B5FD0A2000F054FE1F213A4B187802F0ADFD0A2000F04CFE374C1E21207802F0A5FD0A208E
:4060000000F044FE2221344B187802F09DFD0A2000F03CFE2321314B187802F095FD0A2000F034FE24212E4B187802F08DFD0A2000F02CFE21212B4B187802F085FD0A20E8
:4060400000F024FE2521284B187802F07DFD0A2000F01CFE2621144B187802F075FD0A2000F014FE2149224B186804F08DFC0546207804F081FB294604F0D2FB1D4B186028
:4060800028210E4B187802F05FFD0A2000F0FEFD01220D4B1A801848FBF70AFBFCF79FBA04D900006084FF1F0F84FF1F38D800005888FF1FB485FF1F20D90000018CFF1FFA
:4060C0003CD90000F083FF1FE886FF1FF688FF1FD284FF1FD883FF1FCA85FF1F7D85FF1F2E89FF1F318CFF1FA48AFF1F000048435484FF1FA08AFF1FC8CE000010B50446EE
:4061000004F054FD40B204F037FB0146204604F07DFA034904F084FB04F06EFDC0B210BD0000204108B504F023FB024904F02CFC08BD00BF0000204110B5012003F01CF923
:40614000012002F0BBFC7D2003F0AEF801F00AF8002001F017F801F02DF8044600F064F80021201A00F042F810BD00BF38B505460C467D2003F098F874B9002003F0FCF871
:40618000002002F09BFC00F0EDFF002000F0FAFF01F010F8044611E0012C0ED1022003F0EBF8022002F08AFC00F0DCFF002000F0E9FF00F0FFFF044600E0002400F034F864
:4061C0000121201A00F012F804F0D6FA0446284604F0D2FA0146204604F0D6FB024904F01FFB04F0E3FC38BD0050C34780020D4B53F8213003F54832904203DCA3F5483275
:40620000904203DA074B43F8210005E0C01A03EB2010044B43F82100024B53F821008012704700BF2082FF1F08B5002003F03CF800F098FF002000F0A5FF00F0BBFF08BD4A
:4062400008B5002003F04AFA002003F03BFA012003F044FA042000F02FFD08BD08B5002003F03CFA042000F027FD08BD70B506460D46002418E046FA04F000F0010003F070
:406280000DFA012000F018FD012003F01BFA012000F012FD0DB1072C05D0002003F012FA012000F009FD0134072CE4DD70BD00BF38B500252C4619E0012003F003FA0120A8
:4062C00000F0FAFC002003F0FDF9012000F0F4FC03F0F0F920B10123A3401D43EDB203E00123A34025EA03050134E4B2072CE3D9284638BD70B50546FFF7A2FF0021BE20D7
:40630000FFF7B4FF002406E06E1C00212878FFF7ADFF01343546072CF6DDFFF79FFF70BD38B50C4620F00105FFF78AFF002105F0FE00FFF79BFF00212046FFF797FFFFF7C5
:406340008DFF38BD70B50546FFF77AFF0121BF20FFF78CFF002405E06E1CFFF7A9FF287001343546072CF7DDFFF778FF70BD00BFF8B59DF818E09DF81C60274C00252560FA
:406380006560A5F13335A5FB06C7FF0807EB870CA6EB4C0C66786CF3030667F306166670A5FB0E67FF0807EB8706AEEB460EA6786EF3030667F30516A670A5FB0076F608F7
:4063C00006EB8607A0EB4707E07867F3030066F30510E070A5FB0160C00800EB8006A1EB4606217966F3030160F304112171617963F302016171A5FB0235ED0805EB850387
:40640000A2EB4302A37962F3030365F30713A3712046FFF76FFFF8BDD885FF1F2DE9F04180460F4616461D46144C2046FFF78AFFE278C2F3011302F00F0103EB83035A003A
:406440000A4488F800202279C2F3001302F00F019A0013445A000A443A70A279C2F3031302F00F0103EB83035A000A4432706379C3F302032B70BDE8F08100BFD885FF1F5E
:40648000F8B507460E461446114D2846FFF75AFFAA78C2F3011302F00F0103EB83035A000A443A706A78C2F3021302F00F0103EB83035A000A4432702A78C2F3021302F09C
:4064C0000F0103EB83035A000A442270F8BD00BFD885FF1FFEE700BFF0B40022174611E050F82760F3B226F0FF0608E001EB420511F812406D78A5550132013BDBB2002B2C
:40650000F4D10137282FEBD9F0BC704708B50A46002104F0C8FB08BDF8B51D4B1B78DBB21C4E3478E4B21C4F3D78EDB203F007011A4A11701B090132137044F003033370FF
:4065400045F003033B700422154B1A70402203F2F4731A7002331A70022103F281131970102310490B7075310B7020310A7020210D4A117023321370B0220C4B1A700A2028
:4065800000F09AFB3D7034704422094B1A70F8BDCF010049F8460040F94600406E5800400D5100408B5A0040235B0040585B00407658004008B504F06BFB08BD38B5002481
:4065C000324B1C80502202331A70172202331A8018232F4A13704FF49C71023211800232137004222B492C48FFF7E4FF06222B4B1A705222A3F580731A70294B1B78DBB21A
:40660000284A13704FF4E162274B1A8041F25122023B1A8019250CE0244B1B7803F0010343EA440404F003044FF4F07003F014F9013D0DB1032CEFD115B90320FFF74AFF05
:406640001B4A4FF48073138007231370002319490B704820023108701370053213700222154B1A7004220A331A70144A137843F007031370013A137843F001031370013A90
:40668000137843F08003137038BD00BF8040004086400040DC09004800410040004300400F010049A14600402242004025420040044000400640004001400040A2430040B0
:4066C000022814D810B44000C0B2094B53F820101A18147E0A7822430A700130C0B253F820201844017E13780B43137010BC70474CD90000022816D810B44000C0B20A4B2A
:4067000053F820101A18147E0A7822EA04020A700130C0B253F820201844017E137823EA0103137010BC70474CD90000022818D810B44000C0B20B4B03EB8002116A1A1839
:4067400092F838400A7822430A700130C0B203EB8002126A184490F8381013780B43137010BC70474CD9000002281AD810B44000C0B20C4B03EB8002116A1A1892F83840EF
:406780000A7822EA04020A700130C0B203EB8002126A184490F83810137823EA0103137010BC70474CD90000022818D810B44000C0B20B4B03EB8002116C1A1892F8584022
:4067C0000A7822430A700130C0B203EB8002126C184490F8581013780B43137010BC70474CD9000002281AD810B44000C0B20C4B03EB8002116C1A1892F858400A7822EA9F
:4068000004020A700130C0B203EB8002126C184490F85810137823EA0103137010BC70474CD9000038B572B6474A137843F00403137000240CE0454863001A19510001447D
:406840000A46B1F86410106EFFF760FE0134E4B2062CF0D900240DE03C49A3001819420088180622D0F89010D0F88C00FFF7A2FE0134E4B2002CEFD035494FF09040FFF714
:406880002BFE0A24334B1C7004213348FFF73EFE042232493248FFF78DFE324A137843F0020313701032137843F0020313702E4D2B7843F040032B70A2F58632513A13782B
:4068C00043F010031370224628492948FFF772FE224628492848FFF76DFE224627492848FFF768FE224627492748FFF763FE082226492748FFF75EFE224626492648FFF79E
:4069000059FE082225492648FFF754FE082225492548FFF74FFE224624492548FFF74AFE244A137843F008031370234C61232370FFF744FE81232370FFF7EEFD0E222946BB
:406940001E48FFF737FE38BDE84600404CD90000A40000488358004000760040E00900480876004003500140A04300407C0900480051004088090048C0510040940900482E
:40698000F0510040A009004810510040AC09004822510040B409004830510040C009004842510040C809004852510040D0090048605100402243004000480040B0430040FC
:4069C00008B504F039F903680C2B00D1FEE7FEE708B5094B1A681044084BC31AB3F5007F02DC054B186005E004F026F90C2303604FF0FF32104608BD0881FF1F408DFF1FEC
:406A000008B5104E104D16E029686B68AC68002204E051F8040B43F8040B0432A242F8D1E868002203E0002143F8041B04328242F9D11035013E002EE6D104F003F9FBF706
:406A400013FDFEE70100000010DD000008B5114A114B1A60114A136843F40073136000230AE0032B03D80E4A52F8231000E00D490D4A42F8231001332F2BF2D90B4B1A782C
:406A80000B4B1A70084A0B4B1A60FFF7CBFE00F013F808BD0004FA050CED00E014ED00E000000000C16900000080FF1FBC760040C080FF1F08ED00E00B4A7F231370802110
:406AC000517007E0DA0002F1804202F5F042013BDBB21370002BF5D1DB0003F1804303F5F04300221A7070470C81FF1F172815D831B103010A495A5C42F020025A5405E02C
:406B0000030107495A5C02F0DF025A540001044A835C43F00103835400207047012070471070004017280CD80001074BC1180A7942F004020A71C25C42F00102C254002011
:406B400070470120704700BF1070004017280BD80001064A835C03F0F103490001F00E011943815400207047012070471070004041F6FF73994201D14FF4005141F6FF7352
:406B80009A4201D14FF40052172808D8C00000F1804000F5EC408180C280002070470120704700BF172805D8034B03EB0010417200207047012070471070004017281BD874
:406BC00010B4C00000F1804404F5EC44D201D2B201F07F01114321709DF804201201D2B203F00F03134363709DF8083003F00F03A3700020E07001E00120704710BC704777
:406C000010B502F031FE0A4B5B78182B0BD9084A1478013B5370E30003F1804303F5F0431B78137000E0FF2402F022FE204610BD0C81FF1F10F0800F0CD111F4704F0BD168
:406C4000C00000F1804000F5F04001808270C37000207047012070470120704710F0800F08D1C00000F1804000F5F0408180C280002070470120704701BE7047024A137814
:406C800043F0010313707047F646004010B5044605E0084B186802F0DFFDA4F50044B4F5004FF6D8034B586800FB04F002F0D4FD10BD00BF1481FF1F08B5034B1B7A00FB15
:406CC00003F002F0C9FD08BD1481FF1F70B504460E46074B1D681F2802D90020FFF7CCFF04F01F04103455F8240045F8246070BD08ED00E038B504460D46072902D9002090
:406D0000FFF7BAFF1F2C02D90020FFF7B5FF04F01F0000F1604000F564406D01EDB2057038BD00BF134B1B78DBB20360124A127843EA02230360114A127843EA024303600B
:406D40000F4A127843EA026303600E4B1B78DBB243600D4A127843EA022343600B4A127843EA024343600A4A127843EA02634360704700BF0301004904010049EC460040BF
:406D8000020100490101004900010049050100490601004910B59DF80840012C51D1013809282ED8DFE800F0052D2D052D2D0F192D230F2B03D92548007840B222E02448AA
:406DC000007840B21EE00F2B03D92248007840B218E02148007840B214E00F2B03D91F48007840B20EE01E48007840B20AE00F2B03D91C48007840B204E01B48007840B25E
:406E000000E0002001EB401101FB02F1C90B8AB20D2B0BD8C3F10E0289B211418AB2611E124800EB810101338B7005E0631E0F4901EB83030F219970013C0C4B23F824209D
:406E400010BD0020FFF718FF10BD00BF180100491C010049190100491D0100491A0100491E0100491B0100491F0100492C82FF1FF8B5074602F0F8FC06460D4D2B7843F038
:406E800003032B700B4C237843F0030323700A4B1F700320FFF710FF2B7803F0FC032B70237803F0FC032370304602F0E1FCF8BDF8460040F9460040925800400022314B58
:406EC0001A7101285CD170B57C222F4B1A70002402331C700A2601331E707F232B4A13700132147001321370294B1C7001331C7001331C7001250A331D70502203F52763A8
:406F00001A703C2201331A70222201331A7001331C70442003331870462201331A70062201331A70022202331A70122201331A70282201331A70EB2201331A70FFF798FF86
:406F40005822144B1A7001331C7005331D7001331D7001331C7001331E700A4B1D714FF47A220D4B1A602946284600F07BF92946082000F0FBF909491D20FFF7A7FE70BD3F
:406F8000704700BF2C82FF1F004E0040044E0040084E004094580040388CFF1F21720000F0B583B0274D01272F70274E00247471102000F045F9102000F0C6F907211D2005
:406FC000FFF798FE0422214B1A7001331C7007331C701F4A137843F0180313701D4B1C7003F2F5231C7001331C700A22A3F209331A7001331C7002331C705B2205331A700A
:407000005E2201331A7004331C701423124A137000974FF4004249F2B9010720FFF7BAFE2B78013B06EB83039A780C4B1A702B78013B36F823200A4B1A802878FFF73EFFF8
:4070400003B0F0BD2481FF1F2C82FF1F96580040075B004093580040014E00400E4E00400C4E004070B502F0FFFB06462A4B1B782A4B1A7842F001021A701A7842F0100260
:407080001A7010331A7842F001021A701A7842F010021A70224D2B7843F002032B70214C237843F0020323701F4A137843F0030313700320FFF700FE2B7803F0FD032B70A2
:4070C000237803F0FD032370184A137843F0060313707A22164B1A70164A137843F0010313701032137843F0010313700F3A137843F0010313701032137843F001031370FB
:407100004FF000530C4A1360A2F5C0721360304602F0AEFB70BD00BF2481FF1FAA430040F8460040F9460040915800407758004082580040A143004080E200E008B5084B06
:407140009B794BB9064BDB7913F0FF0F01D1FFF727FF0122024B9A71FFF784FF08BD00BF2C82FF1F024A137843F0010313707047004E0040024A137803F0FE031370704734
:40718000004E0040094B1B7913F0FF0F03D0074B5B79DBB203E0064B1B7803F00103012B01D00028EED01846704700BF2C82FF1F014E0040154B1B7803F00303012B07D8FB
:4071C000134B1888023B1B889BB243EA004013E0022B0AD10E4B1888023B1B7843EA00430C4A107843EA002006E00B4B188883B2074A108843EA0040084B1B7913F0FF0F39
:4072000002D00022054B5A71704700BF144E0040124E0040114E0040104E00402C82FF1F08B5FFF7A7FF0122014B1A7008BD00BF3182FF1F014B188880B270478040004002
