:04000000C7EF18F03E
:08000800046ED8CF05F0E0CF33
:1000100006F00001E9CF0CF0EACF07F0E1CF08F0DD
:10002000E2CF09F0D9CF0AF0DACF0BF0F3CF12F01C
:10003000F4CF13F0FACF14F000C00EF001C00FF0AF
:1000400002C010F003C011F09DA02AEF00F09EB096
:1000500068EF06F00EC000F00FC001F010C002F013
:1000600011C003F00CC0E9FF07C0EAFF078E08C00B
:10007000E1FF09C0E2FF0AC0D9FF0BC0DAFF12C0DE
:10008000F3FF13C0F4FF14C0FAFF045006C0E0FFF2
:1000900005C0D8FF1000F2CF0DF0F29EF76AB00F46
:1000A000F66E000EF7220900F5500DBEF28E12001A
:1000B000000000000000005F0000000300030014C7
:1000C0003E143E14242A7F2A1243330866613649BF
:1000D0005522500005030000001C2241000041226F
:1000E0001C0014083E081408083E080800503000A0
:1000F00000080808080800606000002010080402DA
:100100003E5149453E0004027F004261514946226A
:10011000414949361814127F1027454545393E4953
:100120004949320101710907364949493626494989
:10013000493E0036360000005636000008142241C1
:100140000014141414140041221408020151090669
:100150003E4159555E7E0909097E7F494949363E2F
:10016000414141227F4141413E7F494949417F0907
:100170000909013E4141493A7F0808087F00417F53
:100180004100304040403F7F081422417F404040C2
:10019000407F020C027F7F0204087F3E4141413EC6
:1001A0007F090909061E2121215E7F0909097600C0
:1001B000F2CF0DF0F29EF76ACA0FF66E010EF7222B
:1001C0000900F5500DBEF28E120026494949320150
:1001D000017F01013F4040403F1F2040201F7F2002
:1001E00010207F41221C22410708700807615149F5
:1001F0004543007F41000002040810200000417FB9
:10020000000402010204404040404000010204009A
:1002100020545454787F4444443838444444443847
:100220004444447F385454541804047E050508544B
:1002300054543C7F0804047800447D40002040442E
:100240003D007F1028440000417F40007C0478047A
:10025000787C0804047838444444387C1414140826
:10026000081414147C007C080404485454542004DA
:10027000043F44443C4040207C1C2040201C3C4027
:1002800030403C44281028440C5050503C446454A6
:100290004C44000836414100007F000041413608CF
:1002A000000201020402F2CF0DF0F29EBE0FF66EC4
:1002B000020EF7220900F5500DBEF28E120000006A
:1002C0000000000000000000001FFFFFFFFE000014
:1002D0000000000000000000001FFFFFFFFE01C043
:1002E0000000000000000000001C0000000E07F0ED
:1002F0000000000000000000001C0000000E1C9C1C
:100300000000000000000000001C7F00000E180C20
:100310000000000000000000001C4100000E3086BC
:100320000000000000000000001C4100000E2082C0
:100330000000000000000000001C4102000E60836D
:100340000000000000000000001C7F05000E708708
:100350000000000000000000001C0002000E60C34E
:100360000000000000000000001C0000000E2062E1
:100370000000000000000000001C0000000E3026FD
:100380000000000000000000001FFFFFFFFE180C2F
:100390000000000000000000001C0000000E1C9C7B
:1003A0000000000000000000001C0000000E07F02C
:1003B0000000000000000000001C0000000E01C052
:1003C0000000000000000000001C0000000E000003
:1003D0000000000000000000001C0000000E0000F3
:1003E0000000000000000000001C0000000E0000E3
:1003F0000000000000000000001C0000000E0000D3
:100400000000000000000000001C0000000E0000C2
:100410000000000000000000001C001E000E000094
:100420000000000000000000001C00E1C00E000001
:100430000000000000000000001C0180600E0000B1
:100440000000000000000000001C0278100E0000F8
:100450000000000000000000001C067C180E0000D8
:100460000000000000000000001C047C080E0000DA
:100470000000000000000000001C083C040E00000A
:100480000000000000000000001C0810040E0180A5
:100490000000000000000000001C080CE40E0240F8
:1004A0000000000000000000001C082DF40E027087
:1004B0000000000000000000001C0863F40E024071
:1004C0000000000000000000001C08F1E40E03C062
:1004D0000000000000000000001C04F0080E03F003
:1004E0000000000000000000001C04F0080E03C023
:1004F0000000000000000000001C0270100E03C08D
:100500000000000000000000001C0300300E07E0A7
:100510000000000000000000001C00C0C00E0FF032
:100520000000000000000000001C007F800E0BF0A7
:100530000000000000000000001C0000000E0BF096
:100540000000000000000000001C0000000E0FF082
:100550000000000000000000001C0000000E0FF072
:100560000000000000000000001C0000000E07E07A
:100570000000000000000000001C0000000E03C08E
:100580000000000000000000001C0000000E000041
:100590000000000000000000001C0000000E000031
:1005A0000000000000000000001C0000000E000021
:1005B0000000000000000000001C0000000E000011
:1005C0000000000000000000001C0000000E000001
:1005D0000000000000000000001C0000000E0000F1
:1005E0000000000000000000001C0000000E0000E1
:1005F0000000000000000000001C0000000E0000D1
:100600000000000000000000001FFFFFFFFE0000D0
:100610000000000000000000001FFFFFFFFE0000C0
:100620000000000000000000001FFFFFFFFE0000B0
:1006300000000000000000000000000000000000BA
:1006400000000000000000000000000000000000AA
:10065000000000000000000000000000000000009A
:10066000000000000000000000000000000000008A
:10067000000000000000000000000000000000007A
:10068000000000000000000000000000000000006A
:10069000000000000000000000000000000000005A
:1006A000000000000000000000000000000000004A
:1006B0000000000000000000000000000000F2CF79
:1006C0000DF0F29EF76AD80FF66E060EF7220900BB
:1006D000F5500DBEF28E12004A5020496E676C6FC5
:1006E00062616C00F2CF0DF0F29EF76AFE0FF66EBB
:1006F000060EF7220900F5500DBEF28E12002020E2
:100700002020496E63756261646F72610000F2CFF0
:100710000DF0F29EF76A280FF66E070EF722090019
:10072000F5500DBEF28E1200202020205265667218
:100730006967657261646100F2CF0DF0F29EF76A3D
:10074000520FF66E070EF7220900F5500DBEF28E1D
:1007500012002020203232204C747300F2CF0DF0B2
:10076000F29EF76A760FF66E070EF7220900F55033
:100770000DBEF28E120043617267616E646F2E2EA1
:100780000000F2CF0DF0F29EF76A9C0FF66E070E96
:10079000F7220900F5500DBEF28E1200436C61760F
:1007A0006500F2CF0DF0F29EF76ABC0FF66E070EF1
:1007B000F7220900F5500DBEF28E1200436F7272DF
:1007C000656374610000F2CF0DF0F29EF76AE00FEE
:1007D000F66E070EF7220900F5500DBEF28E1200DC
:1007E000496E636F7272656374610000F2CF0DF041
:1007F000F29EF76A060FF66E080EF7220900F55012
:100800000DBEF28E12004D656E750000F2CF0DF038
:10081000F29EF76A260FF66E080EF7220900F550D1
:100820000DBEF28E1200496E6963696172205072CA
:100830006F6365736F00F2CF0DF0F29EF76A500F91
:10084000F66E080EF7220900F5500DBEF28E12006A
:1008500054656D706572617475726100F2CF0DF050
:10086000F29EF76A760FF66E080EF7220900F55031
:100870000DBEF28E120054656D706F72697A6164FC
:100880006F720000F2CF0DF0F29EF76A9E0FF66EC7
:10089000080EF7220900F5500DBEF28E12004361DA
:1008A0006D62696F20436C6176650000F2CF0DF0D8
:1008B000F29EF76AC60FF66E080EF7220900F55091
:1008C0000DBEF28E1200436F6E74696E7561720018
:1008D000F2CF0DF0F29EF76AEA0FF66E080EF722DD
:1008E0000900F5500DBEF28E120053490000F2CF00
:1008F0000DF0F29EF76A080FF66E090EF722090056
:10090000F5500DBEF28E12004E4F0000F2CF0DF0EA
:10091000F29EF76A260FF66E090EF7220900F550CF
:100920000DBEF28E12004300F2CF0DF0F29EF76A78
:10093000420FF66E090EF7220900F5500DBEF28E39
:10094000120054656D706F72697A6100F2CF0DF01C
:10095000F29EF76A660FF66E090EF7220900F5504F
:100960000DBEF28E12003A00F2CF0DF0F29EF76A41
:10097000820FF66E090EF7220900F5500DBEF28EB9
:100980001200436C617665204E7565766100F2CF8A
:100990000DF0F29EF76AA80FF66E090EF722090015
:1009A000F5500DBEF28E12005374617475733A43A4
:1009B0006F6E74726F6C616E646F0000F2CF0DF039
:1009C000F29EF76AD60FF66E090EF7220900F5506F
:1009D0000DBEF28E12005374617475733A456E66E3
:1009E0007269616E646F0000F2CF0DF0F29EF76ADB
:1009F000020FF66E0A0EF7220900F5500DBEF28EB8
:100A000012005374617475733A43616C656E74615E
:100A10006E646F00F2CF0DF0F29EF76A2E0FF66E45
:100A20000A0EF7220900F5500DBEF28E1200537423
:100A3000617475733A5061757361646F0000F2CF31
:100A40000DF0F29EF76A580FF66E0A0EF7220900B3
:100A5000F5500DBEF28E12005374617475733A50E6
:100A60007565727461204162696572746100F2CFCC
:100A70000DF0F29EF76A880FF66E0A0EF722090053
:100A8000F5500DBEF28E12005374617475733A41C5
:100A90006C61726D612030310000F2CF0DF0F29E7A
:100AA000F76AB40FF66E0A0EF7220900F5500DBE74
:100AB000F28E120054656D703A00F2CF0DF0F29E86
:100AC000F76AD40FF66E0A0EF7220900F5500DBE34
:100AD000F28E12002500F2CF0DF0F29EF76AF00FB1
:100AE000F66E0A0EF7220900F5500DBEF28E1200C6
:100AF00054696D653A00F2CF0DF0F29EF76A100F5F
:100B0000F66E0B0EF7220900F5500DBEF28E1200A4
:100B100028483A4D2900F2CF0DF0F29EF76A300FC7
:100B2000F66E0B0EF7220900F5500DBEF28E120084
:100B30005374617475733A46696E616C697A616465
:100B40006F00F2CF0DF0F29EF76A5C0FF66E0B0E9F
:100B5000F7220900F5500DBEF28E12005374617435
:100B600075733A416C61726D612030320000F2CFD2
:100B70000DF0F29EF76A880FF66E0B0EF722090051
:100B8000F5500DBEF28E1200526567726573617288
:100B90000000F2CF0DF0F29EF76AAC0FF66E0B0E6E
:100BA000F7220900F5500DBEF28E120047616E610A
:100BB0006E6369610000F2CF0DF0F29EF76AD00F0C
:100BC000F66E0B0EF7220900F5500DBEF28E1200E4
:100BD000546369636C6F0000F2CF0DF0F29EF76A08
:100BE000F20FF66E0B0EF7220900F5500DBEF28ED5
:100BF0001200416A75737465202B0000F2CF0DF06E
:100C0000F29EF76A160FF66E0C0EF7220900F550E9
:100C10000DBEF28E1200416A75737465202D0000BE
:100C2000F2CF0DF0F29EF76A3A0FF66E0C0EF72235
:100C30000900F5500DBEF28E12004D656469612009
:100C40004D6F76696C00F2CF0DF0F29EF76A600F7F
:100C5000F66E0C0EF7220900F5500DBEF28E120052
:100C6000436F6566696369656E746500F2CF0DF068
:100C7000F29EF76A860FF66E0C0EF7220900F55009
:100C80000DBEF28E1200416A757374650000F2CFDA
:100C90000DF0F29EF76AA80FF66E0C0EF72209000F
:100CA000F5500DBEF28E1200416A757374656E00C8
:100CB000F2CF0DF0F29EF76ACA0FF66E0C0EF72215
:100CC0000900F5500DBEF28E12004D656469610099
:100CD000150ECF6EA00ECE6E0501742BD8B4752BF9
:100CE000762BD8B4772B782BD8B4792B755303E1B6
:100CF0007451C70815E2756B746B6689692B702B8C
:100D0000632B67A703D07E2BD8B47F2B722D03D023
:100D10007A2BD8B47B2B67A303D07C2BD8B47D2B44
:100D20009E9000012AEF00F0060EEA6E140EE96EA6
:100D3000EF500EE00F0E016E006A002EFED7012E5E
:100D4000FBD78F0E006E002EFED70000EF2EF2D7DD
:100D5000000C8E0E006E15C601F014C602F0036A78
:100D6000015209E102C001F0026A080E005E015260
:100D700002E1006A08D0D89001BE04D002360136E4
:100D80000006F9D7019E000C0FC616F60601135196
:100D9000161B16AF05D0D894D8900FBFD8802FD08F
:100DA0000FC616F612C617F60E51175F06E016AFFD
:100DB00026D0D850010AD86E22D013C617F60F518C
:100DC000175F06E016AF1BD0D850010AD86E17D0B7
:100DD00014C617F61051175F06E016AF10D0D850A2
:100DE000010AD86E0CD015C617F61151175F06E030
:100DF00016AF05D0D850010AD86E01D0D8900001A6
:100E0000000C0601265303E093928A8202D093904D
:100E10008A8093988A98956A27C68CFF100E006E78
:100E2000002EFED7000093968A86530E006E002E89
:100E3000FED793968A9693908A9093928A92000115
:100E4000000C0601126B160E116F020E146F160EB7
:100E5000136F0F51FF0DF3CF10F6166B156B165174
:100E600001081AE312C603F01151112BD8B4122B4A
:100E7000E96E03C0EAFF10C6EFFF14C603F013517A
:100E8000132BD8B4142BE96E03C0EAFF10C6EFFF92
:100E9000152BD8B4162BE3D70001000C0601226BEA
:100EA000160E216F020E246F160E236F1F6B1F513B
:100EB00007084EE3939A8A9A266B400E276F00012B
:100EC000A0DF010E0601266F400E276F000199DF9B
:100ED00006011F51B809256F266B276F000191DFAE
:100EE00006011F51B809256F010E266F25C627F68A
:100EF000000187DF939A8A8A0601206B20513F0800
:100F000025E322C603F02151212BD8B4222BE96E10
:100F100003C0EAFFEFCF25F6266B25C627F60001B2
:100F200070DF060124C603F02351232BD8B4242BF1
:100F3000E96E03C0EAFFEFCF25F6010E266F25C646
:100F400027F600015EDF0601202BD8D71F2BAFD775
:100F50000001000C93948A8493968A9693908A90C9
:100F600093928A92939A8A9A0601266BC00E276FF3
:100F7000000147DF010E0601266FC00E276F00013A
:100F800040DF0601266B400E276F00013ADF010E9D
:100F90000601266F400E276F000133DF0601266B26
:100FA000B80E276F00012DDF010E0601266FB80E67
:100FB000276F000126DF06010E2D0ED0266B3F0E97
:100FC000276F00011EDF010E0601266F3F0E276FFF
:100FD000000117DF0DD00601266B3E0E276F0001C2
:100FE00010DF010E0601266F3E0E276F000109DF9C
:100FF00006010F6B000125DF51DF000C0601426B7B
:101000003D31416F413341331F0E41174137423764
:10101000413742374137423741374237413742370C
:1010200041374237C00E41173C514127000E422341
:101030003C513F080DE2160E4125436F020E42213E
:10104000446F400E435D3F6F000E4459406F06D021
:10105000160E41253F6F000E4221406F3E5315E0B2
:1010600040C603F03FC6E9FF40C6EAFF3D51070B0B
:10107000436F010E006E4351016E04E0D8900036BC
:10108000012EFCD70050EF1215D040C603F03FC62A
:10109000E9FF40C6EAFF3D51070B436F010E006EAA
:1010A0004351016E04E0D8900036012EFCD7005069
:1010B000FF0AEF160001000C24C603F0060123C648
:1010C000E9FF24C6EAFFEF52D8B4D0D024C603F01B
:1010D00023C6E9FF24C6EAFFEF50520827E324C6DF
:1010E00003F023C6E9FF24C6EAFF200EEF5C050DDE
:1010F000F350036A306F060EEA6E2B0EE96E346B06
:1011000030C633F6F2CF31F6F29E050E016EF76A65
:10111000305100014BEC00F00A000900F5CFEEFF62
:10112000012EFBD7060131BFF28E35D024C603F065
:1011300023C6E9FF24C6EAFFEF507E0827E324C652
:1011400003F023C6E9FF24C6EAFF530EEF5C050D4A
:10115000F350036A306F060EEA6E2B0EE96E346BA5
:1011600030C633F6F2CF31F6F29E050E016EF76A05
:1011700030510001D8EC00F00A000900F5CFEEFF75
:10118000012EFBD7060131BFF28E05D02B6B2C6BE5
:101190002D6B2E6B2F6B24C603F02351E96E03C019
:1011A000EAFFEF500A0A000103E0070A09E00BD04A
:1011B00006012551070DF350010F222750D00001E1
:1011C0000601216B4CD006012551050DF350212558
:1011D0007F0806E2216B2551070DF350010F2227EE
:1011E000276B275104083BE3286B2851060833E39B
:1011F000036A27512B0FE96E060E0320EA6EEFCF2C
:1012000030F630C600F02851016E04E0D89000326C
:10121000012EFCD700A01DD0296B2551295D19E2B4
:101220002A6B25512A5D13E22A512125306F28515E
:101230002503F35022252925316F30C63CF63D6F3A
:1012400026C63EF60001DADE06012A2BEAD7292B54
:10125000E4D7282BCAD7272B25512127C2D7232BE8
:10126000D8B4242B212B000127D706010001000C44
:10127000010E0601356F366F3B6B2C512E5D3C6FB6
:101280003C513CAF03D0000ED8803C55036A336F0D
:1012900003C034F62D512F5D3C6F3C513CAF03D061
:1012A000000ED8803C55036A316F03C032F62C51D2
:1012B0002E5D02E2FF0E356F2D512F5D02E2FF0E13
:1012C000366F3251345D3BE303E13151335D37E337
:1012D000D890313732373351315D006E3451325945
:1012E00000C037F6386F3351375D396F3451385994
:1012F0003A6F345303E13B51335D20E32CC63CF697
:101300002DC63DF630C63EF6000178DE060138BF38
:1013100001D008D0315137273251382335512C258F
:101320002C6F0AD0395137273A51382335512C25A3
:101330002C6F36512D252D6F3B2BDBD736D0D89017
:10134000333734373151335D006E3251345900C078
:1013500037F6386F3151375D396F325138593A6F3E
:10136000325303E13B51315D20E32CC63CF62DC6E0
:101370003DF630C63EF6000141DE060138BF01D021
:1013800008D0335137273451382336512D252D6F4E
:101390000AD0395137273A51382335512C252C6F33
:1013A00036512D252D6F3B2BDBD70001000C06019C
:1013B00025532EE02351215D05E221C628F623C6E0
:1013C00029F604D023C628F621C629F62451225D29
:1013D00005E222C62AF624C62BF604D024C62AF635
:1013E00022C62BF62851295D12E32AC627F627517B
:1013F0002B5D0BE328C63CF627C63DF626C63EF617
:101400000001FCDD0601272BF2D7282BEBD72ED0CD
:1014100021C62CF622C62DF623C62EF622C62FF69E
:1014200026C630F6000124DF21C62CF624C62DF690
:1014300023C62EF624C62FF626C630F619DF21C69F
:101440002CF622C62DF621C62EF624C62FF626C669
:1014500030F60EDF23C62CF622C62DF623C62EF656
:1014600024C62FF626C630F603DF06010001000C65
:1014700006010EC601F00FC603F00EC614F60FC625
:1014800015F6050EEA6EEE0EE96E0FC6E2FF0EC609
:10149000E1FFE752E6CFEEFFFCE11251020814E152
:1014A000010E1025146F010E1125156F14C621F6BB
:1014B000226F050E246FEE0E236F13C625F6010E64
:1014C000266F0001F9DD0601122D25D01351080DFC
:1014D000F3501125146F216B11C622F67F0E236F76
:1014E00014C624F6010E256F266F000160DF010E81
:1014F00006011025146F010E1125156F14C621F673
:10150000226F050E246FEE0E236F13C625F6266B91
:101510000001D2DD0601125325E11351080DF350ED
:101520001125146F216B11C622F67F0E236F14C68E
:1015300024F6010E256F266B000139DF010E06012E
:101540001025146F010E1125156F14C621F6226F98
:10155000050E246FEE0E236F13C625F6010E266FBF
:101560000001AADD00019ADC000C06012451016A89
:10157000235D03E223C600F00CD0006A080E256F3D
:10158000233700362451005CD8B0006E0136252F79
:10159000F7D70001000C0DC6EAFF0CC6E9FF0601F3
:1015A0002BC6EFFFE92AD8B4EA2AEF6A0C2BD8B48D
:1015B0000D2B0001000C200E06011EA9300E1F6F1E
:1015C0001DC600F01DAF07D0001E002A00C01DF68A
:1015D0002D0E1F6F1E8F01501DC623F6640E246F43
:1015E0000001C3DF00C01DF6300E01240601206F8C
:1015F0001DC623F60A0E246F0001B7DF300E00244B
:101600000601226F300E0124216F1FC600F01EA7B5
:1016100002D01EAF1E951EB90BD01EAF22D01EB534
:1016200020D000C020F61EB31CD000C021F619D077
:10163000300E205D16E100C020F6200E1F6F1EA7A1
:1016400004D01E951E831EAF1E93300E215D09E14E
:1016500000C021F6200E206F1EA7F7D71E931EAFE5
:101660001E911EA505D01FC62BF6000194DF0601B2
:101670001EA305D020C62BF600018DDF06011EA19A
:1016800004D021C62BF6000186DF22C62BF600010E
:1016900082DF56EF0BF0060E06010D6F140E0C6F75
:1016A00010C61DF61F0E1E6F000185D70601132DF3
:1016B00027D0120E11251D6F180E12251E6F11C690
:1016C00021F612C622F61DC623F6246F010E256FE1
:1016D000266F00016CDE020E060111251D6F010E42
:1016E00012251E6F1DC621F6226F060E246F140EE2
:1016F000236F020E256F266B0001DEDC26D006016B
:10170000120E11251D6F180E12251E6F11C621F61F
:1017100012C622F61DC623F6246F256B266B000128
:1017200046DE020E060111251D6F010E12251E6FE9
:101730001DC621F6226F060E246F140E236F020EB3
:10174000256F010E266F0001B7DC000C06010F3576
:10175000006E0036FC0E001600C001F0C250C30B34
:101760000010C26E010E146F000194EC06F0C282EC
:10177000C2B2FED7C4CF15F6C3CF14F60001A9EC50
:1017800006F003C013F602C012F601C011F600C045
:1017900010F610C600F011C601F012C602F013C612
:1017A00003F053EF0EF006010F51D8B4A5D01B6F14
:1017B0001351D8B4A1D01B5F05E37F0E1B27D8B00F
:1017C0009BD006D0810E1B5FD8A096D0D8B494D001
:1017D0001BC600F0016A026A036A1A6B10C619F68A
:1017E000198F11C618F612C617F6190E1B6F16516F
:1017F000175F0DE2010E185F0AE2195F08E21A5F37
:1018000006E21A2B192B182B1651172728D0155121
:10181000185F12E2010E195F0FE21A5F0DE21A2B38
:10182000192B155118271651172719E3182B17E1F3
:10183000192B15E11A2B13D014518009195F0EE2F0
:10184000010E1A5F0BE21A2B14518009192715514A
:101850001827E9E3192BE7E11A2BE5D703801B2FA3
:1018600001D00BD0D8901737183719371A37D890BE
:101870000336023601361C37BAD71CA106D0D890E1
:101880000132023203321C3302D0000635E01CBFA5
:101890001ED0D8901737183719371A371651175FD7
:1018A00007E2010E185F04E2195F02E21A5F1AE311
:1018B0001551185F05E2010E195F02E21A5F12E38B
:1018C00014518009195F03E2010E1A5F0BE3032A2A
:1018D00009E1022A07E1012A05E1002A0DE00132AF
:1018E0000232033210C61BF614511B1B1BAF02D071
:1018F000018E06D0019E04D0006A016A026A036A62
:101900000001000C800ED8A202D00601181B0601AF
:101910001D6B1E6B14C61CF618511C1B1351D8B43A
:10192000DFD01B6F006E1751D8B4E3D01B5FD8B463
:1019300083D03EE318C621F6218F19C620F61AC6B9
:101940001FF61E6BD890213320331F331E331B2FFD
:10195000F8D71CAF03D01D81E0D01D911B911D89CC
:10196000060EEA6E160EE96EEBD01D991CBF0AD06A
:101970001BA113D0213320331F331E33002AD8B4C8
:10198000C7D00BD021BF0CD0D8901E371F372037BF
:1019900021370006D8B4BCD0F5D71D8D6DD01D9D64
:1019A00014C61CF614AF02D0218FABD0219FA9D052
:1019B00017C61BF617C600F013511B5F14C621F69D
:1019C000218F15C620F616C61FF61E6BD890213340
:1019D00020331F331E331B2FF8D71CAF03D01D83BA
:1019E0009CD01D931B911D8B060EEA6E1A0EE96E9C
:1019F000A7D01D9B1CBF0AD01BA113D021332033BD
:101A00001F331E33002AD8B483D00BD021BF0CD093
:101A1000D8901E371F37203721370006D8B478D02A
:101A2000F5D71D8F29D01D9F18C61CF618AF02D000
:101A3000218F67D0219F65D018C621F6218F19C646
:101A400020F61AC61FF61CAF04D0219F1D8565D055
:101A50001D951E6B1B91060EEA6E160EE96E70D078
:101A60001CBF1CD014C61CF61BA106D0213320338A
:101A70001F331E33002A4CE01EAF0BD01F2B09E191
:101A8000202B07E1212B05E1213320331F33002ACE
:101A90003FE01DBD84D71DBFC6D71CD0800E211BC3
:101AA00021AF04D03AD018C61CF60AD014C61CF6D2
:101AB000215306E1205304E11F5302E1006A21D0C3
:101AC00021BF08D0D8901E371F3720372137002E6E
:101AD000F7D71ED01CAF02D0218F13D0219F11D079
:101AE00017C600F018C621F619C620F61AC61FF64A
:101AF00008D013C600F014C621F615C620F616C687
:101B00001FF621C601F020C602F01FC603F034D034
:101B1000006A016A026A036A2FD01E6B1F1F201F12
:101B2000211F1E1F1E2B05E11F2B03E1202B01E1AE
:101B3000212B1DB112D71DB354D71DB589D7B3D7EB
:101B4000EF501F2705E3202B03E1212BD8B41B8185
:101B5000ED52EF50202703E3212BD8B41B81ED5227
:101B6000EF50EFBE01D0800A2127D8B01B811DB9EC
:101B7000FCD61DBB3ED774D70001000C06011251E4
:101B80001403F3CF01F0F4CF00F01503F350002657
:101B900013511403F3500020026E0001000C0601E3
:101BA0002B51D8B471D0006E2F51D8B46DD000260F
:101BB00004E3810E002668E204D07F0E005E64E339
:101BC00063E02CC633F63051331B2C8F308F2E51EF
:101BD0003203F4CF35F62D513103F4CF03F0F3CFB8
:101BE00034F63203F3503527F4503423000E032229
:101BF0002E513103F3503527F4503423000E026A7E
:101C0000032202222C513203F3503427F4500322D2
:101C1000000E02222C513103F3500326F45002220D
:101C2000000E016A01222E513003F3503427F45084
:101C30000322000E022201222D513003F35003260D
:101C4000F4500222000E01222C513003F3500226E0
:101C5000F4500122002A01BE05D034370336023683
:101C600001360006000E34AF0AD0032A02220122F8
:101C7000015005E1025003E1035001E1002A33BFA6
:101C8000018E33AF019E04D0006A016A026A036AC2
:101C90000001000C0501B96BB86BB76BB66B0601A0
:101CA0000F6B000153D503C0A1F502C0A0F501C020
:101CB0009FF500C09EF5A1C512F6A0C511F69FC5FF
:101CC00010F69EC50FF6F60E0601166F280E156F5C
:101CD000260E146F840E136F000165DD03C0A1F59D
:101CE00002C0A0F501C09FF500C09EF50601126B71
:101CF000C00E116F7F0E106F880E0F6FA1C516F604
:101D0000A0C515F69FC514F69EC513F600014BDD60
:101D100000C00FF601C010F602C011F603C012F6A3
:101D2000D88203C016F602C015F601C014F600C032
:101D300013F606011A6B196B186B7F0E176F0001F3
:101D4000E1DDA5C512F6A4C511F6A3C510F6A2C51E
:101D50000FF603C016F602C015F601C014F600C057
:101D600013F621DD03C0A9F502C0A8F501C0A7F54F
:101D700000C0A6F5D882A9C516F6A8C515F6A7C550
:101D800014F6A6C513F69A0E06011A6F990E196F6E
:101D9000190E186F7D0E176F0001B4DD03C0A9F591
:101DA00002C0A8F501C0A7F500C0A6F5010E060106
:101DB0000E5D05015F5D02E001E35F6B0601136BE1
:101DC0005FC512F6156B040E146F0001D7DE0150CB
:101DD000160FE96E040E0220EA6EA6C5EFFFA7C536
:101DE000ECFFA8C5ECFFA9C5ECFF05015F2B5E6BFE
:101DF00006010E5105015E5D3EE20601136B5EC5F4
:101E000012F6156B040E146F0001B8DE02C003F069
:101E10000150160FE96E040E0220EA6EEFCF00F0BB
:101E2000ECCF01F0ECCF02F0ECCF03F0EACF10F6EC
:101E3000E9CF0FF6D892B9C516F6B8C515F6B7C5ED
:101E400014F6B6C513F603C01AF602C019F601C09F
:101E500018F600C017F656DD10C6EAFF0FC6E9FFF8
:101E600003C0B9F502C0B8F501C0B7F500C0B6F5BA
:101E700005015E2BBDD70601156B0EC614F60001D9
:101E8000A9EC06F0B9C512F6B8C511F6B7C510F63B
:101E9000B6C50FF603C016F602C015F601C014F65B
:101EA00000C013F680DC03C0B9F502C0B8F501C06C
:101EB000B7F500C0B6F5B9C52EF6B8C52DF6B7C54D
:101EC0002CF6B6C52BF6B9C532F6B8C531F6B7C58E
:101ED00030F6B6C52FF663DE00C00FF601C010F66F
:101EE00002C011F603C012F603C02EF602C02DF692
:101EF00001C02CF600C02BF6E5C532F6E4C531F67C
:101F0000E3C530F6E2C52FF64ADE00C00FF601C089
:101F100010F602C011F603C012F6B9C52EF6B8C508
:101F20002DF6B7C52CF6B6C52BF6E9C532F6E8C5D1
:101F300031F6E7C530F6E6C52FF631DED89212C687
:101F400016F611C615F610C614F60FC613F603C022
:101F50001AF602C019F601C018F600C017F6D2DC56
:101F600000C00FF601C010F602C011F603C012F651
:101F7000D89203C016F602C015F601C014F600C0D0
:101F800013F6EDC51AF6ECC519F6EBC518F6EAC559
:101F900017F6B8DC03C0BDF502C0BCF501C0BBF547
:101FA00000C0BAF50601156B60C514F60001A9EC76
:101FB00006F000C00FF601C010F602C011F603C013
:101FC00012F60601156B61C514F60001A9EC06F0C6
:101FD000D88212C616F611C615F610C614F60FC62C
:101FE00013F603C01AF602C019F601C018F600C0B5
:101FF00017F688DCD892BDC516F6BCC515F6BBC56C
:1020000014F6BAC513F603C01AF602C019F601C0D9
:1020100018F600C017F676DC03C0BDF502C0BCF5AB
:1020200001C0BBF500C0BAF5BAC500F0BBC501F0F0
:10203000BCC502F0BDC503F0000C006A016A0601D0
:102040001751D89018B100260032013218B300267B
:102050000032013218B500260032013218B70026CE
:102060000032013218B900260032013218BB0026B6
:102070000032013218BD00260032013218BF00269E
:10208000003201320001000C0601136B10C614F679
:10209000010ED8801055156F115365E013510E5D78
:1020A000166F14510F25176F13510E25186F145109
:1020B0000F25196F16C62CF617C62DF618C62EF664
:1020C0002F6F12C630F6000138EC09F006011351EB
:1020D0000E5D166F14510F5D176F13510E25186F9B
:1020E00014510F5D196F16C62CF617C62DF618C6BB
:1020F0002EF62F6F12C630F6000138EC09F00601FB
:1021000014510E5D166F13510F25176F14510E25C4
:10211000186F13510F25196F16C62CF617C62DF61A
:1021200018C62EF62F6F12C630F6000138EC09F0F3
:10213000060114510E5D166F13510F5D176F145188
:102140000E25186F13510F5D196F16C62CF617C6A2
:102150002DF618C62EF62F6F12C630F6000138EC99
:1021600009F078D006010E511325166F0F51142572
:10217000176F16C63CF63D6F12C63EF60001FEEC28
:1021800007F006010E511425166F0F511325176F16
:1021900016C63CF63D6F12C63EF60001FEEC07F097
:1021A000060113510E5D166F0F511425176F16C6D9
:1021B0003CF63D6F12C63EF60001FEEC07F006014C
:1021C00014510E5D166F0F511325176F16C63CF68E
:1021D0003D6F12C63EF60001FEEC07F006010E51FF
:1021E0001425166F13510F5D176F16C63CF63D6F21
:1021F00012C63EF60001FEEC07F006010E51132553
:10220000166F14510F5D176F16C63CF63D6F12C660
:102210003EF60001FEEC07F0060113510E5D166F4D
:1022200014510F5D176F16C63CF63D6F12C63EF691
:102230000001FEEC07F0060114510E5D166F1351FC
:102240000F5D176F16C63CF63D6F12C63EF60001D5
:10225000FEEC07F0060115BF01D00ED01351132B71
:10226000166F020E176F16C618F60001E6DE015053
:10227000030F0601152711D01351132B166F14519C
:102280001407165D166F020E176F16C618F60001BA
:10229000D4DE0150050F060115271351800A006E88
:1022A0001451800A005CD8B4F7D6D8A0F5D6000146
:1022B000000CEACF27F6E9CF26F606012039F0090F
:1022C000226F2227E20F236F320F256F20510F0B51
:1022D000232723272527E90F246F242724271F39A5
:1022E0000F0B2427252724372537251F25371F5176
:1022F0000F0B25272237070E216F0A0E24072527EB
:10230000FDE323072427FDE322072327FDE321071D
:102310002227FDE3060EEA6E210EE96E070E261552
:10232000269DE926250EE95CD8B4268DEF50006E77
:1023300008E126BD06D026B916D026B702D0200E59
:1023400003D026872699300E0026EACF20F6E9CF63
:102350001FF600C02BF60001CBEC0AF020C6EAFF06
:102360001FC6E9FF0601EE5026ADDCD70001000CC8
:102370000601145102083AE1060E0D6F160E0C6F9D
:102380000A0EE96E11C620F610C61FF6000191DF95
:1023900006011551120DF35012251F6F1551080D2E
:1023A000F3501325206F12C621F613C622F61FC65E
:1023B00023F6246F010E256F266F0001D7EC09F07C
:1023C000010E060112251F6F010E1325206F1FC677
:1023D00021F6226F060E246F160E236F15C625F602
:1023E000266B00015CEC08F09AD00601060E0D6F1A
:1023F000160E0C6F0A0EE96E11C620F610C61FF6F7
:10240000000157DF0601145104082DE11551100D8C
:10241000F35012251F6F1551080DF3501325206F2F
:1024200012C621F613C622F61FC623F6246F010E2C
:10243000256F266B0001D7EC09F0010E060112256D
:102440001F6F010E1325206F1FC621F6226F060E87
:10245000246F160E236F15C625F6010E266F000198
:102460005CEC08F00601142D2CD01551050DF3502D
:1024700012251F6F1551080DF3501325206F12C63A
:1024800021F613C622F61FC623F6246F010E256F10
:10249000266F0001D7EC09F0010E060112251F6F0F
:1024A000010E1325206F1FC621F6226F060E246F22
:1024B000160E236F15C625F6266B00015CEC08F09E
:1024C000060114532DE11551050DF35012251F6F10
:1024D0001551080DF3501325206F12C621F613C6AF
:1024E00022F61FC623F6246F010E256F266B00010E
:1024F000D7EC09F0010E060112251F6F010E1325FE
:10250000206F1FC621F6226F060E246F160E236F52
:1025100015C625F6010E266F00015CEC08F00601D9
:1025200000014EEC07F0000C01501DC623F6640EAE
:102530000601246F0001B5EC0AF000C01DF6015041
:10254000300E08E106011EA310D01EB70ED01EB932
:10255000200E04D006011E971E991E81012601C07F
:102560002BF60001CBEC0AF006011DC623F60A0E7D
:10257000246F0001B5EC0AF000C01DF60150300ECA
:1025800008E106011EB70BD01EA109D01EB9200E0E
:102590000001012601C02BF6CBEC0AF00601300E3B
:1025A0001D271DC62BF60001CBEC0AF0000C06011E
:1025B0001251020838E1060E0D6F140E0C6F0FC693
:1025C0001DF6030E1E6F0001AFDF06011351120D41
:1025D000F35010251D6F1351080DF35011251E6F78
:1025E00010C621F611C622F61DC623F6246F010E71
:1025F000256F266F0001D7EC09F0010E06011025AA
:102600001D6F010E11251E6F1DC621F6226F060ECD
:10261000246F140E236F13C625F6266B00015CECA5
:1026200008F0A3D006011251030838E1060E0D6F21
:10263000140E0C6F0FC61DF6030E1E6F000174DF23
:1026400006011351120DF35010251D6F1351080D83
:10265000F35011251E6F10C621F611C622F61DC6B5
:1026600023F6246F010E256F266B0001D7EC09F0CD
:10267000010E060110251D6F010E11251E6F1DC6CE
:1026800021F6226F060E246F140E236F13C625F653
:10269000010E266F00015CEC08F00601060E0D6FBE
:1026A000140E0C6F0FC61DF61B0E1E6F00013CDFD3
:1026B0000601122D2CD01351050DF35010251D6F5E
:1026C0001351080DF35011251E6F10C621F611C6C7
:1026D00022F61DC623F6246F010E256F266F00011A
:1026E000D7EC09F0010E060110251D6F010E112512
:1026F0001E6F1DC621F6226F060E246F140E236F67
:1027000013C625F6266B00015CEC08F00601125397
:102710002DE11351050DF35010251D6F1351080DB8
:10272000F35011251E6F10C621F611C622F61DC6E4
:1027300023F6246F010E256F266B0001D7EC09F0FC
:10274000010E060110251D6F010E11251E6F1DC6FD
:1027500021F6226F060E246F140E236F13C625F682
:10276000010E266F00015CEC08F0060100014EEC42
:1027700007F0000C06010E51050852E10F6B0F51D6
:102780003F084EE3106B10510F0848E3070E116F1E
:102790001151800A7F0840E2136B0FC612F6156BC9
:1027A000100E146F0001BEEC0DF002C013F601C054
:1027B00012F6060110510124016E000E0220036E74
:1027C0000150F2CF12F6F29E03C0F7FF000153EC66
:1027D00001F0060112BFF28E126F070ED88011555C
:1027E000136F12C600F01351016E04E0D89000324E
:1027F000012EFCD700A00ED01051080DF35011256A
:10280000126F3C6F0FC63DF6010E3E6F0001FEECED
:1028100007F006011107BCD7102BB5D70F2BAFD788
:102820000001DCEF2AF005016851040DF350036A42
:10283000560FE96E050E0320EA6ED6C5EFFFD7C529
:10284000ECFFD8C5ECFFD9C5ECFF682B6851010837
:102850001EE2686BD8825DC516F65CC515F65BC5D1
:1028600014F65AC513F659C51AF658C519F657C5C0
:1028700018F656C517F6000182EC0CF003C0D5F52A
:1028800002C0D4F501C0D3F500C0D2F505010001A6
:102890006EEF14F08E0E006E06010E51005E0FC634
:1028A00002F010C601F0028E005209E0D8900252E8
:1028B00002E1015204E002320132002EF7D70FAFDD
:1028C00005D0011E021E012AD8B4022A0001000C04
:1028D00005016351040804E20001A5D70501636BFB
:1028E0007F51010806E2FF0A03E17E51580801E228
:1028F00067896A2D24D081C515F680C514F60001BC
:10290000A9EC06F0D88203C016F602C015F601C085
:1029100014F600C013F6D9C51AF6D8C519F6D7C5EE
:1029200018F6D6C517F682EC0CF003C0B5F502C058
:10293000B4F501C0B3F500C0B2F53ED0050181C5C4
:1029400015F680C514F60001A9EC06F0D892CDC5A5
:1029500016F6CCC515F6CBC514F6CAC513F603C0DA
:102960001AF602C019F601C018F600C017F682EC7C
:102970000CF000C00EF601C00FF602C010F603C046
:1029800011F6D88203C016F602C015F601C014F67F
:1029900000C013F6D9C51AF6D8C519F6D7C518F66A
:1029A000D6C517F682EC0CF003C0B5F502C0B4F53D
:1029B00001C0B3F500C0B2F5B5C511F6B4C510F647
:1029C000B3C50FF6B2C50EF60601156B146B136B8B
:1029D000126B0001C4EC06F003E38B8494945CD288
:1029E0008B9494949A0E0601116F990E106F190E24
:1029F0000F6F7F0E0E6FB5C515F6B4C514F6B3C5CF
:102A000013F6B2C512F60001C4EC06F0D8A0C0D08F
:102A1000B5C511F6B4C510F6B3C50FF6B2C50EF6BE
:102A20000601156B146B480E136F840E126F0001B4
:102A3000C4EC06F0D8A0ACD0D5C511F6D4C510F6BC
:102A4000D3C50FF6D2C50EF69A0E0601156F990E74
:102A5000146F190E136F7D0E126F0001C4EC06F097
:102A6000D8A096D0050167A702D0000191D085C5F6
:102A700011F684C510F683C50FF682C50EF6060161
:102A8000156B146B340E136F850E126F0001C4ECBE
:102A900006F0D8A07DD0050170510908D8B079D0D2
:102AA000706BD5C511F6D4C510F6D3C50FF6D2C5D7
:102AB0000EF60601156B146B800E136F7E0E126FEF
:102AC0000001C4EC06F01BE3D892C5C516F6C4C5D8
:102AD00015F6C3C514F6C2C513F606011A6B196BB9
:102AE000186B800E176F000182EC0CF003C0C5F567
:102AF00002C0C4F501C0C3F500C0C2F549D0D5C5B8
:102B000011F6D4C510F6D3C50FF6D2C50EF6CD0E0C
:102B10000601156FCC0E146F136F7B0E126F000140
:102B2000C4EC06F01BE3D892C5C516F6C4C515F66D
:102B3000C3C514F6C2C513F606011A6B196B186BE0
:102B40007F0E176F000182EC0CF003C0C5F502C0C8
:102B5000C4F501C0C3F500C0C2F51AD0D892C5C5EE
:102B600016F6C4C515F6C3C514F6C2C513F606019C
:102B70001A6B196B186B7E0E176F000182EC0CF04C
:102B800003C0C5F502C0C4F501C0C3F500C0C2F55D
:102B90000501B5C511F6B4C510F6B3C50FF6B2C53B
:102BA0000EF60601156B146B136B126B0001C4EC6F
:102BB00006F01FE30501705127081CE2706BD882F4
:102BC000C5C516F6C4C515F6C3C514F6C2C513F6B9
:102BD00006011A6B196B186B7F0E176F000182ECE0
:102BE0000CF003C0C5F502C0C4F501C0C3F500C0B8
:102BF000C2F50501C5C511F6C4C510F6C3C50FF66B
:102C0000C2C50EF60601156B146B136B7E0E126FA8
:102C10000001C4EC06F007E30501C56BC46BC36B90
:102C20007E0EC26F00018DC511F68CC510F68BC5E6
:102C30000FF68AC50EF6C5C515F6C4C514F6C3C58C
:102C400013F6C2C512F6C4EC06F008E38DC5C5F54F
:102C50008CC5C4F58BC5C3F58AC5C2F5B5C511F6DB
:102C6000B4C510F6B3C50FF6B2C50EF60601156B66
:102C7000146B136B126B0001C4EC06F006E3050144
:102C8000B56BB46BB36BB26B0001B5C52EF6B4C5B2
:102C90002DF6B3C52CF6B2C52BF6C5C532F6C4C5A4
:102CA00031F6C3C530F6C2C52FF6CFEC0DF003C028
:102CB000C1F502C0C0F501C0BFF500C0BEF581C5B9
:102CC00015F680C514F6A9EC06F003C011F602C093
:102CD00010F601C00FF600C00EF6C1C515F6C0C54E
:102CE00014F6BFC513F6BEC512F6C4EC06F00EE32B
:102CF00081C515F680C514F6A9EC06F003C0C1F530
:102D000002C0C0F501C0BFF500C0BEF5C1C511F6D7
:102D1000C0C510F6BFC50FF6BEC50EF60601156B91
:102D2000146B136B126B0001C4EC06F006E3050193
:102D3000C16BC06BBF6BBE6B000181C515F680C552
:102D400014F6A9EC06F0C1C512F6C0C511F6BFC550
:102D500010F6BEC50FF603C016F602C015F601C088
:102D600014F600C013F6D3EC0BF000C00EF601C051
:102D70000FF602C010F603C011F603C02EF602C013
:102D80002DF601C02CF600C02BF6ADC532F6ACC551
:102D900031F6ABC530F6AAC52FF6CFEC0DF003C067
:102DA000B1F502C0B0F501C0AFF500C0AEF5050148
:102DB00067A91AD00601116B106B200E0F6F810EE0
:102DC0000E6FB1C515F6B0C514F6AFC513F6AEC596
:102DD00012F60001C4EC06F008E30501B16BB06B1C
:102DE000200EAF6F810EAE6F0001B1C512F6B0C5F7
:102DF00011F6AFC510F6AEC50FF60A0E0601166F36
:102E0000D70E156F230E146F770E136F0001D3ECDE
:102E10000BF003C011F602C010F601C00FF600C09F
:102E20000EF638DD02C003F0015005017951025C55
:102E300009E303E17851015C05E38B8094908B9466
:102E4000949402D08B909490ADC512F6ACC511F657
:102E5000ABC510F6AAC50FF60A0E0601166FD70EFF
:102E6000156F230E146F770E136F0001D3EC0BF068
:102E700003C011F602C010F601C00FF600C00EF636
:102E800009DD0250036E0501795D06E303E101509F
:102E9000785D02E3796B786B0001000C06012B5121
:102EA000B6082B6F036A2CC62FF62C8FD8902C33C4
:102EB0002D332E3303320232013200322B2FF6D75C
:102EC0002FAF0BD0001E011E021E031E002AD8B415
:102ED000012AD8B4022AD8B4032A0001DCEF17F083
:102EE000006A016A026A036A0601336B346B356B50
:102EF000366B3251311130112F112CE0200E376F0B
:102F0000D8902B372C372D372E373337343735378A
:102F100036373251365D08E13151355D05E13051CA
:102F2000345D02E12F51335D0FE32F51335F305198
:102F3000D8A0303D345F3151D8A0313D355F32519A
:102F4000D8A0323D365FD8800036013602360336CF
:102F5000372FD6D7060EEA6E330EE96E0001000C4D
:102F6000E9500601236F2251256F1CE021C62EF681
:102F700020C62DF61FC62CF61EC62BF6326B316B03
:102F8000200E306F820E2F6F0001CFEC0DF003C0CA
:102F900021F602C020F601C01FF600C01EF6060191
:102FA000252FE4D721C62EF620C62DF61FC62CF6F7
:102FB0001EC62BF6000172D703C021F602C020F610
:102FC00001C01FF600C01EF6060121AF0DD0230779
:102FD000238B1E1F1F1F201F211F1E2BD8B41F2B2A
:102FE000D8B4202BD8B4212B3B0E2A6F9A0E296F10
:102FF000CA0E286F276B0A0E256F2251D8B4232BD7
:1030000021C62EF620C62DF61FC62CF61EC62BF6A0
:103010002AC632F629C631F628C630F627C62FF65C
:1030200000015EDF0150EFCF1EF6ECCF1FF6ECCFB4
:1030300020F6ECCF21F6005213E106012229255D8E
:10304000D8A402D000010CD023510DE00F0B255D58
:1030500001E044E223BF42D023BD05D0200E37D08B
:10306000200E0601231723AB0FD0239B2251D8A497
:1030700023070050236F2D0E2B6F0001CBEC0AF0BD
:1030800006012351006E236B2251255D0DE1005096
:10309000236F2E0E2B6F0001CBEC0AF0060123519B
:1030A000006E200E2317000E300E23AB10D0239B92
:1030B0002251D8A423070050236F2D0E2B6F00013F
:1030C000CBEC0AF006012351006E236B300E002674
:1030D00000C02BF60001CBEC0AF006012AC62EF642
:1030E00029C62DF628C62CF627C62BF6326B316B77
:1030F000306B0A0E2F6F0001F3DE03C02AF602C008
:1031000029F601C028F600C027F60601252F78D73A
:1031100000019EEF18F0060E06010D6F150E0C6FE4
:10312000420EE96E11C621F610C620F60FC61FF634
:103130000EC61EF6010E226F000112D706011451B1
:103140001B0DF35012251E6F1451080DF35013255B
:103150001F6F12C621F613C622F61EC623F6246F71
:10316000010E256F266B0001D7EC09F012C621F67F
:1031700013C622F6060E0601246F150E236F14C621
:1031800025F6010E266F00015CEC08F0000CF86AD1
:10319000D09E078EEA6AE96A05015E6B5F6B606B21
:1031A000616B0A0E626F636B646B656B669166930D
:1031B000669566876699669B669D669F679167932D
:1031C000679567976799686B696B6A6B6B6B010EA4
:1031D0006C6F6D6B6E6B6F6B706B716F726B736B13
:1031E000756B746B776B766B796B786B7B6B7A6BCB
:1031F0007D6B7C6B7F6B7E6B816B806B856B846B77
:10320000836B826B896B886B876B866B8D6B8C6B2A
:103210008B6B8A6BA16BA06B9F6B9E6BA56B100E6B
:10322000A46F420EA36F8B0EA26FAD6BAC6B200E22
:10323000AB6F820EAA6FB16BB06BAF6BAE6BB56B41
:10324000B46BB36BB26BB96BB86BB76BB66BBD6B72
:10325000BC6BBB6BBA6BC16BC06BBF6BBE6BC56B22
:10326000C46B480EC36F830EC26FC96BC86B200E50
:10327000C76F830EC66FCD6BCC6BCB6B7F0ECA6FE7
:10328000D16BD06B160ECF6F860ECE6FD56BD46B15
:10329000D36BD26BD96BD86BD76BD66BDD6BDC6B1A
:1032A000200EDB6F820EDA6FE16BE06BDF6BDE6BA3
:1032B000E00EE56F2D0EE46F100EE36F750EE26FFA
:1032C000FF0EE96F210EE86F150EE76F800EE66FB7
:1032D000820EED6F120EEC6FF40EEB6F860EEA6F3E
:1032E000C150C00B0F09C16E070EB46E0401166BFE
:1032F000176B186B196B1A6B1B6B1C6B1D6B1E6BA2
:103300001F6B206B216B226B236B246B256B266B51
:10331000276B286B296B2A6B2B6B2C6B2D6B2E6B01
:103320002F6B306B316B326B336B346B356B366BB1
:10333000376B386B396B3A6B3B6B3C6B3D6B3E6B61
:103340003F6B406B416B426B436B446B456B466B11
:10335000476B486B496B4A6B4B6B4C6B4D6B4E6BC1
:103360004F6B506B516B526B536B546B556B566B71
:10337000576B586B596B5A6B5B6B5C6B5D6B5E6B21
:103380005F6B606B616B626B636B646B656B666BD1
:10339000676B686B696B6A6B6B6B6C6B6D6B6E6B81
:1033A0006F6B706B716B726B736B746B756B766B31
:1033B000776B786B796B7A6B7B6B7C6B7D6B7E6BE1
:1033C0007F6B806B816B826B836B846B856B866B91
:1033D000876B886B896B8A6B8B6B8C6B8D6B8E6B41
:1033E0008F6B906B916B926B936B946B956B966BF1
:1033F000976B986B996B9A6B9B6B9C6B9D6B9E6BA1
:103400009F6BA06BA16BA26BA36BA46BA56BA66B50
:10341000A76BA86BA96BAA6BAB6BAC6BAD6BAE6B00
:10342000AF6BB06BB16BB26BB36BB46BB56BB66BB0
:10343000B76BB86BB96BBA6BBB6BBC6BBD6BBE6B60
:10344000BF6BC06BC16BC26BC36BC46BC56BC66B10
:10345000C76BC86BC96BCA6BCB6BCC6BCD6BCE6BC0
:10346000CF6BD06BD16BD26BD36BD46BD56BD66B70
:10347000D76BD86BD96BDA6BDB6BDC6BDD6BDE6B20
:10348000DF6BE06BE16BE26BE36BE46BE56BE66BD0
:10349000E76BE86BE96BEA6BEB6BEC6BED6BEE6B80
:1034A000EF6BF06BF16BF26BF36BF46BF56BF66B30
:1034B000F76BF86BF96BFA6BFB6BFC6BFD6BFE6BE0
:1034C000FF6B0501006B016B026B036B046B056BFB
:1034D000066B076B086B096B0A6B0B6B0C6B0D6B48
:1034E0000E6B0F6B106B116B126B136B146B156BF8
:1034F000166B176B186B196B1A6B1B6B1C6B1D6BA8
:103500001E6B1F6B206B216B226B236B246B256B57
:10351000266B276B286B296B2A6B2B6B2C6B2D6B07
:103520002E6B2F6B306B316B326B336B346B356BB7
:10353000366B376B386B396B3A6B3B6B3C6B3D6B67
:103540003E6B3F6B406B416B426B436B446B456B17
:10355000466B476B486B496B4A6B4B6B4C6B4D6BC7
:103560004E6B4F6B506B516B526B536B546B556B77
:10357000566B576B586B596B5A6B5B6B5C6B5D6B27
:103580008E6B8F6B906B916B926B936B946B956B57
:10359000966B976B986B996B9A6B9B6B9C6B9D6B07
:1035A00006010C6B0D6B040E0E6FFA0E146F00010A
:1035B00094EC06F006010E2FF8D78B9094908B9424
:1035C00094948B929492850ECD6E9D80C150C00BC9
:1035D0000E09C16EC090C082C084C08EC280C00E71
:1035E000F212F2CF0EF6F29EA96AA69CA69EA680C3
:1035F000A8500EBFF28E0501926F320E0601146FB5
:10360000000194EC06F0F2CF0EF6F29E010EA96EC8
:10361000A69CA69EA680A85006010EBFF28E0501AC
:10362000936F320E0601146F000194EC06F0F2CF96
:103630000EF6F29E020EA96EA69CA69EA680A8502B
:1036400006010EBFF28E0501946F320E0601146F53
:10365000000194EC06F0F2CF0EF6F29E030EA96E76
:10366000A69CA69EA680A85006010EBFF28E05015C
:10367000956F320E0601146F000194EC06F0F2CF44
:103680000EF6F29E510EA96EA69CA69EA680A8508C
:1036900006010EBFF28E0F6FF2CF10F6F29E500EA3
:1036A000A96EA69CA69EA680A85010BFF28E116F90
:1036B0000FC681F511C680F5320E146F000194EC2F
:1036C00006F0F2CF0EF6F29E0A0EA96EA69CA69EFA
:1036D000A680A85006010EBFF28E05019A6F320E29
:1036E0000601146F000194EC06F0F2CF0EF6F29E84
:1036F0000B0EA96EA69CA69EA680A85006010EBF22
:10370000F28E05019B6F320E0601146F000194ECDE
:1037100006F0F2CF0EF6F29E0C0EA96EA69CA69EA7
:10372000A680A85006010EBFF28E05019C6F320ED6
:103730000601146F000194EC06F0F2CF0EF6F29E33
:103740000D0EA96EA69CA69EA680A85006010EBFCF
:10375000F28E05019D6F320E0601146F000194EC8C
:1037600006F0F2CF0EF6F29E5A0EA96EA69CA69E09
:10377000A680A85006010EBFF28E156B146F0001D3
:10378000A9EC06F003C0C5F502C0C4F501C0C3F53D
:1037900000C0C2F5320E0601146F000194EC06F071
:1037A000F2CF0EF6F29E1E0EA96EA69CA69EA680D5
:1037B000A85006010EBFF28E156B146F0001A9EC24
:1037C00006F003C0ADF502C0ACF501C0ABF500C01A
:1037D000AAF5320E0601146F000194EC06F0F2CF48
:1037E0000EF6F29E280EA96EA69CA69EA680A85054
:1037F00006010EBFF28E0501606F320E0601146FD6
:10380000000194EC06F0F2CF0EF6F29E320EA96E95
:10381000A69CA69EA680A85006010EBFF28E0501AA
:10382000616F320E0601146F000194EC06F0F2CFC6
:103830000EF6F29E3C0EA96EA69CA69EA680A850EF
:1038400006010EBFF28E0501626F320E0601146F83
:10385000000194EC06F0F2CF0EF6F29E460EA96E31
:10386000A69CA69EA680A85006010EBFF28E156BE0
:10387000146F0001A9EC06F003C0D1F502C0D0F529
:1038800001C0CFF500C0CEF5320E0601146F000165
:1038900094EC06F0F2CF0EF6F29E640EA96EA69C92
:1038A000A69EA680A85006010EBFF28E156B146F5F
:1038B0000001A9EC06F003C0DDF502C0DCF501C093
:1038C000DBF500C0DAF50601116B106B200E0F6FEF
:1038D000820E0E6FC5C515F6C4C514F6C3C513F622
:1038E000C2C512F60001C4EC06F006E30501C56B83
:1038F000C46BC36B800EC26F010E06010E6F000118
:10390000AAEC07F006010F6B000121EC07F0050E91
:10391000EA6EEE0EE96EF2CF0EF6F29E000E5FEC4E
:1039200003F00A000900F550EE6E0009FBE1060104
:103930000EBFF28E050E0F6FEE0E0E6F106B116B39
:10394000126B020E136F000138EC0AF0050EEA6EDE
:10395000EE0EE96EF2CF0EF6F29E000E72EC03F060
:103960000A000900F550EE6E0009FBE106010EBFEA
:10397000F28E050E0F6FEE0E0E6F106B140E116FA0
:10398000126B010E136F000138EC0AF0050EEA6E9F
:10399000EE0EE96EF2CF0EF6F29E000E87EC03F00B
:1039A0000A000900F550EE6E0009FBE106010EBFAA
:1039B000F28E050E0F6FEE0E0E6F106B1E0E116F56
:1039C000126B010E136F000138EC0AF0050EEA6E5F
:1039D000EE0EE96EF2CF0EF6F29E000E9CEC03F0B6
:1039E0000A000900F550EE6E0009FBE106010EBF6A
:1039F000F28E050E0F6FEE0E0E6F106B2D0E116F07
:103A0000126B020E136F000138EC0AF0040E06016F
:103A10000E6FFA0E146F000194EC06F006010E2FE3
:103A2000F8D70F6B000121EC07F096C510F6140EC5
:103A30000601116F1E0E126F010E136F00014BEC89
:103A40000BF097C510F6280E0601116F1E0E126FAF
:103A5000136B00014BEC0BF098C510F63C0E060101
:103A6000116F1E0E126F136B00014BEC0BF099C51A
:103A700010F6500E0601116F1E0E126F136B00012F
:103A80004BEC0BF005016D6B6D514F0810E362C5F7
:103A90000EF600014AEC0EF003C0D9F502C0D8F5CD
:103AA00001C0D7F500C0D6F505016D2BEDD7928A80
:103AB00080AA48D0968084A045D0968284A242D025
:103AC000968484A43FD0020E06010E6FFA0E146F86
:103AD000000194EC06F006010E2FF8D7050EEA6EF1
:103AE000EE0EE96EF2CF0EF6F29E000E0001AEEC85
:103AF00003F00A000900F550EE6E0009FBE1060133
:103B00000EBFF28E050E0F6FEE0E0E6F106B1E0EB7
:103B1000116F010E126F136F000138EC0AF0080EDE
:103B200006010E6FFA0E146F000194EC06F0060108
:103B30000E2FF8D7640E05016B6F06010F6B0001A5
:103B400021EC07F000014EEC07F005016B53D8A4FF
:103B5000CAD2050EEA6EEE0EE96EF2CF0EF6F29EB6
:103B6000000E0001C1EC03F00A000900F550EE6EF2
:103B70000009FBE106010EBFF28E050E0F6FEE0E7F
:103B80000E6F1E0E106F116B010E126F020E136F6F
:103B9000000138EC0AF0928A80AA6BD0050166B168
:103BA00067D066811E0E0601146F000194EC06F0CA
:103BB000010E05016D6F6D5104085AE36D516C5D86
:103BC0003BE1010E6D5D036A960FE96E050E032061
:103BD000EA6EEF2A010E6D5D036A960FE96E050E1F
:103BE0000320EA6EEFBE0CD0EF50090809E2010E87
:103BF0006D5D036A960FE96E050E0320EA6EEF6AAB
:103C0000010E6D5D036A960FE96E050E0320EA6EE4
:103C1000EFCF0EF66D51140DF3CF0FF606010EC661
:103C200010F60FC611F61E0E126F010E136F000173
:103C30004BEC0BF01AD00501010E6D5D036A960F77
:103C4000E96E050E0320EA6EEFCF0EF66D51140DEE
:103C5000F3CF0FF606010EC610F60FC611F61E0EB4
:103C6000126F136B00014BEC0BF005016D2BA3D70A
:103C700002D005016691968084A069D066B566D0B1
:103C800066851E0E0601146F000194EC06F0010E0D
:103C900005016D6F6D51040859E36D516C5D3AE19A
:103CA000010E6D5D036A960FE96E050E0320EA6E44
:103CB000EF06010E6D5D036A960FE96E050E032097
:103CC000EA6EEFBE01D00AD0010E6D5D036A960F59
:103CD000E96E050E0320EA6E090EEF6E010E6D5DB2
:103CE000036A960FE96E050E0320EA6EEFCF0EF61B
:103CF0006D51140DF3CF0FF606010EC610F60FC668
:103D000011F61E0E126F010E136F00014BEC0BF03B
:103D10001AD00501010E6D5D036A960FE96E050E5E
:103D20000320EA6EEFCF0EF66D51140DF3CF0FF6B0
:103D300006010EC610F60FC611F61E0E126F136B9B
:103D400000014BEC0BF005016D2BA4D701D066955B
:103D5000968284A24CD066B349D066831E0E0601BB
:103D6000146F000194EC06F005016C2B010E6D6FD1
:103D70006D5104083BE36D516C5D1CE1010E6D5DFE
:103D8000036A960FE96E050E0320EA6EEFCF0EF67A
:103D90006D51140DF3CF0FF606010EC610F60FC6C7
:103DA00011F61E0E126F010E136F00014BEC0BF09B
:103DB0001AD00501010E6D5D036A960FE96E050EBE
:103DC0000320EA6EEFCF0EF66D51140DF3CF0FF610
:103DD00006010EC610F60FC611F61E0E126F136BFB
:103DE00000014BEC0BF005016D2BC2D701D066939F
:103DF0006C510408D8B077D106010F6B000121EC9B
:103E000007F0040E05016C6F9651030873E197519A
:103E1000080870E1985109086DE1995102086AE1BA
:103E20000A0EA96EA86AA69CA69EA684F250006EF1
:103E3000F29E0F01550EA76EAA0EA76EA682A6B21D
:103E4000FED7A6940050F212140E0601146F000162
:103E500094EC06F00B0EA96EA86AA69CA69EA684FA
:103E6000F250006EF29E0F01550EA76EAA0EA76EBD
:103E7000A682A6B2FED7A6940050F212140E060136
:103E8000146F000194EC06F00C0EA96EA86AA69CB3
:103E9000A69EA684F250006EF29E0F01550EA76EEC
:103EA000AA0EA76EA682A6B2FED7A6940050F21262
:103EB000140E0601146F000194EC06F00D0EA96EAD
:103EC000A86AA69CA69EA684F250006EF29E0F01E0
:103ED000550EA76EAA0EA76EA682A6B2FED7A6940E
:103EE0000050F212140E0601146F000194EC06F05B
:103EF000FF0005019A51965D68E19B51975D65E170
:103F00009C51985D62E19D51995D5FE106010F6BE7
:103F1000000121EC07F0050EEA6EEE0EE96EF2CF1D
:103F20000EF6F29E000EC1EC03F00A000900F550F7
:103F3000EE6E0009FBE106010EBFF28E050E0F6F5B
:103F4000EE0E0E6F1E0E106F116B126B020E136FC2
:103F5000000138EC0AF0050EEA6EEE0EE96EF2CFC3
:103F60000EF6F29E000ED1EC03F00A000900F550A7
:103F7000EE6E0009FBE106010EBFF28E050E0F6F1B
:103F8000EE0E0E6F0F0E106F1E0E116F126B020EE3
:103F9000136F000138EC0AF0010E05016B6F000190
:103FA0004EEC07F0040E06010E6FFA0E146F0001BE
:103FB00094EC06F006010E2FF8D70F6B000121ECF0
:103FC00007F0010E05016C6F8ED006010F6B00012A
:103FD00021EC07F0050EEA6EEE0EE96EF2CF0EF65A
:103FE000F29E000EC1EC03F00A000900F550EE6EDF
:103FF0000009FBE106010EBFF28E050E0F6FEE0EFB
:104000000E6F1E0E106F116B126B020E136F0001FC
:1040100038EC0AF0050EEA6EEE0EE96EF2CF0EF6FF
:10402000F29E000EE3EC03F00A000900F550EE6E7C
:104030000009FBE106010EBFF28E050E0F6FEE0EBA
:104040000E6F106B1E0E116F126B020E136F0001BC
:1040500038EC0AF005016B6B00014EEC07F0040E22
:1040600006010E6FFA0E146F000194EC06F00601C3
:104070000E2FF8D70F6B000121EC07F0010E0501A0
:104080006C6F966B976B986B996B96C510F6140EC8
:104090000601116F1E0E126F010E136F00014BEC23
:1040A0000BF097C510F6280E0601116F1E0E126F49
:1040B000136B00014BEC0BF098C510F63C0E06019B
:1040C000116F1E0E126F136B00014BEC0BF099C5B4
:1040D00010F6500E0601116F1E0E126F136B0001C9
:1040E0004BEC0BF005016B2D8ED17151040802E2EF
:1040F000010E716F715302E1040E716F050EEA6ECD
:10410000EE0EE96EF2CF0EF6F29E000E0001F6EC16
:1041100003F00A000900F550EE6E0009FBE106010C
:104120000EBFF28E050E0F6FEE0E0E6F1E0E106F8D
:10413000116B010E126F020E136F000138EC0AF0C2
:104140000501712D23D0050EEA6EEE0EE96EF2CF59
:104150000EF6F29E000E000106EC04F00A000900C3
:10416000F550EE6E0009FBE106010EBFF28E050E62
:104170000F6FEE0E0E6F106B140E116F010E126F9B
:10418000136F000138EC0AF022D00501050EEA6E2B
:10419000EE0EE96EF2CF0EF6F29E000E000106EC76
:1041A00004F00A000900F550EE6E0009FBE106017B
:1041B0000EBFF28E050E0F6FEE0E0E6F106B140E0B
:1041C000116F126B010E136F000138EC0AF005013C
:1041D0007151020823E1050EEA6EEE0EE96EF2CF90
:1041E0000EF6F29E000E00011BEC04F00A0009001E
:1041F000F550EE6E0009FBE106010EBFF28E050ED2
:104200000F6FEE0E0E6F106B1E0E116F010E126F00
:10421000136F000138EC0AF022D00501050EEA6E9A
:10422000EE0EE96EF2CF0EF6F29E000E00011BECD0
:1042300004F00A000900F550EE6E0009FBE10601EA
:104240000EBFF28E050E0F6FEE0E0E6F106B1E0E70
:10425000116F126B010E136F000138EC0AF00501AB
:104260007151030823E1050EEA6EEE0EE96EF2CFFE
:104270000EF6F29E000E00012EEC04F00A0009007A
:10428000F550EE6E0009FBE106010EBFF28E050E41
:104290000F6FEE0E0E6F106B280E116F010E126F66
:1042A000136F000138EC0AF022D00501050EEA6E0A
:1042B000EE0EE96EF2CF0EF6F29E000E00012EEC2D
:1042C00004F00A000900F550EE6E0009FBE106015A
:1042D0000EBFF28E050E0F6FEE0E0E6F106B280ED6
:1042E000116F126B010E136F000138EC0AF005011B
:1042F0007151040823E1050EEA6EEE0EE96EF2CF6D
:104300000EF6F29E000E000142EC04F00A000900D5
:10431000F550EE6E0009FBE106010EBFF28E050EB0
:104320000F6FEE0E0E6F106B320E116F010E126FCB
:10433000136F000138EC0AF022D00501050EEA6E79
:10434000EE0EE96EF2CF0EF6F29E000E000142EC88
:1043500004F00A000900F550EE6E0009FBE10601C9
:104360000EBFF28E050E0F6FEE0E0E6F106B320E3B
:10437000116F126B010E136F000138EC0AF0928A74
:1043800080AA0ED0050166B10AD066811E0E060114
:10439000146F000194EC06F005017107668702D0E6
:1043A00005016691968084A00DD066B50AD0668519
:1043B0001E0E0601146F000194EC06F00501712B2E
:1043C000668701D06695968284A21CD066B319D008
:1043D0006683020E06010E6FFA0E146F000194EC54
:1043E00006F006010E2FF8D7030E050171256B6F3D
:1043F000010E716F06010F6B000121EC07F0050142
:10440000668701D066936B510408D8A4B8D1715166
:10441000020802E2010E716F715302E1020E716F28
:10442000050EEA6EEE0EE96EF2CF0EF6F29E000E6B
:10443000000156EC04F00A000900F550EE6E000988
:10444000FBE106010EBFF28E050E0F6FEE0E0E6F32
:10445000106B116B010E126F020E136F000138EC1E
:104460000AF005017151020845E1050EEA6EEE0EF3
:10447000E96EF2CF0EF6F29E000E000168EC04F039
:104480000A000900F550EE6E0009FBE106010EBFBF
:10449000F28E050E0F6FEE0E0E6F320E106F190EAC
:1044A000116F010E126F020E136F000138EC0AF04B
:1044B000050EEA6EEE0EE96EF2CF0EF6F29E000EDB
:1044C00077EC04F00A000900F550EE6E0009FBE1FC
:1044D00006010EBFF28E050E0F6FEE0E0E6F320E3E
:1044E000106F2D0E116F126B020E136F000138EC5E
:1044F0000AF00501712D45D0050EEA6EEE0EE96E4B
:10450000F2CF0EF6F29E000E000168EC04F00A00F5
:104510000900F550EE6E0009FBE106010EBFF28EB8
:10452000050E0F6FEE0E0E6F320E106F190E116F1B
:10453000126B020E136F000138EC0AF0050EEA6EE2
:10454000EE0EE96EF2CF0EF6F29E000E77EC04F05E
:104550000A000900F550EE6E0009FBE106010EBFEE
:10456000F28E050E0F6FEE0E0E6F320E106F2D0EC7
:10457000116F010E126F020E136F000138EC0AF07A
:104580000501928A80AA04D07151010801E3712BC0
:10459000968084A004D07151010801E271079682CF
:1045A00084A2D2D071510208D8A4B7D081C515F623
:1045B00080C514F60001A9EC06F003C011F602C094
:1045C00010F601C00FF600C00EF60601156B146B55
:1045D000480E136F830E126F0001C4EC06F003E364
:1045E000010E05016A6F140E05016B6F0F0E0601B7
:1045F000216F120E226F1E0E236F350E246F256B56
:10460000010E266F0001D7EC09F00501736B06015E
:104610000F6B000121EC07F005016E6BC5C512F6AA
:10462000C4C511F6C3C510F6C2C50FF6D1C516F63E
:10463000D0C515F6CFC514F6CEC513F60001D3ECE0
:104640000BF000C00EF601C00FF602C010F603C05A
:1046500011F681C515F680C514F6A9EC06F003C065
:104660002EF602C02DF601C02CF600C02BF611C6A6
:1046700032F610C631F60FC630F60EC62FF6CFEC66
:104680000DF003C0C5F502C0C4F501C0C3F500C0FC
:10469000C2F581C515F680C514F6A9EC06F003C075
:1046A00012F602C011F601C010F600C00FF60601A6
:1046B000166B156B160E146F860E136F0001D3EC7C
:1046C0000BF003C089F502C088F501C087F500C072
:1046D00086F581C515F680C514F6A9EC06F0710EB5
:1046E00006012E6F3D0E2D6F0A0E2C6F7D0E2B6F67
:1046F00003C032F602C031F601C030F600C02FF61A
:104700000001CFEC0DF003C08DF502C08CF501C0A7
:104710008BF500C08AF519D00501040E06010E6F55
:10472000AF0E146F000194EC06F006010E2FF8D7BF
:10473000010E05016B6F06010F6B000121EC07F004
:10474000010E0501716F66870001968484A418D05C
:10475000040E06010E6FAF0E146F000194EC06F00C
:1047600006010E2FF8D7010E05016B6F06010F6BC6
:10477000000121EC07F0010E0501716F6687000151
:1047800005016B510508D8A408D1815303E180517C
:10479000460803E2816B460E806F805305E181532A
:1047A00003E1816B010E806F550E06010E6F1E0E28
:1047B0000F6F030E106F116B010E126F000144ECAE
:1047C00010F0050EEA6EEE0EE96EF2CF0EF6F29ED6
:1047D000000E86EC04F00A000900F550EE6E0009A8
:1047E000FBE106010EBFF28E050E0F6FEE0E0E6F8F
:1047F0005C0E106F1E0E116F020E126F030E136F00
:10480000000138EC0AF0050EEA6EEE0EE96EF2CF0A
:104810000EF6F29E000E1BEC04F00A000900F550A3
:10482000EE6E0009FBE106010EBFF28E050E0F6F62
:10483000EE0E0E6F106B116B010E126F020E136FE6
:10484000000138EC0AF081C511F680C510F61E0E85
:104850000601126F136F146B030E156F0001B8EC95
:1048600011F0928A80AA1AD01E0E0601216F226FC3
:10487000500E236F370E246F010E256F266B00013B
:10488000D7EC09F01E0E0601146F000194EC06F03F
:104890000501802BD8B4812B66870001968084A007
:1048A0001BD01E0E0601216F226F500E236F370E94
:1048B000246F010E256F266B0001D7EC09F01E0E48
:1048C0000601146F000194EC06F005018051D8B484
:1048D0008107800766870001968284A209D01E0E98
:1048E0000601146F000194EC06F0050166870001D3
:1048F000968484A451D0040E06010E6FAF0E146F7F
:10490000000194EC06F006010E2FF8D7010E050108
:104910006B6F06010F6B000121EC07F0010E050122
:10492000716F668780C50EF6500EA96E0EC6A8FF81
:10493000A69CA69EA684F250006EF29E0F01550E14
:10494000A76EAA0EA76EA682A6B2FED7A6940050A6
:10495000F212320E0601146F000194EC06F081C5CC
:104960000EF6510EA96E0EC6A8FFA69CA69EA684A2
:10497000F250006EF29E0F01550EA76EAA0EA76EA2
:10498000A682A6B2FED7A6940050F212320E0601FD
:10499000146F000194EC06F005016B510608D8A4D1
:1049A0009CD16C5302E1040E6C6F050EEA6EEE0EA4
:1049B000E96EF2CF0EF6F29E000E000194EC04F0C8
:1049C0000A000900F550EE6E0009FBE106010EBF7A
:1049D000F28E050E0F6FEE0E0E6F106B116B010E47
:1049E000126F020E136F000138EC0AF005016C51D2
:1049F00004080FE195C50FF6140E0601106F280E7E
:104A0000116F010E126F020E136F0001D7EC12F03E
:104A10000DD095C50FF6140E0601106F280E116FFC
:104A2000126B020E136F0001D7EC12F005016C51EE
:104A300003080EE194C50FF6280E0601106F116FE2
:104A4000010E126F020E136F0001D7EC12F00CD0A2
:104A500094C50FF6280E0601106F116F126B020E2F
:104A6000136F0001D7EC12F005016C5102080FE141
:104A700093C50FF6460E0601106F280E116F010E3A
:104A8000126F020E136F0001D7EC12F00DD093C518
:104A90000FF6460E0601106F280E116F126B020EF4
:104AA000136F0001D7EC12F005016C2D0FD092C5E9
:104AB0000FF65A0E0601106F280E116F010E126FBD
:104AC000020E136F0001D7EC12F00DD092C50FF655
:104AD0005A0E0601106F280E116F126B020E136F23
:104AE0000001D7EC12F0050EEA6EEE0EE96EF2CF81
:104AF0000EF6F29E000EA6EC04F00A000900F55036
:104B0000EE6E0009FBE106010EBFF28E050E0F6F7F
:104B1000EE0E0E6F3C0E106F2A0E116F020E126F0A
:104B2000136F000138EC0AF0928A80AA20D0010E9F
:104B300005016C5D036A920FE96E050E0320EA6EB3
:104B4000EFBE03D0EF50080811E31E0E0601146FEC
:104B5000000194EC06F0010E05016C5D036A920FF2
:104B6000E96E050E0320EA6EEF2A66870001968043
:104B700084A020D0010E05016C5D036A920FE96EDE
:104B8000050E0320EA6EEFBE14D0EF50000811E2CC
:104B90001E0E0601146F000194EC06F0010E0501D3
:104BA0006C5D036A920FE96E050E0320EA6EEF0654
:104BB00066870001968284A20AD01E0E0601146F39
:104BC000000194EC06F005016C07668700019684ED
:104BD00084A482D0040E06010E6FAF0E146F000184
:104BE00094EC06F006010E2FF8D7010E05016B6F4D
:104BF00006010F6B000121EC07F0010E0501716F3A
:104C00006687A96A92C5A8FFA69CA69EA684F250B4
:104C1000006EF29E0F01550EA76EAA0EA76EA68219
:104C2000A6B2FED7A6940050F212320E0601146FFF
:104C3000000194EC06F0010EA96E93C5A8FFA69C96
:104C4000A69EA684F250006EF29E0F01550EA76E2E
:104C5000AA0EA76EA682A6B2FED7A6940050F212A4
:104C6000320E0601146F000194EC06F0020EA96EDC
:104C700094C5A8FFA69CA69EA684F250006EF29E44
:104C80000F01550EA76EAA0EA76EA682A6B2FED77A
:104C9000A6940050F212320E0601146F000194EC3B
:104CA00006F0030EA96E95C5A8FFA69CA69EA68435
:104CB000F250006EF29E0F01550EA76EAA0EA76E5F
:104CC000A682A6B2FED7A6940050F212320E0601BA
:104CD000146F000194EC06F005016B510708D8A48D
:104CE0005AD2050EEA6EEE0EE96EF2CF0EF6F29E85
:104CF000000E0001C1EC03F00A000900F550EE6E51
:104D00000009FBE106010EBFF28E050E0F6FEE0EDD
:104D10000E6F1E0E106F116B010E126F020E136FCD
:104D2000000138EC0AF005016C2D2FD096C510F665
:104D3000140E0601116F1E0E126F010E136F00018B
:104D40004BEC0BF097C510F6280E0601116F1E0EE6
:104D5000126F136B00014BEC0BF098C510F63C0E74
:104D60000601116F1E0E126F136B00014BEC0BF05E
:104D700099C510F6500E0601116F1E0E126F136BBF
:104D800000014BEC0BF095D005016C5102082FE1AE
:104D900096C510F6140E0601116F1E0E126F136BDE
:104DA00000014BEC0BF097C510F6280E0601116FB1
:104DB0001E0E126F010E136F00014BEC0BF098C525
:104DC00010F63C0E0601116F1E0E126F136B0001E0
:104DD0004BEC0BF099C510F6500E0601116F1E0E2C
:104DE000126F136B00014BEC0BF063D005016C519B
:104DF00003082FE196C510F6140E0601116F1E0E62
:104E0000126F136B00014BEC0BF097C510F6280ED8
:104E10000601116F1E0E126F136B00014BEC0BF0AD
:104E200098C510F63C0E0601116F1E0E126F010E92
:104E3000136F00014BEC0BF099C510F6500E0601F4
:104E4000116F1E0E126F136B00014BEC0BF031D083
:104E500005016C5104082EE196C510F6140E0601EA
:104E6000116F1E0E126F136B00014BEC0BF097C508
:104E700010F6280E0601116F1E0E126F136B000143
:104E80004BEC0BF098C510F63C0E0601116F1E0E90
:104E9000126F136B00014BEC0BF099C510F6500E1E
:104EA0000601116F1E0E126F010E136F00014BEC05
:104EB0000BF00501928A80AA34D066B131D06681A8
:104EC0001E0E0601146F000194EC06F0010E0501A0
:104ED0006D6F6D51040824E36D516C5D1FE1010E8F
:104EE0006D5D036A960FE96E050E0320EA6EEF2AE8
:104EF000010E6D5D036A960FE96E050E0320EA6EE2
:104F0000EFBE0CD0EF50090809E2010E6D5D036A97
:104F1000960FE96E050E0320EA6EEF6A6D2BD9D766
:104F200001D06691968084A033D066B530D0668576
:104F30001E0E0601146F000194EC06F0010E05012F
:104F40006D6F6D51040823E36D516C5D1EE1010E20
:104F50006D5D036A960FE96E050E0320EA6EEF069B
:104F6000010E6D5D036A960FE96E050E0320EA6E71
:104F7000EFBE01D00AD0010E6D5D036A960FE96E97
:104F8000050E0320EA6E090EEF6E6D2BDAD701D005
:104F90006695968284A211D066B30ED06683020E07
:104FA00006010E6F960E146F000194EC06F00601D8
:104FB0000E2FF8D705016C2B01D06693968484A43C
:104FC00014D0040E06010E6FAF0E146F000194ECA6
:104FD00006F006010E2FF8D7010E05016B6F0601D2
:104FE0000F6B000121EC07F005016C510408D8B0EB
:104FF000D2D006010F6B000121EC07F005019A5198
:10500000965D68E19B51975D65E19C51985D62E119
:105010009D51995D5FE106010F6B000121EC07F0E6
:10502000050EEA6EEE0EE96EF2CF0EF6F29E000E5F
:10503000C1EC03F00A000900F550EE6E0009FBE137
:1050400006010EBFF28E050E0F6FEE0E0E6F1E0ED6
:10505000106F116B126B020E136F000138EC0AF027
:10506000050EEA6EEE0EE96EF2CF0EF6F29E000E1F
:10507000D1EC03F00A000900F550EE6E0009FBE1E7
:1050800006010EBFF28E050E0F6FEE0E0E6F0F0EA5
:10509000106F1E0E116F126B020E136F000138ECB1
:1050A0000AF05B0E05016B6F00014EEC07F0040E79
:1050B00006010E6FFA0E146F000194EC06F0060163
:1050C0000E2FF8D70F6B000121EC07F0010E050140
:1050D0006C6F61D006010F6B000121EC07F0050E2B
:1050E000EA6EEE0EE96EF2CF0EF6F29E000EC1EC05
:1050F00003F00A000900F550EE6E0009FBE106011D
:105100000EBFF28E050E0F6FEE0E0E6F1E0E106F9D
:10511000116B126B020E136F000138EC0AF0050ED2
:10512000EA6EEE0EE96EF2CF0EF6F29E000EE3ECA2
:1051300003F00A000900F550EE6E0009FBE10601DC
:105140000EBFF28E050E0F6FEE0E0E6F106B1E0E61
:10515000116F126B020E136F000138EC0AF0010E92
:1051600005016B6F00014EEC07F0040E06010E6F97
:10517000FA0E146F000194EC06F006010E2FF8D71A
:105180000F6B000121EC07F0010E05016C6F966BAF
:10519000976B986B996B6B515B08D8A402D2050E84
:1051A000EA6EEE0EE96EF2CF0EF6F29E000E0001F0
:1051B000B4EC04F00A000900F550EE6E0009FBE1C2
:1051C00006010EBFF28E050E0F6FEE0E0E6F106B06
:1051D000116B010E126F020E136F000138EC0AF012
:1051E00005016C2D2FD09AC510F6140E0601116F13
:1051F0001E0E126F010E136F00014BEC0BF09BC5DE
:1052000010F6280E0601116F1E0E126F136B0001AF
:105210004BEC0BF09CC510F63C0E0601116F1E0EF8
:10522000126F136B00014BEC0BF09DC510F6500E86
:105230000601116F1E0E126F136B00014BEC0BF089
:1052400095D005016C5102082FE19AC510F6140E95
:105250000601116F1E0E126F136B00014BEC0BF069
:105260009BC510F6280E0601116F1E0E126F010E5F
:10527000136F00014BEC0BF09CC510F63C0E0601C1
:10528000116F1E0E126F136B00014BEC0BF09DC5DE
:1052900010F6500E0601116F1E0E126F136B0001F7
:1052A0004BEC0BF063D005016C5103082FE19AC55C
:1052B00010F6140E0601116F1E0E126F136B000113
:1052C0004BEC0BF09BC510F6280E0601116F1E0E5D
:1052D000126F136B00014BEC0BF09CC510F63C0EEB
:1052E0000601116F1E0E126F010E136F00014BECC1
:1052F0000BF09DC510F6500E0601116F1E0E126FB9
:10530000136B00014BEC0BF031D005016C5104081C
:105310002EE19AC510F6140E0601116F1E0E126FC3
:10532000136B00014BEC0BF09BC510F6280E060129
:10533000116F1E0E126F136B00014BEC0BF09CC52E
:1053400010F63C0E0601116F1E0E126F136B00015A
:105350004BEC0BF09DC510F6500E0601116F1E0EA2
:10536000126F010E136F00014BEC0BF00501928AD6
:1053700080AA34D066B131D066811E0E0601146F4A
:10538000000194EC06F0010E05016D6F6D510408EB
:1053900024E36D516C5D1FE1010E6D5D036A9A0F90
:1053A000E96E050E0320EA6EEF2A010E6D5D036AB9
:1053B0009A0FE96E050E0320EA6EEFBE0CD0EF5097
:1053C000090809E2010E6D5D036A9A0FE96E050E88
:1053D0000320EA6EEF6A6D2BD9D701D066919680D3
:1053E00084A033D066B530D066851E0E0601146FDA
:1053F000000194EC06F0010E05016D6F6D5104087B
:1054000023E36D516C5D1EE1010E6D5D036A9A0F21
:10541000E96E050E0320EA6EEF06010E6D5D036A6C
:105420009A0FE96E050E0320EA6EEFBE01D00AD096
:10543000010E6D5D036A9A0FE96E050E0320EA6E98
:10544000090EEF6E6D2BDAD701D06695968284A295
:1054500011D066B30ED06683020E06010E6F960E53
:10546000146F000194EC06F006010E2FF8D7050129
:105470006C2B01D06693968484A414D0040E06018C
:105480000E6FAF0E146F000194EC06F006010E2FA4
:10549000F8D7010E05016B6F06010F6B000121ECBF
:1054A00007F005016C510408D8B07BD0010E716F74
:1054B0006C6F0A0EA96E9AC5A8FFA69CA69EA6842C
:1054C000F250006EF29E0F01550EA76EAA0EA76E47
:1054D000A682A6B2FED7A6940050F212320E0601A2
:1054E000146F000194EC06F00B0EA96E9BC5A8FF8B
:1054F000A69CA69EA684F250006EF29E0F01550E49
:10550000A76EAA0EA76EA682A6B2FED7A6940050DA
:10551000F212320E0601146F000194EC06F00C0E2C
:10552000A96E9CC5A8FFA69CA69EA684F250006EFC
:10553000F29E0F01550EA76EAA0EA76EA682A6B206
:10554000FED7A6940050F212320E0601146F00012D
:1055500094EC06F00D0EA96E9DC5A8FFA69CA69E14
:10556000A684F250006EF29E0F01550EA76EAA0E91
:10557000A76EA682A6B2FED7A6940050F212040E21
:1055800006010E6FFA0E146F000194EC06F006018E
:105590000E2FF8D70F6B000121EC07F0010E05016B
:1055A0006B6F6B511408D8A4ACEF31F0050E0601F7
:1055B0000E6F0001BAEF13F005016E53D8A4DFD1CE
:1055C000928680B6DCD1928880B8D9D16A2DECD091
:1055D00081C515F680C514F60001A9EC06F0D9C501
:1055E00011F6D8C510F6D7C50FF6D6C50EF603C00E
:1055F00015F602C014F601C013F600C012F6C4EC92
:1056000006F001E203E105016787000181C515F697
:1056100080C514F6A9EC06F0D88203C016F602C0C5
:1056200015F601C014F600C013F69A0E06011A6FA3
:10563000990E196F190E186F7F0E176F000182EC0B
:105640000CF003C011F602C010F601C00FF600C046
:105650000EF6D9C515F6D8C514F6D7C513F6D6C5B6
:1056600012F6C4EC06F003E305016797000181C55B
:1056700015F680C514F6A9EC06F0D89203C016F60C
:1056800002C015F601C014F600C013F606011A6B2D
:10569000196B186B7F0E176F000182EC0CF0D9C5E7
:1056A00011F6D8C510F6D7C50FF6D6C50EF603C04D
:1056B00015F602C014F601C013F600C012F6C4ECD1
:1056C00006F001E239E10601216B370E226F7F0EF1
:1056D000236F3F0E246F010E256F266B0001D7EC60
:1056E00009F0050EEA6EEE0EE96EF2CF0EF6F29EAE
:1056F000000EC7EC04F00A000900F550EE6E000938
:10570000FBE106010EBFF28E050E0F6FEE0E0E6F5F
:10571000106B370E116F020E126F010E136F000126
:1057200038EC0AF0010E0501726F000168EC14F00C
:105730000501679338D00001050167930601216BCD
:10574000370E226F7F0E236F3F0E246F010E256FE1
:10575000266B0001D7EC09F0050EEA6EEE0EE96E3D
:10576000F2CF0EF6F29E000EDEEC04F00A00090005
:10577000F550EE6E0009FBE106010EBFF28E050E3C
:105780000F6FEE0E0E6F106B370E116F020E126F51
:10579000010E136F000138EC0AF00501726B000175
:1057A00068EC14F00501EBD081C515F680C514F640
:1057B0000001A9EC06F003C011F602C010F601C00A
:1057C0000FF600C00EF6D9C515F6D8C514F6D7C524
:1057D00013F6D6C512F6C4EC06F001E203E10501AA
:1057E0006787000181C515F680C514F6A9EC06F09F
:1057F000D88203C016F602C015F601C014F600C028
:1058000013F69A0E06011A6F990E196F190E186F7A
:105810007F0E176F000182EC0CF0D9C511F6D8C5C8
:1058200010F6D7C50FF6D6C50EF603C015F602C0A2
:1058300014F601C013F600C012F6C4EC06F003E340
:1058400005016797000181C515F680C514F6A9EC1E
:1058500006F0D88203C016F602C015F601C014F691
:1058600000C013F606011A6B196B186B7F0E176FC9
:10587000000182EC0CF003C011F602C010F601C06A
:105880000FF600C00EF6D9C515F6D8C514F6D7C563
:1058900013F6D6C512F6C4EC06F001E239E10601B2
:1058A000216B370E226F7F0E236F3F0E246F010E88
:1058B000256F266B0001D7EC09F0050EEA6EEE0E9F
:1058C000E96EF2CF0EF6F29E000EC7EC04F00A006D
:1058D0000900F550EE6E0009FBE106010EBFF28EE5
:1058E000050E0F6FEE0E0E6F106B370E116F020E5E
:1058F000126F010E136F000138EC0AF0010E050162
:10590000726F000168EC14F00501679338D0000154
:10591000050167830601216B370E226F7F0E236F0F
:105920003F0E246F010E256F266B0001D7EC09F0A6
:10593000050EEA6EEE0EE96EF2CF0EF6F29E000E46
:10594000F4EC04F00A000900F550EE6E0009FBE1EA
:1059500006010EBFF28E050E0F6FEE0E0E6F106B6E
:10596000370E116F020E126F010E136F000138EC2B
:105970000AF00501726B000168EC14F005016E2D50
:1059800033D0928680B630D0928880B82DD067937D
:10599000050EEA6EEE0EE96EF2CF0EF6F29E000EE6
:1059A00000010AEC05F00A000900F550EE6E00094E
:1059B000FBE106010EBFF28E050E0F6FEE0E0E6FAD
:1059C000106B370E116F020E126F010E136F000174
:1059D00038EC0AF00501726B8B9094908B94949440
:1059E000B16BB06BAF6BAE6B928680A698D06793AD
:1059F00066BD71D0F2CF0EF6F29E5A0EA96EA69C2D
:105A0000A69EA680A85006010EBFF28E156B146FDD
:105A10000001A9EC06F003C0C5F502C0C4F501C041
:105A2000C3F500C0C2F5C5C512F6C4C511F6C3C59D
:105A300010F6C2C50FF6D1C516F6D0C515F6CFC5FE
:105A400014F6CEC513F6D3EC0BF000C00EF601C071
:105A50000FF602C010F603C011F681C515F680C519
:105A600014F6A9EC06F003C02EF602C02DF601C014
:105A70002CF600C02BF611C632F610C631F60FC652
:105A800030F60EC62FF6CFEC0DF003C0C5F502C000
:105A9000C4F501C0C3F500C0C2F56EC56FF50501C0
:105AA0006E6B0601216B370E226F7F0E236F3F0E48
:105AB000246F010E256F266B0001D7EC09F005015C
:105AC000726B8B9094908B949494B16BB06BAF6B22
:105AD000AE6B668D646B050EEA6EEE0EE96EF2CF6C
