:040000000AEF32F0E1
:0800080057EF00F000000000BA
:100010000000000000000000046ED8CF05F0E0CF23
:1000200006F00001E9CF0CF0EACF07F0E1CF08F0CD
:10003000E2CF09F0D9CF0AF0DACF0BF0F3CF12F00C
:10004000F4CF13F0FACF14F0FBCF15F000C00EF090
:1000500001C00FF002C010F003C011F09DA034EFFA
:1000600000F09EB06AEF01F00EC000F00FC001F08A
:1000700010C002F011C003F00CC0E9FF07C0EAFF96
:10008000078E08C0E1FF09C0E2FF0AC0D9FF0BC01C
:10009000DAFF12C0F3FF13C0F4FF14C0FAFF15C05B
:1000A000FBFF045006C0E0FF05C0D8FF1000176E2C
:1000B000D8CF18F0E0CF19F00001E9CF1FF0EACF58
:1000C0001AF0E1CF1BF0E2CF1CF0D9CF1DF0DACF50
:1000D0001EF0F3CF25F0F4CF26F0FACF27F0FBCFB8
:1000E00028F000C021F001C022F002C023F003C0BC
:1000F00024F09DAA7FEF00F09EBA34EF01F021C0FA
:1001000000F022C001F023C002F024C003F01FC0A1
:10011000E9FF1AC0EAFF1A8E1BC0E1FF1CC0E2FF14
:100120001DC0D9FF1EC0DAFF25C0F3FF26C0F4FFB3
:1001300027C0FAFF28C0FBFF175019C0E0FF18C006
:10014000D8FF1000737461747573542E7478743D05
:1001500022436F6E74726F6C616E646F22007374F1
:1001600061747573542E7478743D22456E6672699D
:10017000616E646F2200737461747573542E7478A9
:10018000743D22436F6E74726F6C616E646F2200F7
:10019000737461747573542E7478743D2243616C6A
:1001A000656E74616E646F220000737461747573A0
:1001B000542E7478743D22436F6E74726F6C616E4E
:1001C000646F2200737461747573542E7478743D77
:1001D000224D6573657461220000737461747573D8
:1001E000542E7478743D2252616D7061202D22006E
:1001F000737461747573542E7478743D22456E6601
:100200007269616E646F2200737461747573542E29
:100210007478743D22436F6E74726F6C616E646F9C
:100220002200737461747573542E7478743D224D7A
:100230006573657461220000737461747573542E64
:100240007478743D2252616D7061202B22007374AA
:1002500061747573542E7478743D2243616C656EBD
:1002600074616E646F2200009EAAFED7AECFDBF1F0
:100270000101DB51650803E1010EDC6F406ADC2DF2
:100280000AD0036A4050350FE96E000E0320EA6E73
:10029000DBC1EFFF402A4050090802E2406ADC6BF4
:1002A000405214E1355065080DE1363C0BD0373C27
:1002B00009D03D5207E13E3C05D0050E0201066F14
:1002C00004D001010A0E0201066F01019E9A00018D
:1002D0007FEF00F09E0ECF6E580ECE6E0201082BFF
:1002E000D8B4092B0A2BD8B40B2B0C2BD8B40D2B5C
:1002F0000B5303E10A51C70803E2010E0101D46F59
:100300000101D62D16D002010D51155D07E303E161
:1003100014510C5D03E28D84969402D08D949694D2
:1003200017510D5D06E303E116510C5D02E30D6B01
:100330000C6B0201095303E10851C70836E2096B4F
:10034000086B0101CC89FD2B0201012B0101D22B8D
:1003500083A60AD002011D5306E11C51F90803E3EC
:100360001C2BD8B41D2B0101CBA305D002011A2BE5
:10037000D8B41B2B0101CBA505D00201182BD8B492
:10038000192B0101FBA704D00201122BD8B4132BA7
:100390000201032D03D00E2BD8B40F2B0101FBA5B6
:1003A00005D00201102BD8B4112B01019E90000141
:1003B00034EF00F070616765204269656E76656EA6
:1003C00069646100626B636D643D300070616765F4
:1003D00020436C6176650000626B636D643D3000A4
:1003E0007061676520436C617665000070616765C8
:1003F000205072696E636970616C00007469747575
:100400006C6F2E7478743D22436C617665204E7556
:10041000657661220000646F6576656E7473000016
:10042000746974756C6F2E7478743D22436C6176B8
:10043000652041637475616C2200646F6576656E3A
:1004400074730000746974756C6F2E7478743D2237
:10045000436C617665205465636E69636F220000AA
:10046000646F6576656E74730000746974756C6F83
:100470002E7478743D22496E677265736520436CF3
:100480006176652200007061676520436C61766566
:10049000436F727265637461000070616765204329
:1004A0006C617665426164007061676520436F6EC0
:1004B0006669670070616765205072696E63697074
:1004C000616C00007061676520436C6176650000B7
:1004D000746974756C6F2E7478743D22436C617608
:1004E00065204E7565766122000070616765205059
:1004F00072696E636970616C0000746974756C6F09
:100500002E7478743D22436C617665204E75657655
:100510006122000070616765205072696E636970C6
:10052000616C0000706167652054657374007061D0
:100530006765205072696E636970616C0000666562
:100540006368612E7478743D2246656368613A255C
:100550003032752F253032752F32302530327520EC
:10056000202020486F72613A20253032753A2530BC
:1005700032753A253032752200007061676520506F
:1005800072696E636970616C000074736563657392
:10059000742E70636F3D363535333500746D696E7A
:1005A0006573742E70636F3D30007473656365739B
:1005B000742E70636F3D3000746D696E6573742EB8
:1005C00070636F3D363535333500746D696E736514
:1005D000632E7478743D222530322E30662200005E
:1005E000747365637365632E7478743D22253032AD
:1005F0002E3066220000706167652052616D706167
:100600007300747365636573742E70636F3D363564
:1006100035333500746D696E6573742E70636F3D8C
:100620003000747365636573742E70636F3D3000C2
:10063000746D696E6573742E70636F3D3635353336
:100640003500746D696E7365632E7478743D222570
:1006500030322E3066220000747365637365632E3A
:100660007478743D222530322E3066220000666593
:100670006368612E7478743D2246656368613A252B
:100680003032752F253032752F32302530327520BB
:10069000202020486F72613A20253032753A25308B
:1006A00032753A2530327522000063302E76616C47
:1006B0003D31000063312E76616C3D3000006332C5
:1006C0002E76616C3D30000063302E76616C3D30DB
:1006D000000063312E76616C3D31000063322E766E
:1006E000616C3D30000063302E76616C3D3000005F
:1006F00063312E76616C3D30000063322E76616C82
:100700003D31000070616765205072696E636970E9
:10071000616C00007473657474656D2E7478743D3B
:100720002225322E31662200706167652052616D8C
:10073000706173007473657474656D2E7478743DA4
:100740002225322E3166220062302E62636F3D32E6
:100750003031360062302E62636F3D3633343838C4
:10076000000062312E62636F3D32303136006231FB
:100770002E62636F3D3633343838000062322E62A9
:10078000636F3D323031360062322E62636F3D3628
:1007900033343838000062332E62636F3D323031BB
:1007A000360062332E62636F3D36333438380000D2
:1007B00062382E62636F3D323031360062382E620D
:1007C000636F3D3633343838000062392E62636F10
:1007D0003D323031360062392E62636F3D3633343C
:1007E000383800006231302E62636F3D323031366E
:1007F00000006231302E62636F3D3633343838008A
:100800006231322E62636F3D323031360000623128
:10081000322E62636F3D3633343838006231332E06
:100820007478743D22414443303A25332E30662299
:1008300000006231342E7478743D22414443313AD1
:1008400025332E30662200006231352E7478743DD7
:100850002241323A25332E30662200006231382E92
:100860007478743D2241333A25332E3066220000DD
:100870006231392E7478743D2254323A25332E3148
:10088000662200006232302E7478743D2254313A70
:1008900025332E3166220000706167652050726931
:1008A0006E636970616C00007061676520507269E9
:1008B0006E636970616C000074686F72612E747889
:1008C000743D2225303275220000746D696E757496
:1008D0006F732E7478743D22253032752200746453
:1008E00069612E7478743D22253032752200746D52
:1008F00065732E7478743D22253032752200747928
:100900006561722E7478743D2225303275220000A4
:1009100066656368612E7478743D2246656368611C
:100920003A253032752F253032752F32302530324E
:100930007520486F72613A20253032753A25303281
:10094000753A25303275220074332E7478743D2246
:100950005061736F732050726F6772616D61646F65
:1009600073202530327522006369636C6F2E7478B2
:10097000743D225061736F202530327522007465FA
:100980006D702E7478743D2254656D70657261745B
:100990007572613A2025322E3166B04322007469A7
:1009A000656D706F2E7478743D225469656D706F3B
:1009B0003A202530322E30663A2530322E306620ED
:1009C00022006369636C6F2E7478743D22506173EA
:1009D0006F202D2D220074656D702E7478743D2269
:1009E00054656D70657261747572613A202D2D22A7
:1009F00000007469656D706F2E7478743D225469BF
:100A0000656D706F3A202D2D3A2D2D2200006369FF
:100A1000636C6F2E7478743D225061736F202530A3
:100A20003275220074656D702E7478743D225465A1
:100A30006D70657261747572613A2025322E31666F
:100A4000B04322007469656D706F2E7478743D2216
:100A50005469656D706F3A202530322E30663A2524
:100A600030322E3066202200706167652054656D3B
:100A70007065726174757261000070616765205401
:100A800069656D706F0070616765205072696E6393
:100A90006970616C000070616765205072696E63F7
:100AA0006970616C00007061676520436C617665F8
:100AB000000066656368612E7478743D2246656344
:100AC00068613A253032752F253032752F32302546
:100AD00030327520202020486F72613A2025303254
:100AE000753A253032753A25303275220000706132
:100AF00067652054656D7065726174757261000080
:100B000070616765205469656D706F00706167651D
:100B100020436C61766500007061676520436C61FD
:100B20007665000070616765204665636861000056
:100B30007061676520436C61766500007061676570
:100B40002052616D706173007374617475732E74DB
:100B500078743D2245737461646F3A416C61726DC3
:100B6000612030312200737461747573542E74786F
:100B7000743D222D2D2D2D2D2200737461747573FB
:100B80002E7478743D2245737461646F3A507565B4
:100B9000727461204162696572746122000073742D
:100BA00061747573542E7478743D222D2D2D2D2D66
:100BB00022007374617475732E7478743D224573CA
:100BC0007461646F3A446573636F6E67656C616EE0
:100BD000646F22007374617475732E7478743D228F
:100BE00045737461646F3A202D2D2D2D22006234DF
:100BF0002E7069633D38350062362E7069633D386A
:100C0000350074382E7478743D225061736F20253E
:100C100030327522000074382E7478743D22496E8B
:100C2000666F220062362E7069633D38340062348C
:100C30002E7069633D383500737461747573542E7A
:100C40007478743D22446574656E69646F22000097
:100C500062342E7069633D38340074382E747874B1
:100C60003D225061736F202D2D220000737461743A
:100C700075732E7478743D225265696E6963696577
:100C800020656C2065717569706F220062342E706A
:100C900069633D38340062362E7069633D38340034
:100CA000737461747573542E7478743D2246696E42
:100CB000616C697A61646F22000074656D706572A1
:100CC00061747572612E7478743D22543A2D2D2D05
:100CD0002D22000074656D70657261747572612EED
:100CE0007478743D22543A25322E3166B043220086
:100CF0007374656D70657261747572612E74787449
:100D00003D225345543A25322E316620B04322000D
:100D1000737469656D706F2E7478743D22534554F9
:100D20003A2530322E30663A2530322E3066202871
:100D300048483A4D4D2922007469656D706F2E74D4
:100D400078743D222530322E30663A2530322E30EE
:100D500066220000706F74542E7478743D22506FB8
:100D6000742E20543A25322E30662025252200008C
:100D70007374617475732E7478743D2246696E6164
:100D80006C697A61646F2200436F6E6669672E74C6
:100D900032632E7478743D2250726F706F72636983
:100DA0006F6E616C22007433632E7478743D22255B
:100DB000322E30662200436F6E6669672E7432638E
:100DC0002E7478743D224465726976617469766F19
:100DD00022007433632E7478743D2225752200003E
:100DE000436F6E6669672E7432632E7478743D2289
:100DF000496E74656772616C22007433632E747877
:100E0000743D222575220000436F6E6669672E745B
:100E100032632E7478743D22546369636C6F2200D0
:100E20007433632E7478743D2225322E306622008E
:100E3000436F6E6669672E7432632E7478743D2238
:100E4000416A75737465202B22007433632E7478A5
:100E5000743D222575220000436F6E6669672E740B
:100E600032632E7478743D22416A75737465202D47
:100E700022007433632E7478743D2225752200009D
:100E8000436F6E6669672E7432632E7478743D22E8
:100E9000416A7573746532202B2200007433632E0F
:100EA0007478743D222575220000436F6E66696771
:100EB0002E7432632E7478743D22416A75737465A2
:100EC00032202D2200007433632E7478743D222565
:100ED00075220000436F6E6669672E7432632E744C
:100EE00078743D224D656469612200007433632E7D
:100EF0007478743D222575220000436F6E66696721
:100F00002E7432632E7478743D224869737465724E
:100F10006573697322007433632E7478743D2225DF
:100F2000312E3166220070616765205072696E63F0
:100F30006970616C000066656368612E7478743D49
:100F40002246656368613A253032752F2530327547
:100F50002F32302530327520202020486F72613AC0
:100F600020253032753A2530327522008C9E959EB0
:100F70008D9296928D9496948C8495948C86959669
:100F8000000C850ECD6E9D80C150C00B0C09C16E4A
:100F9000C050C00B0609C06EC08EC280F19ED180C9
:100FA000C00EF21217EF35F08E0E006EFFC601F084
:100FB000FEC602F0036A015209E102C001F0026AB2
:100FC000080E005E015202E1006A08D0D89001BE0E
:100FD00004D0023601360006F9D7019E000C060E39
:100FE000EA6EF60EE96EEF500DE0060E016E006A35
:100FF000002EFED7012EFBD77B0E006E002EFED7F3
:10100000EF2EF3D7000C0601F751D8B4E5D0070155
:10101000036F0601FB51D8B4DFD00701035F07E37C
:101020007F0E0327D8A002D00601D6D00AD0810EA9
:10103000035FD8B002D00601CFD0D8A402D00601F9
:10104000CBD003C700F0016A026A036A026BF8C6DC
:1010500001F7018FF9C600F7FAC6FFF6190E036F04
:101060000601FE51FF5F18E2010E0701005FD8A0E4
:1010700002D0060111D0015FD8A002D006010CD029
:10108000025FD8A002D0060107D0022B012B002B53
:101090000601FE51FF273AD0FD510701005F1DE216
:1010A000010E015F1AE2025F18E2022B012B06011A
:1010B000FD51070100270601FE51FF2727E3070125
:1010C000002BD8B402D0060121D0012BD8B402D015
:1010D00006011CD0022B060119D00601FC51800923
:1010E0000701015F12E2010E025F0FE2022B06010F
:1010F000FC518009070101270601FD510701002766
:10110000DAE3012BD8E1022BD6D703800701032FA6
:1011100001D00DD0D8900601FF3707010037013705
:101120000237D890033602360136043799D704A126
:1011300006D0D890013202320332043304D0002E9C
:1011400002D0060149D004BF2CD0D8900601FF3749
:1011500007010037013702370601FE51FF5F0FE23A
:10116000010E0701005FD8A002D0060108D0015F80
:10117000D8A002D0060103D0025F21E30601FD5191
:101180000701005F05E2010E015F02E2025F17E363
:101190000601FC5180090701015F03E2010E025FB5
:1011A0000EE3032A0CE1022A0AE1012A08E1002ADF
:1011B000D8A402D0060110D0013202320332F8C6A0
:1011C00003F70601FC510701031B03AF02D0018E98
:1011D00008D0019E06D00601006A016A026A036A0D
:1011E00007010001000C800ED8A202D00701031BEA
:1011F0000701086B096BFFC607F70351071B0601C0
:10120000FE51D8B4E2D00701066F006E0251D8B487
:10121000E6D0065FD8B485D03EE303C70CF70C8F49
:1012200004C70BF705C70AF7096BD8900C330B33CB
:101230000A330933062FF8D707AF03D00881E3D06C
:10124000089106910889070EEA6E010EE96EEED04C
:10125000089907BF0AD006A113D00C330B330A3309
:101260000933002AD8B4CAD00BD00CBF0CD0D89008
:1012700009370A370B370C370006D8B4BFD0F5D77B
:10128000088D6FD0089DFFC607F707AF02D00C8FFF
:10129000AED00C9FACD002C706F702C700F0060123
:1012A000FE510701065FFFC60CF70C8F00C70BF756
:1012B00001C70AF7096BD8900C330B330A33093393
:1012C000062FF8D707AF03D008839DD00893069167
:1012D000088B070EEA6E050EE96EA8D0089B07BFC3
:1012E0000AD006A113D00C330B330A330933002A7A
:1012F000D8B484D00BD00CBF0CD0D89009370A37A3
:101300000B370C370006D8B479D0F5D7088F29D021
:10131000089F03C707F703AF02D00C8F68D00C9F5C
:1013200066D003C70CF70C8F04C70BF705C70AF785
:1013300007AF04D00C9F088566D00895096B06910D
:10134000070EEA6E010EE96E71D007BF1CD0FFC612
:1013500007F706A106D00C330B330A330933002AF2
:101360004DE009AF0BD00A2B09E10B2B07E10C2B49
:1013700005E10C330B330A33002A40E008BD82D765
:1013800008BFC6D71CD0800E0C1B0CAF04D03BD0BE
:1013900003C707F70AD0FFC607F70C5306E10B5344
:1013A00004E10A5302E1006A22D00CBF08D0D890B1
:1013B00009370A370B370C37002EF7D71FD007AF86
:1013C00002D00C8F14D00C9F12D002C700F003C7BC
:1013D0000CF704C70BF705C70AF7070108D0FEC6CC
:1013E00000F0FFC60CF700C70BF701C70AF70CC7E0
:1013F00001F00BC702F00AC703F034D0006A016A9B
:10140000026A036A2FD0096B0A1F0B1F0C1F091FEA
:10141000092B05E10A2B03E10B2B01E10C2B08B191
:101420000FD708B353D708B588D7B2D7EF500A27DC
:1014300005E30B2B03E10C2BD8B40681ED52EF50E2
:101440000B2703E30C2BD8B40681ED52EF50EFBE0F
:1014500001D0800A0C27D8B0068108B9F9D608BB9C
:101460003DD773D70001000C0601F551F703F3CF08
:1014700001F0F4CF00F0F803F3500026F651F70323
:10148000F3500020026E0001000C0601FF6BF1C654
:10149000FEF6000189DD03C0F5F602C0F4F601C0D6
:1014A000F3F600C0F2F6F5C6FAF6F4C6F9F6F3C69E
:1014B000F8F6F2C6F7F60601FE6BFD6B200EFC6F28
:1014C000820EFB6F00019FDD000C07010251D8B4B2
:1014D00071D0006E0651D8B46DD0002604E3810EA1
:1014E000002668E204D07F0E005E64E363E003C779
:1014F0000AF707510A1B038F078F05510903F4CF21
:101500000CF704510803F4CF03F0F3CF0BF70903F2
:10151000F3500C27F4500B23000E0322055108034F
:10152000F3500C27F4500B23000E026A0322022210
:1015300003510903F3500B27F4500322000E02223B
:1015400003510803F3500326F4500222000E016AEF
:10155000012205510703F3500B27F4500322000E1C
:101560000222012204510703F3500326F450022201
:10157000000E012203510703F3500226F45001220A
:10158000002A01BE05D00B370336023601360006AD
:10159000000E0BAF0AD0032A02220122015005E1FE
:1015A000025003E1035001E1002A0ABF018E0AAF95
:1015B000019E04D0006A016A026A036A0001000CFD
:1015C000F2C6F9F60601F651F91BF9AF05D0D89429
:1015D000D890F2BFD8802FD0F2C6F9F6F5C6FAF649
:1015E000F151FA5F06E0F9AF26D0D850010AD86E63
:1015F00022D0F6C6FAF6F251FA5F06E0F9AF1BD038
:10160000D850010AD86E17D0F7C6FAF6F351FA5F30
:1016100006E0F9AF10D0D850010AD86E0CD0F8C649
:10162000FAF6F451FA5F06E0F9AF05D0D850010A96
:10163000D86E01D0D8900001000CF2CFEDF6F29CEC
:10164000F29EAA6AA96AA69CA69EA680A850060138
:10165000EDBDF28CEDBFF28EFF6BFE6F0001A4DCDE
:1016600003C0E6F102C0E5F101C0E4F100C0E3F11E
:101670000A0E0601F66F0001B2DCF2CFEDF6F29C25
:10168000F29EAA6A010EA96EA69CA69EA680A850EC
:101690000601EDBDF28CEDBFF28EFF6BFE6F000117
:1016A00083DC03C0EAF102C0E9F101C0E8F100C047
:1016B000E7F10A0E0601F66F000191DCF2CFEDF6BC
:1016C000F29CF29EAA6A4F0EA96EA69CA69EA680C8
:1016D000A8500601EDBDF28CEDBFF28E0101E26F64
:1016E0000A0E0601F66F00017ADCF2CFEDF6F29CED
:1016F000F29EAA6A500EA96EA69CA69EA680A8502D
:101700000601EDBDF28CEDBFF28E0201056F0A0EEF
:101710000601F66F000163DCF2CFEDF6F29CF29E5B
:10172000AA6A510EA96EA69CA69EA680A850060184
:10173000EDBDF28CEDBFF28EFF6BFE6F000134DC6D
:1017400003C073F202C072F201C071F200C070F205
:1017500073C2FAF672C2F9F671C2F8F670C2F7F601
:101760000601FE6BFD6B200EFC6F820EFB6F00010D
:101770004ADC03C073F202C072F201C071F200C011
:1017800070F20601FF6B05C2FEF600010DDCD89277
:1017900003C001F702C000F701C0FFF600C0FEF66B
:1017A00073C205F772C204F771C203F770C202F781
:1017B0001ADD03C06FF202C06EF201C06DF200C00C
:1017C0006CF20A0E0601F66F000109DCF2CFEDF6AD
:1017D000F29CF29EAA6A520EA96EA69CA69EA680B4
:1017E000A8500601EDBDF28CEDBFF28E0201056F2F
:1017F0000A0E0601F66F0001EFEC07F0F2CFEDF6EE
:10180000F29CF29EAA6A530EA96EA69CA69EA68082
:10181000A8500601EDBDF28CEDBFF28EFF6BFE6F9E
:101820000001D4EC07F003C073F202C072F201C0F1
:1018300071F200C070F273C2FAF672C2F9F671C2A8
:10184000F8F670C2F7F60601FE6BFD6B200EFC6F1A
:10185000820EFB6F000103EC08F003C073F202C0BC
:1018600072F201C071F200C070F20601FF6B05C296
:10187000FEF60001D4EC07F0D89203C001F702C0D5
:1018800000F701C0FFF600C0FEF673C205F772C292
:1018900004F771C203F770C202F7A5DC03C077F248
:1018A00002C076F201C075F200C074F20A0E0601A1
:1018B000F66F0001EFEC07F0F2CFEDF6F29CF29E2E
:1018C000AA6A0A0EA96EA69CA69EA680A85006012A
:1018D000EDBDF28CEDBFF28E0201286F0A0E0601FB
:1018E000F66F0001EFEC07F0F2CFEDF6F29CF29EFE
:1018F000AA6A0B0EA96EA69CA69EA680A8500601F9
:10190000EDBDF28CEDBFF28E0201296F0A0E0601C9
:10191000F66F0001EFEC07F0F2CFEDF6F29CF29ECD
:10192000AA6A0C0EA96EA69CA69EA680A8500601C7
:10193000EDBDF28CEDBFF28E02012A6F0A0E060198
:10194000F66F0001EFEC07F0F2CFEDF6F29CF29E9D
:10195000AA6A0D0EA96EA69CA69EA680A850060196
:10196000EDBDF28CEDBFF28E02012B6F0A0E060167
:10197000F66F0001EFEC07F0F2CFEDF6F29CF29E6D
:10198000AA6A150EA96EA69CA69EA680A85006015E
:10199000EDBDF28CEDBFF28E0301176F0A0E06014A
:1019A000F66F0001EFEC07F0F2CFEDF6F29CF29E3D
:1019B000AA6A160EA96EA69CA69EA680A85006012D
:1019C000EDBDF28CEDBFF28E0301186F0A0E060119
:1019D000F66F0001EFEC07F0F2CFEDF6F29CF29E0D
:1019E000AA6A170EA96EA69CA69EA680A8500601FC
:1019F000EDBDF28CEDBFF28E04017B6F0A0E060185
:101A0000F66F0001EFEC07F0F2CFEDF6F29CF29EDC
:101A1000AA6A180EA96EA69CA69EA680A8500601CA
:101A2000EDBDF28CEDBFF28E04017C6F0A0E060153
:101A3000F66F0001EFEC07F0F2CFEDF6F29CF29EAC
:101A4000AA6A1E0EA96EA69CA69EA680A850060194
:101A5000EDBDF28CEDBFF28EFF6BFE6F0001D4EC9A
:101A600007F003C04BF202C04AF201C049F200C0C5
:101A700048F20A0E0601F66F0001EFEC07F0F2CF14
:101A8000EDF6F29CF29EAA6A1F0EA96EA69CA69E77
:101A9000A680A8500601EDBDF28CEDBFF28E0101CB
:101AA000D86F0A0E0601F66F0001EFEC07F0F2CFD7
:101AB000EDF6F29CF29EAA6A200EA96EA69CA69E46
:101AC000A680A8500601EDBDF28CEDBFF28E01019B
:101AD000D96F0A0E0601F66F0001EFEC07F0F2CFA6
:101AE000EDF6F29CF29EAA6A210EA96EA69CA69E15
:101AF000A680A8500601EDBDF28CEDBFF28EFF6B03
:101B0000FE6F0001D4EC07F003C033F202C032F2E2
:101B100001C031F200C030F20A0E0601F66F00017A
:101B2000EFEC07F0F2CFEDF6F29CF29EAA6A220EDD
:101B3000A96EA69CA69EA680A8500601EDBDF28CBB
:101B4000EDBFF28EFF6BFE6F0001D4EC07F003C017
:101B50007FF202C07EF201C07DF200C07CF20A0E6C
:101B60000601F66F0001EFEC07F07FC2FAF67EC2C5
:101B7000F9F67DC2F8F67CC2F7F60601FE6BFD6B46
:101B8000200EFC6F820EFB6F000103EC08F003C017
:101B90007FF202C07EF201C07DF200C07CF2F2CF83
:101BA000EDF6F29CF29EAA6A240EA96EA69CA69E51
:101BB000A680A8500601EDBDF28CEDBFF28E0101AA
:101BC000D16F0A0E0601F66F0001EFEC07F0F2CFBD
:101BD000EDF6F29CF29EAA6A250EA96EA69CA69E20
:101BE000A680A8500601EDBDF28CEDBFF28EFF6B12
:101BF000FE6F0001D4EC07F003C057F202C056F2AA
:101C000001C055F200C054F20A0E0601F66F000141
:101C1000EFEC07F0F2CFEDF6F29CF29EAA6A260EE8
:101C2000A96EA69CA69EA680A8500601EDBDF28CCA
:101C3000EDBFF28EFF6BFE6F0001D4EC07F003C026
:101C40006BF202C06AF201C069F200C068F20A0ECB
:101C50000601F66F0001EFEC07F04BC24FF24AC2EB
:101C60004EF249C24DF248C24CF20101FF6BFF51E6
:101C70001308D8A0B6D30601F66BFFC1F5F6F86BD2
:101C80000F0EF76F000134EC0AF002C0EEF601C04F
:101C9000EDF6010E0601ED25016E000EEE21036E3C
:101CA0000150C10FE96E050E0320EA6E0101FF51DC
:101CB000050DF350640F0601EF6FF2CFF0F6F29CC2
:101CC000F29EAA6AEFC6A9FFA69CA69EA680A8506F
:101CD000F0BDF28CF0BFF28EEF6EF66BFFC1F5F641
:101CE000F86B0F0EF76F000134EC0AF002C0EEF64D
:101CF00001C0EDF6C10E0601ED25E96E050EEE21DF
:101D0000EA6E0101FF51050DF350650F0601EF6FFB
:101D1000F2CFF0F6F29CF29EAA6AEFC6A9FFA69C4B
:101D2000A69EA680A850F0BDF28CF0BFF28EEF6E9A
:101D3000F66BFFC1F5F6F86B0F0EF76F000134EC90
:101D40000AF002C0EEF601C0EDF6020E0601ED2526
:101D5000016E000EEE21036E0150C10FE96E050EFB
:101D60000320EA6E0101FF51050DF350660F0601D5
:101D7000EF6FF2CFF0F6F29CF29EAA6AEFC6A9FFCF
:101D8000A69CA69EA680A850F0BDF28CF0BFF28E55
:101D9000EF6EF66BFFC1F5F6F86B0F0EF76F0001F3
:101DA00034EC0AF002C0EEF601C0EDF6030E0601B7
:101DB000ED25016E000EEE21036E0150C10FE96E9C
:101DC000050E0320EA6E0101FF51050DF350670F68
:101DD0000601EF6FF2CFF0F6F29CF29EAA6AEFC610
:101DE000A9FFA69CA69EA680A850F0BDF28CF0BFCD
:101DF000F28EFF6BFE6F0001D4EC07F000C0EFFF26
:101E000001C0ECFF02C0ECFF03C0ECFFED52ED524D
:101E1000ED520601F66BFFC1F5F6F86B0F0EF76F8A
:101E2000000134EC0AF002C0EEF601C0EDF6070E38
:101E30000601ED25016E000EEE21036E0150C10F6B
:101E4000E96E050E0320EA6E0101FF51050DF35006
:101E5000680F0601EF6FF2CFF0F6F29CF29EAA6ACD
:101E6000EFC6A9FFA69CA69EA680A850F0BDF28C46
:101E7000F0BFF28EFF6BFE6F0001D4EC07F000C0E4
:101E8000EFFF01C0ECFF02C0ECFF03C0ECFFED521E
:101E9000ED52ED520601F66BFFC1F5F6F86B0F0E31
:101EA000F76F000134EC0AF002C0EEF601C0EDF667
:101EB000020E06010124016E000E0220036E015085
:101EC000C10FE96E050E0320EA6EEF5014081AE206
:101ED000F66BFFC1F5F6F86B0F0EF76F000134ECEF
:101EE0000AF001C0EDF6020E06010124016E000E9B
:101EF0000220036E0150C10FE96E050E0320EA6E49
:101F00000A0EEF6EF66BFFC1F5F6F86B0F0EF76F6A
:101F1000000134EC0AF002C0EEF601C0EDF6020E4C
:101F200006010124016E000E0220036E0150C10F54
:101F3000E96E050E0320EA6EEF501408D8A4A0D075
:101F4000F66BFFC1F5F6F86B0F0EF76F000134EC7E
:101F50000AF001C0EDF60B0E06010124016E000E21
:101F60000220036E0150C10F016E050E032201C055
:101F7000EDF603C0EEF6F66BFFC1F5F6F86B0F0E4B
:101F8000F76F000134EC0AF002C0F0F601C0EFF682
:101F9000010E06010124016E000E0220036E0150A5
:101FA000C10FE96E050E0320EA6EEFCFEFF6F66B78
:101FB000FFC1F5F6F86B0F0EF76F000134EC0AF075
:101FC000C10E06010124E96E050E0220EA6EEFCF74
:101FD000F0F6F0C6F1F6000145EC0AF000C0F0F6AC
:101FE00001C0F1F602C0F2F603C0F3F60601FF6B82
:101FF000EFC6FEF60001D4EC07F0EACFF5F6E9CF24
:10200000F4F6D89203C001F702C000F701C0FFF652
:1020100000C0FEF6F3C605F7F2C604F7F1C603F7F3
:10202000F0C602F7F3EC08F0F5C6EAFFF4C6E9FFE4
:1020300000C0F6F601C0F7F602C0F8F603C0F9F6E4
:1020400003C005F702C004F701C003F700C002F7A0
:102050000701096B086B800E076F7F0E066F00018A
:1020600065EC0AF0EEC6EAFFEDC6E9FF00C0EFFF3F
:1020700001C0ECFF02C0ECFF03C0ECFF85D00601FD
:10208000F66BFFC1F5F6F86B0F0EF76F000134EC3D
:102090000AF001C0EDF60B0E06010124016E000EE0
:1020A0000220036E0150C10F016E050E032201C014
:1020B000EDF603C0EEF6F66BFFC1F5F6F86B0F0E0A
:1020C000F76F000134EC0AF002C0F0F601C0EFF641
:1020D000010E06010124016E000E0220036E015064
:1020E000C10FE96E050E0320EA6EEFCFEFF6F66B37
:1020F000FFC1F5F6F86B0F0EF76F000134EC0AF034
:10210000C10E06010124E96E050E0220EA6EEFCF32
:10211000F0F6F0C6F1F6000145EC0AF000C0F0F66A
:1021200001C0F1F602C0F2F603C0F3F60601FF6B40
:10213000EFC6FEF60001D4EC07F0EACFF5F6E9CFE2
:10214000F4F6D89203C001F702C000F701C0FFF611
:1021500000C0FEF6F3C605F7F2C604F7F1C603F7B2
:10216000F0C602F7F3EC08F0F5C6EAFFF4C6E9FFA3
:10217000EEC6EAFFEDC6E9FF00C0EFFF01C0ECFFCD
:1021800002C0ECFF03C0ECFF0601F66BFFC1F5F6E1
:10219000F86B0F0EF76F000134EC0AF001C0EDF69A
:1021A0000B0E06010124016E000E0220036E015089
:1021B000C10FE96E050E0320EA6EEFCFEDF6ECCF0E
:1021C000EEF6ECCFEFF6ECCFF0F6F46BF36B700EAF
:1021D000F26F840EF16FF0C6F8F6EFC6F7F6EEC6B2
:1021E000F6F6EDC6F5F60001E0EC0AF033E2060182
:1021F000F66BFFC1F5F6F86B0F0EF76F000134ECCC
:102200000AF001C0EDF60B0E06010124016E000E6E
:102210000220036E0150C10FE96E050E0320EA6E25
:10222000EFCFEDF6ECCFEEF6ECCFEFF6ECCFF0F62D
:10223000F0C6F4F6EFC6F3F6EEC6F2F6EDC6F1F62A
:10224000F86BF76BC00EF66F820EF56F0001E0ECD5
:102250000AF01FE30601F66BFFC1F5F6F86B0F0EEF
:10226000F76F000134EC0AF001C0EDF60B0E060129
:102270000124016E000E0220036E0150C10FE96EB1
:10228000050E0320EA6E830EEF6E700EEC6EEC6AA4
:10229000EC6A0601F66BFFC1F5F6F86B0F0EF76FEF
:1022A000000134EC0AF001C0EDF6030E0601012432
:1022B000016E000E0220036E0150C10FE96E050E83
:1022C0000320EA6EEFCFEDF6ECCFEEF6ECCFEFF6B3
:1022D000ECCFF0F6F46BF36B460EF26F850EF16FF8
:1022E000F0C6F8F6EFC6F7F6EEC6F6F6EDC6F5F66A
:1022F0000001E0EC0AF01FE30601F66BFFC1F5F602
:10230000F86B0F0EF76F000134EC0AF001C0EDF628
:10231000030E06010124016E000E0220036E01501F
:10232000C10FE96E050E0320EA6E820EEF6E200EDD
:10233000EC6EEC6AEC6A0601F66BFFC1F5F6F86B21
:102340000F0EF76F000134EC0AF001C0EDF6070E36
:1023500006010124016E000E0220036E0150C10F20
:10236000E96E050E0320EA6EEFCFEDF6ECCFEEF648
:10237000ECCFEFF6ECCFF0F6F46BF36B6C0EF26F84
:10238000840EF16FF0C6F8F6EFC6F7F6EEC6F6F675
:10239000EDC6F5F60001E0EC0AF020E30601F66B6D
:1023A000FFC1F5F6F86B0F0EF76F000134EC0AF081
:1023B00001C0EDF6070E06010124016E000E022099
:1023C000036E0150C10FE96E050E0320EA6E820E06
:1023D000EF6E200EEC6EEC6AEC6A00010101FF2B3F
:1023E00046D4000119EF35F00601F46BF36B6C0E67
:1023F000F26F840EF16FE6C1F8F6E5C1F7F6E4C1BD
:10240000F6F6E3C1F5F60001E0EC0AF023E3010182
:10241000E66BE56B200EE46F820EE36FAA6AA96A91
:102420000A0EA86EA69CA69EA684F250006EF29C90
:10243000F29E0F01550EA76EAA0EA76EA682A6B237
:10244000FED7A6940050F212140E0601F66F00019A
:10245000EFEC07F00601F46BF36B460EF26F850E9E
:10246000F16FEAC1F8F6E9C1F7F6E8C1F6F6E7C19F
:10247000F5F60001E0EC0AF024E30101EA6BE96BF8
:10248000200EE86F820EE76FAA6A010EA96E0A0E8F
:10249000A86EA69CA69EA684F250006EF29CF29EA8
:1024A0000F01550EA76EAA0EA76EA682A6B2FED782
:1024B000A6940050F212140E0601F66F0001EFEC24
:1024C00007F0020128BF03D02851090803E328BF01
:1024D00001D01ED0286BAA6A0A0EA96EA86AA69C13
:1024E000A69EA684F250006EF29CF29E0F01550E3D
:1024F000A76EAA0EA76EA682A6B2FED7A69400501B
:10250000F212140E0601F66F0001EFEC07F0020163
:1025100029BF03D02951090803E329BF01D01ED0E8
:10252000296BAA6A0B0EA96EA86AA69CA69EA68411
:10253000F250006EF29CF29E0F01550EA76EAA0E8D
:10254000A76EA682A6B2FED7A6940050F212140E71
:102550000601F66F0001EFEC07F002012ABF03D07D
:102560002A51090803E32ABF01D01ED02A6BAA6AA8
:102570000C0EA96EA86AA69CA69EA684F250006EB8
:10258000F29CF29E0F01550EA76EAA0EA76EA682B0
:10259000A6B2FED7A6940050F212140E0601F66FF2
:1025A0000001EFEC07F002012BBF03D02B5109080B
:1025B00003E32BBF01D01DD02B6BAA6A0D0EA96EB1
:1025C000A86AA69CA69EA684F250006EF29CF29E7B
:1025D0000F01550EA76EAA0EA76EA682A6B2FED751
:1025E000A6940050F212140E0601F66F0001EFECF3
:1025F00007F00601F46BF36B700EF26F840EF16F4F
:102600006FC2F8F66EC2F7F66DC2F6F66CC2F5F65A
:102610000001E0EC0AF013E26FC2F4F66EC2F3F6CA
:102620006DC2F2F66CC2F1F60601F86BF76BC00EE4
:10263000F66F820EF56F0001E0EC0AF040E3020154
:102640006F6B6E6B700E6D6F830E6C6FAA6A500E9F
:10265000A96E1E0EA86EA69CA69EA684F250006EC1
:10266000F29CF29E0F01550EA76EAA0EA76EA682CF
:10267000A6B2FED7A6940050F212140E0601F66F11
:102680000001EFEC07F0AA6A510EA96EA86AA69C99
:10269000A69EA684F250006EF29CF29E0F01550E8B
:1026A000A76EAA0EA76EA682A6B2FED7A694005069
:1026B000F212140E0601F66F0001EFEC07F00601AE
:1026C000F46BF36BF26B810EF16F4BC2F8F64AC2FA
:1026D000F7F649C2F6F648C2F5F60001E0EC0AF05A
:1026E00012E24BC2F4F64AC2F3F649C2F2F648C20D
:1026F000F1F60601F86BF76BF66B7F0EF56F0001D4
:10270000E0EC0AF023E302014B6B4A6B496B800E4D
:10271000486FAA6A1E0EA96E020EA86EA69CA69EFF
:10272000A684F250006EF29CF29E0F01550EA76E29
:10273000AA0EA76EA682A6B2FED7A6940050F212E9
:10274000140E0601F66F0001EFEC07F00101D851FD
:10275000500803E3D851040820E3500ED86FAA6A4A
:102760001F0EA96E500EA86EA69CA69EA684F250BF
:10277000006EF29CF29E0F01550EA76EAA0EA76E78
:10278000A682A6B2FED7A6940050F212140E06013D
:10279000F66F0001EFEC07F00101D951040802E3E4
:1027A000D9531FE1010ED96FAA6A200EA96E010E3E
:1027B000A86EA69CA69EA684F250006EF29CF29E85
:1027C0000F01550EA76EAA0EA76EA682A6B2FED75F
:1027D000A6940050F212140E0601F66F0001EFEC01
:1027E00007F00601F46BF36B200EF26F840EF16FAD
:1027F00033C2F8F632C2F7F631C2F6F630C2F5F659
:102800000001E0EC0AF013E233C2F4F632C2F3F650
:1028100031C2F2F630C2F1F60601F86BF76B200E0A
:10282000F66F810EF56F0001E0EC0AF024E302017F
:10283000336B326B200E316F810E306FAA6A210E1E
:10284000A96E050EA86EA69CA69EA684F250006EE8
:10285000F29CF29E0F01550EA76EAA0EA76EA682DD
:10286000A6B2FED7A6940050F212140E0601F66F1F
:102870000001EFEC07F003011751C8081EE2176BC7
:10288000AA6A150EA96EA86AA69CA69EA684F250F6
:10289000006EF29CF29E0F01550EA76EAA0EA76E57
:1028A000A682A6B2FED7A6940050F2120A0E060126
:1028B000F66F0001EFEC07F003011851C8081DE2A4
:1028C000186BAA6A160EA96EA86AA69CA69EA68474
:1028D000F250006EF29CF29E0F01550EA76EAA0EEA
:1028E000A76EA682A6B2FED7A6940050F2120A0ED8
:1028F0000601F66F0001EFEC07F004017B51C808F8
:102900001EE27B6BAA6A170EA96EA86AA69CA69EF9
:10291000A684F250006EF29CF29E0F01550EA76E37
:10292000AA0EA76EA682A6B2FED7A6940050F212F7
:102930000A0E0601F66F0001EFEC07F004017C516E
:10294000C8081DE27C6BAA6A180EA96EA86AA69C2C
:10295000A69EA684F250006EF29CF29E0F01550EC8
:10296000A76EAA0EA76EA682A6B2FED7A6940050A6
:10297000F2120A0E0601F66F0001EFEC07F00101FA
:10298000D151500803E3D15109081FE3500ED16F14
:10299000AA6A240EA96E500EA86EA69CA69EA684B6
:1029A000F250006EF29CF29E0F01550EA76EAA0E19
:1029B000A76EA682A6B2FED7A6940050F212140EFD
:1029C0000601F66F0001EFEC07F00601F46BF36B04
:1029D000200EF26F810EF16F7FC2F8F67EC2F7F61D
:1029E0007DC2F6F67CC2F5F60001E0EC0AF023E3C6
:1029F00002017F6B7E6B7D6B7F0E7C6FAA6A220E5D
:102A0000A96E0A0EA86EA69CA69EA684F250006E21
:102A1000F29CF29E0F01550EA76EAA0EA76EA6821B
:102A2000A6B2FED7A6940050F212140E0601F66F5D
:102A30000001EFEC07F00101E251140820E20A0E58
:102A4000E26FAA6A4F0EA96E0A0EA86EA69CA69EF9
:102A5000A684F250006EF29CF29E0F01550EA76EF6
:102A6000AA0EA76EA682A6B2FED7A6940050F212B6
:102A7000140E0601F66F0001EFEC07F00101E251C0
:102A800014081BE16FC205F76EC204F76DC203F7AD
:102A90006CC202F70701096B086B800E076F7F0E8F
:102AA000066F000165EC0AF003C06FF202C06EF21F
:102AB00001C06DF200C06CF2010100011BEF35F0A6
:102AC0000601F76BF75107080DE3D890F63302E2E1
:102AD0008C9A01D08C8A959A95988C8895988C9828
:102AE000F72BF0D70001000C959C8C8CF4C6F6F601
:102AF000E7DFF5C6F6F6E4DF959C8C9C000C959C10
:102B00008C8CF1C6F6F6DCDF958A100E006E002E76
:102B1000FED700000601F26BF251070815E3958A13
:102B200083BA02D0D89001D0D880F33395988C889E
:102B3000210E006E002EFED795988C98210E006E07
:102B4000002EFED7F22BE8D7959C8C9CF3C601F0A3
:102B50000001000C959C8C9C210E006E002EFED76F
:102B600095988C988E0E0601F46FF56B0001BCDF12
:102B7000900E0601F46FA40EF56F0001B5DF810E13
:102B80000601F16F0001BBDF01C0EDF60601ED515A
:102B9000800B06E0800EF46FF56B0001A5DF0601E7
:102BA00000011DEF35F00900F55211E0F6CFEDF60A
:102BB000F7CFEEF6F8CFEFF6F5509EA8FED7AD6E44
:102BC000EDC6F6FFEEC6F7FFEFC6F8FFECD7000C38
:102BD0009EA8FED7AD6E000C100E006E002EFED724
:102BE0000000FF0EF5DF100E006E002EFED7000075
:102BF000FF0EEEDF100E006E002EFED70000FF0E5F
:102C0000E7DF100E006E002EFED70000000C06015C
:102C1000F135006E0036FC0E001600C001F0C25007
:102C2000C30B0010C26E010EF66F0001EFEC07F04F
:102C3000C282C2B2FED7C4CFFFF6C3CFFEF60001F8
:102C4000D4EC07F003C0F5F602C0F4F601C0F3F6C9
:102C500000C0F2F6F2C600F0F3C601F0F4C602F0CE
:102C6000F5C603F0000C02013F6B3E6B3D6B3C6B05
:102C70000601F66BEDC6F5F6010EF86F640EF76F00
:102C8000000134EC0AF001C0EFF6080E0601012441
:102C9000016E000E0220036E0150F90F016E020E4C
:102CA000032201C0EFF603C0F0F6EDC6F1F6000115
:102CB000AEDFF0C6EAFFEFC6E9FF00C0EFFF01C0DC
:102CC000ECFF02C0ECFF03C0ECFF0601F66BEDC6A3
:102CD000F5F6010EF86F640EF76F000134EC0AF0A0
:102CE00001C0EFF6080E06010124016E000E02205D
:102CF000036E0150F90F016E020E032201C0EFF6C0
:102D000003C0F0F6F66BEDC6F5F6010EF86F640E33
:102D1000F76F000134EC0AF001C0F1F6080E06016D
:102D20000124016E000E0220036E0150F90FE96EBE
:102D3000020E0320EA6EEFCFF1F6ECCFF2F6ECCF05
:102D4000F3F6ECCFF4F6F66BEDC6F5F6010EF86F80
:102D5000640EF76F000134EC0AF002C0F6F601C011
:102D6000F5F6600E06010124016E010E0220036ECD
:102D70000150F90FE96E020E0320EA6EEFCF00F06A
:102D8000ECCF01F0ECCF02F0ECCF03F0F4C6FAF692
:102D9000F3C6F9F6F2C6F8F6F1C6F7F603C0FEF68A
:102DA00002C0FDF601C0FCF600C0FBF6000103EC1A
:102DB00008F0F0C6EAFFEFC6E9FF00C0EFFF01C070
:102DC000ECFF02C0ECFF03C0ECFF0601F66BEDC6A2
:102DD000F5F6010EF86F640EF76F000134EC0AF09F
:102DE00001C0EFF6080E06010124016E000E02205C
:102DF000036E0150F90F016E020E032201C0EFF6BF
:102E000003C0F0F6F66BEDC6F5F6010EF86F640E32
:102E1000F76F000134EC0AF001C0F1F6080E06016C
:102E20000124016E000E0220036E0150F90FE96EBD
:102E3000020E0320EA6EEFCFF1F6ECCFF2F6ECCF04
:102E4000F3F6ECCFF4F6EACFF6F6E9CFF5F6D89242
:102E5000F4C601F7F3C600F7F2C6FFF6F1C6FEF6B8
:102E6000ABC205F7AAC204F7A9C203F7A8C202F7CA
:102E70000001F3EC08F0F6C6EAFFF5C6E9FF00C072
:102E8000F1F601C0F2F602C0F3F603C0F4F6EACFA1
:102E9000F8F6E9CFF7F6D89203C001F702C000F7C1
:102EA00001C0FFF600C0FEF60701056B046B036B63
:102EB000026B0001F3EC08F0F8C6EAFFF7C6E9FF81
:102EC000F0C6EAFFEFC6E9FF00C0EFFF01C0ECFF6C
:102ED00002C0ECFF03C0ECFF0601F66BEDC6F5F691
:102EE000010EF86F640EF76F000134EC0AF001C0B8
:102EF000EFF60C0E06010124016E000E0220036E97
:102F00000150F90F016E020E032201C0EFF603C05B
:102F1000F0F6F66BEDC6F5F6010EF86F640EF76F7E
:102F2000000134EC0AF002C0F2F601C0F1F6080E1E
:102F300006010124016E000E0220036E0150F90FFC
:102F4000E96E020E0320EA6EEFCF00F0ECCF01F045
:102F5000ECCF02F0ECCF03F0FA6BC00EF96F7F0EEE
:102F6000F86F880EF76F03C0FEF602C0FDF601C0D1
:102F7000FCF600C0FBF6000103EC08F000C0F1F61F
:102F800001C0F2F602C0F3F603C0F4F6EACFF6F69B
:102F9000E9CFF5F6D88203C001F702C000F701C0FF
:102FA000FFF600C0FEF60701056B046B036B7F0E96
:102FB000026F0001F3EC08F0F6C6EAFFF5C6E9FF80
:102FC0000601FA6B800EF96F540EF86F8B0EF76FD7
:102FD00003C0FEF602C0FDF601C0FCF600C0FBF621
:102FE000000103EC08F0F0C6EAFFEFC6E9FF00C0FD
:102FF000EFFF01C0ECFF02C0ECFF03C0ECFF0601D5
:10300000F66BEDC6F5F6010EF86F640EF76F000172
:1030100034EC0AF002C0F0F601C0EFF6140E06011F
:103020000124016E000E0220036E0150F90FE96EBB
:10303000020E0320EA6EEFCFEFF6010EEE5DEF5DBC
:103040001BE01AE3F66BEDC6F5F6010EF86F640EA1
:10305000F76F000134EC0AF001C0EFF6140E060120
:103060000124016E000E0220036E0150F90FE96E7B
:10307000020E0320EA6EEF6AF66BEDC6F5F6010E5E
:10308000F86F640EF76F000134EC0AF002C0F0F63E
:1030900001C0EFF6200E0601EF27000EF023F66BBD
:1030A000EDC6F5F6010EF86F640EF76F000134EC13
:1030B0000AF002C0F2F601C0F1F6140E0601012476
:1030C000016E000E0220036E0150F90FE96E020E30
:1030D0000320EA6EF66BEFCFF5F6F86B040EF76F90
:1030E000000134EC0AF002C003F001500601EF25A4
:1030F000016EF05103220150F90F016E020E0322FE
:1031000001C0EFF603C0F0F6F66BEDC6F5F6010E62
:10311000F86F640EF76F000134EC0AF002C0F2F6AB
:1031200001C0F1F60C0E06010124016E000E022012
:10313000036E0150F90FE96E020E0320EA6EEFCF25
:1031400000F0ECCF01F0ECCF02F0ECCF03F0F0C6D2
:10315000EAFFEFC6E9FF00C0EFFF01C0ECFF02C0CD
:10316000ECFF03C0ECFFF66BEDC6F5F6010EF86F51
:10317000640EF76F000134EC0AF001C0EFF6140E94
:1031800006010124016E000E0220036E0150F90FAA
:10319000E96E020E0320EA6EEF2AF66BEDC6F5F635
:1031A000010EF86F640EF76F000134EC0AF002C0F4
:1031B000F0F601C0EFF6150E06010124016E000EB7
:1031C0000220036E0150F90FE96E020E0320EA6E31
:1031D000EF6AF66BEDC6F5F6010EF86F640EF76F49
:1031E000000134EC0AF002C0F0F601C0EFF6150E53
:1031F00006010124016E000E0220036E0150F90F3A
:10320000E96E020E0320EA6EEE51EF5CD8B08FD06B
:10321000F66BEDC6F5F6010EF86F640EF76F000160
:1032200034EC0AF002C0F0F601C0EFF6200E060101
:10323000EF27000EF023F66BEDC6F5F6010EF86FE2
:10324000640EF76F000134EC0AF002C0F2F601C020
:10325000F1F6150E06010124016E000E0220036E28
:103260000150F90FE96E020E0320EA6EF66BEFCF04
:10327000F5F6F86B040EF76F000134EC0AF002C0AB
:1032800003F001500601EF25016EF05103220150B9
:10329000F90FE96E020E0320EA6EEFCF00F0ECCFDB
:1032A00001F0ECCF02F0ECCF03F0EACFF0F6E9CF7B
:1032B000EFF6D8923FC201F73EC200F73DC2FFF6DB
:1032C0003CC2FEF603C005F702C004F701C003F7D5
:1032D00000C002F70001F3EC08F0F0C6EAFFEFC609
:1032E000E9FF03C03FF202C03EF201C03DF200C060
:1032F0003CF20601F66BEDC6F5F6010EF86F640EB2
:10330000F76F000134EC0AF002C0F0F601C0EFF6EE
:10331000150E06010124016E000E0220036E0150FD
:10332000F90FE96E020E0320EA6EEF2A52D7FF6B07
:10333000EEC6FEF60001D4EC07F03FC2FAF63EC23C
:10334000F9F63DC2F8F63CC2F7F603C0FEF602C03D
:10335000FDF601C0FCF600C0FBF603EC08F003C06C
:103360003FF202C03EF201C03DF200C03CF23FC25B
:1033700005F73EC204F73DC203F73CC202F73FC265
:1033800009F73EC208F73DC207F73CC206F765ECF5
:103390000AF000C0EFF601C0F0F602C0F1F603C07B
:1033A000F2F603C005F702C004F701C003F700C03E
:1033B00002F783C209F782C208F781C207F780C209
:1033C00006F765EC0AF000C0EFF601C0F0F602C0A7
:1033D000F1F603C0F2F63FC205F73EC204F73DC264
:1033E00003F73CC202F787C209F786C208F785C215
:1033F00007F784C206F765EC0AF0D892F2C601F727
:10340000F1C600F7F0C6FFF6EFC6FEF603C005F7FB
:1034100002C004F701C003F700C002F7F3EC08F0A4
:1034200000C0EFF601C0F0F602C0F1F603C0F2F6FC
:10343000D89203C001F702C000F701C0FFF600C038
:10344000FEF68BC205F78AC204F789C203F788C269
:1034500002F7F3EC08F003C043F202C042F201C0ED
:1034600041F200C040F20601F66BEDC6F5F6010E22
:10347000F86F640EF76F000134EC0AF002C0F0F64A
:1034800001C0EFF61E0E06010124016E000E02209F
:10349000036E0150F90FE96E020E0320EA6EFF6B16
:1034A000EFCFFEF60001D4EC07F003C0FAF602C03D
:1034B000F9F601C0F8F600C0F7F60601FE6BFD6BE9
:1034C000200EFC6F820EFB6F000103EC08F000C0C1
:1034D000EFF601C0F0F602C0F1F603C0F2F6060105
:1034E000F66BEDC6F5F6010EF86F640EF76F00018E
:1034F00034EC0AF002C0F4F601C0F3F61F0E060128
:103500000124016E000E0220036E0150F90FE96ED6
:10351000020E0320EA6EFF6BEFCFFEF60001D4EC43
:1035200007F003C0FAF602C0F9F601C0F8F600C0D1
:10353000F7F60601FE6BFD6B200EFC6F820EFB6F33
:10354000000103EC08F0EACFF4F6E9CFF3F6D882F5
:10355000F2C601F7F1C600F7F0C6FFF6EFC6FEF6B9
:1035600003C005F702C004F701C003F700C002F76B
:10357000F3EC08F0F4C6EAFFF3C6E9FFEACFF0F691
:10358000E9CFEFF6D89243C201F742C200F741C239
:10359000FFF640C2FEF603C005F702C004F701C003
:1035A00003F700C002F7F3EC08F0F0C6EAFFEFC63D
:1035B000E9FF03C043F202C042F201C041F200C081
:1035C00040F240C200F041C201F042C202F043C2E8
:1035D00003F0000C8E0E006E0601FE51005EFFC669
:1035E00002F000C701F0028E005209E0D8900252AA
:1035F00002E1015204E002320132002EF7D7FFAFA0
:1036000005D0011E021E012AD8B4022A0001000CB6
:1036100067C201F766C200F765C2FFF664C2FEF634
:10362000D9DF01C0D6F267C201F766C200F765C2F2
:10363000FFF664C2FEF6CEDF0601FF6B01C0FEF6A8
:103640000001D4EC07F0D88267C201F766C200F728
:1036500065C2FFF664C2FEF603C005F702C004F7B8
:1036600001C003F700C002F7F3EC08F000C0EDF66C
:1036700001C0EEF602C0EFF603C0F0F603C005F796
:1036800002C004F701C003F700C002F70701096B8D
:10369000086B200E076F820E066F000165EC0AF0C2
:1036A00003C001F702C000F701C0FFF600C0FEF63C
:1036B00091DF01C0D7F299EF1BF0080E016E050EE5
:1036C000006E002EFED78B969496060E006E002E8E
:1036D000FED70601EE378B98D8B09488D8A094987E
:1036E000948682A6FED7012E01D002D00001E7D732
:1036F000050E006E002EFED78B96949600009488DF
:10370000060E006E002EFED7060E006E002EFED7AF
:10371000948682A6FED7016A060E006E002EFED7A2
:1037200082B801808B9694968B9894980001000C37
:103730006FD70101FF6BFF5101083DE3B00E02019D
:10374000F76F9488050E006E002EFED79486060E45
:10375000006E002EFED78B989498050E006E002EFA
:10376000FED78B969496F7C2EEF60001A6DFFFC156
:10377000EEF6A3DF036A0101FF51D60FE96E020ED8
:103780000320EA6EEFCFEDF6EDC6EEF6000195DF11
:1037900094980000948682A6FED7050E006E002E37
:1037A000FED700D000009488050E006E002EFED7D4
:1037B0000101FF2BC0D700012CEF37F0F2C6F3F662
:1037C0000601F339006E0F0E001600500A0DF3CFFC
:1037D000F2F6F339006EF00E00160050003A0F0EAC
:1037E00000160050F227F2C601F00001000C0201A1
:1037F00006510508D8A4BED035C02AF036C02BF03B
:1038000037C02CF038C02DF039C02EF03AC02FF060
:103810003BC030F03CC031F03DC032F03EC033F030
:103820002D2C09D00101FE6BFE510201075D02E063
:10383000FEC107F29ED02D5002080AE1010E0101DF
:10384000FE6FFE510201075D02E0FEC107F291D05A
:103850002D5004080AE1020E0101FE6FFE51020123
:10386000075D02E0FEC107F284D02D5005080AE191
:10387000030E0101FE6FFE510201075D02E0FEC171
:1038800007F277D02D5006080AE1040E0101FE6F01
:10389000FE510201075D02E0FEC107F26AD02D5021
:1038A00007080AE1060E0101FE6FFE510201075DE5
:1038B00002E0FEC107F25DD02D5008080AE1070EB4
:1038C0000101FE6FFE510201075D02E0FEC107F239
:1038D00050D02D5009080AE1080E0101FE6FFE517B
:1038E0000201075D02E0FEC107F243D02D500F0830
:1038F00001E13FD02D501A080AE1140E0101FE6FBC
:10390000FE510201075D02E0FEC107F232D02D50E8
:103910001B080AE10F0E0101FE6FFE510201075D57
:1039200002E0FEC107F225D02D501C080AE1100E5E
:103930000101FE6FFE510201075D02E0FEC107F2C8
:1039400018D02D502C080AE1640E0101FE6FFE51C3
:103950000201075D02E0FEC107F20BD02D50CC083A
:1039600008E1F00E0101FE6F02010751F00801E0CD
:10397000FF0008D00101DA6BDA51090802E3DA2B03
:10398000FBD70201000190EF37F00900F6CFF6F601
:10399000F7CFF7F6F8CFF8F6F5509EA8FED7AD6E44
:1039A000F6C6F6FFF7C6F7FFF8C6F8FF0601F52FD3
:1039B00001D002D00001E9D70001000C0601F75147
:1039C000016AF65D03E2F6C600F00CD0006A080E4C
:1039D000F86FF6370036F751005CD8B0006E01364C
:1039E000F82FF7D70001000C0150EEC6F6F6640E72
:1039F0000601F76F0001E2DF00C0EEF60150300E65
:103A000008E10601EFA30ED0EFB70CD0EFB9200EFE
:103A100004D00601EF97EF99EF81012601509EA88F
:103A2000FED7AD6EEEC6F6F60A0EF76F0001C6DFE2
:103A300000C0EEF60150300E08E10601EFB70BD0E2
:103A4000EFA109D0EFB9200E0001012601509EA878
:103A5000FED7AD6E0601300EEE27EE519EA8FED7C2
:103A6000AD6E0001000C07010251B608026F036A37
:103A700003C706F7038FD8900333043305330332AB
:103A8000023201320032022FF6D706AF0BD0001EF1
:103A9000011E021E031E002AD8B4012AD8B4022A2D
:103AA000D8B4032A0001C2EF1DF0006A016A026A5D
:103AB000036A07010A6B0B6B0C6B0D6B0951081144
:103AC000071106112CE0200E0E6FD8900237033735
:103AD000043705370A370B370C370D3709510D5DA1
:103AE00008E108510C5D05E107510B5D02E106514B
:103AF0000A5D0FE306510A5F0751D8A0073D0B5F2F
:103B00000851D8A0083D0C5F0951D8A0093D0D5FB0
:103B1000D88000360136023603360E2FD6D7070E70
:103B2000EA6E0A0EE96E0001000CE9500601FA6F18
:103B3000F951FC6F1DE0F8C605F7F7C604F7F6C6A5
:103B400003F7F5C602F70701096B086B200E076F34
:103B5000820E066F000165EC0AF003C0F8F602C0A1
:103B6000F7F601C0F6F600C0F5F60601FC2FE3D724
:103B7000F8C605F7F7C604F7F6C603F7F5C602F769
:103B8000000171D703C0F8F602C0F7F601C0F6F6DF
:103B900000C0F5F60601F8AF0DD0FA07FA8BF51F55
:103BA000F61FF71FF81FF52BD8B4F62BD8B4F72B58
:103BB000D8B4F82B3B0E0701016F9A0E006FCA0EA6
:103BC0000601FF6FFE6B0A0EFC6FF951D8B4FA2B99
:103BD000F8C605F7F7C604F7F6C603F7F5C602F709
:103BE00001C709F700C708F7FFC607F7FEC606F7C3
:103BF00000015BDF0150EFCFF5F6ECCFF6F6ECCF2E
:103C0000F7F6ECCFF8F6005213E10601F929FC5D56
:103C1000D8A402D000010CD0FA510DE00F0BFC5DCE
:103C200001E03CE2FABF3AD0FABD05D0200E31D017
:103C3000200E0601FA17FAAB0DD0FA9BF951D8A461
:103C4000FA070050FA6F2D0E9EA8FED7AD6EFA51FE
:103C5000006EFA6BF951FC5D0BE10050FA6F2E0E0D
:103C60009EA8FED7AD6EFA51006E200EFA17000E18
:103C7000300EFAAB0ED0FA9BF951D8A4FA070050D7
:103C8000FA6F2D0E9EA8FED7AD6EFA51006EFA6B3C
:103C9000300E002600509EA8FED7AD6E01C705F776
:103CA00000C704F7FFC603F7FEC602F70701096B5A
:103CB000086B076B0A0E066F0001F7DE03C001F701
:103CC00002C000F701C0FFF600C0FEF60601FC2F9F
:103CD0007FD70001000C0601F96BF86BF76BF66BF0
:103CE000FD6BFC6BFB6BFA6BF5C601F7F4C600F7D6
:103CF000F3C6FFF6F2C6FEF600016CDC0601FF6BB0
:103D000001C0FEF60001D4EC07F003C0F9F602C0D2
:103D1000F8F601C0F7F600C0F6F6D882F5C601F74E
:103D2000F4C600F7F3C6FFF6F2C6FEF6F9C605F7CD
:103D3000F8C604F7F7C603F7F6C602F7F3EC08F087
:103D400000C0FEF601C0FFF602C000F703C001F795
:103D500003C005F702C004F701C003F700C002F773
:103D60000701096B086B200E076F820E066F0001BA
:103D700065EC0AF003C0FDF602C0FCF601C0FBF6DC
:103D800000C0FAF6FDC601F7FCC600F7FBC6FFF659
:103D9000FAC6FEF61FDC0150000C016A026A006AD6
:103DA000036A0601F15102E1F05118E0100EF26FC2
:103DB000D890EE37EF3700360336F151035C02E15D
:103DC000F051005C07E3F051005ED8A00306F1510A
:103DD000035ED88001360236F22FEAD7000107EFE2
:103DE0001FF00601ED51030B09E1EDC6F6F6640E76
:103DF000F76F0001E3DD005218E10601EF6BEDC63D
:103E0000EEF6010EF16F900EF06F0001C6D700C004
:103E1000EEF6060103C0EFF6EE5305E1EF53D8A42A
:103E200002D0000102D0000E02D0010E0601016E88
:103E30000001000CF3C6F6F60A0E0601F76F00014A
:103E4000BDDD01C0F4F60601F4510A0DF350F35D37
:103E5000F56FF439006EF00E00160050F511016E8A
:103E60000001000CEDC6F3F6E5DF01C0F3F6860EA7
:103E70000601F46F01C0F5F6000174EC15F0EEC612
:103E8000F3F6D8DF01C0F3F6880E0601F46F01C027
:103E9000F5F6000174EC15F0EFC6F3F6CBDF01C0C8
:103EA000F3F68C0E0601F46F01C0F5F6000174EC18
:103EB00015F0F0C6F3F6BEDF01C0F3F68A0E060178
:103EC000F46F01C0F5F6000174EC15F0F1C6F3F6DD
:103ED000B1DF01C0F3F6840E0601F46F01C0F5F600
:103EE000000174EC15F0F2C6F3F6A4DF01C0F3F69E
:103EF000820E0601F46F01C0F5F6000174EC15F0B6
:103F00000601F36B000196DF01C0F3F6800E060197
:103F1000F46F01C0F5F6000174EC15F065EF4DF09B
:103F20000201D0510C0802E20A0ED06FD1511F08D5
:103F300002E2100ED16FCF51630802E2120ECF6F72
:103F4000D251180802E20B0ED26FD3513B0802E2A5
:103F50001E0ED36FD051020815E1CFC2EDF600015D
:103F600040DF015208E00201D1511D0802E21D0E9E
:103F7000D16F07D000010201D1511C0802E21C0ED2
:103F8000D16F15D0D051070809E3D051010B05E1DD
:103F9000D1511E0802E21E0ED16F09D0D051010B83
:103FA000010805E1D1511E0802E21E0ED16F000189
:103FB000B4EF4EF00101CBAD19D0B7C2F4F6B6C2E2
:103FC000F3F6B5C2F2F6B4C2F1F60601F86BF76B80
:103FD000F66BF56B0001E0EC0AF0D8A402D0010109
:103FE00005D0010E0201036F32D00101CBAD1FD00D
:103FF000B7C2F4F6B6C2F3F6B5C2F2F6B4C2F1F641
:104000000601F86BF76BF66BF56B0001E0EC0AF05C
:10401000D8B402D001010BD00101CAAD04D0010E09
:104020000201036F02D00201036B11D00101CBB773
:1040300004D00201036B0BD00101CBA709D0CAAD9C
:1040400004D0010E0201036F02D00201036B0101D3
:104050000001000C0101FC51040DF350036AC10F73
:10406000E96E010E0320EA6E64C2EFFF65C2ECFF49
:1040700066C2ECFF67C2ECFFFC2BFC510108D8B014
:104080002DD1FC6BD882C8C101F7C7C100F7C6C1EA
:10409000FFF6C5C1FEF6C4C105F7C3C104F7C2C12E
:1040A00003F7C1C102F70001F3EC08F003C063F2AB
:1040B00002C062F201C061F200C060F2FAC19FF278
:1040C000F9C19EF2F8C19DF2F7C19CF2F6C1A3F2CC
:1040D000F5C1A2F2F4C1A1F2F3C1A0F29FC205F7AB
:1040E0009EC204F79DC203F79CC202F70701096B49
:1040F000086B610E076F8A0E066F000165EC0AF00F
:1041000000C0EDF601C0EEF602C0EFF603C0F0F617
:10411000A3C205F7A2C204F7A1C203F7A0C202F727
:104120000701096B086B700E076F840E066F0001A4
:1041300065EC0AF0D892F0C601F7EFC600F7EEC6BC
:10414000FFF6EDC6FEF603C005F702C004F701C096
:1041500003F700C002F7F3EC08F000C0EDF601C071
:10416000EEF602C0EFF603C0F0F60FC2FFF60EC285
:10417000FEF6D4EC07F0D892F0C601F7EFC600F7D0
:10418000EEC6FFF6EDC6FEF603C005F702C004F763
:1041900001C003F700C002F7F3EC08F0D88293C225
:1041A00001F792C200F791C2FFF690C2FEF603C07B
:1041B00005F702C004F701C003F700C002F7F3ECF3
:1041C00008F003C097F202C096F201C095F200C059
:1041D00094F2D8826FC201F76EC200F76DC2FFF68B
:1041E0006CC2FEF667C205F766C204F765C203F744
:1041F00064C202F7F3EC08F000C0EDF601C0EEF681
:1042000002C0EFF603C0F0F603C0FAF602C0F9F6FA
:1042100001C0F8F600C0F7F697C2FEF696C2FDF6AA
:1042200095C2FCF694C2FBF603EC08F003C09BF2C7
:1042300002C09AF201C099F200C098F29BC205F741
:104240009AC204F799C203F798C202F70701096BF3
:10425000086B200E076F830E066F000165EC0AF0F5
:1042600000C0EDF601C0EEF602C0EFF603C0F0F6B6
:10427000D88203C001F702C000F701C0FFF600C0FA
:10428000FEF663C205F762C204F761C203F760C2BB
:1042900002F7F3EC08F003C0BBF202C0BAF201C0AF
:1042A000B9F200C0B8F2BBC205F7BAC204F7B9C28E
:1042B00003F7B8C202F70701096B086B200E076FFE
:1042C000810E066F000165EC0AF003C0BBF202C06C
:1042D000BAF201C0B9F200C0B8F201010001000C4D
:1042E0000101CBBD08D0D851D25D04E30001B2DE9C
:1042F0000101D26B07D0D251090804E20001AADE05
:104300000101D26BCBAD5DD3E153D8A42DD1CBBF8E
:104310002AD1C7C505F7C6C504F7C5C503F7C4C587
:1043200002F70701096B086B610E076F8A0E066FB3
:10433000000165EC0AF000C0EDF601C0EEF602C027
:10434000EFF603C0F0F6CBC505F7CAC504F7C9C53B
:1043500003F7C8C502F70701096B086B700E076FFA
:10436000840E066F000165EC0AF0D892F0C601F7E2
:10437000EFC600F7EEC6FFF6EDC6FEF603C005F782
:1043800002C004F701C003F700C002F7F3EC08F025
:1043900003C093F202C092F201C091F200C090F209
:1043A000CFC56FF2CEC56EF2CDC56DF2CCC56CF245
:1043B000D8826FC201F76EC200F76DC2FFF66CC201
:1043C000FEF68FC205F78EC204F78DC203F78CC2CA
:1043D00002F7F3EC08F000C0EDF601C0EEF602C003
:1043E000EFF603C0F0F603C0FAF602C0F9F601C01A
:1043F000F8F600C0F7F693C2FEF692C2FDF691C23F
:10440000FCF690C2FBF603EC08F003C0B7F202C062
:10441000B6F201C0B5F200C0B4F2C7C5EAF1C6C534
:10442000E9F1C5C5E8F1C4C5E7F1CBC5E6F1CAC5F8
:10443000E5F1C9C5E4F1C8C5E3F10101CB8F0A0E6E
:104440000601F66F0001EFEC07F06FC2F4F66EC2E2
:10445000F3F66DC2F2F66CC2F1F667C2F8F666C208
:10446000F7F665C2F6F664C2F5F6E0EC0AF030E362
:10447000010E0101D56F6FC2FAF66EC2F9F66DC278
:10448000F8F66CC2F7F60601FE6BFD6B320EFC6FA0
:10449000840EFB6F000103EC08F04FC205F74EC21B
:1044A00004F74DC203F74CC202F703C009F702C07C
:1044B00008F701C007F700C006F765EC0AF003C073
:1044C0004BF202C04AF201C049F200C048F24AD0A1
:1044D0000101D56B6FC2FAF66EC2F9F66DC2F8F63D
:1044E0006CC2F7F60601FE6BFD6B320EFC6F840E9C
:1044F000FB6F000103EC08F04FC205F74EC204F752
:104500004DC203F74CC202F703C009F702C008F717
:1045100001C007F700C006F765EC0AF003C04BF2D4
:1045200002C04AF201C049F200C048F23D0E070144
:10453000056F0A0E046F570E036F7C0E026F6FC279
:1045400009F76EC208F76DC207F76CC206F70001E3
:1045500065EC0AF003C027F202C026F201C025F282
:1045600000C024F201012DD2CBBF2BD20601F66B85
:10457000E1C1F5F6F86B0F0EF76F000134EC0AF0AD
:1045800001C0EDF6030E06010124016E000E0220AB
:10459000036E0150C10FE96E050E0320EA6EEFCFE6
:1045A000EDF6ECCFEEF6ECCFEFF6ECCFF0F6F0C692
:1045B00005F7EFC604F7EEC603F7EDC602F70701ED
:1045C000096B086B610E076F8A0E066F000165ECC0
:1045D0000AF000C0EDF601C0EEF602C0EFF603C02F
:1045E000F0F60601F66BE1C1F5F6F86B0F0EF76F0A
:1045F000000134EC0AF001C0F1F6070E06010124B7
:10460000016E000E0220036E0150C10FE96E050E0F
:104610000320EA6EEFCFF1F6ECCFF2F6ECCFF3F633
:10462000ECCFF4F6F4C605F7F3C604F7F2C603F7C9
:10463000F1C602F70701096B086B700E076F840E55
:10464000066F000165EC0AF0EACFF2F6E9CFF1F669
:10465000D892F0C601F7EFC600F7EEC6FFF6EDC63A
:10466000FEF603C005F702C004F701C003F700C05F
:1046700002F7F3EC08F0F2C6EAFFF1C6E9FF03C067
:1046800093F202C092F201C091F200C090F20601D2
:10469000F66BE1C1F5F6F86B0F0EF76F000134EC25
:1046A0000AF002C0EEF601C0EDF60B0E0601012481
:1046B000016E000E0220036E0150C10FE96E050E5F
:1046C0000320EA6EEFCF00F0ECCF01F0ECCF02F068
:1046D000ECCF03F003C06FF202C06EF201C06DF2C6
:1046E00000C06CF2F66BE1C1F5F6F86B0F0EF76FD8
:1046F000000134EC0AF001C0EDF60B0E06010124B6
:10470000016E000E0220036E0150C10FE96E050E0E
:104710000320EA6EEFCFEDF6ECCFEEF6ECCFEFF63E
:10472000ECCFF0F6010E0101E15D0601F26FF66BD0
:10473000F56FF86B0F0EF76F000134EC0AF002C052
:10474000F2F601C0F1F60B0E06010124016E000E17
:104750000220036E0150C10FE96E050E0320EA6EC0
:10476000EFCF00F0ECCF01F0ECCF02F0ECCF03F094
:10477000EACFF2F6E9CFF1F6D882F0C601F7EFC63C
:1047800000F7EEC6FFF6EDC6FEF603C005F702C061
:1047900004F701C003F700C002F70001F3EC08F0D2
:1047A000F2C6EAFFF1C6E9FF00C0EDF601C0EEF681
:1047B00002C0EFF603C0F0F603C0FAF602C0F9F645
:1047C00001C0F8F600C0F7F693C2FEF692C2FDF6FD
:1047D00091C2FCF690C2FBF603EC08F003C0B7F2FE
:1047E00002C0B6F201C0B5F200C0B4F20601F66B29
:1047F000E1C1F5F6F86B0F0EF76F000134EC0AF02B
:1048000002C0EEF601C0EDF6030E06010124016EB2
:10481000000E0220036E0150C10FE96E050E032049
:10482000EA6EEFCF00F0ECCF01F0ECCF02F0ECCF6E
:1048300003F003C0EAF102C0E9F101C0E8F100C0F1
:10484000E7F1F66BE1C1F5F6F86B0F0EF76F0001BB
:1048500034EC0AF002C0EEF601C0EDF6070E0601D8
:104860000124016E000E0220036E0150C10FE96E9B
:10487000050E0320EA6EEFCF00F0ECCF01F0ECCF95
:1048800002F0ECCF03F003C0E6F102C0E5F101C095
:10489000E4F100C0E3F10101CB8F0A0E0601F66FCF
:1048A0000001EFEC07F06FC2F4F66EC2F3F66DC2D2
:1048B000F2F66CC2F1F667C2F8F666C2F7F665C2A8
:1048C000F6F664C2F5F6E0EC0AF030E3010E010101
:1048D000D56F6FC2FAF66EC2F9F66DC2F8F66CC209
:1048E000F7F60601FE6BFD6B320EFC6F840EFB6F5C
:1048F000000103EC08F04FC205F74EC204F74DC2A9
:1049000003F74CC202F703C009F702C008F701C061
:1049100007F700C006F765EC0AF003C04BF202C0CF
:104920004AF201C049F200C048F24AD00101D56BF9
:104930006FC2FAF66EC2F9F66DC2F8F66CC2F7F6FF
:104940000601FE6BFD6B320EFC6F840EFB6F0001E7
:1049500003EC08F04FC205F74EC204F74DC203F74F
:104960004CC202F703C009F702C008F701C007F7FD
:1049700000C006F765EC0AF003C04BF202C04AF231
:1049800001C049F200C048F23D0E0701056F0A0E52
:10499000046F570E036F7C0E026F6FC209F76EC271
:1049A00008F76DC207F76CC206F7000165EC0AF064
:1049B00003C027F202C026F201C025F200C024F293
:1049C0000101B7C2F4F6B6C2F3F6B5C2F2F6B4C24C
:1049D000F1F60601F86BF76BF66BF56B0001E0EC96
:1049E0000AF0D8B41DD20101CBBD02D0000118D20B
:1049F000FAC105F7F9C104F7F8C103F7F7C102F7E7
:104A00000701096B086B610E076F8A0E066F0001C4
:104A100065EC0AF000C0EDF601C0EEF602C0EFF65C
:104A200003C0F0F6F6C105F7F5C104F7F4C103F7CA
:104A3000F3C102F70701096B086B700E076F840E54
:104A4000066F000165EC0AF0D892F0C601F7EFC6D8
:104A500000F7EEC6FFF6EDC6FEF603C005F702C08E
:104A600004F701C003F700C002F7F3EC08F000C040
:104A7000EDF601C0EEF602C0EFF603C0F0F60FC28D
:104A8000FFF60EC2FEF6D4EC07F0D892F0C601F79E
:104A9000EFC600F7EEC6FFF6EDC6FEF603C005F75B
:104AA00002C004F701C003F700C002F7F3EC08F0FE
:104AB00003C0A7F202C0A6F201C0A5F200C0A4F292
:104AC0000101E15338E1B7C205F7B6C204F7B5C238
:104AD00003F7B4C202F7A7C209F7A6C208F7A5C236
:104AE00007F7A4C206F7000165EC0AF000C0EDF676
:104AF00001C0EEF602C0EFF603C0F0F6D89203C094
:104B000001F702C000F701C0FFF600C0FEF68FC239
:104B100005F78EC204F78DC203F78CC202F7F3ECDF
:104B200008F003C0BFF202C0BEF201C0BDF200C077
:104B3000BCF266D00101B7C205F7B6C204F7B5C230
:104B400003F7B4C202F7A7C209F7A6C208F7A5C2C5
:104B500007F7A4C206F7000165EC0AF000C0EDF605
:104B600001C0EEF602C0EFF603C0F0F6010E01013F
:104B7000E15D0601F26FF66BF56FF86B0F0EF76FE4
:104B8000000134EC0AF002C0F2F601C0F1F60B0E9F
:104B900006010124016E000E0220036E0150C10FB8
:104BA000E96E050E0320EA6EEFCF00F0ECCF01F0C6
:104BB000ECCF02F0ECCF03F0EACFF2F6E9CFF1F65A
:104BC000D892F0C601F7EFC600F7EEC6FFF6EDC6C5
:104BD000FEF603C005F702C004F701C003F700C0EA
:104BE00002F70001F3EC08F0F2C6EAFFF1C6E9FFB4
:104BF00003C0BFF202C0BEF201C0BDF200C0BCF2F1
:104C0000D882BFC201F7BEC200F7BDC2FFF6BCC268
:104C1000FEF667C205F766C204F765C203F764C211
:104C200002F7F3EC08F000C0EDF601C0EEF602C0AA
:104C3000EFF603C0F0F603C005F702C004F701C0A9
:104C400003F700C002F70701096B086B480E076FF6
:104C5000850E066F000165EC0AF000C0EDF601C09C
:104C6000EEF602C0EFF603C0F0F603C0FAF602C09B
:104C7000F9F601C0F8F600C0F7F6C3C2FEF6C2C2EC
:104C8000FDF6C1C2FCF6C0C2FBF603EC08F003C09F
:104C9000B3F202C0B2F201C0B1F200C0B0F2B7C2CA
:104CA000F4F6B6C2F3F6B5C2F2F6B4C2F1F60601F6
:104CB000F86BF76BF66BF56B0001E0EC0AF001E3C3
:104CC000ADD00601F46BF36B480EF26F850EF16FF9
:104CD000B3C2F8F6B2C2F7F6B1C2F6F6B0C2F5F654
:104CE0000001E0EC0AF007E30201B36BB26B480E7F
:104CF000B16F850EB06FB3C2F4F6B2C2F3F6B1C2B3
:104D0000F2F6B0C2F1F60601F86BF76BF66BF56BD5
:104D10000001E0EC0AF006E30201B36BB26BB16B89
:104D2000B06B0001B3C205F7B2C204F7B1C203F71A
:104D3000B0C202F733C209F732C208F731C207F72F
:104D400030C206F765EC0AF000C0EDF601C0EEF6E1
:104D500002C0EFF603C0F0F603C0FAF602C0F9F69F
:104D600001C0F8F600C0F7F60601FE6BFD6B480EB9
:104D7000FC6F850EFB6F000103EC08F003C037F2F7
:104D800002C036F201C035F200C034F237C2FAF682
:104D900036C2F9F635C2F8F634C2F7F60A0E060145
:104DA000FE6FD70EFD6F230EFC6F770EFB6F0001B9
:104DB00003EC08F003C001F702C000F701C0FFF6E2
:104DC00000C0FEF6EAEC1AF002C015F201C014F2BF
:104DD00033C2FAF632C2F9F631C2F8F630C2F7F64B
:104DE0000A0E0601FE6FD70EFD6F230EFC6F770EC5
:104DF000FB6F000103EC08F003C001F702C000F7ED
:104E000001C0FFF600C0FEF6EAEC1AF002C017F28D
:104E100001C016F2010E0101D66F0001B6EF2CF0B1
:104E20000101D52DF4D00201536B526B516B7F0EF3
:104E3000506F0101D66BD8826FC201F76EC200F7C6
:104E40006DC2FFF66CC2FEF653C205F752C204F7FC
:104E500051C203F750C202F70001F3EC08F000C0A2
:104E6000EDF601C0EEF602C0EFF603C0F0F6D88210
:104E700003C001F702C000F701C0FFF600C0FEF654
:104E800067C205F766C204F765C203F764C202F79A
:104E9000F3EC08F003C03BF202C03AF201C039F271
:104EA00000C038F27BC2F4F67AC2F3F679C2F2F6A9
:104EB00078C2F1F60601F86BF76B800EF66F7F0E85
:104EC000F56F0001E0EC0AF001E204E10101CB839F
:104ED00003D000010101CB9302011B5129080AE212
:104EE000FF0A03E11A512F0805E20101CB850201F7
:104EF0001B6B1A6B0101CBA53BD08C8695968C84DD
:104F00009594020119531DE11851B3081AE37BC2AD
:104F1000F4F67AC2F3F679C2F2F678C2F1F6060137
:104F2000F86BF76B0C0EF66F840EF56F0001E0EC7A
:104F30000AF003E38D82969202D08D92969216D05B
:104F40000201195303E11851B30808E2195306E1AD
:104F50001851F00803E38D92969207D00101CB958A
:104F60000201196B186B8D92969200014CD00101D1
:104F70008C9495948D9296920601F46BF36BF26B80
:104F8000F16B3BC2F8F63AC2F7F639C2F6F638C210
:104F9000F5F60001E0EC0AF001E203E18C8695965B
:104FA00032D038C200F039C201F03AC202F03BC23E
:104FB00003F0019E38C2EDF601C0EEF63AC2EFF6FC
:104FC0003BC2F0F67FC2F4F67EC2F3F67DC2F2F683
:104FD0007CC2F1F63BC2F8F63AC2F7F601C0F6F62B
:104FE00038C2F5F6E0EC0AF00CE302011D5303E1D0
:104FF0001C51EF0804E28C9695961D6B1C6B04D037
:1050000000018C8695960201B6EF2CF001018C947C
:1050100095948C8695968D9296920201536B526B65
:10502000516B7E0E506FD89253C201F752C200F7F7
:1050300051C2FFF650C2FEF66FC205F76EC204F70A
:105040006DC203F76CC202F70001F3EC08F000C078
:10505000EDF601C0EEF602C0EFF603C0F0F6D8821E
:1050600003C001F702C000F701C0FFF600C0FEF662
:1050700067C205F766C204F765C203F764C202F7A8
:10508000F3EC08F003C03BF202C03AF201C039F27F
:1050900000C038F20601F46BF36B700EF26F820EF3
:1050A000F16F3BC2F8F63AC2F7F639C2F6F638C2EB
:1050B000F5F60001E0EC0AF002E2D8A4F5D03BC21C
:1050C000F4F63AC2F3F639C2F2F638C2F1F6060146
:1050D000F86BF76B700EF66F840EF56F0001E0EC65
:1050E0000AF0D8A0E1D063C2F4F662C2F3F661C25E
:1050F000F2F660C2F1F60601F86BF76BF66B7E0E06
:10510000F56F0001E0EC0AF002E2D8A4CDD0D8900F
:105110000101D83502011E6F1F6BD8B01F2B010192
:10512000CC9BCC9D0A0ED76F23C2F4F622C2F3F6B5
:1051300021C2F2F620C2F1F60601F86BF76B480EB9
:10514000F66F840EF56F0001E0EC0AF0D8A0AAD04B
:105150000101D8510201015DD8A0A5D0016B63C245
:10516000F4F662C2F3F661C2F2F660C2F1F606012D
:10517000F86BF76B800EF66F7E0EF56F0001E0ECBA
:105180000AF025E3010E0101D9250601FF6BFE6F30
:105190000001D4EC07F0D8924BC201F74AC200F7E5
:1051A00049C2FFF648C2FEF603C005F702C004F785
:1051B00001C003F700C002F7F3EC08F003C04BF2A4
:1051C00002C04AF201C049F200C048F26BD063C28B
:1051D000F4F662C2F3F661C2F2F660C2F1F6CD0EE9
:1051E0000601F86FCC0EF76FF66F7B0EF56F0001BE
:1051F000E0EC0AF023E30601FF6BD9C1FEF60001E3
:10520000D4EC07F0D8924BC201F74AC200F749C26A
:10521000FFF648C2FEF603C005F702C004F701C05E
:1052200003F700C002F7F3EC08F003C04BF202C032
:105230004AF201C049F200C048F234D00601FF6BC7
:10524000D9C1FEF60001D4EC07F0D88203C001F703
:1052500002C000F701C0FFF600C0FEF60701056BB3
:10526000046B036B7E0E026F0001F3EC08F0D89222
:105270004BC201F74AC200F749C2FFF648C2FEF628
:1052800003C005F702C004F701C003F700C002F72E
:10529000F3EC08F003C04BF202C04AF201C049F23D
:1052A00000C048F2020118D20601F46BF36B400E05
:1052B000F26F810EF16F3BC2F8F63AC2F7F639C2CF
:1052C000F6F638C2F5F60001E0EC0AF002E2D8A4E6
:1052D000F8D03BC2F4F63AC2F3F639C2F2F638C25D
:1052E000F1F60601F86BF76B700EF66F820EF56F34
:1052F0000001E0EC0AF0D8A0E4D063C2F4F662C288
:10530000F3F661C2F2F660C2F1F69A0E0601F86F8A
:10531000990EF76F190EF66F7D0EF56F0001E0EC38
:105320000AF002E2D8A4CDD0D8900101D83502010C
:105330001E6F1F6BD8B01F2B0101CC9BCC9D0A0E9A
:10534000D76F23C2F4F622C2F3F621C2F2F620C2CE
:10535000F1F60601F86BF76B200EF66F840EF56F11
:105360000001E0EC0AF0D8A0AAD00101D851020156
:10537000015DD8A0A5D0016B63C2F4F662C2F3F65A
:1053800061C2F2F660C2F1F60601F86BF76B800EAF
:10539000F66F7E0EF56F0001E0EC0AF025E3010EDA
:1053A0000101D9250601FF6BFE6F0001D4EC07F067
:1053B000D8924BC201F74AC200F749C2FFF648C271
:1053C000FEF603C005F702C004F701C003F700C0F2
:1053D00002F7F3EC08F003C04BF202C04AF201C03E
:1053E00049F200C048F26BD063C2F4F662C2F3F631
:1053F00061C2F2F660C2F1F6CD0E0601F86FCC0E76
:10540000F76FF66F7B0EF56F0001E0EC0AF023E317
:105410000601FF6BD9C1FEF60001D4EC07F0D8926B
:105420004BC201F74AC200F749C2FFF648C2FEF676
:1054300003C005F702C004F701C003F700C002F77C
:10544000F3EC08F003C04BF202C04AF201C049F28B
:1054500000C048F234D00601FF6BD9C1FEF600014E
:10546000D4EC07F0D88203C001F702C000F701C0F6
:10547000FFF600C0FEF60701056B046B036B7E0EA2
:10548000026F0001F3EC08F0D8924BC201F74AC258
:1054900000F749C2FFF648C2FEF603C005F702C096
:1054A00004F701C003F700C002F7F3EC08F003C0F3
:1054B0004BF202C04AF201C049F200C048F20201B8
:1054C0000BD1330E0601F46FF36FF26F7E0EF16FA6
:1054D0003BC2F8F63AC2F7F639C2F6F638C2F5F62C
:1054E0000001E0EC0AF002E2D8A4F5D03BC2F4F6E9
:1054F0003AC2F3F639C2F2F638C2F1F60601F86B99
:10550000F76B400EF66F810EF56F0001E0EC0AF0CC
:10551000D8A0E1D063C2F4F662C2F3F661C2F2F63B
:1055200060C2F1F6CD0E0601F86FCC0EF76F4C0E8F
:10553000F66F7C0EF56F0001E0EC0AF002E2D8A4F1
:10554000CAD0D8900101D83502011E6F1F6BD8B0A8
:105550001F2B0101CC9BCC9D0A0ED76F23C2F4F602
:1055600022C2F3F621C2F2F620C2F1F60601F86B70
:10557000F76B700EF66F830EF56F0001E0EC0AF02A
:10558000D8A0A9D00101D8510201015DD8A0A4D0B2
:10559000016B63C2F4F662C2F3F661C2F2F660C256
:1055A000F1F60601F86BF76B800EF66F7E0EF56F65
:1055B0000001E0EC0AF025E3010E0101D925060106
:1055C000FF6BFE6F0001D4EC07F0D8924BC201F7DD
:1055D0004AC200F749C2FFF648C2FEF603C005F70B
:1055E00002C004F701C003F700C002F7F3EC08F0B3
:1055F00003C04BF202C04AF201C049F200C048F2B7
:105600006AD063C2F4F662C2F3F661C2F2F660C217
:10561000F1F6CD0E0601F86FCC0EF76FF66F7B0E2C
:10562000F56F0001E0EC0AF023E30601FF6BD9C13E
:10563000FEF60001D4EC07F0D8924BC201F74AC243
:1056400000F749C2FFF648C2FEF603C005F702C0E4
:1056500004F701C003F700C002F7F3EC08F003C041
:105660004BF202C04AF201C049F200C048F233D006
:105670000601FF6BD9C1FEF60001D4EC07F003C0B0
:1056800005F702C004F701C003F700C002F70701E5
:10569000096B086B076B7E0E066F000165EC0AF064
:1056A000D8924BC201F74AC200F749C2FFF648C27E
:1056B000FEF603C005F702C004F701C003F700C0FF
:1056C00002F7F3EC08F003C04BF202C04AF201C04B
:1056D00049F200C048F202014BC2F4F64AC2F3F6A6
:1056E00049C2F2F648C2F1F6CD0E0601F86FCC0EB3
:1056F000F76F4C0EF66F7B0EF56F0001E0EC0AF0D1
:105700000AE3CD0E02014B6FCC0E4A6F4C0E496F6F
:105710007B0E486F000127C2F4F626C2F3F625C2BD
:10572000F2F624C2F1F64BC2F8F64AC2F7F649C2C5
:10573000F6F648C2F5F6E0EC0AF008E327C24BF2B1
:1057400026C24AF225C249F224C248F23BC2F4F60C
:105750003AC2F3F639C2F2F638C2F1F60601F86B36
:10576000F76BF66BF56B0001E0EC0AF007E3020162
:10577000476B466B456B446B1BD000013BC205F782
:105780003AC204F739C203F738C202F74BC209F72D
:105790004AC208F749C207F748C206F765EC0AF0A3
:1057A00003C047F202C046F201C045F200C044F215
:1057B0006FC2F4F66EC2F3F66DC2F2F66CC2F1F689
:1057C00047C2F8F646C2F7F645C2F6F644C2F5F609
:1057D0000001E0EC0AF008E36FC247F26EC246F245
:1057E0006DC245F26CC244F247C2F4F646C2F3F60B
:1057F00045C2F2F644C2F1F60601F86BF76BF66BA0
:10580000F56B0001E0EC0AF006E30201476B466B22
:10581000456B446B000147C2FAF646C2F9F645C231
:10582000F8F644C2F7F66FC2FEF66EC2FDF66DC220
:10583000FCF66CC2FBF603EC08F000C0EDF601C00C
:10584000EEF602C0EFF603C0F0F603C005F702C0A3
:1058500004F701C003F700C002F733C209F732C2F0
:1058600008F731C207F730C206F765EC0AF003C04B
:1058700037F202C036F201C035F200C034F237C24E
:10588000F4F636C2F3F635C2F2F634C2F1F606018A
:10589000F86BF76BF66BF56B0001E0EC0AF006E3D2
:1058A0000201376B366B356B346B000133C2F4F693
:1058B00032C2F3F631C2F2F630C2F1F637C2F8F670
:1058C00036C2F7F635C2F6F634C2F5F6E0EC0AF069
:1058D00005E30201376B366B356B346B37C2FAF672
:1058E00036C2F9F635C2F8F634C2F7F60A0E0601EA
:1058F000FE6FD70EFD6F230EFC6F770EFB6F00015E
:1059000003EC08F003C001F702C000F701C0FFF686
:1059100000C0FEF6EAEC1AF002C015F201C014F263
:1059200033C2FAF632C2F9F631C2F8F630C2F7F6EF
:105930000A0E0601FE6FD70EFD6F230EFC6F770E69
:10594000FB6F000103EC08F003C001F702C000F791
:1059500001C0FFF600C0FEF6EAEC1AF002C017F232
:1059600001C016F2010E0101D66F02010001000C08
:105970000101D52D74D1D8926FC201F76EC200F724
:105980006DC2FFF66CC2FEF6CD0E0701056FCC0EA0
:10599000046F0C0E036F7F0E026F0001F3EC08F032
:1059A00067C2F4F666C2F3F665C2F2F664C2F1F6B7
:1059B00003C0F8F602C0F7F601C0F6F600C0F5F62F
:1059C000E0EC0AF001E26AE1D8826FC201F76EC230
:1059D00000F76DC2FFF66CC2FEF6CD0E0701056F33
:1059E000CC0E046F0C0E036F7F0E026F0001F3EC00
:1059F00008F003C0F4F602C0F3F601C0F2F600C0EE
:105A0000F1F667C2F8F666C2F7F665C2F6F664C24A
:105A1000F5F6E0EC0AF001E241E1B7C2F4F6B6C2F5
:105A2000F3F6B5C2F2F6B4C2F1F60601F86BF76B05
:105A3000F66BF56B0001E0EC0AF00CE0AA0EF66ED6
:105A4000010EF76E000EF86ED3EC15F0ECEC15F0CD
:105A50000101CA8DB7C2F4F6B6C2F3F6B5C2F2F6CA
:105A6000B4C2F1F60601F86BF76BF66BF56B00014B
:105A7000E0EC0AF00DE1C40EF66E010EF76E000EBA
:105A8000F86ED3EC15F0ECEC15F00101CA8D0001B5
:105A900070EC21F00101FB95E1D00001D8826FC2CA
:105AA00001F76EC200F76DC2FFF66CC2FEF6CD0EB6
:105AB0000701056FCC0E046F0C0E036F7F0E026F93
:105AC0000001F3EC08F067C2F4F666C2F3F665C2B3
:105AD000F2F664C2F1F603C0F8F602C0F7F601C0B0
