:0400000053EF1BF0AF
:08000800046ED8CF05F0E0CF33
:1000100006F00001E9CF0CF0EACF07F0E1CF08F0DD
:10002000E2CF09F0D9CF0AF0DACF0BF0F3CF12F01C
:10003000F4CF13F0FACF14F000C00EF001C00FF0AF
:1000400002C010F003C011F09DA02AEF00F09EB096
:100050005AEF06F00EC000F00FC001F010C002F021
:1000600011C003F00CC0E9FF07C0EAFF078E08C00B
:10007000E1FF09C0E2FF0AC0D9FF0BC0DAFF12C0DE
:10008000F3FF13C0F4FF14C0FAFF045006C0E0FFF2
:1000900005C0D8FF1000F2CF0DF0F29EF76AB00F46
:1000A000F66E000EF7220900F5500DBEF28E12001A
:1000B000000000000000005F0000000300030014C7
:1000C0003E143E14242A7F2A1243330866613649BF
:1000D0005522500005030000001C2241000041226F
:1000E0001C0014083E081408083E080800503000A0
:1000F00000080808080800606000002010080402DA
:100100003E5149453E0004027F004261514946226A
:10011000414949361814127F1027454545393E4953
:100120004949320101710907364949493626494989
:10013000493E0036360000005636000008142241C1
:100140000014141414140041221408020151090669
:100150003E4159555E7E0909097E7F494949363E2F
:10016000414141227F4141413E7F494949417F0907
:100170000909013E4141493A7F0808087F00417F53
:100180004100304040403F7F081422417F404040C2
:10019000407F020C027F7F0204087F3E4141413EC6
:1001A0007F090909061E2121215E7F0909097600C0
:1001B000F2CF0DF0F29EF76ACA0FF66E010EF7222B
:1001C0000900F5500DBEF28E120026494949320150
:1001D000017F01013F4040403F1F2040201F7F2002
:1001E00010207F41221C22410708700807615149F5
:1001F0004543007F41000002040810200000417FB9
:10020000000402010204404040404000010204009A
:1002100020545454787F4444443838444444443847
:100220004444447F385454541804047E050508544B
:1002300054543C7F0804047800447D40002040442E
:100240003D007F1028440000417F40007C0478047A
:10025000787C0804047838444444387C1414140826
:10026000081414147C007C080404485454542004DA
:10027000043F44443C4040207C1C2040201C3C4027
:1002800030403C44281028440C5050503C446454A6
:100290004C44000836414100007F000041413608CF
:1002A000000201020402F2CF0DF0F29EBE0FF66EC4
:1002B000020EF7220900F5500DBEF28E120000006A
:1002C0000000000000000000001FFFFFFFFE000014
:1002D0000000000000000000001FFFFFFFFE01C043
:1002E0000000000000000000001C0000000E07F0ED
:1002F0000000000000000000001C0000000E1C9C1C
:100300000000000000000000001C7F00000E180C20
:100310000000000000000000001C4100000E3086BC
:100320000000000000000000001C4100000E2082C0
:100330000000000000000000001C4102000E60836D
:100340000000000000000000001C7F05000E708708
:100350000000000000000000001C0002000E60C34E
:100360000000000000000000001C0000000E2062E1
:100370000000000000000000001C0000000E3026FD
:100380000000000000000000001FFFFFFFFE180C2F
:100390000000000000000000001C0000000E1C9C7B
:1003A0000000000000000000001C0000000E07F02C
:1003B0000000000000000000001C0000000E01C052
:1003C0000000000000000000001C0000000E000003
:1003D0000000000000000000001C0000000E0000F3
:1003E0000000000000000000001C0000000E0000E3
:1003F0000000000000000000001C0000000E0000D3
:100400000000000000000000001C0000000E0000C2
:100410000000000000000000001C001E000E000094
:100420000000000000000000001C00E1C00E000001
:100430000000000000000000001C0180600E0000B1
:100440000000000000000000001C0278100E0000F8
:100450000000000000000000001C067C180E0000D8
:100460000000000000000000001C047C080E0000DA
:100470000000000000000000001C083C040E00000A
:100480000000000000000000001C0810040E0180A5
:100490000000000000000000001C080CE40E0240F8
:1004A0000000000000000000001C082DF40E027087
:1004B0000000000000000000001C0863F40E024071
:1004C0000000000000000000001C08F1E40E03C062
:1004D0000000000000000000001C04F0080E03F003
:1004E0000000000000000000001C04F0080E03C023
:1004F0000000000000000000001C0270100E03C08D
:100500000000000000000000001C0300300E07E0A7
:100510000000000000000000001C00C0C00E0FF032
:100520000000000000000000001C007F800E0BF0A7
:100530000000000000000000001C0000000E0BF096
:100540000000000000000000001C0000000E0FF082
:100550000000000000000000001C0000000E0FF072
:100560000000000000000000001C0000000E07E07A
:100570000000000000000000001C0000000E03C08E
:100580000000000000000000001C0000000E000041
:100590000000000000000000001C0000000E000031
:1005A0000000000000000000001C0000000E000021
:1005B0000000000000000000001C0000000E000011
:1005C0000000000000000000001C0000000E000001
:1005D0000000000000000000001C0000000E0000F1
:1005E0000000000000000000001C0000000E0000E1
:1005F0000000000000000000001C0000000E0000D1
:100600000000000000000000001FFFFFFFFE0000D0
:100610000000000000000000001FFFFFFFFE0000C0
:100620000000000000000000001FFFFFFFFE0000B0
:1006300000000000000000000000000000000000BA
:1006400000000000000000000000000000000000AA
:10065000000000000000000000000000000000009A
:10066000000000000000000000000000000000008A
:10067000000000000000000000000000000000007A
:10068000000000000000000000000000000000006A
:10069000000000000000000000000000000000005A
:1006A000000000000000000000000000000000004A
:1006B0000000000000000000000000000000F2CF79
:1006C0000DF0F29EF76AD80FF66E060EF7220900BB
:1006D000F5500DBEF28E12004300F2CF0DF0F29EE7
:1006E000F76AF40FF66E060EF7220900F5500DBEFC
:1006F000F28E12004A5020496E676C6F62616C0086
:10070000F2CF0DF0F29EF76A1A0FF66E070EF7227F
:100710000900F5500DBEF28E120020202020496EF7
:1007200063756261646F72610000F2CF0DF0F29E3A
:10073000F76A440FF66E070EF7220900F5500DBE5A
:10074000F28E120020202020526566726967657261
:1007500061646100F2CF0DF0F29EF76A6E0FF66EE3
:10076000070EF7220900F5500DBEF28E1200202070
:1007700020313135204C74730000F2CF0DF0F29E21
:10078000F76A940FF66E070EF7220900F5500DBEBA
:10079000F28E120043617267616E646F2E2E00004C
:1007A000F2CF0DF0F29EF76ABA0FF66E070EF7223F
:1007B0000900F5500DBEF28E1200436C61766500A3
:1007C000F2CF0DF0F29EF76ADA0FF66E070EF722FF
:1007D0000900F5500DBEF28E1200436F7272656310
:1007E00074610000F2CF0DF0F29EF76AFE0FF66E14
:1007F000070EF7220900F5500DBEF28E1200496E69
:10080000636F7272656374610000F2CF0DF0F29E47
:10081000F76A240FF66E080EF7220900F5500DBE98
:10082000F28E12004D656E750000F2CF0DF0F29E53
:10083000F76A440FF66E080EF7220900F5500DBE58
:10084000F28E1200496E69636961722050726F63A3
:1008500065736F00F2CF0DF0F29EF76A6E0FF66EC1
:10086000080EF7220900F5500DBEF28E12005365F6
:100870006C656363696F6E2054656D706572617439
:1008800075726100F2CF0DF0F29EF76A9E0FF66E60
:10089000080EF7220900F5500DBEF28E12005465C5
:1008A0006D706F72697A61646F720000F2CF0DF043
:1008B000F29EF76AC60FF66E080EF7220900F55091
:1008C0000DBEF28E120043616D62696F20436C6150
:1008D00076650000F2CF0DF0F29EF76AEE0FF66E2D
:1008E000080EF7220900F5500DBEF28E1200536576
:1008F0006C656363696F6E650000F2CF0DF0F29E68
:10090000F76A140FF66E090EF7220900F5500DBEB6
:10091000F28E120054656D706572617475726100BB
:10092000F2CF0DF0F29EF76A3A0FF66E090EF7223B
:100930000900F5500DBEF28E120054656D7065729F
:100940006174757261203100F2CF0DF0F29EF76A8A
:10095000620FF66E090EF7220900F5500DBEF28EF9
:10096000120054656D706572617475726120320099
:10097000F2CF0DF0F29EF76A8A0FF66E090EF7229B
:100980000900F5500DBEF28E120054656D7065724F
:100990006174757261203300F2CF0DF0F29EF76A38
:1009A000B20FF66E090EF7220900F5500DBEF28E59
:1009B000120054656D706F72697A6100F2CF0DF0AC
:1009C000F29EF76AD60FF66E090EF7220900F5506F
:1009D0000DBEF28E12003A00F2CF0DF0F29EF76AD1
:1009E000F20FF66E090EF7220900F5500DBEF28ED9
:1009F0001200436C617665204E7565766100F2CF1A
:100A00000DF0F29EF76A180FF66E0A0EF722090033
:100A1000F5500DBEF28E12005374617475733A4333
:100A20006F6E74726F6C616E646F0000F2CF0DF0C8
:100A3000F29EF76A460FF66E0A0EF7220900F5508D
:100A40000DBEF28E12005374617475733A456E6672
:100A50007269616E646F0000F2CF0DF0F29EF76A6A
:100A6000720FF66E0A0EF7220900F5500DBEF28ED7
:100A700012005374617475733A43616C656E7461EE
:100A80006E646F00F2CF0DF0F29EF76A9E0FF66E65
:100A90000A0EF7220900F5500DBEF28E12005374B3
:100AA000617475733A50756572746120416269654D
:100AB00072746100F2CF0DF0F29EF76ACE0FF66EFF
:100AC0000A0EF7220900F5500DBEF28E1200537483
:100AD000617475733A416C61726D61203031000050
:100AE000F2CF0DF0F29EF76AFA0FF66E0A0EF722B9
:100AF0000900F5500DBEF28E12002D2D2D2D2D006A
:100B0000F2CF0DF0F29EF76A1A0FF66E0B0EF72277
:100B10000900F5500DBEF28E120054656D703A005A
:100B2000F2CF0DF0F29EF76A3A0FF66E0B0EF72237
:100B30000900F5500DBEF28E12002500F2CF0DF027
:100B4000F29EF76A560FF66E0B0EF7220900F5506B
:100B50000DBEF28E120056656C3A0000F2CF0DF019
:100B6000F29EF76A760FF66E0B0EF7220900F5502B
:100B70000DBEF28E120054696D653A00F2CF0DF091
:100B8000F29EF76A960FF66E0B0EF7220900F550EB
:100B90000DBEF28E120028483A4D2900F2CF0DF01A
:100BA000F29EF76AB60FF66E0B0EF7220900F550AB
:100BB0000DBEF28E120047616E616E6369610000C6
:100BC000F2CF0DF0F29EF76ADA0FF66E0B0EF722F7
:100BD0000900F5500DBEF28E1200546369636C6F0C
:100BE0000000F2CF0DF0F29EF76AFC0FF66E0B0ECE
:100BF000F7220900F5500DBEF28E1200416A75739E
:100C00007465202B0000F2CF0DF0F29EF76A200FE2
:100C1000F66E0C0EF7220900F5500DBEF28E120092
:100C2000416A75737465202D0000F2CF0DF0F29EBD
:100C3000F76A440FF66E0C0EF7220900F5500DBE50
:100C4000F28E12004D65646961204D6F76696C000B
:100C5000F2CF0DF0F29EF76A6A0FF66E0C0EF722D5
:100C60000900F5500DBEF28E1200416A757374656D
:100C70000000F2CF0DF0F29EF76A8C0FF66E0C0EAC
:100C8000F7220900F5500DBEF28E1200416A75730D
:100C900074656E00F2CF0DF0F29EF76AAE0FF66E3D
:100CA0000C0EF7220900F5500DBEF28E12004D65B4
:100CB00064696100150ECF6EA00ECE6E0501A12BEA
:100CC000D8B4A22BA32BD8B4A42BA52BD8B4A62B75
:100CD000A45303E1A351C70802E2010E906F922DC5
:100CE00015D0A651AE5D07E303E1AD51A55D03E26A
:100CF0008B8C949C02D08B9C949CB051A65D06E397
:100D000003E1AF51A55D02E3A66BA56BA25303E11E
:100D1000A151C70815E2A26BA16B8785962B9B2B6F
:100D20008D2B94A303D0AB2BD8B4AC2B9D2D03D02B
:100D3000A72BD8B4A82B87AF03D0A92BD8B4AA2B44
:100D40009E9000012AEF00F0060EEA6E530EE96E47
:100D5000EF500EE00F0E016E006A002EFED7012E3E
:100D6000FBD78F0E006E002EFED70000EF2EF2D7BD
:100D7000000C06014D5301E1BB6A4D2D02D0800EDF
:100D8000BB6E4D51020802E1B40EBB6E4D5103081B
:100D900002E1FF0EBB6E0001000C8E0E006E54C609
:100DA00001F053C602F0036A015209E102C001F0EA
:100DB000026A080E005E015202E1006A08D0D89073
:100DC00001BE04D0023601360006F9D7019E000CA0
:100DD00006014E51D8B4A5D05A6F5251D8B4A1D003
:100DE0005A5F05E37F0E5A27D8B09BD006D0810EFC
:100DF0005A5FD8A096D0D8B494D05AC600F0016AF1
:100E0000026A036A596B4FC658F6588F50C657F698
:100E100051C656F6190E5A6F5551565F0DE2010E26
:100E2000575F0AE2585F08E2595F06E2592B582BD8
:100E3000572B5551562728D05451575F12E2010EB7
:100E4000585F0FE2595F0DE2592B582B5451572729
:100E50005551562719E3572B17E1582B15E1592BFC
:100E600013D053518009585F0EE2010E595F0BE217
:100E7000592B53518009582754515727E9E3582BD0
:100E8000E7E1592BE5D703805A2F01D00BD0D8903A
:100E90005637573758375937D89003360236013608
:100EA0005B37BAD75BA106D0D89001320232033249
:100EB0005B3302D0000635E05BBF1ED0D8905637BA
:100EC0005737583759375551565F07E2010E575F6C
:100ED00004E2585F02E2595F1AE35451575F05E29A
:100EE000010E585F02E2595F12E353518009585FC7
:100EF00003E2010E595F0BE3032A09E1022A07E12D
:100F0000012A05E1002A0DE00132023203324FC608
:100F10005AF653515A1B5AAF02D0018E06D0019E89
:100F200004D0006A016A026A036A0001000C800EA4
:100F3000D8A202D00601571B06015C6B5D6B53C63D
:100F40005BF657515B1B5251D8B4DFD05A6F006E1D
:100F50005651D8B4E3D05A5FD8B483D03EE357C6D5
:100F600060F6608F58C65FF659C65EF65D6BD89026
:100F700060335F335E335D335A2FF8D75BAF03D0F6
:100F80005C81E0D05C915A915C89060EEA6E550E48
:100F9000E96EEBD05C995BBF0AD05AA113D06033E5
:100FA0005F335E335D33002AD8B4C7D00BD060BF47
:100FB0000CD0D8905D375E375F3760370006D8B405
:100FC000BCD0F5D75C8D6DD05C9D53C65BF653AF3E
:100FD00002D0608FABD0609FA9D056C65AF656C6D5
:100FE00000F052515A5F53C660F6608F54C65FF6E8
:100FF00055C65EF65D6BD89060335F335E335D330C
:101000005A2FF8D75BAF03D05C839CD05C935A9186
:101010005C8B060EEA6E590EE96EA7D05C9B5BBF37
:101020000AD05AA113D060335F335E335D33002A98
:10103000D8B483D00BD060BF0CD0D8905D375E376A
:101040005F3760370006D8B478D0F5D75C8F29D0E9
:101050005C9F57C65BF657AF02D0608F67D0609F2A
:1010600065D057C660F6608F58C65FF659C65EF603
:101070005BAF04D0609F5C8565D05C955D6B5A91D9
:10108000060EEA6E550EE96E70D05BBF1CD053C6DB
:101090005BF65AA106D060335F335E335D33002ABE
:1010A0004CE05DAF0BD05E2B09E15F2B07E1602BBD
:1010B00005E160335F335E33002A3FE05CBD84D7D7
:1010C0005CBFC6D71CD0800E601B60AF04D03AD086
:1010D00057C65BF60AD053C65BF6605306E15F5312
:1010E00004E15E5302E1006A21D060BF08D0D890CD
:1010F0005D375E375F376037002EF7D71ED05BAFA6
:1011000002D0608F13D0609F11D056C600F057C632
:1011100060F658C65FF659C65EF608D052C600F0B3
:1011200053C660F654C65FF655C65EF660C601F05B
:101130005FC602F05EC603F034D0006A016A026A3C
:10114000036A2FD05D6B5E1F5F1F601F5D1F5D2BED
:1011500005E15E2B03E15F2B01E1602B5CB112D74F
:101160005CB354D75CB589D7B3D7EF505E2705E39E
:101170005F2B03E1602BD8B45A81ED52EF505F270B
:1011800003E3602BD8B45A81ED52EF50EFBE01D08B
:10119000800A6027D8B05A815CB9FCD65CBB3ED7C8
:1011A00074D70001000C4EC655F606015251551B6E
:1011B00055AF05D0D894D8904EBFD8802FD04EC60A
:1011C00055F651C656F64D51565F06E055AF26D03E
:1011D000D850010AD86E22D052C656F64E51565FEC
:1011E00006E055AF1BD0D850010AD86E17D053C6B1
:1011F00056F64F51565F06E055AF10D0D850010A51
:10120000D86E0CD054C656F65051565F06E055AF16
:1012100005D0D850010AD86E01D0D8900001000C3A
:101220000601675303E093928A8202D093908A80EA
:1012300093988A98956A68C68CFF100E006E002EEF
:10124000FED7000093968A86530E006E002EFED7BE
:1012500093968A9693908A9093928A920001000CBA
:101260000601516B160E506F020E536F160E526F21
:101270004E51FF0DF3CF4FF6556B546B555101088E
:101280001AE351C603F05051502BD8B4512BE96EDC
:1012900003C0EAFF4FC6EFFF53C603F05251522B73
:1012A000D8B4532BE96E03C0EAFF4FC6EFFF542BAF
:1012B000D8B4552BE3D70001000C0601636B160E62
:1012C000626F020E656F160E646F606B60510708E7
:1012D0004EE3939A8A9A676B400E686F0001A0DF15
:1012E000010E0601676F400E686F000199DF06016D
:1012F0006051B809666F676B686F000191DF060186
:101300006051B809666F010E676F66C668F6000126
:1013100087DF939A8A8A0601616B61513F0825E352
:1013200063C603F06251622BD8B4632BE96E03C02D
:10133000EAFFEFCF66F6676B66C668F6000170DFFE
:10134000060165C603F06451642BD8B4652BE96EC1
:1013500003C0EAFFEFCF66F6010E676F66C668F658
:1013600000015EDF0601612BD8D7602BAFD70001EB
:10137000000C93948A8493968A9693908A90939281
:101380008A92939A8A9A0601676BC00E686F000171
:1013900047DF010E0601676FC00E686F000140DF76
:1013A0000601676B400E686F00013ADF010E06010F
:1013B000676F400E686F000133DF0601676BB80E80
:1013C000686F00012DDF010E0601676FB80E686FB0
:1013D000000126DF06014D2D0ED0676B3F0E686FB2
:1013E00000011EDF010E0601676F3F0E686F0001EE
:1013F00017DF0DD00601676B3E0E686F000110DF2E
:10140000010E0601676F3E0E686F000109DF0601DD
:101410004E6B000125DF51DF000C0601846B7F312C
:10142000836F833383331F0E831783378437833768
:1014300084378337843783378437833784378337D8
:101440008437C00E83177E518327000E84237E517C
:101450003F080DE2160E8325856F020E8421866FEC
:10146000400E855D816F000E8659826F06D0160E84
:101470008325816F000E8421826F805315E082C620
:1014800003F081C6E9FF82C6EAFF7F51070B856F33
:10149000010E006E8551016E04E0D8900036012ED9
:1014A000FCD70050EF1215D082C603F081C6E9FFC9
:1014B00082C6EAFF7F51070B856F010E006E8551D2
:1014C000016E04E0D8900036012EFCD70050FF0AD0
:1014D000EF160001000C65C603F0060164C6E9FFC3
:1014E00065C6EAFFEF52D8B4D0D065C603F064C633
:1014F000E9FF65C6EAFFEF50520827E365C603F02F
:1015000064C6E9FF65C6EAFF200EEF5C050DF350E7
:10151000036A716F060EEA6E6C0EE96E756B71C62A
:1015200074F6F2CF72F6F29E050E016EF76A7151F3
:1015300000014BEC00F00A000900F5CFEEFF012E90
:10154000FBD7060172BFF28E35D065C603F064C6C4
:10155000E9FF65C6EAFFEF507E0827E365C603F0A2
:1015600064C6E9FF65C6EAFF530EEF5C050DF35054
:10157000036A716F060EEA6E6C0EE96E756B71C6CA
:1015800074F6F2CF72F6F29E050E016EF76A715193
:101590000001D8EC00F00A000900F5CFEEFF012EA3
:1015A000FBD7060172BFF28E05D06C6B6D6B6E6B54
:1015B0006F6B706B65C603F06451E96E03C0EAFFA0
:1015C000EF500A0A000103E0070A09E00BD0060108
:1015D0006651070DF350010F632750D0000106013B
:1015E000626B4CD006016651050DF35062257F08F1
:1015F00006E2626B6651070DF350010F6327686BBB
:10160000685104083BE3696B6951060833E3036AD8
:1016100068516C0FE96E060E0320EA6EEFCF71F68B
:1016200071C600F06951016E04E0D8900032012EBD
:10163000FCD700A01DD06A6B66516A5D19E26B6B26
:1016400066516B5D13E26B516225716F69516603E0
:10165000F35063256A25726F71C67EF67F6F67C689
:1016600080F60001DADE06016B2BEAD76A2BE4D79D
:10167000692BCAD7682B66516227C2D7642BD8B4AE
:10168000652B622B000127D706010001000C010E1B
:101690000601776F786F7D6B6E51705D7E6F7E5146
:1016A0007EAF03D0000ED8807E55036A756F03C0ED
:1016B00076F66F51715D7E6F7E517EAF03D0000E66
:1016C000D8807E55036A736F03C074F66E51705DE7
:1016D00002E2FF0E776F6F51715D02E2FF0E786FCD
:1016E0007451765D3BE303E17351755D37E3D89048
:1016F000733774377551735D006E7651745900C03D
:1017000079F67A6F7551795D7B6F76517A597C6F76
:10171000765303E17D51755D20E36EC67EF66FC69C
:101720007FF672C680F6000178DE06017ABF01D02E
:1017300008D07351792774517A2377516E256E6FD3
:101740000AD07B5179277C517A2377516E256E6FB1
:1017500078516F256F6F7D2BDBD736D0D8907537DA
:1017600076377351755D006E7451765900C079F605
:101770007A6F7351795D7B6F74517A597C6F7453B2
:1017800003E17D51735D20E36EC67EF66FC67FF682
:1017900072C680F6000141DE06017ABF01D008D092
:1017A0007551792776517A2378516F256F6F0AD05A
:1017B0007B5179277C517A2377516E256E6F785152
:1017C0006F256F6F7D2BDBD70001000C0601665380
:1017D0002EE06451625D05E262C669F664C66AF68F
:1017E00004D064C669F662C66AF66551635D05E2B7
:1017F00063C66BF665C66CF604D065C66BF663C649
:101800006CF669516A5D12E36BC668F668516C5DEF
:101810000BE369C67EF668C67FF667C680F60001F0
:10182000FCDD0601682BF2D7692BEBD72ED062C600
:101830006EF663C66FF664C670F663C671F667C669
:1018400072F6000124DF62C66EF665C66FF664C6E6
:1018500070F665C671F667C672F619DF62C66EF677
:1018600063C66FF662C670F665C671F667C672F635
:101870000EDF64C66EF663C66FF664C670F665C6A4
:1018800071F667C672F603DF06010001000C06015F
:101890004DC601F04EC603F04DC653F64EC654F683
:1018A000060EEA6E2D0EE96E4EC6E2FF4DC6E1FF52
:1018B000E752E6CFEEFFFCE15151020814E1010EC0
:1018C0004F25536F010E5025546F53C662F6636F58
:1018D000060E656F2D0E646F52C666F6010E676FB9
:1018E0000001F9DD0601512D25D05251080DF350AC
:1018F0005025536F626B50C663F67F0E646F53C6FC
:1019000065F6010E666F676F000160DF010E06016C
:101910004F25536F010E5025546F53C662F6636F07
:10192000060E656F2D0E646F52C666F6676B00017A
:10193000D2DD0601515325E15251080DF3505025D7
:10194000536F626B50C663F67F0E646F53C665F6C5
:10195000010E666F676B000139DF010E06014F252E
:10196000536F010E5025546F53C662F6636F060E17
:10197000656F2D0E646F52C666F6010E676F00012B
:10198000AADD00019ADC000C06016351016A625D68
:1019900003E262C600F00CD0006A080E646F623782
:1019A00000366351005CD8B0006E0136642FF7D763
:1019B0000001000C4CC6EAFF4BC6E9FF06016DC6EC
:1019C000EFFFE92AD8B4EA2AEF6A4B2BD8B44C2BA4
:1019D0000001000C200E06015DA9300E5E6F5CC692
:1019E00000F05CAF07D0001E002A00C05CF62D0E90
:1019F0005E6F5D8F01505CC662F6640E636F00011E
:101A0000C3DF00C05CF6300E012406015F6F5CC6C8
:101A100062F60A0E636F0001B7DF300E0024060184
:101A2000616F300E0124606F5EC600F05DA702D0CA
:101A30005DAF5D955DB90BD05DAF22D05DB520D0B7
:101A400000C05FF65DB31CD000C060F619D0300E48
:101A50005F5D16E100C05FF6200E5E6F5DA704D0EB
:101A60005D955D835DAF5D93300E605D09E100C003
:101A700060F6200E5F6F5DA7F7D75D935DAF5D9158
:101A80005DA505D05EC66DF6000194DF06015DA37D
:101A900005D05FC66DF600018DDF06015DA104D0A3
:101AA00060C66DF6000186DF61C66DF6000182DF5B
:101AB00065EF0DF0060E06014C6F530E4B6F4FC6CF
:101AC0005CF61F0E5D6F000185D70601522D27D0F1
:101AD000120E50255C6F180E51255D6F50C662F6D0
:101AE00051C663F65CC664F6656F010E666F676F7C
:101AF00000016CDE020E060150255C6F010E5125BF
:101B00005D6F5CC662F6636F060E656F530E646FA1
:101B1000020E666F676B0001DEDC26D00601120E36
:101B200050255C6F180E51255D6F50C662F651C688
:101B300063F65CC664F6656F666B676B000146DE34
:101B4000020E060150255C6F010E51255D6F5CC6CB
:101B500062F6636F060E656F530E646F020E666F5A
:101B6000010E676F0001B7DC000C06014E35006EF8
:101B70000036FC0E001600C001F0C250C30B00106E
:101B8000C26E010E536F0001A4EC06F0C282C2B215
:101B9000FED7C4CF54F6C3CF53F60001CDEC06F008
:101BA00003C052F602C051F601C050F600C04FF615
:101BB0004FC600F050C601F051C602F052C603F005
:101BC00077EF0EF006016D51D8B471D0006E7151EF
:101BD000D8B46DD0002604E3810E002668E204D05C
:101BE0007F0E005E64E363E06EC675F67251751B8E
:101BF0006E8F728F70517403F4CF77F66F51730349
:101C0000F4CF03F0F3CF76F67403F3507727F45054
:101C10007623000E032270517303F3507727F4509C
:101C20007623000E026A032202226E517403F350DF
:101C30007627F4500322000E02226E517303F350F4
:101C40000326F4500222000E016A01227051720331
:101C5000F3507627F4500322000E022201226F5126
:101C60007203F3500326F4500222000E01226E513B
:101C70007203F3500226F4500122002A01BE05D05F
:101C800076370336023601360006000E76AF0AD0EC
:101C9000032A02220122015005E1025003E1035010
:101CA00001E1002A75BF018E75AF019E04D0006A64
:101CB000016A026A036A0001000C060151515303D4
:101CC000F3CF01F0F4CF00F05403F350002652514B
:101CD0005303F3500020026E0001000C0501E86B75
:101CE000E76BE66BE56B06014E6B00013ED703C068
:101CF000D0F502C0CFF501C0CEF500C0CDF5B80ECD
:101D00000601706F400E6F6F020E6E6F7C0E6D6F6E
:101D1000D0C574F6CFC573F6CEC572F6CDC571F6D3
:101D2000000150DF00C04EF601C04FF602C050F671
:101D300003C051F6D88203C055F602C054F601C064
:101D400053F600C052F6190E0601596F040E586F73
:101D5000480E576F830E566F000197EC07F003C0D3
:101D6000ECF502C0EBF501C0EAF500C0E9F5010EA3
:101D700006014D5D0501895D02E001E3896B060105
:101D8000526B89C551F6546B040E536F000195DFF9
:101D90000150160FE96E040E0220EA6EE9C5EFFF4E
:101DA000EAC5ECFFEBC5ECFFECC5ECFF0501892BA8
:101DB000886B06014D510501885D3FE20601526BBB
:101DC00088C551F6546B040E536F000176DF02C0D4
:101DD00003F00150160FE96E040E0220EA6EEFCFF9
:101DE00000F0ECCF01F0ECCF02F0ECCF03F0EACF43
:101DF0004FF6E9CF4EF6D892E8C555F6E7C554F64A
:101E0000E6C553F6E5C552F603C059F602C058F6CA
:101E100001C057F600C056F697EC07F04FC6EAFF30
:101E20004EC6E9FF03C0E8F502C0E7F501C0E6F5DC
:101E300000C0E5F50501882BBCD70601546B4DC6E3
:101E400053F60001CDEC06F0E8C551F6E7C550F6B3
:101E5000E6C54FF6E5C54EF603C055F602C054F68A
:101E600001C053F600C052F6E8EC06F003C0E8F5F6
:101E700002C0E7F501C0E6F500C0E5F5E5C500F0F4
:101E8000E6C501F0E7C502F0E8C503F0000C928A50
:101E900080AA06D0050186B902D086818689000114
:101EA000928A80BA06D0050186A902D086818699D9
:101EB0000001968084A006D0050186BB02D08683EF
:101EC000868B0001968084B006D0050186AB02D0D7
:101ED0008683869B0001968284A206D0050186BD7A
:101EE00002D08685868D0001968284B206D00501D7
:101EF00086AD02D08685869D0001968484A406D096
:101F0000050186BF02D08687868F0001968484B43F
:101F100005D0050186AF02D08687869F0001000CA0
:101F2000006A016A06016B51D8906CB1002600323C
:101F300001326CB30026003201326CB5002600324B
:101F400001326CB70026003201326CB90026003233
:101F500001326CBB0026003201326CBD002600321B
:101F600001326CBF0026003201320001000C060174
:101F7000676B64C668F6010ED8806455696F655357
:101F800065E06751625D6A6F685163256B6F6751E9
:101F900062256C6F685163256D6F6AC66EF66BC6FD
:101FA0006FF66CC670F6716F66C672F6000147EC8C
:101FB0000BF006016751625D6A6F6851635D6B6F7C
:101FC000675162256C6F6851635D6D6F6AC66EF60E
:101FD0006BC66FF66CC670F6716F66C672F600015E
:101FE00047EC0BF006016851625D6A6F675163252B
:101FF0006B6F685162256C6F675163256D6F6AC6A0
:102000006EF66BC66FF66CC670F6716F66C672F6CA
:10201000000147EC0BF006016851625D6A6F675181
:10202000635D6B6F685162256C6F6751635D6D6FA7
:102030006AC66EF66BC66FF66CC670F6716F66C6D2
:1020400072F6000147EC0BF078D00601625167256B
:102050006A6F635168256B6F6AC67EF67F6F66C6CE
:1020600080F600010DEC0AF00601625168256A6FE6
:10207000635167256B6F6AC67EF67F6F66C680F612
:1020800000010DEC0AF006016751625D6A6F635151
:1020900068256B6F6AC67EF67F6F66C680F60001A4
:1020A0000DEC0AF006016851625D6A6F63516725A5
:1020B0006B6F6AC67EF67F6F66C680F600010DEC18
:1020C0000AF00601625168256A6F6751635D6B6FA4
:1020D0006AC67EF67F6F66C680F600010DEC0AF0D8
:1020E0000601625167256A6F6851635D6B6F6AC64E
:1020F0007EF67F6F66C680F600010DEC0AF00601E1
:102100006751625D6A6F6851635D6B6F6AC67EF688
:102110007F6F66C680F600010DEC0AF0060168517B
:10212000625D6A6F6751635D6B6F6AC67EF67F6F33
:1021300066C680F600010DEC0AF0060169BF01D009
:102140000ED06751672B6A6F020E6B6F6AC66CF612
:102150000001E6DE0150030F0601692711D0675127
:10216000672B6A6F685168076A5D6A6F020E6B6F52
:102170006AC66CF60001D4DE0150050F060169271E
:102180006751800A006E6851800A005CD8B4F7D6A7
:10219000D8A0F5D60001000C8E0E006E06014D5140
:1021A000005E4EC602F04FC601F0028E005209E0FA
:1021B000D890025202E1015204E002320132002EB4
:1021C000F7D74EAF05D0011E021E012AD8B4022A4D
:1021D0000001000CEACF66F6E9CF65F606015F392B
:1021E000F009616F6127E20F626F320F646F5F5118
:1021F0000F0B622762276427E90F636F632763274A
:102200005E390F0B6327642763376437641F6437B5
:102210005E510F0B64276137070E606F0A0E63076C
:102220006427FDE362076327FDE361076227FDE39F
:1022300060076127FDE3060EEA6E600EE96E070E89
:102240006515659DE926640EE95CD8B4658DEF508F
:10225000006E08E165BD06D065B916D065B702D03D
:10226000200E03D065876599300E0026EACF5FF611
:10227000E9CF5EF600C06DF60001DAEC0CF05FC647
:10228000EAFF5EC6E9FF0601EE5065ADDCD700014E
:10229000000C0601535102083AE1060E4C6F550E30
:1022A0004B6F0A0EE96E50C65FF64FC65EF6000130
:1022B00091DF06015451120DF35051255E6F5451B8
:1022C000080DF35052255F6F51C662F652C663F691
:1022D0005EC664F6656F010E666F676F0001E6EC1F
:1022E0000BF0010E060151255E6F010E52255F6F46
:1022F0005EC662F6636F060E656F550E646F54C658
:1023000066F6676B00016BEC0AF09AD00601060EC8
:102310004C6F550E4B6F0A0EE96E50C65FF64FC6F6
:102320005EF6000157DF0601535104082DE15451B8
:10233000100DF35051255E6F5451080DF350522586
:102340005F6F51C662F652C663F65EC664F6656F8D
:10235000010E666F676B0001E6EC0BF0010E0601E3
:1023600051255E6F010E52255F6F5EC662F6636F88
:10237000060E656F550E646F54C666F6010E676FE4
:1023800000016BEC0AF00601532D2CD05451050DC1
:10239000F35051255E6F5451080DF35052255F6F75
:1023A00051C662F652C663F65EC664F6656F010EEC
:1023B000666F676F0001E6EC0BF0010E0601512518
:1023C0005E6F010E52255F6F5EC662F6636F060E8A
:1023D000656F550E646F54C666F6676B00016BEC53
:1023E0000AF0060153532DE15451050DF3505125C8
:1023F0005E6F5451080DF35052255F6F51C662F65F
:1024000052C663F65EC664F6656F010E666F676B53
:102410000001E6EC0BF0010E060151255E6F010E86
:1024200052255F6F5EC662F6636F060E656F550ECE
:10243000646F54C666F6010E676F00016BEC0AF01C
:10244000060100015DEC09F0000C06016D51B608B3
:102450006D6F036A6EC671F66E8FD8906E336F33F0
:10246000703303320232013200326D2FF6D771AF72
:102470000BD0001E011E021E031E002AD8B4012A22
:10248000D8B4022AD8B4032A0001B3EF12F0006ACC
:10249000016A026A036A0601756B766B776B786B6B
:1024A00074517311721171112CE0200E796FD89054
:1024B0006D376E376F3770377537763777377837D0
:1024C0007451785D08E17351775D05E17251765D75
:1024D00002E17151755D0FE37151755F7251D8A0C2
:1024E000723D765F7351D8A0733D775F7451D8A069
:1024F000743D785FD8800036013602360336792F76
:10250000D6D7060EEA6E750EE96E0001000CE95092
:102510000601656F6451676F1CE063C670F662C6A2
:102520006FF661C66EF660C66DF6746B736B200E47
:10253000726F820E716F0001E2EC0DF003C063F662
:1025400002C062F601C061F600C060F60601672FA6
:10255000E4D763C670F662C66FF661C66EF660C6F3
:102560006DF6000172D703C063F602C062F601C0C7
:1025700061F600C060F6060163AF0DD06507658B9C
:10258000601F611F621F631F602BD8B4612BD8B41A
:10259000622BD8B4632B3B0E6C6F9A0E6B6FCA0E16
:1025A0006A6F696B0A0E676F6451D8B4652B63C696
:1025B00070F662C66FF661C66EF660C66DF66CC6E2
:1025C00074F66BC673F66AC672F669C671F60001D8
:1025D0005EDF0150EFCF60F6ECCF61F6ECCF62F634
:1025E000ECCF63F6005213E106016429675DD8A4BD
:1025F00002D000010CD065510DE00F0B675D01E0CA
:1026000044E265BF42D065BD05D0200E37D0200E14
:102610000601651765AB0FD0659B6451D8A46507AB
:102620000050656F2D0E6D6F0001DAEC0CF00601A5
:102630006551006E656B6451675D0DE10050656F1B
:102640002E0E6D6F0001DAEC0CF006016551006E84
:10265000200E6517000E300E65AB10D0659B6451DF
:10266000D8A465070050656F2D0E6D6F0001DAEC80
:102670000CF006016551006E656B300E002600C03F
:102680006DF60001DAEC0CF006016CC670F66BC654
:102690006FF66AC66EF669C66DF6746B736B726B15
:1026A0000A0E716F0001F3DE03C06CF602C06BF618
:1026B00001C06AF600C069F60601672F78D70001ED
:1026C000000C0601552D9CD0060E4C6F570E4B6F1B
:1026D000420EE96E52C663F651C662F650C661F606
:1026E0004FC660F6010E646F000111DF020E060195
:1026F000545D606F5651080DF3505425616F626B45
:1027000060C663F67F0E646F61C665F6010E666F84
:10271000676F0001E6EC0BF006014DC601F04EC6F6
:1027200003F04DC660F64EC661F6060EEA6E2D0E3B
:10273000E96E4EC6E2FF4DC6E1FFE752E6CFEEFF7F
:10274000FCE15A0E5325606F010E5425616F60C67F
:1027500062F6636F060E656F570E646F56C666F6B7
:10276000676B00016BEC0AF0010E06015325606FE8
:10277000010E5425616F60C662F6636F060E656FC9
:102780002D0E646F56C666F6676B00016BEC0AF09F
:10279000060EEA6E2D0EE96EF2CF60F6F29E000E86
:1027A0005FEC03F00A000900F550EE6E0009FBE152
:1027B000060160BFF28E780E5325606F010E54251E
:1027C000616F60C662F6636F060E656F2D0E646FF3
:1027D00056C666F6676B00016BEC0AF0730E0601D5
:1027E0005325606F010E545D616F60C662F6636FC2
:1027F000010E646F656B666B0001B7EC0FF00601AC
:102800005553D8A49ED0060E4C6F570E4B6F420EF8
:10281000E96E52C663F651C662F650C661F64FC6FF
:1028200060F6010E646F000172DE020E0601545D57
:10283000606F5651080DF3505425616F626B60C68E
:1028400063F67F0E646F61C665F6010E666F676B97
:102850000001E6EC0BF006014DC601F04EC603F098
:102860004DC660F64EC661F6060EEA6E2D0EE96E96
:102870004EC6E2FF4DC6E1FFE752E6CFEEFFFCE1B8
:102880005A0E5325606F010E5425616F60C662F6C3
:10289000636F060E656F570E646F56C666F6010EBF
:1028A000676F00016BEC0AF0010E06015325606FA3
:1028B000010E5425616F60C662F6636F060E656F88
:1028C0002D0E646F56C666F6010E676F00016BEC45
:1028D0000AF0060EEA6E2D0EE96EF2CF60F6F29E59
:1028E000000E5FEC03F00A000900F550EE6E0009DF
:1028F000FBE1060160BFF28E780E5325606F010E7A
:102900005425616F60C662F6636F060E656F2D0E0B
:10291000646F56C666F6010E676F00016BEC0AF035
:10292000730E06015325606F010E545D616F60C622
:1029300062F6636F010E646F656B666F0001B7EC42
:102940000FF000015DEC09F0000C01505CC662F66E
:10295000640E0601636F0001C4EC0CF000C05CF66D
:102960000150300E08E106015DA310D05DB70ED016
:102970005DB9200E04D006015D975D995D81012649
:1029800001C06DF60001DAEC0CF006015CC662F6DF
:102990000A0E636F0001C4EC0CF000C05CF601503D
:1029A000300E08E106015DB70BD05DA109D05DB91D
:1029B000200E0001012601C06DF6DAEC0CF00601D4
:1029C000300E5C275CC66DF60001DAEC0CF0000CF2
:1029D00006015151020838E1060E4C6F530E4B6F41
:1029E0004EC65CF6030E5D6F0001AFDF060152516B
:1029F000120DF3504F255C6F5251080DF3505025C6
:102A00005D6F4FC662F650C663F65CC664F6656FCE
:102A1000010E666F676F0001E6EC0BF0010E060118
:102A20004F255C6F010E50255D6F5CC662F6636FCB
:102A3000060E656F530E646F52C666F6676B000133
:102A40006BEC0AF0A3D006015151030838E1060EE1
:102A50004C6F530E4B6F4EC65CF6030E5D6F00015C
:102A600074DF06015251120DF3504F255C6F525125
:102A7000080DF35050255D6F4FC662F650C663F6E1
:102A80005CC664F6656F010E666F676B0001E6EC6D
:102A90000BF0010E06014F255C6F010E50255D6F96
:102AA0005CC662F6636F060E656F530E646F52C6A6
:102AB00066F6010E676F00016BEC0AF00601060E68
:102AC0004C6F530E4B6F4EC65CF61B0E5D6F0001D4
:102AD0003CDF0601512D2CD05251050DF3504F25EE
:102AE0005C6F5251080DF35050255D6F4FC662F672
:102AF00050C663F65CC664F6656F010E666F676F5D
:102B00000001E6EC0BF0010E06014F255C6F010E93
:102B100050255D6F5CC662F6636F060E656F530EDF
:102B2000646F52C666F6676B00016BEC0AF0060133
:102B300051532DE15251050DF3504F255C6F525109
:102B4000080DF35050255D6F4FC662F650C663F610
:102B50005CC664F6656F010E666F676B0001E6EC9C
:102B60000BF0010E06014F255C6F010E50255D6FC5
:102B70005CC662F6636F060E656F530E646F52C6D5
:102B800066F6010E676F00016BEC0AF006010001AA
:102B90005DEC09F0000C06014D51050852E14E6B49
:102BA0004E513F084EE34F6B4F510F0848E3070E5D
:102BB000506F5051800A7F0840E2526B4EC651F66A
:102BC000546B100E536F00015DEC0EF002C052F614
:102BD00001C051F606014F510124016E000E022082
:102BE000036E0150F2CF51F6F29E03C0F7FF0001D1
:102BF00053EC01F0060151BFF28E516F070ED880E1
:102C00005055526F51C600F05251016E04E0D890F9
:102C10000032012EFCD700A00ED04F51080DF3500A
:102C20005025516F7E6F4EC67FF6010E806F0001FA
:102C30000DEC0AF006015007BCD74F2BB5D74E2B31
:102C4000AFD70001F7EF31F005019551040DF350B6
:102C5000036A7E0FE96E050E0320EA6E01C6EFFFE0
:102C600002C6ECFF03C6ECFF04C6ECFF952B9551A2
:102C700001081EE2956BD88285C555F684C554F6C9
:102C800083C553F682C552F681C559F680C558F6FC
:102C90007FC557F67EC556F6000197EC07F003C0D6
:102CA00000F602C0FFF501C0FEF500C0FDF505010C
:102CB000000161EF16F005018D51270804E20001C3
:102CC000C3D705018D6B912DB2D1D88210C655F6B0
:102CD0000FC654F60EC653F60DC652F6F8C559F691
:102CE000F7C558F6F6C557F6F5C556F6000197EC48
:102CF00007F000C04DF601C04EF602C04FF603C00B
:102D000050F6D88203C055F602C054F601C053F6FF
:102D100000C052F604C659F603C658F602C657F666
:102D200001C656F697EC07F003C0E4F502C0E3F5E0
:102D300001C0E2F500C0E1F50601506B4F6B800E5B
:102D40004E6F7F0E4D6FE4C554F6E3C553F6E2C5F2
:102D500052F6E1C551F60001D3EC08F046E3CD0E82
:102D60000601506FCC0E4F6F4E6F7C0E4D6F00C63C
:102D700054F6FFC553F6FEC552F6FDC551F60001E7
:102D8000D3EC08F032E3B4C550F6B3C54FF6B2C584
:102D90004EF6B1C54DF60601546B536B340E526FAF
:102DA000850E516F0001D3EC08F01FE305019B5124
:102DB0004F081CE29B6BD892F4C555F6F3C554F648
:102DC000F2C553F6F1C552F60601596B586B576BB5
:102DD0007E0E566F000197EC07F003C0F4F502C0B9
:102DE000F3F501C0F2F500C0F1F505010601506BE5
:102DF0004F6B4E6B4D6BE4C554F6E3C553F6E2C51D
:102E000052F6E1C551F60001D3EC08F005E30501E7
:102E1000E46BE36BE26BE16BE4C570F6E3C56FF660
:102E2000E2C56EF6E1C56DF60601746B736B800E3C
:102E3000726F7F0E716F0001E2EC0DF003C0E4F5DC
:102E400002C0E3F501C0E2F500C0E1F5F4C550F6BB
:102E5000F3C54FF6F2C54EF6F1C54DF60601546BBB
:102E6000536B526B7E0E516F0001D3EC08F007E3F9
:102E70000501F46BF36BF26B7E0EF16F0001E4C59C
:102E800070F6E3C56FF6E2C56EF6E1C56DF6F4C502
:102E900074F6F3C573F6F2C572F6F1C571F6E2EC9D
:102EA0000DF003C0F0F502C0EFF501C0EEF500C073
:102EB000EDF510C650F60FC64FF60EC64EF60DC60F
:102EC0004DF6F0C554F6EFC553F6EEC552F6EDC516
:102ED00051F6D3EC08F008E310C6F0F50FC6EFF595
:102EE0000EC6EEF50DC6EDF5F0C550F6EFC54FF682
:102EF000EEC54EF6EDC54DF60601546B536B526BA5
:102F0000516B0001D3EC08F006E30501F06BEF6BA9
:102F1000EE6BED6B0001F0C551F6EFC550F6EEC556
:102F20004FF6EDC54EF610C655F60FC654F60EC652
:102F300053F60DC652F6E8EC06F000C04DF601C09F
:102F40004EF602C04FF603C050F603C070F602C042
:102F50006FF601C06EF600C06DF6DCC574F6DBC519
:102F600073F6DAC572F6D9C571F6E2EC0DF003C05E
:102F7000E0F502C0DFF501C0DEF500C0DDF5DCC51F
:102F800051F6DBC550F6DAC54FF6D9C54EF60A0E36
:102F90000601556FD70E546F230E536F770E526F85
:102FA0000001E8EC06F003C050F602C04FF601C085
:102FB0004EF600C04DF6CCEC10F00250036E050149
:102FC000A65D06E303E10150A55D02E3A66BA56BD8
:102FD000E0C551F6DFC550F6DEC54FF6DDC54EF64D
:102FE0000A0E0601556FD70E546F230E536F770EDE
:102FF000526F0001E8EC06F003C050F602C04FF635
:1030000001C04EF600C04DF6CCEC10F002C003F04B
:1030100001500501A651025C07E303E10150A55DE3
:1030200003E28B84949402D08B949494FDD2D89232
:10303000F8C555F6F7C554F6F6C553F6F5C552F67C
:1030400010C659F60FC658F60EC657F60DC656F6F8
:10305000000197EC07F000C04DF601C04EF602C02B
:103060004FF603C050F6D88203C055F602C054F69E
:1030700001C053F600C052F604C659F603C658F60E
:1030800002C657F601C656F697EC07F003C0E4F502
:1030900002C0E3F501C0E2F500C0E1F5CD0E060186
:1030A000506FCC0E4F6F4C0E4E6F7F0E4D6FE4C5C0
:1030B00054F6E3C553F6E2C552F6E1C551F60001F8
:1030C000D3EC08F0D8A0C4D0E4C550F6E3C54FF661
:1030D000E2C54EF6E1C54DF60601546B536B700E1A
:1030E000526F830E516F0001D3EC08F0D8A0B0D01E
:1030F00000C650F6FFC54FF6FEC54EF6FDC54DF6AF
:103100009A0E0601546F990E536F190E526F7D0E71
:10311000516F0001D3EC08F0D8A09AD0050194A318
:1031200002D0000195D0879787990A0E936FB4C596
:1031300050F6B3C54FF6B2C54EF6B1C54DF6060111
:10314000546B536B340E526F850E516F0001D3ECEC
:1031500008F0D8A07DD005019B514F08D8B079D098
:103160009B6B00C650F6FFC54FF6FEC54EF6FDC57B
:103170004DF60601546B536B800E526F7E0E516FED
:103180000001D3EC08F01BE3D892F4C555F6F3C563
:1031900054F6F2C553F6F1C552F60601596B586B59
:1031A000576B800E566F000197EC07F003C0F4F5E3
:1031B00002C0F3F501C0F2F500C0F1F549D000C638
:1031C00050F6FFC54FF6FEC54EF6FDC54DF6CD0EC9
:1031D0000601546FCC0E536F526F7B0E516F00017E
:1031E000D3EC08F01BE3D892F4C555F6F3C554F6BA
:1031F000F2C553F6F1C552F60601596B586B576B81
:103200007F0E566F000197EC07F003C0F4F502C083
:10321000F3F501C0F2F500C0F1F51AD0D892F4C56B
:1032200055F6F3C554F6F2C553F6F1C552F606014C
:10323000596B586B576B7E0E566F000197EC07F079
:1032400003C0F4F502C0F3F501C0F2F500C0F1F5DA
:103250000501E4C550F6E3C54FF6E2C54EF6E1C5FB
:103260004DF60601546B536B526B516B0001D3EC5E
:1032700008F02EE310C651F60FC650F60EC64FF6F4
:103280000DC64EF60601556B546B320E536F840E0D
:10329000526F0001E8EC06F00601706B6F6B6E6B0D
:1032A000800E6D6F03C074F602C073F601C072F633
:1032B00000C071F60001E2EC0DF003C0F4F502C0AD
:1032C000F3F501C0F2F500C0F1F505018797879984
:1032D000F4C550F6F3C54FF6F2C54EF6F1C54DF6FE
:1032E0000601546B536B526B7E0E516F0001D3EC91
:1032F00008F007E30501F46BF36BF26B7E0EF16FE0
:103300000001BCC550F6BBC54FF6BAC54EF6B9C5EF
:103310004DF6F4C554F6F3C553F6F2C552F6F1C5B1
:1033200051F6D3EC08F008E3BCC5F4F5BBC5F3F5E2
:10333000BAC5F2F5B9C5F1F5E4C550F6E3C54FF6E7
:10334000E2C54EF6E1C54DF60601546B536B526B68
:10335000516B0001D3EC08F006E30501E46BE36B6D
:10336000E26BE16B0001E4C570F6E3C56FF6E2C500
:103370006EF6E1C56DF6F4C574F6F3C573F6F2C5E5
:1033800072F6F1C571F6E2EC0DF003C0F0F502C083
:10339000EFF501C0EEF500C0EDF510C650F60FC612
:1033A0004FF60EC64EF60DC64DF6F0C554F6EFC5F7
:1033B00053F6EEC552F6EDC551F6D3EC08F008E32E
:1033C00010C6F0F50FC6EFF50EC6EEF50DC6EDF51D
:1033D000F0C550F6EFC54FF6EEC54EF6EDC54DF60D
:1033E0000601546B536B526B516B0001D3EC08F028
:1033F00006E30501F06BEF6BEE6BED6B0001F0C5C2
:1034000051F6EFC550F6EEC54FF6EDC54EF610C6B7
:1034100055F60FC654F60EC653F60DC652F6E8EC36
:1034200006F000C04DF601C04EF602C04FF603C0D4
:1034300050F603C070F602C06FF601C06EF600C011
:103440006DF6DCC574F6DBC573F6DAC572F6D9C560
:1034500071F6E2EC0DF003C0E0F502C0DFF501C04B
:10346000DEF500C0DDF5E4C550F6E3C54FF6E2C574
:103470004EF6E1C54DF6CD0E0601546FCC0E536FDE
:103480004C0E526F7F0E516F0001D3EC08F0D8A0A4
:1034900083D0E4C550F6E3C54FF6E2C54EF6E1C56C
:1034A0004DF6660E0601546F536F260E526F7F0E57
:1034B000516F0001D3EC08F001E20EE1050187B77E
:1034C0000BD0E0C50CF6DFC50BF6DEC50AF6DDC590
:1034D00009F68787050E936FE4C550F6E3C54FF6EE
:1034E000E2C54EF6E1C54DF6660E0601546F536F08
:1034F000526F7E0E516F0001D3EC08F001E20EE135
:10350000050187B90BD0E0C5B8F5DFC5B7F5DEC555
:10351000B6F5DDC5B5F58789050E936F050187A959
:103520001DD0E0C550F6DFC54FF6DEC54EF6DDC551
:103530004DF6B8C554F6B7C553F6B6C552F6B5C57F
:1035400051F60001D3EC08F008E3B8C5E0F5B7C5C3
:10355000DFF5B6C5DEF5B5C5DDF5050187A71DD0DC
:103560000CC650F60BC64FF60AC64EF609C64DF607
:10357000E0C554F6DFC553F6DEC552F6DDC551F69B
:103580000001D3EC08F008E30CC6E0F50BC6DFF54C
:103590000AC6DEF509C6DDF50501E0C551F6DFC551
:1035A00050F6DEC54FF6DDC54EF60A0E0601556F24
:1035B000D70E546F230E536F770E526F0001E8EC55
:1035C00006F003C050F602C04FF601C04EF600C030
:1035D0004DF6CCEC10F002C0AEF501C0ADF5DCC587
:1035E00051F6DBC550F6DAC54FF6D9C54EF60A0ED0
:1035F0000601556FD70E546F230E536F770E526F1F
:103600000001E8EC06F003C050F602C04FF601C01E
:103610004EF600C04DF6CCEC10F002C0B0F501C083
:10362000AFF5010E0501926F0001000C060E0601B8
:103630004C6F540E4B6F420EE96E50C663F64FC688
:1036400062F64EC661F64DC660F6010E646F00016B
:1036500087EC12F0060153511B0DF35051255D6F9D
:103660005351080DF35052255E6F51C662F652C693
:1036700063F65DC664F6656F010E666F676B0001E9
:10368000E6EC0BF051C662F652C663F6060E060172
:10369000656F540E646F53C666F6010E676F0001C6
:1036A0006BEC0AF0000CF86AD09E078EEA6AE96AB1
:1036B000050186918693869586978699869B869D39
:1036C000869F8791886B896B8A6B8B6B0A0E8C6FD8
:1036D0008D6B8E6B030E8F6F906B916B926B0A0EDE
:1036E000936F8783879587978799879B879D879F08
:1036F00094919493956B966B976B010E986F996B61
:103700009A6B9B6B9C6F9D6B9E6B9F6BA06BA26B70
:10371000A16BA46BA36BA66BA56BA86BA76BAA6B25
:10372000A96BAC6BAB6BAE6BAD6BB06BAF6BB46BD3
:10373000B36BB26BB16BB86BB76BB66BB56BBC6B85
:10374000BB6BBA6BB96BD06BCF6BCE6BCD6BD46BE5
:10375000400ED36F1C0ED26F8C0ED16FDC6BDB6B07
:10376000200EDA6F820ED96FE06BDF6BDE6BDD6BE4
:10377000E46BE36BE26BE16BE86BE76BE66BE56BCD
:10378000EC6BEB6BEA6BE96BF06BEF6BEE6BED6B7D
:10379000F46BF36BF26B800EF16FF86BF76BF66BFB
:1037A0007F0EF56FFC6BFB6B320EFA6F840EF96FB8
:1037B0000601006B0501FF6BFE6BFD6B0601046BE0
:1037C000036B026B016B086B076B200E066F820E9A
:1037D000056F0C6B0B6B0A6B096B106B0F6B0E6B31
:1037E0000D6B146B136B126B116B186B176B166BE5
:1037F000156B1C6B1B6B1A6B196B206B1F6B1E6B95
:103800001D6BE00E246F2D0E236F100E226F750EB0
:10381000216FFF0E286F210E276F150E266F800E69
:10382000256F820E2C6F120E2B6FF40E2A6F860EF0
:10383000296FC150C00B0F09C16E070EB46E040191
:10384000166B176B186B196B1A6B1B6B1C6B1D6B54
:103850001E6B1F6B206B216B226B236B246B256B04
:10386000266B276B286B296B2A6B2B6B2C6B2D6BB4
:103870002E6B2F6B306B316B326B336B346B356B64
:10388000366B376B386B396B3A6B3B6B3C6B3D6B14
:103890003E6B3F6B406B416B426B436B446B456BC4
:1038A000466B476B486B496B4A6B4B6B4C6B4D6B74
:1038B0004E6B4F6B506B516B526B536B546B556B24
:1038C000566B576B586B596B5A6B5B6B5C6B5D6BD4
:1038D0005E6B5F6B606B616B626B636B646B656B84
:1038E000666B676B686B696B6A6B6B6B6C6B6D6B34
:1038F0006E6B6F6B706B716B726B736B746B756BE4
:10390000766B776B786B796B7A6B7B6B7C6B7D6B93
:103910007E6B7F6B806B816B826B836B846B856B43
:10392000866B876B886B896B8A6B8B6B8C6B8D6BF3
:103930008E6B8F6B906B916B926B936B946B956BA3
:10394000966B976B986B996B9A6B9B6B9C6B9D6B53
:103950009E6B9F6BA06BA16BA26BA36BA46BA56B03
:10396000A66BA76BA86BA96BAA6BAB6BAC6BAD6BB3
:10397000AE6BAF6BB06BB16BB26BB36BB46BB56B63
:10398000B66BB76BB86BB96BBA6BBB6BBC6BBD6B13
:10399000BE6BBF6BC06BC16BC26BC36BC46BC56BC3
:1039A000C66BC76BC86BC96BCA6BCB6BCC6BCD6B73
:1039B000CE6BCF6BD06BD16BD26BD36BD46BD56B23
:1039C000D66BD76BD86BD96BDA6BDB6BDC6BDD6BD3
:1039D000DE6BDF6BE06BE16BE26BE36BE46BE56B83
:1039E000E66BE76BE86BE96BEA6BEB6BEC6BED6B33
:1039F000EE6BEF6BF06BF16BF26BF36BF46BF56BE3
:103A0000F66BF76BF86BF96BFA6BFB6BFC6BFD6B92
:103A1000FE6BFF6B0501006B016B026B036B046BAC
:103A2000056B066B076B086B096B0A6B0B6B0C6BFA
:103A30000D6B0E6B0F6B106B116B126B136B146BAA
:103A4000156B166B176B186B196B1A6B1B6B1C6B5A
:103A50001D6B1E6B1F6B206B216B226B236B246B0A
:103A6000256B266B276B286B296B2A6B2B6B2C6BBA
:103A70002D6B2E6B2F6B306B316B326B336B346B6A
:103A8000356B366B376B386B396B3A6B3B6B3C6B1A
:103A90003D6B3E6B3F6B406B416B426B436B446BCA
:103AA000456B466B476B486B496B4A6B4B6B4C6B7A
:103AB0004D6B4E6B4F6B506B516B526B536B546B2A
:103AC000556B566B576B586B596B5A6B5B6B5C6BDA
:103AD0005D6B5E6B5F6B606B616B626B636B646B8A
:103AE000656B666B676B686B696B6A6B6B6B6C6B3A
:103AF0006D6B6E6B6F6B706B716B726B736B746BEA
:103B0000756B766B776B786B796B7A6B7B6B7C6B99
:103B10007D6B7E6B7F6B806B816B826B836B846B49
:103B2000856BBD6BBE6BBF6BC06BC16BC26BC36B78
:103B3000C46BC56BC66BC76BC86BC96BCA6BCB6BF1
:103B4000CC6B06014B6B4C6B040E4D6FFA0E536F32
:103B50000001A4EC06F006014D2FF8D78A9E939E33
:103B60004D6B0001B9EC06F0850ECD6E9D80C15005
:103B7000C00B0D09C16EC090C082C084C08EC280CF
:103B800094928B920C0EBA6E000E0609CA6EFF0E4E
:103B9000CB6EBB6AC00EF212F2CF4DF6F29EA96A4E
:103BA000A69CA69EA680A85006014DBFF28E0501D8
:103BB000C16F320E0601536F0001A4EC06F0F2CF84
:103BC0004DF6F29E010EA96EA69CA69EA680A85058
:103BD00006014DBFF28E0501C26F320E0601536F12
:103BE0000001A4EC06F0F2CF4DF6F29E020EA96E93
:103BF000A69CA69EA680A85006014DBFF28E050188
:103C0000C36F320E0601536F0001A4EC06F0F2CF31
:103C10004DF6F29E030EA96EA69CA69EA680A85005
:103C200006014DBFF28E0501C46F320E0601536FBF
:103C30000001A4EC06F0F2CF4DF6F29E500EA96EF4
:103C4000A69CA69EA680A85006014DBFF28E050137
:103C5000A06F320E0601536F0001A4EC06F0F2CF04
:103C60004DF6F29E510EA96EA69CA69EA680A85067
:103C700006014DBFF28E546B536F0001CDEC06F080
:103C800003C020F602C01FF601C01EF600C01DF6DC
:103C900020C651F61FC650F61EC64FF61DC64EF67C
:103CA0000601556B546B200E536F820E526F00014C
:103CB000E8EC06F003C020F602C01FF601C01EF6B5
:103CC00000C01DF60601546BA0C553F60001CDECF3
:103CD00006F0D89203C055F602C054F601C053F660
:103CE00000C052F620C659F61FC658F61EC657F633
:103CF0001DC656F697EC07F003C014F602C013F683
:103D000001C012F600C011F6320E0601536F000119
:103D1000A4EC06F0F2CF4DF6F29E530EA96EA69CCF
:103D2000A69EA680A85006014DBFF28E0501A06F89
:103D3000320E0601536F0001A4EC06F0F2CF4DF6EF
:103D4000F29E540EA96EA69CA69EA680A8500601BF
:103D50004DBFF28E546B536F0001CDEC06F003C0E3
:103D600020F602C01FF601C01EF600C01DF620C6D8
:103D700051F61FC650F61EC64FF61DC64EF606017A
:103D8000556B546B200E536F820E526F0001E8EC9E
:103D900006F003C020F602C01FF601C01EF600C0E8
:103DA0001DF60601546BA0C553F60001CDEC06F0DC
:103DB000D89203C055F602C054F601C053F600C0B5
:103DC00052F620C659F61FC658F61EC657F61DC62F
:103DD00056F697EC07F003C018F602C017F601C0BC
:103DE00016F600C015F6320E0601536F0001A4EC62
:103DF00006F0F2CF4DF6F29E560EA96EA69CA69E38
:103E0000A680A85006014DBFF28E0501A06F320EAC
:103E10000601536F0001A4EC06F0F2CF4DF6F29EBE
:103E2000570EA96EA69CA69EA680A85006014DBF5F
:103E3000F28E546B536F0001CDEC06F003C020F6F8
:103E400002C01FF601C01EF600C01DF620C651F6C6
:103E50001FC650F61EC64FF61DC64EF60601556B20
:103E6000546B200E536F820E526F0001E8EC06F087
:103E700003C020F602C01FF601C01EF600C01DF6EA
:103E80000601546BA0C553F60001CDEC06F0D892A4
:103E900003C055F602C054F601C053F600C052F6F6
:103EA00020C659F61FC658F61EC657F61DC656F64A
:103EB00097EC07F003C01CF602C01BF601C01AF60F
:103EC00000C019F6320E0601536F0001A4EC06F093
:103ED000F2CF4DF6F29E0A0EA96EA69CA69EA68073
:103EE000A85006014DBFF28E0501C96F320E0601C2
:103EF000536F0001A4EC06F0F2CF4DF6F29E0B0ECC
:103F0000A96EA69CA69EA680A85006014DBFF28E63
:103F10000501CA6F320E0601536F0001A4EC06F0D2
:103F2000F2CF4DF6F29E0C0EA96EA69CA69EA68020
:103F3000A85006014DBFF28E0501CB6F320E06016F
:103F4000536F0001A4EC06F0F2CF4DF6F29E0D0E79
:103F5000A96EA69CA69EA680A85006014DBFF28E13
:103F60000501CC6F320E0601536F0001A4EC06F080
:103F7000F2CF4DF6F29E5A0EA96EA69CA69EA68082
:103F8000A85006014DBFF28E546B536F0001CDEC6B
:103F900006F003C0F4F502C0F3F501C0F2F500C06D
:103FA000F1F5320E0601536F0001A4EC06F0F2CFDA
:103FB0004DF6F29E1E0EA96EA69CA69EA680A85047
:103FC00006014DBFF28E546B536F0001CDEC06F02D
:103FD00003C0DCF502C0DBF501C0DAF500C0D9F59D
:103FE000320E0601536F0001A4EC06F0F2CF4DF63D
:103FF000F29E280EA96EA69CA69EA680A850060139
:104000004DBFF28E05018A6F320E0601536F00011B
:10401000A4EC06F0F2CF4DF6F29E320EA96EA69CED
:10402000A69EA680A85006014DBFF28E05018B6F9B
:10403000320E0601536F0001A4EC06F0F2CF4DF6EC
:10404000F29E3C0EA96EA69CA69EA680A8500601D4
:104050004DBFF28E05018C6F320E0601536F0001C9
:10406000A4EC06F0F2CF4DF6F29E460EA96EA69C89
:10407000A69EA680A85006014DBFF28E546B536FCA
:104080000001CDEC06F003C0FCF502C0FBF501C059
:10409000FAF500C0F9F5320E0601536F0001A4ECE9
:1040A00006F0F2CF4DF6F29E640EA96EA69CA69E77
:1040B000A680A85006014DBFF28E546B536F0001CD
:1040C000CDEC06F003C008F602C007F601C006F604
:1040D00000C005F60601506B4F6B200E4E6F820E2E
:1040E0004D6FF4C554F6F3C553F6F2C552F6F1C55B
:1040F00051F60001D3EC08F006E30501F46BF36B15
:10410000F26B800EF16F010E06014D6F0001B9ECEC
:1041100009F006014E6B000130EC09F0060EEA6E64
:104120002D0EE96EF2CF4DF6F29E000E6DEC03F00F
:104130000A000900F550EE6E0009FBE106014DBFD3
:10414000F28E060E4E6F2D0E4D6F4F6B506B516BF6
:10415000020E526F000147EC0CF0060EEA6E2D0EB7
:10416000E96EF2CF4DF6F29E000E80EC03F00A00ED
:104170000900F550EE6E0009FBE106014DBFF28E1D
:10418000060E4E6F2D0E4D6F4F6B140E506F516B10
:10419000010E526F000147EC0CF0060EEA6E2D0E78
:1041A000E96EF2CF4DF6F29E000E95EC03F00A0098
:1041B0000900F550EE6E0009FBE106014DBFF28EDD
:1041C000060E4E6F2D0E4D6F4F6B1E0E506F516BC6
:1041D000010E526F000147EC0CF0060EEA6E2D0E38
:1041E000E96EF2CF4DF6F29E000EAAEC03F00A0043
:1041F0000900F550EE6E0009FBE106014DBFF28E9D
:10420000060E4E6F2D0E4D6F4F6B506F516B020EA1
:10421000526F000147EC0CF0040E06014D6FFA0ED0
:10422000536F0001A4EC06F006014D2FF8D74E6B3A
:10423000000130EC09F0C5C54FF6140E0601506FB1
:104240001E0E516F010E526F00015AEC0DF0C6C5E3
:104250004FF6280E0601506F1E0E516F526B000173
:104260005AEC0DF0C7C54FF63C0E0601506F1E0EFE
:10427000516F526B00015AEC0DF0C8C54FF6500E4D
:104280000601506F1E0E516F526B00015AEC0DF07B
:104290000501996B99514F0810E38CC54DF600014B
:1042A0006EEC0EF003C004F602C003F601C002F685
:1042B00000C001F60501992BEDD7000147EC0FF086
:1042C000050186A146D086A344D0020E06014D6F9B
:1042D000FA0E536F0001A4EC06F006014D2FF8D73B
:1042E000060EEA6E2D0EE96EF2CF4DF6F29E000E2E
:1042F0000001BDEC03F00A000900F550EE6E000964
:10430000FBE106014DBFF28E060E4E6F2D0E4D6F76
:104310004F6B1E0E506F010E516F526F000147EC34
:104320000CF0080E06014D6FFA0E536F0001A4EC5D
:1043300006F006014D2FF8D7640E0501976F0601B0
:104340004E6B000130EC09F005018691869386954D
:104350008697902D0FD08CC54DF600016EEC0EF0B7
:1043600003C004F602C003F601C002F600C001F665
:104370000501906B000147EC0FF05DEC09F00501C1
:104380009753D8A4BAD2060EEA6E2D0EE96EF2CF7C
:104390004DF6F29E000E0001D0EC03F00A00090079
:1043A000F550EE6E0009FBE106014DBFF28E060EE0
:1043B0004E6F2D0E4D6F1E0E4F6F506B010E516FD5
:1043C000020E526F000147EC0CF0050186A167D088
:1043D00086911E0E0601536F0001A4EC06F0010E3B
:1043E0000501996F995104085AE39951985D3BE191
:1043F000010E995D036AC50FE96E050E0320EA6E92
:10440000EF2A010E995D036AC50FE96E050E0320C0
:10441000EA6EEFBE0CD0EF50090809E2010E995D7B
:10442000036AC50FE96E050E0320EA6EEF6A010EFE
:10443000995D036AC50FE96E050E0320EA6EEFCFA2
:104440004DF69951140DF3CF4EF606014DC64FF6B9
:104450004EC650F61E0E516F010E526F00015AECFF
:104460000DF01AD00501010E995D036AC50FE96EC2
:10447000050E0320EA6EEFCF4DF69951140DF3CFE0
:104480004EF606014DC64FF64EC650F61E0E516F43
:10449000526B00015AEC0DF00501992BA3D786A3AE
:1044A00066D086931E0E0601536F0001A4EC06F041
:1044B000010E0501996F9951040859E39951985DCE
:1044C0003AE1010E995D036AC50FE96E050E0320FE
:1044D000EA6EEF06010E995D036AC50FE96E050EDF
:1044E0000320EA6EEFBE01D00AD0010E995D036A87
:1044F000C50FE96E050E0320EA6E090EEF6E010E80
:10450000995D036AC50FE96E050E0320EA6EEFCFD1
:104510004DF69951140DF3CF4EF606014DC64FF6E8
:104520004EC650F61E0E516F010E526F00015AEC2E
:104530000DF01AD00501010E995D036AC50FE96EF1
:10454000050E0320EA6EEFCF4DF69951140DF3CF0F
:104550004EF606014DC64FF64EC650F61E0E516F72
:10456000526B00015AEC0DF00501992BA4D786A5DA
:1045700049D086951E0E0601536F0001A4EC06F08B
:104580000501982B010E996F995104083BE399514D
:10459000985D1CE1010E995D036AC50FE96E050E79
:1045A0000320EA6EEFCF4DF69951140DF3CF4EF67E
:1045B00006014DC64FF64EC650F61E0E516F010E47
:1045C000526F00015AEC0DF01AD00501010E995DF1
:1045D000036AC50FE96E050E0320EA6EEFCF4DF6B4
:1045E0009951140DF3CF4EF606014DC64FF64EC647
:1045F00050F61E0E516F526B00015AEC0DF0050182
:10460000992BC2D798510408D8B077D106014E6BC8
:10461000000130EC09F0040E0501986FC551030844
:1046200073E1C651080870E1C75109086DE1C8512E
:1046300002086AE10A0EA96EA86AA69CA69EA68434
:10464000F250006EF29E0F01550EA76EAA0EA76ED5
:10465000A682A6B2FED7A6940050F212140E06014E
:10466000536F0001A4EC06F00B0EA96EA86AA69C7D
:10467000A69EA684F250006EF29E0F01550EA76E04
:10468000AA0EA76EA682A6B2FED7A6940050F2127A
:10469000140E0601536F0001A4EC06F00C0EA96E77
:1046A000A86AA69CA69EA684F250006EF29E0F01F8
:1046B000550EA76EAA0EA76EA682A6B2FED7A69426
:1046C0000050F212140E0601536F0001A4EC06F024
:1046D0000D0EA96EA86AA69CA69EA684F250006E36
:1046E000F29E0F01550EA76EAA0EA76EA682A6B265
:1046F000FED7A6940050F212140E0601536F00016B
:10470000A4EC06F0FF000501C951C55D68E1CA517E
:10471000C65D65E1CB51C75D62E1CC51C85D5FE12B
:1047200006014E6B000130EC09F0060EEA6E2D0E0C
:10473000E96EF2CF4DF6F29E000ED0EC03F00A00C7
:104740000900F550EE6E0009FBE106014DBFF28E47
:10475000060E4E6F2D0E4D6F1E0E4F6F506B516B30
:10476000020E526F000147EC0CF0060EEA6E2D0EA1
:10477000E96EF2CF4DF6F29E000EE0EC03F00A0077
:104780000900F550EE6E0009FBE106014DBFF28E07
:10479000060E4E6F2D0E4D6F0F0E4F6F1E0E506F8B
:1047A000516B020E526F000147EC0CF0010E050137
:1047B000976F00015DEC09F0040E06014D6FFA0ED3
:1047C000536F0001A4EC06F006014D2FF8D74E6B95
:1047D000000130EC09F0010E0501986F8ED0060142
:1047E0004E6B000130EC09F0060EEA6E2D0EE96EFC
:1047F000F2CF4DF6F29E000ED0EC03F00A00090055
:10480000F550EE6E0009FBE106014DBFF28E060E7B
:104810004E6F2D0E4D6F1E0E4F6F506B516B020E73
:10482000526F000147EC0CF0060EEA6E2D0EE96E99
:10483000F2CF4DF6F29E000EF2EC03F00A000900F2
:10484000F550EE6E0009FBE106014DBFF28E060E3B
:104850004E6F2D0E4D6F4F6B1E0E506F516B020E33
:10486000526F000147EC0CF00501976B00015DEC05
:1048700009F0040E06014D6FFA0E536F0001A4EC0F
:1048800006F006014D2FF8D74E6B000130EC09F011
:10489000010E0501986FC56BC66BC76BC86BC5C5AC
:1048A0004FF6140E0601506F1E0E516F010E526F1F
:1048B00000015AEC0DF0C6C54FF6280E0601506FE8
:1048C0001E0E516F526B00015AEC0DF0C7C54FF62A
:1048D0003C0E0601506F1E0E516F526B00015AECD8
:1048E0000DF0C8C54FF6500E0601506F1E0E516FE9
:1048F000526B00015AEC0DF00501972D7ED19C51B1
:10490000040802E2010E9C6F9C5302E1040E9C6FAE
:10491000060EEA6E2D0EE96EF2CF4DF6F29E000EF7
:10492000000105EC04F00A000900F550EE6E0009E4
:10493000FBE106014DBFF28E060E4E6F2D0E4D6F40
:104940001E0E4F6F506B010E516F020E526F000121
:1049500047EC0CF005019C2D23D0060EEA6E2D0EBF
:10496000E96EF2CF4DF6F29E000E000115EC04F058
:104970000A000900F550EE6E0009FBE106014DBF8B
:10498000F28E060E4E6F2D0E4D6F4F6B140E506F44
:10499000010E516F526F000147EC0CF022D005015F
:1049A000060EEA6E2D0EE96EF2CF4DF6F29E000E67
:1049B000000115EC04F00A000900F550EE6E000944
:1049C000FBE106014DBFF28E060E4E6F2D0E4D6FB0
:1049D0004F6B140E506F516B010E526F000147EC7C
:1049E0000CF005019C51020823E1060EEA6E2D0E23
:1049F000E96EF2CF4DF6F29E000E00012AEC04F0B3
:104A00000A000900F550EE6E0009FBE106014DBFFA
:104A1000F28E060E4E6F2D0E4D6F4F6B1E0E506FA9
:104A2000010E516F526F000147EC0CF022D00501CE
:104A3000060EEA6E2D0EE96EF2CF4DF6F29E000ED6
:104A400000012AEC04F00A000900F550EE6E00099E
:104A5000FBE106014DBFF28E060E4E6F2D0E4D6F1F
:104A60004F6B1E0E506F516B010E526F000147ECE1
:104A70000CF005019C51030823E1060EEA6E2D0E91
:104A8000E96EF2CF4DF6F29E000E000142EC04F00A
:104A90000A000900F550EE6E0009FBE106014DBF6A
:104AA000F28E060E4E6F2D0E4D6F4F6B280E506F0F
:104AB000010E516F526F000147EC0CF022D005013E
:104AC000060EEA6E2D0EE96EF2CF4DF6F29E000E46
:104AD000000142EC04F00A000900F550EE6E0009F6
:104AE000FBE106014DBFF28E060E4E6F2D0E4D6F8F
:104AF0004F6B280E506F516B010E526F000147EC47
:104B00000CF005019C51040823E1060EEA6E2D0EFF
:104B1000E96EF2CF4DF6F29E000E000156EC04F065
:104B20000A000900F550EE6E0009FBE106014DBFD9
:104B3000F28E060E4E6F2D0E4D6F4F6B320E506F74
:104B4000010E516F526F000147EC0CF022D00501AD
:104B5000060EEA6E2D0EE96EF2CF4DF6F29E000EB5
:104B6000000156EC04F00A000900F550EE6E000951
:104B7000FBE106014DBFF28E060E4E6F2D0E4D6FFE
:104B80004F6B320E506F516B010E526F000147ECAC
:104B90000CF0050186A10AD086911E0E0601536F06
:104BA0000001A4EC06F005019C07878386A30AD0C8
:104BB00086931E0E0601536F0001A4EC06F005015A
:104BC0009C2B878386A519D08695020E06014D6F12
:104BD000FA0E536F0001A4EC06F006014D2FF8D732
:104BE000030E05019C25976F010E9C6F06014E6B0D
:104BF000000130EC09F00501878397510408D8A41F
:104C0000D4D19C51030802E2010E9C6F9C5302E137
:104C1000030E9C6F060EEA6E2D0EE96EF2CF4DF676
:104C2000F29E000E00016AEC04F00A000900F55043
:104C3000EE6E0009FBE106014DBFF28E060E4E6FCF
:104C40002D0E4D6F4F6B506B010E516F020E526F58
:104C5000000147EC0CF0060EEA6E2D0EE96EF2CF65
:104C60004DF6F29E000E7DEC04F00A000900F550AE
:104C7000EE6E0009FBE106014DBFF28E060E4E6F8F
:104C80002D0E4D6F4F6B100E506F010E516F020EB7
:104C9000526F000147EC0CF09CC54FF60A0E06015E
:104CA000506F260E516F010E526F00015AEC0DF03D
:104CB0005A0E0601626F260E636F020E646F656BFB
:104CC000010E666F0001B7EC0FF0060EEA6E2D0EB6
:104CD000E96EF2CF4DF6F29E000E5FEC03F00A0093
:104CE0000900F550EE6E0009FBE106014DBFF28EA2
:104CF000060E4E6F2D0E4D6F610E4F6F230E506FCF
:104D0000020E516F526F000147EC0CF005019C2D13
:104D10001FD014C650F613C64FF612C64EF611C673
:104D20004DF60001CCEC10F002C04EF601C04DF67D
:104D300002C050F601C04FF6320E0601516F260E2A
:104D4000526F536B020E546F000149EC11F00501D4
:104D50009C5102081FE118C650F617C64FF616C63A
:104D60004EF615C64DF60001CCEC10F002C04EF622
:104D700001C04DF602C050F601C04FF6320E0601DA
:104D8000516F260E526F536B020E546F000149ECA7
:104D900011F005019C5103081FE11CC650F61BC60B
:104DA0004FF61AC64EF619C64DF60001CCEC10F0BF
:104DB00002C04EF601C04DF602C050F601C04FF6DB
:104DC000320E0601516F260E526F536B020E546F56
:104DD000000149EC11F0050186A112D09C2B280E90
:104DE0000601626F230E636F550E646F3C0E656F94
:104DF000010E666F676B0001E6EC0BF00501869112
:104E000086A312D09C07280E0601626F230E636FE3
:104E1000550E646F3C0E656F010E666F676B000187
:104E2000E6EC0BF00501869386A5A5D09C2D08D055
:104E300014C610F613C60FF612C60EF611C60DF6FE
:104E40009C51020808E118C610F617C60FF616C6E0
:104E50000EF615C60DF69C51030808E11CC610F6A7
:104E60001BC60FF61AC60EF619C60DF610C650F67A
:104E70000FC64FF60EC64EF60DC64DF604C654F6D6
:104E800003C653F602C652F601C651F60001D3EC32
:104E900008F00BE3010E0501916FF46BF36B200E2C
:104EA000F26F820EF16F4BD000010501916B10C6BD
:104EB00051F60FC650F60EC64FF60DC64EF6060159
:104EC000556B546B320E536F840E526F0001E8EC39
:104ED00006F00601706B6F6B6E6B800E6D6F03C01A
:104EE00074F602C073F601C072F600C071F60001DC
:104EF000E2EC0DF003C0F4F502C0F3F501C0F2F5E9
:104F000000C0F1F53D0E0601706F0A0E6F6F570E6F
:104F10006E6F7C0E6D6F10C674F60FC673F60EC6FC
:104F200072F60DC671F60001E2EC0DF003C0BCF59F
:104F300002C0BBF501C0BAF500C0B9F50501140EF9
:104F4000976F0F0E0601626F120E636F1E0E646F75
:104F5000350E656F666B010E676F0001E6EC0BF0B6
:104F600005019E6B06014E6B000130EC09F0050156
:104F70009A6B8695869786A718D0040E06014D6F0A
:104F8000AF0E536F0001A4EC06F006014D2FF8D7C9
:104F9000010E0501976F06014E6B000130EC09F020
:104FA000010E05019C6F8783869797510508D8A449
:104FB00014EF2CF09C51030802E2010E9C6F9C53ED
:104FC00002E1030E9C6F9C2D2BD0060EEA6E2D0E77
:104FD000E96EF2CF4DF6F29E000E000190EC04F067
:104FE0000A000900F550EE6E0009FBE106014DBF15
:104FF000F28E060E4E6F2D0E4D6F14C652F613C66E
:1050000051F612C650F611C64FF6536B140E546F7C
:10501000010E556F566F000161EC13F02AD00501A7
:10502000060EEA6E2D0EE96EF2CF4DF6F29E000EE0
:10503000000190EC04F00A000900F550EE6E000942
:10504000FBE106014DBFF28E060E4E6F2D0E4D6F29
:1050500014C652F613C651F612C650F611C64FF6D4
:10506000536B140E546F556B010E566F000161ECBB
:1050700013F005019C5102082BE1060EEA6E2D0E7D
:10508000E96EF2CF4DF6F29E000E0001A4EC04F0A2
:105090000A000900F550EE6E0009FBE106014DBF64
:1050A000F28E060E4E6F2D0E4D6F18C652F617C6B5
:1050B00051F616C650F615C64FF6536B230E546FB5
:1050C000010E556F566F000161EC13F02AD00501F7
:1050D000060EEA6E2D0EE96EF2CF4DF6F29E000E30
:1050E0000001A4EC04F00A000900F550EE6E00097E
:1050F000FBE106014DBFF28E060E4E6F2D0E4D6F79
:1051000018C652F617C651F616C650F615C64FF613
:10511000536B230E546F556B010E566F000161ECFB
:1051200013F005019C5103082BE1060EEA6E2D0ECB
:10513000E96EF2CF4DF6F29E000E0001B8EC04F0DD
:105140000A000900F550EE6E0009FBE106014DBFB3
:10515000F28E060E4E6F2D0E4D6F1CC652F61BC6FC
:1051600051F61AC650F619C64FF6536B320E546FED
:10517000010E556F566F000161EC13F02AD0050146
:10518000060EEA6E2D0EE96EF2CF4DF6F29E000E7F
:105190000001B8EC04F00A000900F550EE6E0009B9
:1051A000FBE106014DBFF28E060E4E6F2D0E4D6FC8
:1051B0001CC652F61BC651F61AC650F619C64FF653
:1051C000536B320E546F556B010E566F000161EC3C
:1051D00013F0050186A502D086959C2B060EEA6E7B
:1051E0002D0EE96EF2CF4DF6F29E000E00017DEC21
:1051F00004F00A000900F550EE6E0009FBE106011B
:105200004DBFF28E060E4E6F2D0E4D6F4F6B506BD5
:10521000010E516F020E526F000147EC0CF00501B8
:1052200086A163D09C2D1ED0D89214C655F613C605
:1052300054F612C653F611C652F6CD0E0601596F3A
:10524000CC0E586F4C0E576F7B0E566F000197ECCB
:1052500007F003C014F602C013F601C012F600C036
:1052600011F605019C5102081EE1D89218C655F6A8
:1052700017C654F616C653F615C652F6CD0E0601DD
:10528000596FCC0E586F4C0E576F7B0E566F000146
:1052900097EC07F003C018F602C017F601C016F627
:1052A00000C015F605019C5103081EE1D8921CC6EA
:1052B00055F61BC654F61AC653F619C652F6CD0E4D
:1052C0000601596FCC0E586F4C0E576F7B0E566F00
:1052D000000197EC07F003C01CF602C01BF601C0EA
:1052E0001AF600C019F60501869186A363D09C2D9D
:1052F0001ED0D88214C655F613C654F612C653F6FD
:1053000011C652F6CD0E0601596FCC0E586F4C0ED9
:10531000576F7B0E566F000197EC07F003C014F631
:1053200002C013F601C012F600C011F605019C512F
:1053300002081EE1D88218C655F617C654F616C6DE
:1053400053F615C652F6CD0E0601596FCC0E586FA6
:105350004C0E576F7B0E566F000197EC07F003C0A1
:1053600018F602C017F601C016F600C015F60501C2
:105370009C5103081EE1D8821CC655F61BC654F684
:105380001AC653F619C652F6CD0E0601596FCC0E49
:10539000586F4C0E576F7B0E566F000197EC07F05D
:1053A00003C01CF602C01BF601C01AF600C019F6B5
:1053B0000501869386A7A0D1040E06014D6FAF0E9E
:1053C000536F0001A4EC06F006014D2FF8D7010E33
:1053D0000501976F06014E6B000130EC09F0010EDC
:1053E00005019C6F878314C650F613C64FF612C68C
:1053F0004EF611C64DF60001CCEC10F001C0A0F540
:105400000601546BA0C553F60001CDEC06F0D8821E
:1054100014C655F613C654F612C653F611C652F604
:1054200003C059F602C058F601C057F600C056F640
:1054300097EC07F000C04DF601C04EF602C04FF6E3
:1054400003C050F603C070F602C06FF601C06EF6DE
:1054500000C06DF60601746B736B200E726F820EC6
:10546000716F0001E2EC0DF003C050F602C04FF680
:1054700001C04EF600C04DF6CCEC10F001C09FF517
:10548000500EA96EA0C5A8FFA69CA69EA684F250A9
:10549000006EF29E0F01550EA76EAA0EA76EA68291
:1054A000A6B2FED7A6940050F212320E0601536F38
:1054B0000001A4EC06F0510EA96E9FC5A8FFA69CA2
:1054C000A69EA684F250006EF29E0F01550EA76EA6
:1054D000AA0EA76EA682A6B2FED7A6940050F2121C
:1054E000320E0601536F0001A4EC06F018C650F608
:1054F00017C64FF616C64EF615C64DF6CCEC10F094
:1055000001C0A0F50601546BA0C553F60001CDEC17
:1055100006F0D88218C655F617C654F616C653F6C6
:1055200015C652F603C059F602C058F601C057F628
:1055300000C056F697EC07F000C04DF601C04EF6DD
:1055400002C04FF603C050F603C070F602C06FF6FB
:1055500001C06EF600C06DF60601746B736B200E11
:10556000726F820E716F0001E2EC0DF003C050F615
:1055700002C04FF601C04EF600C04DF6CCEC10F064
:1055800001C09FF5530EA96EA0C5A8FFA69CA69EBC
:10559000A684F250006EF29E0F01550EA76EAA0E61
:1055A000A76EA682A6B2FED7A6940050F212320EC3
:1055B0000601536F0001A4EC06F0540EA96E9FC5BE
:1055C000A8FFA69CA69EA684F250006EF29E0F0134
:1055D000550EA76EAA0EA76EA682A6B2FED7A694F7
:1055E0000050F212320E0601536F0001A4EC06F0D7
:1055F0001CC650F61BC64FF61AC64EF619C64DF617
:10560000CCEC10F001C0A0F50601546BA0C553F618
:105610000001CDEC06F0D8821CC655F61BC654F628
:105620001AC653F619C652F603C059F602C058F608
:1056300001C057F600C056F697EC07F000C04DF6D3
:1056400001C04EF602C04FF603C050F603C070F61C
:1056500002C06FF601C06EF600C06DF60601746BF5
:10566000736B200E726F820E716F0001E2EC0DF011
:1056700003C050F602C04FF601C04EF600C04DF612
:10568000CCEC10F001C09FF5560EA96EA0C5A8FF86
:10569000A69CA69EA684F250006EF29E0F01550EA7
:1056A000A76EAA0EA76EA682A6B2FED7A694005039
:1056B000F212320E0601536F0001A4EC06F0570EF1
:1056C000A96E9FC5A8FFA69CA69EA684F250006E58
:1056D000F29E0F01550EA76EAA0EA76EA682A6B265
:1056E000FED7A6940050F212320E0601536F00014D
:1056F000A4EC06F00501869714C650F613C64FF6C3
:1057000012C64EF611C64DF60601546B536B526B22
:105710007F0E516F0001D3EC08F007E30601146B14
:10572000136B700E126F840E116F18C650F617C6E9
:105730004FF616C64EF615C64DF60601546B536B62
:10574000526B7F0E516F0001D3EC08F007E30601A6
:10575000186B176B700E166F840E156F1CC650F603
:105760001BC64FF61AC64EF619C64DF60601546B07
:10577000536B526B7F0E516F0001D3EC08F007E3BF
:1057800006011C6B1B6B700E1A6F840E196F0601DD
:10579000506B4F6B700E4E6F840E4D6F14C654F6E7
:1057A00013C653F612C652F611C651F60001D3ECD9
:1057B00008F006E30601146B136B126B7F0E116F7A
:1057C0000601506B4F6B700E4E6F840E4D6F18C6F6
:1057D00054F617C653F616C652F615C651F6000112
:1057E000D3EC08F006E30601186B176B166B7F0EFF
:1057F000156F0601506B4F6B700E4E6F840E4D6F20
:105800001CC654F61BC653F61AC652F619C651F6F4
:105810000001D3EC08F007E306011C6B1B6B1A6B4D
:105820007F0E196F0001050197510608D8A498D181
:10583000985302E1040E986F060EEA6E2D0EE96E83
:10584000F2CF4DF6F29E000E0001CCEC04F00A00FF
:105850000900F550EE6E0009FBE106014DBFF28E26
:10586000060E4E6F2D0E4D6F4F6B506B010E516F2C
:10587000020E526F000147EC0CF00501985104082C
:105880000FE1C4C54EF6140E06014F6F280E506F7F
:10589000010E516F020E526F0001E8EC14F00DD0B2
:1058A000C4C54EF6140E06014F6F280E506F516B93
:1058B000020E526F0001E8EC14F005019851030844
:1058C0000EE1C3C54EF6280E06014F6F506F010E54
:1058D000516F020E526F0001E8EC14F00CD0C3C5FA
:1058E0004EF6280E06014F6F506F516B020E526F2D
:1058F0000001E8EC14F00501985102080FE1C2C55F
:105900004EF6460E06014F6F280E506F010E516F76
:10591000020E526F0001E8EC14F00DD0C2C54EF635
:10592000460E06014F6F280E506F516B020E526FDC
:105930000001E8EC14F00501982D0FD0C1C54EF61A
:105940005A0E06014F6F280E506F010E516F020E56
:10595000526F0001E8EC14F00DD0C1C54EF65A0E9E
:1059600006014F6F280E506F516B020E526F0001EF
:10597000E8EC14F0060EEA6E2D0EE96EF2CF4DF64D
:10598000F29E000EDEEC04F00A000900F550EE6E07
:105990000009FBE106014DBFF28E060E4E6F2D0E83
:1059A0004D6F3C0E4F6F2A0E506F020E516F526FAB
:1059B000000147EC0CF0050186A11FD0010E985D97
:1059C000036AC10FE96E050E0320EA6EEFBE03D035
:1059D000EF50080811E31E0E0601536F0001A4ECFE
:1059E00006F0010E0501985D036AC10FE96E050E10
:1059F0000320EA6EEF2A8783869186A31FD0010ECB
:105A0000985D036AC10FE96E050E0320EA6EEFBED2
:105A100014D0EF50000811E21E0E0601536F000172
:105A2000A4EC06F0010E0501985D036AC10FE96E52
:105A3000050E0320EA6EEF068783869386A50AD0BB
:105A40001E0E0601536F0001A4EC06F00501980735
:105A50008783869586A784D0040E06014D6FAF0E0E
:105A6000536F0001A4EC06F006014D2FF8D7010E8C
:105A70000501976F06014E6B000130EC09F0010E35
:105A800005019C6F8783A96AC1C5A8FFA69CA69E35
:105A9000A684F250006EF29E0F01550EA76EAA0E5C
:105AA000A76EA682A6B2FED7A6940050F212320EBE
:105AB0000601536F0001A4EC06F0010EA96EC2C5E9
:105AC000A8FFA69CA69EA684F250006EF29E0F012F
:105AD000550EA76EAA0EA76EA682A6B2FED7A694F2
