:040000000EEF1AF0F5
:08000800046ED8CF05F0E0CF33
:1000100006F00001E9CF0CF0EACF07F0E1CF08F0DD
:10002000E2CF09F0D9CF0AF0DACF0BF0F3CF12F01C
:10003000F4CF13F0FACF14F0F5CF15F0F6CF16F099
:10004000F7CF17F000C00EF001C00FF002C010F0A3
:1000500003C011F09DA030EF00F09EB06FEF05F0EF
:100060000EC000F00FC001F010C002F011C003F08C
:100070000CC0E9FF07C0EAFF078E08C0E1FF09C016
:10008000E2FF0AC0D9FF0BC0DAFF12C0F3FF13C0B2
:10009000F4FF14C0FAFF15C0F5FF16C0F6FF17C035
:1000A000F7FF045006C0E0FF05C0D8FF1000F76A54
:1000B000BE0FF66E000EF7220900F5501200000088
:1000C00000000000005F00000003000300143E1465
:1000D0003E14242A7F2A124333086661364955228A
:1000E000500005030000001C2241000041221C00BA
:1000F00014083E081408083E0808005030000008A4
:1001000008080808006060000020100804023E5142
:1001100049453E0004027F0042615149462241495F
:1001200049361814127F1027454545393E4949493B
:100130003201017109073649494936264949493E84
:100140000036360000005636000008142241001424
:1001500014141414004122140802015109063E41EE
:1001600059555E7E0909097E7F494949363E41411C
:1001700041227F4141413E7F494949417F09090967
:10018000013E4141493A7F0808087F00417F410014
:10019000304040403F7F081422417F404040407F34
:1001A000020C027F7F0204087F3E4141413E7F09ED
:1001B0000909061E2121215E7F0909097600F76AD7
:1001C000CE0FF66E010EF7220900F55012002649F7
:1001D00049493201017F01013F4040403F1F20401B
:1001E000201F7F2010207F41221C22410708700819
:1001F000076151494543007F410000020408102077
:100200000000417F000402010204404040404000E1
:100210000102040020545454787F44444438384444
:10022000444444384444447F385454541804047EAD
:100230000505085454543C7F0804047800447D406C
:10024000002040443D007F1028440000417F4000D2
:100250007C047804787C0804047838444444387C6E
:1002600014141408081414147C007C080404485462
:1002700054542004043F44443C4040207C1C204013
:10028000201C3C4030403C44281028440C50505026
:100290003C4464544C44000836414100007F000057
:1002A00041413608000201020402B80FF66E020E48
:1002B000F7220900F55012000000000000000000C5
:1002C0000000001FFFFFFFFE000000000000000014
:1002D0000000001FFFFFFFFE01C000000000000043
:1002E0000000001C0000000E07F0000000000000ED
:1002F0000000001C0000000E1C9C0000000000001C
:100300000000001C7F00000E180C00000000000020
:100310000000001C4100000E3086000000000000BC
:100320000000001C4100000E2082000000000000C0
:100330000000001C4102000E60830000000000006D
:100340000000001C7F05000E708700000000000008
:100350000000001C0002000E60C30000000000004E
:100360000000001C0000000E2062000000000000E1
:100370000000001C0000000E3026000000000000FD
:100380000000001FFFFFFFFE180C0000000000002F
:100390000000001C0000000E1C9C0000000000007B
:1003A0000000001C0000000E07F00000000000002C
:1003B0000000001C0000000E01C000000000000052
:1003C0000000001C0000000E000000000000000003
:1003D0000000001C0000000E0000000000000000F3
:1003E0000000001C0000000E0000000000000000E3
:1003F0000000001C0000000E0000000000000000D3
:100400000000001C0000000E0000000000000000C2
:100410000000001C001E000E000000000000000094
:100420000000001C00E1C00E000000000000000001
:100430000000001C0180600E0000000000000000B1
:100440000000001C0278100E0000000000000000F8
:100450000000001C067C180E0000000000000000D8
:100460000000001C047C080E0000000000000000DA
:100470000000001C083C040E00000000000000000A
:100480000000001C0810040E0180000000000000A5
:100490000000001C080CE40E0240000000000000F8
:1004A0000000001C082DF40E027000000000000087
:1004B0000000001C0863F40E024000000000000071
:1004C0000000001C08F1E40E03C000000000000062
:1004D0000000001C04F0080E03F000000000000003
:1004E0000000001C04F0080E03C000000000000023
:1004F0000000001C0270100E03C00000000000008D
:100500000000001C0300300E07E0000000000000A7
:100510000000001C00C0C00E0FF000000000000032
:100520000000001C007F800E0BF0000000000000A7
:100530000000001C0000000E0BF000000000000096
:100540000000001C0000000E0FF000000000000082
:100550000000001C0000000E0FF000000000000072
:100560000000001C0000000E07E00000000000007A
:100570000000001C0000000E03C00000000000008E
:100580000000001C0000000E000000000000000041
:100590000000001C0000000E000000000000000031
:1005A0000000001C0000000E000000000000000021
:1005B0000000001C0000000E000000000000000011
:1005C0000000001C0000000E000000000000000001
:1005D0000000001C0000000E0000000000000000F1
:1005E0000000001C0000000E0000000000000000E1
:1005F0000000001C0000000E0000000000000000D1
:100600000000001FFFFFFFFE0000000000000000D0
:100610000000001FFFFFFFFE0000000000000000C0
:100620000000001FFFFFFFFE0000000000000000B0
:1006300000000000000000000000000000000000BA
:1006400000000000000000000000000000000000AA
:10065000000000000000000000000000000000009A
:10066000000000000000000000000000000000008A
:10067000000000000000000000000000000000007A
:10068000000000000000000000000000000000006A
:10069000000000000000000000000000000000005A
:1006A000000000000000000000000000000000004A
:1006B0000000000000000000F76AC80FF66E060E8A
:1006C000F7220900F55012004A5020496E676C6FFE
:1006D00062616C00F76AE40FF66E060EF7220900FD
:1006E000F550120020202020496E63756261646F0E
:1006F00072610000F76A040FF66E070EF722090018
:10070000F5501200202020205265667269676572DC
:1007100061646100F76A240FF66E070EF722090084
:10072000F55012002020203232204C747300F76AFA
:100730003E0FF66E070EF7220900F55012004361D6
:100740007267616E646F2E2E0000F76A5A0FF66EA4
:10075000070EF7220900F5501200436C6176650020
:10076000F76A700FF66E070EF7220900F5501200B7
:10077000436F7272656374610000F76A8A0FF66EE8
:10078000070EF7220900F5501200496E636F72726E
:10079000656374610000F76AA60FF66E070EF72214
:1007A0000900F55012004D656E750000F76ABC0F28
:1007B000F66E070EF7220900F5501200496E6963C4
:1007C0006961722050726F6365736F00F76ADC0FA6
:1007D000F66E070EF7220900F550120054656D7091
:1007E0006572617475726100F76AF80FF66E070E34
:1007F000F7220900F550120054656D706F72697A26
:1008000061646F720000F76A160FF66E080EF72229
:100810000900F550120043616D62696F20436C61FD
:1008200076650000F76A340FF66E080EF7220900AD
:10083000F5501200436F6E74696E75617200F76A4D
:100840004E0FF66E080EF7220900F55012005349BC
:100850000000F76A620FF66E080EF7220900F550E5
:1008600012004E4F0000F76A760FF66E080EF72260
:100870000900F55012004300F76A880FF66E080E63
:10088000F7220900F550120054656D706F72697A95
:100890006100F76AA20FF66E080EF7220900F55004
:1008A00012003A00F76AB40FF66E080EF72209003C
:1008B000F5501200436C617665204E7565766100D7
:1008C000F76AD00FF66E080EF7220900F5501200F5
:1008D0005374617475733A436F6E74726F6C616EAA
:1008E000646F0000F76AF40FF66E080EF722090035
:1008F000F55012005374617475733A456E667269EF
:10090000616E646F0000F76A160FF66E090EF7222B
:100910000900F55012005374617475733A43616CA9
:10092000656E74616E646F00F76A380FF66E090EBB
:10093000F7220900F55012005374617475733A5030
:1009400061757361646F0000F76A580FF66E090EE7
:10095000F7220900F55012005374617475733A411F
:100960006C61726D612030310000F76A7A0FF66EAB
:10097000090EF7220900F550120054656D703A0017
:10098000F76A900FF66E090EF7220900F550120073
:100990002500F76AA20FF66E090EF7220900F5503E
:1009A000120054696D653A00F76AB80FF66E090EC9
:1009B000F7220900F550120028483A4D2900F76A3D
:1009C000CE0FF66E090EF7220900F550120053748F
:1009D000617475733A46696E616C697A61646F001F
:1009E000F76AF00FF66E090EF7220900F5501200B3
:1009F00052656772657361720000F76A0A0FF66EDE
:100A00000A0EF7220900F550120047616E616E630D
:100A100069610000F76A240FF66E0A0EF7220900DA
:100A2000F5501200546369636C6F0000F76A3C0F65
:100A3000F66E0A0EF7220900F5501200416A75732E
:100A40007465202B0000F76A560FF66E0A0EF72227
:100A50000900F5501200416A75737465202D00007D
:100A6000F76A700FF66E0A0EF7220900F5501200B1
:100A70004D65646961204D6F76696C00F76A8C0F73
:100A8000F66E0A0EF7220900F5501200436F6566F4
:100A9000696369656E746500F76AA80FF66E0A0EE1
:100AA000F7220900F5501200416A75737465000061
:100AB000F76AC00FF66E0A0EF7220900F550120011
:100AC000416A757374656E00F76AD80FF66E0A0E88
:100AD000F7220900F55012004D6564696100150E9A
:100AE000CF6EA00ECE6E0501A12BD8B4A22BA32BE6
:100AF000D8B4A42BA52BD8B4A62BA25303E1A151A3
:100B0000C70816E2A26BA16B9389962B9D2B8E2BA7
:100B1000938B94AD03D0AB2BD8B4AC2B9F2D03D0CB
:100B2000A72BD8B4A82B94A903D0A92BD8B4AA2B4F
:100B300092531DE0A651B05D0BE303E1AF51A55DFB
:100B400007E28B8094908B8294928B94949406D03D
:100B50008B9094908B9294928B949494B251A65DC6
:100B600006E303E1B151A55D02E3A66BA56B9E9080
:100B7000000130EF00F0060EEA6E450EE96EEF5010
:100B80000EE00F0E016E006A002EFED7012EFBD77D
:100B90008F0E006E002EFED70000EF2EF2D712004F
:100BA0008E0E006E46C601F045C602F0036A015281
:100BB00009E102C001F0026A080E005E015202E182
:100BC000006A08D0D89001BE04D002360136000673
:100BD000F9D7019E120040C647F606014451471B53
:100BE00047AF05D0D894D89040BFD8802FD040C60A
:100BF00047F643C648F63F51485F06E047AF26D068
:100C0000D850010AD86E22D044C648F64051485FF9
:100C100006E047AF1BD0D850010AD86E17D045C6A2
:100C200048F64151485F06E047AF10D0D850010A5E
:100C3000D86E0CD046C648F64251485F06E047AF32
:100C400005D0D850010AD86E01D0D890000112000A
:100C50000601575303E093928A8202D093908A80D0
:100C600093988A98956A58C68CFF100E006E002ED5
:100C7000FED7000093968A86530E006E002EFED794
:100C800093968A9693908A9093928A92000112008A
:100C90000601436B190E426F020E456F190E446F29
:100CA0004051FF0DF3CF41F6476B466B47510108AA
:100CB0001AE343C603F04251422BD8B4432BE96EEA
:100CC00003C0EAFF41C6EFFF45C603F04451442B81
:100CD000D8B4452BE96E03C0EAFF41C6EFFF462BAF
:100CE000D8B4472BE3D7000112000601536B190E4D
:100CF000526F020E556F190E546F506B505107080A
:100D00004AE3939A8A9A576B400E586F0001A0DF0E
:100D1000010E0601576F400E586F000199DF060162
:100D20005051B809566F576B586F000191DF06019B
:100D30005051B809566F010E576F56C658F600014C
:100D400087DF939A8A8A0601516B51513F0821E34C
:100D500053C603F05251522BD8B4532BE96E03C043
:100D6000EAFFEFCF58F6576B000172DF060155C658
:100D700003F05451542BD8B4552BE96E03C0EAFF4D
:100D8000EFCF58F6010E576F000162DF0601512BBD
:100D9000DCD7502BB3D70001120093948A8493962A
:100DA0008A9693908A9093928A92939A8A9A06014D
:100DB000576BC00E586F00014BDF010E0601576FD5
:100DC000C00E586F000144DF0601576B400E586F8C
:100DD00000013EDF010E0601576F400E586F000103
:100DE00037DF0601576BB80E586F000131DF010E77
:100DF0000601576FB80E586F00012ADF06013F2D1C
:100E00000ED0576B3F0E586F000122DF010E060116
:100E1000576F3F0E586F00011BDF0DD00601576B57
:100E20003E0E586F000114DF010E0601576F3E0E93
:100E3000586F00010DDF0601406B000129DF55DF0F
:100E400012000601736B6E31726F723372331F0EB4
:100E50007217723773377237733772377337723767
:100E600073377237733772377337C00E72176D511D
:100E70007227000E73236D513F080DE2190E722583
:100E8000746F020E7321756F400E745D706F000EEB
:100E90007559716F06D0190E7225706F000E73218F
:100EA000716F6F5315E071C603F070C6E9FF71C62C
:100EB000EAFF6E51070B746F010E006E7451016EE4
:100EC00004E0D8900036012EFCD70050EF1215D068
:100ED00071C603F070C6E9FF71C6EAFF6E51070BD9
:100EE000746F010E006E7451016E04E0D8900036EC
:100EF000012EFCD70050FF0AEF160001120055C664
:100F000003F0060154C6E9FF55C6EAFFEF52D8B414
:100F1000C3D055C603F054C6E9FF55C6EAFFEF50EB
:100F2000520820E354C6E9FF55C6EAFF200EEF5CE5
:100F3000050DF350036A616F060EEA6E5C0EE96EF2
:100F4000656B61C664F6050E016EF76A61510001BA
:100F500057EC00F00A000900F5CFEEFF012EFBD799
:100F600030D0060155C603F054C6E9FF55C6EAFF66
:100F7000EF507E0820E354C6E9FF55C6EAFF530E42
:100F8000EF5C050DF350036A616F060EEA6E5C0EAE
:100F9000E96E656B61C664F6050E016EF76A615114
:100FA0000001DFEC00F00A000900F5CFEEFF012E92
:100FB000FBD707D006015C6B5D6B5E6B5F6B606B94
:100FC000000155C603F006015451E96E03C0EAFF63
:100FD000EF500A0A000103E0070A09E00CD00601FD
:100FE0005651070DF350010F53274FD00001060152
:100FF000526B4BD0000106015651050DF35052259E
:101000007F0806E2526B5651070DF350010F53272C
:10101000586B5851040839E3596B5951060831E3AC
:10102000036A58515C0FE96E060E0320EA6EEFCF9B
:1010300000F05951016E04E0D8900032012EFCD727
:1010400000A01DD05A6B56515A5D19E25B6B565188
:101050005B5D13E25B515225616F59515603F350AA
:1010600053255A25626F61C66DF66E6F57C66FF6CF
:101070000001E7DE06015B2BEAD75A2BE4D7592B98
:10108000CCD7582B56515227C4D7542BD8B4552BF4
:10109000522B000134D7060100011200010E060197
:1010A000666F676F6C6B5D515F5D6D6F6D516DAF9E
:1010B00003D0000ED8806D55036A646F03C065F6D7
:1010C0005E51605D6D6F6D516DAF03D0000ED880C5
:1010D0006D55036A626F03C063F65D515F5D01E2A7
:1010E00066695E51605D01E267696351655D3AE37F
:1010F00003E16251645D36E3D8906237633764512F
:10110000625D006E6551635900C068F6696F645195
:10111000685D6A6F655169596B6F655303E16C5186
:10112000645D1FE35DC66DF65EC66EF661C66FF662
:10113000000187DE060169AF08D06251682763515C
:10114000692366515D255D6F0AD06A5168276B512E
:10115000692366515D255D6F67515E255E6F6C2B5F
:10116000DCD735D0D890643765376251645D006E46
:101170006351655900C068F6696F6251685D6A6FB6
:10118000635169596B6F635303E16C51625D1FE3F7
:101190005DC66DF65EC66EF661C66FF6000151DE85
:1011A000060169AF08D0645168276551692367510A
:1011B0005E255E6F0AD06A5168276B5169236651BC
:1011C0005D255D6F67515E255E6F6C2BDCD700017E
:1011D0001200060156532EE05451525D05E252C6EC
:1011E00059F654C65AF604D054C659F652C65AF6A1
:1011F0005551535D05E253C65BF655C65CF604D007
:1012000055C65BF653C65CF659515A5D12E35BC690
:1012100058F658515C5D0BE359C66DF658C66EF62C
:1012200057C66FF600010DDE0601582BF2D7592B79
:10123000EBD72ED052C65DF653C65EF654C65FF6A7
:1012400053C660F657C661F6000128DF52C65DF648
:1012500055C65EF654C65FF655C660F657C661F6CB
:101260001DDF52C65DF653C65EF652C65FF655C622
:1012700060F657C661F612DF54C65DF653C65EF6D9
:1012800054C65FF655C660F657C661F607DF06011D
:101290000001120006013FC601F040C603F03FC640
:1012A00045F640C646F6060EEA6E1F0EE96E40C6CB
:1012B000E2FF3FC6E1FFE752E6CFEEFFFCE143511C
:1012C000020814E1010E4125456F010E4225466FCB
:1012D00045C652F6536F060E556F1F0E546F44C627
:1012E00056F6010E576F00010ADE0601432D25D088
:1012F0004451080DF3504225456F526B42C653F6D8
:101300007F0E546F45C655F6010E566F576F00019C
:1013100060DF010E06014125456F010E4225466F33
:1013200045C652F6536F060E556F1F0E546F44C6D6
:1013300056F6576B0001E3DD0601435326E14451A5
:10134000080DF3504225456F526B42C653F67F0E8F
:10135000546F45C655F6010E566F576B000139DFC5
:10136000010E06014125456F010E4225466F45C617
:1013700052F6536F060E556F1F0E546F44C656F645
:10138000010E576F0001BBDD06010001AEDC12004B
:1013900006015551016A545D03E254C600F00CD0B9
:1013A000006A080E566F543700365551005CD8B0AD
:1013B000006E0136562FF7D7000112003EC6EAFF35
:1013C0003DC6E9FF06015CC6EFFFE92AD8B4EA2A68
:1013D000EF6A3D2BD8B43E2B00011200200E06010F
:1013E0004FA9300E506F4EC600F04EAF08D0001E11
:1013F000002A00C04EF62D0E506F4F8F4F810150C6
:101400004EC654F6640E556F0001C2DF00C04EF6A2
:10141000300E01240601516F4EC654F60A0E556F68
:101420000001B6DF300E00240601536F300E012498
:10143000526F50C600F0300E515D04E04F834FBF35
:101440004F8512D050C651F6200E506F300E525DAF
:1014500004E04F814FBF4F8307D0D8A44F8104E1F0
:1014600051C652F6200E516F4FB505D04FB307D07D
:101470004FB109D00CD050C65CF600019FDF51C6B9
:101480005CF600019BDF52C65CF6000197DF53C695
:101490005CF6000193DF58EF0AF0060E06013E6F7E
:1014A000450E3D6F41C64EF6180E4F6F000196D7A0
:1014B0000601442D27D0120E42254E6F180E4325EB
:1014C0004F6F42C652F643C653F64EC654F6556F9A
:1014D000010E566F576F00017CDE020E0601422599
:1014E0004E6F010E43254F6F4EC652F6536F060ED8
:1014F000556F450E546F020E566F576B0001FFDC9F
:1015000026D00601120E42254E6F180E43254F6F4E
:1015100042C652F643C653F64EC654F6556F566B46
:10152000576B000156DE020E060142254E6F010E7A
:1015300043254F6F4EC652F6536F060E556F450E3C
:10154000546F020E566F010E576F0001D8DC120067
:1015500006014035006E0036FC0E001600C001F09A
:10156000C250C30B0010C26E010E456F0001BBECF0
:1015700005F0C282C2B2FED7C4CF46F6C3CF45F64D
:101580000001D0EC05F003C044F602C043F601C0F0
:1015900042F600C041F641C600F042C601F043C623
:1015A00002F044C603F055EF0DF006014051D8B4E7
:1015B000A5D04C6F4451D8B4A1D04C5F05E37F0E49
:1015C0004C27D8B09BD006D0810E4C5FD8A096D0C7
:1015D000D8B494D04CC600F0016A026A036A4B6B1F
:1015E00041C64AF64A8F42C649F643C648F6190E26
:1015F0004C6F4751485F0DE2010E495F0AE24A5FB6
:1016000008E24B5F06E24B2B4A2B492B47514827F8
:1016100028D04651495F12E2010E4A5F0FE24B5F4C
:101620000DE24B2B4A2B465149274751482719E3D6
:10163000492B17E14A2B15E14B2B13D0455180095B
:101640004A5F0EE2010E4B5F0BE24B2B45518009C6
:101650004A2746514927E9E34A2BE7E14B2BE5D7D7
:1016600003804C2F01D00BD0D890483749374A37E8
:101670004B37D8900336023601364D37BAD74DA1D5
:1016800006D0D8900132023203324D3302D0000628
:1016900035E04DBF1ED0D890483749374A374B37D1
:1016A0004751485F07E2010E495F04E24A5F02E2E8
:1016B0004B5F1AE34651495F05E2010E4A5F02E2C1
:1016C0004B5F12E3455180094A5F03E2010E4B5F15
:1016D0000BE3032A09E1022A07E1012A05E1002AB6
:1016E0000DE001320232033241C64CF645514C1B2B
:1016F0004CAF02D0018E06D0019E04D0006A016A70
:10170000026A036A00011200800ED8A202D006010C
:10171000491B06014E6B4F6B45C64DF649514D1B9B
:101720004451D8B4DFD04C6F006E4851D8B4E3D0E8
:101730004C5FD8B483D03EE349C652F6528F4AC6B6
:1017400051F64BC650F64F6BD8905233513350334D
:101750004F334C2FF8D74DAF03D04E81E0D04E9190
:101760004C914E89060EEA6E470EE96EEBD04E990B
:101770004DBF0AD04CA113D05233513350334F33A5
:10178000002AD8B4C7D00BD052BF0CD0D8904F3756
:101790005037513752370006D8B4BCD0F5D74E8DEC
:1017A0006DD04E9D45C64DF645AF02D0528FABD0A1
:1017B000529FA9D048C64CF648C600F044514C5F31
:1017C00045C652F6528F46C651F647C650F64F6B85
:1017D000D8905233513350334F334C2FF8D74DAF4D
:1017E00003D04E839CD04E934C914E8B060EEA6EE6
:1017F0004B0EE96EA7D04E9B4DBF0AD04CA113D023
:101800005233513350334F33002AD8B483D00BD0E6
:1018100052BF0CD0D8904F3750375137523700064F
:10182000D8B478D0F5D74E8F29D04E9F49C64DF603
:1018300049AF02D0528F67D0529F65D049C652F649
:10184000528F4AC651F64BC650F64DAF04D0529F48
:101850004E8565D04E954F6B4C91060EEA6E470E45
:10186000E96E70D04DBF1CD045C64DF64CA106D0D8
:101870005233513350334F33002A4CE04FAF0BD02B
:10188000502B09E1512B07E1522B05E15233513323
:101890005033002A3FE04EBD84D74EBFC6D71CD080
:1018A000800E521B52AF04D03AD049C64DF60AD032
:1018B00045C64DF6525306E1515304E1505302E13F
:1018C000006A21D052BF08D0D8904F3750375137D7
:1018D0005237002EF7D71ED04DAF02D0528F13D003
:1018E000529F11D048C600F049C652F64AC651F67A
:1018F0004BC650F608D044C600F045C652F646C660
:1019000051F647C650F652C601F051C602F050C615
:1019100003F034D0006A016A026A036A2FD04F6B69
:10192000501F511F521F4F1F4F2B05E1502B03E13A
:10193000512B01E1522B4EB112D74EB354D74EB5B5
:1019400089D7B3D7EF50502705E3512B03E1522B32
:10195000D8B44C81ED52EF50512703E3522BD8B449
:101960004C81ED52EF50EFBE01D0800A5227D8B023
:101970004C814EB9FCD64EBB3ED774D70001120045
:10198000060143514503F3CF01F0F4CF00F04603C5
:10199000F350002644514503F3500020026E00012D
:1019A000120006015C51D8B471D0006E6051D8B4F9
:1019B0006DD0002604E3810E002668E204D07F0E7D
:1019C000005E64E363E05DC664F66151641B5D8F95
:1019D000618F5F516303F4CF66F65E516203F4CF0B
:1019E00003F0F3CF65F66303F3506627F4506523E5
:1019F000000E03225F516203F3506627F450652303
:101A0000000E026A032202225D516303F350652730
:101A1000F4500322000E02225D516203F3500326AC
:101A2000F4500222000E016A01225F516103F3505B
:101A30006527F4500322000E022201225E51610349
:101A4000F3500326F4500222000E01225D5161037F
:101A5000F3500226F4500122002A01BE05D065375A
:101A60000336023601360006000E65AF0AD0032A9F
:101A700002220122015005E1025003E1035001E17D
:101A8000002A64BF018E64AF019E04D0006A016A1F
:101A9000026A036A000112000501EA6BE96BE86B58
:101AA000E76B0601406B000153D503C0D2F502C0BD
:101AB000D1F501C0D0F500C0CFF5D2C543F6D1C5F0
:101AC00042F6D0C541F6CFC540F6E10E0601476F9C
:101AD0007A0E466F260E456F840E446F000165DD59
:101AE00003C0D2F502C0D1F501C0D0F500C0CFF5DA
:101AF0000601436BC00E426F7F0E416F880E406F30
:101B0000D2C547F6D1C546F6D0C545F6CFC544F691
:101B100000014BDD03C043F602C042F601C041F6AE
:101B200000C040F6D88203C047F602C046F601C0A6
:101B300045F600C044F606014B6B4A6B496B7F0EBD
:101B4000486F0001E1DDD6C543F6D5C542F6D4C5E0
:101B500041F6D3C540F603C047F602C046F601C0C1
:101B600045F600C044F621DD03C0DAF502C0D9F520
:101B700001C0D8F500C0D7F5D882DAC547F6D9C577
:101B800046F6D8C545F6D7C544F6CD0E06014B6FCF
:101B9000CC0E4A6F4C0E496F7D0E486F0001B4DDCC
:101BA00003C0DAF502C0D9F501C0D8F500C0D7F5F9
:101BB000010E06013F5D05018A5D02E001E38A6BCB
:101BC0000601446B8AC543F6466B040E456F00015F
:101BD000D7DE0150190FE96E040E0220EA6ED7C558
:101BE000EFFFD8C5ECFFD9C5ECFFDAC5ECFF050166
:101BF0008A2B896B06013F510501895D3CE2060194
:101C0000446B89C543F6466B040E456F0001B8DE90
:101C100002C003F00150190FE96E040E0220EA6EB3
:101C2000EFCF48F6ECCF01F0ECCF02F0ECCF03F0B1
:101C3000EACF41F6E9CF40F6D892EAC547F6E9C5C2
:101C400046F6E8C545F6E7C544F603C04BF602C0C4
:101C50004AF601C049F658DD41C6EAFF40C6E9FF31
:101C600003C0EAF502C0E9F501C0E8F500C0E7F5F8
:101C70000501892BBFD70601466B3FC645F600011B
:101C8000D0EC05F0EAC543F6E9C542F6E8C541F6F1
:101C9000E7C540F603C047F602C046F601C045F668
:101CA00000C044F682DC03C0EAF502C0E9F501C0D9
:101CB000E8F500C0E7F5EAC55FF6E9C55EF6E8C5F8
:101CC0005DF6E7C55CF6EAC563F6E9C562F6E8C508
:101CD00061F6E7C560F665DE03C043F602C042F672
:101CE00001C041F600C040F603C05FF602C05EF6D8
:101CF00001C05DF600C05CF616C663F615C662F656
:101D000014C661F613C660F64CDE03C043F602C08B
:101D100042F601C041F600C040F6EAC55FF6E9C5EB
:101D20005EF6E8C55DF6E7C55CF61AC663F619C649
:101D300062F618C661F617C660F633DED89243C65F
:101D400047F642C646F641C645F640C644F603C0CD
:101D50004BF602C04AF601C049F600C048F6D4DC92
:101D600003C043F602C042F601C041F600C040F68F
:101D7000D89203C047F602C046F601C045F600C03F
:101D800044F61EC64BF61DC64AF61CC649F61BC6CF
:101D900048F6BADC03C0EEF502C0EDF501C0ECF583
:101DA00000C0EBF50601466B8BC545F60001D0EC93
:101DB00005F003C043F602C042F601C041F600C080
:101DC00040F60601466B8CC545F60001D0EC05F0E7
:101DD000D88243C647F642C646F641C645F640C6D7
:101DE00044F603C04BF602C04AF601C049F600C0F3
:101DF00048F68ADCD892EEC547F6EDC546F6ECC546
:101E000045F6EBC544F603C04BF602C04AF601C0E6
:101E100049F600C048F678DC03C0EEF502C0EDF5E7
:101E200001C0ECF500C0EBF5EBC500F0ECC501F02E
:101E3000EDC502F0EEC503F01200006A016A06016A
:101E40004851D89049B100260032013249B30026EA
:101E50000032013249B500260032013249B700266E
:101E60000032013249B900260032013249BB002656
:101E70000032013249BD00260032013249BF00263E
:101E800000320132000112000601446B41C645F6E2
:101E9000010ED8804155466F425365E044513F5D85
:101EA000476F45514025486F44513F25496F455183
:101EB00040254A6F47C65DF648C65EF649C65FF6DE
:101EC000606F43C661F600014EEC08F00601445114
:101ED0003F5D476F4551405D486F44513F25496F15
:101EE0004551405D4A6F47C65DF648C65EF649C635
:101EF0005FF6606F43C661F600014EEC08F0060124
:101F000045513F5D476F44514025486F45513F253E
:101F1000496F445140254A6F47C65DF648C65EF694
:101F200049C65FF6606F43C661F600014EEC08F0EB
:101F3000060145513F5D476F4451405D486F455133
:101F40003F25496F4451405D4A6F47C65DF648C61C
:101F50005EF649C65FF6606F43C661F600014EEC5F
:101F600008F078D006013F514425476F4051452580
:101F7000486F47C66DF66E6F43C66FF6000121ECE1
:101F800007F006013F514525476F40514425486FF2
:101F900047C66DF66E6F43C66FF6000121EC07F081
:101FA000060144513F5D476F40514525486F47C684
:101FB0006DF66E6F43C66FF6000121EC07F0060167
:101FC00045513F5D476F40514425486F47C66DF608
:101FD0006E6F43C66FF6000121EC07F006013F511A
:101FE0004525476F4451405D486F47C66DF66E6F9B
:101FF00043C66FF6000121EC07F006013F5144256E
:10200000476F4551405D486F47C66DF66E6F43C6DA
:102010006FF6000121EC07F0060144513F5D476F68
:102020004551405D486F47C66DF66E6F43C66FF60B
:10203000000121EC07F0060145513F5D476F445117
:10204000405D486F47C66DF66E6F43C66FF6000180
:1020500021EC07F0060146AF0ED04451442B476FE8
:10206000020E486F47C649F60001E7DE0150030F34
:102070000601462711D04451442B476F455145076F
:10208000475D476F020E486F47C649F60001D5DE2F
:102090000150050F060146274451800A006E455144
:1020A000800A005CD8B4F8D6D8A0F6D60001120099
:1020B000EACF58F6E9CF57F606015139F009536FC8
:1020C0005327E20F546F320F566F51510F0B5427A5
:1020D00054275627E90F556F5527552750390F0BB1
:1020E0005527562755375637561F563750510F0B21
:1020F00056275337070E526F0A0E55075627FDE332
:1021000054075527FDE353075427FDE35207532790
:10211000FDE3060EEA6E520EE96E070E5715579D47
:10212000E926000EEA22E950560804E1EA500608C2
:1021300001E1578DEF50006E08E157BD06D057B949
:1021400016D057B702D0200E03D057875799300EBC
:102150000026EACF51F6E9CF50F600C05CF6000148
:10216000DEEC09F051C6EAFF50C6E9FF0601EE5069
:1021700057ADD9D7000112000601455102083AE1D6
:10218000060E3E6F470E3D6F0A0EE96E42C651F6CF
:1021900041C650F600018CDF06014651120DF35086
:1021A0004325506F4651080DF3504425516F43C6E7
:1021B00052F644C653F650C654F6556F010E566F8C
:1021C000576F0001E9EC08F0010E06014325506F3E
:1021D000010E4425516F50C652F6536F060E556FCF
:1021E000470E546F46C656F6576B00017FEC07F05A
:1021F0009DD00601060E3E6F470E3D6F0A0EE96E3A
:1022000042C651F641C650F6000152DF0601455163
:1022100004082DE14651100DF3504325506F4651EF
:10222000080DF3504425516F43C652F644C653F689
:1022300050C654F6556F010E566F576B0001E9EC0E
:1022400008F0010E06014325506F010E4425516F21
:1022500050C652F6536F060E556F470E546F46C662
:1022600056F6010E576F00017FEC07F00601452D71
:102270002CD04651050DF3504325506F4651080DA3
:10228000F3504425516F43C652F644C653F650C628
:1022900054F6556F010E566F576F0001E9EC08F0C8
:1022A000010E06014325506F010E4425516F50C6A3
:1022B00052F6536F060E556F470E546F46C656F6CC
:1022C000576B00017FEC07F006014553D8A42DD0D1
:1022D0004651050DF3504325506F4651080DF350FC
:1022E0004425516F43C652F644C653F650C654F6C1
:1022F000556F010E566F576B0001E9EC08F0010EA7
:1023000006014325506F010E4425516F50C652F609
:10231000536F060E556F470E546F46C656F6010EA4
:10232000576F00017FEC07F00601000175EC06F025
:10233000120001504EC654F6640E0601556F00019E
:10234000C8EC09F000C04EF60150300E08E106015D
:102350004FA310D04FB70ED04FB9200E04D00601B6
:102360004F974F994F81012601C05CF60001DEECCA
:1023700009F006014EC654F60A0E556F0001C8EC6E
:1023800009F000C04EF60150300E08E106014FB7CB
:102390000BD04FA109D04FB9200E0001012601C07A
:1023A0005CF6DEEC09F00601300E4E274EC65CF6F8
:1023B0000001DEEC09F0120006014351020838E189
:1023C000060E3E6F450E3D6F40C64EF6030E4F6F34
:1023D0000001AFDF06014451120DF35041254E6F4D
:1023E0004451080DF35042254F6F41C652F642C684
:1023F00053F64EC654F6556F010E566F576F0001D7
:10240000E9EC08F0010E060141254E6F010E422550
:102410004F6F4EC652F6536F060E556F450E546FF2
:1024200044C656F6576B00017FEC07F0A6D00601B4
:102430004351030838E1060E3E6F450E3D6F40C61E
:102440004EF6030E4F6F000174DF06014451120D6A
:10245000F35041254E6F4451080DF35042254F6F04
:1024600041C652F642C653F64EC654F6556F010E9B
:10247000566F576B0001E9EC08F0010E060141258B
:102480004E6F010E42254F6F4EC652F6536F060E29
:10249000556F450E546F44C656F6010E576F000136
:1024A0007FEC07F00601060E3E6F450E3D6F40C6FD
:1024B0004EF61B0E4F6F00013CDF0601432D2CD062
:1024C0004451050DF35041254E6F4451080DF35012
:1024D00042254F6F41C652F642C653F64EC654F6D9
:1024E000556F010E566F576F0001E9EC08F0010EB1
:1024F000060141254E6F010E42254F6F4EC652F622
:10250000536F060E556F450E546F44C656F6576B03
:1025100000017FEC07F006014353D8A42DD04451AD
:10252000050DF35041254E6F4451080DF3504225DF
:102530004F6F41C652F642C653F64EC654F6556F1B
:10254000010E566F576B0001E9EC08F0010E060111
:1025500041254E6F010E42254F6F4EC652F6536F06
:10256000060E556F450E546F44C656F6010E576F52
:1025700000017FEC07F00601000175EC06F0120087
:1025800006013F5105084DE1406B40513F0849E3CA
:10259000416B41510F0843E3070E426F4251800ADD
:1025A0007F083BE2446B40C643F6466B100E456F16
:1025B0000001C0EC0CF002C044F601C043F6060175
:1025C00041510124016E000E0220036E015003C030
:1025D000F7FF000155EC01F00601436F070ED880AC
:1025E0004255446F43C600F04451016E04E0D89058
:1025F0000032012EFCD700A00ED04151080DF3503F
:102600004225436F6D6F40C66EF6010E6F6F00017D
:1026100021EC07F006014207C1D7412BBAD7402B66
:10262000B4D70001D8EF29F005019551040DF350FE
:10263000036A810FE96E050E0320EA6E07C6EFFFFD
:1026400008C6ECFF09C6ECFF0AC6ECFF952B9551B6
:1026500001081EE2956BD88288C547F687C546F605
:1026600086C545F685C544F684C54BF683C54AF64E
:1026700082C549F681C548F6000184EC0BF003C021
:1026800006F602C005F601C004F600C003F6050117
:1026900000016FEF13F08E0E006E06013F51005ED9
:1026A00040C602F041C601F0028E005209E0D89007
:1026B000025202E1015204E002320132002EF7D749
:1026C00040AF05D0011E021E012AD8B4022A000123
:1026D000120005018E51270804E20001A5D705016B
:1026E0008E6B972DECD1AEC546F6ADC545F6000113
:1026F000D0EC05F0D88203C047F602C046F601C010
:1027000045F600C044F6FEC54BF6FDC54AF6FCC5CD
:1027100049F6FBC548F684EC0BF003C042F602C054
:1027200041F601C040F600C03FF6D88203C047F62C
:1027300002C046F601C045F600C044F60AC64BF694
:1027400009C64AF608C649F607C648F684EC0BF0F7
:1027500003C0E6F502C0E5F501C0E4F500C0E3F50D
:102760000601426B416B800E406F7F0E3F6FE6C5E6
:1027700046F6E5C545F6E4C544F6E3C543F6000173
:10278000EBEC05F046E3CD0E0601426FCC0E416F37
:10279000406F7C0E3F6F06C646F605C645F604C67A
:1027A00044F603C643F60001EBEC05F032E3B6C590
:1027B00042F6B5C541F6B4C540F6B3C53FF60601CD
:1027C000466B456B340E446F850E436F0001EBEC96
:1027D00005F01FE305019D514F081CE29D6BD89247
:1027E000F6C547F6F5C546F6F4C545F6F3C544F615
:1027F00006014B6B4A6B496B7E0E486F000184ECFF
:102800000BF003C0F6F502C0F5F501C0F4F500C009
:10281000F3F505010601426B416B406B3F6BE6C56A
:1028200046F6E5C545F6E4C544F6E3C543F60001C2
:10283000EBEC05F006E30501E66BE56BE46BE36B9F
:102840000001E6C55FF6E5C55EF6E4C55DF6E3C5E5
:102850005CF60601636B626B800E616F7F0E606FCA
:102860000001D1EC0CF003C0E6F502C0E5F501C0B3
:10287000E4F500C0E3F5F6C542F6F5C541F6F4C54A
:1028800040F6F3C53FF60601466B456B446B7E0E82
:10289000436F0001EBEC05F007E30501F66BF56B08
:1028A000F46B7E0EF36F0001BEC542F6BDC541F666
:1028B000BCC540F6BBC53FF6F6C546F6F5C545F6C0
:1028C000F4C544F6F3C543F6EBEC05F008E3BEC5EA
:1028D000F6F5BDC5F5F5BCC5F4F5BBC5F3F5E6C524
:1028E0005FF6E5C55EF6E4C55DF6E3C55CF6F6C5E4
:1028F00063F6F5C562F6F4C561F6F3C560F6D1EC92
:102900000CF003C0F2F502C0F1F501C0F0F500C013
:10291000EFF5AEC546F6ADC545F6D0EC05F003C003
:1029200042F602C041F601C040F600C03FF6F2C5D3
:1029300046F6F1C545F6F0C544F6EFC543F6EBECB7
:1029400005F00EE3AEC546F6ADC545F6D0EC05F094
:1029500003C0F2F502C0F1F501C0F0F500C0EFF5DB
:10296000F2C542F6F1C541F6F0C540F6EFC53FF6B7
:102970000601466B456B446B436B0001EBEC05F0C5
:1029800006E30501F26BF16BF06BEF6B0001AEC576
:1029900046F6ADC545F6D0EC05F0F2C543F6F1C5F7
:1029A00042F6F0C541F6EFC540F603C047F602C057
:1029B00046F601C045F600C044F6D5EC0AF003C067
:1029C00042F602C041F601C040F600C03FF603C027
:1029D0005FF602C05EF601C05DF600C05CF6DEC5C3
:1029E00063F6DDC562F6DCC561F6DBC560F6D1ECE9
:1029F0000CF003C0E2F502C0E1F501C0E0F500C053
:102A0000DFF5DEC543F6DDC542F6DCC541F6DBC5C4
:102A100040F60A0E0601476FD70E466F230E456F2C
:102A2000770E446F0001D5EC0AF003C042F602C0F5
:102A300041F601C040F600C03FF62DDE0250036EA5
:102A40000501A65D06E303E10150A55D02E3A66B67
:102A5000A56BE2C543F6E1C542F6E0C541F6DFC528
:102A600040F60A0E0601476FD70E466F230E456FDC
:102A7000770E446F0001D5EC0AF003C042F602C0A5
:102A800041F601C040F600C03FF605DE02C003F08B
:102A900001500501A651025C0BE303E1A551015C65
:102AA00007E38B8094908B9294928B84949406D0BD
:102AB0008B9094908B9294928B9494942CD3AEC5DB
:102AC00046F6ADC545F60001D0EC05F0D892FEC53E
:102AD00047F6FDC546F6FCC545F6FBC544F603C002
:102AE0004BF602C04AF601C049F600C048F684EC35
:102AF0000BF003C042F602C041F601C040F600C030
:102B00003FF6D88203C047F602C046F601C045F63C
:102B100000C044F60AC64BF609C64AF608C649F68E
:102B200007C648F684EC0BF003C0E6F502C0E5F5F5
:102B300001C0E4F500C0E3F5CD0E0601426FCC0EF6
:102B4000416F4C0E406F7F0E3F6FE6C546F6E5C500
:102B500045F6E4C544F6E3C543F60001EBEC05F0A9
:102B6000D8A0BED0E6C542F6E5C541F6E4C540F6BC
:102B7000E3C53FF60601466B456B700E446F830E4E
:102B8000436F0001EBEC05F0D8A0AAD006C642F6D0
:102B900005C641F604C640F603C63FF69A0E060186
:102BA000466F990E456F190E446F7D0E436F0001FD
:102BB000EBEC05F0D8A094D00501939D939FB6C58A
:102BC00042F6B5C541F6B4C540F6B3C53FF60601B9
:102BD000466B456B340E446F850E436F0001EBEC82
:102BE00005F0D8A07DD005019D514F08D8B079D00F
:102BF0009D6B06C642F605C641F604C640F603C6FE
:102C00003FF60601466B456B800E446F7E0E436FA8
:102C10000001EBEC05F01BE3D892F6C547F6F5C5CD
:102C200046F6F4C545F6F3C544F606014B6B4A6B10
:102C3000496B800E486F000184EC0BF003C0F6F581
:102C400002C0F5F501C0F4F500C0F3F549D006C6A1
:102C500042F605C641F604C640F603C63FF6CD0E61
:102C60000601466FCC0E456F446F7B0E436F00012B
:102C7000EBEC05F01BE3D892F6C547F6F5C546F632
:102C8000F4C545F6F3C544F606014B6B4A6B496B38
:102C90007F0E486F000184EC0BF003C0F6F502C014
:102CA000F5F501C0F4F500C0F3F51AD0D892F6C5D9
:102CB00047F6F5C546F6F4C545F6F3C544F60601F4
:102CC0004B6B4A6B496B7E0E486F000184EC0BF036
:102CD00003C0F6F502C0F5F501C0F4F500C0F3F548
:102CE0000501E6C542F6E5C541F6E4C540F6E3C593
:102CF0003FF60601466B456B446B436B0001EBEC02
:102D000005F035E3AEC546F6ADC545F6D0EC05F0A9
:102D100003C043F602C042F601C041F600C040F6CF
:102D20000601476B466B140E456F840E446F00011D
:102D3000D5EC0AF006015F6B5E6B5D6B800E5C6F1D
:102D400003C063F602C062F601C061F600C060F61F
:102D50000001D1EC0CF003C0F6F502C0F5F501C09E
:102D6000F4F500C0F3F50501939D939F0001F6C5AE
:102D700042F6F5C541F6F4C540F6F3C53FF6060147
:102D8000466B456B446B7E0E436F0001EBEC05F028
:102D900007E30501F66BF56BF46B7E0EF36F000134
:102DA000BEC542F6BDC541F6BCC540F6BBC53FF643
:102DB000F6C546F6F5C545F6F4C544F6F3C543F643
:102DC000EBEC05F008E3BEC5F6F5BDC5F5F5BCC5F1
:102DD000F4F5BBC5F3F5E6C542F6E5C541F6E4C535
:102DE00040F6E3C53FF60601466B456B446B436B0B
:102DF0000001EBEC05F006E30501E66BE56BE46B27
:102E0000E36B0001E6C55FF6E5C55EF6E4C55DF679
:102E1000E3C55CF6F6C563F6F5C562F6F4C561F682
:102E2000F3C560F6D1EC0CF003C0F2F502C0F1F589
:102E300001C0F0F500C0EFF5AEC546F6ADC545F6EC
:102E4000D0EC05F003C042F602C041F601C040F6E6
:102E500000C03FF6F2C546F6F1C545F6F0C544F6AA
:102E6000EFC543F6EBEC05F00EE3AEC546F6ADC597
:102E700045F6D0EC05F003C0F2F502C0F1F501C053
:102E8000F0F500C0EFF5F2C542F6F1C541F6F0C528
:102E900040F6EFC53FF60601466B456B446B436B4E
:102EA0000001EBEC05F006E30501F26BF16BF06B52
:102EB000EF6B0001AEC546F6ADC545F6D0EC05F0AA
:102EC000F2C543F6F1C542F6F0C541F6EFC540F64E
:102ED00003C047F602C046F601C045F600C044F6FE
:102EE000D5EC0AF003C042F602C041F601C040F63C
:102EF00000C03FF603C05FF602C05EF601C05DF69B
:102F000000C05CF6DEC563F6DDC562F6DCC561F6C1
:102F1000DBC560F6D1EC0CF003C0E2F502C0E1F5D0
:102F200001C0E0F500C0DFF5E6C542F6E5C541F6B3
:102F3000E4C540F6E3C53FF6CD0E0601466FCC0E64
:102F4000456F4C0E446F7F0E436F0001EBEC05F0B4
:102F5000D8A081D0E6C542F6E5C541F6E4C540F605
:102F6000E3C53FF6660E0601466F456F260E446FB9
:102F70007F0E436F0001EBEC05F001E20DE105016E
:102F800093BD09D0E2C512F6E1C511F6E0C510F611
:102F9000DFC50FF6938D0001E6C542F6E5C541F6A3
:102FA000E4C540F6E3C53FF6660E0601466F456F81
:102FB000446F7E0E436F0001EBEC05F001E20DE182
:102FC000050193BF09D0E2C5BAF5E1C5B9F5E0C581
:102FD000B8F5DFC5B7F5938F0001050193AF1DD09C
:102FE000E2C542F6E1C541F6E0C540F6DFC53FF671
:102FF000BAC546F6B9C545F6B8C544F6B7C543F6F1
:103000000001EBEC05F008E3BAC5E2F5B9C5E1F55E
:10301000B8C5E0F5B7C5DFF5050193AD1DD012C603
:1030200042F611C641F610C640F60FC63FF6E2C59D
:1030300046F6E1C545F6E0C544F6DFC543F60001B6
:10304000EBEC05F008E312C6E2F511C6E1F510C697
:10305000E0F50FC6DFF50501DEC543F6DDC542F636
:10306000DCC541F6DBC540F60A0E0601476FD70EF8
:10307000466F230E456F770E446F0001D5EC0AF0C2
:1030800003C042F602C041F601C040F600C03FF660
:103090004BEC13F00250036E0501A65D06E303E15D
:1030A0000150A55D02E3A66BA56BE2C543F6E1C541
:1030B00042F6E0C541F6DFC540F60A0E0601476F4D
:1030C000D70E466F230E456F770E446F0001D5EC87
:1030D0000AF003C042F602C041F601C040F600C04B
:1030E0003FF64BEC13F002C003F001500501A6516E
:1030F000025C0BE303E1A551015C07E38B80949034
:103100008B8294928B94949406D08B9094908B9213
:1031100094928B9494940001120006015C51B608BD
:103120005C6F036A5DC660F65D8FD8905D335E3379
:103130005F3303320232013200325C2FF6D760AFC8
:103140000BD0001E011E021E031E002AD8B4012A45
:10315000D8B4022AD8B4032A000125EF19F0D8B256
:1031600004D0060EEA6E640EE96E006A016A026A15
:10317000036A0601646B656B666B676B6351621172
:10318000611160112CE0200E686FD8905C375D37BC
:103190005E375F3764376537663767376351675D1A
:1031A00008E16251665D05E16151655D02E16051D2
:1031B000645D0FE36051645F6151D8A0613D655F5C
:1031C0006251D8A0623D665F6351D8A0633D675FDE
:1031D000D8800036013602360336682FD6D764C64B
:1031E000EFFF65C6ECFF66C6ECFF67C6ECFF0001AB
:1031F0001200E9500601546F5351566F1CE052C63D
:103200005FF651C65EF650C65DF64FC65CF6636B60
:10321000626B200E616F820E606F0001D1EC0CF0CA
:1032200003C052F602C051F601C050F600C04FF67E
:103230000601562FE4D752C65FF651C65EF650C659
:103240005DF64FC65CF6000168D703C052F602C0B7
:1032500051F601C050F600C04FF6060152AF0DD036
:103260005407548B4F1F501F511F521F4F2BD8B460
:10327000502BD8B4512BD8B4522B3B0E5B6F9A0E07
:103280005A6FCA0E596F586B0A0E566F5351D8B405
:10329000542BD882060EEA6E4F0EE96E52C65FF6C8
:1032A00051C65EF650C65DF64FC65CF65BC663F669
:1032B0005AC662F659C661F658C660F600014FDF7D
:1032C0000150005213E106015329565DD8A402D0E3
:1032D00000010CD054510DE00F0B565D01E044E2AB
:1032E00054BF42D054BD05D0200E37D0200E060169
:1032F000541754AB0FD0549B5351D8A454070050CB
:10330000546F2D0E5C6F0001DEEC09F00601545184
:10331000006E546B5351565D0DE10050546F2E0EEC
:103320005C6F0001DEEC09F006015451006E200EC6
:103330005417000E300E54AB10D0549B5351D8A4E8
:1033400054070050546F2D0E5C6F0001DEEC09F045
:1033500006015451006E546B300E002600C05CF61E
:103360000001DEEC09F00601D8925BC65FF65AC692
:103370005EF659C65DF658C65CF6636B626B616BB0
:103380000A0E606F0001EBDE03C05BF602C05AF666
:1033900001C059F600C058F60601562F7AD7000131
:1033A000E5EF19F0060E06013E6F460E3D6F420E28
:1033B000E96E42C652F641C651F640C650F63FC6C7
:1033C0004FF6010E536F000114D7060145511B0D36
:1033D000F35043254F6F4551080DF3504425506F6E
:1033E00043C652F644C653F64FC654F6556F010E07
:1033F000566F576B0001E9EC08F043C652F644C61D
:1034000053F6060E0601556F460E546F45C656F626
:10341000010E576F00017FEC07F01200F86AD09E92
:10342000078E0501896B8A6B8B6B8C6B0A0E8D6F17
:103430008E6B8F6B906B916B926B93919393939533
:1034400093879399939B939D939F94919493949531
:1034500094979499949B949D949F956B966B976B7E
:10346000986B010E996F9A6B9B6B9C6B9D6B9E6F1B
:103470009F6BA06BA26BA16BA46BA36BA66BA56BE0
:10348000A86BA76BAA6BA96BAC6BAB6BAE6BAD6B90
:10349000B06BAF6BB26BB16BB66BB56BB46BB36B40
:1034A000BA6BB96BB86BB76BBE6BBD6BBC6BBB6BF0
:1034B000D26BD16BD06BCF6BD66B100ED56F420E2B
:1034C000D46F8B0ED36FDE6BDD6B200EDC6F820E44
:1034D000DB6FE26BE16BE06BDF6BE66BE56BE46B84
:1034E000E36BEA6BE96BE86BE76BEE6BED6BEC6B38
:1034F000EB6BF26BF16BF06BEF6BF66BF56B480EF1
:10350000F46F830EF36FFA6BF96B200EF86F830E76
:10351000F76FFE6BFD6BFC6B7F0EFB6F0601026BA2
:10352000016B160E006F860E0501FF6F0601066B1C
:10353000056B046B036B0A6B096B086B076B0E6BF7
:103540000D6B200E0C6F820E0B6F126B116B106BDC
:103550000F6BE00E166F2D0E156F100E146F750E9B
:10356000136F1A69210E196F150E186F800E176FE1
:10357000820E1E6F120E1D6FF40E1C6F860E1B6FD7
:103580003E6B3D6BC150C00B0F09C16E070EB46E90
:1035900006D0FF44190071C0001045BF0000000EA6
:1035A000F86E350EF76E920EF66E0900F550006E4D
:1035B000000A13E00900F550016EE8BE05D00F0BBC
:1035C000EA6E0900F5CFE9FF01BC090001AC090072
:1035D000F5CFEEFF004EE9D7F9D7F86A040E3F6F3A
:1035E000FA0E456F0001BBEC05F006013F2FF8D73E
:1035F0008B9094908B9494948B9294928B9C949CAB
:10360000850ECD6E9D80C150C00B0E09C16EC0509D
:10361000C00B0609C06EC08EC280C00EF212F2CF7F
:103620003FF6F29EA96AA69CA69EA680A8503FBF20
:10363000F28E0501C36F320E0601456F0001BBEC2F
:1036400005F0F2CF3FF6F29E010EA96EA69CA69E53
:10365000A680A85006013FBFF28E0501C46F320E4E
:103660000601456F0001BBEC05F0F2CF3FF6F29E7C
:10367000020EA96EA69CA69EA680A85006013FBF7A
:10368000F28E0501C56F320E0601456F0001BBECDD
:1036900005F0F2CF3FF6F29E030EA96EA69CA69E01
:1036A000A680A85006013FBFF28E0501C66F320EFC
:1036B0000601456F0001BBEC05F0F2CF3FF6F29E2C
:1036C000510EA96EA69CA69EA680A85006013FBFDB
:1036D000F28E406FF2CF41F6F29E500EA96EA69C7C
:1036E000A69EA680A85041BFF28E426F40C6AEF59E
:1036F00042C6ADF5320E456F0001BBEC05F0F2CFCE
:103700003FF6F29E0A0EA96EA69CA69EA680A85021
:1037100006013FBFF28E0501CB6F320E0601456FE9
:103720000001BBEC05F0F2CF3FF6F29E0B0EA96E46
:10373000A69CA69EA680A85006013FBFF28E05015A
:10374000CC6F320E0601456F0001BBEC05F0F2CFE5
:103750003FF6F29E0C0EA96EA69CA69EA680A850CF
:1037600006013FBFF28E0501CD6F320E0601456F97
:103770000001BBEC05F0F2CF3FF6F29E0D0EA96EF4
:10378000A69CA69EA680A85006013FBFF28E05010A
:10379000CE6F320E0601456F0001BBEC05F0F2CF93
:1037A0003FF6F29E5A0EA96EA69CA69EA680A85031
:1037B00006013FBFF28E466B456F0001D0EC05F06D
:1037C00003C0F6F502C0F5F501C0F4F500C0F3F54D
:1037D000320E0601456F0001BBEC05F0F2CF3FF65B
:1037E000F29E1E0EA96EA69CA69EA680A85006015B
:1037F0003FBFF28E466B456F0001D0EC05F003C071
:10380000DEF502C0DDF501C0DCF500C0DBF5320EEF
:103810000601456F0001BBEC05F0F2CF3FF6F29ECA
:10382000280EA96EA69CA69EA680A85006013FBFA2
:10383000F28E05018B6F320E0601456F0001BBEC65
:1038400005F0F2CF3FF6F29E320EA96EA69CA69E20
:10385000A680A85006013FBFF28E05018C6F320E84
:103860000601456F0001BBEC05F0F2CF3FF6F29E7A
:103870003C0EA96EA69CA69EA680A85006013FBF3E
:10388000F28E05018D6F320E0601456F0001BBEC13
:1038900005F0F2CF3FF6F29E460EA96EA69CA69EBC
:1038A000A680A85006013FBFF28E466B456F00010F
:1038B000D0EC05F003C002F602C001F601C000F62C
:1038C00000C0FFF5320E0601456F0001BBEC05F0AC
:1038D000F2CF3FF6F29E640EA96EA69CA69EA6802D
:1038E000A85006013FBFF28E466B456F0001D0EC39
:1038F00005F003C00EF602C00DF601C00CF600C0C4
:103900000BF60601426B416B200E406F830E3F6F3A
:10391000F6C546F6F5C545F6F4C544F6F3C543F6D7
:103920000001EBEC05F008E30501F66BF56B200EEA
:10393000F46F820EF36F00018B8094908B829492CF
:103940008B949494010E06013F6F0001CDEC06F0BC
:103950000601406B000148EC06F0060EEA6E1F0EF1
:10396000E96E000E5CEC03F00A000900F550EE6E03
:103970000009FBE1060E0601406F1F0E3F6F416B11
:10398000426B436B020E446F00014AEC09F0060ED5
:10399000EA6E1F0EE96E000E6AEC03F00A000900E1
:1039A000F550EE6E0009FBE1060E0601406F1F0E9A
:1039B0003F6F416B140E426F436B010E446F000169
:1039C0004AEC09F0060EEA6E1F0EE96E000E7AEC64
:1039D00003F00A000900F550EE6E0009FBE1060E47
:1039E0000601406F1F0E3F6F416B1E0E426F436B0F
:1039F000010E446F00014AEC09F0060EEA6E1F0E3C
:103A0000E96E000E8AEC03F00A000900F550EE6E34
:103A10000009FBE1060E0601406F1F0E3F6F416B70
:103A20002D0E426F436B020E446F00014AEC09F009
:103A3000040E06013F6FFA0E456F0001BBEC05F066
:103A400006013F2FF8D7406B000148EC06F0C7C5D0
:103A500041F6140E0601426F1E0E436F010E446FB5
:103A600000014DEC0AF0C8C541F6280E0601426F70
:103A70001E0E436F446B00014DEC0AF0C9C541F6C0
:103A80003C0E0601426F1E0E436F446B00014DEC6D
:103A90000AF0CAC541F6500E0601426F1E0E436F72
:103AA000446B00014DEC0AF005019A6B9A514F08E6
:103AB00010E38DC53FF600014CEC0DF003C00AF693
:103AC00002C009F601C008F600C007F605019A2BEE
:103AD000EDD7928A80AA44D0968084A041D0968265
:103AE00084A23ED0968484A43BD0020E06013F6F90
:103AF000FA0E456F0001BBEC05F006013F2FF8D729
:103B0000060EEA6E1F0EE96E000E000197EC03F040
:103B10000A000900F550EE6E0009FBE1060E0601F1
:103B2000406F1F0E3F6F416B1E0E426F010E436FC1
:103B3000446F00014AEC09F0080E06013F6FFA0ECF
:103B4000456F0001BBEC05F006013F2FF8D7640E6E
:103B50000501986F0601406B000148EC06F0050175
:103B6000000175EC06F005019853D8A499D2060E11
:103B7000EA6E1F0EE96E000E0001A5EC03F00A00CC
:103B80000900F550EE6E0009FBE1060E0601406FDC
:103B90001F0E3F6F1E0E416F426B010E436F020EF0
:103BA000446F00014AEC09F0928A80AA64D00501B2
:103BB00093B15FD093811E0E0601456F0001BBECEF
:103BC00005F0010E05019A6F9A51040852E39A51CB
:103BD000995D37E1010E9A5D036AC70FE96E050E24
:103BE0000320EA6EEF2A010E9A5D036AC70FE96EA1
:103BF000050E0320EA6EEFBE0CD0EF50090809E273
:103C0000010E9A5D036AC70FE96E050E0320EA6E86
:103C1000EF6A010E9A5D036AC70FE96E050E032075
:103C2000EA6EEFCF41F69A51140DF3CF42F606013A
:103C30001E0E436F010E446F00014DEC0AF016D0CA
:103C40000501010E9A5D036AC70FE96E050E032098
:103C5000EA6EEFCF41F69A51140DF3CF42F606010A
:103C60001E0E436F446B00014DEC0AF005019A2BC8
:103C7000ABD703D0000105019391968084A060D05A
:103C800093B55DD093851E0E0601456F0001BBEC18
:103C900005F0010E05019A6F9A51040850E39A51FC
:103CA000995D35E1010E9A5D036AC70FE96E050E55
:103CB0000320EA6EEF06010E9A5D036AC70FE96EF4
:103CC000050E0320EA6EEFAE0AD0010E9A5D036A7C
:103CD000C70FE96E050E0320EA6E090EEF6E010EA6
:103CE0009A5D036AC70FE96E050E0320EA6EEFCFF7
:103CF00041F69A51140DF3CF42F606011E0E436FA2
:103D0000010E446F00014DEC0AF016D00501010EC2
:103D10009A5D036AC70FE96E050E0320EA6EEFCFC6
:103D200041F69A51140DF3CF42F606011E0E436F71
:103D3000446B00014DEC0AF005019A2BADD701D080
:103D40009395968284A244D093B341D093831E0E60
:103D50000601456F0001BBEC05F00501992B010E32
:103D60009A6F9A51040833E39A51995D18E1010E54
:103D70009A5D036AC70FE96E050E0320EA6EEFCF66
:103D800041F69A51140DF3CF42F606011E0E436F11
:103D9000010E446F00014DEC0AF016D00501010E32
:103DA0009A5D036AC70FE96E050E0320EA6EEFCF36
:103DB00041F69A51140DF3CF42F606011E0E436FE1
:103DC000446B00014DEC0AF005019A2BCAD701D0D3
:103DD000939399510408D8B063D10601406B000158
:103DE00048EC06F0040E0501996FC751030873E112
:103DF000C851080870E1C95109086DE1CA510208AB
:103E00006AE1F250006EF29E0A0EA96EA86AA69CA4
:103E1000A69EA6840F01550EA76EAA0EA76EA682B7
:103E2000A6B2FED7A6940050F212140E0601456FFA
:103E30000001BBEC05F0F250006EF29E0B0EA96E75
:103E4000A86AA69CA69EA6840F01550EA76EAA0E70
:103E5000A76EA682A6B2FED7A6940050F212140E48
:103E60000601456F0001BBEC05F0F250006EF29EBA
:103E70000C0EA96EA86AA69CA69EA6840F01550EDC
:103E8000A76EAA0EA76EA682A6B2FED7A694005071
:103E9000F212140E0601456F0001BBEC05F0F25062
:103EA000006EF29E0D0EA96EA86AA69CA69EA68420
:103EB0000F01550EA76EAA0EA76EA682A6B2FED758
:103EC000A6940050F212140E0601456F0001BBECDF
:103ED00005F0FF000501CB51C75D5EE1CC51C85D27
:103EE0005BE1CD51C95D58E1CE51CA5D55E1060196
:103EF000406B000148EC06F0060EEA6E1F0EE96EFC
:103F0000000EA5EC03F00A000900F550EE6E000962
:103F1000FBE1060E0601406F1F0E3F6F1E0E416F44
:103F2000426B436B020E446F00014AEC09F0060E2F
:103F3000EA6E1F0EE96E000EB0EC03F00A000900F5
:103F4000F550EE6E0009FBE1060E0601406F1F0EF4
:103F50003F6F0F0E416F1E0E426F436B020E446F98
:103F600000014AEC09F0010E0501986F000175ECA3
:103F700006F0040E06013F6FFA0E456F0001BBEC20
:103F800005F006013F2FF8D7406B000148EC06F022
:103F9000010E0501996F84D00601406B000148ECC9
:103FA00006F0060EEA6E1F0EE96E000EA5EC03F099
:103FB0000A000900F550EE6E0009FBE1060E06014D
:103FC000406F1F0E3F6F1E0E416F426B436B020E20
:103FD000446F00014AEC09F0060EEA6E1F0EE96E0E
:103FE000000EBDEC03F00A000900F550EE6E00096A
:103FF000FBE1060E0601406F1F0E3F6F416B1E0E68
:10400000426F436B020E446F00014AEC09F0050158
:10401000986B000175EC06F0040E06013F6FFA0E76
:10402000456F0001BBEC05F006013F2FF8D7406B50
:10403000000148EC06F0010E0501996FC76BC86BD3
:10404000C96BCA6BC7C541F6140E0601426F1E0E3E
:10405000436F010E446F00014DEC0AF0C8C541F6F4
:10406000280E0601426F1E0E436F446B00014DEC9B
:104070000AF0C9C541F63C0E0601426F1E0E436FA1
:10408000446B00014DEC0AF0CAC541F6500E060122
:10409000426F1E0E436F446B00014DEC0AF00501A8
:1040A000982D62D19E51040802E2010E9E6F9E532C
:1040B00002E1040E9E6F060EEA6E1F0EE96E000E00
:1040C0000001CBEC03F00A000900F550EE6E000988
:1040D000FBE1060E0601406F1F0E3F6F1E0E416F83
:1040E000426B010E436F020E446F00014AEC09F06F
:1040F00005019E2D1ED0060EEA6E1F0EE96E000E03
:104100000001D6EC03F00A000900F550EE6E00093C
:10411000FBE1060E0601406F1F0E3F6F416B140E50
:10412000426F010E436F446F00014AEC09F01DD04D
:104130000501060EEA6E1F0EE96E000E0001D6ECB8
:1041400003F00A000900F550EE6E0009FBE1060ECF
:104150000601406F1F0E3F6F416B140E426F436BA1
:10416000010E446F00014AEC09F005019E5102085E
:104170001EE1060EEA6E1F0EE96E000E0001E6EC6F
:1041800003F00A000900F550EE6E0009FBE1060E8F
:104190000601406F1F0E3F6F416B1E0E426F010EF6
:1041A000436F446F00014AEC09F01DD00501060E73
:1041B000EA6E1F0EE96E000E0001E6EC03F00A0045
:1041C0000900F550EE6E0009FBE1060E0601406F96
:1041D0001F0E3F6F416B1E0E426F436B010E446F0B
:1041E00000014AEC09F005019E5103081EE1060E8C
:1041F000EA6E1F0EE96E000E0001F4EC03F00A00F7
:104200000900F550EE6E0009FBE1060E0601406F55
:104210001F0E3F6F416B280E426F010E436F446FBC
:1042200000014AEC09F01DD00501060EEA6E1F0ED2
:10423000E96E000E0001F4EC03F00A000900F550ED
:10424000EE6E0009FBE1060E0601406F1F0E3F6F88
:10425000416B280E426F436B010E446F00014AEC24
:1042600009F005019E5104081EE1060EEA6E1F0EBC
:10427000E96E000E000103EC04F00A000900F5509D
:10428000EE6E0009FBE1060E0601406F1F0E3F6F48
:10429000416B320E426F010E436F446F00014AECD6
:1042A00009F01DD00501060EEA6E1F0EE96E000E24
:1042B000000103EC04F00A000900F550EE6E00095D
:1042C000FBE1060E0601406F1F0E3F6F416B320E81
:1042D000426F436B010E446F00014AEC09F0928A71
:1042E00080AA0FD0050193B10AD093811E0E06015A
:1042F000456F0001BBEC05F005019E07938703D0D5
:10430000000105019391968084A00DD093B50AD049
:1043100093851E0E0601456F0001BBEC05F00501FB
:104320009E2B938701D09395968284A21CD093B341
:1043300019D09383020E06013F6FFA0E456F0001FC
:10434000BBEC05F006013F2FF8D7030E05019E25B3
:10435000986F010E9E6F0601406B000148EC06F05D
:104360000501938701D0939398510408D8A433D1C1
:104370009E51020802E2010E9E6F9E5302E1020E60
:104380009E6F060EEA6E1F0EE96E000E000112EC23
:1043900004F00A000900F550EE6E0009FBE1060E7C
:1043A0000601406F1F0E3F6F416B426B010E436F62
:1043B000020E446F00014AEC09F005019E5102080B
:1043C0003BE1060EEA6E1F0EE96E000E00011FECC7
:1043D00004F00A000900F550EE6E0009FBE1060E3C
:1043E0000601406F1F0E3F6F320E416F190E426F74
:1043F000010E436F020E446F00014AEC09F0060EF5
:10440000EA6E1F0EE96E000E29EC04F00A000900A6
:10441000F550EE6E0009FBE1060E0601406F1F0E1F
:104420003F6F320E416F2D0E426F436B020E446F91
:1044300000014AEC09F005019E2D3BD0060EEA6E04
:104440001F0EE96E000E00011FEC04F00A000900C7
:10445000F550EE6E0009FBE1060E0601406F1F0EDF
:104460003F6F320E416F190E426F436B020E446F65
:1044700000014AEC09F0060EEA6E1F0EE96E000E0E
:1044800029EC04F00A000900F550EE6E0009FBE18A
:10449000060E0601406F1F0E3F6F320E416F2D0E4C
:1044A000426F010E436F020E446F00014AEC09F0A7
:1044B0000501928A80AA04D09E51010801E39E2B37
:1044C000968084A004D09E51010801E29E07968246
:1044D00084A266D09E5102084CE1AEC546F6ADC539
:1044E00045F60001D0EC05F003C042F602C041F6EB
:1044F00001C040F600C03FF60AC646F609C645F6BA
:1045000008C644F607C643F6EBEC05F005E3010EDA
:104510000501976F03D000010501976B140E986F8A
:104520000F0E0601526F120E536F1E0E546F350E92
:10453000556F566B010E576F0001E9EC08F005014D
:10454000A06B0601406B000148EC06F005019B6B77
:10455000AEC546F6ADC545F60001D0EC05F003C08A
:10456000BEF502C0BDF501C0BCF500C0BBF519D059
:104570000501040E06013F6FAF0E456F0001BBEC55
:1045800005F006013F2FF8D7010E0501986F0601CF
:10459000406B000148EC06F0010E05019E6F938709
:1045A0000001968484A418D0040E06013F6FAF0E5C
:1045B000456F0001BBEC05F006013F2FF8D7010E57
:1045C0000501986F0601406B000148EC06F0010EF2
:1045D00005019E6F93870001050198510508D8A435
:1045E000FED0AE5303E1AD51460803E2AE6B460E7A
:1045F000AD6FAD5305E1AE5303E1AE6B010EAD6F90
:10460000550E06013F6F1E0E406F030E416F426B49
:10461000010E436F000144EC0FF0060EEA6E1F0E10
:10462000E96E000E33EC04F00A000900F550EE6E5E
:104630000009FBE1060E0601406F1F0E3F6F5C0E86
:10464000416F1E0E426F020E436F030E446F000156
:104650004AEC09F0060EEA6E1F0EE96E000EE6EC5B
:1046600003F00A000900F550EE6E0009FBE1060EAA
:104670000601406F1F0E3F6F416B426B010E436F8F
:10468000020E446F00014AEC09F0AEC542F6ADC51A
:1046900041F61E0E0601436F446F456B030E466FD5
:1046A0000001BCEC10F0928A80AA1AD01E0E0601FE
:1046B000526F536F500E546F370E556F010E566F79
:1046C000576B0001E9EC08F01E0E0601456F000172
:1046D000BBEC05F00501AD2BD8B4AE2B93870001E0
:1046E000968084A01BD01E0E0601526F536F500E91
:1046F000546F370E556F010E566F576B0001E9EC82
:1047000008F01E0E0601456F0001BBEC05F0050127
:10471000AD51D8B4AE07AD0793870001968284A24D
:1047200009D01E0E0601456F0001BBEC05F0050126
:1047300093870001968484A451D0040E06013F6F34
:10474000AF0E456F0001BBEC05F006013F2FF8D717
:10475000010E0501986F0601406B000148EC06F060
:10476000010E05019E6F9387ADC53FF6F250006EB6
:10477000F29E500EA96E3FC6A8FFA69CA69EA684D8
:104780000F01550EA76EAA0EA76EA682A6B2FED77F
:10479000A6940050F212320E0601456F0001BBECE8
:1047A00005F0AEC53FF6F250006EF29E510EA96EB6
:1047B0003FC6A8FFA69CA69EA6840F01550EA76E15
:1047C000AA0EA76EA682A6B2FED7A6940050F21239
:1047D000320E0601456F0001BBEC05F00501985152
:1047E0000608D8A496D1995302E1040E996F060EDB
:1047F000EA6E1F0EE96E000E00013CEC04F00A00A8
:104800000900F550EE6E0009FBE1060E0601406F4F
:104810001F0E3F6F416B426B010E436F020E446FE0
:1048200000014AEC09F005019951040810E1C6C5E0
:1048300040F6140E0601416F280E426F010E436FC1
:10484000020E446F0001DCEC11F00ED00501C6C56C
:1048500040F6140E0601416F280E426F436B020EA4
:10486000446F0001DCEC11F00501995103080FE1E0
:10487000C5C540F6280E0601416F426F010E436F19
:10488000020E446F0001DCEC11F00DD00501C5C52E
:1048900040F6280E0601416F426F436B020E446FD3
:1048A0000001DCEC11F005019951020810E1C4C5CA
:1048B00040F6460E0601416F280E426F010E436F0F
:1048C000020E446F0001DCEC11F00ED00501C4C5EE
:1048D00040F6460E0601416F280E426F436B020EF2
:1048E000446F0001DCEC11F00501992D10D0C3C517
:1048F00040F65A0E0601416F280E426F010E436FBB
:10490000020E446F0001DCEC11F00ED00501C3C5AE
:1049100040F65A0E0601416F280E426F436B020E9D
:10492000446F0001DCEC11F0060EEA6E1F0EE96E1A
:10493000000E49EC04F00A000900F550EE6E000983
:10494000FBE1060E0601406F1F0E3F6F3C0E416FEC
:104950002A0E426F020E436F446F00014AEC09F0C9
:10496000928A80AA20D0010E0501995D036AC30FC7
:10497000E96E050E0320EA6EEFBE03D0EF50080883
:1049800011E31E0E0601456F0001BBEC05F0010EA0
:104990000501995D036AC30FE96E050E0320EA6EF7
:1049A000EF2A93870001968084A020D0010E050194
:1049B000995D036AC30FE96E050E0320EA6EEFBE30
:1049C00014D0EF50000811E21E0E0601456F0001E1
:1049D000BBEC05F0010E0501995D036AC30FE96E9A
:1049E000050E0320EA6EEF0693870001968284A2EB
:1049F0000AD01E0E0601456F0001BBEC05F0050153
:104A0000990793870001968484A482D0040E06013E
:104A10003F6FAF0E456F0001BBEC05F006013F2F65
:104A2000F8D7010E0501986F0601406B000148ECB4
:104A300006F0010E05019E6F9387F250006EF29E04
:104A4000A96AC3C5A8FFA69CA69EA6840F01550E01
:104A5000A76EAA0EA76EA682A6B2FED7A694005095
:104A6000F212320E0601456F0001BBEC05F0F25068
:104A7000006EF29E010EA96EC4C5A8FFA69CA69E5C
:104A8000A6840F01550EA76EAA0EA76EA682A6B227
:104A9000FED7A6940050F212320E0601456F0001B7
:104AA000BBEC05F0F250006EF29E020EA96EC5C579
:104AB000A8FFA69CA69EA6840F01550EA76EAA0E5F
:104AC000A76EA682A6B2FED7A6940050F212320EAE
:104AD0000601456F0001BBEC05F0F250006EF29E3E
:104AE000030EA96EC6C5A8FFA69CA69EA6840F01AC
:104AF000550EA76EAA0EA76EA682A6B2FED7A694E2
:104B00000050F212320E0601456F0001BBEC05F0B9
:104B1000050198510708D8A440D2060EEA6E1F0E70
:104B2000E96E000E0001A5EC03F00A000900F55043
:104B3000EE6E0009FBE1060E0601406F1F0E3F6F8F
:104B40001E0E416F426B010E436F020E446F000157
:104B50004AEC09F00501992D2FD0C7C541F6140E76
:104B60000601426F1E0E436F010E446F00014DECB3
:104B70000AF0C8C541F6280E0601426F1E0E436FAB
:104B8000446B00014DEC0AF0C9C541F63C0E06012C
:104B9000426F1E0E436F446B00014DEC0AF0CAC514
:104BA00041F6500E0601426F1E0E436F446B00012A
:104BB0004DEC0AF095D00501995102082FE1C7C5C7
:104BC00041F6140E0601426F1E0E436F446B000146
:104BD0004DEC0AF0C8C541F6280E0601426F1E0EC4
:104BE000436F010E446F00014DEC0AF0C9C541F658
:104BF0003C0E0601426F1E0E436F446B00014DECEC
:104C00000AF0CAC541F6500E0601426F1E0E436FF0
:104C1000446B00014DEC0AF063D005019951030883
:104C20002FE1C7C541F6140E0601426F1E0E436FF9
:104C3000446B00014DEC0AF0C8C541F6280E060190
:104C4000426F1E0E436F446B00014DEC0AF0C9C564
:104C500041F63C0E0601426F1E0E436F010E446F7B
:104C600000014DEC0AF0CAC541F6500E0601426F34
:104C70001E0E436F446B00014DEC0AF031D005016C
:104C8000995104082EE1C7C541F6140E0601426F82
:104C90001E0E436F446B00014DEC0AF0C8C541F68F
:104CA000280E0601426F1E0E436F446B00014DEC4F
:104CB0000AF0C9C541F63C0E0601426F1E0E436F55
:104CC000446B00014DEC0AF0CAC541F6500E0601D6
:104CD000426F1E0E436F010E446F00014DEC0AF04F
:104CE0000501928A80AA34D093B131D093811E0EEF
:104CF0000601456F0001BBEC05F0010E05019A6F3E
:104D00009A51040824E39A51995D1FE1010E9A5DBE
:104D1000036AC70FE96E050E0320EA6EEF2A010E43
:104D20009A5D036AC70FE96E050E0320EA6EEFBEB7
:104D30000CD0EF50090809E2010E9A5D036AC70F13
:104D4000E96E050E0320EA6EEF6A9A2BD9D701D0DF
:104D50009391968084A032D093B52FD093851E0E68
:104D60000601456F0001BBEC05F0010E05019A6FCD
:104D70009A51040822E39A51995D1DE1010E9A5D52
:104D8000036AC70FE96E050E0320EA6EEF06010EF7
:104D90009A5D036AC70FE96E050E0320EA6EEFAE57
:104DA0000AD0010E9A5D036AC70FE96E050E032053
:104DB000EA6E090EEF6E9A2BDBD701D0939596829F
:104DC00084A211D093B30ED09383020E06013F6FDD
:104DD000960E456F0001BBEC05F006013F2FF8D79A
:104DE0000501992B01D09393968484A414D0040ECA
:104DF00006013F6FAF0E456F0001BBEC05F00601E9
:104E00003F2FF8D7010E0501986F0601406B000196
:104E100048EC06F0050199510408D8B0BED006014F
:104E2000406B000148EC06F00501CB51C75D5EE127
:104E3000CC51C85D5BE1CD51C95D58E1CE51CA5D31
:104E400055E10601406B000148EC06F0060EEA6EE3
:104E50001F0EE96E000EA5EC03F00A000900F550E4
:104E6000EE6E0009FBE1060E0601406F1F0E3F6F5C
:104E70001E0E416F426B436B020E446F00014AEC01
:104E800009F0060EEA6E1F0EE96E000EB0EC03F09C
:104E90000A000900F550EE6E0009FBE1060E06015E
:104EA000406F1F0E3F6F0F0E416F1E0E426F436B20
:104EB000020E446F00014AEC09F05B0E0501986F89
:104EC000000175EC06F0040E06013F6FFA0E456F07
:104ED0000001BBEC05F006013F2FF8D7406B000145
:104EE00048EC06F0010E0501996F57D00601406BA2
:104EF000000148EC06F0060EEA6E1F0EE96E000E89
:104F0000A5EC03F00A000900F550EE6E0009FBE184
:104F1000060E0601406F1F0E3F6F1E0E416F426B63
:104F2000436B020E446F00014AEC09F0060EEA6E74
:104F30001F0EE96E000EBDEC03F00A000900F550EB
:104F4000EE6E0009FBE1060E0601406F1F0E3F6F7B
:104F5000416B1E0E426F436B020E446F00014AEC20
:104F600009F0010E0501986F000175EC06F0040EC2
:104F700006013F6FFA0E456F0001BBEC05F006011C
:104F80003F2FF8D7406B000148EC06F0010E0501F9
:104F9000996FC76BC86BC96BCA6B98515B08D8A473
:104FA000FCD1060EEA6E1F0EE96E000E000152ECF7
:104FB00004F00A000900F550EE6E0009FBE1060E50
:104FC0000601406F1F0E3F6F416B426B010E436F36
:104FD000020E446F00014AEC09F00501992D2FD013
:104FE000CBC541F6140E0601426F1E0E436F010E33
:104FF000446F00014DEC0AF0CCC541F6280E0601C5
:10500000426F1E0E436F446B00014DEC0AF0CDC59C
:1050100041F63C0E0601426F1E0E436F446B0001C9
:105020004DEC0AF0CEC541F6500E0601426F1E0E41
:10503000436F446B00014DEC0AF095D00501995186
:1050400002082FE1CBC541F6140E0601426F1E0E79
:10505000436F446B00014DEC0AF0CCC541F6280EBD
:105060000601426F1E0E436F010E446F00014DECAE
:105070000AF0CDC541F63C0E0601426F1E0E436F8D
:10508000446B00014DEC0AF0CEC541F6500E06010E
:10509000426F1E0E436F446B00014DEC0AF063D06B
:1050A0000501995103082FE1CBC541F6140E060105
:1050B000426F1E0E436F446B00014DEC0AF0CCC5ED
:1050C00041F6280E0601426F1E0E436F446B00012D
:1050D0004DEC0AF0CDC541F63C0E0601426F1E0EA6
:1050E000436F010E446F00014DEC0AF0CEC541F64E
:1050F000500E0601426F1E0E436F446B00014DECD3
:105100000AF031D00501995104082EE1CBC541F6D2
:10511000140E0601426F1E0E436F446B00014DECEE
:105120000AF0CCC541F6280E0601426F1E0E436FF1
:10513000446B00014DEC0AF0CDC541F63C0E060172
:10514000426F1E0E436F446B00014DEC0AF0CEC55A
:1051500041F6500E0601426F1E0E436F010E446F62
:1051600000014DEC0AF00501928A80AA34D093B177
:1051700031D093811E0E0601456F0001BBEC05F096
:10518000010E05019A6F9A51040824E39A51995D22
:105190001FE1010E9A5D036ACB0FE96E050E032035
:1051A000EA6EEF2A010E9A5D036ACB0FE96E050ED7
:1051B0000320EA6EEFBE0CD0EF50090809E2010EA1
:1051C0009A5D036ACB0FE96E050E0320EA6EEF6A63
:1051D0009A2BD9D701D09391968084A032D093B5E1
:1051E0002FD093851E0E0601456F0001BBEC05F024
:1051F000010E05019A6F9A51040822E39A51995DB4
:105200001DE1010E9A5D036ACB0FE96E050E0320C6
:10521000EA6EEF06010E9A5D036ACB0FE96E050E8A
:105220000320EA6EEFAE0AD0010E9A5D036ACB0F3F
:10523000E96E050E0320EA6E090EEF6E9A2BDBD79E
:1052400001D09395968284A211D093B30ED093830C
:10525000020E06013F6F960E456F0001BBEC05F094
:1052600006013F2FF8D70501992B01D0939396841F
:1052700084A414D0040E06013F6FAF0E456F0001E9
:10528000BBEC05F006013F2FF8D7010E0501986F22
:105290000601406B000148EC06F005019951040835
:1052A000D8B07BD0010E9E6F996FF250006EF29EC7
:1052B0000A0EA96ECBC5A8FFA69CA69EA6840F01C8
:1052C000550EA76EAA0EA76EA682A6B2FED7A6940A
:1052D0000050F212320E0601456F0001BBEC05F0E2
:1052E000F250006EF29E0B0EA96ECCC5A8FFA69CD4
:1052F000A69EA6840F01550EA76EAA0EA76EA682C3
:10530000A6B2FED7A6940050F212320E0601456FE7
:105310000001BBEC05F0F250006EF29E0C0EA96E7F
:10532000CDC5A8FFA69CA69EA6840F01550EA76E0C
:10533000AA0EA76EA682A6B2FED7A6940050F212BD
:10534000320E0601456F0001BBEC05F0F250006E15
:10535000F29E0D0EA96ECEC5A8FFA69CA69EA684A1
:105360000F01550EA76EAA0EA76EA682A6B2FED793
:10537000A6940050F212040E06013F6FFA0E456F1C
:105380000001BBEC05F006013F2FF8D7406B000190
:1053900048EC06F0010E0501986F98511408D8A446
:1053A000AEEF2EF0050E06013F6F0001C0EF12F0C8
:1053B00005019B53D8A42ED1928680B62BD18B8E1B
:1053C000949E972D94D0AEC546F6ADC545F6000126
:1053D000D0EC05F0D89203C047F602C046F601C0F3
:1053E00045F600C044F606014B6B4A6B496B7F0ED5
:1053F000486F000184EC0BF00AC642F609C641F67C
:1054000008C640F607C63FF603C046F602C045F69A
:1054100001C044F600C043F6EBEC05F001E234E1D4
:105420000601526B370E536F7F0E546F3F0E556F50
:10543000010E566F576B0001E9EC08F0060EEA6E9C
:105440001F0EE96E000E60EC04F00A000900F55032
:10545000EE6E0009FBE1060E0601406F1F0E3F6F66
:10546000416B370E426F020E436F010E446F000115
:105470004AEC09F0010E05019F6F000169EC13F081
:105480000501949933D00001050194990601526BEE
:10549000370E536F7F0E546F3F0E556F010E566FD0
:1054A000576B0001E9EC08F0060EEA6E1F0EE96E7C
:1054B000000E72EC04F00A000900F550EE6E0009CF
:1054C000FBE1060E0601406F1F0E3F6F416B370E6A
:1054D000426F020E436F010E446F00014AEC09F067
:1054E00005019F6B000169EC13F0050193D0AEC577
:1054F00046F6ADC545F60001D0EC05F0D88203C0F4
:1055000047F602C046F601C045F600C044F6060163
:105510004B6B4A6B496B7F0E486F000184EC0BF0BC
:1055200003C042F602C041F601C040F600C03FF69B
:105530000AC646F609C645F608C644F607C643F647
:10554000EBEC05F001E234E10601526B370E536FCC
:105550007F0E546F3F0E556F010E566F576B000153
:10556000E9EC08F0060EEA6E1F0EE96E000E60EC24
:1055700004F00A000900F550EE6E0009FBE1060E8A
:105580000601406F1F0E3F6F416B370E426F020ED8
:10559000436F010E446F00014AEC09F0010E050152
:1055A0009F6F000169EC13F00501949933D000015D
:1055B000050194890601526B370E536F7F0E546FAD
:1055C0003F0E556F010E566F576B0001E9EC08F066
:1055D000060EEA6E1F0EE96E000E83EC04F00A0060
:1055E0000900F550EE6E0009FBE1060E0601406F62
:1055F0001F0E3F6F416B370E426F020E436F010E5D
:10560000446F00014AEC09F005019F6B000169EC51
:1056100013F005019B2D35D0928680B632D08B9E3B
:10562000949E926BF66BF56BF46B7F0EF36F94990F
:10563000060EEA6E1F0EE96E000E000194EC04F0F7
:105640000A000900F550EE6E0009FBE1060E0601A6
:10565000406F1F0E3F6F416B370E426F020E436F5C
:10566000010E446F00014AEC09F005019F6B8B901D
:1056700094908B9494948B929492E26BE16BE06B98
:10568000DF6B928680A65DD08B9E949E9499926BE0
:1056900094B51FD09BC59CF59B6B0601526B370ED2
:1056A000536F7F0E546F3F0E556F010E566F576B41
:1056B0000001E9EC08F005019F6B8B9094908B94AE
:1056C00094948B929492E26BE16BE06BDF6B948528
:1056D0008F6B060EEA6E1F0EE96E000E0001A4EC41
:1056E00004F00A000900F550EE6E0009FBE1060E19
:1056F0000601406F1F0E3F6F416B370E426F020E67
:10570000436F010E446F00014AEC09F08B8C949CAE
:10571000040E06013F6FFA0E456F0001BBEC05F069
:1057200006013F2FF8D78B9C949C040E3F6FFA0E16
:10573000456F0001BBEC05F006013F2FF8D716D0EE
:10574000050194A512D09CC59BF50601526B370E3E
:10575000536F7F0E546F3F0E556F010E566F576B90
:105760000001E9EC08F0050194950601928A80AAEF
:105770001CD005019B51020817E0C80E0601456FB9
:105780000001BBEC05F005019B6B0601526B370E67
:10579000536F7F0E546F3F0E556F010E566F576B50
:1057A0000001E9EC08F005010601968084A01DD0F7
:1057B00005019B51020818E0C80E0601456F000163
:1057C000BBEC05F0010E05019B6F0601526B370E15
:1057D000536F7F0E546F3F0E556F010E566F576B10
:1057E0000001E9EC08F005010601968284A208D0C8
:1057F000010E3F6F0001CDEC06F00501947B060120
:10580000050193A912D293990601436B426B480E8E
:10581000416F850E406FDEC547F6DDC546F6DCC537
:1058200045F6DBC544F60001D5EC0AF003C042F6AC
:1058300002C041F601C040F600C03FF603C05FF66B
:1058400002C05EF601C05DF600C05CF6E2C563F61C
:10585000E1C562F6E0C561F6DFC560F6D1EC0CF09B
:1058600003C0B6F502C0B5F501C0B4F500C0B3F58C
:105870000AC642F609C641F608C640F607C63FF614
:105880000F0E0601436F1D0E446F020E456F00019F
:10589000D2EC19F04A0E06013F6F1E0E406F020E49
:1058A000416F426B010E436F000144EC0FF0060E96
:1058B000EA6E1F0EE96E000E33EC04F00A000900D8
:1058C000F550EE6E0009FBE1060E0601406F1F0E5B
:1058D0003F6F4B0E416F1E0E426F020E436F446FBF
:1058E00000014AEC09F0AEC542F6ADC541F61E0E08
:1058F0000601436F2D0E446F456B010E466F00018C
:10590000BCEC10F0320E06013F6F2F0E406F010EFF
:10591000416F426B436F000144EC0FF0060EEA6EDC
:105920001F0EE96E000E33EC04F00A000900F5507A
:10593000EE6E0009FBE1060E0601406F1F0E3F6F81
:10594000350E416F2D0E426F020E436F010E446FF4
:1059500000014AEC09F0060EEA6E1F0EE96E000E19
:10596000B5EC04F00A000900F550EE6E0009FBE109
:10597000060E0601406F1F0E3F6F416B2D0E426FEA
:10598000020E436F010E446F00014AEC09F0B6C5E8
:1059900042F6B5C541F6B4C540F6B3C53FF64BEC8B
:1059A00013F001C03FF601C040F6610E0601416FE1
:1059B0002A0E426F030E436F010E446F0001DCECB0
:1059C00011F0060EEA6E1F0EE96E000EC0EC04F038
:1059D0000A000900F550EE6E0009FBE1060E060113
:1059E000406F1F0E3F6F730E416F2A0E426F020E03
:1059F000436F010E446F00014AEC09F0050194ABBE
:105A000014D0EAC542F6E9C541F6E8C540F6E7C557
:105A10003FF6610E0601436F0D0E446F010E456F98
:105A20000001D2EC19F010D00501610E0601526F91
:105A30000D0E536F730E546F120E556F010E566F8D
:105A4000576B0001E9EC08F0C2C540F6140E0601E0
:105A5000416F020E426F436B446F0001DCEC11F0AA
:105A6000C1C540F6210E0601416F020E426F436B25
:105A7000446F0001DCEC11F0060EEA6E1F0EE96EB9
:105A8000000E49EC04F00A000900F550EE6E000922
:105A9000FBE1060E0601406F1F0E3F6F2E0E416F99
:105AA000020E426F436F446F00014AEC09F0C0C51B
:105AB00040F6370E0601416F020E426F436B446F92
:105AC0000001DCEC11F0BFC540F6440E0601416F49
:105AD000020E426F436B446F0001DCEC11F0060EC6
