:04000000FBEF36F0EC
:0800080057EF00F000000000BA
:100010000000000000000000046ED8CF05F0E0CF23
:1000200006F00001E9CF0CF0EACF07F0E1CF08F0CD
:10003000E2CF09F0D9CF0AF0DACF0BF0F3CF12F00C
:10004000F4CF13F0FACF14F0FBCF15F000C00EF090
:1000500001C00FF002C010F003C011F09DA034EFFA
:1000600000F09EB02FEF09F00EC000F00FC001F0BD
:1000700010C002F011C003F00CC0E9FF07C0EAFF96
:10008000078E08C0E1FF09C0E2FF0AC0D9FF0BC01C
:10009000DAFF12C0F3FF13C0F4FF14C0FAFF15C05B
:1000A000FBFF045006C0E0FF05C0D8FF1000176E2C
:1000B000D8CF18F0E0CF19F00001E9CF1FF0EACF58
:1000C0001AF0E1CF1BF0E2CF1CF0D9CF1DF0DACF50
:1000D0001EF0F3CF25F0F4CF26F0FACF27F0FBCFB8
:1000E00028F000C021F001C022F002C023F003C0BC
:1000F00024F0F2AA7FEF00F0F2B418EF09F09DA20D
:1001000085EF00F09EB2B6EF09F0F2A88BEF00F099
:10011000F2B2C2EF08F021C000F022C001F023C00B
:1001200002F024C003F01FC0E9FF1AC0EAFF1A8ED4
:100130001BC0E1FF1CC0E2FF1DC0D9FF1EC0DAFFDB
:1001400025C0F3FF26C0F4FF27C0FAFF28C0FBFF3D
:10015000175019C0E0FF18C0D8FF1000F2CF0DF003
:10016000F29CF29EF76A800FF66E010EF722000EE7
:10017000F86E0900F5500DBCF28C0DBEF28E120027
:10018000000000000000005F0000000300030014F6
:100190003E143E14242A7F2A1243330866613649EE
:1001A0005522500005030000001C2241000041229E
:1001B0001C0014083E081408083E080800503000CF
:1001C0000008080808080060600000201008040209
:1001D0003E5149453E0004027F004261514946229A
:1001E000414949361814127F1027454545393E4983
:1001F00049493201017109073649494936264949B9
:10020000493E0036360000005636000008142241F0
:100210000014141414140041221408020151090698
:100220003E4159555E7E0909097E7F494949363E5E
:10023000414141227F4141413E7F494949417F0936
:100240000909013E4141493A7F0808087F00417F82
:100250004100304040403F7F081422417F404040F1
:10026000407F020C027F7F0204087F3E4141413EF5
:100270007F090909061E2121215E7F0909097600EF
:10028000F2CF0DF0F29CF29EF76AA40FF66E020E0A
:10029000F722000EF86E0900F5500DBCF28C0DBE71
:1002A000F28E1200264949493201017F01013F4087
:1002B00040403F1F2040201F7F2010207F41221CF4
:1002C000224107087008076151494543007F4100FA
:1002D0000002040810200000417F00040201020413
:1002E0004040404040000102040020545454787FB4
:1002F000444444383844444444384444447F3854A3
:1003000054541804047E0505085454543C7F0804D2
:10031000047800447D40002040443D007F10284484
:100320000000417F40007C047804787C0804047855
:1003300038444444387C14141408081414147C0001
:100340007C080404485454542004043F44443C4072
:1003500040207C1C2040201C3C4030403C44281065
:1003600028440C5050503C4464544C4400083641DE
:100370004100007F000041413608000201020402F2
:10038000F2CF0DF0F29CF29EA20FF66E030EF72252
:10039000000EF86E0900F5500DBCF28C0DBEF28E09
:1003A000120000000000000000000000001FFFFF1E
:1003B000FFFE00000000000000000000001FFFFF23
:1003C000FFFE01C00000000000000000001C000053
:1003D000000E07F00000000000000000001C0000FC
:1003E000000E1C9C0000000000000000001C7F00AC
:1003F000000E180C0000000000000000001C41006E
:10040000000E30860000000000000000001C4100CB
:10041000000E20820000000000000000001C4102CD
:10042000000E60830000000000000000001C7F053B
:10043000000E70870000000000000000001C000299
:10044000000E60C30000000000000000001C00005F
:10045000000E20620000000000000000001C0000F0
:10046000000E30260000000000000000001FFFFF0B
:10047000FFFE180C0000000000000000001C00003F
:10048000000E1C9C0000000000000000001C00008A
:10049000000E07F00000000000000000001C00003B
:1004A000000E01C00000000000000000001C000061
:1004B000000E00000000000000000000001C000012
:1004C000000E00000000000000000000001C000002
:1004D000000E00000000000000000000001C0000F2
:1004E000000E00000000000000000000001C0000E2
:1004F000000E00000000000000000000001C001EB4
:10050000000E00000000000000000000001C00E1E0
:10051000C00E00000000000000000000001C018070
:10052000600E00000000000000000000001C0278C7
:10053000100E00000000000000000000001C067CFF
:10054000180E00000000000000000000001C047CE9
:10055000080E00000000000000000000001C083C25
:10056000040E00000000000000000000001C081045
:10057000040E01800000000000000000001C080CB8
:10058000E40E02400000000000000000001C082DE6
:10059000F40E02700000000000000000001C086360
:1005A000F40E02400000000000000000001C08F1F2
:1005B000E40E03C00000000000000000001C04F076
:1005C000080E03F00000000000000000001C04F012
:1005D000080E03C00000000000000000001C0270B4
:1005E000100E03C00000000000000000001C03000B
:1005F000300E07E00000000000000000001C00C0FA
:10060000C00E0FF00000000000000000001C007F82
:10061000800E0BF00000000000000000001C000035
:10062000000E0BF00000000000000000001C0000A5
:10063000000E0FF00000000000000000001C000091
:10064000000E0FF00000000000000000001C000081
:10065000000E07E00000000000000000001C000089
:10066000000E03C00000000000000000001C00009D
:10067000000E00000000000000000000001C000050
:10068000000E00000000000000000000001C000040
:10069000000E00000000000000000000001C000030
:1006A000000E00000000000000000000001C000020
:1006B000000E00000000000000000000001C000010
:1006C000000E00000000000000000000001C000000
:1006D000000E00000000000000000000001C0000F0
:1006E000000E00000000000000000000001FFFFFDF
:1006F000FFFE00000000000000000000001FFFFFE0
:10070000FFFE00000000000000000000001FFFFFCF
:10071000FFFE0000000000000000000000000000DC
:1007200000000000000000000000000000000000C9
:1007300000000000000000000000000000000000B9
:1007400000000000000000000000000000000000A9
:100750000000000000000000000000000000000099
:100760000000000000000000000000000000000089
:100770000000000000000000000000000000000079
:100780000000000000000000000000000000000069
:100790000000000000000000000000000000000059
:1007A0000000F2CF0DF0F29CF29EF76AC60FF66ED3
:1007B000070EF722000EF86E0900F5500DBCF28C02
:1007C0000DBEF28E12004300F2CF0DF0F29CF29EAD
:1007D000F76AEC0FF66E070EF722000EF86E0900AE
:1007E000F5500DBCF28C0DBEF28E120056616C6F8E
:1007F0007200F2CF0DF0F29CF29EF76A160FF66EC1
:10080000080EF722000EF86E0900F5500DBCF28CB0
:100810000DBEF28E120020416C6D6163656E6164E5
:100820006F00F2CF0DF0F29CF29EF76A460FF66E63
:10083000080EF722000EF86E0900F5500DBCF28C80
:100840000DBEF28E12004A5020496E676C6F6261D5
:100850006C00F2CF0DF0F29CF29EF76A760FF66E06
:10086000080EF722000EF86E0900F5500DBCF28C50
:100870000DBEF28E1200202020496E637562616405
:100880006F726100F2CF0DF0F29CF29EF76AA80F32
:10089000F66E080EF722000EF86E0900F5500DBC3A
:1008A000F28C0DBEF28E12002020202020446967B9
:1008B0006974616C20200000F2CF0DF0F29CF29E72
:1008C000F76ADC0FF66E080EF722000EF86E0900CC
:1008D000F5500DBCF28C0DBEF28E12002020203699
:1008E00036204C747300F2CF0DF0F29CF29EF76A42
:1008F0000A0FF66E090EF722000EF86E0900F55089
:100900000DBCF28C0DBEF28E1200436C6176650058
:10091000F2CF0DF0F29CF29EF76A340FF66E090EDC
:10092000F722000EF86E0900F5500DBCF28C0DBEDA
:10093000F28E1200436C617665204E75657661001B
:10094000F2CF0DF0F29CF29EF76A640FF66E090E7C
:10095000F722000EF86E0900F5500DBCF28C0DBEAA
:10096000F28E1200436F7272656374610000F2CF01
:100970000DF0F29CF29EF76A920FF66E090EF722C6
:10098000000EF86E0900F5500DBCF28C0DBEF28E13
:100990001200496E636F7272656374610000F2CF7A
:1009A0000DF0F29CF29EF76AC20FF66E090EF72266
:1009B000000EF86E0900F5500DBCF28C0DBEF28EE3
:1009C000120043617267616E646F2E2E0000F2CFD9
:1009D0000DF0F29CF29EF76AF20FF66E090EF72206
:1009E000000EF86E0900F5500DBCF28C0DBEF28EB3
:1009F00012004D656E750000F2CF0DF0F29CF29E74
:100A0000F76A1C0FF66E0A0EF722000EF86E090048
:100A1000F5500DBCF28C0DBEF28E1200496E69636A
:100A20006961722050726F6365736F00F2CF0DF0D1
:100A3000F29CF29EF76A500FF66E0A0EF722000E35
:100A4000F86E0900F5500DBCF28C0DBEF28E12004E
:100A500053656C656363696F6E2054656D70657274
:100A6000617475726100F2CF0DF0F29CF29EF76A2C
:100A70008A0FF66E0A0EF722000EF86E0900F55086
:100A80000DBCF28C0DBEF28E120054656D706F724B
:100A9000697A61646F720000F2CF0DF0F29CF29EF1
:100AA000F76ABC0FF66E0A0EF722000EF86E090008
:100AB000F5500DBCF28C0DBEF28E120043616D62DA
:100AC000696F20436C6176650000F2CF0DF0F29CF7
:100AD000F29EF76AEE0FF66E0A0EF722000EF86E1F
:100AE0000900F5500DBCF28C0DBEF28E1200566559
:100AF0006C6F63696461642020200000F2CF0DF008
:100B0000F29CF29EF76A200FF66E0B0EF722000E93
:100B1000F86E0900F5500DBCF28C0DBEF28E12007D
:100B20002020202020202020202020202020000005
:100B3000F2CF0DF0F29CF29EF76A540FF66E0B0E98
:100B4000F722000EF86E0900F5500DBCF28C0DBEB8
:100B5000F28E120053656C656363696F6E65000009
:100B6000F2CF0DF0F29CF29EF76A840FF66E0B0E38
:100B7000F722000EF86E0900F5500DBCF28C0DBE88
:100B8000F28E120054656D70657261747572610049
:100B9000F2CF0DF0F29CF29EF76AB40FF66E0B0ED8
:100BA000F722000EF86E0900F5500DBCF28C0DBE58
:100BB000F28E120054656D706572617475726120F9
:100BC000313A0000F2CF0DF0F29CF29EF76AE80F86
:100BD000F66E0B0EF722000EF86E0900F5500DBCF4
:100BE000F28C0DBEF28E120054656D7065726174E8
:100BF00075726120323A0000F2CF0DF0F29CF29E45
:100C0000F76A1C0FF66E0C0EF722000EF86E090044
:100C1000F5500DBCF28C0DBEF28E120054656D7055
:100C20006572617475726120333A0000F2CF0DF085
:100C3000F29CF29EF76A500FF66E0C0EF722000E31
:100C4000F86E0900F5500DBCF28C0DBEF28E12004C
:100C50005469656D706F0000F2CF0DF0F29CF29E4A
:100C6000F76A7C0FF66E0C0EF722000EF86E090084
:100C7000F5500DBCF28C0DBEF28E12003A00F2CF90
:100C80000DF0F29CF29EF76AA20FF66E0C0EF722A0
:100C9000000EF86E0900F5500DBCF28C0DBEF28E00
:100CA000120056656C6F636964616400F2CF0DF0E9
:100CB000F29CF29EF76AD00FF66E0C0EF722000E31
:100CC000F86E0900F5500DBCF28C0DBEF28E1200CC
:100CD0002500F2CF0DF0F29CF29EF76AF60FF66E49
:100CE0000C0EF722000EF86E0900F5500DBCF28CC8
:100CF0000DBEF28E12005374617475733A436F6EB9
:100D000074726F6C616E646F2000F2CF0DF0F29C14
:100D1000F29EF76A2E0FF66E0D0EF722000EF86E99
:100D20000900F5500DBCF28C0DBEF28E120053740A
:100D3000617475733A43616C656E74616E646F20A3
:100D40000000F2CF0DF0F29CF29EF76A660FF66E8D
:100D50000D0EF722000EF86E0900F5500DBCF28C56
:100D60000DBEF28E12005374617475733A5075653E
:100D7000727461204162696572746100F2CF0DF096
:100D8000F29CF29EF76AA00FF66E0D0EF722000E8F
:100D9000F86E0900F5500DBCF28C0DBEF28E1200FB
:100DA0005374617475733A416C61726D61203031B6
:100DB0000000F2CF0DF0F29CF29EF76AD60FF66EAD
:100DC0000D0EF722000EF86E0900F5500DBCF28CE6
:100DD0000DBEF28E12002D2D2D2D2D00F2CF0DF017
:100DE000F29CF29EF76A000FF66E0E0EF722000ECE
:100DF000F86E0900F5500DBCF28C0DBEF28E12009B
:100E000054656D703A00F2CF0DF0F29CF29EF76AD5
:100E10002A0FF66E0E0EF722000EF86E0900F5503E
:100E20000DBCF28C0DBEF28E1200B000F2CF0DF0B0
:100E3000F29CF29EF76A500FF66E0E0EF722000E2D
:100E4000F86E0900F5500DBCF28C0DBEF28E12004A
:100E500054696D653A00F2CF0DF0F29CF29EF76A8C
:100E60007A0FF66E0E0EF722000EF86E0900F5509E
:100E70000DBCF28C0DBEF28E120028483A4D2900AE
:100E8000F2CF0DF0F29CF29EF76AA40FF66E0E0EF2
:100E9000F722000EF86E0900F5500DBCF28C0DBE65
:100EA000F28E12005374617475733A46696E616C08
:100EB000697A61646F00F2CF0DF0F29CF29EF76ADE
:100EC000DA0FF66E0E0EF722000EF86E0900F550DE
:100ED0000DBCF28C0DBEF28E120050726F706F72EC
:100EE00063696F6E616C0000F2CF0DF0F29CF29EB0
:100EF000F76A0C0FF66E0F0EF722000EF86E09005F
:100F0000F5500DBCF28C0DBEF28E1200496E746568
:100F10006772616C0000F2CF0DF0F29CF29EF76AEE
:100F20003A0FF66E0F0EF722000EF86E0900F5501C
:100F30000DBCF28C0DBEF28E1200446572697661B2
:100F40007469766F0000F2CF0DF0F29CF29EF76AA2
:100F50006A0FF66E0F0EF722000EF86E0900F550BC
:100F60000DBCF28C0DBEF28E1200546369636C6F7F
:100F70000000F2CF0DF0F29CF29EF76A960FF66E2B
:100F80000F0EF722000EF86E0900F5500DBCF28C22
:100F90000DBEF28E1200416A75737465202B00003D
:100FA000F2CF0DF0F29CF29EF76AC40FF66E0F0EB0
:100FB000F722000EF86E0900F5500DBCF28C0DBE44
:100FC000F28E1200416A75737465202D0000F2CF15
:100FD0000DF0F29CF29EF76AF20FF66E0F0EF722FA
:100FE000000EF86E0900F5500DBCF28C0DBEF28EAD
:100FF00012004D65646961204D6F76696C00F2CF17
:101000000DF0F29CF29EF76A220FF66E100EF72298
:10101000000EF86E0900F5500DBCF28C0DBEF28E7C
:10102000120047616E616E6369612020202000001C
:10103000F2CF0DF0F29CF29EF76A540FF66E100E8E
:10104000F722000EF86E0900F5500DBCF28C0DBEB3
:10105000F28E12002020202020202020202020207E
:101060000000F2CF0DF0F29CF29EF76A860FF66E4A
:10107000100EF722000EF86E0900F5500DBCF28C30
:101080000DBEF28E12005000F2CF0DF0F29CF29ED7
:10109000F76AAC0FF66E100EF722000EF86E09001C
:1010A000F5500DBCF28C0DBEF28E12004900F2CF4D
:1010B0000DF0F29CF29EF76AD20FF66E100EF72238
:1010C000000EF86E0900F5500DBCF28C0DBEF28ECC
:1010D00012004400F2CF0DF0F29CF29EF76AF80F76
:1010E000F66E100EF722000EF86E0900F5500DBCDA
:1010F000F28C0DBEF28E1200416A757374650000A9
:10110000F2CF0DF0F29CF29EF76A240FF66E110EEC
:10111000F722000EF86E0900F5500DBCF28C0DBEE2
:10112000F28E1200416A757374656E00F2CF0DF095
:10113000F29CF29EF76A500FF66E110EF722000E27
:10114000F86E0900F5500DBCF28C0DBEF28E120047
:101150004D6564696100F2CF0DF0F29CF29EF76A72
:101160007A0FF66E110EF722000EF86E0900F55098
:101170000DBCF28C0DBEF28E120047616E616E6383
:10118000696100000501A08BB151090806E1D76A29
:10119000BE0ED66E8B90949046D0B151080806E1F1
:1011A000D76AB40ED66E8B9094903DD0B15107089B
:1011B00006E1D76AAF0ED66E8B90949034D0B151C1
:1011C000060806E1D76AAC0ED66E8B9094902BD0B1
:1011D000B151050806E1D76AA90ED66E8B9094909E
:1011E00022D0B151040806E1D76AA60ED66E8B90C4
:1011F000949019D0B151030806E1D76AA30ED66EB8
:101200008B90949010D0B151020806E1D76AA00EDD
:10121000D66E8B90949007D0B12D05D0D76A9E0ED4
:10122000D66E8B909490B92BF29200018BEF00F068
:101230000501B15310E0B15109080DE3A0AB07D08F
:101240008B809490D76AFD0ED66EA09B04D08B90B5
:101250009490D76AD66AF29400018BEF00F09E0E4C
:10126000CF6E580ECE6E0501C02BD8B4C12BC22B49
:10127000D8B4C32BC42BD8B4C52BB1510A0804E190
:101280008B809490D76AD66AB15304E18B90949086
:10129000D76AD66AC35303E1C251C70804E2010EFC
:1012A000A86FC36BC26BA92D21D0C551CD5D11E3D1
:1012B00003E1CC51C45D0DE2B151050805E28B8418
:1012C00094948B92949204D08B8294928B94949465
:1012D00004D08B9494948B929492CF51C55D06E385
:1012E00003E1CE51C45D02E3C56BC46BC15303E19E
:1012F000C051C70827E2C16BC06BAC87AF2BD02BA6
:10130000D8B4D12BA62BA0A501D0B72BA0A701D074
:10131000B82BADA103D0D22BD8B4D32BADAB03D017
:10132000CA2BD8B4CB2BBB2D03D0C62BD8B4C72B1C
:10133000ADA703D0C82BD8B4C92BADAF03D0D42BE5
:10134000D8B4D52B9E90000134EF00F0030E0601B7
:10135000E15F0AE3060EEA6EE10EE96EEF5004E08B
:1013600001D000D0EF2EFDD70001000C0501BF2BEE
:10137000BF51010819E2929489747BC6E0F6060118
:10138000E02BE007D8B406D0FF0EE16F0001DEDFEE
:101390000601F7D77AC6E1F60001D8DF9294899466
:1013A000D8C5CCFF0501BF6B9E9200018BEF00F00A
:1013B000060EEA6EAB0EE96EEF500DE0060E016E02
:1013C000006A002EFED7012EFBD77B0E006E002E8A
:1013D000FED7EF2EF3D7000C040E0601A26FFA0E13
:1013E000AB6F0001E5DF0601A22FF9D7F288F18C7F
:1013F000C70ED56EF28A850ECD6E9D80780E0609D9
:10140000CA6EC20ECB6E9D82C150C00B0E09C16E5A
:10141000C050C00B0609C06EC08EC280D76AD66AA3
:10142000C00EF212000198EF39F08E0E006EAFC6BA
:1014300001F0AEC602F0036A015209E102C001F0F8
:10144000026A080E005E015202E1006A08D0D890DC
:1014500001BE04D0023601360006F9D7019E000C09
:101460000601A651D8B4A5D0B26FAA51D8B4A1D064
:10147000B25F05E37F0EB227D8B09BD006D0810EB5
:10148000B25FD8A096D0D8B494D0B2C600F0016AAA
:10149000026A036AB16BA7C6B0F6B08FA8C6AFF6F2
:1014A000A9C6AEF6190EB26FAD51AE5F0DE2010ED8
:1014B000AF5F0AE2B05F08E2B15F06E2B12BB02B8A
:1014C000AF2BAD51AE2728D0AC51AF5F12E2010E69
:1014D000B05F0FE2B15F0DE2B12BB02BAC51AF2783
:1014E000AD51AE2719E3AF2B17E1B02B15E1B12BAE
:1014F00013D0AB518009B05F0EE2010EB15F0BE279
:10150000B12BAB518009B027AC51AF27E9E3B02B29
:10151000E7E1B12BE5D70380B22F01D00BD0D890F3
:10152000AE37AF37B037B137D89003360236013611
:10153000B337BAD7B3A106D0D89001320232033202
:10154000B33302D0000635E0B3BF1ED0D890AE371B
:10155000AF37B037B137AD51AE5F07E2010EAF5FC5
:1015600004E2B05F02E2B15F1AE3AC51AF5F05E2A3
:10157000010EB05F02E2B15F12E3AB518009B05FD0
:1015800003E2010EB15F0BE3032A09E1022A07E13E
:10159000012A05E1002A0DE0013202320332A7C61A
:1015A000B2F6AB51B21BB2AF02D0018E06D0019E93
:1015B00004D0006A016A026A036A0001000C800E0E
:1015C000D8A202D00601B31B0601B86BB96BAFC637
:1015D000B7F6B351B71BAE51D8B4DFD0B66F006EBB
:1015E000B251D8B4E3D0B65FD8B483D03EE3B3C62B
:1015F000BCF6BC8FB4C6BBF6B5C6BAF6B96BD8900C
:10160000BC33BB33BA33B933B62FF8D7B7AF03D037
:10161000B881E0D0B891B691B889060EEA6EB10EE5
:10162000E96EEBD0B899B7BF0AD0B6A113D0BC33DE
:10163000BB33BA33B933002AD8B4C7D00BD0BCBF40
:101640000CD0D890B937BA37BB37BC370006D8B4FE
:10165000BCD0F5D7B88D6DD0B89DAFC6B7F6AFAFDB
:1016600002D0BC8FABD0BC9FA9D0B2C6B6F6B2C672
:1016700000F0AE51B65FAFC6BCF6BC8FB0C6BBF6CD
:10168000B1C6BAF6B96BD890BC33BB33BA33B933F1
:10169000B62FF8D7B7AF03D0B8839CD0B893B69124
:1016A000B88B060EEA6EB50EE96EA7D0B89BB7BF31
:1016B0000AD0B6A113D0BC33BB33BA33B933002A36
:1016C000D8B483D00BD0BCBF0CD0D890B937BA37C0
:1016D000BB37BC370006D8B478D0F5D7B88F29D03F
:1016E000B89FB3C6B7F6B3AF02D0BC8F67D0BC9F6C
:1016F00065D0B3C6BCF6BC8FB4C6BBF6B5C6BAF6E9
:10170000B7AF04D0BC9FB88565D0B895B96BB6911A
:10171000060EEA6EB10EE96E70D0B7BF1CD0AFC630
:10172000B7F6B6A106D0BC33BB33BA33B933002AFF
:101730004CE0B9AF0BD0BA2B09E1BB2B07E1BC2BB6
:1017400005E1BC33BB33BA33002A3FE0B8BD84D7D0
:10175000B8BFC6D71CD0800EBC1BBCAF04D03AD0DB
:10176000B3C6B7F60AD0AFC6B7F6BC5306E1BB5353
:1017700004E1BA5302E1006A21D0BCBF08D0D8907E
:10178000B937BA37BB37BC37002EF7D71ED0B7AF43
:1017900002D0BC8F13D0BC9F11D0B2C600F0B3C62C
:1017A000BCF6B4C6BBF6B5C6BAF608D0AEC600F0F5
:1017B000AFC6BCF6B0C6BBF6B1C6BAF6BCC601F041
:1017C000BBC602F0BAC603F034D0006A016A026AEE
:1017D000036A2FD0B96BBA1FBB1FBC1FB91FB92B2F
:1017E00005E1BA2B03E1BB2B01E1BC2BB8B112D749
:1017F000B8B354D7B8B589D7B3D7EF50BA2705E3F4
:10180000BB2B03E1BC2BD8B4B681ED52EF50BB2704
:1018100003E3BC2BD8B4B681ED52EF50EFBE01D03C
:10182000800ABC27D8B0B681B8B9FCD6B8BB3ED7C1
:1018300074D70001000CF2CFA2F6F29CF29EAA6AC5
:10184000A96AA69CA69EA680A8500601A2BDF28CFD
:10185000A2BFF28E0501FE6F140E0601AB6F0001F0
:10186000A7DDF2CFA2F6F29CF29EAA6A010EA96E43
:10187000A69CA69EA680A8500601A2BDF28CA2BF7F
:10188000F28E0501FF6F140E0601AB6F000190DDB3
:10189000F2CFA2F6F29CF29EAA6A020EA96EA69C54
:1018A000A69EA680A8500601A2BDF28CA2BFF28E11
:1018B000006F140EAB6F00017BDDF2CFA2F6F29C3D
:1018C000F29EAA6A030EA96EA69CA69EA680A850A8
:1018D0000601A2BDF28CA2BFF28E016F140EAB6F97
:1018E000000166DDF2CFA2F6F29CF29EAA6A040E17
:1018F000A96EA69CA69EA680A8500601A2BDF28C49
:10190000A2BFF28E066F140EAB6F000151DDF2CF55
:10191000A2F6F29CF29EAA6A050EA96EA69CA69E4D
:10192000A680A8500601A2BDF28CA2BFF28E076F5E
:10193000140EAB6F00013CDDF2CFA2F6F29CF29EDA
:10194000AA6A060EA96EA69CA69EA680A8500601AD
:10195000A2BDF28CA2BFF28E086F140EAB6F000115
:1019600027DDF2CFA2F6F29CF29EAA6A070EA96EBC
:10197000A69CA69EA680A8500601A2BDF28CA2BF7E
:10198000F28E096F140EAB6F000112DDF2CFA2F6DA
:10199000F29CF29EAA6A080EA96EA69CA69EA6803C
:1019A000A8500601A2BDF28CA2BFF28E0501BE6F47
:1019B000140E0601AB6F0001FBDCF2CFA2F6F29C25
:1019C000F29EAA6A090EA96EA69CA69EA680A850A1
:1019D0000601A2BDF28CA2BFF28EAF6BAE6F00010A
:1019E00024DD03C05DF602C05CF601C05BF600C0FA
:1019F0005AF65DC6A9F65CC6A8F65BC6A7F65AC637
:101A0000A6F60601AD6BAC6B200EAB6F820EAA6F13
:101A1000000126DD03C05DF602C05CF601C05BF686
:101A200000C05AF60601AF6BBEC5AEF60001FDDC84
:101A3000D89203C0B1F602C0B0F601C0AFF600C044
:101A4000AEF65DC6B5F65CC6B4F65BC6B3F65AC66E
:101A5000B2F6B5DD03C051F602C050F601C04FF634
:101A600000C04EF6140E0601AB6F0001A1DCF2CFF0
:101A7000A2F6F29CF29EAA6A0A0EA96EA69CA69EE7
:101A8000A680A8500601A2BDF28CA2BFF28E05016D
:101A9000BE6F140E0601AB6F00018ADCF2CFA2F616
:101AA000F29CF29EAA6A0B0EA96EA69CA69EA68028
:101AB000A8500601A2BDF28CA2BFF28EAF6BAE6F32
:101AC0000001B3DC03C05DF602C05CF601C05BF64A
:101AD00000C05AF65DC6A9F65CC6A8F65BC6A7F6B6
:101AE0005AC6A6F60601AD6BAC6B200EAB6F820E2C
:101AF000AA6F0001B5DC03C05DF602C05CF601C050
:101B00005BF600C05AF60601AF6BBEC5AEF600012B
:101B10008CDCD89203C0B1F602C0B0F601C0AFF6BB
:101B200000C0AEF65DC6B5F65CC6B4F65BC6B3F6ED
:101B30005AC6B2F644DD03C055F602C054F601C0E1
:101B400053F600C052F6140E0601AB6F000130DCF4
:101B5000F2CFA2F6F29CF29EAA6A0C0EA96EA69C87
:101B6000A69EA680A8500601A2BDF28CA2BFF28E4E
:101B70000501BE6F140E0601AB6F000119DCF2CF38
:101B8000A2F6F29CF29EAA6A0D0EA96EA69CA69ED3
:101B9000A680A8500601A2BDF28CA2BFF28EAF6B48
:101BA000AE6F000142DC03C05DF602C05CF601C00E
:101BB0005BF600C05AF65DC6A9F65CC6A8F65BC621
:101BC000A7F65AC6A6F60601AD6BAC6B200EAB6F3E
:101BD000820EAA6F000144DC03C05DF602C05CF611
:101BE00001C05BF600C05AF60601AF6BBEC5AEF68B
:101BF00000011BDCD89203C0B1F602C0B0F601C0F0
:101C0000AFF600C0AEF65DC6B5F65CC6B4F65BC610
:101C1000B3F65AC6B2F6D3DC03C059F602C058F682
:101C200001C057F600C056F6140E0601AB6F000156
:101C3000D8EC09F0F2CFA2F6F29CF29EAA6A0E0E40
:101C4000A96EA69CA69EA680A8500601A2BDF28CF5
:101C5000A2BFF28EAF6BAE6F000115EC0AF003C0AD
:101C600031F602C030F601C02FF600C02EF60A0E83
:101C70000601AB6F0001D8EC09F0F2CFA2F6F29C9E
:101C8000F29EAA6A0F0EA96EA69CA69EA680A850D8
:101C90000601A2BDF28CA2BFF28EAF6BAE6F000147
:101CA00015EC0AF003C0F1F502C0F0F501C0EFF544
:101CB00000C0EEF50A0E0601AB6F0001D8EC09F08A
:101CC000F2CFA2F6F29CF29EAA6A100EA96EA69C12
:101CD000A69EA680A8500601A2BDF28CA2BFF28EDD
:101CE000AF6BAE6F000115EC0AF003C0F5F502C052
:101CF000F4F501C0F3F500C0F2F50A0E0601AB6F72
:101D00000001D8EC09F0F2CFA2F6F29CF29EAA6A8A
:101D1000110EA96EA69CA69EA680A8500601A2BD83
:101D2000F28CA2BFF28EAF6BAE6F000115EC0AF021
:101D300003C019F602C018F601C017F600C016F667
:101D40000A0E0601AB6F0001D8EC09F0F2CFA2F643
:101D5000F29CF29EAA6A120EA96EA69CA69EA6806E
:101D6000A8500601A2BDF28CA2BFF28E0501A36F9E
:101D70000A0E0601AB6F0001D8EC09F0F2CFA2F613
:101D8000F29CF29EAA6A130EA96EA69CA69EA6803D
:101D9000A8500601A2BDF28CA2BFF28E0501A46F6D
:101DA0000A0E0601AB6F0001D8EC09F0F2CFA2F6E3
:101DB000F29CF29EAA6A140EA96EA69CA69EA6800C
:101DC000A8500601A2BDF28CA2BFF28E0501A56F3C
:101DD0000A0E0601AB6F0001D8EC09F0F2CFA2F6B3
:101DE000F29CF29EAA6A160EA96EA69CA69EA680DA
:101DF000A8500601A2BDF28CA2BFF28EAF6BAE6FEF
:101E0000000115EC0AF003C05DF602C05CF601C0EB
:101E10005BF600C05AF65DC6A9F65CC6A8F65BC6BE
:101E2000A7F65AC6A6F60601AD6BAC6B200EAB6FDB
:101E3000820EAA6F000130EC0AF003C05DF602C00A
:101E40005CF601C05BF600C05AF60A0E0601AB6FE5
:101E50000001D8EC09F0F2CFA2F6F29CF29EAA6A39
:101E6000150EA96EA69CA69EA680A8500601A2BD2E
:101E7000F28CA2BFF28EAF6BAE6F000115EC0AF0D0
:101E8000D89203C0B1F602C0B0F601C0AFF600C0F0
:101E9000AEF65DC6B5F65CC6B4F65BC6B3F65AC61A
:101EA000B2F6DFEC0AF003C0E9F502C0E8F501C0C4
:101EB000E7F500C0E6F50A0E0601AB6F0001D8ECAD
:101EC00009F0F2CFA2F6F29CF29EAA6A180EA96E51
:101ED000A69CA69EA680A8500601A2BDF28CA2BF19
:101EE000F28EA36FF2CFA4F6F29CF29EAA6A170EAE
:101EF000A96EA69CA69EA680A850A4BDF28CA4BFE5
:101F0000F28EA56FA3C603F0A551AE6F03C0AFF666
:101F1000000115EC0AF003C011F602C010F601C072
:101F20000FF600C00EF60A0E0601AB6F0001D8ECEA
:101F300009F0F2CFA2F6F29CF29EAA6A1A0EA96EDE
:101F4000A69CA69EA680A8500601A2BDF28CA2BFA8
:101F5000F28EAF6BAE6F000115EC0AF003C05DF6B8
:101F600002C05CF601C05BF600C05AF65DC6A9F679
:101F70005CC6A8F65BC6A7F65AC6A6F60601AD6B08
:101F8000AC6B200EAB6F820EAA6F000130EC0AF032
:101F900003C05DF602C05CF601C05BF600C05AF6F5
:101FA0000A0E0601AB6F0001D8EC09F0F2CFA2F6E1
:101FB000F29CF29EAA6A190EA96EA69CA69EA68005
:101FC000A8500601A2BDF28CA2BFF28EAF6BAE6F1D
:101FD000000115EC0AF0D89203C0B1F602C0B0F6C9
:101FE00001C0AFF600C0AEF65DC6B5F65CC6B4F68D
:101FF0005BC6B3F65AC6B2F6DFEC0AF003C0EDF5E5
:1020000002C0ECF501C0EBF500C0EAF50A0E0601CE
:10201000AB6F0001D8EC09F0F2CFA2F6F29CF29E71
:10202000AA6A1B0EA96EA69CA69EA680A8500601B1
:10203000A2BDF28CA2BFF28E0501B06F0A0E06019E
:10204000AB6F0001D8EC09F0F2CFA2F6F29CF29E41
:10205000AA6A1C0EA96EA69CA69EA680A850060180
:10206000A2BDF28CA2BFF28E0501B26F0A0E06016C
:10207000AB6F0001D8EC09F09AEF39F0A3C6AAF6CD
:102080000601A751AA1BAAAF05D0D894D890A3BF28
:10209000D8802FD0A3C6AAF6A6C6ABF6A251AB5FD6
:1020A00006E0AAAF26D0D850010AD86E22D0A7C623
:1020B000ABF6A351AB5F06E0AAAF1BD0D850010A24
:1020C000D86E17D0A8C6ABF6A451AB5F06E0AAAF96
:1020D00010D0D850010AD86E0CD0A9C6ABF6A551C5
:1020E000AB5F06E0AAAF05D0D850010AD86E01D088
:1020F000D8900001000C0501FEBF03D0FE51090875
:1021000003E3FEBF01D01DD0FE6BAA6AA96AA86ACC
:10211000A69CA69EA684F250006EF29CF29E0F0131
:10212000550EA76EAA0EA76EA682A6B2FED7A694DB
:102130000050F212140E0601AB6F0001D8EC09F04A
:102140000501FFBF03D0FF51090803E3FFBF01D022
:102150001DD0FF6BAA6A010EA96EA86AA69CA69E56
:10216000A684F250006EF29CF29E0F01550EA76EEF
:10217000AA0EA76EA682A6B2FED7A6940050F212AF
:10218000140E0601AB6F0001D8EC09F0060100BF88
:1021900003D00051090803E300BF01D01ED0006B3B
:1021A000AA6A020EA96EA86AA69CA69EA684F250F0
:1021B000006EF29CF29E0F01550EA76EAA0EA76E3E
:1021C000A682A6B2FED7A6940050F212140E060103
:1021D000AB6F0001D8EC09F0060101BF03D001513B
:1021E000090803E301BF01D01ED0016BAA6A030EE8
:1021F000A96EA86AA69CA69EA684F250006EF29CC8
:10220000F29E0F01550EA76EAA0EA76EA682A6B269
:10221000FED7A6940050F212140E0601AB6F000117
:10222000D8EC09F0060106BF03D00651090803E304
:1022300006BF01D01ED0066BAA6A040EA96EA86A5A
:10224000A69CA69EA684F250006EF29CF29E0F0100
:10225000550EA76EAA0EA76EA682A6B2FED7A694AA
:102260000050F212140E0601AB6F0001D8EC09F019
:10227000060107BF03D00751090803E307BF01D0D8
:102280001ED0076BAA6A050EA96EA86AA69CA69E18
:10229000A684F250006EF29CF29E0F01550EA76EBE
:1022A000AA0EA76EA682A6B2FED7A6940050F2127E
:1022B000140E0601AB6F0001D8EC09F0060108BF4F
:1022C00003D00851090803E308BF01D01ED0086BF2
:1022D000AA6A060EA96EA86AA69CA69EA684F250BB
:1022E000006EF29CF29E0F01550EA76EAA0EA76E0D
:1022F000A682A6B2FED7A6940050F212140E0601D2
:10230000AB6F0001D8EC09F0060109BF03D00951F9
:10231000090803E309BF01D01ED0096BAA6A070EA2
:10232000A96EA86AA69CA69EA684F250006EF29C96
:10233000F29E0F01550EA76EAA0EA76EA682A6B238
:10234000FED7A6940050F212140E0601AB6F0001E6
:10235000D8EC09F00601A56BA46B520EA36F850E95
:10236000A26F51C6A9F650C6A8F64FC6A7F64EC62C
:10237000A6F6000183DE40E30601516B506B700E40
:102380004F6F830E4E6FAA6A080EA96E1E0EA86EBE
:10239000A69CA69EA684F250006EF29CF29E0F01AF
:1023A000550EA76EAA0EA76EA682A6B2FED7A69459
:1023B0000050F212140E0601AB6F0001D8EC09F0C8
:1023C000AA6A090EA96EA86AA69CA69EA684F250C7
:1023D000006EF29CF29E0F01550EA76EAA0EA76E1C
:1023E000A682A6B2FED7A6940050F212140E0601E1
:1023F000AB6F0001D8EC09F00601A56BA46B520E7F
:10240000A36F850EA26F55C6A9F654C6A8F653C68B
:10241000A7F652C6A6F6000131DE40E30601556B71
:10242000546B700E536F830E526FAA6A0A0EA96E18
:102430001E0EA86EA69CA69EA684F250006EF29C6C
:10244000F29E0F01550EA76EAA0EA76EA682A6B227
:10245000FED7A6940050F212140E0601AB6F0001D5
:10246000D8EC09F0AA6A0B0EA96EA86AA69CA69ED3
:10247000A684F250006EF29CF29E0F01550EA76EDC
:10248000AA0EA76EA682A6B2FED7A6940050F2129C
:10249000140E0601AB6F0001D8EC09F00601A56B24
:1024A000A46B520EA36F850EA26F59C6A9F658C62B
:1024B000A8F657C6A7F656C6A6F60001DFDD40E32C
:1024C0000601596B586B700E576F830E566FAA6AD0
:1024D0000C0EA96E1E0EA86EA69CA69EA684F25097
:1024E000006EF29CF29E0F01550EA76EAA0EA76E0B
:1024F000A682A6B2FED7A6940050F212140E0601D0
:10250000AB6F0001D8EC09F0AA6A0D0EA96EA86A9B
:10251000A69CA69EA684F250006EF29CF29E0F012D
:10252000550EA76EAA0EA76EA682A6B2FED7A694D7
:102530000050F212140E0601AB6F0001D8EC09F046
:102540000601A56BA46BA36B810EA26F31C6A9F621
:1025500030C6A8F62FC6A7F62EC6A6F600018EDD59
:1025600023E30601316B306B2F6B800E2E6FAA6A4E
:102570000E0EA96E020EA86EA69CA69EA684F25010
:10258000006EF29CF29E0F01550EA76EAA0EA76E6A
:10259000A682A6B2FED7A6940050F212140E06012F
:1025A000AB6F0001D8EC09F00601A56BA46BA36B1F
:1025B000810EA26FF1C5A9F6F0C5A8F6EFC5A7F682
:1025C000EEC5A6F600015ADD23E30501F16BF06BC1
:1025D000EF6B7F0EEE6FAA6A0F0EA96E010EA86E4A
:1025E000A69CA69EA684F250006EF29CF29E0F015D
:1025F000550EA76EAA0EA76EA682A6B2FED7A69407
:102600000050F212140E0601AB6F0001D8EC09F075
:102610000601A56BA46B200EA36F840EA26FF5C5F7
:10262000A9F6F4C5A8F6F3C5A7F6F2C5A6F600010B
:1026300025DD24E30501F56BF46B200EF36F830EAB
:10264000F26FAA6A100EA96E140EA86EA69CA69E22
:10265000A684F250006EF29CF29E0F01550EA76EFA
:10266000AA0EA76EA682A6B2FED7A6940050F212BA
:10267000140E0601AB6F0001D8EC09F00601A56B42
:10268000A46B200EA36F820EA26F19C6A9F618C6FE
:10269000A8F617C6A7F616C6A6F60001EFDC24E3D7
:1026A0000601196B186B200E176F810E166FAA6A40
:1026B000110EA96E050EA86EA69CA69EA684F250C9
:1026C000006EF29CF29E0F01550EA76EAA0EA76E29
:1026D000A682A6B2FED7A6940050F212140E0601EE
:1026E000AB6F0001D8EC09F00501A35164081EE2AC
:1026F000A36BAA6A120EA96EA86AA69CA69EA684BF
:10270000F250006EF29CF29E0F01550EA76EAA0EBB
:10271000A76EA682A6B2FED7A6940050F212140E9F
:102720000601AB6F0001D8EC09F00501A451640863
:102730001EE2A46BAA6A130EA96EA86AA69CA69EA6
:10274000A684F250006EF29CF29E0F01550EA76E09
:10275000AA0EA76EA682A6B2FED7A6940050F212C9
:10276000140E0601AB6F0001D8EC09F00501A5516C
:1027700050081FE2500EA56FAA6A140EA96E500EE3
:10278000A86EA69CA69EA684F250006EF29CF29EB5
:102790000F01550EA76EAA0EA76EA682A6B2FED78F
:1027A000A6940050F212140E0601AB6F0001D8EC93
:1027B00009F00601A56BA46B5C0EA36F850EA26FDA
:1027C000E9C5A9F6E8C5A8F6E7C5A7F6E6C5A6F6E1
:1027D000000154DC12E2E9C5A5F6E8C5A4F6E7C598
:1027E000A3F6E6C5A2F60601A96BA86B480EA76F73
:1027F000850EA66F000142DC43E3CD0E0501E96FB3
:10280000CC0EE86F530EE76F850EE66FAA6A150EC1
:10281000A96E690EA86EA69CA69EA684F250006EB4
:10282000F29CF29E0F01550EA76EAA0EA76EA6820D
:10283000A6B2FED7A6940050F212140E0601AB6F9A
:102840000001D8EC09F0AA6A160EA96E090EA86E4E
:10285000A69CA69EA684F250006EF29CF29E0F01EA
:10286000550EA76EAA0EA76EA682A6B2FED7A69494
:102870000050F212140E0601AB6F0001D8EC09F003
:102880000601A56BA46B480EA36F8B0EA26F11C639
:10289000A9F610C6A8F60FC6A7F60EC6A6F6000142
:1028A0003EEC10F042E30601116BC00E106F410EBA
:1028B0000F6F8B0E0E6FAA6A170EA96E180EA86EF8
:1028C000A69CA69EA684F250006EF29CF29E0F017A
:1028D000550EA76EAA0EA76EA682A6B2FED7A69424
:1028E0000050F212140E0601AB6F0001D8EC09F093
:1028F000AA6A180EA96E380EA86EA69CA69EA6847B
:10290000F250006EF29CF29E0F01550EA76EAA0EB9
:10291000A76EA682A6B2FED7A6940050F212140E9D
:102920000601AB6F0001D8EC09F00601A56BA46BA2
:10293000A36B800EA26FEDC5A9F6ECC5A8F6EBC59A
:10294000A7F6EAC5A6F600013EEC10F03FE305014C
:10295000ED6BEC6BEB6B7E0EEA6FAA6A190EA96E3B
:10296000A86AA69CA69EA684F250006EF29CF29ED7
:102970000F01550EA76EAA0EA76EA682A6B2FED7AD
:10298000A6940050F212140E0601AB6F0001D8ECB1
:1029900009F0AA6A1A0EA96E050EA86EA69CA69E3C
:1029A000A684F250006EF29CF29E0F01550EA76EA7
:1029B000AA0EA76EA682A6B2FED7A6940050F21267
:1029C000140E0601AB6F0001D8EC09F00501B051FF
:1029D000010820E2010EB06FAA6A1B0EA96E010E5B
:1029E000A86EA69CA69EA684F250006EF29CF29E53
:1029F0000F01550EA76EAA0EA76EA682A6B2FED72D
:102A0000A6940050F212140E0601AB6F0001D8EC30
:102A100009F00501B2510A0820E20A0EB26FAA6A53
:102A20001C0EA96E0A0EA86EA69CA69EA684F25045
:102A3000006EF29CF29E0F01550EA76EAA0EA76EB5
:102A4000A682A6B2FED7A6940050F212140E06017A
:102A5000AB6F0001D8EC09F0050131C63DF630C678
:102A60003CF62FC63BF62EC63AF600019CEF39F035
:102A70000601BC5303E093968A8602D093948A841D
:102A8000939C8A9C956ABDC68CFF0000939E8A8E9B
:102A900000D000D00000939E8A9E93948A949396CF
:102AA0008A960001000C0601AD6B2A0EAC6F020E77
:102AB000AF6F2A0EAE6FAA51FF0DF3CFABF6B16B1D
:102AC000B06BB15101081AE3ADC603F0AC51AC2BA9
:102AD000D8B4AD2BE96E03C0EAFFABC6EFFFAFC6BB
:102AE00003F0AE51AE2BD8B4AF2BE96E03C0EAFFB2
:102AF000ABC6EFFFB02BD8B4B12BE3D70001000C6D
:102B00000601B86B2A0EB76F020EBA6F2A0EB96FA4
:102B1000B56BB55107084EE3939A8A9ABC6B400E89
:102B2000BD6F0001A5DF010E0601BC6F400EBD6F39
:102B300000019EDF0601B551B809BB6FBC6BBD6FCC
:102B4000000196DF0601B551B809BB6F010EBC6FDD
:102B5000BBC6BDF600018CDF939A8A8A0601B66B6C
:102B6000B6513F0825E3B8C603F0B751B72BD8B428
:102B7000B82BE96E03C0EAFFEFCFBBF6BC6BBBC658
:102B8000BDF6000175DF0601BAC603F0B951B92BD5
:102B9000D8B4BA2BE96E03C0EAFFEFCFBBF6010E43
:102BA000BC6FBBC6BDF6000163DF0601B62BD8D7EC
:102BB000B52BAFD70001000C93988A88939E8A9E0C
:102BC00093948A9493968A96939A8A9A0601BC6BF8
:102BD000C00EBD6F00014CDF010E0601BC6FC00EC0
:102BE000BD6F000145DF0601BC6B400EBD6F0001EB
:102BF0003FDF010E0601BC6F400EBD6F000138DFE4
:102C00000601BC6BB80EBD6F000132DF010E06017C
:102C1000BC6FB80EBD6F00012BDF0601A22D0ED0D8
:102C2000BC6B3F0EBD6F000123DF010E0601BC6FC0
:102C30003F0EBD6F00011CDF0DD00601BC6B3E0EC8
:102C4000BD6F000115DF010E0601BC6F3E0EBD6FAA
:102C500000010EDF0601AA6B000125DF51DF000C29
:102C60000601DC6BD731DB6FDB33DB331F0EDB1789
:102C7000DB37DC37DB37DC37DB37DC37DB37DC37C0
:102C8000DB37DC37DB37DC37C00EDB17D651DB2711
:102C9000000EDC23D6513F080DE22A0EDB25DD6F46
:102CA000020EDC21DE6F400EDD5DD96F000EDE59B5
:102CB000DA6F06D02A0EDB25D96F000EDC21DA6F21
:102CC000D85315E0DAC603F0D9C6E9FFDAC6EAFF41
:102CD000D751070BDD6F010E006EDD51016E04E070
:102CE000D8900036012EFCD70050EF1215D0DAC66E
:102CF00003F0D9C6E9FFDAC6EAFFD751070BDD6F4B
:102D0000010E006EDD51016E04E0D8900036012EF8
:102D1000FCD70050FF0AEF160001000CBEC603F0FE
:102D20000601BDC6E9FFBEC6EAFFEF52D8B4D6D051
:102D3000BEC603F0BDC6E9FFBEC6EAFFEF505208AB
:102D40002AE3BEC603F0BDC6E9FFBEC6EAFF200EF9
:102D5000EF5C050DF350036ACA6F060EEA6EC50EEE
:102D6000E96ECE6BCAC6CDF6F2CFCBF6F29CF29EE0
:102D7000050E016EF76ACA510001AEEC00F00A00C0
:102D80000900F5CFEEFF012EFBD70601CBBDF28C7B
:102D9000CBBFF28E38D0BEC603F0BDC6E9FFBEC6BB
:102DA000EAFFEF507E082AE3BEC603F0BDC6E9FF86
:102DB000BEC6EAFF530EEF5C050DF350036ACA6FFF
:102DC000060EEA6EC50EE96ECE6BCAC6CDF6F2CF20
:102DD000CBF6F29CF29E050E016EF76ACA51000115
:102DE00040EC01F00A000900F5CFEEFF012EFBD701
:102DF0000601CBBDF28CCBBFF28E05D0C56BC66B86
:102E0000C76BC86BC96BBEC603F0BD51E96E03C08A
:102E1000EAFFEF500A0A000103E0070A09E00BD0BD
:102E20000601BF51070DF350010FBC2750D0000120
:102E30000601BB6B4CD00601BF51050DF350BB25FD
:102E40007F0806E2BB6BBF51070DF350010FBC2793
:102E5000C16BC15104083BE3C26BC251060833E3A6
:102E6000036AC151C50FE96E060E0320EA6EEFCF6B
:102E7000CAF6CAC600F0C251016E04E0D890003212
:102E8000012EFCD700A01DD0C36BBF51C35D19E25A
:102E9000C46BBF51C45D13E2C451BB25CA6FC2519C
:102EA000BF03F350BC25C325CB6FCAC6D6F6D76F78
:102EB000C0C6D8F60001D4DE0601C42BEAD7C32B66
:102EC000E4D7C22BCAD7C12BBF51BB27C2D7BD2B5A
:102ED000D8B4BE2BBB2B000121D706010001000C8A
:102EE000010E0601CF6FD06FD56BC651C85DD66F8E
:102EF000D651D6AF03D0000ED880D655036ACD6F19
:102F000003C0CEF6C751C95DD66FD651D6AF03D038
:102F1000000ED880D655036ACB6F03C0CCF6C651DD
:102F2000C85D02E2FF0ECF6FC751C95D02E2FF0E1E
:102F3000D06FCC51CE5D3BE303E1CB51CD5D37E3A8
:102F4000D890CB37CC37CD51CB5D006ECE51CC591C
:102F500000C0D1F6D26FCD51D15DD36FCE51D259D1
:102F6000D46FCE5303E1D551CD5D20E3C6C6D6F66E
:102F7000C7C6D7F6CAC6D8F6000172DE0601D2BFB0
:102F800001D008D0CB51D127CC51D223CF51C62567
:102F9000C66F0AD0D351D127D451D223CF51C625E1
:102FA000C66FD051C725C76FD52BDBD736D0D89089
:102FB000CD37CE37CB51CD5D006ECC51CE5900C050
:102FC000D1F6D26FCB51D15DD36FCC51D259D46FE2
:102FD000CC5303E1D551CB5D20E3C6C6D6F6C7C6B8
:102FE000D7F6CAC6D8F600013BDE0601D2BF01D033
:102FF00008D0CD51D127CE51D223D051C725C76F8C
:103000000AD0D351D127D451D223CF51C625C66F70
:10301000D051C725C76FD52BDBD70001000C0601A7
:10302000BF532EE0BD51BB5D05E2BBC6C2F6BDC6B7
:10303000C3F604D0BDC6C2F6BBC6C3F6BE51BC5D66
:1030400005E2BCC6C4F6BEC6C5F604D0BEC6C4F60C
:10305000BCC6C5F6C251C35D12E3C4C6C1F6C151B8
:10306000C55D0BE3C2C6D6F6C1C6D7F6C0C6D8F654
:103070000001F6DD0601C12BF2D7C22BEBD72ED013
:10308000BBC6C6F6BCC6C7F6BDC6C8F6BCC6C9F642
:10309000C0C6CAF6000124DFBBC6C6F6BEC6C7F668
:1030A000BDC6C8F6BEC6C9F6C0C6CAF619DFBBC6DD
:1030B000C6F6BCC6C7F6BBC6C8F6BEC6C9F6C0C60D
:1030C000CAF60EDFBDC6C6F6BCC6C7F6BDC6C8F694
:1030D000BEC6C9F6C0C6CAF603DF06010001000C71
:1030E0000601AAC601F0ABC603F0AAC6B0F6ABC68D
:1030F000B1F6060EEA6E820EE96EABC6E2FFAAC614
:10310000E1FFE752E6CFEEFFFCE1AE51020814E129
:10311000010EAC25B06F010EAD25B16FB0C6BBF688
:10312000BC6F060EBE6F820EBD6FAFC6BFF6010E3E
:10313000C06F0001F3DD0601AE2D25D0AF51080DA3
:10314000F350AD25B06FBB6BADC6BCF67F0EBD6F47
:10315000B0C6BEF6010EBF6FC06F000160DF010E8A
:103160000601AC25B06F010EAD25B16FB0C6BBF640
:10317000BC6F060EBE6F820EBD6FAFC6BFF6C06BD2
:103180000001CCDD0601AE5325E1AF51080DF3502F
:10319000AD25B06FBB6BADC6BCF67F0EBD6FB0C6C4
:1031A000BEF6010EBF6FC06B000139DF010E0601D4
:1031B000AC25B06F010EAD25B16FB0C6BBF6BC6FCC
:1031C000060EBE6F820EBD6FAFC6BFF6010EC06F9A
:1031D0000001A4DD000194DC000C0601A335006EA3
:1031E0000036FC0E001600C001F0C250C30B0010E8
:1031F000C26E010EAB6F0001D8EC09F0C282C2B200
:10320000FED7C4CFAFF6C3CFAEF6000115EC0AF07F
:1032100003C0A7F602C0A6F601C0A5F600C0A4F63A
:10322000A4C600F0A5C601F0A6C602F0A7C603F02A
:10323000AEEF19F00601A651A803F3CF01F0F4CFC9
:1032400000F0A903F3500026A751A803F350002073
:10325000026E0001000C0601C251D8B471D0006E9C
:10326000C651D8B46DD0002604E3810E002668E272
:1032700004D07F0E005E64E363E0C3C6CAF6C751A4
:10328000CA1BC38FC78FC551C903F4CFCCF6C45135
:10329000C803F4CF03F0F3CFCBF6C903F350CC2728
:1032A000F450CB23000E0322C551C803F350CC27A2
:1032B000F450CB23000E026A03220222C351C90339
:1032C000F350CB27F4500322000E0222C351C8034F
:1032D000F3500326F4500222000E016A0122C55168
:1032E000C703F350CB27F4500322000E0222012221
:1032F000C451C703F3500326F4500222000E0122EA
:10330000C351C703F3500226F4500122002A01BE24
:1033100005D0CB370336023601360006000ECBAFA0
:103320000AD0032A02220122015005E1025003E1E2
:10333000035001E1002ACABF018ECAAF019E04D02A
:10334000006A016A026A036A0001000C0601256B2B
:10335000246B236B226BA36B00013FD703C00DF6D8
:1033600002C00CF601C00BF600C00AF60DC6A9F6A5
:103370000CC6A8F60BC6A7F60AC6A6F6E9C5ADF6B2
:10338000E8C5ACF6E7C5ABF6E6C5AAF630EC0AF040
:1033900003C00DF602C00CF601C00BF600C00AF621
:1033A000D8920DC6B1F60CC6B0F60BC6AFF60AC67B
:1033B000AEF6B80E0601B56F1E0EB46F6D0EB36F8C
:1033C000820EB26F0001DFEC0AF003C00DF602C0FE
:1033D0000CF601C00BF600C00AF60601A96BC00E80
:1033E000A86F7F0EA76F880EA66F0DC6ADF60CC630
:1033F000ACF60BC6ABF60AC6AAF6000130EC0AF032
:1034000000C0A3F601C0A4F602C0A5F603C0A6F64C
:10341000D88203C0B1F602C0B0F601C0AFF600C05A
:10342000AEF60601B56BB46BB36B7F0EB26F0001E5
:10343000DFEC0AF00601A96B800EA86F540EA76F8F
:103440008B0EA66F03C0ADF602C0ACF601C0ABF6A2
:1034500000C0AAF6000130EC0AF003C015F602C065
:1034600014F601C013F600C012F6010E0601A25DAB
:103470000501A25D02E001E3A26B0601A76BA2C5F4
:10348000A6F6A96B040EA86F0001D4DE0150300F20
:10349000E96E040E0220EA6E12C6EFFF13C6ECFFBF
:1034A00014C6ECFF15C6ECFF0501A22BA16B0601AB
:1034B000A2510501A15D3FE20601A76BA1C5A6F6D9
:1034C000A96B040EA86F0001B5DE02C003F0015025
:1034D000300FE96E040E0220EA6EEFCF00F0ECCF61
:1034E00001F0ECCF02F0ECCF03F0EACFA4F6E9CF85
:1034F000A3F6D89225C6B1F624C6B0F623C6AFF619
:1035000022C6AEF603C0B5F602C0B4F601C0B3F6EB
:1035100000C0B2F6DFEC0AF0A4C6EAFFA3C6E9FFDA
:1035200003C025F602C024F601C023F600C022F62F
:103530000501A12BBCD70601AF6BA2C6AEF60001F8
:1035400015EC0AF025C6A9F624C6A8F623C6A7F6E8
:1035500022C6A6F603C0ADF602C0ACF601C0ABF6BB
:1035600000C0AAF630EC0AF003C025F602C024F62B
:1035700001C023F600C022F625C6C5F624C6C4F64F
:1035800023C6C3F622C6C2F625C6C9F624C6C8F6A7
:1035900023C6C7F622C6C6F65EDE00C0A3F601C08B
:1035A000A4F602C0A5F603C0A6F603C0C5F602C085
:1035B000C4F601C0C3F600C0C2F669C6C9F668C643
:1035C000C8F667C6C7F666C6C6F645DE00C0A3F6EF
:1035D00001C0A4F602C0A5F603C0A6F625C6C5F62E
:1035E00024C6C4F623C6C3F622C6C2F66DC6C9F603
:1035F0006CC6C8F66BC6C7F66AC6C6F62CDED8928D
:10360000A6C6B1F6A5C6B0F6A4C6AFF6A3C6AEF67A
:1036100003C0B5F602C0B4F601C0B3F600C0B2F6FE
:10362000DFEC0AF000C0A3F601C0A4F602C0A5F6C4
:1036300003C0A6F6D89203C0B1F602C0B0F601C02E
:10364000AFF600C0AEF671C6B5F670C6B4F66FC67A
:10365000B3F66EC6B2F6DFEC0AF003C029F602C07C
:1036600028F601C027F600C026F60601AF6BA3C5F9
:10367000AEF6000115EC0AF003C061F602C060F678
:1036800001C05FF600C05EF60601AF6BA4C5AEF6E2
:10369000000115EC0AF003C065F602C064F601C033
:1036A00063F600C062F661C6A9F660C6A8F65FC6FA
:1036B000A7F65EC6A6F60601AD6BAC6B200EAB6F2F
:1036C000820EAA6F000130EC0AF003C061F602C05E
:1036D00060F601C05FF600C05EF665C6A9F664C676
:1036E000A8F663C6A7F662C6A6F60601AD6BAC6B7C
:1036F000200EAB6F820EAA6F000130EC0AF003C0FF
:1037000065F602C064F601C063F600C062F6D882B6
:1037100061C6B1F660C6B0F65FC6AFF65EC6AEF67D
:1037200065C6B5F664C6B4F663C6B3F662C6B2F64D
:10373000DFEC0AF0D89229C6B1F628C6B0F627C643
:10374000AFF626C6AEF603C0B5F602C0B4F601C0A9
:10375000B3F600C0B2F6DFEC0AF003C029F602C0EF
:1037600028F601C027F600C026F626C600F027C6B8
:1037700001F028C602F029C603F0000C010E060174
:10378000A26F0001DCEC15F00601AA6B000153ECFE
:1037900015F0060EEA6E820EE96EF2CFA2F6F29CEA
:1037A000F29E000E11EC04F00A000900F550EE6ED6
:1037B0000009FBE10601A2BDF28CA2BFF28E060E4B
:1037C000AB6F820EAA6FAC6BAD6BAE6B020EAF6FC0
:1037D000000186DC060EEA6E820EE96EF2CFA2F6DA
:1037E000F29CF29E000E29EC04F00A000900F5504C
:1037F000EE6E0009FBE10601A2BDF28CA2BFF28EC3
:10380000060EAB6F820EAA6FAC6B140EAD6FAE6B73
:10381000010EAF6F000164DC060EEA6E820EE96EE7
:10382000F2CFA2F6F29CF29E000E42EC04F00A00E7
:103830000900F550EE6E0009FBE10601A2BDF28C15
:10384000A2BFF28E060EAB6F820EAA6FAC6B1E0E7D
:10385000AD6FAE6B010EAF6F000142DC060EEA6E7B
:10386000820EE96EF2CFA2F6F29CF29E000E5CECA4
:1038700004F00A000900F550EE6E0009FBE10601B4
:10388000A2BDF28CA2BFF28E060EAB6F820EAA6FA3
:10389000AC6B2D0EAD6FAE6B020EAF6F000120DC76
:1038A000040E0601A26FFA0EAB6F0001D8EC09F00E
:1038B0000601A22FF8D7AA6B000153EC15F0050101
:1038C000B56BB5514F080FE3A5C5A2F600013EDD6B
:1038D00003C045F602C044F601C043F600C042F6FC
:1038E0000501B52BEED700019EEF39F08E0E006E6C
:1038F0000601AE51005EAFC602F0B0C601F0028E06
:10390000005209E0D890025202E1015204E0023272
:103910000132002EF7D7AFAF05D0011E021E012ADB
:10392000D8B4022A0001000C080E016E050E006ECC
:10393000002EFED78B969496060E006E002EFED7B4
:103940000601A6378B98D8B09488D8A0949894860E
:1039500082A6FED7012E01D002D00001E7D7050EC6
:10396000006E002EFED78B96949600009488060E6B
:10397000006E002EFED7060E006E002EFED7948637
:1039800082A6FED7016A060E006E002EFED782B810
:1039900001808B9694968B9894980001000C9488E3
:1039A000050E006E002EFED79486060E006E002EC9
:1039B000FED78B989498050E006E002EFED78B963E
:1039C0009496A3C6A6F6B0DFA4C6A6F6ADDFA5C63C
:1039D000A6F6AADF94980000948682A6FED7050E6C
:1039E000006E002EFED700D000009488050E006EF9
:1039F000002EFED7000C0601A96BA86BA76BA66B67
:103A0000AD6BAC6BAB6BAA6BA5C6B1F6A4C6B0F63A
:103A1000A3C6AFF6A2C6AEF6000168DF0601AF6B23
:103A200001C0AEF6000115EC0AF003C0A9F602C011
:103A3000A8F601C0A7F600C0A6F6D882A5C6B1F6C2
:103A4000A4C6B0F6A3C6AFF6A2C6AEF6A9C6B5F632
:103A5000A8C6B4F6A7C6B3F6A6C6B2F6DFEC0AF05F
:103A600000C0AEF601C0AFF602C0B0F603C0B1F6BA
:103A700003C0C5F602C0C4F601C0C3F600C0C2F65A
:103A80000601C96BC86B200EC76F820EC66F00019E
:103A90002BEC19F003C0ADF602C0ACF601C0ABF6DA
:103AA00000C0AAF6ADC6B1F6ACC6B0F6ABC6AFF66E
:103AB000AAC6AEF61BDF01507AEF1DF045C6B1F67F
:103AC00044C6B0F643C6AFF642C6AEF60FDF01C03D
:103AD000A2F6A00E0601A36FA46B01C0A5F600011B
:103AE0005EDF45C6A5F644C6A4F643C6A3F642C6A5
:103AF000A2F681D701C0A2F6A00E0601A36F010EA7
:103B0000A46F01C0A5F600014ADFA00E0601A36F55
:103B1000020EA46FFF0EA56F000141DFA00E06018B
:103B2000A36F030EA46FFF0EA56F000138DFA00E78
:103B30000601A36F040EA46F800EA56F00012FDF96
:103B4000F8EF39F08E0E006EA4C601F0A3C602F0A5
:103B5000036A01AE05D0011E021E022A01E1012AFC
:103B6000015209E102C001F0026A080E005E015232
:103B700002E1006A0DD0D89001BE04D002360136B1
:103B80000006F9D70601A4AF02D0000101D0019EC2
:103B9000000113EF3AF00601C251B608C26F036A82
:103BA000C3C6C6F6C38FD890C333C433C5330332FC
:103BB000023201320032C22FF6D7C6AF0BD0001E40
:103BC000011E021E031E002AD8B4012AD8B4022AFC
:103BD000D8B4032A0001000CB60E006E036A026A14
:103BE000016A0601A251A311A411A51102E1006A04
:103BF0000DD0D89001BE09D0A237A337A437A5377E
:103C0000033602360136002EF4D7019E00016CEF18
:103C10003AF00601C051016ABF5D03E2BFC600F081
:103C20000CD0006A080EC16FBF370036C051005C6F
:103C3000D8B0006E0136C12FF7D70001000CA1C625
:103C4000EAFFA0C6E9FF0601C2C6EFFFE92AD8B421
:103C5000EA2AEF6AA02BD8B4A12B0001000C200E99
:103C60000601BAA9300EBB6FB9C600F0B9AF07D0D4
:103C7000001E002A00C0B9F62D0EBB6FBA8F01508E
:103C8000B9C6BFF6640EC06F0001C3DF00C0B9F64D
:103C9000300E01240601BC6FB9C6BFF60A0EC06F14
:103CA0000001B7DF300E00240601BE6F300E012484
:103CB000BD6FBBC600F0BAA702D0BAAFBA95BAB909
:103CC0000BD0BAAF22D0BAB520D000C0BCF6BAB380
:103CD0001CD000C0BDF619D0300EBC5D16E100C08E
:103CE000BCF6200EBB6FBAA704D0BA95BA83BAAFA0
:103CF000BA93300EBD5D09E100C0BDF6200EBC6F69
:103D0000BAA7F7D7BA93BAAFBA91BAA505D0BBC6CE
:103D1000C2F6000194DF0601BAA305D0BCC6C2F604
:103D200000018DDF0601BAA104D0BDC6C2F60001B4
:103D300086DFBEC6C2F6000182DFAAEF1EF0060EC5
:103D40000601A16FB00EA06FACC6B9F61F0EBA6F18
:103D5000000185D70601AF2D29D0120EAD25B96F10
:103D6000180EAE25BA6FADC6BBF6AEC6BCF6B9C668
:103D7000BDF6BE6F010EBF6FC06F00010FEC18F0F3
:103D8000020E0601AD25B96F010EAE25BA6FB9C698
:103D9000BBF6BC6F060EBE6FB00EBD6F020EBF6FDE
:103DA000C06B00018EEC16F028D00601120EAD2576
:103DB000B96F180EAE25BA6FADC6BBF6AEC6BCF66F
:103DC000B9C6BDF6BE6FBF6BC06B00010FEC18F03B
:103DD000020E0601AD25B96F010EAE25BA6FB9C648
:103DE000BBF6BC6F060EBE6FB00EBD6F020EBF6F8E
:103DF000010EC06F00018EEC16F0000C020E0601E1
:103E0000AB6F0001D8EC09F0000C0601AA6B0001B1
:103E100053EC15F0060EEA6E820EE96EF2CFAAF6AA
:103E2000F29CF29E000EE4EC03F00A000900F5504B
:103E3000EE6E0009FBE10601AABDF28CAABFF28E6C
:103E4000060EAB6F820EAA6F1E0EAC6FAD6BAE6B23
:103E5000020EAF6F000170EC18F0060EEA6E820ED3
:103E6000E96EF2CFAAF6F29CF29E000EF9EC03F096
:103E70000A000900F550EE6E0009FBE10601AABD3B
:103E8000F28CAABFF28E060EAB6F820EAA6FAC6BDD
:103E90001E0EAD6FAE6B020EAF6F000170EC18F02E
:103EA00080EC15F0080E0601AA6FFA0EAB6F000148
:103EB000D8EC09F00601AA2FF8D7AA6B000153EC41
:103EC00015F0000C0501AB53D8A47AD002C6ACF6AD
:103ED000140E0601AD6F1E0EAE6F010EAF6F000126
:103EE0002EDF03C6ACF6280E0601AD6F1E0EAE6FB8
:103EF000AF6B000124DF04C6ACF63C0E0601AD6FCB
:103F00001E0EAE6FAF6B00011ADF02C6ACF6500E8C
:103F10000601AD6F1E0EAE6FAF6B000110DF060124
:103F2000A95327E1060EEA6E820EE96EF2CFAAF6D9
:103F3000F29CF29E000E000173EC04F00A000900EE
:103F4000F550EE6E0009FBE10601AABDF28CAABF96
:103F5000F28E060EAB6F820EAA6F140EAC6FAD6BB5
:103F6000010EAE6F030EAF6F000170EC18F025D09C
:103F70000601060EEA6E820EE96EF2CFAAF6F29CF8
:103F8000F29E000E000188EC04F00A000900F550D2
:103F9000EE6E0009FBE10601AABDF28CAABFF28E0B
:103FA000060EAB6F820EAA6FAC6BAD6B010EAE6FDF
:103FB000020EAF6F000170EC18F0010E0501AB6F3F
:103FC000928A80BA6ED0A0BF6BD0A08F000116DF9E
:103FD0008B8A949A320E0601AB6F0001D8EC09F07F
:103FE0008B9A949A010E0501B56FB551040858E3F8
:103FF000B551B45D3AE1010EB55D036A020FE96E99
:10400000060E0320EA6EEF2A010EB55D036A020F69
:10401000E96E060E0320EA6EEFBE0CD0EF500908E1
:1040200009E2010EB55D036A020FE96E060E032078
:10403000EA6EEF6A010EB55D036A020FE96E060EC5
:104040000320EA6EEFCFAAF6B551140DF3CFABF60D
:104050000601AAC6ACF6ABC6ADF61E0EAE6F010EDB
:10406000AF6F00016CDE19D00501010EB55D036A6A
:10407000020FE96E060E0320EA6EEFCFAAF6B551E5
:10408000140DF3CFABF60601AAC6ACF6ABC6ADF67F
:104090001E0EAE6FAF6B000152DE0501B52BA5D72A
:1040A00001D0A09F968084B06DD0ACB36AD0AC83B1
:1040B0000001A4DE8B8A949A320E0601AB6F0001D8
:1040C000D8EC09F08B9A949A010E0501B56FB551A1
:1040D000040857E3B551B45D39E1010EB55D036ADB
:1040E000020FE96E060E0320EA6EEF06010EB55DC3
:1040F000036A020FE96E060E0320EA6EEFBE01D0DE
:104100000AD0010EB55D036A020FE96E060E0320A8
:10411000EA6E090EEF6E010EB55D036A020FE96EDD
:10412000060E0320EA6EEFCFAAF6B551140DF3CFB9
:10413000ABF60601AAC6ACF6ABC6ADF61E0EAE6F68
:10414000010EAF6F0001FBDD19D00501010EB55D59
:10415000036A020FE96E060E0320EA6EEFCFAAF69D
:10416000B551140DF3CFABF60601AAC6ACF6ABC63B
:10417000ADF61E0EAE6FAF6B0001E1DD0501B52B94
:10418000A6D701D0AC93968284B251D0ACB14ED0B8
:10419000AC81000133DE0501B42B8B8A949A320E78
:1041A0000601AB6F0001D8EC09F08B9A949A010ECE
:1041B0000501B56FB551040839E3B551B45D1BE194
:1041C000010EB55D036A020FE96E060E0320EA6E6A
:1041D000EFCFAAF6B551140DF3CFABF60601AAC680
:1041E000ACF6ABC6ADF61E0EAE6F010EAF6F0001A2
:1041F000A6DD19D00501010EB55D036A020FE96E57
:10420000060E0320EA6EEFCFAAF6B551140DF3CFD8
:10421000ABF60601AAC6ACF6ABC6ADF61E0EAE6F87
:10422000AF6B00018CDD0501B52BC4D701D0AC917B
:10423000968484B42ED0640E0601AB6F0001D8ECD6
:1042400009F0968484B424D08B8A949A320E0601A5
:10425000AB6F0001D8EC09F08B9A949AA2C6B3F523
:104260000601AA6B000153EC15F00501AB6B010EC2
:10427000BA6FB46F0601026B036B046B056BAA6B1C
:10428000000153EC15F080EC15F0010E016E6CD2BC
:104290000501B4510408D8B068D20601AA6B000128
:1042A00053EC15F0010E0501B46F0601A953D8A413
:1042B000CBD102510308D8A47FD003510808D8A459
:1042C0007BD004510908D8A477D00551020874E1C5
:1042D000A35372E1AA6A040EA96EA86AA69CA69EC0
:1042E000A684F250006EF29CF29E0F01550EA76E4E
:1042F000AA0EA76EA682A6B2FED7A6940050F2120E
:10430000140E0601AB6F0001D8EC09F0AA6A050E85
:10431000A96EA86AA69CA69EA684F250006EF29C86
:10432000F29E0F01550EA76EAA0EA76EA682A6B228
:10433000FED7A6940050F212140E0601AB6F0001D6
:10434000D8EC09F0AA6A060EA96EA86AA69CA69ED9
:10435000A684F250006EF29CF29E0F01550EA76EDD
:10436000AA0EA76EA682A6B2FED7A6940050F2129D
:10437000140E0601AB6F0001D8EC09F0AA6A070E13
:10438000A96EA86AA69CA69EA684F250006EF29C16
:10439000F29E0F01550EA76EAA0EA76EA682A6B2B8
:1043A000FED7A6940050F212140E0601AB6F000166
:1043B000D8EC09F0FF000601A551025DD8A474D025
:1043C000A651035D71E1A751045D6EE1A851055D41
:1043D0006BE1AA6B000153EC15F0060EEA6E820E3B
:1043E000E96EF2CFAAF6F29CF29E000E73EC04F096
:1043F0000A000900F550EE6E0009FBE10601AABDB6
:10440000F28CAABFF28E060EAB6F820EAA6F1E0E42
:10441000AC6FAD6BAE6B020EAF6F000170EC18F0BD
:10442000060EEA6E820EE96EF2CFAAF6F29CF29EBA
:10443000000EA0EC04F00A000900F550EE6E000931
:10444000FBE10601AABDF28CAABFF28E060EAB6F8D
:10445000820EAA6F0F0EAC6F1E0EAD6FAE6B020E0A
:10446000AF6F000170EC18F0A4C6B3F580EC15F046
:10447000040E0601AA6FFA0EAB6F0001D8EC09F02A
:104480000601AA2FF8D7AA6B000153EC15F006011C
:10449000026B036B046B056B0501AB6B010E016EC8
:1044A000000162D1CFD00601AA6B000153EC15F0D8
:1044B000060EEA6E820EE96EF2CFAAF6F29CF29E2A
:1044C000000E73EC04F00A000900F550EE6E0009CE
:1044D000FBE10601AABDF28CAABFF28E060EAB6FFD
:1044E000820EAA6F1E0EAC6FAD6BAE6B020EAF6F7D
:1044F000000170EC18F0060EEA6E820EE96EF2CF43
:10450000AAF6F29CF29E000EB7EC04F00A00090035
:10451000F550EE6E0009FBE10601AABDF28CAABFC0
:10452000F28E060EAB6F820EAA6FAC6B1E0EAD6FD5
:10453000AE6B020EAF6F000170EC18F0010E0501BA
:10454000B46F000180EC15F0040E0601AA6FFA0E9C
:10455000AB6F0001D8EC09F00601AA2FF8D7026B67
:10456000036B046B056BAA6B000153EC15F006019D
:10457000BB6BBC6B7F0EBD6F190EBE6F010EBF6FA4
:10458000C06F00010FEC18F0060EEA6E820EE96EA5
:10459000F2CFAAF6F29CF29E000E73EC04F00A0031
:1045A0000900F550EE6E0009FBE10601AABDF28C90
:1045B000AABFF28E190EBB6F010EBC6F060EBE6F46
:1045C000820EBD6F030EBF6FC06B00018EEC16F044
:1045D00002C6ACF6140E0601AD6F1E0EAE6F010ED4
:1045E000AF6F00019FEC1EF003C6ACF6280E06016B
:1045F000AD6F1E0EAE6FAF6B00019FEC1EF004C6D8
:10460000ACF63C0E0601AD6F1E0EAE6FAF6B000137
:104610009FEC1EF002C6ACF6500E0601AD6F1E0EEA
:10462000AE6FAF6B00019FEC1EF0A2C6B3F50601A2
:10463000AA6B000153EC15F00501AB6B000E016E87
:10464000000192D091D00601010E0501BA6FB46F3E
:10465000AA6A040EA96E02C6A8FFA69CA69EA684FE
:10466000F250006EF29CF29E0F01550EA76EAA0E3C
:10467000A76EA682A6B2FED7A6940050F212320E02
:104680000601AB6F0001D8EC09F0AA6A050EA96E0D
:1046900003C6A8FFA69CA69EA684F250006EF29CBC
:1046A000F29E0F01550EA76EAA0EA76EA682A6B2A5
:1046B000FED7A6940050F212320E0601AB6F000135
:1046C000D8EC09F0AA6A060EA96E04C6A8FFA69C3B
:1046D000A69EA684F250006EF29CF29E0F01550E2B
:1046E000A76EAA0EA76EA682A6B2FED7A694005009
:1046F000F212320E0601AB6F0001D8EC09F0AA6A83
:10470000070EA96E05C6A8FFA69CA69EA684F25019
:10471000006EF29CF29E0F01550EA76EAA0EA76EB8
:10472000A682A6B2FED7A6940050F212040E06018D
:10473000AA6FFA0EAB6F0001D8EC09F00601AA2FA0
:10474000F8D7AA6B000153EC15F0A2C6B3F505012A
:10475000AB6B0601026B036B046B056B000105EC90
:104760001FF0000E016E00D005010001000C006A70
:10477000016A0601C051D890C1B100260032013251
:10478000C1B3002600320132C1B500260032013229
:10479000C1B7002600320132C1B900260032013211
:1047A000C1BB002600320132C1BD002600320132F9
:1047B000C1BF0026003201320001000C0601BC6BB3
:1047C000B9C6BDF6010ED880B955BE6FBA5365E0C3
:1047D000BC51B75DBF6FBD51B825C06FBC51B72587
:1047E000C16FBD51B825C26FBFC6C6F6C0C6C7F6F9
:1047F000C1C6C8F6C96FBBC6CAF6000170EC17F097
:104800000601BC51B75DBF6FBD51B85DC06FBC51F3
:10481000B725C16FBD51B85DC26FBFC6C6F6C0C671
:10482000C7F6C1C6C8F6C96FBBC6CAF6000170ECB0
:1048300017F00601BD51B75DBF6FBC51B825C06F01
:10484000BD51B725C16FBC51B825C26FBFC6C6F6F2
:10485000C0C6C7F6C1C6C8F6C96FBBC6CAF6000156
:1048600070EC17F00601BD51B75DBF6FBC51B85D6C
:10487000C06FBD51B725C16FBC51B85DC26FBFC617
:10488000C6F6C0C6C7F6C1C6C8F6C96FBBC6CAF66B
:10489000000170EC17F078D00601B751BC25BF6F4E
:1048A000B851BD25C06FBFC6D6F6D76FBBC6D8F608
:1048B000000130EC16F00601B751BD25BF6FB851AD
:1048C000BC25C06FBFC6D6F6D76FBBC6D8F60001F1
:1048D00030EC16F00601BC51B75DBF6FB851BD2575
:1048E000C06FBFC6D6F6D76FBBC6D8F6000130EC96
:1048F00016F00601BD51B75DBF6FB851BC25C06F42
:10490000BFC6D6F6D76FBBC6D8F6000130EC16F09E
:104910000601B751BD25BF6FBC51B85DC06FBFC6A2
:10492000D6F6D76FBBC6D8F6000130EC16F00601FC
:10493000B751BC25BF6FBD51B85DC06FBFC6D6F6BD
:10494000D76FBBC6D8F6000130EC16F00601BC519B
:10495000B75DBF6FBD51B85DC06FBFC6D6F6D76F2C
:10496000BBC6D8F6000130EC16F00601BD51B75DAC
:10497000BF6FBC51B85DC06FBFC6D6F6D76FBBC6A0
:10498000D8F6000130EC16F00601BEBF01D00ED003
:10499000BC51BC2BBF6F020EC06FBFC6C1F6000179
:1049A000E6DE0150030F0601BE2711D0BC51BC2B1F
:1049B000BF6FBD51BD07BF5DBF6F020EC06FBFC6E9
:1049C000C1F60001D4DE0150050F0601BE27BC511F
:1049D000800A006EBD51800A005CD8B4F7D6D8A01A
:1049E000F5D60001000CEACFBBF6E9CFBAF6060116
:1049F000B439F009B66FB627E20FB76F320FB96F4F
:104A0000B4510F0BB727B727B927E90FB86FB827ED
:104A1000B827B3390F0BB827B927B837B937B91F3B
:104A2000B937B3510F0BB927B637070EB56F0A0E5A
:104A3000B807B927FDE3B707B827FDE3B607B727DF
:104A4000FDE3B507B627FDE3060EEA6EB50EE96E87
:104A5000070EBA15BA9DE926B90EE95CD8B4BA8D2D
:104A6000EF50006E08E1BABD06D0BAB916D0BAB799
:104A700002D0200E03D0BA87BA99300E0026EACFB2
:104A8000B4F6E9CFB3F600C0C2F600011FEC1EF089
:104A9000B4C6EAFFB3C6E9FF0601EE50BAADDCD7F3
:104AA0000001000C0601A85102083AE1060EA16FB0
:104AB000AA0EA06F0A0EE96EA5C6B4F6A4C6B3F698
:104AC000000191DF0601A951120DF350A625B36F25
:104AD000A951080DF350A725B46FA6C6BBF6A7C60B
:104AE000BCF6B3C6BDF6BE6F010EBF6FC06F00014E
:104AF0000FEC18F0010E0601A625B36F010EA725D5
:104B0000B46FB3C6BBF6BC6F060EBE6FAA0EBD6F08
:104B1000A9C6BFF6C06B00018EEC16F09AD0060154
:104B2000060EA16FAA0EA06F0A0EE96EA5C6B4F616
:104B3000A4C6B3F6000157DF0601A85104082DE111
:104B4000A951100DF350A625B36FA951080DF350CC
:104B5000A725B46FA6C6BBF6A7C6BCF6B3C6BDF6FE
:104B6000BE6F010EBF6FC06B00010FEC18F0010E9D
:104B70000601A625B36F010EA725B46FB3C6BBF619
:104B8000BC6F060EBE6FAA0EBD6FA9C6BFF6010EA2
:104B9000C06F00018EEC16F00601A82D2CD0A95193
:104BA000050DF350A625B36FA951080DF350A725A5
:104BB000B46FA6C6BBF6A7C6BCF6B3C6BDF6BE6F3D
:104BC000010EBF6FC06F00010FEC18F0010E06015F
:104BD000A625B36F010EA725B46FB3C6BBF6BC6F95
:104BE000060EBE6FAA0EBD6FA9C6BFF6C06B000150
:104BF0008EEC16F00601A8532DE1A951050DF350D6
:104C0000A625B36FA951080DF350A725B46FA6C60A
:104C1000BBF6A7C6BCF6B3C6BDF6BE6F010EBF6F2E
:104C2000C06B00010FEC18F0010E0601A625B36F52
:104C3000010EA725B46FB3C6BBF6BC6F060EBE6FE0
:104C4000AA0EBD6FA9C6BFF6010EC06F00018EECA3
:104C500016F00601000180EC15F0000C006A016AF4
:104C6000026A036A0601CA6BCB6BCC6BCD6BC95170
:104C7000C811C711C6112CE0200ECE6FD890C237D4
:104C8000C337C437C537CA37CB37CC37CD37C9510F
:104C9000CD5D08E1C851CC5D05E1C751CB5D02E1B6
:104CA000C651CA5D0FE3C651CA5FC751D8A0C73D00
:104CB000CB5FC851D8A0C83DCC5FC951D8A0C93D71
:104CC000CD5FD8800036013602360336CE2FD6D7D8
:104CD000060EEA6ECA0EE96E0001000CE9500601EC
:104CE000BA6FB951BC6F1CE0B8C6C5F6B7C6C4F6FA
:104CF000B6C6C3F6B5C6C2F6C96BC86B200EC76F81
:104D0000820EC66F00012BEC19F003C0B8F602C08A
:104D1000B7F601C0B6F600C0B5F60601BC2FE4D761
:104D2000B8C6C5F6B7C6C4F6B6C6C3F6B5C6C2F6AB
:104D30000001CBEC1DF003C0B8F602C0B7F601C00D
:104D4000B6F600C0B5F60601B8AF0DD0BA07BA8BFB
:104D5000B51FB61FB71FB81FB52BD8B4B62BD8B424
:104D6000B72BD8B4B82B3B0EC16F9A0EC06FCA0ECA
:104D7000BF6FBE6B0A0EBC6FB951D8B4BA2BB8C6A0
:104D8000C5F6B7C6C4F6B6C6C3F6B5C6C2F6C1C642
:104D9000C9F6C0C6C8F6BFC6C7F6BEC6C6F600018D
:104DA0005DDF0150EFCFB5F6ECCFB6F6ECCFB7F63E
:104DB000ECCFB8F6005213E10601B929BC5DD8A4C6
:104DC00002D000010CD0BA510DE00F0BBC5D01E028
:104DD00044E2BABF42D0BABD05D0200E37D0200E73
:104DE0000601BA17BAAB0FD0BA9BB951D8A4BA070B
:104DF0000050BA6F2D0EC26F00011FEC1EF00601AD
:104E0000BA51006EBA6BB951BC5D0DE10050BA6F7A
:104E10002E0EC26F00011FEC1EF00601BA51006E8B
:104E2000200EBA17000E300EBAAB10D0BA9BB95193
:104E3000D8A4BA070050BA6F2D0EC26F00011FEC44
:104E40001EF00601BA51006EBA6B300E002600C08B
:104E5000C2F600011FEC1EF00601C1C6C5F6C0C6B1
:104E6000C4F6BFC6C3F6BEC6C2F6C96BC86BC76B75
:104E70000A0EC66F0001F2DE03C0C1F602C0C0F622
:104E800001C0BFF600C0BEF60601BC2F78D70001F6
:104E9000000C0601AA2D9FD0060EA16FAC0EA06FCC
:104EA000420EE96EA7C6B8F6A6C6B7F6A5C6B6F610
:104EB000A4C6B5F6010EB96F000110DF020E06019F
:104EC000A95DB56FAB51080DF350A925B66FBB6B4B
:104ED000B5C6BCF67F0EBD6FB6C6BEF6010EBF6F7F
:104EE000C06F00010FEC18F00601A2C601F0A3C6C6
:104EF00003F0A2C6B5F6A3C6B6F6060EEA6E820E9B
:104F0000E96EA3C6E2FFA2C6E1FFE752E6CFEEFFDD
:104F1000FCE1540EA825B56F010EA925B66FB5C6E4
:104F2000BBF6BC6F060EBE6FAC0EBD6FABC6BFF658
:104F3000C06B00018EEC16F0010E0601A825B56FBE
:104F4000010EA925B66FB5C6BBF6BC6F060EBE6FC7
:104F5000820EBD6FABC6BFF6C06B00018EEC16F0C3
:104F6000060EEA6E820EE96EF2CFB5F6F29CF29E64
:104F7000000ED1EC03F00A000900F550EE6E0009B6
:104F8000FBE10601B5BDF28CB5BFF28E780EA82507
:104F9000B56F010EA925B66FB5C6BBF6BC6F060E80
:104FA000BE6F820EBD6FABC6BFF6C06B00018EEC4C
:104FB00016F0730E0601A825B56F010EA95DB66F38
:104FC000B5C6B7F6B86F010EB96FBA6BBB6B00010F
:104FD000DEEC23F00601AA53D8A4A1D0060EA16FDF
:104FE000AC0EA06F420EE96EA7C6B8F6A6C6B7F61D
:104FF000A5C6B6F6A4C6B5F6010EB96F00016EDE01
:10500000020E0601A95DB56FAB51080DF350A9253D
:10501000B66FBB6BB5C6BCF67F0EBD6FB6C6BEF62F
:10502000010EBF6FC06B00010FEC18F00601A2C6A5
:1050300001F0A3C603F0A2C6B5F6A3C6B6F6060EE7
:10504000EA6E820EE96EA3C6E2FFA2C6E1FFE75256
:10505000E6CFEEFFFCE1540EA825B56F010EA925A1
:10506000B66FB5C6BBF6BC6F060EBE6FAC0EBD6F9D
:10507000ABC6BFF6010EC06F00018EEC16F0010E3C
:105080000601A825B56F010EA925B66FB5C6BBF6FA
:10509000BC6F060EBE6F820EBD6FABC6BFF6010EB3
:1050A000C06F00018EEC16F0060EEA6E820EE96EFD
:1050B000F2CFB5F6F29CF29E000ED1EC03F00A009E
:1050C0000900F550EE6E0009FBE10601B5BDF28C5A
:1050D000B5BFF28E780EA825B56F010EA925B66F63
:1050E000B5C6BBF6BC6F060EBE6F820EBD6FABC6FB
:1050F000BFF6010EC06F00018EEC16F0730E0601B4
:10510000A825B56F010EA95DB66FB5C6B7F6B86F25
:10511000010EB96FBA6BBB6F0001DEEC23F000012A
:1051200080EC15F0000C0150B1C6BFF6640E06010C
:10513000C06F000109EC1EF000C0B1F60150300E46
:1051400008E10601B2A310D0B2B70ED0B2B9200E5A
:1051500004D00601B297B299B281012601C0C2F60D
:1051600000011FEC1EF00601B1C6BFF60A0EC06FAB
:10517000000109EC1EF000C0B1F60150300E08E14C
:105180000601B2B70BD0B2A109D0B2B9200E00010E
:10519000012601C0C2F61FEC1EF00601300EB12739
:1051A000B1C6C2F600011FEC1EF0000C0601A651AC
:1051B000020838E1060EA16FA80EA06FA3C6B1F6D3
:1051C000030EB26F0001AFDF0601A751120DF350BD
:1051D000A425B16FA751080DF350A525B26FA4C641
:1051E000BBF6A5C6BCF6B1C6BDF6BE6F010EBF6F5D
:1051F000C06F00010FEC18F0010E0601A425B16F7D
:10520000010EA525B26FB1C6BBF6BC6F060EBE6F10
:10521000A80EBD6FA7C6BFF6C06B00018EEC16F0DE
:10522000A3D00601A651030838E1060EA16FA80E0F
:10523000A06FA3C6B1F6030EB26F000174DF0601C2
:10524000A751120DF350A425B16FA751080DF350CB
:10525000A525B26FA4C6BBF6A5C6BCF6B1C6BDF601
:10526000BE6F010EBF6FC06B00010FEC18F0010E96
:105270000601A425B16F010EA525B26FB1C6BBF61C
:10528000BC6F060EBE6FA80EBD6FA7C6BFF6010E9F
:10529000C06F00018EEC16F00601060EA16FA80E7D
:1052A000A06FA3C6B1F61B0EB26F00013CDF060172
:1052B000A62D2CD0A751050DF350A425B16FA751F1
:1052C000080DF350A525B26FA4C6BBF6A5C6BCF663
:1052D000B1C6BDF6BE6F010EBF6FC06F00010FEC0F
:1052E00018F0010E0601A425B16F010EA525B26FBD
:1052F000B1C6BBF6BC6F060EBE6FA80EBD6FA7C6CB
:10530000BFF6C06B00018EEC16F00601A6532DE12E
:10531000A751050DF350A425B16FA751080DF35007
:10532000A525B26FA4C6BBF6A5C6BCF6B1C6BDF630
:10533000BE6F010EBF6FC06B00010FEC18F0010EC5
:105340000601A425B16F010EA525B26FB1C6BBF64B
:10535000BC6F060EBE6FA80EBD6FA7C6BFF6010ECE
:10536000C06F00018EEC16F00601000180EC15F014
:10537000000C0601A251050855E1A36BA3513F089B
:1053800051E3A46BA4510F084BE3070EA56FA55181
:10539000800A7F0843E2A76BA3C6A6F6A96B100E8E
:1053A000A86F00011AEC19F002C0A7F601C0A6F61A
:1053B0000601A4510124016E000E0220036E01506B
:1053C000F2CFA6F6F29CF29E03C0F7FF0001C0ECFC
:1053D00001F00601A6BDF28CA6BFF28EA66F070EE5
:1053E000D880A555A76FA6C600F0A751016E04E0AE
:1053F000D8900032012EFCD700A00ED0A451080D89
:10540000F350A525A66FD66FA3C6D7F6010ED86FA9
:10541000000130EC16F00601A507B9D7A42BB2D7CE
:10542000A32BACD7000157EF48F00501AE51040D96
:10543000F350036A980FE96E050E0320EA6E42C628
:10544000EFFF43C6ECFF44C6ECFF45C6ECFFAE2BB6
:10545000AE5101081EE2AE6BD8829FC5B1F69EC563
:10546000B0F69DC5AFF69CC5AEF69BC5B5F69AC520
:10547000B4F699C5B3F698C5B2F60001DFEC0AF0B0
:1054800003C041F602C040F601C03FF600C03EF640
:1054900005010001000CF9C5F5F5F8C5F4F5F7C5EF
:1054A000F3F5F6C5F2F50601AF6BA6C5AEF6000141
:1054B00015EC0AF0F5C5A5F6F4C5A4F6F3C5A3F6F8
:1054C000F2C5A2F603C0A9F602C0A8F601C0A7F66D
:1054D00000C0A6F63EEC10F001E203E1A6DF0501F4
:1054E000A66B0601356B346B336B7E0E326FD89230
:1054F00035C6B1F634C6B0F633C6AFF632C6AEF630
:105500004DC6B5F64CC6B4F64BC6B3F64AC6B2F6AF
:105510000001DFEC0AF000C0A2F601C0A3F602C051
:10552000A4F603C0A5F6D88203C0B1F602C0B0F657
:1055300001C0AFF600C0AEF645C6B5F644C6B4F637
:1055400043C6B3F642C6B2F6DFEC0AF003C021F65A
:1055500002C020F601C01FF600C01EF60601A56BB2
:10556000A46B700EA36F820EA26F21C6A9F620C68F
:10557000A8F61FC6A7F61EC6A6F600013EEC10F060
:1055800002E2D8A417D121C6A5F620C6A4F61FC6EC
:10559000A3F61EC6A2F60601A96BA86B700EA76F34
:1055A000840EA66F00013EEC10F0D8A003D141C6D6
:1055B000A5F640C6A4F63FC6A3F63EC6A2F606016F
:1055C000A96BA86BA76B7E0EA66F00013EEC10F0D6
:1055D00002E2D8A4EFD0F9C5C5F6F8C5C4F6F7C500
:1055E000C3F6F6C5C2F60601C96BC86BC76B800E61
:1055F000C66F00012BEC19F003C0F5F502C0F4F5FD
:1056000001C0F3F500C0F2F50501AC99AC9B0A0EA0
:10561000AA6FDDC5A5F6DCC5A4F6DBC5A3F6DAC521
:10562000A2F60601A96BA86B480EA76F840EA66FA1
:1056300000013EEC10F0D8A0BCD0D1C5AFF6D0C56B
:10564000AEF615EC0AF0F5C5A5F6F4C5A4F6F3C55B
:10565000A3F6F2C5A2F603C0A9F602C0A8F601C0DF
:10566000A7F600C0A6F63EEC10F002E2D8A4A1D046
:105670000501D16BD06B41C6A5F640C6A4F63FC666
:10568000A3F63EC6A2F60601A96BA86B800EA76F13
:105690007E0EA66F00013EEC10F02EE3D892F1C50D
:1056A000B1F6F0C5B0F6EFC5AFF6EEC5AEF6060141
:1056B000B56BB46BB36B7F0EB26F0001DFEC0AF019
:1056C000D89231C6B1F630C6B0F62FC6AFF62EC6A8
:1056D000AEF603C0B5F602C0B4F601C0B3F600C022
:1056E000B2F6DFEC0AF003C031F602C030F601C0BA
:1056F0002FF600C02EF65DD041C6A5F640C6A4F632
:105700003FC6A3F63EC6A2F6CD0E0601A96FCC0E8B
:10571000A86FA76F7B0EA66F00013EEC10F01CE394
:10572000D89231C6B1F630C6B0F62FC6AFF62EC647
:10573000AEF6F1C5B5F6F0C5B4F6EFC5B3F6EEC5F5
:10574000B2F6DFEC0AF003C031F602C030F601C059
:105750002FF600C02EF62DD0D882F1C5B1F6F0C5D7
:10576000B0F6EFC5AFF6EEC5AEF60601B56BB46B9D
:10577000B36B7E0EB26F0001DFEC0AF0D89231C637
:10578000B1F630C6B0F62FC6AFF62EC6AEF603C0E1
:10579000B5F602C0B4F601C0B3F600C0B2F6DFEC55
:1057A0000AF003C031F602C030F601C02FF600C087
:1057B0002EF65CD20601A56BA46B400EA36F810E82
:1057C000A26F21C6A9F620C6A8F61FC6A7F61EC658
:1057D000A6F600013EEC10F002E2D8A41AD121C6D0
:1057E000A5F620C6A4F61FC6A3F61EC6A2F606019D
:1057F000A96BA86B700EA76F820EA66F00013EEC1E
:1058000010F0D8A006D141C6A5F640C6A4F63FC602
:10581000A3F63EC6A2F69A0E0601A96F990EA86FCE
:10582000190EA76F7D0EA66F00013EEC10F002E28C
:10583000D8A4EFD0F9C5C5F6F8C5C4F6F7C5C3F6C8
:10584000F6C5C2F60601C96BC86BC76B800EC66F82
:1058500000012BEC19F003C0F5F502C0F4F501C00E
:10586000F3F500C0F2F50501AC99AC9B0A0EAA6FE6
:10587000DDC5A5F6DCC5A4F6DBC5A3F6DAC5A2F640
:105880000601A96BA86B200EA76F840EA66F0001FE
:105890003EEC10F0D8A0BCD0D1C5AFF6D0C5AEF666
:1058A00015EC0AF0F5C5A5F6F4C5A4F6F3C5A3F604
:1058B000F2C5A2F603C0A9F602C0A8F601C0A7F679
:1058C00000C0A6F63EEC10F002E2D8A4A1D005017B
:1058D000D16BD06B41C6A5F640C6A4F63FC6A3F671
:1058E0003EC6A2F60601A96BA86B800EA76F7E0EBE
:1058F000A66F00013EEC10F02EE3D892F1C5B1F690
:10590000F0C5B0F6EFC5AFF6EEC5AEF60601B56B65
:10591000B46BB36B7F0EB26F0001DFEC0AF0D8926C
:1059200031C6B1F630C6B0F62FC6AFF62EC6AEF60B
:1059300003C0B5F602C0B4F601C0B3F600C0B2F6BB
:10594000DFEC0AF003C031F602C030F601C02FF6DA
:1059500000C02EF65DD041C6A5F640C6A4F63FC6EF
:10596000A3F63EC6A2F6CD0E0601A96FCC0EA86F17
:10597000A76F7B0EA66F00013EEC10F01CE3D892DF
:1059800031C6B1F630C6B0F62FC6AFF62EC6AEF6AB
:10599000F1C5B5F6F0C5B4F6EFC5B3F6EEC5B2F68F
:1059A000DFEC0AF003C031F602C030F601C02FF67A
:1059B00000C02EF62DD0D882F1C5B1F6F0C5B0F6F4
:1059C000EFC5AFF6EEC5AEF60601B56BB46BB36BC3
:1059D0007E0EB26F0001DFEC0AF0D89231C6B1F64C
:1059E00030C6B0F62FC6AFF62EC6AEF603C0B5F67B
:1059F00002C0B4F601C0B3F600C0B2F6DFEC0AF0A4
:105A000003C031F602C030F601C02FF600C02EF6FA
:105A10002DD1330E0601A56FA46FA36F7E0EA26F6A
:105A200021C6A9F620C6A8F61FC6A7F61EC6A6F66A
:105A300000013EEC10F002E2D8A418D121C6A5F670
:105A400020C6A4F61FC6A3F61EC6A2F60601A96BC1
:105A5000A86B400EA76F810EA66F00013EEC10F000
:105A6000D8A004D141C6A5F640C6A4F63FC6A3F609
:105A70003EC6A2F6CD0E0601A96FCC0EA86F4C0E45
:105A8000A76F7C0EA66F00013EEC10F002E2D8A4D6
:105A9000EDD0F9C5C5F6F8C5C4F6F7C5C3F6F6C529
:105AA000C2F60601C96BC86BC76B800EC66F0001DA
:105AB0002BEC19F003C0F5F502C0F4F501C0F3F5C5
:105AC00000C0F2F50501AC99AC9B0A0EAA6FDDC5CA
:105AD000A5F6DCC5A4F6DBC5A3F6DAC5A2F6060179
