:04000000DBEF16F02C
:08000800046ED8CF05F0E0CF33
:1000100006F00001E9CF0CF0EACF07F0E1CF08F0DD
:10002000E2CF09F0D9CF0AF0DACF0BF0F3CF12F01C
:10003000F4CF13F0FACF14F000C00EF001C00FF0AF
:1000400002C010F003C011F09DA02AEF00F09EB096
:1000500050EF06F00EC000F00FC001F010C002F02B
:1000600011C003F00CC0E9FF07C0EAFF078E08C00B
:10007000E1FF09C0E2FF0AC0D9FF0BC0DAFF12C0DE
:10008000F3FF13C0F4FF14C0FAFF045006C0E0FFF2
:1000900005C0D8FF1000F2CF0DF0F29EF76AB00F46
:1000A000F66E000EF7220900F5500DBEF28E12001A
:1000B000000000000000005F0000000300030014C7
:1000C0003E143E14242A7F2A1243330866613649BF
:1000D0005522500005030000001C2241000041226F
:1000E0001C0014083E081408083E080800503000A0
:1000F00000080808080800606000002010080402DA
:100100003E5149453E0004027F004261514946226A
:10011000414949361814127F1027454545393E4953
:100120004949320101710907364949493626494989
:10013000493E0036360000005636000008142241C1
:100140000014141414140041221408020151090669
:100150003E4159555E7E0909097E7F494949363E2F
:10016000414141227F4141413E7F494949417F0907
:100170000909013E4141493A7F0808087F00417F53
:100180004100304040403F7F081422417F404040C2
:10019000407F020C027F7F0204087F3E4141413EC6
:1001A0007F090909061E2121215E7F0909097600C0
:1001B000F2CF0DF0F29EF76ACA0FF66E010EF7222B
:1001C0000900F5500DBEF28E120026494949320150
:1001D000017F01013F4040403F1F2040201F7F2002
:1001E00010207F41221C22410708700807615149F5
:1001F0004543007F41000002040810200000417FB9
:10020000000402010204404040404000010204009A
:1002100020545454787F4444443838444444443847
:100220004444447F385454541804047E050508544B
:1002300054543C7F0804047800447D40002040442E
:100240003D007F1028440000417F40007C0478047A
:10025000787C0804047838444444387C1414140826
:10026000081414147C007C080404485454542004DA
:10027000043F44443C4040207C1C2040201C3C4027
:1002800030403C44281028440C5050503C446454A6
:100290004C44000836414100007F000041413608CF
:1002A000000201020402F2CF0DF0F29EBE0FF66EC4
:1002B000020EF7220900F5500DBEF28E120000006A
:1002C0000000000000000000001FFFFFFFFE000014
:1002D0000000000000000000001FFFFFFFFE01C043
:1002E0000000000000000000001C0000000E07F0ED
:1002F0000000000000000000001C0000000E1C9C1C
:100300000000000000000000001C7F00000E180C20
:100310000000000000000000001C4100000E3086BC
:100320000000000000000000001C4100000E2082C0
:100330000000000000000000001C4102000E60836D
:100340000000000000000000001C7F05000E708708
:100350000000000000000000001C0002000E60C34E
:100360000000000000000000001C0000000E2062E1
:100370000000000000000000001C0000000E3026FD
:100380000000000000000000001FFFFFFFFE180C2F
:100390000000000000000000001C0000000E1C9C7B
:1003A0000000000000000000001C0000000E07F02C
:1003B0000000000000000000001C0000000E01C052
:1003C0000000000000000000001C0000000E000003
:1003D0000000000000000000001C0000000E0000F3
:1003E0000000000000000000001C0000000E0000E3
:1003F0000000000000000000001C0000000E0000D3
:100400000000000000000000001C0000000E0000C2
:100410000000000000000000001C001E000E000094
:100420000000000000000000001C00E1C00E000001
:100430000000000000000000001C0180600E0000B1
:100440000000000000000000001C0278100E0000F8
:100450000000000000000000001C067C180E0000D8
:100460000000000000000000001C047C080E0000DA
:100470000000000000000000001C083C040E00000A
:100480000000000000000000001C0810040E0180A5
:100490000000000000000000001C080CE40E0240F8
:1004A0000000000000000000001C082DF40E027087
:1004B0000000000000000000001C0863F40E024071
:1004C0000000000000000000001C08F1E40E03C062
:1004D0000000000000000000001C04F0080E03F003
:1004E0000000000000000000001C04F0080E03C023
:1004F0000000000000000000001C0270100E03C08D
:100500000000000000000000001C0300300E07E0A7
:100510000000000000000000001C00C0C00E0FF032
:100520000000000000000000001C007F800E0BF0A7
:100530000000000000000000001C0000000E0BF096
:100540000000000000000000001C0000000E0FF082
:100550000000000000000000001C0000000E0FF072
:100560000000000000000000001C0000000E07E07A
:100570000000000000000000001C0000000E03C08E
:100580000000000000000000001C0000000E000041
:100590000000000000000000001C0000000E000031
:1005A0000000000000000000001C0000000E000021
:1005B0000000000000000000001C0000000E000011
:1005C0000000000000000000001C0000000E000001
:1005D0000000000000000000001C0000000E0000F1
:1005E0000000000000000000001C0000000E0000E1
:1005F0000000000000000000001C0000000E0000D1
:100600000000000000000000001FFFFFFFFE0000D0
:100610000000000000000000001FFFFFFFFE0000C0
:100620000000000000000000001FFFFFFFFE0000B0
:1006300000000000000000000000000000000000BA
:1006400000000000000000000000000000000000AA
:10065000000000000000000000000000000000009A
:10066000000000000000000000000000000000008A
:10067000000000000000000000000000000000007A
:10068000000000000000000000000000000000006A
:10069000000000000000000000000000000000005A
:1006A000000000000000000000000000000000004A
:1006B0000000000000000000000000000000F2CF79
:1006C0000DF0F29EF76AD80FF66E060EF7220900BB
:1006D000F5500DBEF28E12004A5020496E676C6FC5
:1006E00062616C00F2CF0DF0F29EF76AFE0FF66EBB
:1006F000060EF7220900F5500DBEF28E12002020E2
:10070000202020496E63756261646F726100F2CFD0
:100710000DF0F29EF76A280FF66E070EF722090019
:10072000F5500DBEF28E12002020204469676974D6
:10073000616C0000F2CF0DF0F29EF76A4E0FF66E7C
:10074000070EF7220900F5500DBEF28E1200202090
:10075000343030204C747300F2CF0DF0F29EF76A03
:10076000720FF66E070EF7220900F5500DBEF28EDD
:10077000120043617267616E646F2E2E0000F2CF2B
:100780000DF0F29EF76A980FF66E070EF722090039
:10079000F5500DBEF28E1200436C61766500F2CF0B
:1007A0000DF0F29EF76AB80FF66E070EF7220900F9
:1007B000F5500DBEF28E1200436F72726563746164
:1007C0000000F2CF0DF0F29EF76ADC0FF66E070E16
:1007D000F7220900F5500DBEF28E1200496E636FCC
:1007E0007272656374610000F2CF0DF0F29EF76AD9
:1007F000020FF66E080EF7220900F5500DBEF28EBC
:1008000012004D656E750000F2CF0DF0F29EF76A92
:10081000220FF66E080EF7220900F5500DBEF28E7B
:100820001200496E69636961722050726F6365736B
:100830006F00F2CF0DF0F29EF76A4C0FF66E080EC5
:10084000F7220900F5500DBEF28E120054656D704E
:100850006572617475726100F2CF0DF0F29EF76AF5
:10086000720FF66E080EF7220900F5500DBEF28EDB
:10087000120054656D706F72697A61646F72000066
:10088000F2CF0DF0F29EF76A9A0FF66E080EF7227D
:100890000900F5500DBEF28E120043616D62696F62
:1008A00020436C6176650000F2CF0DF0F29EF76A8E
:1008B000C20FF66E080EF7220900F5500DBEF28E3B
:1008C0001200436F6E74696E75617200F2CF0DF0A5
:1008D000F29EF76AE60FF66E080EF7220900F55051
:1008E0000DBEF28E120053490000F2CF0DF0F29EC1
:1008F000F76A040FF66E090EF7220900F5500DBED7
:10090000F28E12004E4F0000F2CF0DF0F29EF76A09
:10091000220FF66E090EF7220900F5500DBEF28E79
:1009200012004300F2CF0DF0F29EF76A3E0FF66E12
:10093000090EF7220900F5500DBEF28E1200546523
:100940006D706F72697A6100F2CF0DF0F29EF76AF6
:10095000620FF66E090EF7220900F5500DBEF28EF9
:1009600012003A00F2CF0DF0F29EF76A7E0FF66E9B
:10097000090EF7220900F5500DBEF28E1200436CED
:10098000617665204E7565766100F2CF0DF0F29EBE
:10099000F76AA40FF66E090EF7220900F5500DBE96
:1009A000F28E12005374617475733A436F6E7472F1
:1009B0006F6C616E646F0000F2CF0DF0F29EF76A0B
:1009C000D20FF66E090EF7220900F5500DBEF28E19
:1009D00012005374617475733A43616C656E74618F
:1009E0006E646F00F2CF0DF0F29EF76AFE0FF66EA6
:1009F000090EF7220900F5500DBEF28E1200537455
:100A0000617475733A5061757361646F0000F2CF61
:100A10000DF0F29EF76A280FF66E0A0EF722090013
:100A2000F5500DBEF28E12005374617475733A5016
:100A30007565727461204162696572746100F2CFFC
:100A40000DF0F29EF76A580FF66E0A0EF7220900B3
:100A5000F5500DBEF28E12005374617475733A41F5
:100A60006C61726D612030310000F2CF0DF0F29EAA
:100A7000F76A840FF66E0A0EF7220900F5500DBED4
:100A8000F28E120054656D703A00F2CF0DF0F29EB6
:100A9000F76AA40FF66E0A0EF7220900F5500DBE94
:100AA000F28E12002500F2CF0DF0F29EF76AC00F11
:100AB000F66E0A0EF7220900F5500DBEF28E1200F6
:100AC00054696D653A00F2CF0DF0F29EF76AE00FBF
:100AD000F66E0A0EF7220900F5500DBEF28E1200D6
:100AE00028483A4D2900F2CF0DF0F29EF76A000F28
:100AF000F66E0B0EF7220900F5500DBEF28E1200B5
:100B00005374617475733A46696E616C697A616495
:100B10006F00F2CF0DF0F29EF76A2C0FF66E0B0EFF
:100B2000F7220900F5500DBEF28E12005374617465
:100B300075733A416C61726D612030320000F2CF02
:100B40000DF0F29EF76A580FF66E0B0EF7220900B1
:100B5000F5500DBEF28E12005265677265736172B8
:100B60000000F2CF0DF0F29EF76A7C0FF66E0B0ECE
:100B7000F7220900F5500DBEF28E120047616E613A
:100B80006E6369610000F2CF0DF0F29EF76AA00F6C
:100B9000F66E0B0EF7220900F5500DBEF28E120014
:100BA000546369636C6F0000F2CF0DF0F29EF76A38
:100BB000C20FF66E0B0EF7220900F5500DBEF28E35
:100BC0001200416A75737465202B0000F2CF0DF09E
:100BD000F29EF76AE60FF66E0B0EF7220900F5504B
:100BE0000DBEF28E1200416A75737465202D0000EF
:100BF000F2CF0DF0F29EF76A0A0FF66E0C0EF72296
:100C00000900F5500DBEF28E12004D656469612039
:100C10004D6F76696C00F2CF0DF0F29EF76A300FDF
:100C2000F66E0C0EF7220900F5500DBEF28E120082
:100C3000436F6566696369656E746500F2CF0DF098
:100C4000F29EF76A560FF66E0C0EF7220900F55069
:100C50000DBEF28E1200416A757374650000F2CF0A
:100C60000DF0F29EF76A780FF66E0C0EF72209006F
:100C7000F5500DBEF28E1200416A757374656E00F8
:100C8000F2CF0DF0F29EF76A9A0FF66E0C0EF72275
:100C90000900F5500DBEF28E12004D6564696100C9
:100CA000150ECF6EA00ECE6E0501742BD8B4752B29
:100CB000762BD8B4772B782BD8B4792B755303E1E6
:100CC0007451C70815E2756B746B6589682B6F2BBF
:100CD000632B66A903D07E2BD8B47F2B722D03D053
:100CE0007A2BD8B47B2B66A503D07C2BD8B47D2B74
:100CF0009E9000012AEF00F0050EEA6EFC0EE96EF0
:100D0000EF500EE00F0E016E006A002EFED7012E8E
:100D1000FBD78F0E006E002EFED70000EF2EF2D70D
:100D2000000C06010C5303E093988A8802D0939636
:100D30008A86939C8A9C956A0DC68CFF100E006E65
:100D4000002EFED70000939E8A8E530E006E002E5A
:100D5000FED7939E8A9E93968A9693988A980001CE
:100D6000000C0501FA6B160EF96F020EFC6F160EE1
:100D7000FB6FF751FF0DF3CFF8F5FE6BFD6BFE51E6
:100D800001081AE3FAC503F0F951F92BD8B4FA2B8C
:100D9000E96E03C0EAFFF8C5EFFFFCC503F0FB51A5
:100DA000FB2BD8B4FC2BE96E03C0EAFFF8C5EFFFBC
:100DB000FD2BD8B4FE2BE3D70001000C0601086B15
:100DC000160E076F020E0A6F160E096F056B05519E
:100DD00007084EE3939A8A9A0C6B400E0D6F000140
:100DE000A0DF010E06010C6F400E0D6F000199DFB0
:100DF00006010551B8090B6F0C6B0D6F000191DFF7
:100E000006010551B8090B6F010E0C6F0BC60DF6EC
:100E1000000187DF939A8A8A0601066B06513F0814
:100E200025E308C603F00751072BD8B4082BE96E59
:100E300003C0EAFFEFCF0BF60C6B0BC60DF60001FB
:100E400070DF06010AC603F00951092BD8B40A2B3A
:100E5000E96E03C0EAFFEFCF0BF6010E0C6F0BC675
:100E60000DF600015EDF0601062BD8D7052BAFD7A4
:100E70000001000C93948A84939E8A9E93968A968E
:100E800093988A98939A8A9A06010C6BC00E0D6FFC
:100E9000000147DF010E06010C6FC00E0D6F00014F
:100EA00040DF06010C6B400E0D6F00013ADF010EB2
:100EB00006010C6F400E0D6F000133DF06010C6B55
:100EC000B80E0D6F00012DDF010E06010C6FB80E7C
:100ED0000D6F000126DF0501F62D0FD006010C6B0A
:100EE0003F0E0D6F00011DDF010E06010C6F3F0E5E
:100EF0000D6F000116DF0ED0050106010C6B3E0ED2
:100F00000D6F00010EDF010E06010C6F3E0E0D6F1E
:100F1000000107DF0501F76B000123DF4FDF000C45
:100F20000601296B2431286F283328331F0E281718
:100F300028372937283729372837293728372937B5
:100F40002837293728372937C00E28172351282753
:100F5000000E292323513F080DE2160E28252A6F83
:100F6000020E29212B6F400E2A5D266F000E2B5991
:100F7000276F06D0160E2825266F000E2921276F11
:100F8000255315E027C603F026C6E9FF27C6EAFF6A
:100F90002451070B2A6F010E006E2A51016E04E0E6
:100FA000D8900036012EFCD70050EF1215D027C67E
:100FB00003F026C6E9FF27C6EAFF2451070B2A6F74
:100FC000010E006E2A51016E04E0D8900036012E09
:100FD000FCD70050FF0AEF160001000C0AC603F010
:100FE000060109C6E9FF0AC6EAFFEF52D8B4D0D01D
:100FF0000AC603F009C6E9FF0AC6EAFFEF50520825
:1010000027E30AC603F009C6E9FF0AC6EAFF200E75
:10101000EF5C050DF350036A166F060EEA6E110EB3
:10102000E96E1A6B16C619F6F2CF17F6F29E050E88
:10103000016EF76A165100014BEC00F00A0009003E
:10104000F5CFEEFF012EFBD7060117BFF28E35D08C
:101050000AC603F009C6E9FF0AC6EAFFEF507E0898
:1010600027E30AC603F009C6E9FF0AC6EAFF530EE2
:10107000EF5C050DF350036A166F060EEA6E110E53
:10108000E96E1A6B16C619F6F2CF17F6F29E050E28
:10109000016EF76A16510001D8EC00F00A00090051
:1010A000F5CFEEFF012EFBD7060117BFF28E05D05C
:1010B000116B126B136B146B156B0AC603F009519D
:1010C000E96E03C0EAFFEF500A0A000103E0070AD5
:1010D00009E00BD006010B51070DF350010F082753
:1010E00050D000010601076B4CD006010B51050DD5
:1010F000F35007257F0806E2076B0B51070DF350ED
:10110000010F08270D6B0D5104083BE30E6B0E51C8
:10111000060833E3036A0D51110FE96E060E032032
:10112000EA6EEFCF16F616C600F00E51016E04E01F
:10113000D8900032012EFCD700A01DD00F6B0B51B0
:101140000F5D19E2106B0B51105D13E21051072572
:10115000166F0E510B03F35008250F25176F16C697
:1011600023F6246F0CC625F60001DADE0601102BEB
:10117000EAD70F2BE4D70E2BCAD70D2B0B5107271D
:10118000C2D7092BD8B40A2B072B000127D7060199
:101190000001000C010E06011C6F1D6F226B135124
:1011A000155D236F235123AF03D0000ED880235544
:1011B000036A1A6F03C01BF61451165D236F235187
:1011C00023AF03D0000ED8802355036A186F03C0E5
:1011D00019F61351155D02E2FF0E1C6F1451165DD6
:1011E00002E2FF0E1D6F19511B5D3BE303E1185135
:1011F0001A5D37E3D890183719371A51185D006E09
:101200001B51195900C01EF61F6F1A511E5D206F29
:101210001B511F59216F1B5303E122511A5D20E31B
:1012200013C623F614C624F617C625F6000178DE89
:1012300006011FBF01D008D018511E2719511F23C6
:101240001C511325136F0AD020511E2721511F2333
:101250001C511325136F1D511425146F222BDBD73E
:1012600036D0D8901A371B3718511A5D006E1951B5
:101270001B5900C01EF61F6F18511E5D206F1951BB
:101280001F59216F195303E12251185D20E313C642
:1012900023F614C624F617C625F6000141DE060122
:1012A0001FBF01D008D01A511E271B511F231D51EB
:1012B0001425146F0AD020511E2721511F231C51C1
:1012C0001325136F1D511425146F222BDBD700013A
:1012D000000C06010C532EE00A51085D05E208C619
:1012E0000FF60AC610F604D00AC60FF608C610F6A6
:1012F0000B51095D05E209C611F60BC612F604D0C2
:101300000BC611F609C612F60F51105D12E311C695
:101310000EF60E51125D0BE30FC623F60EC624F631
:101320000DC625F60001FCDD06010E2BF2D70F2BB2
:10133000EBD72ED008C613F609C614F60AC615F662
:1013400009C616F60DC617F6000124DF08C613F607
:101350000BC614F60AC615F60BC616F60DC617F61A
:1013600019DF08C613F609C614F608C615F60BC62B
:1013700016F60DC617F60EDF0AC613F609C614F6E2
:101380000AC615F60BC616F60DC617F603DF0601DC
:101390000001000C0501F6C501F0F7C503F0F6C524
:1013A000FCF5F7C5FDF5050EEA6ED60EE96EF7C53C
:1013B000E2FFF6C5E1FFE752E6CFEEFFFCE1FA51AE
:1013C000020816E1010EF825FC6F010EF925FD6FEC
:1013D000FCC507F6E8CF08F6050E06010A6FD60E23
:1013E000096FFBC50BF6010E0C6F0001F7DD05015F
:1013F000FA2D28D0FB51080DF350F925FC6F06019A
:10140000086BF9C509F67F0E0A6FFCC50BF6010ED5
:101410000C6F0D6F00015DDF010E0501F825FC6FFB
:10142000010EF925FD6FFCC507F6E8CF08F6050E9D
:1014300006010A6FD60E096FFBC50BF60C6B000197
:10144000CDDD0501FA5328E1FB51080DF350F925D4
:10145000FC6F0601086BF9C509F67F0E0A6FFCC523
:101460000BF6010E0C6F0D6B000133DF010E050151
:10147000F825FC6F010EF925FD6FFCC507F6E8CFD6
:1014800008F6050E06010A6FD60E096FFBC50BF6AE
:10149000010E0C6F0001A2DD000190DC000C0601C2
:1014A0000C51016A0B5D03E20BC600F00CD0006A20
:1014B000080E0D6F0B3700360C51005CD8B0006E73
:1014C00001360D2FF7D70001000CF5C5EAFFF4C572
:1014D000E9FF060113C6EFFFE92AD8B4EA2AEF6A4A
:1014E0000501F42BD8B4F52B0001000C200E0601E9
:1014F00006A9300E076F05C600F005AF07D0001E25
:10150000002A00C005F62D0E076F068F015005C694
:101510000BF6640E0C6F0001C2DF00C005F6300E42
:1015200001240601086F05C60BF60A0E0C6F0001B8
:10153000B6DF300E002406010A6F300E0124096F59
:1015400007C600F006A702D006AF069506B90BD075
:1015500006AF22D006B520D000C008F606B31CD0D6
:1015600000C009F619D0300E085D16E100C008F67B
:10157000200E076F06A704D00695068306AF0693D4
:10158000300E095D09E100C009F6200E086F06A7BC
:10159000F7D7069306AF069106A505D007C613F642
:1015A000000193DF060106A305D008C613F600016B
:1015B0008CDF060106A104D009C613F6000185DF01
:1015C0000AC613F6000181DFF2EF0AF0050E0501ED
:1015D000F56FFC0EF46FF8C505F61F0E0601066FD9
:1015E000000184D70501FB2D2DD0120EF92506012F
:1015F000056F180E0501FA250601066FF9C508F6F4
:10160000FAC509F605C60AF60B6F010E0C6F0D6FD1
:1016100000015FDE020E0501F9250601056F010ECE
:101620000501FA250601066F05C607F6086F050EC7
:101630000A6FFC0E096F020E0B6F0C6B0001CEDC03
:101640002CD00501120EF9250601056F180E0501B3
:10165000FA250601066FF9C508F6FAC509F605C6AA
:101660000AF60B6F0C6B0D6B000133DE020E0501E9
:10167000F9250601056F010E0501FA250601066F21
:1016800005C607F6086F050E0A6FFC0E096F020EFD
:101690000B6F010E0C6F0001A1DC000C8E0E006EB2
:1016A000FDC501F0FCC502F0036A015209E102C068
:1016B00001F0026A080E005E015202E1006A08D0E1
:1016C000D89001BE04D0023601360006F9D7019E3B
:1016D000000C0501F735006E0036FC0E001600C048
:1016E00001F0C250C30B0010C26E010EFC6F00016E
:1016F0007CEC06F0C282C2B2FED7C4CFFDF5C3CFE8
:10170000FCF50001CBDF03C0FBF502C0FAF501C018
:10171000F9F500C0F8F5F8C500F0F9C501F0FAC513
:1017200002F0FBC503F0000C0501FB51D8B4B4D0A6
:101730000601076F0501FF51D8B4AED00601075F5F
:1017400007E37F0E0727D8A002D00501A5D00AD055
:10175000810E075FD8B002D005019ED0D8A402D078
:1017600005019AD007C600F0016A026A036A066B97
:10177000FCC505F6058FFDC504F6FEC503F6190E7A
:10178000076F0251035F0DE2010E045F0AE2055F7D
:1017900008E2065F06E2062B052B042B0251032705
:1017A00028D00151045F12E2010E055F0FE2065FCF
:1017B0000DE2062B052B015104270251032719E3E3
:1017C000042B17E1052B15E1062B13D000518009DE
:1017D000055F0EE2010E065F0BE2062B0051800949
:1017E000052701510427E9E3052BE7E1062BE5D79F
:1017F0000380072F01D00BD0D8900337043705376B
:101800000637D8900336023601360837BAD708A112
:1018100006D0D890013202320332083304D0002EB1
:1018200002D0050139D008BF1ED0D8900337043745
:10183000053706370251035F07E2010E045F04E239
:10184000055F02E2065F1DE30151045F05E2010E40
:10185000055F02E2065F15E300518009055F03E2C0
:10186000010E065F0EE3032A0CE1022A0AE1012AB7
:1018700008E1002AD8A402D005010ED001320232BC
:101880000332FCC507F60051071B07AF02D0018EDB
:1018900008D0019E06D00501006A016A026A036A47
:1018A00006010001000C800ED8A202D00601001B28
:1018B0000601056B066BFCC504F60051041B05010F
:1018C000FB51D8B4E4D00601036F006E0501FF514F
:1018D000D8B4E7D00601035FD8B485D03EE300C694
:1018E00009F6098F01C608F602C607F6066BD890FE
:1018F0000933083307330633032FF8D704AF03D077
:101900000581E4D0059103910589050EEA6EFE0E6E
:10191000E96EEFD0059904BF0AD003A113D00933B3
:10192000083307330633002AD8B4CBD00BD009BF15
:101930000CD0D89006370737083709370006D8B4D7
:10194000C0D0F5D7058D6FD0059DFCC504F604AF5A
:1019500002D0098FAFD0099FADD0FFC503F6FFC5F8
:1019600000F00501FB510601035FFCC509F6098F74
:10197000FDC508F6FEC507F6066BD8900933083397
:1019800007330633032FF8D704AF03D005839ED067
:1019900005930391058B060EEA6E020EE96EA9D03F
:1019A000059B04BF0AD003A113D0093308330733C2
:1019B0000633002AD8B485D00BD009BF0CD0D890FC
:1019C00006370737083709370006D8B47AD0F5D775
:1019D000058F29D0059F00C604F600AF02D0098FFD
:1019E00069D0099F67D000C609F6098F01C608F6BD
:1019F00002C607F604AF04D0099F058567D0059598
:101A0000066B0391050EEA6EFE0EE96E72D004BFFE
:101A10001CD0FCC504F603A106D0093308330733F4
:101A20000633002A4EE006AF0BD0072B09E1082B46
:101A300007E1092B05E1093308330733002A41E0A8
:101A400005BD82D705BFC6D71CD0800E091B09AFC4
:101A500004D03CD000C604F60AD0FCC504F60953F5
:101A600006E1085304E1075302E1006A23D009BFED
:101A700008D0D8900637073708370937002EF7D730
:101A800020D004AF02D0098F15D0099F13D0FFC515
:101A900000F000C609F601C608F602C607F6060100
:101AA00009D0FBC500F0FCC509F6FDC508F6FEC56A
:101AB00007F6060109C601F008C602F007C603F0E2
:101AC00034D0006A016A026A036A2FD0066B071FCE
:101AD000081F091F061F062B05E1072B03E1082B32
:101AE00001E1092B05B10ED705B352D705B587D74C
:101AF000B1D7EF50072705E3082B03E1092BD8B432
:101B00000381ED52EF50082703E3092BD8B403817A
:101B1000ED52EF50EFBE01D0800A0927D8B0038103
:101B200005B9F8D605BB3CD772D70001000C0501FA
:101B3000FA51FC03F3CF01F0F4CF00F0FD03F350B2
:101B40000026FB51FC03F3500020026E0001000C44
:101B50000501B96BB86BB76BB66BF76B0001B9DDFC
:101B600003C0A1F502C0A0F501C09FF500C09EF51D
:101B7000A1C5FEF5A0C5FDF59FC5FCF59EC5FBF50D
:101B80009A0E0601026F990E016F470E006F840EC8
:101B90000501FF6F0001C8DD03C0A1F502C0A0F57B
:101BA00001C09FF500C09EF50501FE6BC00EFD6FE4
:101BB0007F0EFC6F880EFB6FA1C502F6A0C501F673
:101BC0009FC500F69EC5FFF50001AEDD00C0F7F52C
:101BD00001C0F8F502C0F9F503C0FAF5D88203C0D8
:101BE000FEF502C0FDF501C0FCF500C0FBF50601E5
:101BF000026B016B006B7F0E0501FF6F000153DE6E
:101C0000A5C5FEF5A4C5FDF5A3C5FCF5A2C5FBF56C
:101C100003C002F602C001F601C000F600C0FFF5E5
:101C200083DD03C0A9F502C0A8F501C0A7F500C077
:101C3000A6F5010E0501F65D5F5D02E001E35F6B55
:101C4000FB6B5FC5FAF5FD6B040EFC6F00016FDFE7
:101C50000150160FE96E040E0220EA6EA6C5EFFFD2
:101C6000A7C5ECFFA8C5ECFFA9C5ECFF05015F2BDC
:101C70005E6BF6515E5D3DE2FB6B5EC5FAF5FD6B9A
:101C8000040EFC6F000153DF02C003F00150160F79
:101C9000E96E040E0220EA6EEFCF00F0ECCF01F007
:101CA000ECCF02F0ECCF03F0EACFF8F5E9CFF7F58F
:101CB000D892B9C5FEF5B8C5FDF5B7C5FCF5B6C5F2
:101CC000FBF503C002F602C001F601C000F600C039
:101CD000FFF5E9DDF8C5EAFFF7C5E9FF03C0B9F58F
:101CE00002C0B8F501C0B7F500C0B6F505015E2B1E
:101CF000C0D7FD6BF6C5FCF50001D0DCB9C5FEF51B
:101D0000B8C5FDF5B7C5FCF5B6C5FBF503C002F6D1
:101D100002C001F601C000F600C0FFF505DD03C0FA
:101D2000B9F502C0B8F501C0B7F500C0B6F5D88264
:101D3000B9C5FEF5B8C5FDF5B7C5FCF5B6C5FBF5EB
:101D40000601026B016B480E006F850E0501FF6FE7
:101D50000001A9DD00C0F7F501C0F8F502C0F9F5F2
:101D600003C0FAF503C0FEF502C0FDF501C0FCF5A5
:101D700000C0FBF5B80E0601026F1E0E016F450E86
:101D8000006F7D0E0501FF6F0001CEDC03C0BDF5C5
:101D900002C0BCF501C0BBF500C0BAF50501FD6B82
:101DA00060C5FCF500017ADC00C0F7F501C0F8F56C
:101DB00002C0F9F503C0FAF50501FD6B61C5FCF53C
:101DC00000016CDCD882FAC5FEF5F9C5FDF5F8C551
:101DD000FCF5F7C5FBF503C002F602C001F601C031
:101DE00000F600C0FFF55FDDD892BDC5FEF5BCC5AD
:101DF000FDF5BBC5FCF5BAC5FBF503C002F602C094
:101E000001F601C000F600C0FFF54DDD03C0BDF5D1
:101E100002C0BCF501C0BBF500C0BAF5BAC500F000
:101E2000BBC501F0BCC502F0BDC503F0000C060146
:101E30001351D8B471D0006E1751D8B46DD00026AC
:101E400004E3810E002668E204D07F0E005E64E3A6
:101E500063E014C61BF618511B1B148F188F165104
:101E60001A03F4CF1DF615511903F4CF03F0F3CF85
:101E70001CF61A03F3501D27F4501C23000E0322F6
:101E800016511903F3501D27F4501C23000E026A4B
:101E90000322022214511A03F3501C27F450032288
:101EA000000E022214511903F3500326F4500222AB
:101EB000000E016A012216511803F3501C27F4503A
:101EC0000322000E0222012215511803F3500326AB
:101ED000F4500222000E012214511803F35002267E
:101EE000F4500122002A01BE05D01C370336023609
:101EF00001360006000E1CAF0AD0032A022201227E
:101F0000015005E1025003E1035001E1002A1BBF2B
:101F1000018E1BAF019E04D0006A016A026A036A47
:101F20000001000C006A016A0501FF51D89006010A
:101F300000B100260032013200B300260032013227
:101F400000B500260032013200B70026003201320F
:101F500000B900260032013200BB002600320132F7
:101F600000BD00260032013200BF002600320132DF
:101F70000001000C0501FB6BF8C5FCF5010ED880D3
:101F8000F855FD6FF95371E0FB51F65DFE6FFC51A2
:101F9000F725FF6FFB51F6250601006F0501FC5187
:101FA000F7250601016FFEC513F6FFC514F600C63E
:101FB00015F6166FFAC517F60001CAEC08F0050110
:101FC000FB51F65DFE6FFC51F75DFF6FFB51F6258F
:101FD0000601006F0501FC51F75D0601016FFEC5AA
:101FE00013F6FFC514F600C615F6166FFAC517F6F8
:101FF0000001CAEC08F00501FC51F65DFE6FFB51D3
:10200000F725FF6FFC51F6250601006F0501FB5116
:10201000F7250601016FFEC513F6FFC514F600C6CD
:1020200015F6166FFAC517F60001CAEC08F005019F
:10203000FC51F65DFE6FFB51F75DFF6FFC51F6251D
:102040000601006F0501FB51F75D0601016FFEC53A
:1020500013F6FFC514F600C615F6166FFAC517F687
:102060000001CAEC08F080D00501F651FB25FE6F97
:10207000F751FC25FF6FFEC523F6E8CF24F6FAC51D
:1020800025F6000190EC07F00501F651FC25FE6FE6
:10209000F751FB25FF6FFEC523F6E8CF24F6FAC5FE
:1020A00025F6000190EC07F00501FB51F65DFE6F8F
:1020B000F751FC25FF6FFEC523F6E8CF24F6FAC5DD
:1020C00025F6000190EC07F00501FC51F65DFE6F6E
:1020D000F751FB25FF6FFEC523F6E8CF24F6FAC5BE
:1020E00025F6000190EC07F00501F651FC25FE6F86
:1020F000FB51F75DFF6FFEC523F6E8CF24F6FAC566
:1021000025F6000190EC07F00501F651FB25FE6F66
:10211000FC51F75DFF6FFEC523F6E8CF24F6FAC544
:1021200025F6000190EC07F00501FB51F65DFE6F0E
:10213000FC51F75DFF6FFEC523F6E8CF24F6FAC524
:1021400025F6000190EC07F00501FC51F65DFE6FED
:10215000FB51F75DFF6FFEC523F6E8CF24F6FAC505
:1021600025F6000190EC07F00501FDBF01D00ED06F
:10217000FB51FB2BFE6F020EFF6FFEC500F6000148
:10218000D1DE0150030F0501FD2711D0FB51FB2BC0
:10219000FE6FFC51FC07FE5DFE6F020EFF6FFEC579
:1021A00000F60001BFDE0150050F0501FD27FB51C0
:1021B000800A006EFC51800A005CD8B4E3D6D8A037
:1021C000E1D60001000C015005C60BF6640E0601B5
:1021D0000C6F00014FEC0AF000C005F60150300E04
:1021E00008E1060106A310D006B70ED006B9200EEE
:1021F00004D00601069706990681012601C013F650
:10220000000165EC0AF0060105C60BF60A0E0C6F1C
:1022100000014FEC0AF000C005F60150300E08E155
:10222000060106B70BD006A109D006B9200E0001A1
:10223000012601C013F665EC0AF00601300E0527F1
:1022400005C613F6000165EC0AF0000C0501FA5111
:1022500002083FE1050EF56FFC0EF46FF7C505F6B9
:10226000030E0601066F0001AEDF0501FB51120DE2
:10227000F350F8250601056F0501FB51080DF350D9
:10228000F9250601066FF8C508F6F9C509F605C671
:102290000AF60B6F010E0C6F0D6F000169EC09F06F
:1022A000010E0501F8250601056F010E0501F9254E
:1022B0000601066F05C607F6086F050E0A6FFC0ECD
:1022C000096FFBC50BF60C6B0001EEEC07F075D047
:1022D0000501050EF56FFC0EF46FF7C505F6030E4C
:1022E0000601066F00016FDF0501FA2D32D0FB51A8
:1022F000050DF350F8250601056F0501FB51080D8A
:10230000F350F9250601066FF8C508F6F9C509F678
:1023100005C60AF60B6F010E0C6F0D6F000169EC1C
:1023200009F0010E0501F8250601056F010E0501F2
:10233000F9250601066F05C607F6086F050E0A6F38
:10234000FC0E096FFBC50BF60C6B0001EEEC07F001
:102350000501FA5333E1FB51050DF350F825060151
:10236000056F0501FB51080DF350F9250601066FB5
:10237000F8C508F6F9C509F605C60AF60B6F010E91
:102380000C6F0D6B000169EC09F0010E0501F825D9
:102390000601056F010E0501F9250601066F05C648
:1023A00007F6086F050E0A6FFC0E096FFBC50BF6EA
:1023B000010E0C6F0001EEEC07F005010001DEECF0
:1023C00006F0000C0501FA5102083FE1050EF56F19
:1023D000FC0EF46FF7C505F6030E0601066F00014B
:1023E000F2DE0501FB51120DF350F8250601056FD1
:1023F0000501FB51080DF350F9250601066FF8C5DC
:1024000008F6F9C509F605C60AF60B6F010E0C6F42
:102410000D6F000169EC09F0010E0501F8250601B8
:10242000056F010E0501F9250601066F05C607F6C1
:10243000086F050E0A6FFC0E096FFBC50BF60C6BDF
:102440000001EEEC07F0B7D00501FA5103083FE1B7
:10245000050EF56FFC0EF46FF7C505F6030E0601C9
:10246000066F0001B0DE0501FB51120DF350F82597
:102470000601056F0501FB51080DF350F925060112
:10248000066FF8C508F6F9C509F605C60AF60B6F1A
:10249000010E0C6F0D6B000169EC09F0010E0501D6
:1024A000F8250601056F010E0501F9250601066FE5
:1024B00005C607F6086F050E0A6FFC0E096FFBC50F
:1024C0000BF6010E0C6F0001EEEC07F00501050E96
:1024D000F56FFC0EF46FF7C505F61B0E0601066FCF
:1024E000000171DE0501FA2D32D0FB51050DF350CC
:1024F000F8250601056F0501FB51080DF350F9257C
:102500000601066FF8C508F6F9C509F605C60AF60C
:102510000B6F010E0C6F0D6F000169EC09F0010EDD
:102520000501F8250601056F010E0501F9250601D3
:10253000066F05C607F6086F050E0A6FFC0E096FD9
:10254000FBC50BF60C6B0001EEEC07F00501FA532E
:1025500033E1FB51050DF350F8250601056F050128
:10256000FB51080DF350F9250601066FF8C508F672
:10257000F9C509F605C60AF60B6F010E0C6F0D6B57
:10258000000169EC09F0010E0501F8250601056F4F
:10259000010E0501F9250601066F05C607F6086F4D
:1025A000050E0A6FFC0E096FFBC50BF6010E0C6FD2
:1025B0000001EEEC07F005010001DEEC06F0000C76
:1025C0000501F651050854E1F76BF7513F0850E358
:1025D000F86BF8510F084AE3070EF96FF951800ABA
:1025E0007F0842E2FB6BF7C5FAF5FD6B100EFC6F3E
:1025F000000197EC0DF002C0FBF501C0FAF50501F2
:10260000F8510124016E000E0220036E0150F2CF3A
:10261000FAF5F29E03C0F7FF000153EC01F005014B
:10262000FABFF28EFA6F070ED880F955FB6FFAC524
:1026300000F0FB51016E04E0D8900032012EFCD76F
:1026400000A010D0F851080DF350F925FA6FE8CF2B
:1026500023F6F7C524F6010E0601256F000190EC64
:1026600007F00501F907BAD7F82BB3D7F72BADD789
:102670000001B5EF26F0F7C5FEF50501FB51FE1B85
:10268000FEAF05D0D894D890F7BFD8802FD0F7C52B
:10269000FEF5FAC5FFF5F651FF5F06E0FEAF26D066
:1026A000D850010AD86E22D0FBC5FFF5F751FF5F65
:1026B00006E0FEAF1BD0D850010AD86E17D0FCC57B
:1026C000FFF5F851FF5F06E0FEAF10D0D850010AC9
:1026D000D86E0CD0FDC5FFF5F951FF5F06E0FEAFE7
:1026E00005D0D850010AD86E01D0D8900001000C56
:1026F00005016751040DF350036A560FE96E050E8C
:102700000320EA6ED2C5EFFFD3C5ECFFD4C5ECFFC2
:10271000D5C5ECFF672B675101081EE2676BD882B5
:102720005DC5FEF55CC5FDF55BC5FCF55AC5FBF561
:1027300059C502F658C501F657C500F656C5FFF54E
:10274000000153EC0CF003C0D1F502C0D0F501C07C
:10275000CFF500C0CEF505010001D3EF13F08E0ECA
:10276000006E0501F651005EF7C502F0F8C501F0F4
:10277000028E005209E0D890025202E1015204E0B8
:1027800002320132002EF7D7F7AF05D0011E021E2C
:10279000012AD8B4022A0001000C05016351130874
:1027A00004E20001A5D70501636B7F51010806E231
:1027B000FF0A03E17E51580801E2668B695303E189
:1027C0008B82949207D065AB03D08B82949202D017
:1027D0008B929492FD6B70C5FCF500014EEC0BF0F2
:1027E000D892C9C5FEF5C8C5FDF5C7C5FCF5C6C577
:1027F000FBF503C002F602C001F601C000F600C0FE
:10280000FFF553EC0CF000C0F6F501C0F7F502C07F
:10281000F8F503C0F9F5D88203C0FEF502C0FDF556
:1028200001C0FCF500C0FBF5D5C502F6D4C501F624
:10283000D3C500F6D2C5FFF553EC0CF003C0B5F5D7
:1028400002C0B4F501C0B3F500C0B2F5C5C5F9F5D5
:10285000C4C5F8F5C3C5F7F5C2C5F6F50501FD6BAE
:10286000FC6BFB6B7E0EFA6F000105DF07E30501D1
:10287000C56BC46BC36B7E0EC26F00018DC5F9F5CD
:102880008CC5F8F58BC5F7F58AC5F6F5C5C5FDF518
:10289000C4C5FCF5C3C5FBF5C2C5FAF5ECDE08E31B
:1028A0008DC5C5F58CC5C4F58BC5C3F58AC5C2F504
:1028B000B5C5F9F5B4C5F8F5B3C5F7F5B2C5F6F584
:1028C0000501FD6BFC6BFB6BFA6B0001D4DE06E3CC
:1028D0000501B56BB46BB36BB26B0001B5C516F6F1
:1028E000B4C515F6B3C514F6B2C513F6C5C51AF6C8
:1028F000C4C519F6C3C518F6C2C517F617EC0FF014
:1029000003C0C1F502C0C0F501C0BFF500C0BEF5EF
:102910000501FD6B70C5FCF500014EEC0BF003C02A
:10292000F9F502C0F8F501C0F7F500C0F6F5C1C52C
:10293000FDF5C0C5FCF5BFC5FBF5BEC5FAF59BDED0
:102940000FE30501FD6B70C5FCF500014EEC0BF0CB
:1029500003C0C1F502C0C0F501C0BFF500C0BEF59F
:10296000C1C5F9F5C0C5F8F5BFC5F7F5BEC5F6F5A3
:102970000501FD6BFC6BFB6BFA6B00017CDE05E374
:102980000501C16BC06BBF6BBE6B0501FD6B70C5F4
:10299000FCF500014EEC0BF0C1C5FEF5C0C5FDF520
:1029A000BFC5FCF5BEC5FBF503C002F602C001F6CB
:1029B00001C000F600C0FFF594EC0BF000C0F6F586
:1029C00001C0F7F502C0F8F503C0F9F503C016F62B
:1029D00002C015F601C014F600C013F6ADC51AF614
:1029E000ACC519F6ABC518F6AAC517F617EC0FF06B
:1029F00003C0B1F502C0B0F501C0AFF500C0AEF53F
:102A0000B1C5FEF5B0C5FDF5AFC5FCF5AEC5FBF52E
:102A10000A0E0601026FD70E016F230E006F770EAC
:102A20000501FF6F000194EC0BF003C0F9F502C043
:102A3000F8F501C0F7F500C0F6F591DE02C003F02D
:102A4000015005017951025C09E303E17851015C11
:102A500005E38B8094908B84949404D08B90949015
:102A60008B949494ADC5FEF5ACC5FDF5ABC5FCF5F6
:102A7000AAC5FBF50A0E0601026FD70E016F230EE1
:102A8000006F770E0501FF6F000194EC0BF003C09F
:102A9000F9F502C0F8F501C0F7F500C0F6F55FDE04
:102AA0000250036E0501795D06E303E10150785D94
:102AB00002E3796B786B0001000C06011351B60834
:102AC000136F036A14C617F6148FD8901433153396
:102AD00016330332023201320032132FF6D717AF0A
:102AE0000BD0001E011E021E031E002AD8B4012AAC
:102AF000D8B4022AD8B4032A0001EBEF15F0006A1B
:102B0000016A026A036A06011B6B1C6B1D6B1E6B5C
:102B10001A511911181117112CE0200E1F6FD8909F
:102B200013371437153716371B371C371D371E3729
:102B30001A511E5D08E119511D5D05E118511C5D1A
:102B400002E117511B5D0FE317511B5F1851D8A00D
:102B5000183D1C5F1951D8A0193D1D5F1A51D8A00E
:102B60001A3D1E5FD88000360136023603361F2F0D
:102B7000D6D7060EEA6E1B0EE96E0001000CE95076
:102B800006010B6F0A510D6F1CE009C616F608C648
:102B900015F607C614F606C613F61A6B196B200E47
:102BA000186F820E176F000117EC0FF003C009F6C3
:102BB00002C008F601C007F600C006F606010D2F98
:102BC000E4D709C616F608C615F607C614F606C6F3
:102BD00013F6000172D703C009F602C008F601C05F
:102BE00007F600C006F6060109AF0DD00B070B8BE8
:102BF000061F071F081F091F062BD8B4072BD8B4C0
:102C0000082BD8B4092B3B0E126F9A0E116FCA0E07
:102C1000106F0F6B0A0E0D6F0A51D8B40B2B09C63B
:102C200016F608C615F607C614F606C613F612C63B
:102C30001AF611C619F610C618F60FC617F60001D7
:102C40005EDF0150EFCF06F6ECCF07F6ECCF08F6CB
:102C5000ECCF09F6005213E106010A290D5DD8A454
:102C600002D000010CD00B510DE00F0B0D5D01E007
:102C700044E20BBF42D00BBD05D0200E37D0200E52
:102C800006010B170BAB0FD00B9B0A51D8A40B07F7
:102C900000500B6F2D0E136F000165EC0AF006015A
:102CA0000B51006E0B6B0A510D5D0DE100500B6F67
:102CB0002E0E136F000165EC0AF006010B51006E39
:102CC000200E0B17000E300E0BAB10D00B9B0A51D1
:102CD000D8A40B0700500B6F2D0E136F000165EC8D
:102CE0000AF006010B51006E0B6B300E002600C07F
:102CF00013F6000165EC0AF0060112C616F611C6BD
:102D000015F610C614F60FC613F61A6B196B186B6E
:102D10000A0E176F0001F3DE03C012F602C011F6AF
:102D200001C010F600C00FF606010D2F78D7000184
:102D3000AEEF16F0050E0501F56FFD0EF46F420EB5
:102D4000E96EF9C509F6F8C508F6F7C507F6F6C540
:102D500006F6010E06010A6F000111D70501FC51AC
:102D60001B0DF350FA250601066F0501FC51080DF5
:102D7000F350FB250601076FFAC508F6FBC509F6F7
:102D800006C60AF60B6F010E0C6F0D6B000169ECA5
:102D900009F0FAC507F6FBC508F6050E06010A6F2D
:102DA000FD0E096FFCC50BF6010E0C6F0001EEEC79
:102DB00007F0A8EF29F0F86AD09E078EEA6AE96A60
:102DC00005015E6B5F6B606B616B3C0E626F636BEA
:102DD000646B65916593659565876599659B659D50
:102DE000659F66916693669566976699669B676B25
:102DF000686B696B6A6B010E6B6F6C6B6D6B6E6BE6
:102E00006F6B706B716F726B736B756B746B776BD1
:102E1000766B796B786B7B6B7A6B7D6B7C6B7F6B86
:102E20007E6B816B806B856B846B836B826B896B34
:102E3000886B876B866B8D6B8C6B8B6B8A6BA16BD6
:102E4000A06B9F6B9E6BA56B400EA46F1C0EA36FB7
:102E50008C0EA26FAD6BAC6B200EAB6F810EAA6FA8
:102E6000B16BB06BAF6BAE6BB56BB46BB36BB26B7E
:102E7000B96BB86BB76BB66BBD6BBC6BBB6BBA6B2E
:102E8000C16BC06BBF6BBE6BC56BC46BC36B7F0E7E
:102E9000C26FC96BC86BC76BC66BCD6BCC6B0C0EAE
:102EA000CB6F840ECA6FD16BD06BCF6BCE6BD56BF3
:102EB000D46BD36BD26BC150C00B0F09C16E070E20
:102EC000B46E0401166B176B186B196B1A6B1B6BC6
:102ED0001C6B1D6B1E6B1F6B206B216B226B236B9E
:102EE000246B256B266B276B286B296B2A6B2B6B4E
:102EF0002C6B2D6B2E6B2F6B306B316B326B336BFE
:102F0000346B356B366B376B386B396B3A6B3B6BAD
:102F10003C6B3D6B3E6B3F6B406B416B426B436B5D
:102F2000446B456B466B476B486B496B4A6B4B6B0D
:102F30004C6B4D6B4E6B4F6B506B516B526B536BBD
:102F4000546B556B566B576B586B596B5A6B5B6B6D
:102F50005C6B5D6B5E6B5F6B606B616B626B636B1D
:102F6000646B656B666B676B686B696B6A6B6B6BCD
:102F70006C6B6D6B6E6B6F6B706B716B726B736B7D
:102F8000746B756B766B776B786B796B7A6B7B6B2D
:102F90007C6B7D6B7E6B7F6B806B816B826B836BDD
:102FA000846B856B866B876B886B896B8A6B8B6B8D
:102FB0008C6B8D6B8E6B8F6B906B916B926B936B3D
:102FC000946B956B966B976B986B996B9A6B9B6BED
:102FD0009C6B9D6B9E6B9F6BA06BA16BA26BA36B9D
:102FE000A46BA56BA66BA76BA86BA96BAA6BAB6B4D
:102FF000AC6BAD6BAE6BAF6BB06BB16BB26BB36BFD
:10300000B46BB56BB66BB76BB86BB96BBA6BBB6BAC
:10301000BC6BBD6BBE6BBF6BC06BC16BC26BC36B5C
:10302000C46BC56BC66BC76BC86BC96BCA6BCB6B0C
:10303000CC6BCD6BCE6BCF6BD06BD16BD26BD36BBC
:10304000D46BD56BD66BD76BD86BD96BDA6BDB6B6C
:10305000DC6BDD6BDE6BDF6BE06BE16BE26BE36B1C
:10306000E46BE56BE66BE76BE86BE96BEA6BEB6BCC
:10307000EC6BED6BEE6BEF6BF06BF16BF26BF36B7C
:10308000F46BF56BF66BF76BF86BF96BFA6BFB6B2C
:10309000FC6BFD6BFE6BFF6B0501006B016B026B44
:1030A000036B046B056B066B076B086B096B0A6B94
:1030B0000B6B0C6B0D6B0E6B0F6B106B116B126B44
:1030C000136B146B156B166B176B186B196B1A6BF4
:1030D0001B6B1C6B1D6B1E6B1F6B206B216B226BA4
:1030E000236B246B256B266B276B286B296B2A6B54
:1030F0002B6B2C6B2D6B2E6B2F6B306B316B326B04
:10310000336B346B356B366B376B386B396B3A6BB3
:103110003B6B3C6B3D6B3E6B3F6B406B416B426B63
:10312000436B446B456B466B476B486B496B4A6B13
:103130004B6B4C6B4D6B4E6B4F6B506B516B526BC3
:10314000536B546B556B566B576B586B596B5A6B73
:103150005B6B5C6B5D6B8E6B8F6B906B916B926B33
:10316000936B946B956B966B976B986B996B9A6B53
:103170009B6B9C6B9D6BF46BF56B040EF66FFA0EFC
:10318000FC6F00017CEC06F00501F62FF8D78B8C64
:10319000949C8B8E949E8A8093908A8293928B9239
:1031A00094928B9094908B949494850ECD6E9D8088
:1031B000C150C00B0B09C16EC090C082C084C08ECC
:1031C000C280C00EF212F2CFF6F5F29E0A0EA96E80
:1031D000A69CA69EA680A850F6BFF28E926FF2CF54
:1031E000F6F5F29E140EA96EA69CA69EA680A85087
:1031F000F6BFF28E936FF2CFF6F5F29E1E0EA96E19
:10320000A69CA69EA680A850F6BFF28E946FF2CF21
:10321000F6F5F29E280EA96EA69CA69EA680A85042
:10322000F6BFF28E956FF2CFF6F5F29E320EA96ED2
:10323000A69CA69EA680A850F6BFF28E706FF2CF15
:10324000F6F5F29E3C0EA96EA69CA69EA680A850FE
:10325000F6BFF28E9A6FF2CFF6F5F29E460EA96E89
:10326000A69CA69EA680A850F6BFF28E9B6FF2CFBA
:10327000F6F5F29E500EA96EA69CA69EA680A850BA
:10328000F6BFF28E9C6FF2CFF6F5F29E5A0EA96E43
:10329000A69CA69EA680A850F6BFF28E9D6F010E3A
:1032A000F66F00013AEC07F00501F76B0001B1EC95
:1032B00006F0050EEA6ED60EE96EF2CFF6F5F29E36
:1032C000000E5FEC03F00A000900F550EE6E0009F5
:1032D000FBE10501F6BFF28E050EF76FD60EF66F15
:1032E000F86BF96BFA6B020EFB6F0001CAEC09F088
:1032F000050EEA6ED60EE96EF2CFF6F5F29E000EDE
:1033000072EC03F00A000900F550EE6E0009FBE1D3
:103310000501F6BFF28E050EF76FD60EF66FF86B4D
:10332000140EF96FFA6B010EFB6F0001CAEC09F085
:10333000050EEA6ED60EE96EF2CFF6F5F29E000E9D
:1033400087EC03F00A000900F550EE6E0009FBE17E
:103350000501F6BFF28E050EF76FD60EF66FF86B0D
:103360001E0EF96FFA6B010EFB6F0001CAEC09F03B
:10337000050EEA6ED60EE96EF2CFF6F5F29E000E5D
:103380009AEC03F00A000900F550EE6E0009FBE12B
:103390000501F6BFF28E050EF76FD60EF66FF86BCD
:1033A0002D0EF96FFA6B020EFB6F0001CAEC09F0EB
:1033B000040E0501F66FFA0EFC6F00017CEC06F0BE
:1033C0000501F62FF8D7F76B0001B1EC06F096C5B2
:1033D000F8F5140E0501F96F1E0EFA6F010EFB6F62
:1033E0000001E6EC0AF097C5F8F5280E0501F96F23
:1033F0001E0EFA6FFB6B0001E6EC0AF098C5F8F5BB
:103400003C0E0501F96F1E0EFA6FFB6B0001E6EC36
:103410000AF099C5F8F5500E0501F96F1E0EFA6F06
:10342000FB6B0001E6EC0AF005016C6B6C514F0878
:1034300010E362C5F6F50001A8EC0DF003C0D5F568
:1034400002C0D4F501C0D3F500C0D2F505016C2B44
:10345000EDD7928A80AA45D0968084A042D09682E9
:1034600084A23FD0968484A43CD0020EF66FFA0E5C
:10347000FC6F00017CEC06F00501F62FF8D7050E75
:10348000EA6ED60EE96EF2CFF6F5F29E000E00015E
:10349000ACEC03F00A000900F550EE6E0009FBE108
:1034A0000501F6BFF28E050EF76FD60EF66FF86BBC
:1034B0001E0EF96F010EFA6FFB6F0001CAEC09F0E6
:1034C000080E0501F66FFA0EFC6F00017CEC06F0A9
:1034D0000501F62FF8D7640E6A6FF76B0001B1ECA7
:1034E00006F00001DEEC06F005016A53D8A4BDD257
:1034F000050EEA6ED60EE96EF2CFF6F5F29E000EDC
:103500000001BFEC03F00A000900F550EE6E00095F
:10351000FBE10501F6BFF28E050EF76FD60EF66FD2
:103520001E0EF86FF96B010EFA6F020EFB6F0001B1
:10353000CAEC09F0928A80AA68D0050165B164D00E
:1035400065811E0EFC6F00017CEC06F0010E05018A
:103550006C6F6C51040858E36C516B5D3AE1010EDD
:103560006C5D036A960FE96E050E0320EA6EEF2A82
:10357000010E6C5D036A960FE96E050E0320EA6E7C
:10358000EFBE0CD0EF50090809E2010E6C5D036A32
:10359000960FE96E050E0320EA6EEF6A010E6C5D70
:1035A000036A960FE96E050E0320EA6EEFCFF6F57B
:1035B0006C51140DF3CFF7F5F6C5F8F5F7C5F9F52D
:1035C0001E0EFA6F010EFB6F0001E6EC0AF019D037
:1035D0000501010E6C5D036A960FE96E050E03206E
:1035E000EA6EEFCFF6F56C51140DF3CFF7F5F6C593
:1035F000F8F5F7C5F9F51E0EFA6FFB6B0001E6EC66
:103600000AF005016C2BA5D702D0050165919680C3
:1036100084A066D065B563D065851E0EFC6F000181
:103620007CEC06F0010E05016C6F6C51040857E349
:103630006C516B5D39E1010E6C5D036A960FE96EAA
:10364000050E0320EA6EEF06010E6C5D036A960F0D
:10365000E96E050E0320EA6EEFBE01D00AD0010E1E
:103660006C5D036A960FE96E050E0320EA6E090E83
:10367000EF6E010E6C5D036A960FE96E050E032076
:10368000EA6EEFCFF6F56C51140DF3CFF7F5F6C5F2
:10369000F8F5F7C5F9F51E0EFA6F010EFB6F000184
:1036A000E6EC0AF019D00501010E6C5D036A960F75
:1036B000E96E050E0320EA6EEFCFF6F56C51140D9E
:1036C000F3CFF7F5F6C5F8F5F7C5F9F51E0EFA6F65
:1036D000FB6B0001E6EC0AF005016C2BA6D701D0CC
:1036E0006595968284A249D065B346D065831E0E47
:1036F000FC6F00017CEC06F005016B2B010E6C6F7A
:103700006C51040839E36C516B5D1BE1010E6C5D7B
:10371000036A960FE96E050E0320EA6EEFCFF6F509
:103720006C51140DF3CFF7F5F6C5F8F5F7C5F9F5BB
:103730001E0EFA6F010EFB6F0001E6EC0AF019D0C5
:103740000501010E6C5D036A960FE96E050E0320FC
:10375000EA6EEFCFF6F56C51140DF3CFF7F5F6C521
:10376000F8F5F7C5F9F51E0EFA6FFB6B0001E6ECF4
:103770000AF005016C2BC4D701D065936B51040886
:10378000D8B073D1F76B0001B1EC06F0040E05015F
:103790006B6F9651030873E19751080870E19851D7
:1037A00009086DE1995102086AE13C0EA96EA86A08
:1037B000A69CA69EA684F250006EF29E0F01550EA6
:1037C000A76EAA0EA76EA682A6B2FED7A694005038
:1037D000F212140E0501FC6F00017CEC06F0460E9F
:1037E000A96EA86AA69CA69EA684F250006EF29EC0
:1037F0000F01550EA76EAA0EA76EA682A6B2FED71F
:10380000A6940050F212140E0501FC6F00017CEC2E
:1038100006F0500EA96EA86AA69CA69EA684F25039
:10382000006EF29E0F01550EA76EAA0EA76EA6821D
:10383000A6B2FED7A6940050F212140E0501FC6F3A
:1038400000017CEC06F05A0EA96EA86AA69CA69E02
:10385000A684F250006EF29E0F01550EA76EAA0EBE
:10386000A76EA682A6B2FED7A6940050F212140E3E
:103870000501FC6F00017CEC06F0FF0005019A5188
:10388000965D67E19B51975D64E19C51985D61E1B4
:103890009D51995D5EE1F76B0001B1EC06F0050EFC
:1038A000EA6ED60EE96EF2CFF6F5F29E000EBFEC90
:1038B00003F00A000900F550EE6E0009FBE1050176
:1038C000F6BFF28E050EF76FD60EF66F1E0EF86F6E
:1038D000F96BFA6B020EFB6F0001CAEC09F0050EE2
:1038E000EA6ED60EE96EF2CFF6F5F29E000ECFEC40
:1038F00003F00A000900F550EE6E0009FBE1050136
:10390000F6BFF28E050EF76FD60EF66F0F0EF86F3C
:103910001E0EF96FFA6B020EFB6F0001CAEC09F084
:10392000010E05016A6F0001DEEC06F0040E0501D0
:10393000F66FFA0EFC6F00017CEC06F00501F62F25
:10394000F8D7F76B0001B1EC06F0010E05016B6FC3
:103950008CD0F76B0001B1EC06F0050EEA6ED60EC6
:10396000E96EF2CFF6F5F29E000EBFEC03F00A000E
:103970000900F550EE6E0009FBE10501F6BFF28E7D
:10398000050EF76FD60EF66F1E0EF86FF96BFA6B19
:10399000020EFB6F0001CAEC09F0050EEA6ED60EAE
:1039A000E96EF2CFF6F5F29E000EE1EC03F00A00AC
:1039B0000900F550EE6E0009FBE10501F6BFF28E3D
:1039C000050EF76FD60EF66FF86B1E0EF96FFA6BD9
:1039D000020EFB6F0001CAEC09F005016A6B0001E1
:1039E000DEEC06F0040E0501F66FFA0EFC6F000126
:1039F0007CEC06F00501F62FF8D7F76B0001B1EC6F
:103A000006F0010E05016B6F966B976B986B996BC7
:103A100096C5F8F5140EF96F1E0EFA6F010EFB6FC6
:103A20000001E6EC0AF097C5F8F5280E0501F96FDC
:103A30001E0EFA6FFB6B0001E6EC0AF098C5F8F574
:103A40003C0E0501F96F1E0EFA6FFB6B0001E6ECF0
:103A50000AF099C5F8F5500E0501F96F1E0EFA6FC0
:103A6000FB6B0001E6EC0AF005016A2D89D171516A
:103A7000040802E2010E716F715302E1040E716FCE
:103A8000050EEA6ED60EE96EF2CFF6F5F29E000E46
:103A90000001F4EC03F00A000900F550EE6E000995
:103AA000FBE10501F6BFF28E050EF76FD60EF66F3D
:103AB0001E0EF86FF96B010EFA6F020EFB6F00011C
:103AC000CAEC09F00501712D23D0050EEA6ED60E61
:103AD000E96EF2CFF6F5F29E000E000104EC04F060
:103AE0000A000900F550EE6E0009FBE10501F6BF82
:103AF000F28E050EF76FD60EF66FF86B140EF96F97
:103B0000010EFA6FFB6F0001CAEC09F022D005012B
:103B1000050EEA6ED60EE96EF2CFF6F5F29E000EB5
:103B2000000104EC04F00A000900F550EE6E0009F3
:103B3000FBE10501F6BFF28E050EF76FD60EF66FAC
:103B4000F86B140EF96FFA6B010EFB6F0001CAECF3
:103B500009F005017151020823E1050EEA6ED60E47
:103B6000E96EF2CFF6F5F29E000E000119EC04F0BA
:103B70000A000900F550EE6E0009FBE10501F6BFF1
:103B8000F28E050EF76FD60EF66FF86B1E0EF96FFC
:103B9000010EFA6FFB6F0001CAEC09F022D005019B
:103BA000050EEA6ED60EE96EF2CFF6F5F29E000E25
:103BB000000119EC04F00A000900F550EE6E00094E
:103BC000FBE10501F6BFF28E050EF76FD60EF66F1C
:103BD000F86B1E0EF96FFA6B010EFB6F0001CAEC59
:103BE00009F005017151030823E1050EEA6ED60EB6
:103BF000E96EF2CFF6F5F29E000E00012CEC04F017
:103C00000A000900F550EE6E0009FBE10501F6BF60
:103C1000F28E050EF76FD60EF66FF86B280EF96F61
:103C2000010EFA6FFB6F0001CAEC09F022D005010A
:103C3000050EEA6ED60EE96EF2CFF6F5F29E000E94
:103C400000012CEC04F00A000900F550EE6E0009AA
:103C5000FBE10501F6BFF28E050EF76FD60EF66F8B
:103C6000F86B280EF96FFA6B010EFB6F0001CAECBE
:103C700009F005017151040823E1050EEA6ED60E24
:103C8000E96EF2CFF6F5F29E000E000140EC04F072
:103C90000A000900F550EE6E0009FBE10501F6BFD0
:103CA000F28E050EF76FD60EF66FF86B320EF96FC7
:103CB000010EFA6FFB6F0001CAEC09F022D005017A
:103CC000050EEA6ED60EE96EF2CFF6F5F29E000E04
:103CD000000140EC04F00A000900F550EE6E000906
:103CE000FBE10501F6BFF28E050EF76FD60EF66FFB
:103CF000F86B320EF96FFA6B010EFB6F0001CAEC24
:103D000009F0928A80AA0DD0050165B109D06581BC
:103D10001E0EFC6F00017CEC06F005017107658743
:103D200002D005016591968084A00CD065B509D0BC
:103D300065851E0EFC6F00017CEC06F00501712B01
:103D4000658701D06595968284A219D065B316D097
:103D50006583020EF66FFA0EFC6F00017CEC06F034
:103D60000501F62FF8D7030E71256A6F010E716FEA
:103D7000F76B0001B1EC06F00501658701D0659392
:103D80006A510408D8A452D17151020802E2010E0E
:103D9000716F715302E1020E716F050EEA6ED60E5D
:103DA000E96EF2CFF6F5F29E000E000154EC04F03D
:103DB0000A000900F550EE6E0009FBE10501F6BFAF
:103DC000F28E050EF76FD60EF66FF86BF96B010EDB
:103DD000FA6F020EFB6F0001CAEC09F00501715188
:103DE000020845E1050EEA6ED60EE96EF2CFF6F551
:103DF000F29E000E000166EC04F00A000900F55086
:103E0000EE6E0009FBE10501F6BFF28E050EF76FBD
:103E1000D60EF66F320EF86F190EF96F010EFA6FAB
:103E2000020EFB6F0001CAEC09F0050EEA6ED60E19
:103E3000E96EF2CFF6F5F29E000E75EC04F00A0082
:103E40000900F550EE6E0009FBE10501F6BFF28EA8
:103E5000050EF76FD60EF66F320EF86F2D0EF96F56
:103E6000FA6B020EFB6F0001CAEC09F00501712D1F
:103E700045D0050EEA6ED60EE96EF2CFF6F5F29E4B
:103E8000000E000166EC04F00A000900F550EE6E29
:103E90000009FBE10501F6BFF28E050EF76FD60EA5
:103EA000F66F320EF86F190EF96FFA6B020EFB6F98
:103EB0000001CAEC09F0050EEA6ED60EE96EF2CFEB
:103EC000F6F5F29E000E75EC04F00A000900F550BC
:103ED000EE6E0009FBE10501F6BFF28E050EF76FED
:103EE000D60EF66F320EF86F2D0EF96F010EFA6FC7
:103EF000020EFB6F0001CAEC09F00501928A80AA4C
:103F000004D07151010801E3712B968084A004D084
:103F10007151010801E27107968284A26ED071513D
:103F2000020857E1140E6A6F0F0E0601086F120E99
:103F3000096F1E0E0A6F350E0B6F0C6B010E0D6FA5
:103F4000000169EC09F00501736BF76B0001B1EC3E
:103F500006F005016D6BC5C5FEF5C4C5FDF5C3C50D
:103F6000FCF5C2C5FBF5CDC502F6CCC501F6CBC547
:103F700000F6CAC5FFF5000194EC0BF000C0F6F5A1
:103F800001C0F7F502C0F8F503C0F9F50501FD6BB6
:103F900070C5FCF500014EEC0BF003C016F602C034
:103FA00015F601C014F600C013F6F9C51AF6F8C5E7
:103FB00019F6F7C518F6F6C517F617EC0FF003C09B
:103FC000C5F502C0C4F501C0C3F500C0C2F516D0E6
:103FD0000501040EF66FAF0EFC6F00017CEC06F0DD
:103FE0000501F62FF8D7010E6A6FF76B0001B1ECEF
:103FF00006F0010E0501716F65870001968484A4A7
:1040000016D0040E0501F66FAF0EFC6F00017CECBC
:1040100006F00501F62FF8D7010E6A6FF76B000165
:10402000B1EC06F0010E0501716F65870001050115
:104030006A510508D8A4DBD0550EF66F1E0EF76F37
:10404000030EF86FF96B010EFA6F0001BAEC0FF076
:10405000050EEA6ED60EE96EF2CFF6F5F29E000E70
:1040600084EC04F00A000900F550EE6E0009FBE153
:104070000501F6BFF28E050EF76FD60EF66F5C0ED9
:10408000F86F1E0EF96F020EFA6F030EFB6F000140
:10409000CAEC09F0050EEA6ED60EE96EF2CFF6F51F
:1040A000F29E000E19EC04F00A000900F550EE6EC5
:1040B0000009FBE10501F6BFF28E050EF76FD60E83
:1040C000F66FF86BF96B010EFA6F020EFB6F0001D1
:1040D000CAEC09F070C5F7F51E0E0501F86FF96F0F
:1040E000FA6B030EFB6F000126EC11F0928A80AA96
:1040F00025D01E0E0601086F096F500E0A6F370E8D
:104100000B6F010E0C6F0D6B000169EC09F00501DE
:1041100070513C080AE23C0E706F640EFC6F0001A7
:104120007CEC06F00501658708D01E0EFC6F0001CF
:104130007CEC06F00501702B65870001968084A059
:104140001BD01E0E0601086F096F500E0A6F370E46
:104150000B6F010E0C6F0D6B000169EC09F005018E
:104160007051140808E21E0EFC6F00017CEC06F092
:104170000501700765870001968284A209D01E0E92
:104180000501FC6F00017CEC06F00501658700016C
:10419000968484A42BD0040E0501F66FAF0EFC6F3D
:1041A00000017CEC06F00501F62FF8D7010E6A6FCE
:1041B000F76B0001B1EC06F0010E0501716F658728
:1041C000320EA96E70C5A8FFA69CA69EA684F250CA
:1041D000006EF29E0F01550EA76EAA0EA76EA68264
:1041E000A6B2FED7A6940050F212000105016A5152
:1041F0000608D8A47BD16B5302E1040E6B6F050E49
:10420000EA6ED60EE96EF2CFF6F5F29E000E0001D0
:1042100092EC04F00A000900F550EE6E0009FBE193
:104220000501F6BFF28E050EF76FD60EF66FF86B2E
:10423000F96B010EFA6F020EFB6F0001CAEC09F078
:1042400005016B5104080FE195C5F7F5140EF86FE1
:10425000280EF96F010EFA6F020EFB6F0001E2ECFF
:1042600011F00DD0050195C5F7F5140EF86F280E65
:10427000F96FFA6B020EFB6F0001E2EC11F0050121
:104280006B5103080EE194C5F7F5280EF86FF96F2E
:10429000010EFA6F020EFB6F0001E2EC11F00CD080
:1042A000050194C5F7F5280EF86FF96FFA6B020E49
:1042B000FB6F0001E2EC11F005016B5102080FE108
:1042C00093C5F7F5460EF86F280EF96F010EFA6FD9
:1042D000020EFB6F0001E2EC11F00DD0050193C559
:1042E000F7F5460EF86F280EF96FFA6B020EFB6FAA
:1042F0000001E2EC11F005016B2D0FD092C5F7F52E
:104300005A0EF86F280EF96F010EFA6F020EFB6F4E
:104310000001E2EC11F00DD0050192C5F7F55A0E3F
:10432000F86F280EF96FFA6B020EFB6F0001E2ECDA
:1043300011F0050EEA6ED60EE96EF2CFF6F5F29E9A
:10434000000EA4EC04F00A000900F550EE6E00091E
:10435000FBE10501F6BFF28E050EF76FD60EF66F84
:104360003C0EF86F2A0EF96F020EFA6FFB6F000118
:10437000CAEC09F0928A80AA1FD0010E05016B5D7C
:10438000036A920FE96E050E0320EA6EEFBE03D0BA
:10439000EF50080810E31E0EFC6F00017CEC06F0E5
:1043A000010E05016B5D036A920FE96E050E032095
:1043B000EA6EEF2A65870001968084A01FD0010E67
:1043C00005016B5D036A920FE96E050E0320EA6E2C
:1043D000EFBE13D0EF50000810E21E0EFC6F00017C
:1043E0007CEC06F0010E05016B5D036A920FE96E2D
:1043F000050E0320EA6EEF0665870001968284A20F
:104400000AD01E0E0501FC6F00017CEC06F00501D0
:104410006B0765870001968484A467D0040E0501AC
:10442000F66FAF0EFC6F00017CEC06F00501F62F75
:10443000F8D7010E6A6FF76B0001B1EC06F0010EC0
:104440000501716F65870A0EA96E92C5A8FFA69C2B
:10445000A69EA684F250006EF29E0F01550EA76E26
:10446000AA0EA76EA682A6B2FED7A6940050F2129C
:10447000140EA96E93C5A8FFA69CA69EA684F25012
:10448000006EF29E550EA76EAA0EA76EA682A6B269
:10449000FED7A6940050F2121E0EA96E94C5A8FF76
:1044A000A69CA69EA684F2CF00F0F29E550EA76EA3
:1044B000AA0EA76EA682A6B2FED7A6940050F2124C
:1044C000280EA96E95C5A8FFA69CA69EA684F2CF2D
:1044D00000F0F29E550EA76EAA0EA76EA682A6B297
:1044E000FED7A6940050F212000105016A51070898
:1044F000D8A44CD2050EEA6ED60EE96EF2CFF6F5D0
:10450000F29E000E0001BFEC03F00A000900F55016
:10451000EE6E0009FBE10501F6BFF28E050EF76FA6
:10452000D60EF66F1E0EF86FF96B010EFA6F020EC3
:10453000FB6F0001CAEC09F005016B2D2ED096C56A
:10454000F8F5140EF96F1E0EFA6F010EFB6F0001E5
:10455000E6EC0AF097C5F8F5280E0501F96F1E0E76
:10456000FA6FFB6B0001E6EC0AF098C5F8F53C0E1B
:104570000501F96F1E0EFA6FFB6B0001E6EC0AF005
:1045800099C5F8F5500E0501F96F1E0EFA6FFB6B19
:104590000001E6EC0AF092D005016B5102082EE111
:1045A00096C5F8F5140EF96F1E0EFA6FFB6B00013D
:1045B000E6EC0AF097C5F8F5280E0501F96F1E0E16
:1045C000FA6F010EFB6F0001E6EC0AF098C5F8F5F2
:1045D0003C0E0501F96F1E0EFA6FFB6B0001E6EC55
:1045E0000AF099C5F8F5500E0501F96F1E0EFA6F25
:1045F000FB6B0001E6EC0AF061D005016B5103088A
:104600002EE196C5F8F5140EF96F1E0EFA6FFB6BCE
:104610000001E6EC0AF097C5F8F5280E0501F96FE0
:104620001E0EFA6FFB6B0001E6EC0AF098C5F8F578
:104630003C0E0501F96F1E0EFA6F010EFB6F0001B3
:10464000E6EC0AF099C5F8F5500E0501F96F1E0E5B
:10465000FA6FFB6B0001E6EC0AF030D005016B51FC
:1046600004082DE196C5F8F5140EF96F1E0EFA6FC9
:10467000FB6B0001E6EC0AF097C5F8F5280E050182
:10468000F96F1E0EFA6FFB6B0001E6EC0AF098C59D
:10469000F8F53C0E0501F96F1E0EFA6FFB6B000179
:1046A000E6EC0AF099C5F8F5500E0501F96F1E0EFB
:1046B000FA6F010EFB6F0001E6EC0AF00501928A29
:1046C00080AA33D065B130D065811E0EFC6F000129
:1046D0007CEC06F0010E05016C6F6C51040824E3BC
:1046E0006C516B5D1FE1010E6C5D036A960FE96E04
:1046F000050E0320EA6EEF2A010E6C5D036A960F29
:10470000E96E050E0320EA6EEFBE0CD0EF500908EB
:1047100009E2010E6C5D036A960FE96E050E032037
:10472000EA6EEF6A6C2BD9D701D06591968084A090
:1047300032D065B52FD065851E0EFC6F00017CEC74
:1047400006F0010E05016C6F6C51040823E36C51F7
:104750006B5D1EE1010E6C5D036A960FE96E050E3E
:104760000320EA6EEF06010E6C5D036A960FE96E98
:10477000050E0320EA6EEFBE01D00AD0010E6C5D7B
:10478000036A960FE96E050E0320EA6E090EEF6EBE
:104790006C2BDAD701D06595968284A20FD065B3D1
:1047A0000CD06583020EF66F960EFC6F00017CEC58
:1047B00006F00501F62FF8D76B2B01D06593968490
:1047C00084A411D0040EF66FAF0EFC6F00017CECD8
:1047D00006F00501F62FF8D7010E6A6FF76B00019E
:1047E000B1EC06F005016B510408D8B0CFD0F76BDF
:1047F0000001B1EC06F005019A51965D67E19B510D
:10480000975D64E19C51985D61E19D51995D5EE128
:10481000F76B0001B1EC06F0050EEA6ED60EE96EFC
:10482000F2CFF6F5F29E000EBFEC03F00A0009008D
:10483000F550EE6E0009FBE10501F6BFF28E050EA4
:10484000F76FD60EF66F1E0EF86FF96BFA6B020E4D
:10485000FB6F0001CAEC09F0050EEA6ED60EE96E98
:10486000F2CFF6F5F29E000ECFEC03F00A0009003D
:10487000F550EE6E0009FBE10501F6BFF28E050E64
:10488000F76FD60EF66F0F0EF86F1E0EF96FFA6BFC
:10489000020EFB6F0001CAEC09F05B0E05016A6FA6
:1048A0000001DEEC06F0040E0501F66FFA0EFC6F57
:1048B00000017CEC06F00501F62FF8D7F76B00013C
:1048C000B1EC06F0010E05016B6F60D0F76B0001D3
:1048D000B1EC06F0050EEA6ED60EE96EF2CFF6F5F3
:1048E000F29E000EBFEC03F00A000900F550EE6ED8
:1048F0000009FBE10501F6BFF28E050EF76FD60E3B
:10490000F66F1E0EF86FF96BFA6B020EFB6F00016B
:10491000CAEC09F0050EEA6ED60EE96EF2CFF6F596
:10492000F29E000EE1EC03F00A000900F550EE6E75
:104930000009FBE10501F6BFF28E050EF76FD60EFA
:10494000F66FF86B1E0EF96FFA6B020EFB6F00012B
:10495000CAEC09F0010E05016A6F0001DEEC06F0F9
:10496000040E0501F66FFA0EFC6F00017CEC06F0F8
:104970000501F62FF8D7F76B0001B1EC06F0010E38
:1049800005016B6F966B976B986B996B6A515B081F
:10499000D8A4E1D1050EEA6ED60EE96EF2CFF6F597
:1049A000F29E000E0001B2EC04F00A000900F5507E
:1049B000EE6E0009FBE10501F6BFF28E050EF76F02
:1049C000D60EF66FF86BF96B010EFA6F020EFB6FE5
:1049D0000001CAEC09F005016B2D2ED09AC5F8F53F
:1049E000140EF96F1E0EFA6F010EFB6F0001E6EC5C
:1049F0000AF09BC5F8F5280E0501F96F1E0EFA6F37
:104A0000FB6B0001E6EC0AF09CC5F8F53C0E0501D5
:104A1000F96F1E0EFA6FFB6B0001E6EC0AF09DC504
:104A2000F8F5500E0501F96F1E0EFA6FFB6B0001D1
:104A3000E6EC0AF092D005016B5102082EE19AC50E
:104A4000F8F5140EF96F1E0EFA6FFB6B0001E6EC21
:104A50000AF09BC5F8F5280E0501F96F1E0EFA6FD6
:104A6000010EFB6F0001E6EC0AF09CC5F8F53C0E68
:104A70000501F96F1E0EFA6FFB6B0001E6EC0AF000
:104A80009DC5F8F5500E0501F96F1E0EFA6FFB6B10
:104A90000001E6EC0AF061D005016B5103082EE13C
:104AA0009AC5F8F5140EF96F1E0EFA6FFB6B000134
:104AB000E6EC0AF09BC5F8F5280E0501F96F1E0E0D
:104AC000FA6FFB6B0001E6EC0AF09CC5F8F53C0EB2
:104AD0000501F96F1E0EFA6F010EFB6F0001E6EC87
:104AE0000AF09DC5F8F5500E0501F96F1E0EFA6F1C
:104AF000FB6B0001E6EC0AF030D005016B510408B5
:104B00002DE19AC5F8F5140EF96F1E0EFA6FFB6BC6
:104B10000001E6EC0AF09BC5F8F5280E0501F96FD7
:104B20001E0EFA6FFB6B0001E6EC0AF09CC5F8F56F
:104B30003C0E0501F96F1E0EFA6FFB6B0001E6ECEF
:104B40000AF09DC5F8F5500E0501F96F1E0EFA6FBB
:104B5000010EFB6F0001E6EC0AF00501928A80AAC3
:104B600033D065B130D065811E0EFC6F00017CEC46
:104B700006F0010E05016C6F6C51040824E36C51C2
:104B80006B5D1FE1010E6C5D036A9A0FE96E050E05
:104B90000320EA6EEF2A010E6C5D036A9A0FE96E3C
:104BA000050E0320EA6EEFBE0CD0EF50090809E2B3
:104BB000010E6C5D036A9A0FE96E050E0320EA6E22
:104BC000EF6A6C2BD9D701D06591968084A032D042
:104BD00065B52FD065851E0EFC6F00017CEC06F0DC
:104BE000010E05016C6F6C51040823E36C516B5D81
:104BF0001EE1010E6C5D036A9A0FE96E050E03203B
:104C0000EA6EEF06010E6C5D036A9A0FE96E050EFF
:104C10000320EA6EEFBE01D00AD0010E6C5D036A7C
:104C20009A0FE96E050E0320EA6E090EEF6E6C2BEB
:104C3000DAD701D06595968284A20FD065B30CD0E7
:104C40006583020EF66F960EFC6F00017CEC06F099
:104C50000501F62FF8D76B2B01D06593968484A4B9
:104C600011D0040EF66FAF0EFC6F00017CEC06F065
:104C70000501F62FF8D7010E6A6FF76B0001B1EC52
:104C800006F005016B51040866E2010E716F6B6F4F
:104C90003C0EA96E9AC5A8FFA69CA69EA684F250BB
:104CA000006EF29E0F01550EA76EAA0EA76EA68289
:104CB000A6B2FED7A6940050F212460EA96E9BC56E
:104CC000A8FFA69CA69EA684F250006EF29E550EEA
:104CD000A76EAA0EA76EA682A6B2FED7A694005013
:104CE000F212500EA96E9CC5A8FFA69CA69EA68493
:104CF000F250006EF29E550EA76EAA0EA76EA68207
:104D0000A6B2FED7A6940050F2125A0EA96E9DC507
:104D1000A8FFA69CA69EA684F250006EF29E550E99
:104D2000A76EAA0EA76EA682A6B2FED7A6940050C2
:104D3000F212040E0501F66FFA0EFC6F00017CEC16
:104D400006F00501F62FF8D7F76B0001B1EC06F07D
:104D5000010E05016A6F6A511408D8A486EF2CF081
:104D6000050EF66F0001E0EF12F005016D53D8A4B7
:104D700040D181510308D8A03CD104E18051010801
:104D8000D8A037D1928880B834D1FD6B70C5FCF5BE
:104D900000014EEC0BF0D88203C0FEF502C0FDF519
:104DA00001C0FCF500C0FBF50601026B016B006B56
:104DB0007E0E0501FF6F000153EC0CF003C0F9F506
:104DC00002C0F8F501C0F7F500C0F6F5D5C5FDF550
:104DD000D4C5FCF5D3C5FBF5D2C5FAF53BEC13F011
:104DE00001E204E105016689010E696F0501FD6BB1
:104DF00070C5FCF500014EEC0BF0D88203C0FEF547
:104E000002C0FDF501C0FCF500C0FBF5CD0E0601AA
:104E1000026FCC0E016F4C0E006F7E0E0501FF6F0E
:104E2000000153EC0CF0D5C5F9F5D4C5F8F5D3C5A0
:104E3000F7F5D2C5F6F503C0FDF502C0FCF501C0DB
:104E4000FBF500C0FAF53BEC13F002E30501696BDA
:104E50000501FD6B70C5FCF500014EEC0BF0D8822E
:104E600003C0FEF502C0FDF501C0FCF500C0FBF576
:104E70009A0E0601026F990E016F190E006F7F0ED8
:104E80000501FF6F000153EC0CF0D5C5F9F5D4C551
:104E9000F8F5D3C5F7F5D2C5F6F503C0FDF502C0A8
:104EA000FCF501C0FBF500C0FAF53BEC13F002E3A2
:104EB000050166990501FD6B70C5FCF500014EEC1E
:104EC0000BF0D88203C0FEF502C0FDF501C0FCF571
:104ED00000C0FBF50601026B016B200E006F810E16
:104EE0000501FF6F000153EC0CF003C0F9F502C09F
:104EF000F8F501C0F7F500C0F6F5D5C5FDF5D4C548
:104F0000FCF5D3C5FBF5D2C5FAF53BEC13F001E295
:104F100039E10601086B370E096F7F0E0A6F3F0EED
:104F20000B6F010E0C6F0D6B000169EC09F0050EA3
:104F3000EA6ED60EE96EF2CFF6F5F29E000EC5ECE3
:104F400004F00A000900F550EE6E0009FBE10501CE
:104F5000F6BFF28E050EF76FD60EF66FF86B370EB2
:104F6000F96F020EFA6F010EFB6F0001CAEC09F037
:104F7000010E0501726F0001CDEC13F0050166957D
:104F800038D00001050166850601086B370E096FF0
:104F90007F0E0A6F3F0E0B6F010E0C6F0D6B000141
:104FA00069EC09F0050EEA6ED60EE96EF2CFF6F561
:104FB000F29E000EDCEC04F00A000900F550EE6EE3
:104FC0000009FBE10501F6BFF28E050EF76FD60E64
:104FD000F66FF86B370EF96F020EFA6F010EFB6F6A
:104FE0000001CAEC09F00501726B0001CDEC13F071
:104FF00005016D2D39D08151030836E303E180515D
:10500000010832E3928880B82FD06695050EEA6ECB
:10501000D60EE96EF2CFF6F5F29E000E0001F2EC2C
:1050200004F00A000900F550EE6E0009FBE10501ED
:10503000F6BFF28E050EF76FD60EF66FF86B370ED1
:10504000F96F020EFA6F010EFB6F0001CAEC09F056
:105050000501726B8B9094908B9494948B929492A4
:10506000B16BB06BAF6BAE6B815102084AE2FF0AC5
:1050700003E18051020845E2669565BF1ED06DC50B
:105080006EF56D6B0601086B370E096F7F0E0A6FA8
:105090003F0E0B6F010E0C6F0D6B000169EC09F0F8
:1050A0000501726B8B9094908B9494948B92949254
:1050B000B16BB06BAF6BAE6B658F050EEA6ED60E43
:1050C000E96EF2CFF6F5F29E000E000107EC05F056
:1050D0000A000900F550EE6E0009FBE10501F6BF7C
:1050E000F28E050EF76FD60EF66FF86B370EF96F6E
:1050F000020EFA6F010EFB6F0001CAEC09F016D028
:10510000050165AF12D06EC56DF50601086B370E4F
:10511000096F7F0E0A6F3F0E0B6F010E0C6F0D6B48
:10512000000169EC09F00501659F0001928880A8E3
:1051300045D00501669566B11ED06DC56EF56D6BE7
:105140000601086B370E096F7F0E0A6F3F0E0B6F5B
:10515000010E0C6F0D6B000169EC09F00501726B1B
:105160008B9094908B9494948B929492B16BB06B3F
:10517000AF6BAE6B6681050EEA6ED60EE96EF2CFAE
:10518000F6F5F29E000E00011FEC05F00A00090082
:10519000F550EE6E0009FBE10501F6BFF28E050E3B
:1051A000F76FD60EF66FF86B370EF96F020EFA6FC7
:1051B000010EFB6F0001CAEC09F016D0050166A1D3
:1051C00012D06EC56DF50601086B370E096F7F0EA4
:1051D0000A6F3F0E0B6F010E0C6F0D6B000169EC37
:1051E00009F0050166910001928A80AA1DD005018F
:1051F0006D5102081AE0020EF66FFA0EFC6F000104
:105200007CEC06F00501F62FF8D76D6B0601086BF4
:10521000370E096F7F0E0A6F3F0E0B6F010E0C6F7A
:105220000D6B000169EC09F00501968084A01ED089
:105230006D5102081BE0020EF66FFA0EFC6F0001C2
:105240007CEC06F00501F62FF8D7010E6D6F060114
:10525000086B370E096F7F0E0A6F3F0E0B6F010E42
:105260000C6F0D6B000169EC09F00501968284A2B8
:1052700007D0010EF66F00013AEC07F005016677E2
:1052800065A960D26599FE6BFD6B480EFC6F850EBB
:10529000FB6FADC502F6ACC501F6ABC500F6AAC5FD
:1052A000FFF5000194EC0BF000C0F6F501C0F7F536
:1052B00002C0F8F503C0F9F503C016F602C015F6F2
:1052C00001C014F600C013F6B1C51AF6B0C519F640
:1052D000AFC518F6AEC517F617EC0FF003C085F58D
:1052E00002C084F501C083F500C082F562C5F6F501
:1052F000A8EC0DF003C0D5F502C0D4F501C0D3F57C
:1053000000C0D2F5030E0501F76F000169EC0BF048
:1053100003C0F9F502C0F8F501C0F7F500C0F6F5D5
:10532000AFEC13F002C081F501C080F5D5C5F9F5E9
:10533000D4C5F8F5D3C5F7F5D2C5F6F50F0E0501BE
:10534000FA6F1D0EFB6F020EFC6F00019AEF16F054
:105350004A0E0501F66F1E0EF76F020EF86FF96B1D
:10536000010EFA6F0001BAEC0FF0050EEA6ED60ED0
:10537000E96EF2CFF6F5F29E000E84EC04F00A001E
:105380000900F550EE6E0009FBE10501F6BFF28E53
:10539000050EF76FD60EF66F4B0EF86F1E0EF96FF7
:1053A000020EFA6FFB6F0001CAEC09F070C5F7F549
:1053B0001E0E0501F86F2D0EF96F030EFA6F010E28
:1053C000FB6F0001E2EC11F0320E0501F66F2F0EBB
:1053D000F76F010EF86FF96BFA6F0001BAEC0FF07E
:1053E000050EEA6ED60EE96EF2CFF6F5F29E000ECD
:1053F00084EC04F00A000900F550EE6E0009FBE1B0
:105400000501F6BFF28E050EF76FD60EF66F350E5C
:10541000F86F2D0EF96F020EFA6F010EFB6F00018F
:10542000CAEC09F0050EEA6ED60EE96EF2CFF6F57B
:10543000F29E000E35EC05F00A000900F550EE6E04
:105440000009FBE10501F6BFF28E050EF76FD60EDF
:10545000F66FF86B2D0EF96F020EFA6F010EFB6FEF
:105460000001CAEC09F085C5F9F584C5F8F583C5D6
:10547000F7F582C5F6F5AFEC13F001C0F6F501C003
:10548000F7F5610E0501F86F2A0EF96F030EFA6F3A
:10549000010EFB6F0001E2EC11F0050EEA6ED60E74
:1054A000E96EF2CFF6F5F29E000E45EC05F00A002B
:1054B0000900F550EE6E0009FBE10501F6BFF28E22
:1054C000050EF76FD60EF66F730EF86F2A0EF96F92
:1054D000020EFA6F010EFB6F0001CAEC09F0050124
:1054E00066A71CD0C5C5F9F5C4C5F8F5C3C5F7F561
:1054F000C2C5F6F50001AFEC13F001C0F6F501C02E
:10550000F7F5610E0501F86F0D0EF96F030EFA6FD6
:10551000010EFB6F0001E2EC11F00FD0610E0601ED
:10552000086F0D0E096F730E0A6F120E0B6F010ECE
:105530000C6F0D6B000169EC09F091C5F7F5140EC5
:105540000501F86F020EF96FFA6BFB6F0001E2ECD8
:1055500011F090C5F7F5210E0501F86F020EF96FF5
:10556000FA6BFB6F0001E2EC11F0050EEA6ED60E4D
:10557000E96EF2CFF6F5F29E000EA4EC04F00A00FC
:105580000900F550EE6E0009FBE10501F6BFF28E51
:10559000050EF76FD60EF66F2E0EF86F020EF96F2E
:1055A000FA6FFB6F0001CAEC09F08FC5F7F5370EF3
:1055B0000501F86F020EF96FFA6BFB6F0001E2EC68
:1055C00011F08EC5F7F5440E0501F86F020EF96F64
:1055D000FA6BFB6F0001E2EC11F0050EEA6ED60EDD
:1055E000E96EF2CFF6F5F29E000E53EC05F00A00DC
:1055F0000900F550EE6E0009FBE10501F6BFF28EE1
:10560000050EF76FD60EF66FF86B120EF96F020EDD
:10561000FA6F010EFB6F0001CAEC09F095C5F7F5B2
:105620001E0E0501F86F120EF96FFA6B010EFB6F7B
:105630000001E2EC11F094C5F7F5240E0501F86FB6
:10564000120EF96FFA6B010EFB6F0001E2EC11F024
:10565000050EEA6ED60EE96EF2CFF6F5F29E000E5A
:10566000A4EC04F00A000900F550EE6E0009FBE11D
:105670000501F6BFF28E050EF76FD60EF66F2A0EF5
:10568000F86F120EF96F020EFA6F010EFB6F000138
:10569000CAEC09F093C5F7F5300E0501F86F120E4C
:1056A000F96FFA6B010EFB6F0001E2EC11F092C58D
:1056B000F7F5360E0501F86F120EF96FFA6B010E51
:1056C000FB6F0001E2EC11F0050EEA6ED60EE96EFA
:1056D000F2CFF6F5F29E000E63EC05F00A00090029
:1056E000F550EE6E0009FBE10501F6BFF28E050EE6
:1056F000F76FD60EF66F3C0EF86F120EF96F020EB2
:10570000FA6F010EFB6F0001CAEC09F00601086B8D
:10571000096B590E0A6F1B0E0B6F0C6B010E0D6F90
:10572000000169EC09F00601086B1B0E096F590EA8
:105730000A6F360E0B6F0C6B010E0D6F000169ECDA
:1057400009F005019251800A006E8E51800A005CBA
:1057500001E052E29351800A006E8F51800A005C92
:1057600001E04AE29451800A006E9051800A005C88
:1057700001E042E29551800A006E9151800A005C7E
:1057800001E03AE2722D38D065BD13D0F76B00010D
:10579000B1EC06F00501726B020E6D6F658D8B909A
:1057A00094908B9494948B929492B16BB06BAF6BFA
:1057B000AE6B050EEA6ED60EE96EF2CFF6F5F29EEE
:1057C000000E000173EC05F00A000900F550EE6EC2
:1057D0000009FBE10501F6BFF28E050EF76FD60E4C
:1057E000F66FF86B370EF96F020EFA6F010EFB6F52
:1057F0000001CAEC09F005017D511B0849E2FF0ACE
:1058000003E17C51200844E2725342E166B31DD0AB
:105810000601086B370E096F7F0E0A6F3F0E0B6F84
:10582000010E0C6F0D6B000169EC09F00501726B44
:10583000020E6D6F66838B9094908B9494948B92F0
:105840009492B16BB06BAF6BAE6B050EEA6ED60E79
:10585000E96EF2CFF6F5F29E000E000189EC05F03C
:105860000A000900F550EE6E0009FBE10501F6BFE4
:10587000F28E050EF76FD60EF66FF86B370EF96FD6
:10588000020EFA6F010EFB6F0001CAEC09F0050170
:105890007B5303E17A513B081EE27B6B7A6B8E2BC4
:1058A0008EBF05D08E51090802E28E6B8F2B8FBF01
:1058B00005D08F51050802E28F6B902B90BF05D069
:1058C0009051090802E2906B912B91BF04D0915145
:1058D000090801E2916B968484A418D06D510208E6
:1058E00015E0020EF66FFA0EFC6F00017CEC06F07C
:1058F0000501F62FF8D71E0E6A6FF76B0001B1ECA9
:1059000006F0010E0501716F65876D6F6A511E0803
:10591000D8A40AD1050EEA6ED60EE96EF2CFF6F5DE
:10592000F29E000E00019FEC05F00A000900F55000
:10593000EE6E0009FBE10501F6BFF28E050EF76F72
:10594000D60EF66FF86BF96B010EFA6F020EFB6F55
:105950000001CAEC09F005017151020845E1050E8C
:10596000EA6ED60EE96EF2CFF6F5F29E000E000159
:1059700066EC04F00A000900F550EE6E0009FBE148
:105980000501F6BFF28E050EF76FD60EF66F320EDA
:10599000F86F190EF96F010EFA6F020EFB6F00011E
:1059A000CAEC09F0050EEA6ED60EE96EF2CFF6F5F6
:1059B000F29E000E75EC04F00A000900F550EE6E40
:1059C0000009FBE10501F6BFF28E050EF76FD60E5A
:1059D000F66F320EF86F2D0EF96FFA6B020EFB6F39
:1059E0000001CAEC09F00501712D45D0050EEA6EE3
:1059F000D60EE96EF2CFF6F5F29E000E000166ECCF
:105A000004F00A000900F550EE6E0009FBE1050103
:105A1000F6BFF28E050EF76FD60EF66F320EF86FE8
:105A2000190EF96FFA6B020EFB6F0001CAEC09F058
:105A3000050EEA6ED60EE96EF2CFF6F5F29E000E76
:105A400075EC04F00A000900F550EE6E0009FBE168
:105A50000501F6BFF28E050EF76FD60EF66F320E09
:105A6000F86F2D0EF96F010EFA6F020EFB6F000139
:105A7000CAEC09F00501928A80AA05D0715101088B
:105A800001E3712B6587968084A005D071510108D0
:105A900001E271076587968284A22FD071510208B6
:105AA00018E1010E6A6FF76B0001B1EC06F0050119
:105AB0008E6B8F6B906B916B8B9094908B94949476
:105AC0008B929492B16BB06BAF6BAE6B010E716F3A
:105AD00014D0040EF66FAF0EFC6F00017CEC06F0E4
