:0400000063EF37F083
:0800080057EF00F000000000BA
:100010000000000000000000046ED8CF05F0E0CF23
:1000200006F00001E9CF0CF0EACF07F0E1CF08F0CD
:10003000E2CF09F0D9CF0AF0DACF0BF0F3CF12F00C
:10004000F4CF13F0FACF14F0FBCF15F000C00EF090
:1000500001C00FF002C010F003C011F09DA034EFFA
:1000600000F09EB016EF09F00EC000F00FC001F0D6
:1000700010C002F011C003F00CC0E9FF07C0EAFF96
:10008000078E08C0E1FF09C0E2FF0AC0D9FF0BC01C
:10009000DAFF12C0F3FF13C0F4FF14C0FAFF15C05B
:1000A000FBFF045006C0E0FF05C0D8FF1000176E2C
:1000B000D8CF18F0E0CF19F00001E9CF1FF0EACF58
:1000C0001AF0E1CF1BF0E2CF1CF0D9CF1DF0DACF50
:1000D0001EF0F3CF25F0F4CF26F0FACF27F0FBCFB8
:1000E00028F000C021F001C022F002C023F003C0BC
:1000F00024F0F2AA7FEF00F0F2B4FFEF08F0F2A8CC
:1001000085EF00F0F2B2A9EF08F021C000F022C0A4
:1001100001F023C002F024C003F01FC0E9FF1AC0A1
:10012000EAFF1A8E1BC0E1FF1CC0E2FF1DC0D9FF11
:100130001EC0DAFF25C0F3FF26C0F4FF27C0FAFF78
:1001400028C0FBFF175019C0E0FF18C0D8FF1000EF
:10015000F2CF0DF0F29CF29EF76A740FF66E010E6C
:10016000F722000EF86E0900F5500DBCF28C0DBEA2
:10017000F28E1200000000000000005F000000038B
:10018000000300143E143E14242A7F2A124333082D
:10019000666136495522500005030000001C2241CB
:1001A000000041221C0014083E081408083E0808FC
:1001B00000503000000808080808006060000020B7
:1001C000100804023E5149453E0004027F0042618E
:1001D00051494622414949361814127F1027454596
:1001E00045393E49494932010171090736494949B2
:1001F00036264949493E0036360000005636000092
:10020000081422410014141414140041221408028A
:10021000015109063E4159555E7E0909097E7F4913
:100220004949363E414141227F4141413E7F494952
:1002300049417F090909013E4141493A7F080808BF
:100240007F00417F4100304040403F7F0814224101
:100250007F404040407F020C027F7F0204087F3EC7
:100260004141413E7F090909061E2121215E7F0986
:1002700009097600F2CF0DF0F29CF29EF76A980F12
:10028000F66E020EF722000EF86E0900F5500DBC56
:10029000F28C0DBEF28E1200264949493201017FCF
:1002A00001013F4040403F1F2040201F7F20102081
:1002B0007F41221C224107087008076151494543CC
:1002C000007F41000002040810200000417F00046C
:1002D000020102044040404040000102040020545A
:1002E0005454787F44444438384444444438444463
:1002F000447F385454541804047E0505085454545B
:100300003C7F0804047800447D40002040443D00C8
:100310007F1028440000417F40007C047804787CF2
:100320000804047838444444387C1414140808142D
:1003300014147C007C080404485454542004043FE2
:1003400044443C4040207C1C2040201C3C40304029
:100350003C44281028440C5050503C4464544C44B5
:10036000000836414100007F00004141360800028C
:1003700001020402F2CF0DF0F29CF29E960FF66E8F
:10038000030EF722000EF86E0900F5500DBCF28C3A
:100390000DBEF28E12000000000000000000000000
:1003A000001FFFFFFFFE0000000000000000000033
:1003B000001FFFFFFFFE01C0000000000000000062
:1003C000001C0000000E07F000000000000000000C
:1003D000001C0000000E1C9C00000000000000003B
:1003E000001C7F00000E180C000000000000000040
:1003F000001C4100000E30860000000000000000DC
:10040000001C4100000E20820000000000000000DF
:10041000001C4102000E608300000000000000008C
:10042000001C7F05000E7087000000000000000027
:10043000001C0002000E60C300000000000000006D
:10044000001C0000000E2062000000000000000000
:10045000001C0000000E302600000000000000001C
:10046000001FFFFFFFFE180C00000000000000004E
:10047000001C0000000E1C9C00000000000000009A
:10048000001C0000000E07F000000000000000004B
:10049000001C0000000E01C0000000000000000071
:1004A000001C0000000E0000000000000000000022
:1004B000001C0000000E0000000000000000000012
:1004C000001C0000000E0000000000000000000002
:1004D000001C0000000E00000000000000000000F2
:1004E000001C0000000E00000000000000000000E2
:1004F000001C001E000E00000000000000000000B4
:10050000001C00E1C00E0000000000000000000020
:10051000001C0180600E00000000000000000000D0
:10052000001C0278100E0000000000000000000017
:10053000001C067C180E00000000000000000000F7
:10054000001C047C080E00000000000000000000F9
:10055000001C083C040E0000000000000000000029
:10056000001C0810040E01800000000000000000C4
:10057000001C080CE40E0240000000000000000017
:10058000001C082DF40E02700000000000000000A6
:10059000001C0863F40E0240000000000000000090
:1005A000001C08F1E40E03C0000000000000000081
:1005B000001C04F0080E03F0000000000000000022
:1005C000001C04F0080E03C0000000000000000042
:1005D000001C0270100E03C00000000000000000AC
:1005E000001C0300300E07E00000000000000000C7
:1005F000001C00C0C00E0FF0000000000000000052
:10060000001C007F800E0BF00000000000000000C6
:10061000001C0000000E0BF00000000000000000B5
:10062000001C0000000E0FF00000000000000000A1
:10063000001C0000000E0FF0000000000000000091
:10064000001C0000000E07E0000000000000000099
:10065000001C0000000E03C00000000000000000AD
:10066000001C0000000E0000000000000000000060
:10067000001C0000000E0000000000000000000050
:10068000001C0000000E0000000000000000000040
:10069000001C0000000E0000000000000000000030
:1006A000001C0000000E0000000000000000000020
:1006B000001C0000000E0000000000000000000010
:1006C000001C0000000E0000000000000000000000
:1006D000001C0000000E00000000000000000000F0
:1006E000001FFFFFFFFE00000000000000000000F0
:1006F000001FFFFFFFFE00000000000000000000E0
:10070000001FFFFFFFFE00000000000000000000CF
:1007100000000000000000000000000000000000D9
:1007200000000000000000000000000000000000C9
:1007300000000000000000000000000000000000B9
:1007400000000000000000000000000000000000A9
:100750000000000000000000000000000000000099
:100760000000000000000000000000000000000089
:100770000000000000000000000000000000000079
:100780000000000000000000000000000000000069
:10079000000000000000F2CF0DF0F29CF29EF76A1C
:1007A000BA0FF66E070EF722000EF86E0900F5502C
:1007B0000DBCF28C0DBEF28E12004300F2CF0DF094
:1007C000F29CF29EF76AE00FF66E070EF722000E1B
:1007D000F86E0900F5500DBCF28C0DBEF28E1200C1
:1007E00056616C6F7200F2CF0DF0F29CF29EF76AC8
:1007F0000A0FF66E080EF722000EF86E0900F5508B
:100800000DBCF28C0DBEF28E120020416C6D616346
:10081000656E61646F00F2CF0DF0F29CF29EF76A94
:100820003A0FF66E080EF722000EF86E0900F5502A
:100830000DBCF28C0DBEF28E12004A5020496E673C
:100840006C6F62616C00F2CF0DF0F29CF29EF76A61
:100850006A0FF66E080EF722000EF86E0900F550CA
:100860000DBCF28C0DBEF28E1200202020496E636A
:10087000756261646F726100F2CF0DF0F29CF29EBE
:10088000F76A9C0FF66E080EF722000EF86E09004C
:10089000F5500DBCF28C0DBEF28E120020202020EF
:1008A000204469676974616C20200000F2CF0DF06C
:1008B000F29CF29EF76AD00FF66E080EF722000E39
:1008C000F86E0900F5500DBCF28C0DBEF28E1200D0
:1008D0002020203636204C747300F2CF0DF0F29CAD
:1008E000F29EF76AFE0FF66E080EF722000EF86E03
:1008F0000900F5500DBCF28C0DBEF28E1200436C57
:1009000061766500F2CF0DF0F29CF29EF76A280F37
:10091000F66E090EF722000EF86E0900F5500DBCB8
:10092000F28C0DBEF28E1200436C617665204E751E
:1009300065766100F2CF0DF0F29CF29EF76A580FD7
:10094000F66E090EF722000EF86E0900F5500DBC88
:10095000F28C0DBEF28E1200436F72726563746189
:100960000000F2CF0DF0F29CF29EF76A860FF66E51
:10097000090EF722000EF86E0900F5500DBCF28C3E
:100980000DBEF28E1200496E636F72726563746100
:100990000000F2CF0DF0F29CF29EF76AB60FF66EF1
:1009A000090EF722000EF86E0900F5500DBCF28C0E
:1009B0000DBEF28E120043617267616E646F2E2E5F
:1009C0000000F2CF0DF0F29CF29EF76AE60FF66E91
:1009D000090EF722000EF86E0900F5500DBCF28CDE
:1009E0000DBEF28E12004D656E750000F2CF0DF057
:1009F000F29CF29EF76A100FF66E0A0EF722000EB6
:100A0000F86E0900F5500DBCF28C0DBEF28E12008E
:100A1000496E69636961722050726F6365736F001C
:100A2000F2CF0DF0F29CF29EF76A440FF66E0A0EBA
:100A3000F722000EF86E0900F5500DBCF28C0DBEC9
:100A4000F28E120053656C656363696F6E205465A6
:100A50006D706572617475726100F2CF0DF0F29C79
:100A6000F29EF76A7E0FF66E0A0EF722000EF86EFF
:100A70000900F5500DBCF28C0DBEF28E12005465CB
:100A80006D706F72697A61646F720000F2CF0DF061
:100A9000F29CF29EF76AB00FF66E0A0EF722000E75
:100AA000F86E0900F5500DBCF28C0DBEF28E1200EE
:100AB00043616D62696F20436C6176650000F2CF1F
:100AC0000DF0F29CF29EF76AE20FF66E0A0EF72224
:100AD000000EF86E0900F5500DBCF28C0DBEF28EC2
:100AE000120056656C6F6369646164202020000009
:100AF000F2CF0DF0F29CF29EF76A140FF66E0B0E19
:100B0000F722000EF86E0900F5500DBCF28C0DBEF8
:100B1000F28E1200202020202020202020202020C3
:100B200020200000F2CF0DF0F29CF29EF76A480FF1
:100B3000F66E0B0EF722000EF86E0900F5500DBC94
:100B4000F28C0DBEF28E120053656C656363696FA3
:100B50006E650000F2CF0DF0F29CF29EF76A780FFE
:100B6000F66E0B0EF722000EF86E0900F5500DBC64
:100B7000F28C0DBEF28E120054656D706572617458
:100B800075726100F2CF0DF0F29CF29EF76AA80F29
:100B9000F66E0B0EF722000EF86E0900F5500DBC34
:100BA000F28C0DBEF28E120054656D706572617428
:100BB00075726120313A0000F2CF0DF0F29CF29E86
:100BC000F76ADC0FF66E0B0EF722000EF86E0900C6
:100BD000F5500DBCF28C0DBEF28E120054656D7096
:100BE0006572617475726120323A0000F2CF0DF0C7
:100BF000F29CF29EF76A100FF66E0C0EF722000EB2
:100C0000F86E0900F5500DBCF28C0DBEF28E12008C
:100C100054656D706572617475726120333A0000BD
:100C2000F2CF0DF0F29CF29EF76A440FF66E0C0EB6
:100C3000F722000EF86E0900F5500DBCF28C0DBEC7
:100C4000F28E12005469656D706F0000F2CF0DF0E6
:100C5000F29CF29EF76A700FF66E0C0EF722000EF1
:100C6000F86E0900F5500DBCF28C0DBEF28E12002C
:100C70003A00F2CF0DF0F29CF29EF76A960FF66EF4
:100C80000C0EF722000EF86E0900F5500DBCF28C28
:100C90000DBEF28E120056656C6F6369646164006C
:100CA000F2CF0DF0F29CF29EF76AC40FF66E0C0EB6
:100CB000F722000EF86E0900F5500DBCF28C0DBE47
:100CC000F28E12002500F2CF0DF0F29CF29EF76A30
:100CD000EA0FF66E0C0EF722000EF86E0900F550C2
:100CE0000DBCF28C0DBEF28E1200537461747573DC
:100CF0003A436F6E74726F6C616E646F2000F2CF56
:100D00000DF0F29CF29EF76A220FF66E0D0EF7229E
:100D1000000EF86E0900F5500DBCF28C0DBEF28E7F
:100D200012005374617475733A43616C656E74613B
:100D30006E646F200000F2CF0DF0F29CF29EF76A15
:100D40005A0FF66E0D0EF722000EF86E0900F550E0
:100D50000DBCF28C0DBEF28E12005374617475736B
:100D60003A50756572746120416269657274610000
:100D7000F2CF0DF0F29CF29EF76A940FF66E0D0E14
:100D8000F722000EF86E0900F5500DBCF28C0DBE76
:100D9000F28E12005374617475733A416C61726D16
:100DA000612030310000F2CF0DF0F29CF29EF76A24
:100DB000CA0FF66E0D0EF722000EF86E0900F55000
:100DC0000DBCF28C0DBEF28E12002D2D2D2D2D009E
:100DD000F2CF0DF0F29CF29EF76AF40FF66E0D0E54
:100DE000F722000EF86E0900F5500DBCF28C0DBE16
:100DF000F28E120054656D703A00F2CF0DF0F29C45
:100E0000F29EF76A1E0FF66E0E0EF722000EF86EB7
:100E10000900F5500DBCF28C0DBEF28E1200546923
:100E20006D653A00F2CF0DF0F29CF29EF76A480F22
:100E3000F66E0E0EF722000EF86E0900F5500DBC8E
:100E4000F28C0DBEF28E120028483A4D2900F2CFE6
:100E50000DF0F29CF29EF76A720FF66E0E0EF722FC
:100E6000000EF86E0900F5500DBCF28C0DBEF28E2E
:100E700012005374617475733A46696E616C697AD5
:100E800061646F00F2CF0DF0F29CF29EF76AA80F3A
:100E9000F66E0E0EF722000EF86E0900F5500DBC2E
:100EA000F28C0DBEF28E120050726F706F72636919
:100EB0006F6E616C0000F2CF0DF0F29CF29EF76A4B
:100EC000DA0FF66E0E0EF722000EF86E0900F550DE
:100ED0000DBCF28C0DBEF28E1200496E7465677205
:100EE000616C0000F2CF0DF0F29CF29EF76A080FE1
:100EF000F66E0F0EF722000EF86E0900F5500DBCCD
:100F0000F28C0DBEF28E12004465726976617469CE
:100F1000766F0000F2CF0DF0F29CF29EF76A380F68
:100F2000F66E0F0EF722000EF86E0900F5500DBC9C
:100F3000F28C0DBEF28E1200546369636C6F000078
:100F4000F2CF0DF0F29CF29EF76A640FF66E0F0E70
:100F5000F722000EF86E0900F5500DBCF28C0DBEA4
:100F6000F28E1200416A75737465202B0000F2CF77
:100F70000DF0F29CF29EF76A920FF66E0F0EF722BA
:100F8000000EF86E0900F5500DBCF28C0DBEF28E0D
:100F90001200416A75737465202D0000F2CF0DF0C8
:100FA000F29CF29EF76AC00FF66E0F0EF722000E4B
:100FB000F86E0900F5500DBCF28C0DBEF28E1200D9
:100FC0004D65646961204D6F76696C00F2CF0DF05C
:100FD000F29CF29EF76AF00FF66E0F0EF722000EEB
:100FE000F86E0900F5500DBCF28C0DBEF28E1200A9
:100FF00047616E616E636961202020200000F2CF9E
:101000000DF0F29CF29EF76A220FF66E100EF72298
:10101000000EF86E0900F5500DBCF28C0DBEF28E7C
:10102000120020202020202020202020202000002E
:10103000F2CF0DF0F29CF29EF76A540FF66E100E8E
:10104000F722000EF86E0900F5500DBCF28C0DBEB3
:10105000F28E12005000F2CF0DF0F29CF29EF76A71
:101060007A0FF66E100EF722000EF86E0900F5509A
:101070000DBCF28C0DBEF28E12004900F2CF0DF0C5
:10108000F29CF29EF76AA00FF66E100EF722000E89
:10109000F86E0900F5500DBCF28C0DBEF28E1200F8
:1010A0004400F2CF0DF0F29CF29EF76AC60FF66E86
:1010B000100EF722000EF86E0900F5500DBCF28CF0
:1010C0000DBEF28E1200416A757374650000F2CF96
:1010D0000DF0F29CF29EF76AF20FF66E100EF722F8
:1010E000000EF86E0900F5500DBCF28C0DBEF28EAC
:1010F0001200416A757374656E00F2CF0DF0F29CB8
:10110000F29EF76A1E0FF66E110EF722000EF86EB1
:101110000900F5500DBCF28C0DBEF28E12004D652B
:1011200064696100F2CF0DF0F29CF29EF76A480FFD
:10113000F66E110EF722000EF86E0900F5500DBC88
:10114000F28C0DBEF28E120047616E616E636961B2
:1011500000000501A08BB351090806E1D76ABE0E55
:10116000D66E8B90949046D0B351080806E1D76AAA
:10117000B40ED66E8B9094903DD0B351070806E123
:10118000D76AAF0ED66E8B90949034D0B3510608C8
:1011900006E1D76AAC0ED66E8B9094902BD0B351EB
:1011A000050806E1D76AA90ED66E8B90949022D0DE
:1011B000B351040806E1D76AA60ED66E8B909490C0
:1011C00019D0B351030806E1D76AA30ED66E8B90EF
:1011D000949010D0B351020806E1D76AA00ED66EE3
:1011E0008B90949007D0B32D05D0D76A9E0ED66E03
:1011F0008B909490BC2BF292000185EF00F00501DA
:10120000B35310E0B35109080DE3A0AB07D08B80B6
:101210009490D76AFD0ED66EA09B04D08B909490CC
:10122000D76AD66AF294000185EF00F09E0ECF6E69
:10123000580ECE6E0501C32BD8B4C42BC52BD8B421
:10124000C62BC72BD8B4C82B968484B404D0DB2B10
:10125000D8B4DC2B02D0DC6BDB6BB3510A0804E1A1
:101260008B809490D76AD66AB35304E18B909490A4
:10127000D76AD66AC65303E1C551C70804E2010E16
:10128000A86FC66BC56BA92D21D0C851D05D11E3E5
:1012900003E1CF51C75D0DE2B351050805E28B8430
:1012A00094948B92949204D08B8294928B94949485
:1012B00004D08B9494948B929492D251C85D06E39F
:1012C00003E1D151C75D02E3C86BC76BC45303E1AF
:1012D000C351C70827E2C46BC36BAD87B12BD32BB7
:1012E000D8B4D42BA62BA0A501D0BA2BA0A701D08F
:1012F000BB2BAEA103D0D52BD8B4D62BAEAD03D02B
:10130000CD2BD8B4CE2BBE2D03D0C92BD8B4CA2B2D
:10131000AEA903D0CB2BD8B4CC2BAFA103D0D72B05
:10132000D8B4D82B9E90000134EF00F0060EEA6E80
:10133000A10EE96EEF500DE0060E016E006A002E60
:10134000FED7012EFBD77B0E006E002EFED7EF2EB0
:10135000F3D7000C040E0601986FFA0EA16F00017E
:10136000E5DF0601982FF9D7F288F18CC70ED56E0C
:10137000F28A850ECD6E9D80C150C00B0E09C16EE4
:10138000C050C00B0609C06EC08EC280D76AD66A34
:10139000C00EF2120001F6EF39F08E0E006EA5C6F7
:1013A00001F0A4C602F0036A015209E102C001F093
:1013B000026A080E005E015202E1006A08D0D8906D
:1013C00001BE04D0023601360006F9D7019E000C9A
:1013D00006019951D8B4A5D0A56F9D51D8B4A1D01C
:1013E000A55F05E37F0EA527D8B09BD006D0810E60
:1013F000A55FD8A096D0D8B494D0A5C600F0016A55
:10140000026A036AA46B9AC6A3F6A38F9BC6A2F6D0
:101410009CC6A1F6190EA56FA051A15F0DE2010EA9
:10142000A25F0AE2A35F08E2A45F06E2A42BA32B5B
:10143000A22BA051A12728D09F51A25F12E2010E3A
:10144000A35F0FE2A45F0DE2A42BA32B9F51A22761
:10145000A051A12719E3A22B17E1A32B15E1A42B7F
:1014600013D09E518009A35F0EE2010EA45F0BE230
:10147000A42B9E518009A3279F51A227E9E3A32B08
:10148000E7E1A42BE5D70380A52F01D00BD0D8909E
:10149000A137A237A337A437D890033602360136D6
:1014A000A637BAD7A6A106D0D890013202320332AD
:1014B000A63302D0000635E0A6BF1ED0D890A137D3
:1014C000A237A337A437A051A15F07E2010EA25FA4
:1014D00004E2A35F02E2A45F1AE39F51A25F05E268
:1014E000010EA35F02E2A45F12E39E518009A35F95
:1014F00003E2010EA45F0BE3032A09E1022A07E1DC
:10150000012A05E1002A0DE00132023203329AC6B7
:10151000A5F69E51A51BA5AF02D0018E06D0019E57
:1015200004D0006A016A026A036A0001000C800E9E
:10153000D8A202D00601A91B0601AE6BAF6BA5C6EF
:10154000ADF6A951AD1BA451D8B4DFD0AC6F006E7D
:10155000A851D8B4E3D0AC5FD8B483D03EE3A9C6D9
:10156000B2F6B28FAAC6B1F6ABC6B0F6AF6BD890E2
:10157000B233B133B033AF33AC2FF8D7ADAF03D004
:10158000AE81E0D0AE91AC91AE89060EEA6EA70EA8
:10159000E96EEBD0AE99ADBF0AD0ACA113D0B23397
:1015A000B133B033AF33002AD8B4C7D00BD0B2BFF9
:1015B0000CD0D890AF37B037B137B2370006D8B4B7
:1015C000BCD0F5D7AE8D6DD0AE9DA5C6ADF6A5AF9E
:1015D00002D0B28FABD0B29FA9D0A8C6ACF6A8C635
:1015E00000F0A451AC5FA5C6B2F6B28FA6C6B1F6A4
:1015F000A7C6B0F6AF6BD890B233B133B033AF33C8
:10160000AC2FF8D7ADAF03D0AE839CD0AE93AC91E6
:10161000AE8B060EEA6EAB0EE96EA7D0AE9BADBFE9
:101620000AD0ACA113D0B233B133B033AF33002AF8
:10163000D8B483D00BD0B2BF0CD0D890AF37B0376E
:10164000B137B2370006D8B478D0F5D7AE8F29D0ED
:10165000AE9FA9C6ADF6A9AF02D0B28F67D0B29F38
:1016600065D0A9C6B2F6B28FAAC6B1F6ABC6B0F6BF
:10167000ADAF04D0B29FAE8565D0AE95AF6BAC91E7
:10168000060EEA6EA70EE96E70D0ADBF1CD0A5C6DF
:10169000ADF6ACA106D0B233B133B033AF33002ACC
:1016A0004CE0AFAF0BD0B02B09E1B12B07E1B22B6F
:1016B00005E1B233B133B033002A3FE0AEBD84D789
:1016C000AEBFC6D71CD0800EB21BB2AF04D03AD08A
:1016D000A9C6ADF60AD0A5C6ADF6B25306E1B15320
:1016E00004E1B05302E1006A21D0B2BF08D0D89023
:1016F000AF37B037B137B237002EF7D71ED0ADAF06
:1017000002D0B28F13D0B29F11D0A8C600F0A9C6E4
:10171000B2F6AAC6B1F6ABC6B0F608D0A4C600F0C1
:10172000A5C6B2F6A6C6B1F6A7C6B0F6B2C601F017
:10173000B1C602F0B0C603F034D0006A016A026A92
:10174000036A2FD0AF6BB01FB11FB21FAF1FAF2BFB
:1017500005E1B02B03E1B12B01E1B22BAEB112D701
:10176000AEB354D7AEB589D7B3D7EF50B02705E3A2
:10177000B12B03E1B22BD8B4AC81ED52EF50B127BD
:1017800003E3B22BD8B4AC81ED52EF50EFBE01D0E1
:10179000800AB227D8B0AC81AEB9FCD6AEBB3ED77A
:1017A00074D70001000CF2CF98F6F29CF29EAA6A60
:1017B000A96AA69CA69EA680A850060198BDF28C98
:1017C00098BFF28E016F140EA16F0001AFDDF2CF52
:1017D00098F6F29CF29EAA6A010EA96EA69CA69E9D
:1017E000A680A850060198BDF28C98BFF28E026FB9
:1017F000140EA16F00019ADDF2CF98F6F29CF29ED2
:10180000AA6A020EA96EA69CA69EA680A8500601F2
:1018100098BDF28C98BFF28E036F140EA16F000179
:1018200085DDF2CF98F6F29CF29EAA6A030EA96EAD
:10183000A69CA69EA680A850060198BDF28C98BFD3
:10184000F28E046F140EA16F000170DDF2CF98F6D6
:10185000F29CF29EAA6A040EA96EA69CA69EA68081
:10186000A850060198BDF28C98BFF28E096F140E35
:10187000A16F00015BDDF2CF98F6F29CF29EAA6A9E
:10188000050EA96EA69CA69EA680A850060198BD2E
:10189000F28C98BFF28E0A6F140EA16F000146DD24
:1018A000F2CF98F6F29CF29EAA6A060EA96EA69C4A
:1018B000A69EA680A850060198BDF28C98BFF28E15
:1018C0000B6F140EA16F000131DDF2CF98F6F29C80
:1018D000F29EAA6A070EA96EA69CA69EA680A85094
:1018E000060198BDF28C98BFF28E0C6F140EA16F9A
:1018F00000011CDDF2CF98F6F29CF29EAA6A080E57
:10190000A96EA69CA69EA680A850060198BDF28C42
:1019100098BFF28E0501C16F140E0601A16F000180
:1019200005DDF2CF98F6F29CF29EAA6A090EA96E26
:10193000A69CA69EA680A850060198BDF28C98BFD2
:10194000F28EA56BA46F000128DD03C060F602C013
:101950005FF601C05EF600C05DF660C69CF65FC62D
:101960009BF65EC69AF65DC699F60601A06B9F6B64
:10197000200E9E6F820E9D6F00012ADD03C060F66F
:1019800002C05FF601C05EF600C05DF60601A56B01
:10199000C1C5A4F6000101DDD89203C0A7F602C0BC
:1019A000A6F601C0A5F600C0A4F660C6ABF65FC6F9
:1019B000AAF65EC6A9F65DC6A8F6B9DD03C054F660
:1019C00002C053F601C052F600C051F6140E0601D3
:1019D000A16F0001ABDCF2CF98F6F29CF29EAA6AEE
:1019E0000A0EA96EA69CA69EA680A850060198BDC8
:1019F000F28C98BFF28E0501C16F140E0601A16F23
:101A0000000194DCF2CF98F6F29CF29EAA6A0B0ECB
:101A1000A96EA69CA69EA680A850060198BDF28C31
:101A200098BFF28EA56BA46F0001B7DC03C060F60F
:101A300002C05FF601C05EF600C05DF660C69CF6AF
:101A40005FC69BF65EC69AF65DC699F60601A06B68
:101A50009F6B200E9E6F820E9D6F0001B9DC03C04C
:101A600060F602C05FF601C05EF600C05DF60601DA
:101A7000A56BC1C5A4F6000190DCD89203C0A7F6FF
:101A800002C0A6F601C0A5F600C0A4F660C6ABF67B
:101A90005FC6AAF65EC6A9F65DC6A8F648DD03C015
:101AA00058F602C057F601C056F600C055F6140E9F
:101AB0000601A16F00013ADCF2CF98F6F29CF29E8B
:101AC000AA6A0C0EA96EA69CA69EA680A850060126
:101AD00098BDF28C98BFF28E0501C16F140E0601FD
:101AE000A16F000123DCF2CF98F6F29CF29EAA6A65
:101AF0000D0EA96EA69CA69EA680A850060198BDB4
:101B0000F28C98BFF28EA56BA46F000146DC03C077
:101B100060F602C05FF601C05EF600C05DF660C60A
:101B20009CF65FC69BF65EC69AF65DC699F6060100
:101B3000A06B9F6B200E9E6F820E9D6F000148DC94
:101B400003C060F602C05FF601C05EF600C05DF63D
:101B50000601A56BC1C5A4F600011FDCD89203C025
:101B6000A7F602C0A6F601C0A5F600C0A4F660C69E
:101B7000ABF65FC6AAF65EC6A9F65DC6A8F6D7DCC8
:101B800003C05CF602C05BF601C05AF600C059F60D
:101B9000140E0601A16F000196EC09F0F2CF98F641
:101BA000F29CF29EAA6A0E0EA96EA69CA69EA68024
:101BB000A850060198BDF28C98BFF28EA56BA46F59
:101BC0000001CDEC09F003C034F602C033F601C0C9
:101BD00032F600C031F60A0E0601A16F000196EC44
:101BE00009F0F2CF98F6F29CF29EAA6A0F0EA96E47
:101BF000A69CA69EA680A850060198BDF28C98BF10
:101C0000F28EA56BA46F0001CDEC09F003C0F4F5D2
:101C100002C0F3F501C0F2F500C0F1F50A0E0601AD
:101C2000A16F000196EC09F0F2CF98F6F29CF29EBB
:101C3000AA6A100EA96EA69CA69EA680A8500601B0
:101C400098BDF28C98BFF28EA56BA46F0001CDEC0D
:101C500009F003C0F8F502C0F7F501C0F6F500C0C1
:101C6000F5F50A0E0601A16F000196EC09F0F2CF1E
:101C700098F6F29CF29EAA6A110EA96EA69CA69EE8
:101C8000A680A850060198BDF28C98BFF28EA56B75
:101C9000A46F0001CDEC09F003C01CF602C01BF6D6
:101CA00001C01AF600C019F60A0E0601A16F000164
:101CB00096EC09F0F2CF98F6F29CF29EAA6A120E08
:101CC000A96EA69CA69EA680A850060198BDF28C7F
:101CD00098BFF28E0501A36F0A0E0601A16F0001E5
:101CE00096EC09F0F2CF98F6F29CF29EAA6A130ED7
:101CF000A96EA69CA69EA680A850060198BDF28C4F
:101D000098BFF28E0501A46F0A0E0601A16F0001B3
:101D100096EC09F0F2CF98F6F29CF29EAA6A140EA5
:101D2000A96EA69CA69EA680A850060198BDF28C1E
:101D300098BFF28E0501A56F0A0E0601A16F000182
:101D400096EC09F0F2CF98F6F29CF29EAA6A160E73
:101D5000A96EA69CA69EA680A850060198BDF28CEE
:101D600098BFF28EA56BA46F0001CDEC09F003C003
:101D700060F602C05FF601C05EF600C05DF660C6A8
:101D80009CF65FC69BF65EC69AF65DC699F606019E
:101D9000A06B9F6B200E9E6F820E9D6F0001E8EC82
:101DA00009F003C060F602C05FF601C05EF600C035
:101DB0005DF60A0E0601A16F000196EC09F0F2CF64
:101DC00098F6F29CF29EAA6A150EA96EA69CA69E93
:101DD000A680A850060198BDF28C98BFF28EA56B24
:101DE000A46F0001CDEC09F0D89203C0A7F602C0A1
:101DF000A6F601C0A5F600C0A4F660C6ABF65FC6A5
:101E0000AAF65EC6A9F65DC6A8F697EC0AF003C06E
:101E1000ECF502C0EBF501C0EAF500C0E9F50A0EE9
:101E20000601A16F000196EC09F0F2CF98F6F29C42
:101E3000F29EAA6A180EA96EA69CA69EA680A8501D
:101E4000060198BDF28C98BFF28E996FF2CF9AF688
:101E5000F29CF29EAA6A170EA96EA69CA69EA68068
:101E6000A8509ABDF28C9ABFF28E9B6F99C603F070
:101E70009B51A46F03C0A5F60001CDEC09F003C08F
:101E800014F602C013F601C012F600C011F60A0ED5
:101E90000601A16F000196EC09F0F2CF98F6F29CD2
:101EA000F29EAA6A1A0EA96EA69CA69EA680A850AB
:101EB000060198BDF28C98BFF28EA56BA46F00014D
:101EC000CDEC09F003C060F602C05FF601C05EF61B
:101ED00000C05DF660C69CF65FC69BF65EC69AF6CD
:101EE0005DC699F60601A06B9F6B200E9E6F820E59
:101EF0009D6F0001E8EC09F003C060F602C05FF6D8
:101F000001C05EF600C05DF60A0E0601A16F000179
:101F100096EC09F0F2CF98F6F29CF29EAA6A190E9E
:101F2000A96EA69CA69EA680A850060198BDF28C1C
:101F300098BFF28EA56BA46F0001CDEC09F0D8928A
:101F400003C0A7F602C0A6F601C0A5F600C0A4F61D
:101F500060C6ABF65FC6AAF65EC6A9F65DC6A8F671
:101F600097EC0AF003C0F0F502C0EFF501C0EEF502
:101F700000C0EDF50A0E0601A16F000196EC09F014
:101F8000F2CF98F6F29CF29EAA6A1B0EA96EA69C4E
:101F9000A69EA680A850060198BDF28C98BFF28E2E
:101FA0000501B26F0A0E0601A16F000196EC09F05F
:101FB000F2CF98F6F29CF29EAA6A1C0EA96EA69C1D
:101FC000A69EA680A850060198BDF28C98BFF28EFE
:101FD0000501B46F0A0E0601A16F000196EC09F02D
:101FE000F2CF98F6F29CF29EAA6A1D0EA96EA69CEC
:101FF000A69EA680A850060198BDF28C98BFF28ECE
:102000000501B56F0A0E0601A16F000196EC09F0FB
:10201000F2CF98F6F29CF29EAA6A1E0EA96EA69CBA
:10202000A69EA680A850060198BDF28C98BFF28E9D
:102030000501AC6F0A0E0601A16F000196EC09F0D4
:10204000F8EF39F099C6A0F606019D51A01BA0AF8C
:1020500005D0D894D89099BFD8802FD099C6A0F633
:102060009CC6A1F69851A15F06E0A0AF26D0D8503B
:10207000010AD86E22D09DC6A1F69951A15F06E053
:10208000A0AF1BD0D850010AD86E17D09EC6A1F6BB
:102090009A51A15F06E0A0AF10D0D850010AD86EC7
:1020A0000CD09FC6A1F69B51A15F06E0A0AF05D062
:1020B000D850010AD86E01D0D8900001000C06015A
:1020C00001BF03D00151090803E301BF01D01DD0B6
:1020D000016BAA6AA96AA86AA69CA69EA684F25069
:1020E000006EF29CF29E0F01550EA76EAA0EA76E0F
:1020F000A682A6B2FED7A6940050F212140E0601D4
:10210000A16F000196EC09F0060102BF03D0025155
:10211000090803E302BF01D01ED0026BAA6A010EB8
:10212000A96EA86AA69CA69EA684F250006EF29C98
:10213000F29E0F01550EA76EAA0EA76EA682A6B23A
:10214000FED7A6940050F212140E0601A16F0001F2
:1021500096EC09F0060103BF03D00351090803E31D
:1021600003BF01D01ED0036BAA6A020EA96EA86A33
:10217000A69CA69EA684F250006EF29CF29E0F01D1
:10218000550EA76EAA0EA76EA682A6B2FED7A6947B
:102190000050F212140E0601A16F000196EC09F036
:1021A000060104BF03D00451090803E304BF01D0B2
:1021B0001ED0046BAA6A030EA96EA86AA69CA69EEE
:1021C000A684F250006EF29CF29E0F01550EA76E8F
:1021D000AA0EA76EA682A6B2FED7A6940050F2124F
:1021E000140E0601A16F000196EC09F0060109BF6B
:1021F00003D00951090803E309BF01D01ED0096BC0
:10220000AA6A040EA96EA86AA69CA69EA684F2508D
:10221000006EF29CF29E0F01550EA76EAA0EA76EDD
:10222000A682A6B2FED7A6940050F212140E0601A2
:10223000A16F000196EC09F006010ABF03D00A5114
:10224000090803E30ABF01D01ED00A6BAA6A050E73
:10225000A96EA86AA69CA69EA684F250006EF29C67
:10226000F29E0F01550EA76EAA0EA76EA682A6B209
:10227000FED7A6940050F212140E0601A16F0001C1
:1022800096EC09F006010BBF03D00B51090803E3DC
:102290000BBF01D01ED00B6BAA6A060EA96EA86AEE
:1022A000A69CA69EA684F250006EF29CF29E0F01A0
:1022B000550EA76EAA0EA76EA682A6B2FED7A6944A
:1022C0000050F212140E0601A16F000196EC09F005
:1022D00006010CBF03D00C51090803E30CBF01D069
:1022E0001ED00C6BAA6A070EA96EA86AA69CA69EB1
:1022F000A684F250006EF29CF29E0F01550EA76E5E
:10230000AA0EA76EA682A6B2FED7A6940050F2121D
:10231000140E0601A16F000196EC09F006019B6BFB
:102320009A6B520E996F850E986F54C69FF653C6DE
:102330009EF652C69DF651C69CF6000183DE12E25F
:1023400054C69BF653C69AF652C699F651C698F6ED
:1023500006019F6B9E6B200E9D6F830E9C6F00018C
:1023600071DE40E30601546B536B700E526F830EA7
:10237000516FAA6A080EA96E1E0EA86EA69CA69E94
:10238000A684F250006EF29CF29E0F01550EA76ECD
:10239000AA0EA76EA682A6B2FED7A6940050F2128D
:1023A000140E0601A16F000196EC09F0AA6A090E4D
:1023B000A96EA86AA69CA69EA684F250006EF29C06
:1023C000F29E0F01550EA76EAA0EA76EA682A6B2A8
:1023D000FED7A6940050F212140E0601A16F000160
:1023E00096EC09F006019B6B9A6B520E996F850E65
:1023F000986F58C69FF657C69EF656C69DF655C6A8
:102400009CF600011FDE12E258C69BF657C69AF6EC
:1024100056C699F655C698F606019F6B9E6B200E20
:102420009D6F830E9C6F00010DDE40E30601586B2B
:10243000576B700E566F830E556FAA6A0A0EA96EFF
:102440001E0EA86EA69CA69EA684F250006EF29C5C
:10245000F29E0F01550EA76EAA0EA76EA682A6B217
:10246000FED7A6940050F212140E0601A16F0001CF
:1024700096EC09F0AA6A0B0EA96EA86AA69CA69E05
:10248000A684F250006EF29CF29E0F01550EA76ECC
:10249000AA0EA76EA682A6B2FED7A6940050F2128C
:1024A000140E0601A16F000196EC09F006019B6B6A
:1024B0009A6B520E996F850E986F5CC69FF65BC63D
:1024C0009EF65AC69DF659C69CF60001BBDD12E287
:1024D0005CC69BF65BC69AF65AC699F659C698F63C
:1024E00006019F6B9E6B200E9D6F830E9C6F0001FB
:1024F000A9DD40E306015C6B5B6B700E5A6F830EC7
:10250000596FAA6A0C0EA96E1E0EA86EA69CA69EF6
:10251000A684F250006EF29CF29E0F01550EA76E3B
:10252000AA0EA76EA682A6B2FED7A6940050F212FB
:10253000140E0601A16F000196EC09F0AA6A0D0EB7
:10254000A96EA86AA69CA69EA684F250006EF29C74
:10255000F29E0F01550EA76EAA0EA76EA682A6B216
:10256000FED7A6940050F212140E0601A16F0001CE
:1025700096EC09F006019B6B9A6B996B810E986F34
:1025800034C69FF633C69EF632C69DF631C69CF61B
:10259000000158DD11E234C69BF633C69AF632C606
:1025A00099F631C698F606019F6B9E6B9D6B7F0E68
:1025B0009C6F000147DD23E30601346B336B326B04
:1025C000800E316FAA6A0E0EA96E020EA86EA69C2E
:1025D000A69EA684F250006EF29CF29E0F01550E4C
:1025E000A76EAA0EA76EA682A6B2FED7A69400502A
:1025F000F212140E0601A16F000196EC09F006011B
:102600009B6B9A6B996B810E986FF4C59FF6F3C51F
:102610009EF6F2C59DF6F1C59CF6000113DD11E2B0
:10262000F4C59BF6F3C59AF6F2C599F6F1C598F68E
:1026300006019F6B9E6B9D6B7F0E9C6F000102DD00
:1026400023E30501F46BF36BF26B7F0EF16FAA6A63
:102650000F0EA96E010EA86EA69CA69EA684F2502F
:10266000006EF29CF29E0F01550EA76EAA0EA76E89
:10267000A682A6B2FED7A6940050F212140E06014E
:10268000A16F000196EC09F006019B6B9A6B200E7E
:10269000996F840E986FF8C59FF6F7C59EF6F6C53C
:1026A0009DF6F5C59CF60001CDDC12E2F8C59BF65F
:1026B000F7C59AF6F6C599F6F5C598F606019F6B2B
:1026C0009E6B200E9D6F810E9C6F0001BBDC24E38E
:1026D0000501F86BF76B200EF66F830EF56FAA6A93
:1026E000100EA96E140EA86EA69CA69EA684F2508B
:1026F000006EF29CF29E0F01550EA76EAA0EA76EF9
:10270000A682A6B2FED7A6940050F212140E0601BD
:10271000A16F000196EC09F006019B6B9A6B200EED
:10272000996F820E986F1CC69FF61BC69EF61AC63E
:102730009DF619C69CF6000185DC12E21CC69BF6CC
:102740001BC69AF61AC699F619C698F606019F6B2B
:102750009E6B200E9D6F810E9C6F000173DC24E345
:1027600006011C6B1B6B200E1A6F810E196FAA6A73
:10277000110EA96E050EA86EA69CA69EA684F25008
:10278000006EF29CF29E0F01550EA76EAA0EA76E68
:10279000A682A6B2FED7A6940050F212140E06012D
:1027A000A16F000196EC09F00501A35164081EE237
:1027B000A36BAA6A120EA96EA86AA69CA69EA684FE
:1027C000F250006EF29CF29E0F01550EA76EAA0EFB
:1027D000A76EA682A6B2FED7A6940050F212140EDF
:1027E0000601A16F000196EC09F00501A4516408EF
:1027F0001EE2A46BAA6A130EA96EA86AA69CA69EE6
:10280000A684F250006EF29CF29E0F01550EA76E48
:10281000AA0EA76EA682A6B2FED7A6940050F21208
:10282000140E0601A16F000196EC09F00501A551F7
:10283000500803E3A55109081FE3500EA56FAA6ACB
:10284000140EA96E500EA86EA69CA69EA684F250E9
:10285000006EF29CF29E0F01550EA76EAA0EA76E97
:10286000A682A6B2FED7A6940050F212140E06015C
:10287000A16F000196EC09F006019B6B9A6B5C0E50
:10288000996F850E986FECC59FF6EBC59EF6EAC56D
:102890009DF6E9C59CF6000122EC10F013E2ECC5B0
:1028A0009BF6EBC59AF6EAC599F6E9C598F60601D6
:1028B0009F6B9E6B480E9D6F850E9C6F000122ECF6
:1028C00010F043E3CD0E0501EC6FCC0EEB6F530E11
:1028D000EA6F850EE96FAA6A150EA96E690EA86ED9
:1028E000A69CA69EA684F250006EF29CF29E0F015A
:1028F000550EA76EAA0EA76EA682A6B2FED7A69404
:102900000050F212140E0601A16F000196EC09F0BE
:10291000AA6A160EA96E090EA86EA69CA69EA6848B
:10292000F250006EF29CF29E0F01550EA76EAA0E99
:10293000A76EA682A6B2FED7A6940050F212140E7D
:102940000601A16F000196EC09F006019B6B9A6BE2
:10295000480E996F8B0E986F14C69FF613C69EF69D
:1029600012C69DF611C69CF6000122EC10F042E35F
:102970000601146BC00E136F410E126F8B0E116F98
:10298000AA6A170EA96E180EA86EA69CA69EA6840B
:10299000F250006EF29CF29E0F01550EA76EAA0E29
:1029A000A76EA682A6B2FED7A6940050F212140E0D
:1029B0000601A16F000196EC09F0AA6A180EA96E33
:1029C000380EA86EA69CA69EA684F250006EF29CBD
:1029D000F29E0F01550EA76EAA0EA76EA682A6B292
:1029E000FED7A6940050F212140E0601A16F00014A
:1029F00096EC09F006019B6B9A6B996B800E986FB1
:102A0000F0C59FF6EFC59EF6EEC59DF6EDC59CF6AA
:102A1000000122EC10F03FE30501F06BEF6BEE6B71
:102A20007E0EED6FAA6A190EA96EA86AA69CA69ED4
:102A3000A684F250006EF29CF29E0F01550EA76E16
:102A4000AA0EA76EA682A6B2FED7A6940050F212D6
:102A5000140E0601A16F000196EC09F0AA6A1A0E85
:102A6000A96E050EA86EA69CA69EA684F250006EC6
:102A7000F29CF29E0F01550EA76EAA0EA76EA682BB
:102A8000A6B2FED7A6940050F212140E0601A16F52
:102A9000000196EC09F00501B251010820E2010E97
:102AA000B26FAA6A1B0EA96E010EA86EA69CA69E06
:102AB000A684F250006EF29CF29E0F01550EA76E96
:102AC000AA0EA76EA682A6B2FED7A6940050F21256
:102AD000140E0601A16F000196EC09F00501B45136
:102AE0000A0820E20A0EB46FAA6A1C0EA96E0A0E2A
:102AF000A86EA69CA69EA684F250006EF29CF29E42
:102B00000F01550EA76EAA0EA76EA682A6B2FED71B
:102B1000A6940050F212140E0601A16F000196EC6B
:102B200009F00501B55101081EE2B56BAA6A1D0E38
:102B3000A96EA86AA69CA69EA684F250006EF29C7E
:102B4000F29E0F01550EA76EAA0EA76EA682A6B220
:102B5000FED7A6940050F212140E0601A16F0001D8
:102B600096EC09F00501AC51030802E3AC5320E1F7
:102B7000010EAC6FAA6A1E0EA96E010EA86EA69C6D
:102B8000A69EA684F250006EF29CF29E0F01550E96
:102B9000A76EAA0EA76EA682A6B2FED7A694005074
:102BA000F212140E0601A16F000196EC09F0050166
:102BB00034C640F633C63FF632C63EF631C63DF661
:102BC0000001FAEF39F00601B25303E093968A86CA
:102BD00002D093948A84939C8A9C956AB3C68CFF96
:102BE0000000939E8A8E00D000D00000939E8A9EA3
:102BF00093948A9493968A960001000C0601A36B25
:102C00002A0EA26F020EA56F2A0EA46FA051FF0D0F
:102C1000F3CFA1F6A76BA66BA75101081AE3A3C6D1
:102C200003F0A251A22BD8B4A32BE96E03C0EAFF94
:102C3000A1C6EFFFA5C603F0A451A42BD8B4A52BC1
:102C4000E96E03C0EAFFA1C6EFFFA62BD8B4A72BFD
:102C5000E3D70001000C0601AE6B2A0EAD6F020E29
:102C6000B06F2A0EAF6FAB6BAB5107084EE3939A70
:102C70008A9AB26B400EB36F0001A5DF010E060108
:102C8000B26F400EB36F00019EDF0601AB51B80971
:102C9000B16FB26BB36F000196DF0601AB51B8099B
:102CA000B16F010EB26FB1C6B3F600018CDF939A1B
:102CB0008A8A0601AC6BAC513F0825E3AEC603F02F
:102CC000AD51AD2BD8B4AE2BE96E03C0EAFFEFCF08
:102CD000B1F6B26BB1C6B3F6000175DF0601B0C63E
:102CE00003F0AF51AF2BD8B4B02BE96E03C0EAFFAD
:102CF000EFCFB1F6010EB26FB1C6B3F6000163DFDC
:102D00000601AC2BD8D7AB2BAFD70001000C9398A2
:102D10008A88939E8A9E93948A9493968A96939A8D
:102D20008A9A0601B26BC00EB36F00014CDF010E30
:102D30000601B26FC00EB36F000145DF0601B26B32
:102D4000400EB36F00013FDF010E0601B26F400E6F
:102D5000B36F000138DF0601B26BB80EB36F00012C
:102D600032DF010E0601B26FB80EB36F00012BDF28
:102D70000601982D0ED0B26B3F0EB36F000123DF1A
:102D8000010E0601B26F3F0EB36F00011CDF0DD0C4
:102D90000601B26B3E0EB36F000115DF010E060196
:102DA000B26F3E0EB36F00010EDF0601A06B000193
:102DB00025DF51DF000C0601D26BCD31D16FD1334D
:102DC000D1331F0ED117D137D237D137D237D137C0
:102DD000D237D137D237D137D237D137D237C00EE9
:102DE000D117CC51D127000ED223CC513F080DE290
:102DF0002A0ED125D36F020ED221D46F400ED35D9F
:102E0000CF6F000ED459D06F06D02A0ED125CF6FC8
:102E1000000ED221D06FCE5315E0D0C603F0CFC63E
:102E2000E9FFD0C6EAFFCD51070BD36F010E006E4C
:102E3000D351016E04E0D8900036012EFCD700502B
:102E4000EF1215D0D0C603F0CFC6E9FFD0C6EAFF17
:102E5000CD51070BD36F010E006ED351016E04E00C
:102E6000D8900036012EFCD70050FF0AEF16000163
:102E7000000CB4C603F00601B3C6E9FFB4C6EAFF0E
:102E8000EF52D8B4D6D0B4C603F0B3C6E9FFB4C687
:102E9000EAFFEF5052082AE3B4C603F0B3C6E9FFD5
:102EA000B4C6EAFF200EEF5C050DF350036AC06F55
:102EB000060EEA6EBB0EE96EC46BC0C6C3F6F2CF57
:102EC000C1F6F29CF29E050E016EF76AC051000138
:102ED000A8EC00F00A000900F5CFEEFF012EFBD7A9
:102EE0000601C1BDF28CC1BFF28E38D0B4C603F06A
:102EF000B3C6E9FFB4C6EAFFEF507E082AE3B4C6C2
:102F000003F0B3C6E9FFB4C6EAFF530EEF5C050D4C
:102F1000F350036AC06F060EEA6EBB0EE96EC46B17
:102F2000C0C6C3F6F2CFC1F6F29CF29E050E016E4A
:102F3000F76AC05100013AEC01F00A000900F5CF30
:102F4000EEFF012EFBD70601C1BDF28CC1BFF28E90
:102F500005D0BB6BBC6BBD6BBE6BBF6BB4C603F067
:102F6000B351E96E03C0EAFFEF500A0A000103E023
:102F7000070A09E00BD00601B551070DF350010F08
:102F8000B22750D000010601B16B4CD00601B551FB
:102F9000050DF350B1257F0806E2B16BB551070D61
:102FA000F350010FB227B76BB75104083BE3B86B7E
:102FB000B851060833E3036AB751BB0FE96E060E3A
:102FC0000320EA6EEFCFC0F6C0C600F0B851016E24
:102FD00004E0D8900032012EFCD700A01DD0B96BC0
:102FE000B551B95D19E2BA6BB551BA5D13E2BA5188
:102FF000B125C06FB851B503F350B225B925C16FE3
:10300000C0C6CCF6CD6FB6C6CEF60001D4DE060142
:10301000BA2BEAD7B92BE4D7B82BCAD7B72BB551FF
:10302000B127C2D7B32BD8B4B42BB12B000121D711
:1030300006010001000C010E0601C56FC66FCB6BC7
:10304000BC51BE5DCC6FCC51CCAF03D0000ED8804C
:10305000CC55036AC36F03C0C4F6BD51BF5DCC6FCE
:10306000CC51CCAF03D0000ED880CC55036AC16FD1
:1030700003C0C2F6BC51BE5D02E2FF0EC56FBD517A
:10308000BF5D02E2FF0EC66FC251C45D3BE303E1C8
:10309000C151C35D37E3D890C137C237C351C15D59
:1030A000006EC451C25900C0C7F6C86FC351C75D96
:1030B000C96FC451C859CA6FC45303E1CB51C35D32
:1030C00020E3BCC6CCF6BDC6CDF6C0C6CEF6000128
:1030D00072DE0601C8BF01D008D0C151C727C25156
:1030E000C823C551BC25BC6F0AD0C951C727CA51D6
:1030F000C823C551BC25BC6FC651BD25BD6FCB2BA8
:10310000DBD736D0D890C337C437C151C35D006E0A
:10311000C251C45900C0C7F6C86FC151C75DC96F5D
:10312000C251C859CA6FC25303E1CB51C15D20E3FC
:10313000BCC6CCF6BDC6CDF6C0C6CEF600013BDEA1
:103140000601C8BF01D008D0C351C727C451C82346
:10315000C651BD25BD6F0AD0C951C727CA51C82362
:10316000C551BC25BC6FC651BD25BD6FCB2BDBD770
:103170000001000C0601B5532EE0B351B15D05E22C
:10318000B1C6B8F6B3C6B9F604D0B3C6B8F6B1C680
:10319000B9F6B451B25D05E2B2C6BAF6B4C6BBF632
:1031A00004D0B4C6BAF6B2C6BBF6B851B95D12E3E4
:1031B000BAC6B7F6B751BB5D0BE3B8C6CCF6B7C617
:1031C000CDF6B6C6CEF60001F6DD0601B72BF2D776
:1031D000B82BEBD72ED0B1C6BCF6B2C6BDF6B3C67F
:1031E000BEF6B2C6BFF6B6C6C0F6000124DFB1C651
:1031F000BCF6B4C6BDF6B3C6BEF6B4C6BFF6B6C618
:10320000C0F619DFB1C6BCF6B2C6BDF6B1C6BEF691
:10321000B4C6BFF6B6C6C0F60EDFB3C6BCF6B2C6BD
:10322000BDF6B3C6BEF6B4C6BFF6B6C6C0F603DF7B
:1032300006010001000C0601A0C601F0A1C603F0C2
:10324000A0C6A6F6A1C6A7F6060EEA6E780EE96E2F
:10325000A1C6E2FFA0C6E1FFE752E6CFEEFFFCE128
:10326000A451020814E1010EA225A66F010EA325A8
:10327000A76FA6C6B1F6B26F060EB46F780EB36F25
:10328000A5C6B5F6010EB66F0001F3DD0601A42D4B
:1032900025D0A551080DF350A325A66FB16BA3C689
:1032A000B2F67F0EB36FA6C6B4F6010EB56FB66F59
:1032B000000160DF010E0601A225A66F010EA32505
:1032C000A76FA6C6B1F6B26F060EB46F780EB36FD5
:1032D000A5C6B5F6B66B0001CCDD0601A45325E109
:1032E000A551080DF350A325A66FB16BA3C6B2F686
:1032F0007F0EB36FA6C6B4F6010EB56FB66B0001B4
:1033000039DF010E0601A225A66F010EA325A76FC6
:10331000A6C6B1F6B26F060EB46F780EB36FA5C62F
:10332000B5F6010EB66F0001A4DD000194DC000CBF
:1033300006019935006E0036FC0E001600C001F043
:10334000C250C30B0010C26E010EA16F000196ECBB
:1033500009F0C282C2B2FED7C4CFA5F6C3CFA4F68D
:103360000001CDEC09F003C09DF602C09CF601C03F
:103370009BF600C09AF69AC600F09BC601F09CC668
:1033800002F09DC603F059EF1AF006019C519E030E
:10339000F3CF01F0F4CF00F09F03F35000269D51CE
:1033A0009E03F3500020026E0001000C0601B8518C
:1033B000D8B471D0006EBC51D8B46DD0002604E3EF
:1033C000810E002668E204D07F0E005E64E363E0B5
:1033D000B9C6C0F6BD51C01BB98FBD8FBB51BF036D
:1033E000F4CFC2F6BA51BE03F4CF03F0F3CFC1F667
:1033F000BF03F350C227F450C123000E0322BB5178
:10340000BE03F350C227F450C123000E026A032208
:103410000222B951BF03F350C127F4500322000E1A
:103420000222B951BE03F3500326F4500222000ECB
:10343000016A0122BB51BD03F350C127F45003229E
:10344000000E02220122BA51BD03F3500326F450AC
:103450000222000E0122B951BD03F3500226F4509E
:103460000122002A01BE05D0C137033602360136DB
:103470000006000EC1AF0AD0032A02220122015029
:1034800005E1025003E1035001E1002AC0BF018EB3
:10349000C0AF019E04D0006A016A026A036A00019B
:1034A000000C0601286B276B266B256B996B0001BE
:1034B0003FD703C010F602C00FF601C00EF600C0E1
:1034C0000DF610C69CF60FC69BF60EC69AF60DC6F4
:1034D00099F6ECC5A0F6EBC59FF6EAC59EF6E9C5E0
:1034E0009DF6E8EC09F003C010F602C00FF601C02B
:1034F0000EF600C00DF6D89210C6A7F60FC6A6F6B7
:103500000EC6A5F60DC6A4F69A0E0601AB6F990E6F
:10351000AA6F6D0EA96F820EA86F000197EC0AF0DA
:1035200003C010F602C00FF601C00EF600C00DF683
:1035300006019C6BC00E9B6F7F0E9A6F880E996F71
:1035400010C6A0F60FC69FF60EC69EF60DC69DF6D7
:103550000001E8EC09F000C099F601C09AF602C03B
:103560009BF603C09CF6D88203C0A7F602C0A6F65D
:1035700001C0A5F600C0A4F60601AB6BAA6BA96B4F
:103580007F0EA86F000197EC0AF006019C6B800E7D
:103590009B6F540E9A6F8B0E996F03C0A0F602C0FA
:1035A0009FF601C09EF600C09DF60001E8EC09F010
:1035B00003C018F602C017F601C016F600C015F6D3
:1035C000010E0601985D0501A25D02E001E3A26B18
:1035D00006019D6BA2C59CF69F6B040E9E6F0001B9
:1035E000D4DE0150300FE96E040E0220EA6E15C6DB
:1035F000EFFF16C6ECFF17C6ECFF18C6ECFF05017F
:10360000A22BA16B060198510501A15D3FE20601C5
:103610009D6BA1C59CF69F6B040E9E6F0001B5DEED
:1036200002C003F00150300FE96E040E0220EA6E72
:10363000EFCF00F0ECCF01F0ECCF02F0ECCF03F0D5
:10364000EACF9AF6E9CF99F6D89228C6A7F627C608
:10365000A6F626C6A5F625C6A4F603C0ABF602C09C
:10366000AAF601C0A9F600C0A8F697EC0AF09AC61F
:10367000EAFF99C6E9FF03C028F602C027F601C099
:1036800026F600C025F60501A12BBCD70601A56BC7
:1036900098C6A4F60001CDEC09F028C69CF627C612
:1036A0009BF626C69AF625C699F603C0A0F602C078
:1036B0009FF601C09EF600C09DF6E8EC09F003C03D
:1036C00028F602C027F601C026F600C025F628C657
:1036D000BBF627C6BAF626C6B9F625C6B8F628C67A
:1036E000BFF627C6BEF626C6BDF625C6BCF65EDE0C
:1036F00000C099F601C09AF602C09BF603C09CF682
:1037000003C0BBF602C0BAF601C0B9F600C0B8F6F5
:103710006CC6BFF66BC6BEF66AC6BDF669C6BCF619
:1037200045DE00C099F601C09AF602C09BF603C0C0
:103730009CF628C6BBF627C6BAF626C6B9F625C635
:10374000B8F670C6BFF66FC6BEF66EC6BDF66DC6DD
:10375000BCF62CDED8929CC6A7F69BC6A6F69AC6E7
:10376000A5F699C6A4F603C0ABF602C0AAF601C03E
:10377000A9F600C0A8F697EC0AF000C099F601C0BF
:103780009AF602C09BF603C09CF6D89203C0A7F637
:1037900002C0A6F601C0A5F600C0A4F674C6ABF63A
:1037A00073C6AAF672C6A9F671C6A8F697EC0AF017
:1037B00003C02CF602C02BF601C02AF600C029F681
:1037C0000601A56BA3C5A4F60001CDEC09F003C06A
:1037D00064F602C063F601C062F600C061F606013D
:1037E000A56BA4C5A4F60001CDEC09F003C068F6F2
:1037F00002C067F601C066F600C065F664C69CF6B6
:1038000063C69BF662C69AF661C699F60601A06B7E
:103810009F6B200E9E6F820E9D6F0001E8EC09F0F9
:1038200003C064F602C063F601C062F600C061F630
:1038300068C69CF667C69BF666C69AF665C699F694
:103840000601A06B9F6B200E9E6F820E9D6F000184
:10385000E8EC09F003C068F602C067F601C066F63E
:1038600000C065F6D88264C6A7F663C6A6F662C62F
:10387000A5F661C6A4F668C6ABF667C6AAF666C624
:10388000A9F665C6A8F697EC0AF0D8922CC6A7F65A
:103890002BC6A6F62AC6A5F629C6A4F603C0ABF623
:1038A00002C0AAF601C0A9F600C0A8F697EC0AF07B
:1038B00003C02CF602C02BF601C02AF600C029F680
:1038C00029C600F02AC601F02BC602F02CC603F070
:1038D000000C010E0601986F000187EC16F006013E
:1038E000A06B0001FEEC15F0060EEA6E780EE96E94
:1038F000F2CF98F6F29CF29E000E0BEC04F00A0058
:103900000900F550EE6E0009FBE1060198BDF28C4E
:1039100098BFF28E060EA16F780EA06FA26BA36BFC
:10392000A46B020EA56F000186DC060EEA6E780E0F
:10393000E96EF2CF98F6F29CF29E000E23EC04F0B2
:103940000A000900F550EE6E0009FBE1060198BD82
:10395000F28C98BFF28E060EA16F780EA06FA26B4C
:10396000140EA36FA46B010EA56F000164DC060E9C
:10397000EA6E780EE96EF2CF98F6F29CF29E000E97
:103980003CEC04F00A000900F550EE6E0009FBE182
:10399000060198BDF28C98BFF28E060EA16F780ECC
:1039A000A06FA26B1E0EA36FA46B010EA56F00018A
:1039B00042DC060EEA6E780EE96EF2CF98F6F29CC3
:1039C000F29E000E56EC04F00A000900F550EE6E6F
:1039D0000009FBE1060198BDF28C98BFF28E060E3D
:1039E000A16F780EA06FA26B2D0EA36FA46B020EB9
:1039F000A56F000120DC040E0601986FFA0EA16F7E
:103A0000000196EC09F00601982FF8D7A06B000191
:103A1000FEEC15F00501B86BB8514F080FE3A5C5D2
:103A200098F600013EDD03C048F602C047F601C02B
:103A300046F600C045F60501B82BEED70001FCEFB5
:103A400039F08E0E006E0601A451005EA5C602F08C
:103A5000A6C601F0028E005209E0D890025202E19F
:103A6000015204E002320132002EF7D7A5AF05D093
:103A7000011E021E012AD8B4022A0001000C080E01
:103A8000016E050E006E002EFED78B969496060EE4
:103A9000006E002EFED706019C378B98D8B0948814
:103AA000D8A09498948682A6FED7012E01D002D089
:103AB0000001E7D7050E006E002EFED78B96949678
:103AC00000009488060E006E002EFED7060E006ED3
:103AD000002EFED7948682A6FED7016A060E006EDF
:103AE000002EFED782B801808B9694968B9894987E
:103AF0000001000C9488050E006E002EFED79486FF
:103B0000060E006E002EFED78B989498050E006E60
:103B1000002EFED78B96949699C69CF6B0DF9AC677
:103B20009CF6ADDF9BC69CF6AADF949800009486B5
:103B300082A6FED7050E006E002EFED700D0000034
:103B40009488050E006E002EFED7000C06019F6BB8
:103B50009E6B9D6B9C6BA36BA26BA16BA06B9BC6BA
:103B6000A7F69AC6A6F699C6A5F698C6A4F60001C9
:103B700068DF0601A56B01C0A4F60001CDEC09F0D9
:103B800003C09FF602C09EF601C09DF600C09CF6E1
:103B9000D8829BC6A7F69AC6A6F699C6A5F698C679
:103BA000A4F69FC6ABF69EC6AAF69DC6A9F69CC60D
:103BB000A8F697EC0AF000C0A4F601C0A5F602C072
:103BC000A6F603C0A7F603C0BBF602C0BAF601C052
:103BD000B9F600C0B8F60601BF6BBE6B200EBD6F14
:103BE000820EBC6F0001D6EC19F003C0A3F602C030
:103BF000A2F601C0A1F600C0A0F6A3C6A7F6A2C611
:103C0000A6F6A1C6A5F6A0C6A4F61BDF015025EFB7
:103C10001EF048C6A7F647C6A6F646C6A5F645C690
:103C2000A4F60FDF01C098F6A00E0601996F9A6BFB
:103C300001C09BF600015EDF48C69BF647C69AF6B8
:103C400046C699F645C698F681D701C098F6A00EEB
:103C50000601996F010E9A6F01C09BF600014ADFC1
:103C6000A00E0601996F020E9A6FFF0E9B6F000166
:103C700041DFA00E0601996F030E9A6FFF0E9B6F36
:103C8000000138DFA00E0601996F040E9A6F800EB6
:103C90009B6F00012FDFF9EF3AF00601B651016A80
:103CA000B55D03E2B5C600F00CD0006A080EB76F30
:103CB000B5370036B651005CD8B0006E0136B72F6C
:103CC000F7D70001000C97C6EAFF96C6E9FF060188
:103CD000B8C6EFFFE92AD8B4EA2AEF6A962BD8B41F
:103CE000972B0001000C200E0601B0A9300EB16F19
:103CF000AFC600F0AFAF07D0001E002A00C0AFF67D
:103D00002D0EB16FB08F0150AFC6B5F6640EB66F11
:103D10000001C3DF00C0AFF6300E01240601B26F10
:103D2000AFC6B5F60A0EB66F0001B7DF300E00243D
:103D30000601B46F300E0124B36FB1C600F0B0A716
:103D400002D0B0AFB095B0B90BD0B0AF22D0B0B503
:103D500020D000C0B2F6B0B31CD000C0B3F619D06A
:103D6000300EB25D16E100C0B2F6200EB16FB0A702
:103D700004D0B095B083B0AFB093300EB35D09E11D
:103D800000C0B3F6200EB26FB0A7F7D7B093B0AFB4
:103D9000B091B0A505D0B1C6B8F6000194DF060118
:103DA000B0A305D0B2C6B8F600018DDF0601B0A100
:103DB00004D0B3C6B8F6000186DFB4C6B8F6000179
:103DC00082DFEEEF1EF0060E0601976FA60E966FCD
:103DD000A2C6AFF61F0EB06F000185D70601A52D54
:103DE00029D0120EA325AF6F180EA425B06FA3C65D
:103DF000B1F6A4C6B2F6AFC6B3F6B46F010EB56F96
:103E0000B66F0001BAEC18F0020E0601A325AF6FE1
:103E1000010EA425B06FAFC6B1F6B26F060EB46F37
:103E2000A60EB36F020EB56FB66B000139EC17F03A
:103E300028D00601120EA325AF6F180EA425B06F6F
:103E4000A3C6B1F6A4C6B2F6AFC6B3F6B46FB56BEF
:103E5000B66B0001BAEC18F0020E0601A325AF6F95
:103E6000010EA425B06FAFC6B1F6B26F060EB46FE7
:103E7000A60EB36F020EB56F010EB66F000139ECDE
:103E800017F0000C020E0601A16F000196EC09F07C
:103E9000000C0601A06B0001FEEC15F0060EEA6EA8
:103EA000780EE96EF2CFA0F6F29CF29E000EDEECE8
:103EB00003F00A000900F550EE6E0009FBE106016F
:103EC000A0BDF28CA0BFF28E060EA16F780EA06F7F
:103ED0001E0EA26FA36BA46B020EA56F00011BEC5C
:103EE00019F0060EEA6E780EE96EF2CFA0F6F29C9B
:103EF000F29E000EF3EC03F00A000900F550EE6E9E
:103F00000009FBE10601A0BDF28CA0BFF28E060EF7
:103F1000A16F780EA06FA26B1E0EA36FA46B020E92
:103F2000A56F00011BEC19F02BEC16F0080E060132
:103F3000A06FFA0EA16F000196EC09F00601A02F08
:103F4000F8D7A06B0001FEEC15F0000C0501AB5397
:103F5000D8A47AD005C6A2F6140E0601A36F1E0ED1
:103F6000A46F010EA56F00012EDF06C6A2F6280E73
:103F70000601A36F1E0EA46FA56B000124DF07C608
:103F8000A2F63C0E0601A36F1E0EA46FA56B0001E6
:103F90001ADF05C6A2F6500E0601A36F1E0EA46F0F
:103FA000A56B000110DF06019F5327E1060EEA6EA4
:103FB000780EE96EF2CFA0F6F29CF29E000E0001A0
:103FC0006DEC04F00A000900F550EE6E0009FBE10B
:103FD0000601A0BDF28CA0BFF28E060EA16F780E76
:103FE000A06F140EA26FA36B010EA46F030EA56F3A
:103FF00000011BEC19F025D00601060EEA6E780EC2
:10400000E96EF2CFA0F6F29CF29E000E000182EC67
:1040100004F00A000900F550EE6E0009FBE106010C
:10402000A0BDF28CA0BFF28E060EA16F780EA06F1D
:10403000A26BA36B010EA46F020EA56F00011BEC17
:1040400019F0010E0501AB6F928A80BA6ED0A0BF45
:104050006BD0A08F000116DF8B8A949A320E060176
:10406000A16F000196EC09F08B9A949A010E05015C
:10407000B86FB851040858E3B851B75D3AE1010E82
:10408000B85D036A050FE96E060E0320EA6EEF2A9B
:10409000010EB85D036A050FE96E060E0320EA6E95
:1040A000EFBE0CD0EF50090809E2010EB85D036ABB
:1040B000050FE96E060E0320EA6EEF6A010EB85D89
:1040C000036A050FE96E060E0320EA6EEFCFA0F635
:1040D000B851140DF3CFA1F60601A0C6A2F6A1C6F1
:1040E000A3F61E0EA46F010EA56F00016CDE19D0A1
:1040F0000501010EB85D036A050FE96E060E032087
:10410000EA6EEFCFA0F6B851140DF3CFA1F6060179
:10411000A0C6A2F6A1C6A3F61E0EA46FA56B000151
:1041200052DE0501B82BA5D701D0A09F968084B0A0
:104130006DD0ADB36AD0AD830001A4DE8B8A949AB2
:10414000320E0601A16F000196EC09F08B9A949A49
:10415000010E0501B86FB851040857E3B851B75DB7
:1041600039E1010EB85D036A050FE96E060E032002
:10417000EA6EEF06010EB85D036A050FE96E060EE2
:104180000320EA6EEFBE01D00AD0010EB85D036ACB
:10419000050FE96E060E0320EA6E090EEF6E010EA2
:1041A000B85D036A050FE96E060E0320EA6EEFCFD5
:1041B000A0F6B851140DF3CFA1F60601A0C6A2F6E1
:1041C000A1C6A3F61E0EA46F010EA56F0001FBDDB4
:1041D00019D00501010EB85D036A050FE96E060EE0
:1041E0000320EA6EEFCFA0F6B851140DF3CFA1F67D
:1041F0000601A0C6A2F6A1C6A3F61E0EA46FA56B6B
:104200000001E1DD0501B82BA6D701D0AD93968260
:1042100084B251D0ADB14ED0AD81000133DE050185
:10422000B72B8B8A949A320E0601A16F000196EC8F
:1042300009F08B9A949A010E0501B86FB8510408E1
:1042400039E3B851B75D1BE1010EB85D036A050F94
:10425000E96E060E0320EA6EEFCFA0F6B851140DFA
:10426000F3CFA1F60601A0C6A2F6A1C6A3F61E0EC4
:10427000A46F010EA56F0001A6DD19D00501010E86
:10428000B85D036A050FE96E060E0320EA6EEFCFF4
:10429000A0F6B851140DF3CFA1F60601A0C6A2F600
:1042A000A1C6A3F61E0EA46FA56B00018CDD05014F
:1042B000B82BC4D701D0AD91968484B42ED0640EAF
:1042C0000601A16F000196EC09F0968484B424D015
:1042D0008B8A949A320E0601A16F000196EC09F0C8
:1042E0008B9A949A98C6B6F50601A06B0001FEEC75
:1042F00015F00501AB6B010EBD6FB76F0601056BC5
:10430000066B076B086BA06B0001FEEC15F02BEC45
:1043100016F0010E016E6CD20501B7510408D8B039
:1043200068D20601A06B0001FEEC15F0010E05013C
:10433000B76F06019F53D8A4CBD105510308D8A469
:104340007FD006510808D8A47BD007510908D8A40B
:1043500077D00851020874E1995372E1AA6A040EF9
:10436000A96EA86AA69CA69EA684F250006EF29C36
:10437000F29E0F01550EA76EAA0EA76EA682A6B2D8
:10438000FED7A6940050F212140E0601A16F000190
:1043900096EC09F0AA6A050EA96EA86AA69CA69ECC
:1043A000A684F250006EF29CF29E0F01550EA76E8D
:1043B000AA0EA76EA682A6B2FED7A6940050F2124D
:1043C000140E0601A16F000196EC09F0AA6A060E10
:1043D000A96EA86AA69CA69EA684F250006EF29CC6
:1043E000F29E0F01550EA76EAA0EA76EA682A6B268
:1043F000FED7A6940050F212140E0601A16F000120
:1044000096EC09F0AA6A070EA96EA86AA69CA69E59
:10441000A684F250006EF29CF29E0F01550EA76E1C
:10442000AA0EA76EA682A6B2FED7A6940050F212DC
:10443000140E0601A16F000196EC09F0FF000601C1
:104440009B51055DD8A474D09C51065D71E19D51CE
:10445000075D6EE19E51085D6BE1A06B0001FEEC13
:1044600015F0060EEA6E780EE96EF2CFA0F6F29C19
:10447000F29E000E6DEC04F00A000900F550EE6E9D
:104480000009FBE10601A0BDF28CA0BFF28E060E72
:10449000A16F780EA06F1E0EA26FA36BA46B020E0D
:1044A000A56F00011BEC19F0060EEA6E780EE96E9E
:1044B000F2CFA0F6F29CF29E000E9AEC04F00A00F5
:1044C0000900F550EE6E0009FBE10601A0BDF28C7B
:1044D000A0BFF28E060EA16F780EA06F0F0EA26F16
:1044E0001E0EA36FA46B020EA56F00011BEC19F04A
:1044F0009AC6B6F52BEC16F0040E0601A06FFA0E64
:10450000A16F000196EC09F00601A02FF8D7A06B6F
:104510000001FEEC15F00601056B066B076B086BDE
:104520000501AB6B010E016E000162D1CFD0060117
:10453000A06B0001FEEC15F0060EEA6E780EE96E37
:10454000F2CFA0F6F29CF29E000E6DEC04F00A0091
:104550000900F550EE6E0009FBE10601A0BDF28CEA
:10456000A0BFF28E060EA16F780EA06F1E0EA26F76
:10457000A36BA46B020EA56F00011BEC19F0060ED5
:10458000EA6E780EE96EF2CFA0F6F29CF29E000E73
:10459000B1EC04F00A000900F550EE6E0009FBE1F1
:1045A0000601A0BDF28CA0BFF28E060EA16F780EA0
:1045B000A06FA26B1E0EA36FA46B020EA56F00016D
:1045C0001BEC19F0010E0501B76F00012BEC16F082
:1045D000040E0601A06FFA0EA16F000196EC09F01F
:1045E0000601A02FF8D7056B066B076B086BA06B55
:1045F0000001FEEC15F00601B16BB26B7F0EB36FDC
:10460000190EB46F010EB56FB66F0001BAEC18F059
:10461000060EEA6E780EE96EF2CFA0F6F29CF29EDC
:10462000000E6DEC04F00A000900F550EE6E000972
:10463000FBE10601A0BDF28CA0BFF28E190EB16F96
:10464000010EB26F060EB46F780EB36F030EB56F26
:10465000B66B000139EC17F005C6A2F6140E060180
:10466000A36F1E0EA46F010EA56F0001E3EC1EF0F8
:1046700006C6A2F6280E0601A36F1E0EA46FA56B38
:104680000001E3EC1EF007C6A2F63C0E0601A36F84
:104690001E0EA46FA56B0001E3EC1EF005C6A2F68A
:1046A000500E0601A36F1E0EA46FA56B0001E3EC74
:1046B0001EF098C6B6F50601A06B0001FEEC15F0E1
:1046C0000501AB6B000E016E000192D091D0060186
:1046D000010E0501BD6FB76FAA6A040EA96E05C66B
:1046E000A8FFA69CA69EA684F250006EF29CF29EA5
:1046F0000F01550EA76EAA0EA76EA682A6B2FED710
:10470000A6940050F212320E0601A16F000196EC41
:1047100009F0AA6A050EA96E06C6A8FFA69CA69E69
:10472000A684F250006EF29CF29E0F01550EA76E09
:10473000AA0EA76EA682A6B2FED7A6940050F212C9
:10474000320E0601A16F000196EC09F0AA6A060E6E
:10475000A96E07C6A8FFA69CA69EA684F250006E6E
:10476000F29CF29E0F01550EA76EAA0EA76EA682AE
:10477000A6B2FED7A6940050F212320E0601A16F27
:10478000000196EC09F0AA6A070EA96E08C6A8FFF8
:10479000A69CA69EA684F250006EF29CF29E0F018B
:1047A000550EA76EAA0EA76EA682A6B2FED7A69435
:1047B0000050F212040E0601A06FFA0EA16F000164
:1047C00096EC09F00601A02FF8D7A06B0001FEECD3
:1047D00015F098C6B6F50501AB6B0601056B066BC7
:1047E000076B086B000149EC1FF0000E016E00D052
:1047F00005010001000C006A016A0601B651D8905B
:10480000B7B1002600320132B7B3002600320132C0
:10481000B7B5002600320132B7B7002600320132A8
:10482000B7B9002600320132B7BB00260032013290
:10483000B7BD002600320132B7BF00260032013278
:104840000001000C0601B26BAFC6B3F6010ED880B2
:10485000AF55B46FB05365E0B251AD5DB56FB351B4
:10486000AE25B66FB251AD25B76FB351AE25B86F57
:10487000B5C6BCF6B6C6BDF6B7C6BEF6BF6FB1C606
:10488000C0F600011BEC18F00601B251AD5DB56F2A
:10489000B351AE5DB66FB251AD25B76FB351AE5DDA
:1048A000B86FB5C6BCF6B6C6BDF6B7C6BEF6BF6F26
:1048B000B1C6C0F600011BEC18F00601B351AD5DA6
:1048C000B56FB251AE25B66FB351AD25B76FB251CA
:1048D000AE25B86FB5C6BCF6B6C6BDF6B7C6BEF651
:1048E000BF6FB1C6C0F600011BEC18F00601B35152
:1048F000AD5DB56FB251AE5DB66FB351AD25B76F5B
:10490000B251AE5DB86FB5C6BCF6B6C6BDF6B7C699
:10491000BEF6BF6FB1C6C0F600011BEC18F078D030
:104920000601AD51B225B56FAE51B325B66FB5C610
:10493000CCF6CD6FB1C6CEF60001DBEC16F0060169
:10494000AD51B325B56FAE51B225B66FB5C6CCF635
:10495000CD6FB1C6CEF60001DBEC16F00601B25108
:10496000AD5DB56FAE51B325B66FB5C6CCF6CD6FA4
:10497000B1C6CEF60001DBEC16F00601B351AD5D19
:10498000B56FAE51B225B66FB5C6CCF6CD6FB1C618
:10499000CEF60001DBEC16F00601AD51B325B56F84
:1049A000B251AE5DB66FB5C6CCF6CD6FB1C6CEF620
:1049B0000001DBEC16F00601AD51B225B56FB35125
:1049C000AE5DB66FB5C6CCF6CD6FB1C6CEF6000102
:1049D000DBEC16F00601B251AD5DB56FB351AE5DC3
:1049E000B66FB5C6CCF6CD6FB1C6CEF60001DBEC26
:1049F00016F00601B351AD5DB56FB251AE5DB66F45
:104A0000B5C6CCF6CD6FB1C6CEF60001DBEC16F024
:104A10000601B4BF01D00ED0B251B22BB56F020E59
:104A2000B66FB5C6B7F60001E6DE0150030F06010A
:104A3000B42711D0B251B22BB56FB351B307B55DE6
:104A4000B56F020EB66FB5C6B7F60001D4DE0150E1
:104A5000050F0601B427B251800A006EB351800AD7
:104A6000005CD8B4F7D6D8A0F5D60001000CEACF88
:104A7000B1F6E9CFB0F60601AA39F009AC6FAC2760
:104A8000E20FAD6F320FAF6FAA510F0BAD27AD27FD
:104A9000AF27E90FAE6FAE27AE27A9390F0BAE27B0
:104AA000AF27AE37AF37AF1FAF37A9510F0BAF27C7
:104AB000AC37070EAB6F0A0EAE07AF27FDE3AD07AD
:104AC000AE27FDE3AC07AD27FDE3AB07AC27FDE365
:104AD000060EEA6EAB0EE96E070EB015B09DE92624
:104AE000AF0EE95CD8B4B08DEF50006E08E1B0BDF8
:104AF00006D0B0B916D0B0B702D0200E03D0B08720
:104B0000B099300E0026EACFAAF6E9CFA9F600C088
:104B1000B8F6000163EC1EF0AAC6EAFFA9C6E9FFD9
:104B20000601EE50B0ADDCD70001000C06019E512D
:104B300002083AE1060E976FA00E966F0A0EE96E14
:104B40009BC6AAF69AC6A9F6000191DF06019F51FD
:104B5000120DF3509C25A96F9F51080DF3509D2510
:104B6000AA6F9CC6B1F69DC6B2F6A9C6B3F6B46FDD
:104B7000010EB56FB66F0001BAEC18F0010E060118
:104B80009C25A96F010E9D25AA6FA9C6B1F6B26F2B
:104B9000060EB46FA00EB36F9FC6B5F6B66B0001DC
:104BA00039EC17F09AD00601060E976FA00E966F9B
:104BB0000A0EE96E9BC6AAF69AC6A9F6000157DF4F
:104BC00006019E5104082DE19F51100DF3509C25C4
:104BD000A96F9F51080DF3509D25AA6F9CC6B1F691
:104BE0009DC6B2F6A9C6B3F6B46F010EB56FB66B2B
:104BF0000001BAEC18F0010E06019C25A96F010E08
:104C00009D25AA6FA9C6B1F6B26F060EB46FA00EAD
:104C1000B36F9FC6B5F6010EB66F000139EC17F001
:104C200006019E2D2CD09F51050DF3509C25A96F98
:104C30009F51080DF3509D25AA6F9CC6B1F69DC6E5
:104C4000B2F6A9C6B3F6B46F010EB56FB66F000128
:104C5000BAEC18F0010E06019C25A96F010E9D25E6
:104C6000AA6FA9C6B1F6B26F060EB46FA00EB36FED
:104C70009FC6B5F6B66B000139EC17F006019E53DE
:104C80002DE19F51050DF3509C25A96F9F51080DF3
:104C9000F3509D25AA6F9CC6B1F69DC6B2F6A9C673
:104CA000B3F6B46F010EB56FB66B0001BAEC18F035
:104CB000010E06019C25A96F010E9D25AA6FA9C6AC
:104CC000B1F6B26F060EB46FA00EB36F9FC6B5F605
:104CD000010EB66F000139EC17F0060100012BEC54
:104CE00016F0000C0601B851B608B86F036AB9C6D1
:104CF000BCF6B98FD890B933BA33BB330332023222
:104D000001320032B82FF6D7BCAF0BD0001E011E07
:104D1000021E031E002AD8B4012AD8B4022AD8B42D
:104D2000032A000100EF27F0006A016A026A036AA1
:104D30000601C06BC16BC26BC36BBF51BE11BD110D
:104D4000BC112CE0200EC46FD890B837B937BA37F1
:104D5000BB37C037C137C237C337BF51C35D08E166
:104D6000BE51C25D05E1BD51C15D02E1BC51C05DF6
:104D70000FE3BC51C05FBD51D8A0BD3DC15FBE5166
:104D8000D8A0BE3DC25FBF51D8A0BF3DC35FD88091
:104D90000036013602360336C42FD6D7060EEA6E29
:104DA000C00EE96E0001000CE9500601B06FAF5172
:104DB000B26F1CE0AEC6BBF6ADC6BAF6ACC6B9F66D
:104DC000ABC6B8F6BF6BBE6B200EBD6F820EBC6F5C
:104DD0000001D6EC19F003C0AEF602C0ADF601C07A
:104DE000ACF600C0ABF60601B22FE4D7AEC6BBF6F8
:104DF000ADC6BAF6ACC6B9F6ABC6B8F6000172D706
:104E000003C0AEF602C0ADF601C0ACF600C0ABF612
:104E10000601AEAF0DD0B007B08BAB1FAC1FAD1FFE
:104E2000AE1FAB2BD8B4AC2BD8B4AD2BD8B4AE2BB3
:104E30003B0EB76F9A0EB66FCA0EB56FB46B0A0E03
:104E4000B26FAF51D8B4B02BAEC6BBF6ADC6BAF692
:104E5000ACC6B9F6ABC6B8F6B7C6BFF6B6C6BEF6B0
:104E6000B5C6BDF6B4C6BCF600015EDF0150EFCF9B
:104E7000ABF6ECCFACF6ECCFADF6ECCFAEF6005225
:104E800013E10601AF29B25DD8A402D000010CD015
:104E9000B0510DE00F0BB25D01E044E2B0BF42D073
:104EA000B0BD05D0200E37D0200E0601B017B0AB34
:104EB0000FD0B09BAF51D8A4B0070050B06F2D0EEB
:104EC000B86F000163EC1EF00601B051006EB06BCC
:104ED000AF51B25D0DE10050B06F2E0EB86F000102
:104EE00063EC1EF00601B051006E200EB017000EEC
:104EF000300EB0AB10D0B09BAF51D8A4B00700506B
:104F0000B06F2D0EB86F000163EC1EF00601B051BA
:104F1000006EB06B300E002600C0B8F6000163ECE6
:104F20001EF00601B7C6BBF6B6C6BAF6B5C6B9F6E8
:104F3000B4C6B8F6BF6BBE6BBD6B0A0EBC6F00018A
:104F4000F3DE03C0B7F602C0B6F601C0B5F600C086
:104F5000B4F60601B22F78D70001000C0601A02D8F
:104F60009FD0060E976FA20E966F420EE96E9DC6F9
:104F7000AEF69CC6ADF69BC6ACF69AC6ABF6010E75
:104F8000AF6F000111DF020E06019F5DAB6FA151F3
:104F9000080DF3509F25AC6FB16BABC6B2F67F0E18
:104FA000B36FACC6B4F6010EB56FB66F0001BAECC4
:104FB00018F0060198C601F099C603F098C6ABF642
:104FC00099C6ACF6060EEA6E780EE96E99C6E2FF57
:104FD00098C6E1FFE752E6CFEEFFFCE1540E9E25B6
:104FE000AB6F010E9F25AC6FABC6B1F6B26F060E6C
:104FF000B46FA20EB36FA1C6B5F6B66B000139EC63
:1050000017F0010E06019E25AB6F010E9F25AC6FB8
:10501000ABC6B1F6B26F060EB46F780EB36FA1C611
:10502000B5F6B66B000139EC17F0060EEA6E780E95
:10503000E96EF2CFABF6F29CF29E000ECBEC03F0E1
:105040000A000900F550EE6E0009FBE10601ABBD58
:10505000F28CABBFF28E780E9E25AB6F010E9F25B2
:10506000AC6FABC6B1F6B26F060EB46F780EB36F0D
:10507000A1C6B5F6B66B000139EC17F0730E060148
:105080009E25AB6F010E9F5DAC6FABC6ADF6AE6FEC
:10509000010EAF6FB06BB16B000122EC24F0060182
:1050A000A053D8A4A1D0060E976FA20E966F420E01
:1050B000E96E9DC6AEF69CC6ADF69BC6ACF69AC62A
:1050C000ABF6010EAF6F00016FDE020E06019F5DB1
:1050D000AB6FA151080DF3509F25AC6FB16BABC600
:1050E000B2F67F0EB36FACC6B4F6010EB56FB66BF9
:1050F0000001BAEC18F0060198C601F099C603F059
:1051000098C6ABF699C6ACF6060EEA6E780EE96E56
:1051100099C6E2FF98C6E1FFE752E6CFEEFFFCE159
:10512000540E9E25AB6F010E9F25AC6FABC6B1F63A
:10513000B26F060EB46FA20EB36FA1C6B5F6010E24
:10514000B66F000139EC17F0010E06019E25AB6F1A
:10515000010E9F25AC6FABC6B1F6B26F060EB46FF1
:10516000780EB36FA1C6B5F6010EB66F000139EC2B
:1051700017F0060EEA6E780EE96EF2CFABF6F29CEF
:10518000F29E000ECBEC03F00A000900F550EE6E23
:105190000009FBE10601ABBDF28CABBFF28E780ECD
:1051A0009E25AB6F010E9F25AC6FABC6B1F6B26FFB
:1051B000060EB46F780EB36FA1C6B5F6010EB66FCA
:1051C000000139EC17F0730E06019E25AB6F010E3E
:1051D0009F5DAC6FABC6ADF6AE6F010EAF6FB06B3F
:1051E000B16F000122EC24F000012BEC16F0000C52
:1051F0000150A7C6B5F6640E0601B66F00014DEC6E
:105200001EF000C0A7F60150300E08E10601A8A369
:1052100010D0A8B70ED0A8B9200E04D00601A897C8
:10522000A899A881012601C0B8F6000163EC1EF020
:105230000601A7C6B5F60A0EB66F00014DEC1EF0CA
:1052400000C0A7F60150300E08E10601A8B70BD048
:10525000A8A109D0A8B9200E0001012601C0B8F606
:1052600063EC1EF00601300EA727A7C6B8F60001B2
:1052700063EC1EF0000C06019C51020838E1060E9A
:10528000976F9E0E966F99C6A7F6030EA86F000142
:10529000AFDF06019D51120DF3509A25A76F9D5166
:1052A000080DF3509B25A86F9AC6B1F69BC6B2F6BF
:1052B000A7C6B3F6B46F010EB56FB66F0001BAECB6
:1052C00018F0010E06019A25A76F010E9B25A86F05
:1052D000A7C6B1F6B26F060EB46F9E0EB36F9DC631
:1052E000B5F6B66B000139EC17F0A3D006019C515E
:1052F000030838E1060E976F9E0E966F99C6A7F6C3
:10530000030EA86F000174DF06019D51120DF350CA
:105310009A25A76F9D51080DF3509B25A86F9AC63B
:10532000B1F69BC6B2F6A7C6B3F6B46F010EB56F61
:10533000B66B0001BAEC18F0010E06019A25A76FB2
:10534000010E9B25A86FA7C6B1F6B26F060EB46F0B
:105350009E0EB36F9DC6B5F6010EB66F000139EC17
:1053600017F00601060E976F9E0E966F99C6A7F668
:105370001B0EA86F00013CDF06019C2D2CD09D5117
:10538000050DF3509A25A76F9D51080DF3509B25ED
:10539000A86F9AC6B1F69BC6B2F6A7C6B3F6B46FAD
:1053A000010EB56FB66F0001BAEC18F0010E0601E0
:1053B0009A25A76F010E9B25A86FA7C6B1F6B26FFD
:1053C000060EB46F9E0EB36F9DC6B5F6B66B0001A8
:1053D00039EC17F006019C532DE19D51050DF3505A
:1053E0009A25A76F9D51080DF3509B25A86F9AC66B
:1053F000B1F69BC6B2F6A7C6B3F6B46F010EB56F91
:10540000B66B0001BAEC18F0010E06019A25A76FE1
:10541000010E9B25A86FA7C6B1F6B26F060EB46F3A
:105420009E0EB36F9DC6B5F6010EB66F000139EC46
:1054300017F0060100012BEC16F0000C0601985144
:10544000050855E1996B99513F0851E39A6B9A51C0
:105450000F084BE3070E9B6F9B51800A7F0843E2C6
:105460009D6B99C69CF69F6B100E9E6F0001C5EC5C
:1054700019F002C09DF601C09CF606019A51012464
:10548000016E000E0220036E0150F2CF9CF6F29CDA
:10549000F29E03C0F7FF0001BAEC01F006019CBDCB
:1054A000F28C9CBFF28E9C6F070ED8809B559D6F2F
:1054B0009CC600F09D51016E04E0D8900032012E90
:1054C000FCD700A00ED09A51080DF3509B259C6F7D
:1054D000CC6F99C6CDF6010ECE6F0001DBEC16F055
:1054E00006019B07B9D79A2BB2D7992BACD70001ED
:1054F000B2EF48F00501B051040DF350036A980F64
:10550000E96E050E0320EA6E45C6EFFF46C6ECFFC6
:1055100047C6ECFF48C6ECFFB02BB05101081EE2B5
:10552000B06BD8829FC5A7F69EC5A6F69DC5A5F609
:105530009CC5A4F69BC5ABF69AC5AAF699C5A9F673
:1055400098C5A8F6000197EC0AF003C044F602C023
:1055500043F601C042F600C041F605010001000C0F
:10556000FCC5F8F5FBC5F7F5FAC5F6F5F9C5F5F58F
:105570000601A56BA6C5A4F60001CDEC09F0F8C59F
:105580009BF6F7C59AF6F6C599F6F5C598F603C0E9
:105590009FF602C09EF601C09DF600C09CF622EC6C
:1055A00010F001E203E1A6DF0501A66B0601386BEE
:1055B000376B366B7E0E356FD89238C6A7F637C676
:1055C000A6F636C6A5F635C6A4F650C6ABF64FC647
:1055D000AAF64EC6A9F64DC6A8F6000197EC0AF049
:1055E00000C098F601C099F602C09AF603C09BF677
:1055F000D88203C0A7F602C0A6F601C0A5F600C077
:10560000A4F648C6ABF647C6AAF646C6A9F645C6EE
:10561000A8F697EC0AF003C024F602C023F601C0F6
:1056200022F600C021F606019B6B9A6B700E996FF3
:10563000820E986F24C69FF623C69EF622C69DF65C
:1056400021C69CF6000122EC10F002E2D8A417D18A
:1056500024C69BF623C69AF622C699F621C698F66A
:1056600006019F6B9E6B700E9D6F840E9C6F0001F8
:1056700022EC10F0D8A003D144C69BF643C69AF69C
:1056800042C699F641C698F606019F6B9E6B9D6BCC
:105690007E0E9C6F000122EC10F002E2D8A4EFD045
:1056A000FCC5BBF6FBC5BAF6FAC5B9F6F9C5B8F63E
:1056B0000601BF6BBE6BBD6B800EBC6F0001D6ECEC
:1056C00019F003C0F8F502C0F7F501C0F6F500C007
:1056D000F5F50501AD99AD9B0A0EAA6FE0C59BF6E5
:1056E000DFC59AF6DEC599F6DDC598F606019F6B13
:1056F0009E6B480E9D6F840E9C6F000122EC10F093
:10570000D8A0BCD0D4C5A5F6D3C5A4F6CDEC09F07D
:10571000F8C59BF6F7C59AF6F6C599F6F5C598F65D
:1057200003C09FF602C09EF601C09DF600C09CF625
:1057300022EC10F002E2D8A4A1D00501D46BD36B07
:1057400044C69BF643C69AF642C699F641C698F6F9
:1057500006019F6B9E6B800E9D6F7E0E9C6F0001FD
:1057600022EC10F02EE3D892F4C5A7F6F3C5A6F606
:10577000F2C5A5F6F1C5A4F60601AB6BAA6BA96B41
:105780007F0EA86F000197EC0AF0D89234C6A7F6F6
:1057900033C6A6F632C6A5F631C6A4F603C0ABF6EC
:1057A00002C0AAF601C0A9F600C0A8F697EC0AF05C
:1057B00003C034F602C033F601C032F600C031F641
:1057C0005DD044C69BF643C69AF642C699F641C6DA
:1057D00098F6CD0E06019F6FCC0E9E6F9D6F7B0ECF
:1057E0009C6F000122EC10F01CE3D89234C6A7F69F
:1057F00033C6A6F632C6A5F631C6A4F6F4C5ABF696
:10580000F3C5AAF6F2C5A9F6F1C5A8F697EC0AF019
:1058100003C034F602C033F601C032F600C031F6E0
:105820002DD0D882F4C5A7F6F3C5A6F6F2C5A5F625
:10583000F1C5A4F60601AB6BAA6BA96B7E0EA86F2F
:10584000000197EC0AF0D89234C6A7F633C6A6F644
:1058500032C6A5F631C6A4F603C0ABF602C0AAF65E
:1058600001C0A9F600C0A8F697EC0AF003C034F610
:1058700002C033F601C032F600C031F65CD2060138
:105880009B6B9A6B400E996F810E986F24C69FF6A2
:1058900023C69EF622C69DF621C69CF6000122EC88
:1058A00010F002E2D8A41AD124C69BF623C69AF6B9
:1058B00022C699F621C698F606019F6B9E6B700E64
:1058C0009D6F820E9C6F000122EC10F0D8A006D1D3
:1058D00044C69BF643C69AF642C699F641C698F668
:1058E0009A0E06019F6F990E9E6F190E9D6F7D0E89
:1058F0009C6F000122EC10F002E2D8A4EFD0FCC5AE
:10590000BBF6FBC5BAF6FAC5B9F6F9C5B8F6060195
:10591000BF6BBE6BBD6B800EBC6F0001D6EC19F087
:1059200003C0F8F502C0F7F501C0F6F500C0F5F5C3
:105930000501AD99AD9B0A0EAA6FE0C59BF6DFC5C8
:105940009AF6DEC599F6DDC598F606019F6B9E6B4B
:10595000200E9D6F840E9C6F000122EC10F0D8A0E9
:10596000BCD0D4C5A5F6D3C5A4F6CDEC09F0F8C5D6
:105970009BF6F7C59AF6F6C599F6F5C598F603C0F5
:105980009FF602C09EF601C09DF600C09CF622EC78
:1059900010F002E2D8A4A1D00501D46BD36B44C6A9
:1059A0009BF643C69AF642C699F641C698F606019A
:1059B0009F6B9E6B800E9D6F7E0E9C6F000122EC94
:1059C00010F02EE3D892F4C5A7F6F3C5A6F6F2C5FB
:1059D000A5F6F1C5A4F60601AB6BAA6BA96B7F0E09
:1059E000A86F000197EC0AF0D89234C6A7F633C628
:1059F000A6F632C6A5F631C6A4F603C0ABF602C0C1
:105A0000AAF601C0A9F600C0A8F697EC0AF003C0F8
:105A100034F602C033F601C032F600C031F65DD074
:105A200044C69BF643C69AF642C699F641C698F616
:105A3000CD0E06019F6FCC0E9E6F9D6F7B0E9C6FEF
:105A4000000122EC10F01CE3D89234C6A7F633C64E
:105A5000A6F632C6A5F631C6A4F6F4C5ABF6F3C574
:105A6000AAF6F2C5A9F6F1C5A8F697EC0AF003C0AC
:105A700034F602C033F601C032F600C031F62DD044
:105A8000D882F4C5A7F6F3C5A6F6F2C5A5F6F1C50A
:105A9000A4F60601AB6BAA6BA96B7E0EA86F000182
:105AA00097EC0AF0D89234C6A7F633C6A6F632C6EB
:105AB000A5F631C6A4F603C0ABF602C0AAF601C033
:105AC000A9F600C0A8F697EC0AF003C034F602C0AD
:105AD00033F601C032F600C031F62DD1330E060187
